{
	"contracts/Library.sol": {
		"Library": {
			"abi": [
				{
					"anonymous": false,
					"inputs": [
						{
							"indexed": true,
							"internalType": "address",
							"name": "previousOwner",
							"type": "address"
						},
						{
							"indexed": true,
							"internalType": "address",
							"name": "newOwner",
							"type": "address"
						}
					],
					"name": "OwnershipTransferred",
					"type": "event"
				},
				{
					"inputs": [
						{
							"internalType": "uint256",
							"name": "",
							"type": "uint256"
						}
					],
					"name": "BookLedger",
					"outputs": [
						{
							"internalType": "string",
							"name": "name",
							"type": "string"
						},
						{
							"internalType": "uint256",
							"name": "copies",
							"type": "uint256"
						},
						{
							"internalType": "uint256",
							"name": "ownerCount",
							"type": "uint256"
						}
					],
					"stateMutability": "view",
					"type": "function"
				},
				{
					"inputs": [
						{
							"internalType": "string",
							"name": "_name",
							"type": "string"
						},
						{
							"internalType": "uint256",
							"name": "_copies",
							"type": "uint256"
						}
					],
					"name": "addBook",
					"outputs": [],
					"stateMutability": "nonpayable",
					"type": "function"
				},
				{
					"inputs": [
						{
							"internalType": "uint256",
							"name": "_bookId",
							"type": "uint256"
						},
						{
							"internalType": "uint256",
							"name": "_copies",
							"type": "uint256"
						}
					],
					"name": "addBookCopies",
					"outputs": [],
					"stateMutability": "nonpayable",
					"type": "function"
				},
				{
					"inputs": [],
					"name": "bookCount",
					"outputs": [
						{
							"internalType": "uint256",
							"name": "",
							"type": "uint256"
						}
					],
					"stateMutability": "view",
					"type": "function"
				},
				{
					"inputs": [
						{
							"internalType": "uint256",
							"name": "_id",
							"type": "uint256"
						}
					],
					"name": "borrowBook",
					"outputs": [],
					"stateMutability": "nonpayable",
					"type": "function"
				},
				{
					"inputs": [],
					"name": "getAllAvailableBooks",
					"outputs": [
						{
							"internalType": "uint256[]",
							"name": "",
							"type": "uint256[]"
						}
					],
					"stateMutability": "view",
					"type": "function"
				},
				{
					"inputs": [],
					"name": "owner",
					"outputs": [
						{
							"internalType": "address",
							"name": "",
							"type": "address"
						}
					],
					"stateMutability": "view",
					"type": "function"
				},
				{
					"inputs": [],
					"name": "renounceOwnership",
					"outputs": [],
					"stateMutability": "nonpayable",
					"type": "function"
				},
				{
					"inputs": [
						{
							"internalType": "uint256",
							"name": "_id",
							"type": "uint256"
						}
					],
					"name": "returnBook",
					"outputs": [],
					"stateMutability": "nonpayable",
					"type": "function"
				},
				{
					"inputs": [
						{
							"internalType": "address",
							"name": "newOwner",
							"type": "address"
						}
					],
					"name": "transferOwnership",
					"outputs": [],
					"stateMutability": "nonpayable",
					"type": "function"
				}
			],
			"devdoc": {
				"kind": "dev",
				"methods": {
					"owner()": {
						"details": "Returns the address of the current owner."
					},
					"renounceOwnership()": {
						"details": "Leaves the contract without owner. It will not be possible to call `onlyOwner` functions anymore. Can only be called by the current owner. NOTE: Renouncing ownership will leave the contract without an owner, thereby removing any functionality that is only available to the owner."
					},
					"transferOwnership(address)": {
						"details": "Transfers ownership of the contract to a new account (`newOwner`). Can only be called by the current owner."
					}
				},
				"version": 1
			},
			"evm": {
				"assembly": "    /* \"contracts/Library.sol\":84:2786  contract Library is Ownable{\r... */\n  mstore(0x40, 0x80)\n  callvalue\n  dup1\n  iszero\n  tag_1\n  jumpi\n  0x00\n  dup1\n  revert\ntag_1:\n  pop\n    /* \"@openzeppelin/contracts/access/Ownable.sol\":936:968  _transferOwnership(_msgSender()) */\n  tag_4\n    /* \"@openzeppelin/contracts/access/Ownable.sol\":955:967  _msgSender() */\n  tag_5\n    /* \"@openzeppelin/contracts/access/Ownable.sol\":955:965  _msgSender */\n  shl(0x20, tag_6)\n    /* \"@openzeppelin/contracts/access/Ownable.sol\":955:967  _msgSender() */\n  0x20\n  shr\n  jump\t// in\ntag_5:\n    /* \"@openzeppelin/contracts/access/Ownable.sol\":936:954  _transferOwnership */\n  shl(0x20, tag_7)\n    /* \"@openzeppelin/contracts/access/Ownable.sol\":936:968  _transferOwnership(_msgSender()) */\n  0x20\n  shr\n  jump\t// in\ntag_4:\n    /* \"contracts/Library.sol\":84:2786  contract Library is Ownable{\r... */\n  jump(tag_8)\n    /* \"@openzeppelin/contracts/utils/Context.sol\":640:736  function _msgSender() internal view virtual returns (address) {... */\ntag_6:\n    /* \"@openzeppelin/contracts/utils/Context.sol\":693:700  address */\n  0x00\n    /* \"@openzeppelin/contracts/utils/Context.sol\":719:729  msg.sender */\n  caller\n    /* \"@openzeppelin/contracts/utils/Context.sol\":712:729  return msg.sender */\n  swap1\n  pop\n    /* \"@openzeppelin/contracts/utils/Context.sol\":640:736  function _msgSender() internal view virtual returns (address) {... */\n  swap1\n  jump\t// out\n    /* \"@openzeppelin/contracts/access/Ownable.sol\":2433:2620  function _transferOwnership(address newOwner) internal virtual {... */\ntag_7:\n    /* \"@openzeppelin/contracts/access/Ownable.sol\":2506:2522  address oldOwner */\n  0x00\n    /* \"@openzeppelin/contracts/access/Ownable.sol\":2525:2531  _owner */\n  dup1\n  0x00\n  swap1\n  sload\n  swap1\n  0x0100\n  exp\n  swap1\n  div\n  0xffffffffffffffffffffffffffffffffffffffff\n  and\n    /* \"@openzeppelin/contracts/access/Ownable.sol\":2506:2531  address oldOwner = _owner */\n  swap1\n  pop\n    /* \"@openzeppelin/contracts/access/Ownable.sol\":2550:2558  newOwner */\n  dup2\n    /* \"@openzeppelin/contracts/access/Ownable.sol\":2541:2547  _owner */\n  0x00\n  dup1\n    /* \"@openzeppelin/contracts/access/Ownable.sol\":2541:2558  _owner = newOwner */\n  0x0100\n  exp\n  dup2\n  sload\n  dup2\n  0xffffffffffffffffffffffffffffffffffffffff\n  mul\n  not\n  and\n  swap1\n  dup4\n  0xffffffffffffffffffffffffffffffffffffffff\n  and\n  mul\n  or\n  swap1\n  sstore\n  pop\n    /* \"@openzeppelin/contracts/access/Ownable.sol\":2604:2612  newOwner */\n  dup2\n    /* \"@openzeppelin/contracts/access/Ownable.sol\":2573:2613  OwnershipTransferred(oldOwner, newOwner) */\n  0xffffffffffffffffffffffffffffffffffffffff\n  and\n    /* \"@openzeppelin/contracts/access/Ownable.sol\":2594:2602  oldOwner */\n  dup2\n    /* \"@openzeppelin/contracts/access/Ownable.sol\":2573:2613  OwnershipTransferred(oldOwner, newOwner) */\n  0xffffffffffffffffffffffffffffffffffffffff\n  and\n  0x8be0079c531659141344cd1fd0a4f28419497f9722a3daafe3b4186f6b6457e0\n  mload(0x40)\n  mload(0x40)\n  dup1\n  swap2\n  sub\n  swap1\n  log3\n    /* \"@openzeppelin/contracts/access/Ownable.sol\":2496:2620  {... */\n  pop\n    /* \"@openzeppelin/contracts/access/Ownable.sol\":2433:2620  function _transferOwnership(address newOwner) internal virtual {... */\n  pop\n  jump\t// out\n    /* \"contracts/Library.sol\":84:2786  contract Library is Ownable{\r... */\ntag_8:\n  dataSize(sub_0)\n  dup1\n  dataOffset(sub_0)\n  0x00\n  codecopy\n  0x00\n  return\nstop\n\nsub_0: assembly {\n        /* \"contracts/Library.sol\":84:2786  contract Library is Ownable{\r... */\n      mstore(0x40, 0x80)\n      callvalue\n      dup1\n      iszero\n      tag_1\n      jumpi\n      0x00\n      dup1\n      revert\n    tag_1:\n      pop\n      jumpi(tag_2, lt(calldatasize, 0x04))\n      shr(0xe0, calldataload(0x00))\n      dup1\n      0x8da5cb5b\n      gt\n      tag_13\n      jumpi\n      dup1\n      0x8da5cb5b\n      eq\n      tag_8\n      jumpi\n      dup1\n      0xb905ad78\n      eq\n      tag_9\n      jumpi\n      dup1\n      0xca5140c9\n      eq\n      tag_10\n      jumpi\n      dup1\n      0xf2fde38b\n      eq\n      tag_11\n      jumpi\n      dup1\n      0xf4cbc4a6\n      eq\n      tag_12\n      jumpi\n      jump(tag_2)\n    tag_13:\n      dup1\n      0x60f9eefc\n      eq\n      tag_3\n      jumpi\n      dup1\n      0x637a3872\n      eq\n      tag_4\n      jumpi\n      dup1\n      0x715018a6\n      eq\n      tag_5\n      jumpi\n      dup1\n      0x7975c6b4\n      eq\n      tag_6\n      jumpi\n      dup1\n      0x7e490a9e\n      eq\n      tag_7\n      jumpi\n    tag_2:\n      0x00\n      dup1\n      revert\n        /* \"contracts/Library.sol\":1050:1357  function addBookCopies(uint256 _bookId, uint256 _copies)\r... */\n    tag_3:\n      tag_14\n      0x04\n      dup1\n      calldatasize\n      sub\n      dup2\n      add\n      swap1\n      tag_15\n      swap2\n      swap1\n      tag_16\n      jump\t// in\n    tag_15:\n      tag_17\n      jump\t// in\n    tag_14:\n      stop\n        /* \"contracts/Library.sol\":642:1040  function addBook(string memory _name, uint256 _copies)\r... */\n    tag_4:\n      tag_18\n      0x04\n      dup1\n      calldatasize\n      sub\n      dup2\n      add\n      swap1\n      tag_19\n      swap2\n      swap1\n      tag_20\n      jump\t// in\n    tag_19:\n      tag_21\n      jump\t// in\n    tag_18:\n      stop\n        /* \"@openzeppelin/contracts/access/Ownable.sol\":1831:1932  function renounceOwnership() public virtual onlyOwner {... */\n    tag_5:\n      tag_22\n      tag_23\n      jump\t// in\n    tag_22:\n      stop\n        /* \"contracts/Library.sol\":377:419  mapping(uint256 => Book) public BookLedger */\n    tag_6:\n      tag_24\n      0x04\n      dup1\n      calldatasize\n      sub\n      dup2\n      add\n      swap1\n      tag_25\n      swap2\n      swap1\n      tag_26\n      jump\t// in\n    tag_25:\n      tag_27\n      jump\t// in\n    tag_24:\n      mload(0x40)\n      tag_28\n      swap4\n      swap3\n      swap2\n      swap1\n      tag_29\n      jump\t// in\n    tag_28:\n      mload(0x40)\n      dup1\n      swap2\n      sub\n      swap1\n      return\n        /* \"contracts/Library.sol\":1367:1778  function borrowBook(uint256 _id) external {\r... */\n    tag_7:\n      tag_30\n      0x04\n      dup1\n      calldatasize\n      sub\n      dup2\n      add\n      swap1\n      tag_31\n      swap2\n      swap1\n      tag_26\n      jump\t// in\n    tag_31:\n      tag_32\n      jump\t// in\n    tag_30:\n      stop\n        /* \"@openzeppelin/contracts/access/Ownable.sol\":1201:1286  function owner() public view virtual returns (address) {... */\n    tag_8:\n      tag_33\n      tag_34\n      jump\t// in\n    tag_33:\n      mload(0x40)\n      tag_35\n      swap2\n      swap1\n      tag_36\n      jump\t// in\n    tag_35:\n      mload(0x40)\n      dup1\n      swap2\n      sub\n      swap1\n      return\n        /* \"contracts/Library.sol\":294:318  uint256 public bookCount */\n    tag_9:\n      tag_37\n      tag_38\n      jump\t// in\n    tag_37:\n      mload(0x40)\n      tag_39\n      swap2\n      swap1\n      tag_40\n      jump\t// in\n    tag_39:\n      mload(0x40)\n      dup1\n      swap2\n      sub\n      swap1\n      return\n        /* \"contracts/Library.sol\":1787:2046  function returnBook(uint256 _id) external {\r... */\n    tag_10:\n      tag_41\n      0x04\n      dup1\n      calldatasize\n      sub\n      dup2\n      add\n      swap1\n      tag_42\n      swap2\n      swap1\n      tag_26\n      jump\t// in\n    tag_42:\n      tag_43\n      jump\t// in\n    tag_41:\n      stop\n        /* \"@openzeppelin/contracts/access/Ownable.sol\":2081:2279  function transferOwnership(address newOwner) public virtual onlyOwner {... */\n    tag_11:\n      tag_44\n      0x04\n      dup1\n      calldatasize\n      sub\n      dup2\n      add\n      swap1\n      tag_45\n      swap2\n      swap1\n      tag_46\n      jump\t// in\n    tag_45:\n      tag_47\n      jump\t// in\n    tag_44:\n      stop\n        /* \"contracts/Library.sol\":2055:2783  function getAllAvailableBooks() external view returns (uint256[] memory) {\r... */\n    tag_12:\n      tag_48\n      tag_49\n      jump\t// in\n    tag_48:\n      mload(0x40)\n      tag_50\n      swap2\n      swap1\n      tag_51\n      jump\t// in\n    tag_50:\n      mload(0x40)\n      dup1\n      swap2\n      sub\n      swap1\n      return\n        /* \"contracts/Library.sol\":1050:1357  function addBookCopies(uint256 _bookId, uint256 _copies)\r... */\n    tag_17:\n        /* \"@openzeppelin/contracts/access/Ownable.sol\":1094:1107  _checkOwner() */\n      tag_53\n        /* \"@openzeppelin/contracts/access/Ownable.sol\":1094:1105  _checkOwner */\n      tag_54\n        /* \"@openzeppelin/contracts/access/Ownable.sol\":1094:1107  _checkOwner() */\n      jump\t// in\n    tag_53:\n        /* \"contracts/Library.sol\":1178:1179  0 */\n      0x00\n        /* \"contracts/Library.sol\":1168:1175  _copies */\n      dup2\n        /* \"contracts/Library.sol\":1168:1179  _copies > 0 */\n      gt\n        /* \"contracts/Library.sol\":1160:1189  require(_copies > 0, \"!zero\") */\n      tag_56\n      jumpi\n      mload(0x40)\n      0x08c379a000000000000000000000000000000000000000000000000000000000\n      dup2\n      mstore\n      0x04\n      add\n      tag_57\n      swap1\n      tag_58\n      jump\t// in\n    tag_57:\n      mload(0x40)\n      dup1\n      swap2\n      sub\n      swap1\n      revert\n    tag_56:\n        /* \"contracts/Library.sol\":1200:1217  Book storage book */\n      0x00\n        /* \"contracts/Library.sol\":1220:1230  BookLedger */\n      0x07\n        /* \"contracts/Library.sol\":1220:1239  BookLedger[_bookId] */\n      0x00\n        /* \"contracts/Library.sol\":1231:1238  _bookId */\n      dup5\n        /* \"contracts/Library.sol\":1220:1239  BookLedger[_bookId] */\n      dup2\n      mstore\n      0x20\n      add\n      swap1\n      dup2\n      mstore\n      0x20\n      add\n      0x00\n      keccak256\n        /* \"contracts/Library.sol\":1200:1239  Book storage book = BookLedger[_bookId] */\n      swap1\n      pop\n        /* \"contracts/Library.sol\":1285:1286  0 */\n      0x00\n        /* \"contracts/Library.sol\":1264:1268  book */\n      dup2\n        /* \"contracts/Library.sol\":1264:1273  book.name */\n      0x00\n      add\n        /* \"contracts/Library.sol\":1258:1281  bytes(book.name).length */\n      dup1\n      sload\n      tag_59\n      swap1\n      tag_60\n      jump\t// in\n    tag_59:\n      swap1\n      pop\n        /* \"contracts/Library.sol\":1258:1286  bytes(book.name).length != 0 */\n      eq\n      iszero\n        /* \"contracts/Library.sol\":1250:1310  require(bytes(book.name).length != 0, \"Book does not exist\") */\n      tag_61\n      jumpi\n      mload(0x40)\n      0x08c379a000000000000000000000000000000000000000000000000000000000\n      dup2\n      mstore\n      0x04\n      add\n      tag_62\n      swap1\n      tag_63\n      jump\t// in\n    tag_62:\n      mload(0x40)\n      dup1\n      swap2\n      sub\n      swap1\n      revert\n    tag_61:\n        /* \"contracts/Library.sol\":1348:1349  1 */\n      0x01\n        /* \"contracts/Library.sol\":1335:1339  book */\n      dup2\n        /* \"contracts/Library.sol\":1335:1346  book.copies */\n      0x01\n      add\n      0x00\n        /* \"contracts/Library.sol\":1335:1349  book.copies+=1 */\n      dup3\n      dup3\n      sload\n      tag_64\n      swap2\n      swap1\n      tag_65\n      jump\t// in\n    tag_64:\n      swap3\n      pop\n      pop\n      dup2\n      swap1\n      sstore\n        /* \"contracts/Library.sol\":1321:1325  book */\n      dup2\n        /* \"contracts/Library.sol\":1321:1332  book.copies */\n      0x01\n      add\n        /* \"contracts/Library.sol\":1321:1349  book.copies = book.copies+=1 */\n      dup2\n      swap1\n      sstore\n      pop\n        /* \"contracts/Library.sol\":1149:1357  {\r... */\n      pop\n        /* \"contracts/Library.sol\":1050:1357  function addBookCopies(uint256 _bookId, uint256 _copies)\r... */\n      pop\n      pop\n      jump\t// out\n        /* \"contracts/Library.sol\":642:1040  function addBook(string memory _name, uint256 _copies)\r... */\n    tag_21:\n        /* \"@openzeppelin/contracts/access/Ownable.sol\":1094:1107  _checkOwner() */\n      tag_67\n        /* \"@openzeppelin/contracts/access/Ownable.sol\":1094:1105  _checkOwner */\n      tag_54\n        /* \"@openzeppelin/contracts/access/Ownable.sol\":1094:1107  _checkOwner() */\n      jump\t// in\n    tag_67:\n        /* \"contracts/Library.sol\":760:765  _name */\n      dup2\n        /* \"contracts/Library.sol\":570:581  isAvailable */\n      0x06\n        /* \"contracts/Library.sol\":582:587  _name */\n      dup2\n        /* \"contracts/Library.sol\":570:588  isAvailable[_name] */\n      mload(0x40)\n      tag_69\n      swap2\n      swap1\n      tag_70\n      jump\t// in\n    tag_69:\n      swap1\n      dup2\n      mstore\n      0x20\n      add\n      mload(0x40)\n      dup1\n      swap2\n      sub\n      swap1\n      keccak256\n      0x00\n      swap1\n      sload\n      swap1\n      0x0100\n      exp\n      swap1\n      div\n      0xff\n      and\n        /* \"contracts/Library.sol\":569:588  !isAvailable[_name] */\n      iszero\n        /* \"contracts/Library.sol\":561:610  require(!isAvailable[_name], \"Book is available\") */\n      tag_71\n      jumpi\n      mload(0x40)\n      0x08c379a000000000000000000000000000000000000000000000000000000000\n      dup2\n      mstore\n      0x04\n      add\n      tag_72\n      swap1\n      tag_73\n      jump\t// in\n    tag_72:\n      mload(0x40)\n      dup1\n      swap2\n      sub\n      swap1\n      revert\n    tag_71:\n        /* \"contracts/Library.sol\":814:815  0 */\n      0x00\n        /* \"contracts/Library.sol\":797:802  _name */\n      dup4\n        /* \"contracts/Library.sol\":791:810  bytes(_name).length */\n      mload\n        /* \"contracts/Library.sol\":791:815  bytes(_name).length != 0 */\n      eq\n      iszero\n        /* \"contracts/Library.sol\":783:840  require(bytes(_name).length != 0, \"Name cannot be empty\") */\n      tag_75\n      jumpi\n      mload(0x40)\n      0x08c379a000000000000000000000000000000000000000000000000000000000\n      dup2\n      mstore\n      0x04\n      add\n      tag_76\n      swap1\n      tag_77\n      jump\t// in\n    tag_76:\n      mload(0x40)\n      dup1\n      swap2\n      sub\n      swap1\n      revert\n    tag_75:\n        /* \"contracts/Library.sol\":872:876  true */\n      0x01\n        /* \"contracts/Library.sol\":851:862  isAvailable */\n      0x06\n        /* \"contracts/Library.sol\":863:868  _name */\n      dup5\n        /* \"contracts/Library.sol\":851:869  isAvailable[_name] */\n      mload(0x40)\n      tag_78\n      swap2\n      swap1\n      tag_70\n      jump\t// in\n    tag_78:\n      swap1\n      dup2\n      mstore\n      0x20\n      add\n      mload(0x40)\n      dup1\n      swap2\n      sub\n      swap1\n      keccak256\n      0x00\n        /* \"contracts/Library.sol\":851:876  isAvailable[_name] = true */\n      0x0100\n      exp\n      dup2\n      sload\n      dup2\n      0xff\n      mul\n      not\n      and\n      swap1\n      dup4\n      iszero\n      iszero\n      mul\n      or\n      swap1\n      sstore\n      pop\n        /* \"contracts/Library.sol\":887:902  uint256 _bookId */\n      0x00\n        /* \"contracts/Library.sol\":914:915  1 */\n      0x01\n        /* \"contracts/Library.sol\":905:915  _copies+=1 */\n      dup4\n      tag_79\n      swap2\n      swap1\n      tag_65\n      jump\t// in\n    tag_79:\n      swap3\n      pop\n      dup3\n        /* \"contracts/Library.sol\":887:915  uint256 _bookId = _copies+=1 */\n      swap1\n      pop\n        /* \"contracts/Library.sol\":926:943  Book storage book */\n      0x00\n        /* \"contracts/Library.sol\":946:956  BookLedger */\n      0x07\n        /* \"contracts/Library.sol\":946:965  BookLedger[_bookId] */\n      0x00\n        /* \"contracts/Library.sol\":957:964  _bookId */\n      dup4\n        /* \"contracts/Library.sol\":946:965  BookLedger[_bookId] */\n      dup2\n      mstore\n      0x20\n      add\n      swap1\n      dup2\n      mstore\n      0x20\n      add\n      0x00\n      keccak256\n        /* \"contracts/Library.sol\":926:965  Book storage book = BookLedger[_bookId] */\n      swap1\n      pop\n        /* \"contracts/Library.sol\":988:993  _name */\n      dup5\n        /* \"contracts/Library.sol\":976:980  book */\n      dup2\n        /* \"contracts/Library.sol\":976:985  book.name */\n      0x00\n      add\n        /* \"contracts/Library.sol\":976:993  book.name = _name */\n      swap1\n      dup1\n      mload\n      swap1\n      0x20\n      add\n      swap1\n      tag_80\n      swap3\n      swap2\n      swap1\n      tag_81\n      jump\t// in\n    tag_80:\n      pop\n        /* \"contracts/Library.sol\":1018:1025  _copies */\n      dup4\n        /* \"contracts/Library.sol\":1004:1008  book */\n      dup2\n        /* \"contracts/Library.sol\":1004:1015  book.copies */\n      0x01\n      add\n        /* \"contracts/Library.sol\":1004:1025  book.copies = _copies */\n      dup2\n      swap1\n      sstore\n      pop\n        /* \"contracts/Library.sol\":772:1040  {\r... */\n      pop\n      pop\n        /* \"@openzeppelin/contracts/access/Ownable.sol\":1117:1118  _ */\n      pop\n        /* \"contracts/Library.sol\":642:1040  function addBook(string memory _name, uint256 _copies)\r... */\n      pop\n      pop\n      jump\t// out\n        /* \"@openzeppelin/contracts/access/Ownable.sol\":1831:1932  function renounceOwnership() public virtual onlyOwner {... */\n    tag_23:\n        /* \"@openzeppelin/contracts/access/Ownable.sol\":1094:1107  _checkOwner() */\n      tag_83\n        /* \"@openzeppelin/contracts/access/Ownable.sol\":1094:1105  _checkOwner */\n      tag_54\n        /* \"@openzeppelin/contracts/access/Ownable.sol\":1094:1107  _checkOwner() */\n      jump\t// in\n    tag_83:\n        /* \"@openzeppelin/contracts/access/Ownable.sol\":1895:1925  _transferOwnership(address(0)) */\n      tag_85\n        /* \"@openzeppelin/contracts/access/Ownable.sol\":1922:1923  0 */\n      0x00\n        /* \"@openzeppelin/contracts/access/Ownable.sol\":1895:1913  _transferOwnership */\n      tag_86\n        /* \"@openzeppelin/contracts/access/Ownable.sol\":1895:1925  _transferOwnership(address(0)) */\n      jump\t// in\n    tag_85:\n        /* \"@openzeppelin/contracts/access/Ownable.sol\":1831:1932  function renounceOwnership() public virtual onlyOwner {... */\n      jump\t// out\n        /* \"contracts/Library.sol\":377:419  mapping(uint256 => Book) public BookLedger */\n    tag_27:\n      mstore(0x20, 0x07)\n      dup1\n      0x00\n      mstore\n      keccak256(0x00, 0x40)\n      0x00\n      swap2\n      pop\n      swap1\n      pop\n      dup1\n      0x00\n      add\n      dup1\n      sload\n      tag_87\n      swap1\n      tag_60\n      jump\t// in\n    tag_87:\n      dup1\n      0x1f\n      add\n      0x20\n      dup1\n      swap2\n      div\n      mul\n      0x20\n      add\n      mload(0x40)\n      swap1\n      dup2\n      add\n      0x40\n      mstore\n      dup1\n      swap3\n      swap2\n      swap1\n      dup2\n      dup2\n      mstore\n      0x20\n      add\n      dup3\n      dup1\n      sload\n      tag_88\n      swap1\n      tag_60\n      jump\t// in\n    tag_88:\n      dup1\n      iszero\n      tag_89\n      jumpi\n      dup1\n      0x1f\n      lt\n      tag_90\n      jumpi\n      0x0100\n      dup1\n      dup4\n      sload\n      div\n      mul\n      dup4\n      mstore\n      swap2\n      0x20\n      add\n      swap2\n      jump(tag_89)\n    tag_90:\n      dup3\n      add\n      swap2\n      swap1\n      0x00\n      mstore\n      keccak256(0x00, 0x20)\n      swap1\n    tag_91:\n      dup2\n      sload\n      dup2\n      mstore\n      swap1\n      0x01\n      add\n      swap1\n      0x20\n      add\n      dup1\n      dup4\n      gt\n      tag_91\n      jumpi\n      dup3\n      swap1\n      sub\n      0x1f\n      and\n      dup3\n      add\n      swap2\n    tag_89:\n      pop\n      pop\n      pop\n      pop\n      pop\n      swap1\n      dup1\n      0x01\n      add\n      sload\n      swap1\n      dup1\n      0x02\n      add\n      sload\n      swap1\n      pop\n      dup4\n      jump\t// out\n        /* \"contracts/Library.sol\":1367:1778  function borrowBook(uint256 _id) external {\r... */\n    tag_32:\n        /* \"contracts/Library.sol\":1429:1444  isAlreadyIssued */\n      0x08\n        /* \"contracts/Library.sol\":1429:1456  isAlreadyIssued[msg.sender] */\n      0x00\n        /* \"contracts/Library.sol\":1445:1455  msg.sender */\n      caller\n        /* \"contracts/Library.sol\":1429:1456  isAlreadyIssued[msg.sender] */\n      0xffffffffffffffffffffffffffffffffffffffff\n      and\n      0xffffffffffffffffffffffffffffffffffffffff\n      and\n      dup2\n      mstore\n      0x20\n      add\n      swap1\n      dup2\n      mstore\n      0x20\n      add\n      0x00\n      keccak256\n        /* \"contracts/Library.sol\":1429:1461  isAlreadyIssued[msg.sender][_id] */\n      0x00\n        /* \"contracts/Library.sol\":1457:1460  _id */\n      dup3\n        /* \"contracts/Library.sol\":1429:1461  isAlreadyIssued[msg.sender][_id] */\n      dup2\n      mstore\n      0x20\n      add\n      swap1\n      dup2\n      mstore\n      0x20\n      add\n      0x00\n      keccak256\n      0x00\n      swap1\n      sload\n      swap1\n      0x0100\n      exp\n      swap1\n      div\n      0xff\n      and\n        /* \"contracts/Library.sol\":1428:1461  !isAlreadyIssued[msg.sender][_id] */\n      iszero\n        /* \"contracts/Library.sol\":1420:1488  require(!isAlreadyIssued[msg.sender][_id], \"Book is already issued\") */\n      tag_93\n      jumpi\n      mload(0x40)\n      0x08c379a000000000000000000000000000000000000000000000000000000000\n      dup2\n      mstore\n      0x04\n      add\n      tag_94\n      swap1\n      tag_95\n      jump\t// in\n    tag_94:\n      mload(0x40)\n      dup1\n      swap2\n      sub\n      swap1\n      revert\n    tag_93:\n        /* \"contracts/Library.sol\":1534:1538  true */\n      0x01\n        /* \"contracts/Library.sol\":1499:1514  isAlreadyIssued */\n      0x08\n        /* \"contracts/Library.sol\":1499:1526  isAlreadyIssued[msg.sender] */\n      0x00\n        /* \"contracts/Library.sol\":1515:1525  msg.sender */\n      caller\n        /* \"contracts/Library.sol\":1499:1526  isAlreadyIssued[msg.sender] */\n      0xffffffffffffffffffffffffffffffffffffffff\n      and\n      0xffffffffffffffffffffffffffffffffffffffff\n      and\n      dup2\n      mstore\n      0x20\n      add\n      swap1\n      dup2\n      mstore\n      0x20\n      add\n      0x00\n      keccak256\n        /* \"contracts/Library.sol\":1499:1531  isAlreadyIssued[msg.sender][_id] */\n      0x00\n        /* \"contracts/Library.sol\":1527:1530  _id */\n      dup4\n        /* \"contracts/Library.sol\":1499:1531  isAlreadyIssued[msg.sender][_id] */\n      dup2\n      mstore\n      0x20\n      add\n      swap1\n      dup2\n      mstore\n      0x20\n      add\n      0x00\n      keccak256\n      0x00\n        /* \"contracts/Library.sol\":1499:1538  isAlreadyIssued[msg.sender][_id] = true */\n      0x0100\n      exp\n      dup2\n      sload\n      dup2\n      0xff\n      mul\n      not\n      and\n      swap1\n      dup4\n      iszero\n      iszero\n      mul\n      or\n      swap1\n      sstore\n      pop\n        /* \"contracts/Library.sol\":1549:1566  Book storage book */\n      0x00\n        /* \"contracts/Library.sol\":1569:1579  BookLedger */\n      0x07\n        /* \"contracts/Library.sol\":1569:1584  BookLedger[_id] */\n      0x00\n        /* \"contracts/Library.sol\":1580:1583  _id */\n      dup4\n        /* \"contracts/Library.sol\":1569:1584  BookLedger[_id] */\n      dup2\n      mstore\n      0x20\n      add\n      swap1\n      dup2\n      mstore\n      0x20\n      add\n      0x00\n      keccak256\n        /* \"contracts/Library.sol\":1549:1584  Book storage book = BookLedger[_id] */\n      swap1\n      pop\n        /* \"contracts/Library.sol\":1618:1619  1 */\n      0x01\n        /* \"contracts/Library.sol\":1603:1607  book */\n      dup2\n        /* \"contracts/Library.sol\":1603:1614  book.copies */\n      0x01\n      add\n      sload\n        /* \"contracts/Library.sol\":1603:1619  book.copies >= 1 */\n      lt\n      iszero\n        /* \"contracts/Library.sol\":1595:1620  require(book.copies >= 1) */\n      tag_96\n      jumpi\n      0x00\n      dup1\n      revert\n    tag_96:\n        /* \"contracts/Library.sol\":1658:1659  1 */\n      0x01\n        /* \"contracts/Library.sol\":1645:1649  book */\n      dup2\n        /* \"contracts/Library.sol\":1645:1656  book.copies */\n      0x01\n      add\n      sload\n        /* \"contracts/Library.sol\":1645:1659  book.copies -1 */\n      tag_97\n      swap2\n      swap1\n      tag_98\n      jump\t// in\n    tag_97:\n        /* \"contracts/Library.sol\":1631:1635  book */\n      dup2\n        /* \"contracts/Library.sol\":1631:1642  book.copies */\n      0x01\n      add\n        /* \"contracts/Library.sol\":1631:1659  book.copies = book.copies -1 */\n      dup2\n      swap1\n      sstore\n      pop\n        /* \"contracts/Library.sol\":1708:1718  msg.sender */\n      caller\n        /* \"contracts/Library.sol\":1670:1674  book */\n      dup2\n        /* \"contracts/Library.sol\":1670:1688  book.ownersHistory */\n      0x03\n      add\n        /* \"contracts/Library.sol\":1670:1705  book.ownersHistory[book.ownerCount] */\n      0x00\n        /* \"contracts/Library.sol\":1689:1693  book */\n      dup4\n        /* \"contracts/Library.sol\":1689:1704  book.ownerCount */\n      0x02\n      add\n      sload\n        /* \"contracts/Library.sol\":1670:1705  book.ownersHistory[book.ownerCount] */\n      dup2\n      mstore\n      0x20\n      add\n      swap1\n      dup2\n      mstore\n      0x20\n      add\n      0x00\n      keccak256\n      0x00\n        /* \"contracts/Library.sol\":1670:1718  book.ownersHistory[book.ownerCount] = msg.sender */\n      0x0100\n      exp\n      dup2\n      sload\n      dup2\n      0xffffffffffffffffffffffffffffffffffffffff\n      mul\n      not\n      and\n      swap1\n      dup4\n      0xffffffffffffffffffffffffffffffffffffffff\n      and\n      mul\n      or\n      swap1\n      sstore\n      pop\n        /* \"contracts/Library.sol\":1765:1766  1 */\n      0x01\n        /* \"contracts/Library.sol\":1749:1753  book */\n      dup2\n        /* \"contracts/Library.sol\":1749:1764  book.ownerCount */\n      0x02\n      add\n      sload\n        /* \"contracts/Library.sol\":1749:1766  book.ownerCount+1 */\n      tag_99\n      swap2\n      swap1\n      tag_65\n      jump\t// in\n    tag_99:\n        /* \"contracts/Library.sol\":1731:1735  book */\n      dup2\n        /* \"contracts/Library.sol\":1731:1746  book.ownerCount */\n      0x02\n      add\n        /* \"contracts/Library.sol\":1731:1766  book.ownerCount = book.ownerCount+1 */\n      dup2\n      swap1\n      sstore\n      pop\n        /* \"contracts/Library.sol\":1409:1778  {\r... */\n      pop\n        /* \"contracts/Library.sol\":1367:1778  function borrowBook(uint256 _id) external {\r... */\n      pop\n      jump\t// out\n        /* \"@openzeppelin/contracts/access/Ownable.sol\":1201:1286  function owner() public view virtual returns (address) {... */\n    tag_34:\n        /* \"@openzeppelin/contracts/access/Ownable.sol\":1247:1254  address */\n      0x00\n        /* \"@openzeppelin/contracts/access/Ownable.sol\":1273:1279  _owner */\n      dup1\n      0x00\n      swap1\n      sload\n      swap1\n      0x0100\n      exp\n      swap1\n      div\n      0xffffffffffffffffffffffffffffffffffffffff\n      and\n        /* \"@openzeppelin/contracts/access/Ownable.sol\":1266:1279  return _owner */\n      swap1\n      pop\n        /* \"@openzeppelin/contracts/access/Ownable.sol\":1201:1286  function owner() public view virtual returns (address) {... */\n      swap1\n      jump\t// out\n        /* \"contracts/Library.sol\":294:318  uint256 public bookCount */\n    tag_38:\n      sload(0x05)\n      dup2\n      jump\t// out\n        /* \"contracts/Library.sol\":1787:2046  function returnBook(uint256 _id) external {\r... */\n    tag_43:\n        /* \"contracts/Library.sol\":1848:1863  isAlreadyIssued */\n      0x08\n        /* \"contracts/Library.sol\":1848:1875  isAlreadyIssued[msg.sender] */\n      0x00\n        /* \"contracts/Library.sol\":1864:1874  msg.sender */\n      caller\n        /* \"contracts/Library.sol\":1848:1875  isAlreadyIssued[msg.sender] */\n      0xffffffffffffffffffffffffffffffffffffffff\n      and\n      0xffffffffffffffffffffffffffffffffffffffff\n      and\n      dup2\n      mstore\n      0x20\n      add\n      swap1\n      dup2\n      mstore\n      0x20\n      add\n      0x00\n      keccak256\n        /* \"contracts/Library.sol\":1848:1880  isAlreadyIssued[msg.sender][_id] */\n      0x00\n        /* \"contracts/Library.sol\":1876:1879  _id */\n      dup3\n        /* \"contracts/Library.sol\":1848:1880  isAlreadyIssued[msg.sender][_id] */\n      dup2\n      mstore\n      0x20\n      add\n      swap1\n      dup2\n      mstore\n      0x20\n      add\n      0x00\n      keccak256\n      0x00\n      swap1\n      sload\n      swap1\n      0x0100\n      exp\n      swap1\n      div\n      0xff\n      and\n        /* \"contracts/Library.sol\":1840:1903  require(isAlreadyIssued[msg.sender][_id], \"Book is not issued\") */\n      tag_102\n      jumpi\n      mload(0x40)\n      0x08c379a000000000000000000000000000000000000000000000000000000000\n      dup2\n      mstore\n      0x04\n      add\n      tag_103\n      swap1\n      tag_104\n      jump\t// in\n    tag_103:\n      mload(0x40)\n      dup1\n      swap2\n      sub\n      swap1\n      revert\n    tag_102:\n        /* \"contracts/Library.sol\":1914:1931  Book storage book */\n      0x00\n        /* \"contracts/Library.sol\":1934:1944  BookLedger */\n      0x07\n        /* \"contracts/Library.sol\":1934:1949  BookLedger[_id] */\n      0x00\n        /* \"contracts/Library.sol\":1945:1948  _id */\n      dup4\n        /* \"contracts/Library.sol\":1934:1949  BookLedger[_id] */\n      dup2\n      mstore\n      0x20\n      add\n      swap1\n      dup2\n      mstore\n      0x20\n      add\n      0x00\n      keccak256\n        /* \"contracts/Library.sol\":1914:1949  Book storage book = BookLedger[_id] */\n      swap1\n      pop\n        /* \"contracts/Library.sol\":1986:1987  1 */\n      0x01\n        /* \"contracts/Library.sol\":1974:1978  book */\n      dup2\n        /* \"contracts/Library.sol\":1974:1985  book.copies */\n      0x01\n      add\n      sload\n        /* \"contracts/Library.sol\":1974:1987  book.copies+1 */\n      tag_105\n      swap2\n      swap1\n      tag_65\n      jump\t// in\n    tag_105:\n        /* \"contracts/Library.sol\":1960:1964  book */\n      dup2\n        /* \"contracts/Library.sol\":1960:1971  book.copies */\n      0x01\n      add\n        /* \"contracts/Library.sol\":1960:1987  book.copies = book.copies+1 */\n      dup2\n      swap1\n      sstore\n      pop\n        /* \"contracts/Library.sol\":2033:2038  false */\n      0x00\n        /* \"contracts/Library.sol\":1998:2013  isAlreadyIssued */\n      0x08\n        /* \"contracts/Library.sol\":1998:2025  isAlreadyIssued[msg.sender] */\n      0x00\n        /* \"contracts/Library.sol\":2014:2024  msg.sender */\n      caller\n        /* \"contracts/Library.sol\":1998:2025  isAlreadyIssued[msg.sender] */\n      0xffffffffffffffffffffffffffffffffffffffff\n      and\n      0xffffffffffffffffffffffffffffffffffffffff\n      and\n      dup2\n      mstore\n      0x20\n      add\n      swap1\n      dup2\n      mstore\n      0x20\n      add\n      0x00\n      keccak256\n        /* \"contracts/Library.sol\":1998:2030  isAlreadyIssued[msg.sender][_id] */\n      0x00\n        /* \"contracts/Library.sol\":2026:2029  _id */\n      dup5\n        /* \"contracts/Library.sol\":1998:2030  isAlreadyIssued[msg.sender][_id] */\n      dup2\n      mstore\n      0x20\n      add\n      swap1\n      dup2\n      mstore\n      0x20\n      add\n      0x00\n      keccak256\n      0x00\n        /* \"contracts/Library.sol\":1998:2038  isAlreadyIssued[msg.sender][_id] = false */\n      0x0100\n      exp\n      dup2\n      sload\n      dup2\n      0xff\n      mul\n      not\n      and\n      swap1\n      dup4\n      iszero\n      iszero\n      mul\n      or\n      swap1\n      sstore\n      pop\n        /* \"contracts/Library.sol\":1829:2046  {\r... */\n      pop\n        /* \"contracts/Library.sol\":1787:2046  function returnBook(uint256 _id) external {\r... */\n      pop\n      jump\t// out\n        /* \"@openzeppelin/contracts/access/Ownable.sol\":2081:2279  function transferOwnership(address newOwner) public virtual onlyOwner {... */\n    tag_47:\n        /* \"@openzeppelin/contracts/access/Ownable.sol\":1094:1107  _checkOwner() */\n      tag_107\n        /* \"@openzeppelin/contracts/access/Ownable.sol\":1094:1105  _checkOwner */\n      tag_54\n        /* \"@openzeppelin/contracts/access/Ownable.sol\":1094:1107  _checkOwner() */\n      jump\t// in\n    tag_107:\n        /* \"@openzeppelin/contracts/access/Ownable.sol\":2189:2190  0 */\n      0x00\n        /* \"@openzeppelin/contracts/access/Ownable.sol\":2169:2191  newOwner != address(0) */\n      0xffffffffffffffffffffffffffffffffffffffff\n      and\n        /* \"@openzeppelin/contracts/access/Ownable.sol\":2169:2177  newOwner */\n      dup2\n        /* \"@openzeppelin/contracts/access/Ownable.sol\":2169:2191  newOwner != address(0) */\n      0xffffffffffffffffffffffffffffffffffffffff\n      and\n      eq\n      iszero\n        /* \"@openzeppelin/contracts/access/Ownable.sol\":2161:2234  require(newOwner != address(0), \"Ownable: new owner is the zero address\") */\n      tag_109\n      jumpi\n      mload(0x40)\n      0x08c379a000000000000000000000000000000000000000000000000000000000\n      dup2\n      mstore\n      0x04\n      add\n      tag_110\n      swap1\n      tag_111\n      jump\t// in\n    tag_110:\n      mload(0x40)\n      dup1\n      swap2\n      sub\n      swap1\n      revert\n    tag_109:\n        /* \"@openzeppelin/contracts/access/Ownable.sol\":2244:2272  _transferOwnership(newOwner) */\n      tag_112\n        /* \"@openzeppelin/contracts/access/Ownable.sol\":2263:2271  newOwner */\n      dup2\n        /* \"@openzeppelin/contracts/access/Ownable.sol\":2244:2262  _transferOwnership */\n      tag_86\n        /* \"@openzeppelin/contracts/access/Ownable.sol\":2244:2272  _transferOwnership(newOwner) */\n      jump\t// in\n    tag_112:\n        /* \"@openzeppelin/contracts/access/Ownable.sol\":2081:2279  function transferOwnership(address newOwner) public virtual onlyOwner {... */\n      pop\n      jump\t// out\n        /* \"contracts/Library.sol\":2055:2783  function getAllAvailableBooks() external view returns (uint256[] memory) {\r... */\n    tag_49:\n        /* \"contracts/Library.sol\":2110:2126  uint256[] memory */\n      0x60\n        /* \"contracts/Library.sol\":2139:2159  uint256 currentIndex */\n      0x00\n        /* \"contracts/Library.sol\":2179:2192  uint256 index */\n      dup1\n        /* \"contracts/Library.sol\":2195:2196  1 */\n      0x01\n        /* \"contracts/Library.sol\":2179:2196  uint256 index = 1 */\n      swap1\n      pop\n        /* \"contracts/Library.sol\":2174:2389  for (uint256 index = 1; index <= bookCount; index++) {\r... */\n    tag_114:\n        /* \"contracts/Library.sol\":2207:2216  bookCount */\n      sload(0x05)\n        /* \"contracts/Library.sol\":2198:2203  index */\n      dup2\n        /* \"contracts/Library.sol\":2198:2216  index <= bookCount */\n      gt\n        /* \"contracts/Library.sol\":2174:2389  for (uint256 index = 1; index <= bookCount; index++) {\r... */\n      tag_115\n      jumpi\n        /* \"contracts/Library.sol\":2247:2262  isAlreadyIssued */\n      0x08\n        /* \"contracts/Library.sol\":2247:2274  isAlreadyIssued[msg.sender] */\n      0x00\n        /* \"contracts/Library.sol\":2263:2273  msg.sender */\n      caller\n        /* \"contracts/Library.sol\":2247:2274  isAlreadyIssued[msg.sender] */\n      0xffffffffffffffffffffffffffffffffffffffff\n      and\n      0xffffffffffffffffffffffffffffffffffffffff\n      and\n      dup2\n      mstore\n      0x20\n      add\n      swap1\n      dup2\n      mstore\n      0x20\n      add\n      0x00\n      keccak256\n        /* \"contracts/Library.sol\":2247:2281  isAlreadyIssued[msg.sender][index] */\n      0x00\n        /* \"contracts/Library.sol\":2275:2280  index */\n      dup3\n        /* \"contracts/Library.sol\":2247:2281  isAlreadyIssued[msg.sender][index] */\n      dup2\n      mstore\n      0x20\n      add\n      swap1\n      dup2\n      mstore\n      0x20\n      add\n      0x00\n      keccak256\n      0x00\n      swap1\n      sload\n      swap1\n      0x0100\n      exp\n      swap1\n      div\n      0xff\n      and\n        /* \"contracts/Library.sol\":2246:2281  !isAlreadyIssued[msg.sender][index] */\n      iszero\n        /* \"contracts/Library.sol\":2246:2327  !isAlreadyIssued[msg.sender][index] &&\r... */\n      dup1\n      iszero\n      tag_117\n      jumpi\n      pop\n        /* \"contracts/Library.sol\":2326:2327  0 */\n      0x00\n        /* \"contracts/Library.sol\":2299:2309  BookLedger */\n      0x07\n        /* \"contracts/Library.sol\":2299:2316  BookLedger[index] */\n      0x00\n        /* \"contracts/Library.sol\":2310:2315  index */\n      dup4\n        /* \"contracts/Library.sol\":2299:2316  BookLedger[index] */\n      dup2\n      mstore\n      0x20\n      add\n      swap1\n      dup2\n      mstore\n      0x20\n      add\n      0x00\n      keccak256\n        /* \"contracts/Library.sol\":2299:2323  BookLedger[index].copies */\n      0x01\n      add\n      sload\n        /* \"contracts/Library.sol\":2299:2327  BookLedger[index].copies > 0 */\n      gt\n        /* \"contracts/Library.sol\":2246:2327  !isAlreadyIssued[msg.sender][index] &&\r... */\n    tag_117:\n        /* \"contracts/Library.sol\":2242:2378  if (!isAlreadyIssued[msg.sender][index] &&\r... */\n      iszero\n      tag_118\n      jumpi\n        /* \"contracts/Library.sol\":2348:2362  currentIndex++ */\n      dup2\n      dup1\n      tag_119\n      swap1\n      tag_120\n      jump\t// in\n    tag_119:\n      swap3\n      pop\n      pop\n        /* \"contracts/Library.sol\":2242:2378  if (!isAlreadyIssued[msg.sender][index] &&\r... */\n    tag_118:\n        /* \"contracts/Library.sol\":2218:2225  index++ */\n      dup1\n      dup1\n      tag_121\n      swap1\n      tag_120\n      jump\t// in\n    tag_121:\n      swap2\n      pop\n      pop\n        /* \"contracts/Library.sol\":2174:2389  for (uint256 index = 1; index <= bookCount; index++) {\r... */\n      jump(tag_114)\n    tag_115:\n      pop\n        /* \"contracts/Library.sol\":2399:2422  uint256[] memory result */\n      0x00\n        /* \"contracts/Library.sol\":2439:2451  currentIndex */\n      dup2\n        /* \"contracts/Library.sol\":2425:2452  new uint256[](currentIndex) */\n      0xffffffffffffffff\n      dup2\n      gt\n      iszero\n      tag_122\n      jumpi\n      tag_123\n      tag_124\n      jump\t// in\n    tag_123:\n    tag_122:\n      mload(0x40)\n      swap1\n      dup1\n      dup3\n      mstore\n      dup1\n      0x20\n      mul\n      0x20\n      add\n      dup3\n      add\n      0x40\n      mstore\n      dup1\n      iszero\n      tag_125\n      jumpi\n      dup2\n      0x20\n      add\n      0x20\n      dup3\n      mul\n      dup1\n      calldatasize\n      dup4\n      calldatacopy\n      dup1\n      dup3\n      add\n      swap2\n      pop\n      pop\n      swap1\n      pop\n    tag_125:\n      pop\n        /* \"contracts/Library.sol\":2399:2452  uint256[] memory result = new uint256[](currentIndex) */\n      swap1\n      pop\n        /* \"contracts/Library.sol\":2478:2479  0 */\n      0x00\n        /* \"contracts/Library.sol\":2463:2479  currentIndex = 0 */\n      swap2\n      pop\n        /* \"contracts/Library.sol\":2495:2508  uint256 index */\n      0x00\n        /* \"contracts/Library.sol\":2511:2512  1 */\n      0x01\n        /* \"contracts/Library.sol\":2495:2512  uint256 index = 1 */\n      swap1\n      pop\n        /* \"contracts/Library.sol\":2490:2752  for (uint256 index = 1; index <= bookCount; index++) {\r... */\n    tag_126:\n        /* \"contracts/Library.sol\":2523:2532  bookCount */\n      sload(0x05)\n        /* \"contracts/Library.sol\":2514:2519  index */\n      dup2\n        /* \"contracts/Library.sol\":2514:2532  index <= bookCount */\n      gt\n        /* \"contracts/Library.sol\":2490:2752  for (uint256 index = 1; index <= bookCount; index++) {\r... */\n      tag_127\n      jumpi\n        /* \"contracts/Library.sol\":2563:2578  isAlreadyIssued */\n      0x08\n        /* \"contracts/Library.sol\":2563:2590  isAlreadyIssued[msg.sender] */\n      0x00\n        /* \"contracts/Library.sol\":2579:2589  msg.sender */\n      caller\n        /* \"contracts/Library.sol\":2563:2590  isAlreadyIssued[msg.sender] */\n      0xffffffffffffffffffffffffffffffffffffffff\n      and\n      0xffffffffffffffffffffffffffffffffffffffff\n      and\n      dup2\n      mstore\n      0x20\n      add\n      swap1\n      dup2\n      mstore\n      0x20\n      add\n      0x00\n      keccak256\n        /* \"contracts/Library.sol\":2563:2597  isAlreadyIssued[msg.sender][index] */\n      0x00\n        /* \"contracts/Library.sol\":2591:2596  index */\n      dup3\n        /* \"contracts/Library.sol\":2563:2597  isAlreadyIssued[msg.sender][index] */\n      dup2\n      mstore\n      0x20\n      add\n      swap1\n      dup2\n      mstore\n      0x20\n      add\n      0x00\n      keccak256\n      0x00\n      swap1\n      sload\n      swap1\n      0x0100\n      exp\n      swap1\n      div\n      0xff\n      and\n        /* \"contracts/Library.sol\":2562:2597  !isAlreadyIssued[msg.sender][index] */\n      iszero\n        /* \"contracts/Library.sol\":2562:2643  !isAlreadyIssued[msg.sender][index] &&\r... */\n      dup1\n      iszero\n      tag_129\n      jumpi\n      pop\n        /* \"contracts/Library.sol\":2642:2643  0 */\n      0x00\n        /* \"contracts/Library.sol\":2615:2625  BookLedger */\n      0x07\n        /* \"contracts/Library.sol\":2615:2632  BookLedger[index] */\n      0x00\n        /* \"contracts/Library.sol\":2626:2631  index */\n      dup4\n        /* \"contracts/Library.sol\":2615:2632  BookLedger[index] */\n      dup2\n      mstore\n      0x20\n      add\n      swap1\n      dup2\n      mstore\n      0x20\n      add\n      0x00\n      keccak256\n        /* \"contracts/Library.sol\":2615:2639  BookLedger[index].copies */\n      0x01\n      add\n      sload\n        /* \"contracts/Library.sol\":2615:2643  BookLedger[index].copies > 0 */\n      gt\n        /* \"contracts/Library.sol\":2562:2643  !isAlreadyIssued[msg.sender][index] &&\r... */\n    tag_129:\n        /* \"contracts/Library.sol\":2558:2741  if (!isAlreadyIssued[msg.sender][index] &&\r... */\n      iszero\n      tag_130\n      jumpi\n        /* \"contracts/Library.sol\":2687:2692  index */\n      dup1\n        /* \"contracts/Library.sol\":2664:2670  result */\n      dup3\n        /* \"contracts/Library.sol\":2671:2683  currentIndex */\n      dup5\n        /* \"contracts/Library.sol\":2664:2684  result[currentIndex] */\n      dup2\n      mload\n      dup2\n      lt\n      tag_131\n      jumpi\n      tag_132\n      tag_133\n      jump\t// in\n    tag_132:\n    tag_131:\n      0x20\n      mul\n      0x20\n      add\n      add\n        /* \"contracts/Library.sol\":2664:2692  result[currentIndex] = index */\n      dup2\n      dup2\n      mstore\n      pop\n      pop\n        /* \"contracts/Library.sol\":2711:2725  currentIndex++ */\n      dup3\n      dup1\n      tag_134\n      swap1\n      tag_120\n      jump\t// in\n    tag_134:\n      swap4\n      pop\n      pop\n        /* \"contracts/Library.sol\":2558:2741  if (!isAlreadyIssued[msg.sender][index] &&\r... */\n    tag_130:\n        /* \"contracts/Library.sol\":2534:2541  index++ */\n      dup1\n      dup1\n      tag_135\n      swap1\n      tag_120\n      jump\t// in\n    tag_135:\n      swap2\n      pop\n      pop\n        /* \"contracts/Library.sol\":2490:2752  for (uint256 index = 1; index <= bookCount; index++) {\r... */\n      jump(tag_126)\n    tag_127:\n      pop\n        /* \"contracts/Library.sol\":2769:2775  result */\n      dup1\n        /* \"contracts/Library.sol\":2762:2775  return result */\n      swap3\n      pop\n      pop\n      pop\n        /* \"contracts/Library.sol\":2055:2783  function getAllAvailableBooks() external view returns (uint256[] memory) {\r... */\n      swap1\n      jump\t// out\n        /* \"@openzeppelin/contracts/access/Ownable.sol\":1359:1489  function _checkOwner() internal view virtual {... */\n    tag_54:\n        /* \"@openzeppelin/contracts/access/Ownable.sol\":1433:1445  _msgSender() */\n      tag_137\n        /* \"@openzeppelin/contracts/access/Ownable.sol\":1433:1443  _msgSender */\n      tag_138\n        /* \"@openzeppelin/contracts/access/Ownable.sol\":1433:1445  _msgSender() */\n      jump\t// in\n    tag_137:\n        /* \"@openzeppelin/contracts/access/Ownable.sol\":1422:1445  owner() == _msgSender() */\n      0xffffffffffffffffffffffffffffffffffffffff\n      and\n        /* \"@openzeppelin/contracts/access/Ownable.sol\":1422:1429  owner() */\n      tag_139\n        /* \"@openzeppelin/contracts/access/Ownable.sol\":1422:1427  owner */\n      tag_34\n        /* \"@openzeppelin/contracts/access/Ownable.sol\":1422:1429  owner() */\n      jump\t// in\n    tag_139:\n        /* \"@openzeppelin/contracts/access/Ownable.sol\":1422:1445  owner() == _msgSender() */\n      0xffffffffffffffffffffffffffffffffffffffff\n      and\n      eq\n        /* \"@openzeppelin/contracts/access/Ownable.sol\":1414:1482  require(owner() == _msgSender(), \"Ownable: caller is not the owner\") */\n      tag_140\n      jumpi\n      mload(0x40)\n      0x08c379a000000000000000000000000000000000000000000000000000000000\n      dup2\n      mstore\n      0x04\n      add\n      tag_141\n      swap1\n      tag_142\n      jump\t// in\n    tag_141:\n      mload(0x40)\n      dup1\n      swap2\n      sub\n      swap1\n      revert\n    tag_140:\n        /* \"@openzeppelin/contracts/access/Ownable.sol\":1359:1489  function _checkOwner() internal view virtual {... */\n      jump\t// out\n        /* \"@openzeppelin/contracts/access/Ownable.sol\":2433:2620  function _transferOwnership(address newOwner) internal virtual {... */\n    tag_86:\n        /* \"@openzeppelin/contracts/access/Ownable.sol\":2506:2522  address oldOwner */\n      0x00\n        /* \"@openzeppelin/contracts/access/Ownable.sol\":2525:2531  _owner */\n      dup1\n      0x00\n      swap1\n      sload\n      swap1\n      0x0100\n      exp\n      swap1\n      div\n      0xffffffffffffffffffffffffffffffffffffffff\n      and\n        /* \"@openzeppelin/contracts/access/Ownable.sol\":2506:2531  address oldOwner = _owner */\n      swap1\n      pop\n        /* \"@openzeppelin/contracts/access/Ownable.sol\":2550:2558  newOwner */\n      dup2\n        /* \"@openzeppelin/contracts/access/Ownable.sol\":2541:2547  _owner */\n      0x00\n      dup1\n        /* \"@openzeppelin/contracts/access/Ownable.sol\":2541:2558  _owner = newOwner */\n      0x0100\n      exp\n      dup2\n      sload\n      dup2\n      0xffffffffffffffffffffffffffffffffffffffff\n      mul\n      not\n      and\n      swap1\n      dup4\n      0xffffffffffffffffffffffffffffffffffffffff\n      and\n      mul\n      or\n      swap1\n      sstore\n      pop\n        /* \"@openzeppelin/contracts/access/Ownable.sol\":2604:2612  newOwner */\n      dup2\n        /* \"@openzeppelin/contracts/access/Ownable.sol\":2573:2613  OwnershipTransferred(oldOwner, newOwner) */\n      0xffffffffffffffffffffffffffffffffffffffff\n      and\n        /* \"@openzeppelin/contracts/access/Ownable.sol\":2594:2602  oldOwner */\n      dup2\n        /* \"@openzeppelin/contracts/access/Ownable.sol\":2573:2613  OwnershipTransferred(oldOwner, newOwner) */\n      0xffffffffffffffffffffffffffffffffffffffff\n      and\n      0x8be0079c531659141344cd1fd0a4f28419497f9722a3daafe3b4186f6b6457e0\n      mload(0x40)\n      mload(0x40)\n      dup1\n      swap2\n      sub\n      swap1\n      log3\n        /* \"@openzeppelin/contracts/access/Ownable.sol\":2496:2620  {... */\n      pop\n        /* \"@openzeppelin/contracts/access/Ownable.sol\":2433:2620  function _transferOwnership(address newOwner) internal virtual {... */\n      pop\n      jump\t// out\n        /* \"@openzeppelin/contracts/utils/Context.sol\":640:736  function _msgSender() internal view virtual returns (address) {... */\n    tag_138:\n        /* \"@openzeppelin/contracts/utils/Context.sol\":693:700  address */\n      0x00\n        /* \"@openzeppelin/contracts/utils/Context.sol\":719:729  msg.sender */\n      caller\n        /* \"@openzeppelin/contracts/utils/Context.sol\":712:729  return msg.sender */\n      swap1\n      pop\n        /* \"@openzeppelin/contracts/utils/Context.sol\":640:736  function _msgSender() internal view virtual returns (address) {... */\n      swap1\n      jump\t// out\n    tag_81:\n      dup3\n      dup1\n      sload\n      tag_145\n      swap1\n      tag_60\n      jump\t// in\n    tag_145:\n      swap1\n      0x00\n      mstore\n      keccak256(0x00, 0x20)\n      swap1\n      0x1f\n      add\n      0x20\n      swap1\n      div\n      dup2\n      add\n      swap3\n      dup3\n      tag_147\n      jumpi\n      0x00\n      dup6\n      sstore\n      jump(tag_146)\n    tag_147:\n      dup3\n      0x1f\n      lt\n      tag_148\n      jumpi\n      dup1\n      mload\n      not(0xff)\n      and\n      dup4\n      dup1\n      add\n      or\n      dup6\n      sstore\n      jump(tag_146)\n    tag_148:\n      dup3\n      dup1\n      add\n      0x01\n      add\n      dup6\n      sstore\n      dup3\n      iszero\n      tag_146\n      jumpi\n      swap2\n      dup3\n      add\n    tag_149:\n      dup3\n      dup2\n      gt\n      iszero\n      tag_150\n      jumpi\n      dup3\n      mload\n      dup3\n      sstore\n      swap2\n      0x20\n      add\n      swap2\n      swap1\n      0x01\n      add\n      swap1\n      jump(tag_149)\n    tag_150:\n    tag_146:\n      pop\n      swap1\n      pop\n      tag_151\n      swap2\n      swap1\n      tag_152\n      jump\t// in\n    tag_151:\n      pop\n      swap1\n      jump\t// out\n    tag_152:\n    tag_153:\n      dup1\n      dup3\n      gt\n      iszero\n      tag_154\n      jumpi\n      0x00\n      dup2\n      0x00\n      swap1\n      sstore\n      pop\n      0x01\n      add\n      jump(tag_153)\n    tag_154:\n      pop\n      swap1\n      jump\t// out\n        /* \"#utility.yul\":7:419   */\n    tag_156:\n        /* \"#utility.yul\":85:90   */\n      0x00\n        /* \"#utility.yul\":110:176   */\n      tag_158\n        /* \"#utility.yul\":126:175   */\n      tag_159\n        /* \"#utility.yul\":168:174   */\n      dup5\n        /* \"#utility.yul\":126:175   */\n      tag_160\n      jump\t// in\n    tag_159:\n        /* \"#utility.yul\":110:176   */\n      tag_161\n      jump\t// in\n    tag_158:\n        /* \"#utility.yul\":101:176   */\n      swap1\n      pop\n        /* \"#utility.yul\":199:205   */\n      dup3\n        /* \"#utility.yul\":192:197   */\n      dup2\n        /* \"#utility.yul\":185:206   */\n      mstore\n        /* \"#utility.yul\":237:241   */\n      0x20\n        /* \"#utility.yul\":230:235   */\n      dup2\n        /* \"#utility.yul\":226:242   */\n      add\n        /* \"#utility.yul\":275:278   */\n      dup5\n        /* \"#utility.yul\":266:272   */\n      dup5\n        /* \"#utility.yul\":261:264   */\n      dup5\n        /* \"#utility.yul\":257:273   */\n      add\n        /* \"#utility.yul\":254:279   */\n      gt\n        /* \"#utility.yul\":251:363   */\n      iszero\n      tag_162\n      jumpi\n        /* \"#utility.yul\":282:361   */\n      tag_163\n      tag_164\n      jump\t// in\n    tag_163:\n        /* \"#utility.yul\":251:363   */\n    tag_162:\n        /* \"#utility.yul\":372:413   */\n      tag_165\n        /* \"#utility.yul\":406:412   */\n      dup5\n        /* \"#utility.yul\":401:404   */\n      dup3\n        /* \"#utility.yul\":396:399   */\n      dup6\n        /* \"#utility.yul\":372:413   */\n      tag_166\n      jump\t// in\n    tag_165:\n        /* \"#utility.yul\":91:419   */\n      pop\n        /* \"#utility.yul\":7:419   */\n      swap4\n      swap3\n      pop\n      pop\n      pop\n      jump\t// out\n        /* \"#utility.yul\":425:564   */\n    tag_167:\n        /* \"#utility.yul\":471:476   */\n      0x00\n        /* \"#utility.yul\":509:515   */\n      dup2\n        /* \"#utility.yul\":496:516   */\n      calldataload\n        /* \"#utility.yul\":487:516   */\n      swap1\n      pop\n        /* \"#utility.yul\":525:558   */\n      tag_169\n        /* \"#utility.yul\":552:557   */\n      dup2\n        /* \"#utility.yul\":525:558   */\n      tag_170\n      jump\t// in\n    tag_169:\n        /* \"#utility.yul\":425:564   */\n      swap3\n      swap2\n      pop\n      pop\n      jump\t// out\n        /* \"#utility.yul\":584:924   */\n    tag_171:\n        /* \"#utility.yul\":640:645   */\n      0x00\n        /* \"#utility.yul\":689:692   */\n      dup3\n        /* \"#utility.yul\":682:686   */\n      0x1f\n        /* \"#utility.yul\":674:680   */\n      dup4\n        /* \"#utility.yul\":670:687   */\n      add\n        /* \"#utility.yul\":666:693   */\n      slt\n        /* \"#utility.yul\":656:778   */\n      tag_173\n      jumpi\n        /* \"#utility.yul\":697:776   */\n      tag_174\n      tag_175\n      jump\t// in\n    tag_174:\n        /* \"#utility.yul\":656:778   */\n    tag_173:\n        /* \"#utility.yul\":814:820   */\n      dup2\n        /* \"#utility.yul\":801:821   */\n      calldataload\n        /* \"#utility.yul\":839:918   */\n      tag_176\n        /* \"#utility.yul\":914:917   */\n      dup5\n        /* \"#utility.yul\":906:912   */\n      dup3\n        /* \"#utility.yul\":899:903   */\n      0x20\n        /* \"#utility.yul\":891:897   */\n      dup7\n        /* \"#utility.yul\":887:904   */\n      add\n        /* \"#utility.yul\":839:918   */\n      tag_156\n      jump\t// in\n    tag_176:\n        /* \"#utility.yul\":830:918   */\n      swap2\n      pop\n        /* \"#utility.yul\":646:924   */\n      pop\n        /* \"#utility.yul\":584:924   */\n      swap3\n      swap2\n      pop\n      pop\n      jump\t// out\n        /* \"#utility.yul\":930:1069   */\n    tag_177:\n        /* \"#utility.yul\":976:981   */\n      0x00\n        /* \"#utility.yul\":1014:1020   */\n      dup2\n        /* \"#utility.yul\":1001:1021   */\n      calldataload\n        /* \"#utility.yul\":992:1021   */\n      swap1\n      pop\n        /* \"#utility.yul\":1030:1063   */\n      tag_179\n        /* \"#utility.yul\":1057:1062   */\n      dup2\n        /* \"#utility.yul\":1030:1063   */\n      tag_180\n      jump\t// in\n    tag_179:\n        /* \"#utility.yul\":930:1069   */\n      swap3\n      swap2\n      pop\n      pop\n      jump\t// out\n        /* \"#utility.yul\":1075:1404   */\n    tag_46:\n        /* \"#utility.yul\":1134:1140   */\n      0x00\n        /* \"#utility.yul\":1183:1185   */\n      0x20\n        /* \"#utility.yul\":1171:1180   */\n      dup3\n        /* \"#utility.yul\":1162:1169   */\n      dup5\n        /* \"#utility.yul\":1158:1181   */\n      sub\n        /* \"#utility.yul\":1154:1186   */\n      slt\n        /* \"#utility.yul\":1151:1270   */\n      iszero\n      tag_182\n      jumpi\n        /* \"#utility.yul\":1189:1268   */\n      tag_183\n      tag_184\n      jump\t// in\n    tag_183:\n        /* \"#utility.yul\":1151:1270   */\n    tag_182:\n        /* \"#utility.yul\":1309:1310   */\n      0x00\n        /* \"#utility.yul\":1334:1387   */\n      tag_185\n        /* \"#utility.yul\":1379:1386   */\n      dup5\n        /* \"#utility.yul\":1370:1376   */\n      dup3\n        /* \"#utility.yul\":1359:1368   */\n      dup6\n        /* \"#utility.yul\":1355:1377   */\n      add\n        /* \"#utility.yul\":1334:1387   */\n      tag_167\n      jump\t// in\n    tag_185:\n        /* \"#utility.yul\":1324:1387   */\n      swap2\n      pop\n        /* \"#utility.yul\":1280:1397   */\n      pop\n        /* \"#utility.yul\":1075:1404   */\n      swap3\n      swap2\n      pop\n      pop\n      jump\t// out\n        /* \"#utility.yul\":1410:2064   */\n    tag_20:\n        /* \"#utility.yul\":1488:1494   */\n      0x00\n        /* \"#utility.yul\":1496:1502   */\n      dup1\n        /* \"#utility.yul\":1545:1547   */\n      0x40\n        /* \"#utility.yul\":1533:1542   */\n      dup4\n        /* \"#utility.yul\":1524:1531   */\n      dup6\n        /* \"#utility.yul\":1520:1543   */\n      sub\n        /* \"#utility.yul\":1516:1548   */\n      slt\n        /* \"#utility.yul\":1513:1632   */\n      iszero\n      tag_187\n      jumpi\n        /* \"#utility.yul\":1551:1630   */\n      tag_188\n      tag_184\n      jump\t// in\n    tag_188:\n        /* \"#utility.yul\":1513:1632   */\n    tag_187:\n        /* \"#utility.yul\":1699:1700   */\n      0x00\n        /* \"#utility.yul\":1688:1697   */\n      dup4\n        /* \"#utility.yul\":1684:1701   */\n      add\n        /* \"#utility.yul\":1671:1702   */\n      calldataload\n        /* \"#utility.yul\":1729:1747   */\n      0xffffffffffffffff\n        /* \"#utility.yul\":1721:1727   */\n      dup2\n        /* \"#utility.yul\":1718:1748   */\n      gt\n        /* \"#utility.yul\":1715:1832   */\n      iszero\n      tag_189\n      jumpi\n        /* \"#utility.yul\":1751:1830   */\n      tag_190\n      tag_191\n      jump\t// in\n    tag_190:\n        /* \"#utility.yul\":1715:1832   */\n    tag_189:\n        /* \"#utility.yul\":1856:1919   */\n      tag_192\n        /* \"#utility.yul\":1911:1918   */\n      dup6\n        /* \"#utility.yul\":1902:1908   */\n      dup3\n        /* \"#utility.yul\":1891:1900   */\n      dup7\n        /* \"#utility.yul\":1887:1909   */\n      add\n        /* \"#utility.yul\":1856:1919   */\n      tag_171\n      jump\t// in\n    tag_192:\n        /* \"#utility.yul\":1846:1919   */\n      swap3\n      pop\n        /* \"#utility.yul\":1642:1929   */\n      pop\n        /* \"#utility.yul\":1968:1970   */\n      0x20\n        /* \"#utility.yul\":1994:2047   */\n      tag_193\n        /* \"#utility.yul\":2039:2046   */\n      dup6\n        /* \"#utility.yul\":2030:2036   */\n      dup3\n        /* \"#utility.yul\":2019:2028   */\n      dup7\n        /* \"#utility.yul\":2015:2037   */\n      add\n        /* \"#utility.yul\":1994:2047   */\n      tag_177\n      jump\t// in\n    tag_193:\n        /* \"#utility.yul\":1984:2047   */\n      swap2\n      pop\n        /* \"#utility.yul\":1939:2057   */\n      pop\n        /* \"#utility.yul\":1410:2064   */\n      swap3\n      pop\n      swap3\n      swap1\n      pop\n      jump\t// out\n        /* \"#utility.yul\":2070:2399   */\n    tag_26:\n        /* \"#utility.yul\":2129:2135   */\n      0x00\n        /* \"#utility.yul\":2178:2180   */\n      0x20\n        /* \"#utility.yul\":2166:2175   */\n      dup3\n        /* \"#utility.yul\":2157:2164   */\n      dup5\n        /* \"#utility.yul\":2153:2176   */\n      sub\n        /* \"#utility.yul\":2149:2181   */\n      slt\n        /* \"#utility.yul\":2146:2265   */\n      iszero\n      tag_195\n      jumpi\n        /* \"#utility.yul\":2184:2263   */\n      tag_196\n      tag_184\n      jump\t// in\n    tag_196:\n        /* \"#utility.yul\":2146:2265   */\n    tag_195:\n        /* \"#utility.yul\":2304:2305   */\n      0x00\n        /* \"#utility.yul\":2329:2382   */\n      tag_197\n        /* \"#utility.yul\":2374:2381   */\n      dup5\n        /* \"#utility.yul\":2365:2371   */\n      dup3\n        /* \"#utility.yul\":2354:2363   */\n      dup6\n        /* \"#utility.yul\":2350:2372   */\n      add\n        /* \"#utility.yul\":2329:2382   */\n      tag_177\n      jump\t// in\n    tag_197:\n        /* \"#utility.yul\":2319:2382   */\n      swap2\n      pop\n        /* \"#utility.yul\":2275:2392   */\n      pop\n        /* \"#utility.yul\":2070:2399   */\n      swap3\n      swap2\n      pop\n      pop\n      jump\t// out\n        /* \"#utility.yul\":2405:2879   */\n    tag_16:\n        /* \"#utility.yul\":2473:2479   */\n      0x00\n        /* \"#utility.yul\":2481:2487   */\n      dup1\n        /* \"#utility.yul\":2530:2532   */\n      0x40\n        /* \"#utility.yul\":2518:2527   */\n      dup4\n        /* \"#utility.yul\":2509:2516   */\n      dup6\n        /* \"#utility.yul\":2505:2528   */\n      sub\n        /* \"#utility.yul\":2501:2533   */\n      slt\n        /* \"#utility.yul\":2498:2617   */\n      iszero\n      tag_199\n      jumpi\n        /* \"#utility.yul\":2536:2615   */\n      tag_200\n      tag_184\n      jump\t// in\n    tag_200:\n        /* \"#utility.yul\":2498:2617   */\n    tag_199:\n        /* \"#utility.yul\":2656:2657   */\n      0x00\n        /* \"#utility.yul\":2681:2734   */\n      tag_201\n        /* \"#utility.yul\":2726:2733   */\n      dup6\n        /* \"#utility.yul\":2717:2723   */\n      dup3\n        /* \"#utility.yul\":2706:2715   */\n      dup7\n        /* \"#utility.yul\":2702:2724   */\n      add\n        /* \"#utility.yul\":2681:2734   */\n      tag_177\n      jump\t// in\n    tag_201:\n        /* \"#utility.yul\":2671:2734   */\n      swap3\n      pop\n        /* \"#utility.yul\":2627:2744   */\n      pop\n        /* \"#utility.yul\":2783:2785   */\n      0x20\n        /* \"#utility.yul\":2809:2862   */\n      tag_202\n        /* \"#utility.yul\":2854:2861   */\n      dup6\n        /* \"#utility.yul\":2845:2851   */\n      dup3\n        /* \"#utility.yul\":2834:2843   */\n      dup7\n        /* \"#utility.yul\":2830:2852   */\n      add\n        /* \"#utility.yul\":2809:2862   */\n      tag_177\n      jump\t// in\n    tag_202:\n        /* \"#utility.yul\":2799:2862   */\n      swap2\n      pop\n        /* \"#utility.yul\":2754:2872   */\n      pop\n        /* \"#utility.yul\":2405:2879   */\n      swap3\n      pop\n      swap3\n      swap1\n      pop\n      jump\t// out\n        /* \"#utility.yul\":2885:3064   */\n    tag_203:\n        /* \"#utility.yul\":2954:2964   */\n      0x00\n        /* \"#utility.yul\":2975:3021   */\n      tag_205\n        /* \"#utility.yul\":3017:3020   */\n      dup4\n        /* \"#utility.yul\":3009:3015   */\n      dup4\n        /* \"#utility.yul\":2975:3021   */\n      tag_206\n      jump\t// in\n    tag_205:\n        /* \"#utility.yul\":3053:3057   */\n      0x20\n        /* \"#utility.yul\":3048:3051   */\n      dup4\n        /* \"#utility.yul\":3044:3058   */\n      add\n        /* \"#utility.yul\":3030:3058   */\n      swap1\n      pop\n        /* \"#utility.yul\":2885:3064   */\n      swap3\n      swap2\n      pop\n      pop\n      jump\t// out\n        /* \"#utility.yul\":3070:3188   */\n    tag_207:\n        /* \"#utility.yul\":3157:3181   */\n      tag_209\n        /* \"#utility.yul\":3175:3180   */\n      dup2\n        /* \"#utility.yul\":3157:3181   */\n      tag_210\n      jump\t// in\n    tag_209:\n        /* \"#utility.yul\":3152:3155   */\n      dup3\n        /* \"#utility.yul\":3145:3182   */\n      mstore\n        /* \"#utility.yul\":3070:3188   */\n      pop\n      pop\n      jump\t// out\n        /* \"#utility.yul\":3224:3956   */\n    tag_211:\n        /* \"#utility.yul\":3343:3346   */\n      0x00\n        /* \"#utility.yul\":3372:3426   */\n      tag_213\n        /* \"#utility.yul\":3420:3425   */\n      dup3\n        /* \"#utility.yul\":3372:3426   */\n      tag_214\n      jump\t// in\n    tag_213:\n        /* \"#utility.yul\":3442:3528   */\n      tag_215\n        /* \"#utility.yul\":3521:3527   */\n      dup2\n        /* \"#utility.yul\":3516:3519   */\n      dup6\n        /* \"#utility.yul\":3442:3528   */\n      tag_216\n      jump\t// in\n    tag_215:\n        /* \"#utility.yul\":3435:3528   */\n      swap4\n      pop\n        /* \"#utility.yul\":3552:3608   */\n      tag_217\n        /* \"#utility.yul\":3602:3607   */\n      dup4\n        /* \"#utility.yul\":3552:3608   */\n      tag_218\n      jump\t// in\n    tag_217:\n        /* \"#utility.yul\":3631:3638   */\n      dup1\n        /* \"#utility.yul\":3662:3663   */\n      0x00\n        /* \"#utility.yul\":3647:3931   */\n    tag_219:\n        /* \"#utility.yul\":3672:3678   */\n      dup4\n        /* \"#utility.yul\":3669:3670   */\n      dup2\n        /* \"#utility.yul\":3666:3679   */\n      lt\n        /* \"#utility.yul\":3647:3931   */\n      iszero\n      tag_221\n      jumpi\n        /* \"#utility.yul\":3748:3754   */\n      dup2\n        /* \"#utility.yul\":3742:3755   */\n      mload\n        /* \"#utility.yul\":3775:3838   */\n      tag_222\n        /* \"#utility.yul\":3834:3837   */\n      dup9\n        /* \"#utility.yul\":3819:3832   */\n      dup3\n        /* \"#utility.yul\":3775:3838   */\n      tag_203\n      jump\t// in\n    tag_222:\n        /* \"#utility.yul\":3768:3838   */\n      swap8\n      pop\n        /* \"#utility.yul\":3861:3921   */\n      tag_223\n        /* \"#utility.yul\":3914:3920   */\n      dup4\n        /* \"#utility.yul\":3861:3921   */\n      tag_224\n      jump\t// in\n    tag_223:\n        /* \"#utility.yul\":3851:3921   */\n      swap3\n      pop\n        /* \"#utility.yul\":3707:3931   */\n      pop\n        /* \"#utility.yul\":3694:3695   */\n      0x01\n        /* \"#utility.yul\":3691:3692   */\n      dup2\n        /* \"#utility.yul\":3687:3696   */\n      add\n        /* \"#utility.yul\":3682:3696   */\n      swap1\n      pop\n        /* \"#utility.yul\":3647:3931   */\n      jump(tag_219)\n    tag_221:\n        /* \"#utility.yul\":3651:3665   */\n      pop\n        /* \"#utility.yul\":3947:3950   */\n      dup6\n        /* \"#utility.yul\":3940:3950   */\n      swap4\n      pop\n        /* \"#utility.yul\":3348:3956   */\n      pop\n      pop\n      pop\n        /* \"#utility.yul\":3224:3956   */\n      swap3\n      swap2\n      pop\n      pop\n      jump\t// out\n        /* \"#utility.yul\":3962:4326   */\n    tag_225:\n        /* \"#utility.yul\":4050:4053   */\n      0x00\n        /* \"#utility.yul\":4078:4117   */\n      tag_227\n        /* \"#utility.yul\":4111:4116   */\n      dup3\n        /* \"#utility.yul\":4078:4117   */\n      tag_228\n      jump\t// in\n    tag_227:\n        /* \"#utility.yul\":4133:4204   */\n      tag_229\n        /* \"#utility.yul\":4197:4203   */\n      dup2\n        /* \"#utility.yul\":4192:4195   */\n      dup6\n        /* \"#utility.yul\":4133:4204   */\n      tag_230\n      jump\t// in\n    tag_229:\n        /* \"#utility.yul\":4126:4204   */\n      swap4\n      pop\n        /* \"#utility.yul\":4213:4265   */\n      tag_231\n        /* \"#utility.yul\":4258:4264   */\n      dup2\n        /* \"#utility.yul\":4253:4256   */\n      dup6\n        /* \"#utility.yul\":4246:4250   */\n      0x20\n        /* \"#utility.yul\":4239:4244   */\n      dup7\n        /* \"#utility.yul\":4235:4251   */\n      add\n        /* \"#utility.yul\":4213:4265   */\n      tag_232\n      jump\t// in\n    tag_231:\n        /* \"#utility.yul\":4290:4319   */\n      tag_233\n        /* \"#utility.yul\":4312:4318   */\n      dup2\n        /* \"#utility.yul\":4290:4319   */\n      tag_234\n      jump\t// in\n    tag_233:\n        /* \"#utility.yul\":4285:4288   */\n      dup5\n        /* \"#utility.yul\":4281:4320   */\n      add\n        /* \"#utility.yul\":4274:4320   */\n      swap2\n      pop\n        /* \"#utility.yul\":4054:4326   */\n      pop\n        /* \"#utility.yul\":3962:4326   */\n      swap3\n      swap2\n      pop\n      pop\n      jump\t// out\n        /* \"#utility.yul\":4332:4709   */\n    tag_235:\n        /* \"#utility.yul\":4438:4441   */\n      0x00\n        /* \"#utility.yul\":4466:4505   */\n      tag_237\n        /* \"#utility.yul\":4499:4504   */\n      dup3\n        /* \"#utility.yul\":4466:4505   */\n      tag_228\n      jump\t// in\n    tag_237:\n        /* \"#utility.yul\":4521:4610   */\n      tag_238\n        /* \"#utility.yul\":4603:4609   */\n      dup2\n        /* \"#utility.yul\":4598:4601   */\n      dup6\n        /* \"#utility.yul\":4521:4610   */\n      tag_239\n      jump\t// in\n    tag_238:\n        /* \"#utility.yul\":4514:4610   */\n      swap4\n      pop\n        /* \"#utility.yul\":4619:4671   */\n      tag_240\n        /* \"#utility.yul\":4664:4670   */\n      dup2\n        /* \"#utility.yul\":4659:4662   */\n      dup6\n        /* \"#utility.yul\":4652:4656   */\n      0x20\n        /* \"#utility.yul\":4645:4650   */\n      dup7\n        /* \"#utility.yul\":4641:4657   */\n      add\n        /* \"#utility.yul\":4619:4671   */\n      tag_232\n      jump\t// in\n    tag_240:\n        /* \"#utility.yul\":4696:4702   */\n      dup1\n        /* \"#utility.yul\":4691:4694   */\n      dup5\n        /* \"#utility.yul\":4687:4703   */\n      add\n        /* \"#utility.yul\":4680:4703   */\n      swap2\n      pop\n        /* \"#utility.yul\":4442:4709   */\n      pop\n        /* \"#utility.yul\":4332:4709   */\n      swap3\n      swap2\n      pop\n      pop\n      jump\t// out\n        /* \"#utility.yul\":4715:5081   */\n    tag_241:\n        /* \"#utility.yul\":4857:4860   */\n      0x00\n        /* \"#utility.yul\":4878:4945   */\n      tag_243\n        /* \"#utility.yul\":4942:4944   */\n      0x14\n        /* \"#utility.yul\":4937:4940   */\n      dup4\n        /* \"#utility.yul\":4878:4945   */\n      tag_230\n      jump\t// in\n    tag_243:\n        /* \"#utility.yul\":4871:4945   */\n      swap2\n      pop\n        /* \"#utility.yul\":4954:5047   */\n      tag_244\n        /* \"#utility.yul\":5043:5046   */\n      dup3\n        /* \"#utility.yul\":4954:5047   */\n      tag_245\n      jump\t// in\n    tag_244:\n        /* \"#utility.yul\":5072:5074   */\n      0x20\n        /* \"#utility.yul\":5067:5070   */\n      dup3\n        /* \"#utility.yul\":5063:5075   */\n      add\n        /* \"#utility.yul\":5056:5075   */\n      swap1\n      pop\n        /* \"#utility.yul\":4715:5081   */\n      swap2\n      swap1\n      pop\n      jump\t// out\n        /* \"#utility.yul\":5087:5453   */\n    tag_246:\n        /* \"#utility.yul\":5229:5232   */\n      0x00\n        /* \"#utility.yul\":5250:5317   */\n      tag_248\n        /* \"#utility.yul\":5314:5316   */\n      0x11\n        /* \"#utility.yul\":5309:5312   */\n      dup4\n        /* \"#utility.yul\":5250:5317   */\n      tag_230\n      jump\t// in\n    tag_248:\n        /* \"#utility.yul\":5243:5317   */\n      swap2\n      pop\n        /* \"#utility.yul\":5326:5419   */\n      tag_249\n        /* \"#utility.yul\":5415:5418   */\n      dup3\n        /* \"#utility.yul\":5326:5419   */\n      tag_250\n      jump\t// in\n    tag_249:\n        /* \"#utility.yul\":5444:5446   */\n      0x20\n        /* \"#utility.yul\":5439:5442   */\n      dup3\n        /* \"#utility.yul\":5435:5447   */\n      add\n        /* \"#utility.yul\":5428:5447   */\n      swap1\n      pop\n        /* \"#utility.yul\":5087:5453   */\n      swap2\n      swap1\n      pop\n      jump\t// out\n        /* \"#utility.yul\":5459:5825   */\n    tag_251:\n        /* \"#utility.yul\":5601:5604   */\n      0x00\n        /* \"#utility.yul\":5622:5689   */\n      tag_253\n        /* \"#utility.yul\":5686:5688   */\n      0x16\n        /* \"#utility.yul\":5681:5684   */\n      dup4\n        /* \"#utility.yul\":5622:5689   */\n      tag_230\n      jump\t// in\n    tag_253:\n        /* \"#utility.yul\":5615:5689   */\n      swap2\n      pop\n        /* \"#utility.yul\":5698:5791   */\n      tag_254\n        /* \"#utility.yul\":5787:5790   */\n      dup3\n        /* \"#utility.yul\":5698:5791   */\n      tag_255\n      jump\t// in\n    tag_254:\n        /* \"#utility.yul\":5816:5818   */\n      0x20\n        /* \"#utility.yul\":5811:5814   */\n      dup3\n        /* \"#utility.yul\":5807:5819   */\n      add\n        /* \"#utility.yul\":5800:5819   */\n      swap1\n      pop\n        /* \"#utility.yul\":5459:5825   */\n      swap2\n      swap1\n      pop\n      jump\t// out\n        /* \"#utility.yul\":5831:6197   */\n    tag_256:\n        /* \"#utility.yul\":5973:5976   */\n      0x00\n        /* \"#utility.yul\":5994:6061   */\n      tag_258\n        /* \"#utility.yul\":6058:6060   */\n      0x26\n        /* \"#utility.yul\":6053:6056   */\n      dup4\n        /* \"#utility.yul\":5994:6061   */\n      tag_230\n      jump\t// in\n    tag_258:\n        /* \"#utility.yul\":5987:6061   */\n      swap2\n      pop\n        /* \"#utility.yul\":6070:6163   */\n      tag_259\n        /* \"#utility.yul\":6159:6162   */\n      dup3\n        /* \"#utility.yul\":6070:6163   */\n      tag_260\n      jump\t// in\n    tag_259:\n        /* \"#utility.yul\":6188:6190   */\n      0x40\n        /* \"#utility.yul\":6183:6186   */\n      dup3\n        /* \"#utility.yul\":6179:6191   */\n      add\n        /* \"#utility.yul\":6172:6191   */\n      swap1\n      pop\n        /* \"#utility.yul\":5831:6197   */\n      swap2\n      swap1\n      pop\n      jump\t// out\n        /* \"#utility.yul\":6203:6569   */\n    tag_261:\n        /* \"#utility.yul\":6345:6348   */\n      0x00\n        /* \"#utility.yul\":6366:6433   */\n      tag_263\n        /* \"#utility.yul\":6430:6432   */\n      0x12\n        /* \"#utility.yul\":6425:6428   */\n      dup4\n        /* \"#utility.yul\":6366:6433   */\n      tag_230\n      jump\t// in\n    tag_263:\n        /* \"#utility.yul\":6359:6433   */\n      swap2\n      pop\n        /* \"#utility.yul\":6442:6535   */\n      tag_264\n        /* \"#utility.yul\":6531:6534   */\n      dup3\n        /* \"#utility.yul\":6442:6535   */\n      tag_265\n      jump\t// in\n    tag_264:\n        /* \"#utility.yul\":6560:6562   */\n      0x20\n        /* \"#utility.yul\":6555:6558   */\n      dup3\n        /* \"#utility.yul\":6551:6563   */\n      add\n        /* \"#utility.yul\":6544:6563   */\n      swap1\n      pop\n        /* \"#utility.yul\":6203:6569   */\n      swap2\n      swap1\n      pop\n      jump\t// out\n        /* \"#utility.yul\":6575:6941   */\n    tag_266:\n        /* \"#utility.yul\":6717:6720   */\n      0x00\n        /* \"#utility.yul\":6738:6805   */\n      tag_268\n        /* \"#utility.yul\":6802:6804   */\n      0x20\n        /* \"#utility.yul\":6797:6800   */\n      dup4\n        /* \"#utility.yul\":6738:6805   */\n      tag_230\n      jump\t// in\n    tag_268:\n        /* \"#utility.yul\":6731:6805   */\n      swap2\n      pop\n        /* \"#utility.yul\":6814:6907   */\n      tag_269\n        /* \"#utility.yul\":6903:6906   */\n      dup3\n        /* \"#utility.yul\":6814:6907   */\n      tag_270\n      jump\t// in\n    tag_269:\n        /* \"#utility.yul\":6932:6934   */\n      0x20\n        /* \"#utility.yul\":6927:6930   */\n      dup3\n        /* \"#utility.yul\":6923:6935   */\n      add\n        /* \"#utility.yul\":6916:6935   */\n      swap1\n      pop\n        /* \"#utility.yul\":6575:6941   */\n      swap2\n      swap1\n      pop\n      jump\t// out\n        /* \"#utility.yul\":6947:7312   */\n    tag_271:\n        /* \"#utility.yul\":7089:7092   */\n      0x00\n        /* \"#utility.yul\":7110:7176   */\n      tag_273\n        /* \"#utility.yul\":7174:7175   */\n      0x05\n        /* \"#utility.yul\":7169:7172   */\n      dup4\n        /* \"#utility.yul\":7110:7176   */\n      tag_230\n      jump\t// in\n    tag_273:\n        /* \"#utility.yul\":7103:7176   */\n      swap2\n      pop\n        /* \"#utility.yul\":7185:7278   */\n      tag_274\n        /* \"#utility.yul\":7274:7277   */\n      dup3\n        /* \"#utility.yul\":7185:7278   */\n      tag_275\n      jump\t// in\n    tag_274:\n        /* \"#utility.yul\":7303:7305   */\n      0x20\n        /* \"#utility.yul\":7298:7301   */\n      dup3\n        /* \"#utility.yul\":7294:7306   */\n      add\n        /* \"#utility.yul\":7287:7306   */\n      swap1\n      pop\n        /* \"#utility.yul\":6947:7312   */\n      swap2\n      swap1\n      pop\n      jump\t// out\n        /* \"#utility.yul\":7318:7684   */\n    tag_276:\n        /* \"#utility.yul\":7460:7463   */\n      0x00\n        /* \"#utility.yul\":7481:7548   */\n      tag_278\n        /* \"#utility.yul\":7545:7547   */\n      0x13\n        /* \"#utility.yul\":7540:7543   */\n      dup4\n        /* \"#utility.yul\":7481:7548   */\n      tag_230\n      jump\t// in\n    tag_278:\n        /* \"#utility.yul\":7474:7548   */\n      swap2\n      pop\n        /* \"#utility.yul\":7557:7650   */\n      tag_279\n        /* \"#utility.yul\":7646:7649   */\n      dup3\n        /* \"#utility.yul\":7557:7650   */\n      tag_280\n      jump\t// in\n    tag_279:\n        /* \"#utility.yul\":7675:7677   */\n      0x20\n        /* \"#utility.yul\":7670:7673   */\n      dup3\n        /* \"#utility.yul\":7666:7678   */\n      add\n        /* \"#utility.yul\":7659:7678   */\n      swap1\n      pop\n        /* \"#utility.yul\":7318:7684   */\n      swap2\n      swap1\n      pop\n      jump\t// out\n        /* \"#utility.yul\":7690:7798   */\n    tag_206:\n        /* \"#utility.yul\":7767:7791   */\n      tag_282\n        /* \"#utility.yul\":7785:7790   */\n      dup2\n        /* \"#utility.yul\":7767:7791   */\n      tag_283\n      jump\t// in\n    tag_282:\n        /* \"#utility.yul\":7762:7765   */\n      dup3\n        /* \"#utility.yul\":7755:7792   */\n      mstore\n        /* \"#utility.yul\":7690:7798   */\n      pop\n      pop\n      jump\t// out\n        /* \"#utility.yul\":7804:7922   */\n    tag_284:\n        /* \"#utility.yul\":7891:7915   */\n      tag_286\n        /* \"#utility.yul\":7909:7914   */\n      dup2\n        /* \"#utility.yul\":7891:7915   */\n      tag_283\n      jump\t// in\n    tag_286:\n        /* \"#utility.yul\":7886:7889   */\n      dup3\n        /* \"#utility.yul\":7879:7916   */\n      mstore\n        /* \"#utility.yul\":7804:7922   */\n      pop\n      pop\n      jump\t// out\n        /* \"#utility.yul\":7928:8203   */\n    tag_70:\n        /* \"#utility.yul\":8060:8063   */\n      0x00\n        /* \"#utility.yul\":8082:8177   */\n      tag_288\n        /* \"#utility.yul\":8173:8176   */\n      dup3\n        /* \"#utility.yul\":8164:8170   */\n      dup5\n        /* \"#utility.yul\":8082:8177   */\n      tag_235\n      jump\t// in\n    tag_288:\n        /* \"#utility.yul\":8075:8177   */\n      swap2\n      pop\n        /* \"#utility.yul\":8194:8197   */\n      dup2\n        /* \"#utility.yul\":8187:8197   */\n      swap1\n      pop\n        /* \"#utility.yul\":7928:8203   */\n      swap3\n      swap2\n      pop\n      pop\n      jump\t// out\n        /* \"#utility.yul\":8209:8431   */\n    tag_36:\n        /* \"#utility.yul\":8302:8306   */\n      0x00\n        /* \"#utility.yul\":8340:8342   */\n      0x20\n        /* \"#utility.yul\":8329:8338   */\n      dup3\n        /* \"#utility.yul\":8325:8343   */\n      add\n        /* \"#utility.yul\":8317:8343   */\n      swap1\n      pop\n        /* \"#utility.yul\":8353:8424   */\n      tag_290\n        /* \"#utility.yul\":8421:8422   */\n      0x00\n        /* \"#utility.yul\":8410:8419   */\n      dup4\n        /* \"#utility.yul\":8406:8423   */\n      add\n        /* \"#utility.yul\":8397:8403   */\n      dup5\n        /* \"#utility.yul\":8353:8424   */\n      tag_207\n      jump\t// in\n    tag_290:\n        /* \"#utility.yul\":8209:8431   */\n      swap3\n      swap2\n      pop\n      pop\n      jump\t// out\n        /* \"#utility.yul\":8437:8810   */\n    tag_51:\n        /* \"#utility.yul\":8580:8584   */\n      0x00\n        /* \"#utility.yul\":8618:8620   */\n      0x20\n        /* \"#utility.yul\":8607:8616   */\n      dup3\n        /* \"#utility.yul\":8603:8621   */\n      add\n        /* \"#utility.yul\":8595:8621   */\n      swap1\n      pop\n        /* \"#utility.yul\":8667:8676   */\n      dup2\n        /* \"#utility.yul\":8661:8665   */\n      dup2\n        /* \"#utility.yul\":8657:8677   */\n      sub\n        /* \"#utility.yul\":8653:8654   */\n      0x00\n        /* \"#utility.yul\":8642:8651   */\n      dup4\n        /* \"#utility.yul\":8638:8655   */\n      add\n        /* \"#utility.yul\":8631:8678   */\n      mstore\n        /* \"#utility.yul\":8695:8803   */\n      tag_292\n        /* \"#utility.yul\":8798:8802   */\n      dup2\n        /* \"#utility.yul\":8789:8795   */\n      dup5\n        /* \"#utility.yul\":8695:8803   */\n      tag_211\n      jump\t// in\n    tag_292:\n        /* \"#utility.yul\":8687:8803   */\n      swap1\n      pop\n        /* \"#utility.yul\":8437:8810   */\n      swap3\n      swap2\n      pop\n      pop\n      jump\t// out\n        /* \"#utility.yul\":8816:9349   */\n    tag_29:\n        /* \"#utility.yul\":8985:8989   */\n      0x00\n        /* \"#utility.yul\":9023:9025   */\n      0x60\n        /* \"#utility.yul\":9012:9021   */\n      dup3\n        /* \"#utility.yul\":9008:9026   */\n      add\n        /* \"#utility.yul\":9000:9026   */\n      swap1\n      pop\n        /* \"#utility.yul\":9072:9081   */\n      dup2\n        /* \"#utility.yul\":9066:9070   */\n      dup2\n        /* \"#utility.yul\":9062:9082   */\n      sub\n        /* \"#utility.yul\":9058:9059   */\n      0x00\n        /* \"#utility.yul\":9047:9056   */\n      dup4\n        /* \"#utility.yul\":9043:9060   */\n      add\n        /* \"#utility.yul\":9036:9083   */\n      mstore\n        /* \"#utility.yul\":9100:9178   */\n      tag_294\n        /* \"#utility.yul\":9173:9177   */\n      dup2\n        /* \"#utility.yul\":9164:9170   */\n      dup7\n        /* \"#utility.yul\":9100:9178   */\n      tag_225\n      jump\t// in\n    tag_294:\n        /* \"#utility.yul\":9092:9178   */\n      swap1\n      pop\n        /* \"#utility.yul\":9188:9260   */\n      tag_295\n        /* \"#utility.yul\":9256:9258   */\n      0x20\n        /* \"#utility.yul\":9245:9254   */\n      dup4\n        /* \"#utility.yul\":9241:9259   */\n      add\n        /* \"#utility.yul\":9232:9238   */\n      dup6\n        /* \"#utility.yul\":9188:9260   */\n      tag_284\n      jump\t// in\n    tag_295:\n        /* \"#utility.yul\":9270:9342   */\n      tag_296\n        /* \"#utility.yul\":9338:9340   */\n      0x40\n        /* \"#utility.yul\":9327:9336   */\n      dup4\n        /* \"#utility.yul\":9323:9341   */\n      add\n        /* \"#utility.yul\":9314:9320   */\n      dup5\n        /* \"#utility.yul\":9270:9342   */\n      tag_284\n      jump\t// in\n    tag_296:\n        /* \"#utility.yul\":8816:9349   */\n      swap5\n      swap4\n      pop\n      pop\n      pop\n      pop\n      jump\t// out\n        /* \"#utility.yul\":9355:9774   */\n    tag_77:\n        /* \"#utility.yul\":9521:9525   */\n      0x00\n        /* \"#utility.yul\":9559:9561   */\n      0x20\n        /* \"#utility.yul\":9548:9557   */\n      dup3\n        /* \"#utility.yul\":9544:9562   */\n      add\n        /* \"#utility.yul\":9536:9562   */\n      swap1\n      pop\n        /* \"#utility.yul\":9608:9617   */\n      dup2\n        /* \"#utility.yul\":9602:9606   */\n      dup2\n        /* \"#utility.yul\":9598:9618   */\n      sub\n        /* \"#utility.yul\":9594:9595   */\n      0x00\n        /* \"#utility.yul\":9583:9592   */\n      dup4\n        /* \"#utility.yul\":9579:9596   */\n      add\n        /* \"#utility.yul\":9572:9619   */\n      mstore\n        /* \"#utility.yul\":9636:9767   */\n      tag_298\n        /* \"#utility.yul\":9762:9766   */\n      dup2\n        /* \"#utility.yul\":9636:9767   */\n      tag_241\n      jump\t// in\n    tag_298:\n        /* \"#utility.yul\":9628:9767   */\n      swap1\n      pop\n        /* \"#utility.yul\":9355:9774   */\n      swap2\n      swap1\n      pop\n      jump\t// out\n        /* \"#utility.yul\":9780:10199   */\n    tag_73:\n        /* \"#utility.yul\":9946:9950   */\n      0x00\n        /* \"#utility.yul\":9984:9986   */\n      0x20\n        /* \"#utility.yul\":9973:9982   */\n      dup3\n        /* \"#utility.yul\":9969:9987   */\n      add\n        /* \"#utility.yul\":9961:9987   */\n      swap1\n      pop\n        /* \"#utility.yul\":10033:10042   */\n      dup2\n        /* \"#utility.yul\":10027:10031   */\n      dup2\n        /* \"#utility.yul\":10023:10043   */\n      sub\n        /* \"#utility.yul\":10019:10020   */\n      0x00\n        /* \"#utility.yul\":10008:10017   */\n      dup4\n        /* \"#utility.yul\":10004:10021   */\n      add\n        /* \"#utility.yul\":9997:10044   */\n      mstore\n        /* \"#utility.yul\":10061:10192   */\n      tag_300\n        /* \"#utility.yul\":10187:10191   */\n      dup2\n        /* \"#utility.yul\":10061:10192   */\n      tag_246\n      jump\t// in\n    tag_300:\n        /* \"#utility.yul\":10053:10192   */\n      swap1\n      pop\n        /* \"#utility.yul\":9780:10199   */\n      swap2\n      swap1\n      pop\n      jump\t// out\n        /* \"#utility.yul\":10205:10624   */\n    tag_95:\n        /* \"#utility.yul\":10371:10375   */\n      0x00\n        /* \"#utility.yul\":10409:10411   */\n      0x20\n        /* \"#utility.yul\":10398:10407   */\n      dup3\n        /* \"#utility.yul\":10394:10412   */\n      add\n        /* \"#utility.yul\":10386:10412   */\n      swap1\n      pop\n        /* \"#utility.yul\":10458:10467   */\n      dup2\n        /* \"#utility.yul\":10452:10456   */\n      dup2\n        /* \"#utility.yul\":10448:10468   */\n      sub\n        /* \"#utility.yul\":10444:10445   */\n      0x00\n        /* \"#utility.yul\":10433:10442   */\n      dup4\n        /* \"#utility.yul\":10429:10446   */\n      add\n        /* \"#utility.yul\":10422:10469   */\n      mstore\n        /* \"#utility.yul\":10486:10617   */\n      tag_302\n        /* \"#utility.yul\":10612:10616   */\n      dup2\n        /* \"#utility.yul\":10486:10617   */\n      tag_251\n      jump\t// in\n    tag_302:\n        /* \"#utility.yul\":10478:10617   */\n      swap1\n      pop\n        /* \"#utility.yul\":10205:10624   */\n      swap2\n      swap1\n      pop\n      jump\t// out\n        /* \"#utility.yul\":10630:11049   */\n    tag_111:\n        /* \"#utility.yul\":10796:10800   */\n      0x00\n        /* \"#utility.yul\":10834:10836   */\n      0x20\n        /* \"#utility.yul\":10823:10832   */\n      dup3\n        /* \"#utility.yul\":10819:10837   */\n      add\n        /* \"#utility.yul\":10811:10837   */\n      swap1\n      pop\n        /* \"#utility.yul\":10883:10892   */\n      dup2\n        /* \"#utility.yul\":10877:10881   */\n      dup2\n        /* \"#utility.yul\":10873:10893   */\n      sub\n        /* \"#utility.yul\":10869:10870   */\n      0x00\n        /* \"#utility.yul\":10858:10867   */\n      dup4\n        /* \"#utility.yul\":10854:10871   */\n      add\n        /* \"#utility.yul\":10847:10894   */\n      mstore\n        /* \"#utility.yul\":10911:11042   */\n      tag_304\n        /* \"#utility.yul\":11037:11041   */\n      dup2\n        /* \"#utility.yul\":10911:11042   */\n      tag_256\n      jump\t// in\n    tag_304:\n        /* \"#utility.yul\":10903:11042   */\n      swap1\n      pop\n        /* \"#utility.yul\":10630:11049   */\n      swap2\n      swap1\n      pop\n      jump\t// out\n        /* \"#utility.yul\":11055:11474   */\n    tag_104:\n        /* \"#utility.yul\":11221:11225   */\n      0x00\n        /* \"#utility.yul\":11259:11261   */\n      0x20\n        /* \"#utility.yul\":11248:11257   */\n      dup3\n        /* \"#utility.yul\":11244:11262   */\n      add\n        /* \"#utility.yul\":11236:11262   */\n      swap1\n      pop\n        /* \"#utility.yul\":11308:11317   */\n      dup2\n        /* \"#utility.yul\":11302:11306   */\n      dup2\n        /* \"#utility.yul\":11298:11318   */\n      sub\n        /* \"#utility.yul\":11294:11295   */\n      0x00\n        /* \"#utility.yul\":11283:11292   */\n      dup4\n        /* \"#utility.yul\":11279:11296   */\n      add\n        /* \"#utility.yul\":11272:11319   */\n      mstore\n        /* \"#utility.yul\":11336:11467   */\n      tag_306\n        /* \"#utility.yul\":11462:11466   */\n      dup2\n        /* \"#utility.yul\":11336:11467   */\n      tag_261\n      jump\t// in\n    tag_306:\n        /* \"#utility.yul\":11328:11467   */\n      swap1\n      pop\n        /* \"#utility.yul\":11055:11474   */\n      swap2\n      swap1\n      pop\n      jump\t// out\n        /* \"#utility.yul\":11480:11899   */\n    tag_142:\n        /* \"#utility.yul\":11646:11650   */\n      0x00\n        /* \"#utility.yul\":11684:11686   */\n      0x20\n        /* \"#utility.yul\":11673:11682   */\n      dup3\n        /* \"#utility.yul\":11669:11687   */\n      add\n        /* \"#utility.yul\":11661:11687   */\n      swap1\n      pop\n        /* \"#utility.yul\":11733:11742   */\n      dup2\n        /* \"#utility.yul\":11727:11731   */\n      dup2\n        /* \"#utility.yul\":11723:11743   */\n      sub\n        /* \"#utility.yul\":11719:11720   */\n      0x00\n        /* \"#utility.yul\":11708:11717   */\n      dup4\n        /* \"#utility.yul\":11704:11721   */\n      add\n        /* \"#utility.yul\":11697:11744   */\n      mstore\n        /* \"#utility.yul\":11761:11892   */\n      tag_308\n        /* \"#utility.yul\":11887:11891   */\n      dup2\n        /* \"#utility.yul\":11761:11892   */\n      tag_266\n      jump\t// in\n    tag_308:\n        /* \"#utility.yul\":11753:11892   */\n      swap1\n      pop\n        /* \"#utility.yul\":11480:11899   */\n      swap2\n      swap1\n      pop\n      jump\t// out\n        /* \"#utility.yul\":11905:12324   */\n    tag_58:\n        /* \"#utility.yul\":12071:12075   */\n      0x00\n        /* \"#utility.yul\":12109:12111   */\n      0x20\n        /* \"#utility.yul\":12098:12107   */\n      dup3\n        /* \"#utility.yul\":12094:12112   */\n      add\n        /* \"#utility.yul\":12086:12112   */\n      swap1\n      pop\n        /* \"#utility.yul\":12158:12167   */\n      dup2\n        /* \"#utility.yul\":12152:12156   */\n      dup2\n        /* \"#utility.yul\":12148:12168   */\n      sub\n        /* \"#utility.yul\":12144:12145   */\n      0x00\n        /* \"#utility.yul\":12133:12142   */\n      dup4\n        /* \"#utility.yul\":12129:12146   */\n      add\n        /* \"#utility.yul\":12122:12169   */\n      mstore\n        /* \"#utility.yul\":12186:12317   */\n      tag_310\n        /* \"#utility.yul\":12312:12316   */\n      dup2\n        /* \"#utility.yul\":12186:12317   */\n      tag_271\n      jump\t// in\n    tag_310:\n        /* \"#utility.yul\":12178:12317   */\n      swap1\n      pop\n        /* \"#utility.yul\":11905:12324   */\n      swap2\n      swap1\n      pop\n      jump\t// out\n        /* \"#utility.yul\":12330:12749   */\n    tag_63:\n        /* \"#utility.yul\":12496:12500   */\n      0x00\n        /* \"#utility.yul\":12534:12536   */\n      0x20\n        /* \"#utility.yul\":12523:12532   */\n      dup3\n        /* \"#utility.yul\":12519:12537   */\n      add\n        /* \"#utility.yul\":12511:12537   */\n      swap1\n      pop\n        /* \"#utility.yul\":12583:12592   */\n      dup2\n        /* \"#utility.yul\":12577:12581   */\n      dup2\n        /* \"#utility.yul\":12573:12593   */\n      sub\n        /* \"#utility.yul\":12569:12570   */\n      0x00\n        /* \"#utility.yul\":12558:12567   */\n      dup4\n        /* \"#utility.yul\":12554:12571   */\n      add\n        /* \"#utility.yul\":12547:12594   */\n      mstore\n        /* \"#utility.yul\":12611:12742   */\n      tag_312\n        /* \"#utility.yul\":12737:12741   */\n      dup2\n        /* \"#utility.yul\":12611:12742   */\n      tag_276\n      jump\t// in\n    tag_312:\n        /* \"#utility.yul\":12603:12742   */\n      swap1\n      pop\n        /* \"#utility.yul\":12330:12749   */\n      swap2\n      swap1\n      pop\n      jump\t// out\n        /* \"#utility.yul\":12755:12977   */\n    tag_40:\n        /* \"#utility.yul\":12848:12852   */\n      0x00\n        /* \"#utility.yul\":12886:12888   */\n      0x20\n        /* \"#utility.yul\":12875:12884   */\n      dup3\n        /* \"#utility.yul\":12871:12889   */\n      add\n        /* \"#utility.yul\":12863:12889   */\n      swap1\n      pop\n        /* \"#utility.yul\":12899:12970   */\n      tag_314\n        /* \"#utility.yul\":12967:12968   */\n      0x00\n        /* \"#utility.yul\":12956:12965   */\n      dup4\n        /* \"#utility.yul\":12952:12969   */\n      add\n        /* \"#utility.yul\":12943:12949   */\n      dup5\n        /* \"#utility.yul\":12899:12970   */\n      tag_284\n      jump\t// in\n    tag_314:\n        /* \"#utility.yul\":12755:12977   */\n      swap3\n      swap2\n      pop\n      pop\n      jump\t// out\n        /* \"#utility.yul\":12983:13112   */\n    tag_161:\n        /* \"#utility.yul\":13017:13023   */\n      0x00\n        /* \"#utility.yul\":13044:13064   */\n      tag_316\n      tag_317\n      jump\t// in\n    tag_316:\n        /* \"#utility.yul\":13034:13064   */\n      swap1\n      pop\n        /* \"#utility.yul\":13073:13106   */\n      tag_318\n        /* \"#utility.yul\":13101:13105   */\n      dup3\n        /* \"#utility.yul\":13093:13099   */\n      dup3\n        /* \"#utility.yul\":13073:13106   */\n      tag_319\n      jump\t// in\n    tag_318:\n        /* \"#utility.yul\":12983:13112   */\n      swap2\n      swap1\n      pop\n      jump\t// out\n        /* \"#utility.yul\":13118:13193   */\n    tag_317:\n        /* \"#utility.yul\":13151:13157   */\n      0x00\n        /* \"#utility.yul\":13184:13186   */\n      0x40\n        /* \"#utility.yul\":13178:13187   */\n      mload\n        /* \"#utility.yul\":13168:13187   */\n      swap1\n      pop\n        /* \"#utility.yul\":13118:13193   */\n      swap1\n      jump\t// out\n        /* \"#utility.yul\":13199:13507   */\n    tag_160:\n        /* \"#utility.yul\":13261:13265   */\n      0x00\n        /* \"#utility.yul\":13351:13369   */\n      0xffffffffffffffff\n        /* \"#utility.yul\":13343:13349   */\n      dup3\n        /* \"#utility.yul\":13340:13370   */\n      gt\n        /* \"#utility.yul\":13337:13393   */\n      iszero\n      tag_322\n      jumpi\n        /* \"#utility.yul\":13373:13391   */\n      tag_323\n      tag_124\n      jump\t// in\n    tag_323:\n        /* \"#utility.yul\":13337:13393   */\n    tag_322:\n        /* \"#utility.yul\":13411:13440   */\n      tag_324\n        /* \"#utility.yul\":13433:13439   */\n      dup3\n        /* \"#utility.yul\":13411:13440   */\n      tag_234\n      jump\t// in\n    tag_324:\n        /* \"#utility.yul\":13403:13440   */\n      swap1\n      pop\n        /* \"#utility.yul\":13495:13499   */\n      0x20\n        /* \"#utility.yul\":13489:13493   */\n      dup2\n        /* \"#utility.yul\":13485:13500   */\n      add\n        /* \"#utility.yul\":13477:13500   */\n      swap1\n      pop\n        /* \"#utility.yul\":13199:13507   */\n      swap2\n      swap1\n      pop\n      jump\t// out\n        /* \"#utility.yul\":13513:13645   */\n    tag_218:\n        /* \"#utility.yul\":13580:13584   */\n      0x00\n        /* \"#utility.yul\":13603:13606   */\n      dup2\n        /* \"#utility.yul\":13595:13606   */\n      swap1\n      pop\n        /* \"#utility.yul\":13633:13637   */\n      0x20\n        /* \"#utility.yul\":13628:13631   */\n      dup3\n        /* \"#utility.yul\":13624:13638   */\n      add\n        /* \"#utility.yul\":13616:13638   */\n      swap1\n      pop\n        /* \"#utility.yul\":13513:13645   */\n      swap2\n      swap1\n      pop\n      jump\t// out\n        /* \"#utility.yul\":13651:13765   */\n    tag_214:\n        /* \"#utility.yul\":13718:13724   */\n      0x00\n        /* \"#utility.yul\":13752:13757   */\n      dup2\n        /* \"#utility.yul\":13746:13758   */\n      mload\n        /* \"#utility.yul\":13736:13758   */\n      swap1\n      pop\n        /* \"#utility.yul\":13651:13765   */\n      swap2\n      swap1\n      pop\n      jump\t// out\n        /* \"#utility.yul\":13771:13870   */\n    tag_228:\n        /* \"#utility.yul\":13823:13829   */\n      0x00\n        /* \"#utility.yul\":13857:13862   */\n      dup2\n        /* \"#utility.yul\":13851:13863   */\n      mload\n        /* \"#utility.yul\":13841:13863   */\n      swap1\n      pop\n        /* \"#utility.yul\":13771:13870   */\n      swap2\n      swap1\n      pop\n      jump\t// out\n        /* \"#utility.yul\":13876:13989   */\n    tag_224:\n        /* \"#utility.yul\":13946:13950   */\n      0x00\n        /* \"#utility.yul\":13978:13982   */\n      0x20\n        /* \"#utility.yul\":13973:13976   */\n      dup3\n        /* \"#utility.yul\":13969:13983   */\n      add\n        /* \"#utility.yul\":13961:13983   */\n      swap1\n      pop\n        /* \"#utility.yul\":13876:13989   */\n      swap2\n      swap1\n      pop\n      jump\t// out\n        /* \"#utility.yul\":13995:14179   */\n    tag_216:\n        /* \"#utility.yul\":14094:14105   */\n      0x00\n        /* \"#utility.yul\":14128:14134   */\n      dup3\n        /* \"#utility.yul\":14123:14126   */\n      dup3\n        /* \"#utility.yul\":14116:14135   */\n      mstore\n        /* \"#utility.yul\":14168:14172   */\n      0x20\n        /* \"#utility.yul\":14163:14166   */\n      dup3\n        /* \"#utility.yul\":14159:14173   */\n      add\n        /* \"#utility.yul\":14144:14173   */\n      swap1\n      pop\n        /* \"#utility.yul\":13995:14179   */\n      swap3\n      swap2\n      pop\n      pop\n      jump\t// out\n        /* \"#utility.yul\":14185:14354   */\n    tag_230:\n        /* \"#utility.yul\":14269:14280   */\n      0x00\n        /* \"#utility.yul\":14303:14309   */\n      dup3\n        /* \"#utility.yul\":14298:14301   */\n      dup3\n        /* \"#utility.yul\":14291:14310   */\n      mstore\n        /* \"#utility.yul\":14343:14347   */\n      0x20\n        /* \"#utility.yul\":14338:14341   */\n      dup3\n        /* \"#utility.yul\":14334:14348   */\n      add\n        /* \"#utility.yul\":14319:14348   */\n      swap1\n      pop\n        /* \"#utility.yul\":14185:14354   */\n      swap3\n      swap2\n      pop\n      pop\n      jump\t// out\n        /* \"#utility.yul\":14360:14508   */\n    tag_239:\n        /* \"#utility.yul\":14462:14473   */\n      0x00\n        /* \"#utility.yul\":14499:14502   */\n      dup2\n        /* \"#utility.yul\":14484:14502   */\n      swap1\n      pop\n        /* \"#utility.yul\":14360:14508   */\n      swap3\n      swap2\n      pop\n      pop\n      jump\t// out\n        /* \"#utility.yul\":14514:14819   */\n    tag_65:\n        /* \"#utility.yul\":14554:14557   */\n      0x00\n        /* \"#utility.yul\":14573:14593   */\n      tag_333\n        /* \"#utility.yul\":14591:14592   */\n      dup3\n        /* \"#utility.yul\":14573:14593   */\n      tag_283\n      jump\t// in\n    tag_333:\n        /* \"#utility.yul\":14568:14593   */\n      swap2\n      pop\n        /* \"#utility.yul\":14607:14627   */\n      tag_334\n        /* \"#utility.yul\":14625:14626   */\n      dup4\n        /* \"#utility.yul\":14607:14627   */\n      tag_283\n      jump\t// in\n    tag_334:\n        /* \"#utility.yul\":14602:14627   */\n      swap3\n      pop\n        /* \"#utility.yul\":14761:14762   */\n      dup3\n        /* \"#utility.yul\":14693:14759   */\n      0xffffffffffffffffffffffffffffffffffffffffffffffffffffffffffffffff\n        /* \"#utility.yul\":14689:14763   */\n      sub\n        /* \"#utility.yul\":14686:14687   */\n      dup3\n        /* \"#utility.yul\":14683:14764   */\n      gt\n        /* \"#utility.yul\":14680:14787   */\n      iszero\n      tag_335\n      jumpi\n        /* \"#utility.yul\":14767:14785   */\n      tag_336\n      tag_337\n      jump\t// in\n    tag_336:\n        /* \"#utility.yul\":14680:14787   */\n    tag_335:\n        /* \"#utility.yul\":14811:14812   */\n      dup3\n        /* \"#utility.yul\":14808:14809   */\n      dup3\n        /* \"#utility.yul\":14804:14813   */\n      add\n        /* \"#utility.yul\":14797:14813   */\n      swap1\n      pop\n        /* \"#utility.yul\":14514:14819   */\n      swap3\n      swap2\n      pop\n      pop\n      jump\t// out\n        /* \"#utility.yul\":14825:15016   */\n    tag_98:\n        /* \"#utility.yul\":14865:14869   */\n      0x00\n        /* \"#utility.yul\":14885:14905   */\n      tag_339\n        /* \"#utility.yul\":14903:14904   */\n      dup3\n        /* \"#utility.yul\":14885:14905   */\n      tag_283\n      jump\t// in\n    tag_339:\n        /* \"#utility.yul\":14880:14905   */\n      swap2\n      pop\n        /* \"#utility.yul\":14919:14939   */\n      tag_340\n        /* \"#utility.yul\":14937:14938   */\n      dup4\n        /* \"#utility.yul\":14919:14939   */\n      tag_283\n      jump\t// in\n    tag_340:\n        /* \"#utility.yul\":14914:14939   */\n      swap3\n      pop\n        /* \"#utility.yul\":14958:14959   */\n      dup3\n        /* \"#utility.yul\":14955:14956   */\n      dup3\n        /* \"#utility.yul\":14952:14960   */\n      lt\n        /* \"#utility.yul\":14949:14983   */\n      iszero\n      tag_341\n      jumpi\n        /* \"#utility.yul\":14963:14981   */\n      tag_342\n      tag_337\n      jump\t// in\n    tag_342:\n        /* \"#utility.yul\":14949:14983   */\n    tag_341:\n        /* \"#utility.yul\":15008:15009   */\n      dup3\n        /* \"#utility.yul\":15005:15006   */\n      dup3\n        /* \"#utility.yul\":15001:15010   */\n      sub\n        /* \"#utility.yul\":14993:15010   */\n      swap1\n      pop\n        /* \"#utility.yul\":14825:15016   */\n      swap3\n      swap2\n      pop\n      pop\n      jump\t// out\n        /* \"#utility.yul\":15022:15118   */\n    tag_210:\n        /* \"#utility.yul\":15059:15066   */\n      0x00\n        /* \"#utility.yul\":15088:15112   */\n      tag_344\n        /* \"#utility.yul\":15106:15111   */\n      dup3\n        /* \"#utility.yul\":15088:15112   */\n      tag_345\n      jump\t// in\n    tag_344:\n        /* \"#utility.yul\":15077:15112   */\n      swap1\n      pop\n        /* \"#utility.yul\":15022:15118   */\n      swap2\n      swap1\n      pop\n      jump\t// out\n        /* \"#utility.yul\":15124:15250   */\n    tag_345:\n        /* \"#utility.yul\":15161:15168   */\n      0x00\n        /* \"#utility.yul\":15201:15243   */\n      0xffffffffffffffffffffffffffffffffffffffff\n        /* \"#utility.yul\":15194:15199   */\n      dup3\n        /* \"#utility.yul\":15190:15244   */\n      and\n        /* \"#utility.yul\":15179:15244   */\n      swap1\n      pop\n        /* \"#utility.yul\":15124:15250   */\n      swap2\n      swap1\n      pop\n      jump\t// out\n        /* \"#utility.yul\":15256:15333   */\n    tag_283:\n        /* \"#utility.yul\":15293:15300   */\n      0x00\n        /* \"#utility.yul\":15322:15327   */\n      dup2\n        /* \"#utility.yul\":15311:15327   */\n      swap1\n      pop\n        /* \"#utility.yul\":15256:15333   */\n      swap2\n      swap1\n      pop\n      jump\t// out\n        /* \"#utility.yul\":15339:15493   */\n    tag_166:\n        /* \"#utility.yul\":15423:15429   */\n      dup3\n        /* \"#utility.yul\":15418:15421   */\n      dup2\n        /* \"#utility.yul\":15413:15416   */\n      dup4\n        /* \"#utility.yul\":15400:15430   */\n      calldatacopy\n        /* \"#utility.yul\":15485:15486   */\n      0x00\n        /* \"#utility.yul\":15476:15482   */\n      dup4\n        /* \"#utility.yul\":15471:15474   */\n      dup4\n        /* \"#utility.yul\":15467:15483   */\n      add\n        /* \"#utility.yul\":15460:15487   */\n      mstore\n        /* \"#utility.yul\":15339:15493   */\n      pop\n      pop\n      pop\n      jump\t// out\n        /* \"#utility.yul\":15499:15806   */\n    tag_232:\n        /* \"#utility.yul\":15567:15568   */\n      0x00\n        /* \"#utility.yul\":15577:15690   */\n    tag_350:\n        /* \"#utility.yul\":15591:15597   */\n      dup4\n        /* \"#utility.yul\":15588:15589   */\n      dup2\n        /* \"#utility.yul\":15585:15598   */\n      lt\n        /* \"#utility.yul\":15577:15690   */\n      iszero\n      tag_352\n      jumpi\n        /* \"#utility.yul\":15676:15677   */\n      dup1\n        /* \"#utility.yul\":15671:15674   */\n      dup3\n        /* \"#utility.yul\":15667:15678   */\n      add\n        /* \"#utility.yul\":15661:15679   */\n      mload\n        /* \"#utility.yul\":15657:15658   */\n      dup2\n        /* \"#utility.yul\":15652:15655   */\n      dup5\n        /* \"#utility.yul\":15648:15659   */\n      add\n        /* \"#utility.yul\":15641:15680   */\n      mstore\n        /* \"#utility.yul\":15613:15615   */\n      0x20\n        /* \"#utility.yul\":15610:15611   */\n      dup2\n        /* \"#utility.yul\":15606:15616   */\n      add\n        /* \"#utility.yul\":15601:15616   */\n      swap1\n      pop\n        /* \"#utility.yul\":15577:15690   */\n      jump(tag_350)\n    tag_352:\n        /* \"#utility.yul\":15708:15714   */\n      dup4\n        /* \"#utility.yul\":15705:15706   */\n      dup2\n        /* \"#utility.yul\":15702:15715   */\n      gt\n        /* \"#utility.yul\":15699:15800   */\n      iszero\n      tag_353\n      jumpi\n        /* \"#utility.yul\":15788:15789   */\n      0x00\n        /* \"#utility.yul\":15779:15785   */\n      dup5\n        /* \"#utility.yul\":15774:15777   */\n      dup5\n        /* \"#utility.yul\":15770:15786   */\n      add\n        /* \"#utility.yul\":15763:15790   */\n      mstore\n        /* \"#utility.yul\":15699:15800   */\n    tag_353:\n        /* \"#utility.yul\":15548:15806   */\n      pop\n        /* \"#utility.yul\":15499:15806   */\n      pop\n      pop\n      pop\n      jump\t// out\n        /* \"#utility.yul\":15812:16132   */\n    tag_60:\n        /* \"#utility.yul\":15856:15862   */\n      0x00\n        /* \"#utility.yul\":15893:15894   */\n      0x02\n        /* \"#utility.yul\":15887:15891   */\n      dup3\n        /* \"#utility.yul\":15883:15895   */\n      div\n        /* \"#utility.yul\":15873:15895   */\n      swap1\n      pop\n        /* \"#utility.yul\":15940:15941   */\n      0x01\n        /* \"#utility.yul\":15934:15938   */\n      dup3\n        /* \"#utility.yul\":15930:15942   */\n      and\n        /* \"#utility.yul\":15961:15979   */\n      dup1\n        /* \"#utility.yul\":15951:16032   */\n      tag_355\n      jumpi\n        /* \"#utility.yul\":16017:16021   */\n      0x7f\n        /* \"#utility.yul\":16009:16015   */\n      dup3\n        /* \"#utility.yul\":16005:16022   */\n      and\n        /* \"#utility.yul\":15995:16022   */\n      swap2\n      pop\n        /* \"#utility.yul\":15951:16032   */\n    tag_355:\n        /* \"#utility.yul\":16079:16081   */\n      0x20\n        /* \"#utility.yul\":16071:16077   */\n      dup3\n        /* \"#utility.yul\":16068:16082   */\n      lt\n        /* \"#utility.yul\":16048:16066   */\n      dup2\n        /* \"#utility.yul\":16045:16083   */\n      eq\n        /* \"#utility.yul\":16042:16126   */\n      iszero\n      tag_356\n      jumpi\n        /* \"#utility.yul\":16098:16116   */\n      tag_357\n      tag_358\n      jump\t// in\n    tag_357:\n        /* \"#utility.yul\":16042:16126   */\n    tag_356:\n        /* \"#utility.yul\":15863:16132   */\n      pop\n        /* \"#utility.yul\":15812:16132   */\n      swap2\n      swap1\n      pop\n      jump\t// out\n        /* \"#utility.yul\":16138:16419   */\n    tag_319:\n        /* \"#utility.yul\":16221:16248   */\n      tag_360\n        /* \"#utility.yul\":16243:16247   */\n      dup3\n        /* \"#utility.yul\":16221:16248   */\n      tag_234\n      jump\t// in\n    tag_360:\n        /* \"#utility.yul\":16213:16219   */\n      dup2\n        /* \"#utility.yul\":16209:16249   */\n      add\n        /* \"#utility.yul\":16351:16357   */\n      dup2\n        /* \"#utility.yul\":16339:16349   */\n      dup2\n        /* \"#utility.yul\":16336:16358   */\n      lt\n        /* \"#utility.yul\":16315:16333   */\n      0xffffffffffffffff\n        /* \"#utility.yul\":16303:16313   */\n      dup3\n        /* \"#utility.yul\":16300:16334   */\n      gt\n        /* \"#utility.yul\":16297:16359   */\n      or\n        /* \"#utility.yul\":16294:16382   */\n      iszero\n      tag_361\n      jumpi\n        /* \"#utility.yul\":16362:16380   */\n      tag_362\n      tag_124\n      jump\t// in\n    tag_362:\n        /* \"#utility.yul\":16294:16382   */\n    tag_361:\n        /* \"#utility.yul\":16402:16412   */\n      dup1\n        /* \"#utility.yul\":16398:16400   */\n      0x40\n        /* \"#utility.yul\":16391:16413   */\n      mstore\n        /* \"#utility.yul\":16181:16419   */\n      pop\n        /* \"#utility.yul\":16138:16419   */\n      pop\n      pop\n      jump\t// out\n        /* \"#utility.yul\":16425:16658   */\n    tag_120:\n        /* \"#utility.yul\":16464:16467   */\n      0x00\n        /* \"#utility.yul\":16487:16511   */\n      tag_364\n        /* \"#utility.yul\":16505:16510   */\n      dup3\n        /* \"#utility.yul\":16487:16511   */\n      tag_283\n      jump\t// in\n    tag_364:\n        /* \"#utility.yul\":16478:16511   */\n      swap2\n      pop\n        /* \"#utility.yul\":16533:16599   */\n      0xffffffffffffffffffffffffffffffffffffffffffffffffffffffffffffffff\n        /* \"#utility.yul\":16526:16531   */\n      dup3\n        /* \"#utility.yul\":16523:16600   */\n      eq\n        /* \"#utility.yul\":16520:16623   */\n      iszero\n      tag_365\n      jumpi\n        /* \"#utility.yul\":16603:16621   */\n      tag_366\n      tag_337\n      jump\t// in\n    tag_366:\n        /* \"#utility.yul\":16520:16623   */\n    tag_365:\n        /* \"#utility.yul\":16650:16651   */\n      0x01\n        /* \"#utility.yul\":16643:16648   */\n      dup3\n        /* \"#utility.yul\":16639:16652   */\n      add\n        /* \"#utility.yul\":16632:16652   */\n      swap1\n      pop\n        /* \"#utility.yul\":16425:16658   */\n      swap2\n      swap1\n      pop\n      jump\t// out\n        /* \"#utility.yul\":16664:16844   */\n    tag_337:\n        /* \"#utility.yul\":16712:16789   */\n      0x4e487b7100000000000000000000000000000000000000000000000000000000\n        /* \"#utility.yul\":16709:16710   */\n      0x00\n        /* \"#utility.yul\":16702:16790   */\n      mstore\n        /* \"#utility.yul\":16809:16813   */\n      0x11\n        /* \"#utility.yul\":16806:16807   */\n      0x04\n        /* \"#utility.yul\":16799:16814   */\n      mstore\n        /* \"#utility.yul\":16833:16837   */\n      0x24\n        /* \"#utility.yul\":16830:16831   */\n      0x00\n        /* \"#utility.yul\":16823:16838   */\n      revert\n        /* \"#utility.yul\":16850:17030   */\n    tag_358:\n        /* \"#utility.yul\":16898:16975   */\n      0x4e487b7100000000000000000000000000000000000000000000000000000000\n        /* \"#utility.yul\":16895:16896   */\n      0x00\n        /* \"#utility.yul\":16888:16976   */\n      mstore\n        /* \"#utility.yul\":16995:16999   */\n      0x22\n        /* \"#utility.yul\":16992:16993   */\n      0x04\n        /* \"#utility.yul\":16985:17000   */\n      mstore\n        /* \"#utility.yul\":17019:17023   */\n      0x24\n        /* \"#utility.yul\":17016:17017   */\n      0x00\n        /* \"#utility.yul\":17009:17024   */\n      revert\n        /* \"#utility.yul\":17036:17216   */\n    tag_133:\n        /* \"#utility.yul\":17084:17161   */\n      0x4e487b7100000000000000000000000000000000000000000000000000000000\n        /* \"#utility.yul\":17081:17082   */\n      0x00\n        /* \"#utility.yul\":17074:17162   */\n      mstore\n        /* \"#utility.yul\":17181:17185   */\n      0x32\n        /* \"#utility.yul\":17178:17179   */\n      0x04\n        /* \"#utility.yul\":17171:17186   */\n      mstore\n        /* \"#utility.yul\":17205:17209   */\n      0x24\n        /* \"#utility.yul\":17202:17203   */\n      0x00\n        /* \"#utility.yul\":17195:17210   */\n      revert\n        /* \"#utility.yul\":17222:17402   */\n    tag_124:\n        /* \"#utility.yul\":17270:17347   */\n      0x4e487b7100000000000000000000000000000000000000000000000000000000\n        /* \"#utility.yul\":17267:17268   */\n      0x00\n        /* \"#utility.yul\":17260:17348   */\n      mstore\n        /* \"#utility.yul\":17367:17371   */\n      0x41\n        /* \"#utility.yul\":17364:17365   */\n      0x04\n        /* \"#utility.yul\":17357:17372   */\n      mstore\n        /* \"#utility.yul\":17391:17395   */\n      0x24\n        /* \"#utility.yul\":17388:17389   */\n      0x00\n        /* \"#utility.yul\":17381:17396   */\n      revert\n        /* \"#utility.yul\":17408:17525   */\n    tag_175:\n        /* \"#utility.yul\":17517:17518   */\n      0x00\n        /* \"#utility.yul\":17514:17515   */\n      dup1\n        /* \"#utility.yul\":17507:17519   */\n      revert\n        /* \"#utility.yul\":17531:17648   */\n    tag_164:\n        /* \"#utility.yul\":17640:17641   */\n      0x00\n        /* \"#utility.yul\":17637:17638   */\n      dup1\n        /* \"#utility.yul\":17630:17642   */\n      revert\n        /* \"#utility.yul\":17654:17771   */\n    tag_191:\n        /* \"#utility.yul\":17763:17764   */\n      0x00\n        /* \"#utility.yul\":17760:17761   */\n      dup1\n        /* \"#utility.yul\":17753:17765   */\n      revert\n        /* \"#utility.yul\":17777:17894   */\n    tag_184:\n        /* \"#utility.yul\":17886:17887   */\n      0x00\n        /* \"#utility.yul\":17883:17884   */\n      dup1\n        /* \"#utility.yul\":17876:17888   */\n      revert\n        /* \"#utility.yul\":17900:18002   */\n    tag_234:\n        /* \"#utility.yul\":17941:17947   */\n      0x00\n        /* \"#utility.yul\":17992:17994   */\n      0x1f\n        /* \"#utility.yul\":17988:17995   */\n      not\n        /* \"#utility.yul\":17983:17985   */\n      0x1f\n        /* \"#utility.yul\":17976:17981   */\n      dup4\n        /* \"#utility.yul\":17972:17986   */\n      add\n        /* \"#utility.yul\":17968:17996   */\n      and\n        /* \"#utility.yul\":17958:17996   */\n      swap1\n      pop\n        /* \"#utility.yul\":17900:18002   */\n      swap2\n      swap1\n      pop\n      jump\t// out\n        /* \"#utility.yul\":18008:18178   */\n    tag_245:\n        /* \"#utility.yul\":18148:18170   */\n      0x4e616d652063616e6e6f7420626520656d707479000000000000000000000000\n        /* \"#utility.yul\":18144:18145   */\n      0x00\n        /* \"#utility.yul\":18136:18142   */\n      dup3\n        /* \"#utility.yul\":18132:18146   */\n      add\n        /* \"#utility.yul\":18125:18171   */\n      mstore\n        /* \"#utility.yul\":18008:18178   */\n      pop\n      jump\t// out\n        /* \"#utility.yul\":18184:18351   */\n    tag_250:\n        /* \"#utility.yul\":18324:18343   */\n      0x426f6f6b20697320617661696c61626c65000000000000000000000000000000\n        /* \"#utility.yul\":18320:18321   */\n      0x00\n        /* \"#utility.yul\":18312:18318   */\n      dup3\n        /* \"#utility.yul\":18308:18322   */\n      add\n        /* \"#utility.yul\":18301:18344   */\n      mstore\n        /* \"#utility.yul\":18184:18351   */\n      pop\n      jump\t// out\n        /* \"#utility.yul\":18357:18529   */\n    tag_255:\n        /* \"#utility.yul\":18497:18521   */\n      0x426f6f6b20697320616c72656164792069737375656400000000000000000000\n        /* \"#utility.yul\":18493:18494   */\n      0x00\n        /* \"#utility.yul\":18485:18491   */\n      dup3\n        /* \"#utility.yul\":18481:18495   */\n      add\n        /* \"#utility.yul\":18474:18522   */\n      mstore\n        /* \"#utility.yul\":18357:18529   */\n      pop\n      jump\t// out\n        /* \"#utility.yul\":18535:18760   */\n    tag_260:\n        /* \"#utility.yul\":18675:18709   */\n      0x4f776e61626c653a206e6577206f776e657220697320746865207a65726f2061\n        /* \"#utility.yul\":18671:18672   */\n      0x00\n        /* \"#utility.yul\":18663:18669   */\n      dup3\n        /* \"#utility.yul\":18659:18673   */\n      add\n        /* \"#utility.yul\":18652:18710   */\n      mstore\n        /* \"#utility.yul\":18744:18752   */\n      0x6464726573730000000000000000000000000000000000000000000000000000\n        /* \"#utility.yul\":18739:18741   */\n      0x20\n        /* \"#utility.yul\":18731:18737   */\n      dup3\n        /* \"#utility.yul\":18727:18742   */\n      add\n        /* \"#utility.yul\":18720:18753   */\n      mstore\n        /* \"#utility.yul\":18535:18760   */\n      pop\n      jump\t// out\n        /* \"#utility.yul\":18766:18934   */\n    tag_265:\n        /* \"#utility.yul\":18906:18926   */\n      0x426f6f6b206973206e6f74206973737565640000000000000000000000000000\n        /* \"#utility.yul\":18902:18903   */\n      0x00\n        /* \"#utility.yul\":18894:18900   */\n      dup3\n        /* \"#utility.yul\":18890:18904   */\n      add\n        /* \"#utility.yul\":18883:18927   */\n      mstore\n        /* \"#utility.yul\":18766:18934   */\n      pop\n      jump\t// out\n        /* \"#utility.yul\":18940:19122   */\n    tag_270:\n        /* \"#utility.yul\":19080:19114   */\n      0x4f776e61626c653a2063616c6c6572206973206e6f7420746865206f776e6572\n        /* \"#utility.yul\":19076:19077   */\n      0x00\n        /* \"#utility.yul\":19068:19074   */\n      dup3\n        /* \"#utility.yul\":19064:19078   */\n      add\n        /* \"#utility.yul\":19057:19115   */\n      mstore\n        /* \"#utility.yul\":18940:19122   */\n      pop\n      jump\t// out\n        /* \"#utility.yul\":19128:19283   */\n    tag_275:\n        /* \"#utility.yul\":19268:19275   */\n      0x217a65726f000000000000000000000000000000000000000000000000000000\n        /* \"#utility.yul\":19264:19265   */\n      0x00\n        /* \"#utility.yul\":19256:19262   */\n      dup3\n        /* \"#utility.yul\":19252:19266   */\n      add\n        /* \"#utility.yul\":19245:19276   */\n      mstore\n        /* \"#utility.yul\":19128:19283   */\n      pop\n      jump\t// out\n        /* \"#utility.yul\":19289:19458   */\n    tag_280:\n        /* \"#utility.yul\":19429:19450   */\n      0x426f6f6b20646f6573206e6f7420657869737400000000000000000000000000\n        /* \"#utility.yul\":19425:19426   */\n      0x00\n        /* \"#utility.yul\":19417:19423   */\n      dup3\n        /* \"#utility.yul\":19413:19427   */\n      add\n        /* \"#utility.yul\":19406:19451   */\n      mstore\n        /* \"#utility.yul\":19289:19458   */\n      pop\n      jump\t// out\n        /* \"#utility.yul\":19464:19586   */\n    tag_170:\n        /* \"#utility.yul\":19537:19561   */\n      tag_385\n        /* \"#utility.yul\":19555:19560   */\n      dup2\n        /* \"#utility.yul\":19537:19561   */\n      tag_210\n      jump\t// in\n    tag_385:\n        /* \"#utility.yul\":19530:19535   */\n      dup2\n        /* \"#utility.yul\":19527:19562   */\n      eq\n        /* \"#utility.yul\":19517:19580   */\n      tag_386\n      jumpi\n        /* \"#utility.yul\":19576:19577   */\n      0x00\n        /* \"#utility.yul\":19573:19574   */\n      dup1\n        /* \"#utility.yul\":19566:19578   */\n      revert\n        /* \"#utility.yul\":19517:19580   */\n    tag_386:\n        /* \"#utility.yul\":19464:19586   */\n      pop\n      jump\t// out\n        /* \"#utility.yul\":19592:19714   */\n    tag_180:\n        /* \"#utility.yul\":19665:19689   */\n      tag_388\n        /* \"#utility.yul\":19683:19688   */\n      dup2\n        /* \"#utility.yul\":19665:19689   */\n      tag_283\n      jump\t// in\n    tag_388:\n        /* \"#utility.yul\":19658:19663   */\n      dup2\n        /* \"#utility.yul\":19655:19690   */\n      eq\n        /* \"#utility.yul\":19645:19708   */\n      tag_389\n      jumpi\n        /* \"#utility.yul\":19704:19705   */\n      0x00\n        /* \"#utility.yul\":19701:19702   */\n      dup1\n        /* \"#utility.yul\":19694:19706   */\n      revert\n        /* \"#utility.yul\":19645:19708   */\n    tag_389:\n        /* \"#utility.yul\":19592:19714   */\n      pop\n      jump\t// out\n\n    auxdata: 0xa2646970667358221220cc653db0d3b4cb0a87d12c324d9d1abf36e37c18c2c4381d4bb13c3bc794262d64736f6c63430008070033\n}\n",
				"bytecode": {
					"linkReferences": {},
					"object": "608060405234801561001057600080fd5b5061002d61002261003260201b60201c565b61003a60201b60201c565b6100fe565b600033905090565b60008060009054906101000a900473ffffffffffffffffffffffffffffffffffffffff169050816000806101000a81548173ffffffffffffffffffffffffffffffffffffffff021916908373ffffffffffffffffffffffffffffffffffffffff1602179055508173ffffffffffffffffffffffffffffffffffffffff168173ffffffffffffffffffffffffffffffffffffffff167f8be0079c531659141344cd1fd0a4f28419497f9722a3daafe3b4186f6b6457e060405160405180910390a35050565b6116b38061010d6000396000f3fe608060405234801561001057600080fd5b506004361061009e5760003560e01c80638da5cb5b116100665780638da5cb5b14610133578063b905ad7814610151578063ca5140c91461016f578063f2fde38b1461018b578063f4cbc4a6146101a75761009e565b806360f9eefc146100a3578063637a3872146100bf578063715018a6146100db5780637975c6b4146100e55780637e490a9e14610117575b600080fd5b6100bd60048036038101906100b89190610d84565b6101c5565b005b6100d960048036038101906100d49190610cfb565b6102a3565b005b6100e36103e8565b005b6100ff60048036038101906100fa9190610d57565b6103fc565b60405161010e9392919061103d565b60405180910390f35b610131600480360381019061012c9190610d57565b6104ae565b005b61013b61066c565b6040516101489190611000565b60405180910390f35b610159610695565b604051610166919061117b565b60405180910390f35b61018960048036038101906101849190610d57565b61069b565b005b6101a560048036038101906101a09190610cce565b6107d5565b005b6101af610859565b6040516101bc919061101b565b60405180910390f35b6101cd610a47565b60008111610210576040517f08c379a00000000000000000000000000000000000000000000000000000000081526004016102079061113b565b60405180910390fd5b6000600760008481526020019081526020016000209050600081600001805461023890611354565b9050141561027b576040517f08c379a00000000000000000000000000000000000000000000000000000000081526004016102729061115b565b60405180910390fd5b6001816001016000828254610290919061124c565b9250508190558160010181905550505050565b6102ab610a47565b816006816040516102bc9190610fe9565b908152602001604051809103902060009054906101000a900460ff1615610318576040517f08c379a000000000000000000000000000000000000000000000000000000000815260040161030f9061109b565b60405180910390fd5b60008351141561035d576040517f08c379a00000000000000000000000000000000000000000000000000000000081526004016103549061107b565b60405180910390fd5b600160068460405161036f9190610fe9565b908152602001604051809103902060006101000a81548160ff02191690831515021790555060006001836103a3919061124c565b92508290506000600760008381526020019081526020016000209050848160000190805190602001906103d7929190610b91565b508381600101819055505050505050565b6103f0610a47565b6103fa6000610ac5565b565b600760205280600052604060002060009150905080600001805461041f90611354565b80601f016020809104026020016040519081016040528092919081815260200182805461044b90611354565b80156104985780601f1061046d57610100808354040283529160200191610498565b820191906000526020600020905b81548152906001019060200180831161047b57829003601f168201915b5050505050908060010154908060020154905083565b600860003373ffffffffffffffffffffffffffffffffffffffff1673ffffffffffffffffffffffffffffffffffffffff168152602001908152602001600020600082815260200190815260200160002060009054906101000a900460ff161561054c576040517f08c379a0000000000000000000000000000000000000000000000000000000008152600401610543906110bb565b60405180910390fd5b6001600860003373ffffffffffffffffffffffffffffffffffffffff1673ffffffffffffffffffffffffffffffffffffffff168152602001908152602001600020600083815260200190815260200160002060006101000a81548160ff02191690831515021790555060006007600083815260200190815260200160002090506001816001015410156105de57600080fd5b600181600101546105ef91906112a2565b8160010181905550338160030160008360020154815260200190815260200160002060006101000a81548173ffffffffffffffffffffffffffffffffffffffff021916908373ffffffffffffffffffffffffffffffffffffffff16021790555060018160020154610660919061124c565b81600201819055505050565b60008060009054906101000a900473ffffffffffffffffffffffffffffffffffffffff16905090565b60055481565b600860003373ffffffffffffffffffffffffffffffffffffffff1673ffffffffffffffffffffffffffffffffffffffff168152602001908152602001600020600082815260200190815260200160002060009054906101000a900460ff16610738576040517f08c379a000000000000000000000000000000000000000000000000000000000815260040161072f906110fb565b60405180910390fd5b600060076000838152602001908152602001600020905060018160010154610760919061124c565b81600101819055506000600860003373ffffffffffffffffffffffffffffffffffffffff1673ffffffffffffffffffffffffffffffffffffffff168152602001908152602001600020600084815260200190815260200160002060006101000a81548160ff0219169083151502179055505050565b6107dd610a47565b600073ffffffffffffffffffffffffffffffffffffffff168173ffffffffffffffffffffffffffffffffffffffff16141561084d576040517f08c379a0000000000000000000000000000000000000000000000000000000008152600401610844906110db565b60405180910390fd5b61085681610ac5565b50565b6060600080600190505b600554811161091457600860003373ffffffffffffffffffffffffffffffffffffffff1673ffffffffffffffffffffffffffffffffffffffff168152602001908152602001600020600082815260200190815260200160002060009054906101000a900460ff161580156108ed575060006007600083815260200190815260200160002060010154115b156109015781806108fd906113b7565b9250505b808061090c906113b7565b915050610863565b5060008167ffffffffffffffff8111156109315761093061148d565b5b60405190808252806020026020018201604052801561095f5781602001602082028036833780820191505090505b509050600091506000600190505b6005548111610a3e57600860003373ffffffffffffffffffffffffffffffffffffffff1673ffffffffffffffffffffffffffffffffffffffff168152602001908152602001600020600082815260200190815260200160002060009054906101000a900460ff161580156109f7575060006007600083815260200190815260200160002060010154115b15610a2b5780828481518110610a1057610a0f61145e565b5b6020026020010181815250508280610a27906113b7565b9350505b8080610a36906113b7565b91505061096d565b50809250505090565b610a4f610b89565b73ffffffffffffffffffffffffffffffffffffffff16610a6d61066c565b73ffffffffffffffffffffffffffffffffffffffff1614610ac3576040517f08c379a0000000000000000000000000000000000000000000000000000000008152600401610aba9061111b565b60405180910390fd5b565b60008060009054906101000a900473ffffffffffffffffffffffffffffffffffffffff169050816000806101000a81548173ffffffffffffffffffffffffffffffffffffffff021916908373ffffffffffffffffffffffffffffffffffffffff1602179055508173ffffffffffffffffffffffffffffffffffffffff168173ffffffffffffffffffffffffffffffffffffffff167f8be0079c531659141344cd1fd0a4f28419497f9722a3daafe3b4186f6b6457e060405160405180910390a35050565b600033905090565b828054610b9d90611354565b90600052602060002090601f016020900481019282610bbf5760008555610c06565b82601f10610bd857805160ff1916838001178555610c06565b82800160010185558215610c06579182015b82811115610c05578251825591602001919060010190610bea565b5b509050610c139190610c17565b5090565b5b80821115610c30576000816000905550600101610c18565b5090565b6000610c47610c42846111bb565b611196565b905082815260208101848484011115610c6357610c626114c1565b5b610c6e848285611312565b509392505050565b600081359050610c858161164f565b92915050565b600082601f830112610ca057610c9f6114bc565b5b8135610cb0848260208601610c34565b91505092915050565b600081359050610cc881611666565b92915050565b600060208284031215610ce457610ce36114cb565b5b6000610cf284828501610c76565b91505092915050565b60008060408385031215610d1257610d116114cb565b5b600083013567ffffffffffffffff811115610d3057610d2f6114c6565b5b610d3c85828601610c8b565b9250506020610d4d85828601610cb9565b9150509250929050565b600060208284031215610d6d57610d6c6114cb565b5b6000610d7b84828501610cb9565b91505092915050565b60008060408385031215610d9b57610d9a6114cb565b5b6000610da985828601610cb9565b9250506020610dba85828601610cb9565b9150509250929050565b6000610dd08383610fcb565b60208301905092915050565b610de5816112d6565b82525050565b6000610df6826111fc565b610e00818561121f565b9350610e0b836111ec565b8060005b83811015610e3c578151610e238882610dc4565b9750610e2e83611212565b925050600181019050610e0f565b5085935050505092915050565b6000610e5482611207565b610e5e8185611230565b9350610e6e818560208601611321565b610e77816114d0565b840191505092915050565b6000610e8d82611207565b610e978185611241565b9350610ea7818560208601611321565b80840191505092915050565b6000610ec0601483611230565b9150610ecb826114e1565b602082019050919050565b6000610ee3601183611230565b9150610eee8261150a565b602082019050919050565b6000610f06601683611230565b9150610f1182611533565b602082019050919050565b6000610f29602683611230565b9150610f348261155c565b604082019050919050565b6000610f4c601283611230565b9150610f57826115ab565b602082019050919050565b6000610f6f602083611230565b9150610f7a826115d4565b602082019050919050565b6000610f92600583611230565b9150610f9d826115fd565b602082019050919050565b6000610fb5601383611230565b9150610fc082611626565b602082019050919050565b610fd481611308565b82525050565b610fe381611308565b82525050565b6000610ff58284610e82565b915081905092915050565b60006020820190506110156000830184610ddc565b92915050565b600060208201905081810360008301526110358184610deb565b905092915050565b600060608201905081810360008301526110578186610e49565b90506110666020830185610fda565b6110736040830184610fda565b949350505050565b6000602082019050818103600083015261109481610eb3565b9050919050565b600060208201905081810360008301526110b481610ed6565b9050919050565b600060208201905081810360008301526110d481610ef9565b9050919050565b600060208201905081810360008301526110f481610f1c565b9050919050565b6000602082019050818103600083015261111481610f3f565b9050919050565b6000602082019050818103600083015261113481610f62565b9050919050565b6000602082019050818103600083015261115481610f85565b9050919050565b6000602082019050818103600083015261117481610fa8565b9050919050565b60006020820190506111906000830184610fda565b92915050565b60006111a06111b1565b90506111ac8282611386565b919050565b6000604051905090565b600067ffffffffffffffff8211156111d6576111d561148d565b5b6111df826114d0565b9050602081019050919050565b6000819050602082019050919050565b600081519050919050565b600081519050919050565b6000602082019050919050565b600082825260208201905092915050565b600082825260208201905092915050565b600081905092915050565b600061125782611308565b915061126283611308565b9250827fffffffffffffffffffffffffffffffffffffffffffffffffffffffffffffffff0382111561129757611296611400565b5b828201905092915050565b60006112ad82611308565b91506112b883611308565b9250828210156112cb576112ca611400565b5b828203905092915050565b60006112e1826112e8565b9050919050565b600073ffffffffffffffffffffffffffffffffffffffff82169050919050565b6000819050919050565b82818337600083830152505050565b60005b8381101561133f578082015181840152602081019050611324565b8381111561134e576000848401525b50505050565b6000600282049050600182168061136c57607f821691505b602082108114156113805761137f61142f565b5b50919050565b61138f826114d0565b810181811067ffffffffffffffff821117156113ae576113ad61148d565b5b80604052505050565b60006113c282611308565b91507fffffffffffffffffffffffffffffffffffffffffffffffffffffffffffffffff8214156113f5576113f4611400565b5b600182019050919050565b7f4e487b7100000000000000000000000000000000000000000000000000000000600052601160045260246000fd5b7f4e487b7100000000000000000000000000000000000000000000000000000000600052602260045260246000fd5b7f4e487b7100000000000000000000000000000000000000000000000000000000600052603260045260246000fd5b7f4e487b7100000000000000000000000000000000000000000000000000000000600052604160045260246000fd5b600080fd5b600080fd5b600080fd5b600080fd5b6000601f19601f8301169050919050565b7f4e616d652063616e6e6f7420626520656d707479000000000000000000000000600082015250565b7f426f6f6b20697320617661696c61626c65000000000000000000000000000000600082015250565b7f426f6f6b20697320616c72656164792069737375656400000000000000000000600082015250565b7f4f776e61626c653a206e6577206f776e657220697320746865207a65726f206160008201527f6464726573730000000000000000000000000000000000000000000000000000602082015250565b7f426f6f6b206973206e6f74206973737565640000000000000000000000000000600082015250565b7f4f776e61626c653a2063616c6c6572206973206e6f7420746865206f776e6572600082015250565b7f217a65726f000000000000000000000000000000000000000000000000000000600082015250565b7f426f6f6b20646f6573206e6f7420657869737400000000000000000000000000600082015250565b611658816112d6565b811461166357600080fd5b50565b61166f81611308565b811461167a57600080fd5b5056fea2646970667358221220cc653db0d3b4cb0a87d12c324d9d1abf36e37c18c2c4381d4bb13c3bc794262d64736f6c63430008070033",
					"opcodes": "PUSH1 0x80 PUSH1 0x40 MSTORE CALLVALUE DUP1 ISZERO PUSH2 0x10 JUMPI PUSH1 0x0 DUP1 REVERT JUMPDEST POP PUSH2 0x2D PUSH2 0x22 PUSH2 0x32 PUSH1 0x20 SHL PUSH1 0x20 SHR JUMP JUMPDEST PUSH2 0x3A PUSH1 0x20 SHL PUSH1 0x20 SHR JUMP JUMPDEST PUSH2 0xFE JUMP JUMPDEST PUSH1 0x0 CALLER SWAP1 POP SWAP1 JUMP JUMPDEST PUSH1 0x0 DUP1 PUSH1 0x0 SWAP1 SLOAD SWAP1 PUSH2 0x100 EXP SWAP1 DIV PUSH20 0xFFFFFFFFFFFFFFFFFFFFFFFFFFFFFFFFFFFFFFFF AND SWAP1 POP DUP2 PUSH1 0x0 DUP1 PUSH2 0x100 EXP DUP2 SLOAD DUP2 PUSH20 0xFFFFFFFFFFFFFFFFFFFFFFFFFFFFFFFFFFFFFFFF MUL NOT AND SWAP1 DUP4 PUSH20 0xFFFFFFFFFFFFFFFFFFFFFFFFFFFFFFFFFFFFFFFF AND MUL OR SWAP1 SSTORE POP DUP2 PUSH20 0xFFFFFFFFFFFFFFFFFFFFFFFFFFFFFFFFFFFFFFFF AND DUP2 PUSH20 0xFFFFFFFFFFFFFFFFFFFFFFFFFFFFFFFFFFFFFFFF AND PUSH32 0x8BE0079C531659141344CD1FD0A4F28419497F9722A3DAAFE3B4186F6B6457E0 PUSH1 0x40 MLOAD PUSH1 0x40 MLOAD DUP1 SWAP2 SUB SWAP1 LOG3 POP POP JUMP JUMPDEST PUSH2 0x16B3 DUP1 PUSH2 0x10D PUSH1 0x0 CODECOPY PUSH1 0x0 RETURN INVALID PUSH1 0x80 PUSH1 0x40 MSTORE CALLVALUE DUP1 ISZERO PUSH2 0x10 JUMPI PUSH1 0x0 DUP1 REVERT JUMPDEST POP PUSH1 0x4 CALLDATASIZE LT PUSH2 0x9E JUMPI PUSH1 0x0 CALLDATALOAD PUSH1 0xE0 SHR DUP1 PUSH4 0x8DA5CB5B GT PUSH2 0x66 JUMPI DUP1 PUSH4 0x8DA5CB5B EQ PUSH2 0x133 JUMPI DUP1 PUSH4 0xB905AD78 EQ PUSH2 0x151 JUMPI DUP1 PUSH4 0xCA5140C9 EQ PUSH2 0x16F JUMPI DUP1 PUSH4 0xF2FDE38B EQ PUSH2 0x18B JUMPI DUP1 PUSH4 0xF4CBC4A6 EQ PUSH2 0x1A7 JUMPI PUSH2 0x9E JUMP JUMPDEST DUP1 PUSH4 0x60F9EEFC EQ PUSH2 0xA3 JUMPI DUP1 PUSH4 0x637A3872 EQ PUSH2 0xBF JUMPI DUP1 PUSH4 0x715018A6 EQ PUSH2 0xDB JUMPI DUP1 PUSH4 0x7975C6B4 EQ PUSH2 0xE5 JUMPI DUP1 PUSH4 0x7E490A9E EQ PUSH2 0x117 JUMPI JUMPDEST PUSH1 0x0 DUP1 REVERT JUMPDEST PUSH2 0xBD PUSH1 0x4 DUP1 CALLDATASIZE SUB DUP2 ADD SWAP1 PUSH2 0xB8 SWAP2 SWAP1 PUSH2 0xD84 JUMP JUMPDEST PUSH2 0x1C5 JUMP JUMPDEST STOP JUMPDEST PUSH2 0xD9 PUSH1 0x4 DUP1 CALLDATASIZE SUB DUP2 ADD SWAP1 PUSH2 0xD4 SWAP2 SWAP1 PUSH2 0xCFB JUMP JUMPDEST PUSH2 0x2A3 JUMP JUMPDEST STOP JUMPDEST PUSH2 0xE3 PUSH2 0x3E8 JUMP JUMPDEST STOP JUMPDEST PUSH2 0xFF PUSH1 0x4 DUP1 CALLDATASIZE SUB DUP2 ADD SWAP1 PUSH2 0xFA SWAP2 SWAP1 PUSH2 0xD57 JUMP JUMPDEST PUSH2 0x3FC JUMP JUMPDEST PUSH1 0x40 MLOAD PUSH2 0x10E SWAP4 SWAP3 SWAP2 SWAP1 PUSH2 0x103D JUMP JUMPDEST PUSH1 0x40 MLOAD DUP1 SWAP2 SUB SWAP1 RETURN JUMPDEST PUSH2 0x131 PUSH1 0x4 DUP1 CALLDATASIZE SUB DUP2 ADD SWAP1 PUSH2 0x12C SWAP2 SWAP1 PUSH2 0xD57 JUMP JUMPDEST PUSH2 0x4AE JUMP JUMPDEST STOP JUMPDEST PUSH2 0x13B PUSH2 0x66C JUMP JUMPDEST PUSH1 0x40 MLOAD PUSH2 0x148 SWAP2 SWAP1 PUSH2 0x1000 JUMP JUMPDEST PUSH1 0x40 MLOAD DUP1 SWAP2 SUB SWAP1 RETURN JUMPDEST PUSH2 0x159 PUSH2 0x695 JUMP JUMPDEST PUSH1 0x40 MLOAD PUSH2 0x166 SWAP2 SWAP1 PUSH2 0x117B JUMP JUMPDEST PUSH1 0x40 MLOAD DUP1 SWAP2 SUB SWAP1 RETURN JUMPDEST PUSH2 0x189 PUSH1 0x4 DUP1 CALLDATASIZE SUB DUP2 ADD SWAP1 PUSH2 0x184 SWAP2 SWAP1 PUSH2 0xD57 JUMP JUMPDEST PUSH2 0x69B JUMP JUMPDEST STOP JUMPDEST PUSH2 0x1A5 PUSH1 0x4 DUP1 CALLDATASIZE SUB DUP2 ADD SWAP1 PUSH2 0x1A0 SWAP2 SWAP1 PUSH2 0xCCE JUMP JUMPDEST PUSH2 0x7D5 JUMP JUMPDEST STOP JUMPDEST PUSH2 0x1AF PUSH2 0x859 JUMP JUMPDEST PUSH1 0x40 MLOAD PUSH2 0x1BC SWAP2 SWAP1 PUSH2 0x101B JUMP JUMPDEST PUSH1 0x40 MLOAD DUP1 SWAP2 SUB SWAP1 RETURN JUMPDEST PUSH2 0x1CD PUSH2 0xA47 JUMP JUMPDEST PUSH1 0x0 DUP2 GT PUSH2 0x210 JUMPI PUSH1 0x40 MLOAD PUSH32 0x8C379A000000000000000000000000000000000000000000000000000000000 DUP2 MSTORE PUSH1 0x4 ADD PUSH2 0x207 SWAP1 PUSH2 0x113B JUMP JUMPDEST PUSH1 0x40 MLOAD DUP1 SWAP2 SUB SWAP1 REVERT JUMPDEST PUSH1 0x0 PUSH1 0x7 PUSH1 0x0 DUP5 DUP2 MSTORE PUSH1 0x20 ADD SWAP1 DUP2 MSTORE PUSH1 0x20 ADD PUSH1 0x0 KECCAK256 SWAP1 POP PUSH1 0x0 DUP2 PUSH1 0x0 ADD DUP1 SLOAD PUSH2 0x238 SWAP1 PUSH2 0x1354 JUMP JUMPDEST SWAP1 POP EQ ISZERO PUSH2 0x27B JUMPI PUSH1 0x40 MLOAD PUSH32 0x8C379A000000000000000000000000000000000000000000000000000000000 DUP2 MSTORE PUSH1 0x4 ADD PUSH2 0x272 SWAP1 PUSH2 0x115B JUMP JUMPDEST PUSH1 0x40 MLOAD DUP1 SWAP2 SUB SWAP1 REVERT JUMPDEST PUSH1 0x1 DUP2 PUSH1 0x1 ADD PUSH1 0x0 DUP3 DUP3 SLOAD PUSH2 0x290 SWAP2 SWAP1 PUSH2 0x124C JUMP JUMPDEST SWAP3 POP POP DUP2 SWAP1 SSTORE DUP2 PUSH1 0x1 ADD DUP2 SWAP1 SSTORE POP POP POP POP JUMP JUMPDEST PUSH2 0x2AB PUSH2 0xA47 JUMP JUMPDEST DUP2 PUSH1 0x6 DUP2 PUSH1 0x40 MLOAD PUSH2 0x2BC SWAP2 SWAP1 PUSH2 0xFE9 JUMP JUMPDEST SWAP1 DUP2 MSTORE PUSH1 0x20 ADD PUSH1 0x40 MLOAD DUP1 SWAP2 SUB SWAP1 KECCAK256 PUSH1 0x0 SWAP1 SLOAD SWAP1 PUSH2 0x100 EXP SWAP1 DIV PUSH1 0xFF AND ISZERO PUSH2 0x318 JUMPI PUSH1 0x40 MLOAD PUSH32 0x8C379A000000000000000000000000000000000000000000000000000000000 DUP2 MSTORE PUSH1 0x4 ADD PUSH2 0x30F SWAP1 PUSH2 0x109B JUMP JUMPDEST PUSH1 0x40 MLOAD DUP1 SWAP2 SUB SWAP1 REVERT JUMPDEST PUSH1 0x0 DUP4 MLOAD EQ ISZERO PUSH2 0x35D JUMPI PUSH1 0x40 MLOAD PUSH32 0x8C379A000000000000000000000000000000000000000000000000000000000 DUP2 MSTORE PUSH1 0x4 ADD PUSH2 0x354 SWAP1 PUSH2 0x107B JUMP JUMPDEST PUSH1 0x40 MLOAD DUP1 SWAP2 SUB SWAP1 REVERT JUMPDEST PUSH1 0x1 PUSH1 0x6 DUP5 PUSH1 0x40 MLOAD PUSH2 0x36F SWAP2 SWAP1 PUSH2 0xFE9 JUMP JUMPDEST SWAP1 DUP2 MSTORE PUSH1 0x20 ADD PUSH1 0x40 MLOAD DUP1 SWAP2 SUB SWAP1 KECCAK256 PUSH1 0x0 PUSH2 0x100 EXP DUP2 SLOAD DUP2 PUSH1 0xFF MUL NOT AND SWAP1 DUP4 ISZERO ISZERO MUL OR SWAP1 SSTORE POP PUSH1 0x0 PUSH1 0x1 DUP4 PUSH2 0x3A3 SWAP2 SWAP1 PUSH2 0x124C JUMP JUMPDEST SWAP3 POP DUP3 SWAP1 POP PUSH1 0x0 PUSH1 0x7 PUSH1 0x0 DUP4 DUP2 MSTORE PUSH1 0x20 ADD SWAP1 DUP2 MSTORE PUSH1 0x20 ADD PUSH1 0x0 KECCAK256 SWAP1 POP DUP5 DUP2 PUSH1 0x0 ADD SWAP1 DUP1 MLOAD SWAP1 PUSH1 0x20 ADD SWAP1 PUSH2 0x3D7 SWAP3 SWAP2 SWAP1 PUSH2 0xB91 JUMP JUMPDEST POP DUP4 DUP2 PUSH1 0x1 ADD DUP2 SWAP1 SSTORE POP POP POP POP POP POP JUMP JUMPDEST PUSH2 0x3F0 PUSH2 0xA47 JUMP JUMPDEST PUSH2 0x3FA PUSH1 0x0 PUSH2 0xAC5 JUMP JUMPDEST JUMP JUMPDEST PUSH1 0x7 PUSH1 0x20 MSTORE DUP1 PUSH1 0x0 MSTORE PUSH1 0x40 PUSH1 0x0 KECCAK256 PUSH1 0x0 SWAP2 POP SWAP1 POP DUP1 PUSH1 0x0 ADD DUP1 SLOAD PUSH2 0x41F SWAP1 PUSH2 0x1354 JUMP JUMPDEST DUP1 PUSH1 0x1F ADD PUSH1 0x20 DUP1 SWAP2 DIV MUL PUSH1 0x20 ADD PUSH1 0x40 MLOAD SWAP1 DUP2 ADD PUSH1 0x40 MSTORE DUP1 SWAP3 SWAP2 SWAP1 DUP2 DUP2 MSTORE PUSH1 0x20 ADD DUP3 DUP1 SLOAD PUSH2 0x44B SWAP1 PUSH2 0x1354 JUMP JUMPDEST DUP1 ISZERO PUSH2 0x498 JUMPI DUP1 PUSH1 0x1F LT PUSH2 0x46D JUMPI PUSH2 0x100 DUP1 DUP4 SLOAD DIV MUL DUP4 MSTORE SWAP2 PUSH1 0x20 ADD SWAP2 PUSH2 0x498 JUMP JUMPDEST DUP3 ADD SWAP2 SWAP1 PUSH1 0x0 MSTORE PUSH1 0x20 PUSH1 0x0 KECCAK256 SWAP1 JUMPDEST DUP2 SLOAD DUP2 MSTORE SWAP1 PUSH1 0x1 ADD SWAP1 PUSH1 0x20 ADD DUP1 DUP4 GT PUSH2 0x47B JUMPI DUP3 SWAP1 SUB PUSH1 0x1F AND DUP3 ADD SWAP2 JUMPDEST POP POP POP POP POP SWAP1 DUP1 PUSH1 0x1 ADD SLOAD SWAP1 DUP1 PUSH1 0x2 ADD SLOAD SWAP1 POP DUP4 JUMP JUMPDEST PUSH1 0x8 PUSH1 0x0 CALLER PUSH20 0xFFFFFFFFFFFFFFFFFFFFFFFFFFFFFFFFFFFFFFFF AND PUSH20 0xFFFFFFFFFFFFFFFFFFFFFFFFFFFFFFFFFFFFFFFF AND DUP2 MSTORE PUSH1 0x20 ADD SWAP1 DUP2 MSTORE PUSH1 0x20 ADD PUSH1 0x0 KECCAK256 PUSH1 0x0 DUP3 DUP2 MSTORE PUSH1 0x20 ADD SWAP1 DUP2 MSTORE PUSH1 0x20 ADD PUSH1 0x0 KECCAK256 PUSH1 0x0 SWAP1 SLOAD SWAP1 PUSH2 0x100 EXP SWAP1 DIV PUSH1 0xFF AND ISZERO PUSH2 0x54C JUMPI PUSH1 0x40 MLOAD PUSH32 0x8C379A000000000000000000000000000000000000000000000000000000000 DUP2 MSTORE PUSH1 0x4 ADD PUSH2 0x543 SWAP1 PUSH2 0x10BB JUMP JUMPDEST PUSH1 0x40 MLOAD DUP1 SWAP2 SUB SWAP1 REVERT JUMPDEST PUSH1 0x1 PUSH1 0x8 PUSH1 0x0 CALLER PUSH20 0xFFFFFFFFFFFFFFFFFFFFFFFFFFFFFFFFFFFFFFFF AND PUSH20 0xFFFFFFFFFFFFFFFFFFFFFFFFFFFFFFFFFFFFFFFF AND DUP2 MSTORE PUSH1 0x20 ADD SWAP1 DUP2 MSTORE PUSH1 0x20 ADD PUSH1 0x0 KECCAK256 PUSH1 0x0 DUP4 DUP2 MSTORE PUSH1 0x20 ADD SWAP1 DUP2 MSTORE PUSH1 0x20 ADD PUSH1 0x0 KECCAK256 PUSH1 0x0 PUSH2 0x100 EXP DUP2 SLOAD DUP2 PUSH1 0xFF MUL NOT AND SWAP1 DUP4 ISZERO ISZERO MUL OR SWAP1 SSTORE POP PUSH1 0x0 PUSH1 0x7 PUSH1 0x0 DUP4 DUP2 MSTORE PUSH1 0x20 ADD SWAP1 DUP2 MSTORE PUSH1 0x20 ADD PUSH1 0x0 KECCAK256 SWAP1 POP PUSH1 0x1 DUP2 PUSH1 0x1 ADD SLOAD LT ISZERO PUSH2 0x5DE JUMPI PUSH1 0x0 DUP1 REVERT JUMPDEST PUSH1 0x1 DUP2 PUSH1 0x1 ADD SLOAD PUSH2 0x5EF SWAP2 SWAP1 PUSH2 0x12A2 JUMP JUMPDEST DUP2 PUSH1 0x1 ADD DUP2 SWAP1 SSTORE POP CALLER DUP2 PUSH1 0x3 ADD PUSH1 0x0 DUP4 PUSH1 0x2 ADD SLOAD DUP2 MSTORE PUSH1 0x20 ADD SWAP1 DUP2 MSTORE PUSH1 0x20 ADD PUSH1 0x0 KECCAK256 PUSH1 0x0 PUSH2 0x100 EXP DUP2 SLOAD DUP2 PUSH20 0xFFFFFFFFFFFFFFFFFFFFFFFFFFFFFFFFFFFFFFFF MUL NOT AND SWAP1 DUP4 PUSH20 0xFFFFFFFFFFFFFFFFFFFFFFFFFFFFFFFFFFFFFFFF AND MUL OR SWAP1 SSTORE POP PUSH1 0x1 DUP2 PUSH1 0x2 ADD SLOAD PUSH2 0x660 SWAP2 SWAP1 PUSH2 0x124C JUMP JUMPDEST DUP2 PUSH1 0x2 ADD DUP2 SWAP1 SSTORE POP POP POP JUMP JUMPDEST PUSH1 0x0 DUP1 PUSH1 0x0 SWAP1 SLOAD SWAP1 PUSH2 0x100 EXP SWAP1 DIV PUSH20 0xFFFFFFFFFFFFFFFFFFFFFFFFFFFFFFFFFFFFFFFF AND SWAP1 POP SWAP1 JUMP JUMPDEST PUSH1 0x5 SLOAD DUP2 JUMP JUMPDEST PUSH1 0x8 PUSH1 0x0 CALLER PUSH20 0xFFFFFFFFFFFFFFFFFFFFFFFFFFFFFFFFFFFFFFFF AND PUSH20 0xFFFFFFFFFFFFFFFFFFFFFFFFFFFFFFFFFFFFFFFF AND DUP2 MSTORE PUSH1 0x20 ADD SWAP1 DUP2 MSTORE PUSH1 0x20 ADD PUSH1 0x0 KECCAK256 PUSH1 0x0 DUP3 DUP2 MSTORE PUSH1 0x20 ADD SWAP1 DUP2 MSTORE PUSH1 0x20 ADD PUSH1 0x0 KECCAK256 PUSH1 0x0 SWAP1 SLOAD SWAP1 PUSH2 0x100 EXP SWAP1 DIV PUSH1 0xFF AND PUSH2 0x738 JUMPI PUSH1 0x40 MLOAD PUSH32 0x8C379A000000000000000000000000000000000000000000000000000000000 DUP2 MSTORE PUSH1 0x4 ADD PUSH2 0x72F SWAP1 PUSH2 0x10FB JUMP JUMPDEST PUSH1 0x40 MLOAD DUP1 SWAP2 SUB SWAP1 REVERT JUMPDEST PUSH1 0x0 PUSH1 0x7 PUSH1 0x0 DUP4 DUP2 MSTORE PUSH1 0x20 ADD SWAP1 DUP2 MSTORE PUSH1 0x20 ADD PUSH1 0x0 KECCAK256 SWAP1 POP PUSH1 0x1 DUP2 PUSH1 0x1 ADD SLOAD PUSH2 0x760 SWAP2 SWAP1 PUSH2 0x124C JUMP JUMPDEST DUP2 PUSH1 0x1 ADD DUP2 SWAP1 SSTORE POP PUSH1 0x0 PUSH1 0x8 PUSH1 0x0 CALLER PUSH20 0xFFFFFFFFFFFFFFFFFFFFFFFFFFFFFFFFFFFFFFFF AND PUSH20 0xFFFFFFFFFFFFFFFFFFFFFFFFFFFFFFFFFFFFFFFF AND DUP2 MSTORE PUSH1 0x20 ADD SWAP1 DUP2 MSTORE PUSH1 0x20 ADD PUSH1 0x0 KECCAK256 PUSH1 0x0 DUP5 DUP2 MSTORE PUSH1 0x20 ADD SWAP1 DUP2 MSTORE PUSH1 0x20 ADD PUSH1 0x0 KECCAK256 PUSH1 0x0 PUSH2 0x100 EXP DUP2 SLOAD DUP2 PUSH1 0xFF MUL NOT AND SWAP1 DUP4 ISZERO ISZERO MUL OR SWAP1 SSTORE POP POP POP JUMP JUMPDEST PUSH2 0x7DD PUSH2 0xA47 JUMP JUMPDEST PUSH1 0x0 PUSH20 0xFFFFFFFFFFFFFFFFFFFFFFFFFFFFFFFFFFFFFFFF AND DUP2 PUSH20 0xFFFFFFFFFFFFFFFFFFFFFFFFFFFFFFFFFFFFFFFF AND EQ ISZERO PUSH2 0x84D JUMPI PUSH1 0x40 MLOAD PUSH32 0x8C379A000000000000000000000000000000000000000000000000000000000 DUP2 MSTORE PUSH1 0x4 ADD PUSH2 0x844 SWAP1 PUSH2 0x10DB JUMP JUMPDEST PUSH1 0x40 MLOAD DUP1 SWAP2 SUB SWAP1 REVERT JUMPDEST PUSH2 0x856 DUP2 PUSH2 0xAC5 JUMP JUMPDEST POP JUMP JUMPDEST PUSH1 0x60 PUSH1 0x0 DUP1 PUSH1 0x1 SWAP1 POP JUMPDEST PUSH1 0x5 SLOAD DUP2 GT PUSH2 0x914 JUMPI PUSH1 0x8 PUSH1 0x0 CALLER PUSH20 0xFFFFFFFFFFFFFFFFFFFFFFFFFFFFFFFFFFFFFFFF AND PUSH20 0xFFFFFFFFFFFFFFFFFFFFFFFFFFFFFFFFFFFFFFFF AND DUP2 MSTORE PUSH1 0x20 ADD SWAP1 DUP2 MSTORE PUSH1 0x20 ADD PUSH1 0x0 KECCAK256 PUSH1 0x0 DUP3 DUP2 MSTORE PUSH1 0x20 ADD SWAP1 DUP2 MSTORE PUSH1 0x20 ADD PUSH1 0x0 KECCAK256 PUSH1 0x0 SWAP1 SLOAD SWAP1 PUSH2 0x100 EXP SWAP1 DIV PUSH1 0xFF AND ISZERO DUP1 ISZERO PUSH2 0x8ED JUMPI POP PUSH1 0x0 PUSH1 0x7 PUSH1 0x0 DUP4 DUP2 MSTORE PUSH1 0x20 ADD SWAP1 DUP2 MSTORE PUSH1 0x20 ADD PUSH1 0x0 KECCAK256 PUSH1 0x1 ADD SLOAD GT JUMPDEST ISZERO PUSH2 0x901 JUMPI DUP2 DUP1 PUSH2 0x8FD SWAP1 PUSH2 0x13B7 JUMP JUMPDEST SWAP3 POP POP JUMPDEST DUP1 DUP1 PUSH2 0x90C SWAP1 PUSH2 0x13B7 JUMP JUMPDEST SWAP2 POP POP PUSH2 0x863 JUMP JUMPDEST POP PUSH1 0x0 DUP2 PUSH8 0xFFFFFFFFFFFFFFFF DUP2 GT ISZERO PUSH2 0x931 JUMPI PUSH2 0x930 PUSH2 0x148D JUMP JUMPDEST JUMPDEST PUSH1 0x40 MLOAD SWAP1 DUP1 DUP3 MSTORE DUP1 PUSH1 0x20 MUL PUSH1 0x20 ADD DUP3 ADD PUSH1 0x40 MSTORE DUP1 ISZERO PUSH2 0x95F JUMPI DUP2 PUSH1 0x20 ADD PUSH1 0x20 DUP3 MUL DUP1 CALLDATASIZE DUP4 CALLDATACOPY DUP1 DUP3 ADD SWAP2 POP POP SWAP1 POP JUMPDEST POP SWAP1 POP PUSH1 0x0 SWAP2 POP PUSH1 0x0 PUSH1 0x1 SWAP1 POP JUMPDEST PUSH1 0x5 SLOAD DUP2 GT PUSH2 0xA3E JUMPI PUSH1 0x8 PUSH1 0x0 CALLER PUSH20 0xFFFFFFFFFFFFFFFFFFFFFFFFFFFFFFFFFFFFFFFF AND PUSH20 0xFFFFFFFFFFFFFFFFFFFFFFFFFFFFFFFFFFFFFFFF AND DUP2 MSTORE PUSH1 0x20 ADD SWAP1 DUP2 MSTORE PUSH1 0x20 ADD PUSH1 0x0 KECCAK256 PUSH1 0x0 DUP3 DUP2 MSTORE PUSH1 0x20 ADD SWAP1 DUP2 MSTORE PUSH1 0x20 ADD PUSH1 0x0 KECCAK256 PUSH1 0x0 SWAP1 SLOAD SWAP1 PUSH2 0x100 EXP SWAP1 DIV PUSH1 0xFF AND ISZERO DUP1 ISZERO PUSH2 0x9F7 JUMPI POP PUSH1 0x0 PUSH1 0x7 PUSH1 0x0 DUP4 DUP2 MSTORE PUSH1 0x20 ADD SWAP1 DUP2 MSTORE PUSH1 0x20 ADD PUSH1 0x0 KECCAK256 PUSH1 0x1 ADD SLOAD GT JUMPDEST ISZERO PUSH2 0xA2B JUMPI DUP1 DUP3 DUP5 DUP2 MLOAD DUP2 LT PUSH2 0xA10 JUMPI PUSH2 0xA0F PUSH2 0x145E JUMP JUMPDEST JUMPDEST PUSH1 0x20 MUL PUSH1 0x20 ADD ADD DUP2 DUP2 MSTORE POP POP DUP3 DUP1 PUSH2 0xA27 SWAP1 PUSH2 0x13B7 JUMP JUMPDEST SWAP4 POP POP JUMPDEST DUP1 DUP1 PUSH2 0xA36 SWAP1 PUSH2 0x13B7 JUMP JUMPDEST SWAP2 POP POP PUSH2 0x96D JUMP JUMPDEST POP DUP1 SWAP3 POP POP POP SWAP1 JUMP JUMPDEST PUSH2 0xA4F PUSH2 0xB89 JUMP JUMPDEST PUSH20 0xFFFFFFFFFFFFFFFFFFFFFFFFFFFFFFFFFFFFFFFF AND PUSH2 0xA6D PUSH2 0x66C JUMP JUMPDEST PUSH20 0xFFFFFFFFFFFFFFFFFFFFFFFFFFFFFFFFFFFFFFFF AND EQ PUSH2 0xAC3 JUMPI PUSH1 0x40 MLOAD PUSH32 0x8C379A000000000000000000000000000000000000000000000000000000000 DUP2 MSTORE PUSH1 0x4 ADD PUSH2 0xABA SWAP1 PUSH2 0x111B JUMP JUMPDEST PUSH1 0x40 MLOAD DUP1 SWAP2 SUB SWAP1 REVERT JUMPDEST JUMP JUMPDEST PUSH1 0x0 DUP1 PUSH1 0x0 SWAP1 SLOAD SWAP1 PUSH2 0x100 EXP SWAP1 DIV PUSH20 0xFFFFFFFFFFFFFFFFFFFFFFFFFFFFFFFFFFFFFFFF AND SWAP1 POP DUP2 PUSH1 0x0 DUP1 PUSH2 0x100 EXP DUP2 SLOAD DUP2 PUSH20 0xFFFFFFFFFFFFFFFFFFFFFFFFFFFFFFFFFFFFFFFF MUL NOT AND SWAP1 DUP4 PUSH20 0xFFFFFFFFFFFFFFFFFFFFFFFFFFFFFFFFFFFFFFFF AND MUL OR SWAP1 SSTORE POP DUP2 PUSH20 0xFFFFFFFFFFFFFFFFFFFFFFFFFFFFFFFFFFFFFFFF AND DUP2 PUSH20 0xFFFFFFFFFFFFFFFFFFFFFFFFFFFFFFFFFFFFFFFF AND PUSH32 0x8BE0079C531659141344CD1FD0A4F28419497F9722A3DAAFE3B4186F6B6457E0 PUSH1 0x40 MLOAD PUSH1 0x40 MLOAD DUP1 SWAP2 SUB SWAP1 LOG3 POP POP JUMP JUMPDEST PUSH1 0x0 CALLER SWAP1 POP SWAP1 JUMP JUMPDEST DUP3 DUP1 SLOAD PUSH2 0xB9D SWAP1 PUSH2 0x1354 JUMP JUMPDEST SWAP1 PUSH1 0x0 MSTORE PUSH1 0x20 PUSH1 0x0 KECCAK256 SWAP1 PUSH1 0x1F ADD PUSH1 0x20 SWAP1 DIV DUP2 ADD SWAP3 DUP3 PUSH2 0xBBF JUMPI PUSH1 0x0 DUP6 SSTORE PUSH2 0xC06 JUMP JUMPDEST DUP3 PUSH1 0x1F LT PUSH2 0xBD8 JUMPI DUP1 MLOAD PUSH1 0xFF NOT AND DUP4 DUP1 ADD OR DUP6 SSTORE PUSH2 0xC06 JUMP JUMPDEST DUP3 DUP1 ADD PUSH1 0x1 ADD DUP6 SSTORE DUP3 ISZERO PUSH2 0xC06 JUMPI SWAP2 DUP3 ADD JUMPDEST DUP3 DUP2 GT ISZERO PUSH2 0xC05 JUMPI DUP3 MLOAD DUP3 SSTORE SWAP2 PUSH1 0x20 ADD SWAP2 SWAP1 PUSH1 0x1 ADD SWAP1 PUSH2 0xBEA JUMP JUMPDEST JUMPDEST POP SWAP1 POP PUSH2 0xC13 SWAP2 SWAP1 PUSH2 0xC17 JUMP JUMPDEST POP SWAP1 JUMP JUMPDEST JUMPDEST DUP1 DUP3 GT ISZERO PUSH2 0xC30 JUMPI PUSH1 0x0 DUP2 PUSH1 0x0 SWAP1 SSTORE POP PUSH1 0x1 ADD PUSH2 0xC18 JUMP JUMPDEST POP SWAP1 JUMP JUMPDEST PUSH1 0x0 PUSH2 0xC47 PUSH2 0xC42 DUP5 PUSH2 0x11BB JUMP JUMPDEST PUSH2 0x1196 JUMP JUMPDEST SWAP1 POP DUP3 DUP2 MSTORE PUSH1 0x20 DUP2 ADD DUP5 DUP5 DUP5 ADD GT ISZERO PUSH2 0xC63 JUMPI PUSH2 0xC62 PUSH2 0x14C1 JUMP JUMPDEST JUMPDEST PUSH2 0xC6E DUP5 DUP3 DUP6 PUSH2 0x1312 JUMP JUMPDEST POP SWAP4 SWAP3 POP POP POP JUMP JUMPDEST PUSH1 0x0 DUP2 CALLDATALOAD SWAP1 POP PUSH2 0xC85 DUP2 PUSH2 0x164F JUMP JUMPDEST SWAP3 SWAP2 POP POP JUMP JUMPDEST PUSH1 0x0 DUP3 PUSH1 0x1F DUP4 ADD SLT PUSH2 0xCA0 JUMPI PUSH2 0xC9F PUSH2 0x14BC JUMP JUMPDEST JUMPDEST DUP2 CALLDATALOAD PUSH2 0xCB0 DUP5 DUP3 PUSH1 0x20 DUP7 ADD PUSH2 0xC34 JUMP JUMPDEST SWAP2 POP POP SWAP3 SWAP2 POP POP JUMP JUMPDEST PUSH1 0x0 DUP2 CALLDATALOAD SWAP1 POP PUSH2 0xCC8 DUP2 PUSH2 0x1666 JUMP JUMPDEST SWAP3 SWAP2 POP POP JUMP JUMPDEST PUSH1 0x0 PUSH1 0x20 DUP3 DUP5 SUB SLT ISZERO PUSH2 0xCE4 JUMPI PUSH2 0xCE3 PUSH2 0x14CB JUMP JUMPDEST JUMPDEST PUSH1 0x0 PUSH2 0xCF2 DUP5 DUP3 DUP6 ADD PUSH2 0xC76 JUMP JUMPDEST SWAP2 POP POP SWAP3 SWAP2 POP POP JUMP JUMPDEST PUSH1 0x0 DUP1 PUSH1 0x40 DUP4 DUP6 SUB SLT ISZERO PUSH2 0xD12 JUMPI PUSH2 0xD11 PUSH2 0x14CB JUMP JUMPDEST JUMPDEST PUSH1 0x0 DUP4 ADD CALLDATALOAD PUSH8 0xFFFFFFFFFFFFFFFF DUP2 GT ISZERO PUSH2 0xD30 JUMPI PUSH2 0xD2F PUSH2 0x14C6 JUMP JUMPDEST JUMPDEST PUSH2 0xD3C DUP6 DUP3 DUP7 ADD PUSH2 0xC8B JUMP JUMPDEST SWAP3 POP POP PUSH1 0x20 PUSH2 0xD4D DUP6 DUP3 DUP7 ADD PUSH2 0xCB9 JUMP JUMPDEST SWAP2 POP POP SWAP3 POP SWAP3 SWAP1 POP JUMP JUMPDEST PUSH1 0x0 PUSH1 0x20 DUP3 DUP5 SUB SLT ISZERO PUSH2 0xD6D JUMPI PUSH2 0xD6C PUSH2 0x14CB JUMP JUMPDEST JUMPDEST PUSH1 0x0 PUSH2 0xD7B DUP5 DUP3 DUP6 ADD PUSH2 0xCB9 JUMP JUMPDEST SWAP2 POP POP SWAP3 SWAP2 POP POP JUMP JUMPDEST PUSH1 0x0 DUP1 PUSH1 0x40 DUP4 DUP6 SUB SLT ISZERO PUSH2 0xD9B JUMPI PUSH2 0xD9A PUSH2 0x14CB JUMP JUMPDEST JUMPDEST PUSH1 0x0 PUSH2 0xDA9 DUP6 DUP3 DUP7 ADD PUSH2 0xCB9 JUMP JUMPDEST SWAP3 POP POP PUSH1 0x20 PUSH2 0xDBA DUP6 DUP3 DUP7 ADD PUSH2 0xCB9 JUMP JUMPDEST SWAP2 POP POP SWAP3 POP SWAP3 SWAP1 POP JUMP JUMPDEST PUSH1 0x0 PUSH2 0xDD0 DUP4 DUP4 PUSH2 0xFCB JUMP JUMPDEST PUSH1 0x20 DUP4 ADD SWAP1 POP SWAP3 SWAP2 POP POP JUMP JUMPDEST PUSH2 0xDE5 DUP2 PUSH2 0x12D6 JUMP JUMPDEST DUP3 MSTORE POP POP JUMP JUMPDEST PUSH1 0x0 PUSH2 0xDF6 DUP3 PUSH2 0x11FC JUMP JUMPDEST PUSH2 0xE00 DUP2 DUP6 PUSH2 0x121F JUMP JUMPDEST SWAP4 POP PUSH2 0xE0B DUP4 PUSH2 0x11EC JUMP JUMPDEST DUP1 PUSH1 0x0 JUMPDEST DUP4 DUP2 LT ISZERO PUSH2 0xE3C JUMPI DUP2 MLOAD PUSH2 0xE23 DUP9 DUP3 PUSH2 0xDC4 JUMP JUMPDEST SWAP8 POP PUSH2 0xE2E DUP4 PUSH2 0x1212 JUMP JUMPDEST SWAP3 POP POP PUSH1 0x1 DUP2 ADD SWAP1 POP PUSH2 0xE0F JUMP JUMPDEST POP DUP6 SWAP4 POP POP POP POP SWAP3 SWAP2 POP POP JUMP JUMPDEST PUSH1 0x0 PUSH2 0xE54 DUP3 PUSH2 0x1207 JUMP JUMPDEST PUSH2 0xE5E DUP2 DUP6 PUSH2 0x1230 JUMP JUMPDEST SWAP4 POP PUSH2 0xE6E DUP2 DUP6 PUSH1 0x20 DUP7 ADD PUSH2 0x1321 JUMP JUMPDEST PUSH2 0xE77 DUP2 PUSH2 0x14D0 JUMP JUMPDEST DUP5 ADD SWAP2 POP POP SWAP3 SWAP2 POP POP JUMP JUMPDEST PUSH1 0x0 PUSH2 0xE8D DUP3 PUSH2 0x1207 JUMP JUMPDEST PUSH2 0xE97 DUP2 DUP6 PUSH2 0x1241 JUMP JUMPDEST SWAP4 POP PUSH2 0xEA7 DUP2 DUP6 PUSH1 0x20 DUP7 ADD PUSH2 0x1321 JUMP JUMPDEST DUP1 DUP5 ADD SWAP2 POP POP SWAP3 SWAP2 POP POP JUMP JUMPDEST PUSH1 0x0 PUSH2 0xEC0 PUSH1 0x14 DUP4 PUSH2 0x1230 JUMP JUMPDEST SWAP2 POP PUSH2 0xECB DUP3 PUSH2 0x14E1 JUMP JUMPDEST PUSH1 0x20 DUP3 ADD SWAP1 POP SWAP2 SWAP1 POP JUMP JUMPDEST PUSH1 0x0 PUSH2 0xEE3 PUSH1 0x11 DUP4 PUSH2 0x1230 JUMP JUMPDEST SWAP2 POP PUSH2 0xEEE DUP3 PUSH2 0x150A JUMP JUMPDEST PUSH1 0x20 DUP3 ADD SWAP1 POP SWAP2 SWAP1 POP JUMP JUMPDEST PUSH1 0x0 PUSH2 0xF06 PUSH1 0x16 DUP4 PUSH2 0x1230 JUMP JUMPDEST SWAP2 POP PUSH2 0xF11 DUP3 PUSH2 0x1533 JUMP JUMPDEST PUSH1 0x20 DUP3 ADD SWAP1 POP SWAP2 SWAP1 POP JUMP JUMPDEST PUSH1 0x0 PUSH2 0xF29 PUSH1 0x26 DUP4 PUSH2 0x1230 JUMP JUMPDEST SWAP2 POP PUSH2 0xF34 DUP3 PUSH2 0x155C JUMP JUMPDEST PUSH1 0x40 DUP3 ADD SWAP1 POP SWAP2 SWAP1 POP JUMP JUMPDEST PUSH1 0x0 PUSH2 0xF4C PUSH1 0x12 DUP4 PUSH2 0x1230 JUMP JUMPDEST SWAP2 POP PUSH2 0xF57 DUP3 PUSH2 0x15AB JUMP JUMPDEST PUSH1 0x20 DUP3 ADD SWAP1 POP SWAP2 SWAP1 POP JUMP JUMPDEST PUSH1 0x0 PUSH2 0xF6F PUSH1 0x20 DUP4 PUSH2 0x1230 JUMP JUMPDEST SWAP2 POP PUSH2 0xF7A DUP3 PUSH2 0x15D4 JUMP JUMPDEST PUSH1 0x20 DUP3 ADD SWAP1 POP SWAP2 SWAP1 POP JUMP JUMPDEST PUSH1 0x0 PUSH2 0xF92 PUSH1 0x5 DUP4 PUSH2 0x1230 JUMP JUMPDEST SWAP2 POP PUSH2 0xF9D DUP3 PUSH2 0x15FD JUMP JUMPDEST PUSH1 0x20 DUP3 ADD SWAP1 POP SWAP2 SWAP1 POP JUMP JUMPDEST PUSH1 0x0 PUSH2 0xFB5 PUSH1 0x13 DUP4 PUSH2 0x1230 JUMP JUMPDEST SWAP2 POP PUSH2 0xFC0 DUP3 PUSH2 0x1626 JUMP JUMPDEST PUSH1 0x20 DUP3 ADD SWAP1 POP SWAP2 SWAP1 POP JUMP JUMPDEST PUSH2 0xFD4 DUP2 PUSH2 0x1308 JUMP JUMPDEST DUP3 MSTORE POP POP JUMP JUMPDEST PUSH2 0xFE3 DUP2 PUSH2 0x1308 JUMP JUMPDEST DUP3 MSTORE POP POP JUMP JUMPDEST PUSH1 0x0 PUSH2 0xFF5 DUP3 DUP5 PUSH2 0xE82 JUMP JUMPDEST SWAP2 POP DUP2 SWAP1 POP SWAP3 SWAP2 POP POP JUMP JUMPDEST PUSH1 0x0 PUSH1 0x20 DUP3 ADD SWAP1 POP PUSH2 0x1015 PUSH1 0x0 DUP4 ADD DUP5 PUSH2 0xDDC JUMP JUMPDEST SWAP3 SWAP2 POP POP JUMP JUMPDEST PUSH1 0x0 PUSH1 0x20 DUP3 ADD SWAP1 POP DUP2 DUP2 SUB PUSH1 0x0 DUP4 ADD MSTORE PUSH2 0x1035 DUP2 DUP5 PUSH2 0xDEB JUMP JUMPDEST SWAP1 POP SWAP3 SWAP2 POP POP JUMP JUMPDEST PUSH1 0x0 PUSH1 0x60 DUP3 ADD SWAP1 POP DUP2 DUP2 SUB PUSH1 0x0 DUP4 ADD MSTORE PUSH2 0x1057 DUP2 DUP7 PUSH2 0xE49 JUMP JUMPDEST SWAP1 POP PUSH2 0x1066 PUSH1 0x20 DUP4 ADD DUP6 PUSH2 0xFDA JUMP JUMPDEST PUSH2 0x1073 PUSH1 0x40 DUP4 ADD DUP5 PUSH2 0xFDA JUMP JUMPDEST SWAP5 SWAP4 POP POP POP POP JUMP JUMPDEST PUSH1 0x0 PUSH1 0x20 DUP3 ADD SWAP1 POP DUP2 DUP2 SUB PUSH1 0x0 DUP4 ADD MSTORE PUSH2 0x1094 DUP2 PUSH2 0xEB3 JUMP JUMPDEST SWAP1 POP SWAP2 SWAP1 POP JUMP JUMPDEST PUSH1 0x0 PUSH1 0x20 DUP3 ADD SWAP1 POP DUP2 DUP2 SUB PUSH1 0x0 DUP4 ADD MSTORE PUSH2 0x10B4 DUP2 PUSH2 0xED6 JUMP JUMPDEST SWAP1 POP SWAP2 SWAP1 POP JUMP JUMPDEST PUSH1 0x0 PUSH1 0x20 DUP3 ADD SWAP1 POP DUP2 DUP2 SUB PUSH1 0x0 DUP4 ADD MSTORE PUSH2 0x10D4 DUP2 PUSH2 0xEF9 JUMP JUMPDEST SWAP1 POP SWAP2 SWAP1 POP JUMP JUMPDEST PUSH1 0x0 PUSH1 0x20 DUP3 ADD SWAP1 POP DUP2 DUP2 SUB PUSH1 0x0 DUP4 ADD MSTORE PUSH2 0x10F4 DUP2 PUSH2 0xF1C JUMP JUMPDEST SWAP1 POP SWAP2 SWAP1 POP JUMP JUMPDEST PUSH1 0x0 PUSH1 0x20 DUP3 ADD SWAP1 POP DUP2 DUP2 SUB PUSH1 0x0 DUP4 ADD MSTORE PUSH2 0x1114 DUP2 PUSH2 0xF3F JUMP JUMPDEST SWAP1 POP SWAP2 SWAP1 POP JUMP JUMPDEST PUSH1 0x0 PUSH1 0x20 DUP3 ADD SWAP1 POP DUP2 DUP2 SUB PUSH1 0x0 DUP4 ADD MSTORE PUSH2 0x1134 DUP2 PUSH2 0xF62 JUMP JUMPDEST SWAP1 POP SWAP2 SWAP1 POP JUMP JUMPDEST PUSH1 0x0 PUSH1 0x20 DUP3 ADD SWAP1 POP DUP2 DUP2 SUB PUSH1 0x0 DUP4 ADD MSTORE PUSH2 0x1154 DUP2 PUSH2 0xF85 JUMP JUMPDEST SWAP1 POP SWAP2 SWAP1 POP JUMP JUMPDEST PUSH1 0x0 PUSH1 0x20 DUP3 ADD SWAP1 POP DUP2 DUP2 SUB PUSH1 0x0 DUP4 ADD MSTORE PUSH2 0x1174 DUP2 PUSH2 0xFA8 JUMP JUMPDEST SWAP1 POP SWAP2 SWAP1 POP JUMP JUMPDEST PUSH1 0x0 PUSH1 0x20 DUP3 ADD SWAP1 POP PUSH2 0x1190 PUSH1 0x0 DUP4 ADD DUP5 PUSH2 0xFDA JUMP JUMPDEST SWAP3 SWAP2 POP POP JUMP JUMPDEST PUSH1 0x0 PUSH2 0x11A0 PUSH2 0x11B1 JUMP JUMPDEST SWAP1 POP PUSH2 0x11AC DUP3 DUP3 PUSH2 0x1386 JUMP JUMPDEST SWAP2 SWAP1 POP JUMP JUMPDEST PUSH1 0x0 PUSH1 0x40 MLOAD SWAP1 POP SWAP1 JUMP JUMPDEST PUSH1 0x0 PUSH8 0xFFFFFFFFFFFFFFFF DUP3 GT ISZERO PUSH2 0x11D6 JUMPI PUSH2 0x11D5 PUSH2 0x148D JUMP JUMPDEST JUMPDEST PUSH2 0x11DF DUP3 PUSH2 0x14D0 JUMP JUMPDEST SWAP1 POP PUSH1 0x20 DUP2 ADD SWAP1 POP SWAP2 SWAP1 POP JUMP JUMPDEST PUSH1 0x0 DUP2 SWAP1 POP PUSH1 0x20 DUP3 ADD SWAP1 POP SWAP2 SWAP1 POP JUMP JUMPDEST PUSH1 0x0 DUP2 MLOAD SWAP1 POP SWAP2 SWAP1 POP JUMP JUMPDEST PUSH1 0x0 DUP2 MLOAD SWAP1 POP SWAP2 SWAP1 POP JUMP JUMPDEST PUSH1 0x0 PUSH1 0x20 DUP3 ADD SWAP1 POP SWAP2 SWAP1 POP JUMP JUMPDEST PUSH1 0x0 DUP3 DUP3 MSTORE PUSH1 0x20 DUP3 ADD SWAP1 POP SWAP3 SWAP2 POP POP JUMP JUMPDEST PUSH1 0x0 DUP3 DUP3 MSTORE PUSH1 0x20 DUP3 ADD SWAP1 POP SWAP3 SWAP2 POP POP JUMP JUMPDEST PUSH1 0x0 DUP2 SWAP1 POP SWAP3 SWAP2 POP POP JUMP JUMPDEST PUSH1 0x0 PUSH2 0x1257 DUP3 PUSH2 0x1308 JUMP JUMPDEST SWAP2 POP PUSH2 0x1262 DUP4 PUSH2 0x1308 JUMP JUMPDEST SWAP3 POP DUP3 PUSH32 0xFFFFFFFFFFFFFFFFFFFFFFFFFFFFFFFFFFFFFFFFFFFFFFFFFFFFFFFFFFFFFFFF SUB DUP3 GT ISZERO PUSH2 0x1297 JUMPI PUSH2 0x1296 PUSH2 0x1400 JUMP JUMPDEST JUMPDEST DUP3 DUP3 ADD SWAP1 POP SWAP3 SWAP2 POP POP JUMP JUMPDEST PUSH1 0x0 PUSH2 0x12AD DUP3 PUSH2 0x1308 JUMP JUMPDEST SWAP2 POP PUSH2 0x12B8 DUP4 PUSH2 0x1308 JUMP JUMPDEST SWAP3 POP DUP3 DUP3 LT ISZERO PUSH2 0x12CB JUMPI PUSH2 0x12CA PUSH2 0x1400 JUMP JUMPDEST JUMPDEST DUP3 DUP3 SUB SWAP1 POP SWAP3 SWAP2 POP POP JUMP JUMPDEST PUSH1 0x0 PUSH2 0x12E1 DUP3 PUSH2 0x12E8 JUMP JUMPDEST SWAP1 POP SWAP2 SWAP1 POP JUMP JUMPDEST PUSH1 0x0 PUSH20 0xFFFFFFFFFFFFFFFFFFFFFFFFFFFFFFFFFFFFFFFF DUP3 AND SWAP1 POP SWAP2 SWAP1 POP JUMP JUMPDEST PUSH1 0x0 DUP2 SWAP1 POP SWAP2 SWAP1 POP JUMP JUMPDEST DUP3 DUP2 DUP4 CALLDATACOPY PUSH1 0x0 DUP4 DUP4 ADD MSTORE POP POP POP JUMP JUMPDEST PUSH1 0x0 JUMPDEST DUP4 DUP2 LT ISZERO PUSH2 0x133F JUMPI DUP1 DUP3 ADD MLOAD DUP2 DUP5 ADD MSTORE PUSH1 0x20 DUP2 ADD SWAP1 POP PUSH2 0x1324 JUMP JUMPDEST DUP4 DUP2 GT ISZERO PUSH2 0x134E JUMPI PUSH1 0x0 DUP5 DUP5 ADD MSTORE JUMPDEST POP POP POP POP JUMP JUMPDEST PUSH1 0x0 PUSH1 0x2 DUP3 DIV SWAP1 POP PUSH1 0x1 DUP3 AND DUP1 PUSH2 0x136C JUMPI PUSH1 0x7F DUP3 AND SWAP2 POP JUMPDEST PUSH1 0x20 DUP3 LT DUP2 EQ ISZERO PUSH2 0x1380 JUMPI PUSH2 0x137F PUSH2 0x142F JUMP JUMPDEST JUMPDEST POP SWAP2 SWAP1 POP JUMP JUMPDEST PUSH2 0x138F DUP3 PUSH2 0x14D0 JUMP JUMPDEST DUP2 ADD DUP2 DUP2 LT PUSH8 0xFFFFFFFFFFFFFFFF DUP3 GT OR ISZERO PUSH2 0x13AE JUMPI PUSH2 0x13AD PUSH2 0x148D JUMP JUMPDEST JUMPDEST DUP1 PUSH1 0x40 MSTORE POP POP POP JUMP JUMPDEST PUSH1 0x0 PUSH2 0x13C2 DUP3 PUSH2 0x1308 JUMP JUMPDEST SWAP2 POP PUSH32 0xFFFFFFFFFFFFFFFFFFFFFFFFFFFFFFFFFFFFFFFFFFFFFFFFFFFFFFFFFFFFFFFF DUP3 EQ ISZERO PUSH2 0x13F5 JUMPI PUSH2 0x13F4 PUSH2 0x1400 JUMP JUMPDEST JUMPDEST PUSH1 0x1 DUP3 ADD SWAP1 POP SWAP2 SWAP1 POP JUMP JUMPDEST PUSH32 0x4E487B7100000000000000000000000000000000000000000000000000000000 PUSH1 0x0 MSTORE PUSH1 0x11 PUSH1 0x4 MSTORE PUSH1 0x24 PUSH1 0x0 REVERT JUMPDEST PUSH32 0x4E487B7100000000000000000000000000000000000000000000000000000000 PUSH1 0x0 MSTORE PUSH1 0x22 PUSH1 0x4 MSTORE PUSH1 0x24 PUSH1 0x0 REVERT JUMPDEST PUSH32 0x4E487B7100000000000000000000000000000000000000000000000000000000 PUSH1 0x0 MSTORE PUSH1 0x32 PUSH1 0x4 MSTORE PUSH1 0x24 PUSH1 0x0 REVERT JUMPDEST PUSH32 0x4E487B7100000000000000000000000000000000000000000000000000000000 PUSH1 0x0 MSTORE PUSH1 0x41 PUSH1 0x4 MSTORE PUSH1 0x24 PUSH1 0x0 REVERT JUMPDEST PUSH1 0x0 DUP1 REVERT JUMPDEST PUSH1 0x0 DUP1 REVERT JUMPDEST PUSH1 0x0 DUP1 REVERT JUMPDEST PUSH1 0x0 DUP1 REVERT JUMPDEST PUSH1 0x0 PUSH1 0x1F NOT PUSH1 0x1F DUP4 ADD AND SWAP1 POP SWAP2 SWAP1 POP JUMP JUMPDEST PUSH32 0x4E616D652063616E6E6F7420626520656D707479000000000000000000000000 PUSH1 0x0 DUP3 ADD MSTORE POP JUMP JUMPDEST PUSH32 0x426F6F6B20697320617661696C61626C65000000000000000000000000000000 PUSH1 0x0 DUP3 ADD MSTORE POP JUMP JUMPDEST PUSH32 0x426F6F6B20697320616C72656164792069737375656400000000000000000000 PUSH1 0x0 DUP3 ADD MSTORE POP JUMP JUMPDEST PUSH32 0x4F776E61626C653A206E6577206F776E657220697320746865207A65726F2061 PUSH1 0x0 DUP3 ADD MSTORE PUSH32 0x6464726573730000000000000000000000000000000000000000000000000000 PUSH1 0x20 DUP3 ADD MSTORE POP JUMP JUMPDEST PUSH32 0x426F6F6B206973206E6F74206973737565640000000000000000000000000000 PUSH1 0x0 DUP3 ADD MSTORE POP JUMP JUMPDEST PUSH32 0x4F776E61626C653A2063616C6C6572206973206E6F7420746865206F776E6572 PUSH1 0x0 DUP3 ADD MSTORE POP JUMP JUMPDEST PUSH32 0x217A65726F000000000000000000000000000000000000000000000000000000 PUSH1 0x0 DUP3 ADD MSTORE POP JUMP JUMPDEST PUSH32 0x426F6F6B20646F6573206E6F7420657869737400000000000000000000000000 PUSH1 0x0 DUP3 ADD MSTORE POP JUMP JUMPDEST PUSH2 0x1658 DUP2 PUSH2 0x12D6 JUMP JUMPDEST DUP2 EQ PUSH2 0x1663 JUMPI PUSH1 0x0 DUP1 REVERT JUMPDEST POP JUMP JUMPDEST PUSH2 0x166F DUP2 PUSH2 0x1308 JUMP JUMPDEST DUP2 EQ PUSH2 0x167A JUMPI PUSH1 0x0 DUP1 REVERT JUMPDEST POP JUMP INVALID LOG2 PUSH5 0x6970667358 0x22 SLT KECCAK256 0xCC PUSH6 0x3DB0D3B4CB0A DUP8 0xD1 0x2C ORIGIN 0x4D SWAP14 BYTE 0xBF CALLDATASIZE 0xE3 PUSH29 0x18C2C4381D4BB13C3BC794262D64736F6C634300080700330000000000 "
				},
				"gasEstimates": {
					"creation": {
						"codeDepositCost": "1162200",
						"executionCost": "infinite",
						"totalCost": "infinite"
					},
					"external": {
						"BookLedger(uint256)": "infinite",
						"addBook(string,uint256)": "infinite",
						"addBookCopies(uint256,uint256)": "infinite",
						"bookCount()": "2451",
						"borrowBook(uint256)": "infinite",
						"getAllAvailableBooks()": "infinite",
						"owner()": "2522",
						"renounceOwnership()": "30443",
						"returnBook(uint256)": "infinite",
						"transferOwnership(address)": "30813"
					}
				},
				"methodIdentifiers": {
					"BookLedger(uint256)": "7975c6b4",
					"addBook(string,uint256)": "637a3872",
					"addBookCopies(uint256,uint256)": "60f9eefc",
					"bookCount()": "b905ad78",
					"borrowBook(uint256)": "7e490a9e",
					"getAllAvailableBooks()": "f4cbc4a6",
					"owner()": "8da5cb5b",
					"renounceOwnership()": "715018a6",
					"returnBook(uint256)": "ca5140c9",
					"transferOwnership(address)": "f2fde38b"
				}
			},
			"storageLayout": {
				"storage": [
					{
						"astId": 7,
						"contract": "contracts/Library.sol:Library",
						"label": "_owner",
						"offset": 0,
						"slot": "0",
						"type": "t_address"
					},
					{
						"astId": 153,
						"contract": "contracts/Library.sol:Library",
						"label": "myBook",
						"offset": 0,
						"slot": "1",
						"type": "t_struct(Book)150_storage"
					},
					{
						"astId": 155,
						"contract": "contracts/Library.sol:Library",
						"label": "bookCount",
						"offset": 0,
						"slot": "5",
						"type": "t_uint256"
					},
					{
						"astId": 159,
						"contract": "contracts/Library.sol:Library",
						"label": "isAvailable",
						"offset": 0,
						"slot": "6",
						"type": "t_mapping(t_string_memory_ptr,t_bool)"
					},
					{
						"astId": 164,
						"contract": "contracts/Library.sol:Library",
						"label": "BookLedger",
						"offset": 0,
						"slot": "7",
						"type": "t_mapping(t_uint256,t_struct(Book)150_storage)"
					},
					{
						"astId": 170,
						"contract": "contracts/Library.sol:Library",
						"label": "isAlreadyIssued",
						"offset": 0,
						"slot": "8",
						"type": "t_mapping(t_address,t_mapping(t_uint256,t_bool))"
					}
				],
				"types": {
					"t_address": {
						"encoding": "inplace",
						"label": "address",
						"numberOfBytes": "20"
					},
					"t_bool": {
						"encoding": "inplace",
						"label": "bool",
						"numberOfBytes": "1"
					},
					"t_mapping(t_address,t_mapping(t_uint256,t_bool))": {
						"encoding": "mapping",
						"key": "t_address",
						"label": "mapping(address => mapping(uint256 => bool))",
						"numberOfBytes": "32",
						"value": "t_mapping(t_uint256,t_bool)"
					},
					"t_mapping(t_string_memory_ptr,t_bool)": {
						"encoding": "mapping",
						"key": "t_string_memory_ptr",
						"label": "mapping(string => bool)",
						"numberOfBytes": "32",
						"value": "t_bool"
					},
					"t_mapping(t_uint256,t_address)": {
						"encoding": "mapping",
						"key": "t_uint256",
						"label": "mapping(uint256 => address)",
						"numberOfBytes": "32",
						"value": "t_address"
					},
					"t_mapping(t_uint256,t_bool)": {
						"encoding": "mapping",
						"key": "t_uint256",
						"label": "mapping(uint256 => bool)",
						"numberOfBytes": "32",
						"value": "t_bool"
					},
					"t_mapping(t_uint256,t_struct(Book)150_storage)": {
						"encoding": "mapping",
						"key": "t_uint256",
						"label": "mapping(uint256 => struct Library.Book)",
						"numberOfBytes": "32",
						"value": "t_struct(Book)150_storage"
					},
					"t_string_memory_ptr": {
						"encoding": "bytes",
						"label": "string",
						"numberOfBytes": "32"
					},
					"t_string_storage": {
						"encoding": "bytes",
						"label": "string",
						"numberOfBytes": "32"
					},
					"t_struct(Book)150_storage": {
						"encoding": "inplace",
						"label": "struct Library.Book",
						"members": [
							{
								"astId": 141,
								"contract": "contracts/Library.sol:Library",
								"label": "name",
								"offset": 0,
								"slot": "0",
								"type": "t_string_storage"
							},
							{
								"astId": 143,
								"contract": "contracts/Library.sol:Library",
								"label": "copies",
								"offset": 0,
								"slot": "1",
								"type": "t_uint256"
							},
							{
								"astId": 145,
								"contract": "contracts/Library.sol:Library",
								"label": "ownerCount",
								"offset": 0,
								"slot": "2",
								"type": "t_uint256"
							},
							{
								"astId": 149,
								"contract": "contracts/Library.sol:Library",
								"label": "ownersHistory",
								"offset": 0,
								"slot": "3",
								"type": "t_mapping(t_uint256,t_address)"
							}
						],
						"numberOfBytes": "128"
					},
					"t_uint256": {
						"encoding": "inplace",
						"label": "uint256",
						"numberOfBytes": "32"
					}
				}
			},
			"userdoc": {
				"kind": "user",
				"methods": {},
				"version": 1
			}
		}
	}
}