{
	"contracts/Library.sol": {
		"Library": {
			"abi": [
				{
					"anonymous": false,
					"inputs": [
						{
							"indexed": true,
							"internalType": "address",
							"name": "previousOwner",
							"type": "address"
						},
						{
							"indexed": true,
							"internalType": "address",
							"name": "newOwner",
							"type": "address"
						}
					],
					"name": "OwnershipTransferred",
					"type": "event"
				},
				{
					"inputs": [
						{
							"internalType": "uint256",
							"name": "",
							"type": "uint256"
						}
					],
					"name": "BookLedger",
					"outputs": [
						{
							"internalType": "string",
							"name": "name",
							"type": "string"
						},
						{
							"internalType": "uint256",
							"name": "copies",
							"type": "uint256"
						},
						{
							"internalType": "uint256",
							"name": "ownerCount",
							"type": "uint256"
						}
					],
					"stateMutability": "view",
					"type": "function"
				},
				{
					"inputs": [
						{
							"internalType": "string",
							"name": "_name",
							"type": "string"
						},
						{
							"internalType": "uint256",
							"name": "_copies",
							"type": "uint256"
						}
					],
					"name": "addBook",
					"outputs": [],
					"stateMutability": "nonpayable",
					"type": "function"
				},
				{
					"inputs": [
						{
							"internalType": "uint256",
							"name": "_bookId",
							"type": "uint256"
						},
						{
							"internalType": "uint256",
							"name": "_copies",
							"type": "uint256"
						}
					],
					"name": "addBookCopies",
					"outputs": [],
					"stateMutability": "nonpayable",
					"type": "function"
				},
				{
					"inputs": [],
					"name": "bookCount",
					"outputs": [
						{
							"internalType": "uint256",
							"name": "",
							"type": "uint256"
						}
					],
					"stateMutability": "view",
					"type": "function"
				},
				{
					"inputs": [
						{
							"internalType": "uint256",
							"name": "_id",
							"type": "uint256"
						}
					],
					"name": "borrowBook",
					"outputs": [],
					"stateMutability": "nonpayable",
					"type": "function"
				},
				{
					"inputs": [],
					"name": "getAllAvailableBooks",
					"outputs": [
						{
							"internalType": "uint256[]",
							"name": "",
							"type": "uint256[]"
						}
					],
					"stateMutability": "view",
					"type": "function"
				},
				{
					"inputs": [
						{
							"internalType": "uint256",
							"name": "_id",
							"type": "uint256"
						}
					],
					"name": "getOwnerHistoryOfBook",
					"outputs": [
						{
							"internalType": "address[]",
							"name": "",
							"type": "address[]"
						}
					],
					"stateMutability": "view",
					"type": "function"
				},
				{
					"inputs": [],
					"name": "owner",
					"outputs": [
						{
							"internalType": "address",
							"name": "",
							"type": "address"
						}
					],
					"stateMutability": "view",
					"type": "function"
				},
				{
					"inputs": [],
					"name": "renounceOwnership",
					"outputs": [],
					"stateMutability": "nonpayable",
					"type": "function"
				},
				{
					"inputs": [
						{
							"internalType": "uint256",
							"name": "_id",
							"type": "uint256"
						}
					],
					"name": "returnBook",
					"outputs": [],
					"stateMutability": "nonpayable",
					"type": "function"
				},
				{
					"inputs": [
						{
							"internalType": "address",
							"name": "newOwner",
							"type": "address"
						}
					],
					"name": "transferOwnership",
					"outputs": [],
					"stateMutability": "nonpayable",
					"type": "function"
				}
			],
			"devdoc": {
				"kind": "dev",
				"methods": {
					"owner()": {
						"details": "Returns the address of the current owner."
					},
					"renounceOwnership()": {
						"details": "Leaves the contract without owner. It will not be possible to call `onlyOwner` functions anymore. Can only be called by the current owner. NOTE: Renouncing ownership will leave the contract without an owner, thereby removing any functionality that is only available to the owner."
					},
					"transferOwnership(address)": {
						"details": "Transfers ownership of the contract to a new account (`newOwner`). Can only be called by the current owner."
					}
				},
				"version": 1
			},
			"evm": {
				"assembly": "    /* \"contracts/Library.sol\":84:3165  contract Library is Ownable{\r... */\n  mstore(0x40, 0x80)\n  callvalue\n  dup1\n  iszero\n  tag_1\n  jumpi\n  0x00\n  dup1\n  revert\ntag_1:\n  pop\n    /* \"@openzeppelin/contracts/access/Ownable.sol\":936:968  _transferOwnership(_msgSender()) */\n  tag_4\n    /* \"@openzeppelin/contracts/access/Ownable.sol\":955:967  _msgSender() */\n  tag_5\n    /* \"@openzeppelin/contracts/access/Ownable.sol\":955:965  _msgSender */\n  shl(0x20, tag_6)\n    /* \"@openzeppelin/contracts/access/Ownable.sol\":955:967  _msgSender() */\n  0x20\n  shr\n  jump\t// in\ntag_5:\n    /* \"@openzeppelin/contracts/access/Ownable.sol\":936:954  _transferOwnership */\n  shl(0x20, tag_7)\n    /* \"@openzeppelin/contracts/access/Ownable.sol\":936:968  _transferOwnership(_msgSender()) */\n  0x20\n  shr\n  jump\t// in\ntag_4:\n    /* \"contracts/Library.sol\":84:3165  contract Library is Ownable{\r... */\n  jump(tag_8)\n    /* \"@openzeppelin/contracts/utils/Context.sol\":640:736  function _msgSender() internal view virtual returns (address) {... */\ntag_6:\n    /* \"@openzeppelin/contracts/utils/Context.sol\":693:700  address */\n  0x00\n    /* \"@openzeppelin/contracts/utils/Context.sol\":719:729  msg.sender */\n  caller\n    /* \"@openzeppelin/contracts/utils/Context.sol\":712:729  return msg.sender */\n  swap1\n  pop\n    /* \"@openzeppelin/contracts/utils/Context.sol\":640:736  function _msgSender() internal view virtual returns (address) {... */\n  swap1\n  jump\t// out\n    /* \"@openzeppelin/contracts/access/Ownable.sol\":2433:2620  function _transferOwnership(address newOwner) internal virtual {... */\ntag_7:\n    /* \"@openzeppelin/contracts/access/Ownable.sol\":2506:2522  address oldOwner */\n  0x00\n    /* \"@openzeppelin/contracts/access/Ownable.sol\":2525:2531  _owner */\n  dup1\n  0x00\n  swap1\n  sload\n  swap1\n  0x0100\n  exp\n  swap1\n  div\n  0xffffffffffffffffffffffffffffffffffffffff\n  and\n    /* \"@openzeppelin/contracts/access/Ownable.sol\":2506:2531  address oldOwner = _owner */\n  swap1\n  pop\n    /* \"@openzeppelin/contracts/access/Ownable.sol\":2550:2558  newOwner */\n  dup2\n    /* \"@openzeppelin/contracts/access/Ownable.sol\":2541:2547  _owner */\n  0x00\n  dup1\n    /* \"@openzeppelin/contracts/access/Ownable.sol\":2541:2558  _owner = newOwner */\n  0x0100\n  exp\n  dup2\n  sload\n  dup2\n  0xffffffffffffffffffffffffffffffffffffffff\n  mul\n  not\n  and\n  swap1\n  dup4\n  0xffffffffffffffffffffffffffffffffffffffff\n  and\n  mul\n  or\n  swap1\n  sstore\n  pop\n    /* \"@openzeppelin/contracts/access/Ownable.sol\":2604:2612  newOwner */\n  dup2\n    /* \"@openzeppelin/contracts/access/Ownable.sol\":2573:2613  OwnershipTransferred(oldOwner, newOwner) */\n  0xffffffffffffffffffffffffffffffffffffffff\n  and\n    /* \"@openzeppelin/contracts/access/Ownable.sol\":2594:2602  oldOwner */\n  dup2\n    /* \"@openzeppelin/contracts/access/Ownable.sol\":2573:2613  OwnershipTransferred(oldOwner, newOwner) */\n  0xffffffffffffffffffffffffffffffffffffffff\n  and\n  0x8be0079c531659141344cd1fd0a4f28419497f9722a3daafe3b4186f6b6457e0\n  mload(0x40)\n  mload(0x40)\n  dup1\n  swap2\n  sub\n  swap1\n  log3\n    /* \"@openzeppelin/contracts/access/Ownable.sol\":2496:2620  {... */\n  pop\n    /* \"@openzeppelin/contracts/access/Ownable.sol\":2433:2620  function _transferOwnership(address newOwner) internal virtual {... */\n  pop\n  jump\t// out\n    /* \"contracts/Library.sol\":84:3165  contract Library is Ownable{\r... */\ntag_8:\n  dataSize(sub_0)\n  dup1\n  dataOffset(sub_0)\n  0x00\n  codecopy\n  0x00\n  return\nstop\n\nsub_0: assembly {\n        /* \"contracts/Library.sol\":84:3165  contract Library is Ownable{\r... */\n      mstore(0x40, 0x80)\n      callvalue\n      dup1\n      iszero\n      tag_1\n      jumpi\n      0x00\n      dup1\n      revert\n    tag_1:\n      pop\n      jumpi(tag_2, lt(calldatasize, 0x04))\n      shr(0xe0, calldataload(0x00))\n      dup1\n      0x7e490a9e\n      gt\n      tag_14\n      jumpi\n      dup1\n      0x7e490a9e\n      eq\n      tag_8\n      jumpi\n      dup1\n      0x8da5cb5b\n      eq\n      tag_9\n      jumpi\n      dup1\n      0xb905ad78\n      eq\n      tag_10\n      jumpi\n      dup1\n      0xca5140c9\n      eq\n      tag_11\n      jumpi\n      dup1\n      0xf2fde38b\n      eq\n      tag_12\n      jumpi\n      dup1\n      0xf4cbc4a6\n      eq\n      tag_13\n      jumpi\n      jump(tag_2)\n    tag_14:\n      dup1\n      0x60f9eefc\n      eq\n      tag_3\n      jumpi\n      dup1\n      0x637a3872\n      eq\n      tag_4\n      jumpi\n      dup1\n      0x642ea5ce\n      eq\n      tag_5\n      jumpi\n      dup1\n      0x715018a6\n      eq\n      tag_6\n      jumpi\n      dup1\n      0x7975c6b4\n      eq\n      tag_7\n      jumpi\n    tag_2:\n      0x00\n      dup1\n      revert\n        /* \"contracts/Library.sol\":1050:1357  function addBookCopies(uint256 _bookId, uint256 _copies)\r... */\n    tag_3:\n      tag_15\n      0x04\n      dup1\n      calldatasize\n      sub\n      dup2\n      add\n      swap1\n      tag_16\n      swap2\n      swap1\n      tag_17\n      jump\t// in\n    tag_16:\n      tag_18\n      jump\t// in\n    tag_15:\n      stop\n        /* \"contracts/Library.sol\":642:1040  function addBook(string memory _name, uint256 _copies)\r... */\n    tag_4:\n      tag_19\n      0x04\n      dup1\n      calldatasize\n      sub\n      dup2\n      add\n      swap1\n      tag_20\n      swap2\n      swap1\n      tag_21\n      jump\t// in\n    tag_20:\n      tag_22\n      jump\t// in\n    tag_19:\n      stop\n        /* \"contracts/Library.sol\":2792:3162  function getOwnerHistoryOfBook(uint256 _id)\r... */\n    tag_5:\n      tag_23\n      0x04\n      dup1\n      calldatasize\n      sub\n      dup2\n      add\n      swap1\n      tag_24\n      swap2\n      swap1\n      tag_25\n      jump\t// in\n    tag_24:\n      tag_26\n      jump\t// in\n    tag_23:\n      mload(0x40)\n      tag_27\n      swap2\n      swap1\n      tag_28\n      jump\t// in\n    tag_27:\n      mload(0x40)\n      dup1\n      swap2\n      sub\n      swap1\n      return\n        /* \"@openzeppelin/contracts/access/Ownable.sol\":1831:1932  function renounceOwnership() public virtual onlyOwner {... */\n    tag_6:\n      tag_29\n      tag_30\n      jump\t// in\n    tag_29:\n      stop\n        /* \"contracts/Library.sol\":377:419  mapping(uint256 => Book) public BookLedger */\n    tag_7:\n      tag_31\n      0x04\n      dup1\n      calldatasize\n      sub\n      dup2\n      add\n      swap1\n      tag_32\n      swap2\n      swap1\n      tag_25\n      jump\t// in\n    tag_32:\n      tag_33\n      jump\t// in\n    tag_31:\n      mload(0x40)\n      tag_34\n      swap4\n      swap3\n      swap2\n      swap1\n      tag_35\n      jump\t// in\n    tag_34:\n      mload(0x40)\n      dup1\n      swap2\n      sub\n      swap1\n      return\n        /* \"contracts/Library.sol\":1367:1778  function borrowBook(uint256 _id) external {\r... */\n    tag_8:\n      tag_36\n      0x04\n      dup1\n      calldatasize\n      sub\n      dup2\n      add\n      swap1\n      tag_37\n      swap2\n      swap1\n      tag_25\n      jump\t// in\n    tag_37:\n      tag_38\n      jump\t// in\n    tag_36:\n      stop\n        /* \"@openzeppelin/contracts/access/Ownable.sol\":1201:1286  function owner() public view virtual returns (address) {... */\n    tag_9:\n      tag_39\n      tag_40\n      jump\t// in\n    tag_39:\n      mload(0x40)\n      tag_41\n      swap2\n      swap1\n      tag_42\n      jump\t// in\n    tag_41:\n      mload(0x40)\n      dup1\n      swap2\n      sub\n      swap1\n      return\n        /* \"contracts/Library.sol\":294:318  uint256 public bookCount */\n    tag_10:\n      tag_43\n      tag_44\n      jump\t// in\n    tag_43:\n      mload(0x40)\n      tag_45\n      swap2\n      swap1\n      tag_46\n      jump\t// in\n    tag_45:\n      mload(0x40)\n      dup1\n      swap2\n      sub\n      swap1\n      return\n        /* \"contracts/Library.sol\":1787:2046  function returnBook(uint256 _id) external {\r... */\n    tag_11:\n      tag_47\n      0x04\n      dup1\n      calldatasize\n      sub\n      dup2\n      add\n      swap1\n      tag_48\n      swap2\n      swap1\n      tag_25\n      jump\t// in\n    tag_48:\n      tag_49\n      jump\t// in\n    tag_47:\n      stop\n        /* \"@openzeppelin/contracts/access/Ownable.sol\":2081:2279  function transferOwnership(address newOwner) public virtual onlyOwner {... */\n    tag_12:\n      tag_50\n      0x04\n      dup1\n      calldatasize\n      sub\n      dup2\n      add\n      swap1\n      tag_51\n      swap2\n      swap1\n      tag_52\n      jump\t// in\n    tag_51:\n      tag_53\n      jump\t// in\n    tag_50:\n      stop\n        /* \"contracts/Library.sol\":2055:2783  function getAllAvailableBooks() external view returns (uint256[] memory) {\r... */\n    tag_13:\n      tag_54\n      tag_55\n      jump\t// in\n    tag_54:\n      mload(0x40)\n      tag_56\n      swap2\n      swap1\n      tag_57\n      jump\t// in\n    tag_56:\n      mload(0x40)\n      dup1\n      swap2\n      sub\n      swap1\n      return\n        /* \"contracts/Library.sol\":1050:1357  function addBookCopies(uint256 _bookId, uint256 _copies)\r... */\n    tag_18:\n        /* \"@openzeppelin/contracts/access/Ownable.sol\":1094:1107  _checkOwner() */\n      tag_59\n        /* \"@openzeppelin/contracts/access/Ownable.sol\":1094:1105  _checkOwner */\n      tag_60\n        /* \"@openzeppelin/contracts/access/Ownable.sol\":1094:1107  _checkOwner() */\n      jump\t// in\n    tag_59:\n        /* \"contracts/Library.sol\":1178:1179  0 */\n      0x00\n        /* \"contracts/Library.sol\":1168:1175  _copies */\n      dup2\n        /* \"contracts/Library.sol\":1168:1179  _copies > 0 */\n      gt\n        /* \"contracts/Library.sol\":1160:1189  require(_copies > 0, \"!zero\") */\n      tag_62\n      jumpi\n      mload(0x40)\n      0x08c379a000000000000000000000000000000000000000000000000000000000\n      dup2\n      mstore\n      0x04\n      add\n      tag_63\n      swap1\n      tag_64\n      jump\t// in\n    tag_63:\n      mload(0x40)\n      dup1\n      swap2\n      sub\n      swap1\n      revert\n    tag_62:\n        /* \"contracts/Library.sol\":1200:1217  Book storage book */\n      0x00\n        /* \"contracts/Library.sol\":1220:1230  BookLedger */\n      0x07\n        /* \"contracts/Library.sol\":1220:1239  BookLedger[_bookId] */\n      0x00\n        /* \"contracts/Library.sol\":1231:1238  _bookId */\n      dup5\n        /* \"contracts/Library.sol\":1220:1239  BookLedger[_bookId] */\n      dup2\n      mstore\n      0x20\n      add\n      swap1\n      dup2\n      mstore\n      0x20\n      add\n      0x00\n      keccak256\n        /* \"contracts/Library.sol\":1200:1239  Book storage book = BookLedger[_bookId] */\n      swap1\n      pop\n        /* \"contracts/Library.sol\":1285:1286  0 */\n      0x00\n        /* \"contracts/Library.sol\":1264:1268  book */\n      dup2\n        /* \"contracts/Library.sol\":1264:1273  book.name */\n      0x00\n      add\n        /* \"contracts/Library.sol\":1258:1281  bytes(book.name).length */\n      dup1\n      sload\n      tag_65\n      swap1\n      tag_66\n      jump\t// in\n    tag_65:\n      swap1\n      pop\n        /* \"contracts/Library.sol\":1258:1286  bytes(book.name).length != 0 */\n      eq\n      iszero\n        /* \"contracts/Library.sol\":1250:1310  require(bytes(book.name).length != 0, \"Book does not exist\") */\n      tag_67\n      jumpi\n      mload(0x40)\n      0x08c379a000000000000000000000000000000000000000000000000000000000\n      dup2\n      mstore\n      0x04\n      add\n      tag_68\n      swap1\n      tag_69\n      jump\t// in\n    tag_68:\n      mload(0x40)\n      dup1\n      swap2\n      sub\n      swap1\n      revert\n    tag_67:\n        /* \"contracts/Library.sol\":1348:1349  1 */\n      0x01\n        /* \"contracts/Library.sol\":1335:1339  book */\n      dup2\n        /* \"contracts/Library.sol\":1335:1346  book.copies */\n      0x01\n      add\n      0x00\n        /* \"contracts/Library.sol\":1335:1349  book.copies+=1 */\n      dup3\n      dup3\n      sload\n      tag_70\n      swap2\n      swap1\n      tag_71\n      jump\t// in\n    tag_70:\n      swap3\n      pop\n      pop\n      dup2\n      swap1\n      sstore\n        /* \"contracts/Library.sol\":1321:1325  book */\n      dup2\n        /* \"contracts/Library.sol\":1321:1332  book.copies */\n      0x01\n      add\n        /* \"contracts/Library.sol\":1321:1349  book.copies = book.copies+=1 */\n      dup2\n      swap1\n      sstore\n      pop\n        /* \"contracts/Library.sol\":1149:1357  {\r... */\n      pop\n        /* \"contracts/Library.sol\":1050:1357  function addBookCopies(uint256 _bookId, uint256 _copies)\r... */\n      pop\n      pop\n      jump\t// out\n        /* \"contracts/Library.sol\":642:1040  function addBook(string memory _name, uint256 _copies)\r... */\n    tag_22:\n        /* \"@openzeppelin/contracts/access/Ownable.sol\":1094:1107  _checkOwner() */\n      tag_73\n        /* \"@openzeppelin/contracts/access/Ownable.sol\":1094:1105  _checkOwner */\n      tag_60\n        /* \"@openzeppelin/contracts/access/Ownable.sol\":1094:1107  _checkOwner() */\n      jump\t// in\n    tag_73:\n        /* \"contracts/Library.sol\":760:765  _name */\n      dup2\n        /* \"contracts/Library.sol\":570:581  isAvailable */\n      0x06\n        /* \"contracts/Library.sol\":582:587  _name */\n      dup2\n        /* \"contracts/Library.sol\":570:588  isAvailable[_name] */\n      mload(0x40)\n      tag_75\n      swap2\n      swap1\n      tag_76\n      jump\t// in\n    tag_75:\n      swap1\n      dup2\n      mstore\n      0x20\n      add\n      mload(0x40)\n      dup1\n      swap2\n      sub\n      swap1\n      keccak256\n      0x00\n      swap1\n      sload\n      swap1\n      0x0100\n      exp\n      swap1\n      div\n      0xff\n      and\n        /* \"contracts/Library.sol\":569:588  !isAvailable[_name] */\n      iszero\n        /* \"contracts/Library.sol\":561:610  require(!isAvailable[_name], \"Book is available\") */\n      tag_77\n      jumpi\n      mload(0x40)\n      0x08c379a000000000000000000000000000000000000000000000000000000000\n      dup2\n      mstore\n      0x04\n      add\n      tag_78\n      swap1\n      tag_79\n      jump\t// in\n    tag_78:\n      mload(0x40)\n      dup1\n      swap2\n      sub\n      swap1\n      revert\n    tag_77:\n        /* \"contracts/Library.sol\":814:815  0 */\n      0x00\n        /* \"contracts/Library.sol\":797:802  _name */\n      dup4\n        /* \"contracts/Library.sol\":791:810  bytes(_name).length */\n      mload\n        /* \"contracts/Library.sol\":791:815  bytes(_name).length != 0 */\n      eq\n      iszero\n        /* \"contracts/Library.sol\":783:840  require(bytes(_name).length != 0, \"Name cannot be empty\") */\n      tag_81\n      jumpi\n      mload(0x40)\n      0x08c379a000000000000000000000000000000000000000000000000000000000\n      dup2\n      mstore\n      0x04\n      add\n      tag_82\n      swap1\n      tag_83\n      jump\t// in\n    tag_82:\n      mload(0x40)\n      dup1\n      swap2\n      sub\n      swap1\n      revert\n    tag_81:\n        /* \"contracts/Library.sol\":872:876  true */\n      0x01\n        /* \"contracts/Library.sol\":851:862  isAvailable */\n      0x06\n        /* \"contracts/Library.sol\":863:868  _name */\n      dup5\n        /* \"contracts/Library.sol\":851:869  isAvailable[_name] */\n      mload(0x40)\n      tag_84\n      swap2\n      swap1\n      tag_76\n      jump\t// in\n    tag_84:\n      swap1\n      dup2\n      mstore\n      0x20\n      add\n      mload(0x40)\n      dup1\n      swap2\n      sub\n      swap1\n      keccak256\n      0x00\n        /* \"contracts/Library.sol\":851:876  isAvailable[_name] = true */\n      0x0100\n      exp\n      dup2\n      sload\n      dup2\n      0xff\n      mul\n      not\n      and\n      swap1\n      dup4\n      iszero\n      iszero\n      mul\n      or\n      swap1\n      sstore\n      pop\n        /* \"contracts/Library.sol\":887:902  uint256 _bookId */\n      0x00\n        /* \"contracts/Library.sol\":914:915  1 */\n      0x01\n        /* \"contracts/Library.sol\":905:915  _copies+=1 */\n      dup4\n      tag_85\n      swap2\n      swap1\n      tag_71\n      jump\t// in\n    tag_85:\n      swap3\n      pop\n      dup3\n        /* \"contracts/Library.sol\":887:915  uint256 _bookId = _copies+=1 */\n      swap1\n      pop\n        /* \"contracts/Library.sol\":926:943  Book storage book */\n      0x00\n        /* \"contracts/Library.sol\":946:956  BookLedger */\n      0x07\n        /* \"contracts/Library.sol\":946:965  BookLedger[_bookId] */\n      0x00\n        /* \"contracts/Library.sol\":957:964  _bookId */\n      dup4\n        /* \"contracts/Library.sol\":946:965  BookLedger[_bookId] */\n      dup2\n      mstore\n      0x20\n      add\n      swap1\n      dup2\n      mstore\n      0x20\n      add\n      0x00\n      keccak256\n        /* \"contracts/Library.sol\":926:965  Book storage book = BookLedger[_bookId] */\n      swap1\n      pop\n        /* \"contracts/Library.sol\":988:993  _name */\n      dup5\n        /* \"contracts/Library.sol\":976:980  book */\n      dup2\n        /* \"contracts/Library.sol\":976:985  book.name */\n      0x00\n      add\n        /* \"contracts/Library.sol\":976:993  book.name = _name */\n      swap1\n      dup1\n      mload\n      swap1\n      0x20\n      add\n      swap1\n      tag_86\n      swap3\n      swap2\n      swap1\n      tag_87\n      jump\t// in\n    tag_86:\n      pop\n        /* \"contracts/Library.sol\":1018:1025  _copies */\n      dup4\n        /* \"contracts/Library.sol\":1004:1008  book */\n      dup2\n        /* \"contracts/Library.sol\":1004:1015  book.copies */\n      0x01\n      add\n        /* \"contracts/Library.sol\":1004:1025  book.copies = _copies */\n      dup2\n      swap1\n      sstore\n      pop\n        /* \"contracts/Library.sol\":772:1040  {\r... */\n      pop\n      pop\n        /* \"@openzeppelin/contracts/access/Ownable.sol\":1117:1118  _ */\n      pop\n        /* \"contracts/Library.sol\":642:1040  function addBook(string memory _name, uint256 _copies)\r... */\n      pop\n      pop\n      jump\t// out\n        /* \"contracts/Library.sol\":2792:3162  function getOwnerHistoryOfBook(uint256 _id)\r... */\n    tag_26:\n        /* \"contracts/Library.sol\":2884:2900  address[] memory */\n      0x60\n        /* \"contracts/Library.sol\":2918:2941  address[] memory result */\n      0x00\n        /* \"contracts/Library.sol\":2958:2968  BookLedger */\n      0x07\n        /* \"contracts/Library.sol\":2958:2973  BookLedger[_id] */\n      0x00\n        /* \"contracts/Library.sol\":2969:2972  _id */\n      dup5\n        /* \"contracts/Library.sol\":2958:2973  BookLedger[_id] */\n      dup2\n      mstore\n      0x20\n      add\n      swap1\n      dup2\n      mstore\n      0x20\n      add\n      0x00\n      keccak256\n        /* \"contracts/Library.sol\":2958:2984  BookLedger[_id].ownerCount */\n      0x02\n      add\n      sload\n        /* \"contracts/Library.sol\":2944:2985  new address[](BookLedger[_id].ownerCount) */\n      0xffffffffffffffff\n      dup2\n      gt\n      iszero\n      tag_89\n      jumpi\n      tag_90\n      tag_91\n      jump\t// in\n    tag_90:\n    tag_89:\n      mload(0x40)\n      swap1\n      dup1\n      dup3\n      mstore\n      dup1\n      0x20\n      mul\n      0x20\n      add\n      dup3\n      add\n      0x40\n      mstore\n      dup1\n      iszero\n      tag_92\n      jumpi\n      dup2\n      0x20\n      add\n      0x20\n      dup3\n      mul\n      dup1\n      calldatasize\n      dup4\n      calldatacopy\n      dup1\n      dup3\n      add\n      swap2\n      pop\n      pop\n      swap1\n      pop\n    tag_92:\n      pop\n        /* \"contracts/Library.sol\":2918:2985  address[] memory result = new address[](BookLedger[_id].ownerCount) */\n      swap1\n      pop\n        /* \"contracts/Library.sol\":3001:3014  uint256 index */\n      0x00\n        /* \"contracts/Library.sol\":2996:3131  for (uint256 index = 0; index < result.length; index++) {\r... */\n    tag_93:\n        /* \"contracts/Library.sol\":3028:3034  result */\n      dup2\n        /* \"contracts/Library.sol\":3028:3041  result.length */\n      mload\n        /* \"contracts/Library.sol\":3020:3025  index */\n      dup2\n        /* \"contracts/Library.sol\":3020:3041  index < result.length */\n      lt\n        /* \"contracts/Library.sol\":2996:3131  for (uint256 index = 0; index < result.length; index++) {\r... */\n      iszero\n      tag_94\n      jumpi\n        /* \"contracts/Library.sol\":3083:3093  BookLedger */\n      0x07\n        /* \"contracts/Library.sol\":3083:3098  BookLedger[_id] */\n      0x00\n        /* \"contracts/Library.sol\":3094:3097  _id */\n      dup6\n        /* \"contracts/Library.sol\":3083:3098  BookLedger[_id] */\n      dup2\n      mstore\n      0x20\n      add\n      swap1\n      dup2\n      mstore\n      0x20\n      add\n      0x00\n      keccak256\n        /* \"contracts/Library.sol\":3083:3112  BookLedger[_id].ownersHistory */\n      0x03\n      add\n        /* \"contracts/Library.sol\":3083:3119  BookLedger[_id].ownersHistory[index] */\n      0x00\n        /* \"contracts/Library.sol\":3113:3118  index */\n      dup3\n        /* \"contracts/Library.sol\":3083:3119  BookLedger[_id].ownersHistory[index] */\n      dup2\n      mstore\n      0x20\n      add\n      swap1\n      dup2\n      mstore\n      0x20\n      add\n      0x00\n      keccak256\n      0x00\n      swap1\n      sload\n      swap1\n      0x0100\n      exp\n      swap1\n      div\n      0xffffffffffffffffffffffffffffffffffffffff\n      and\n        /* \"contracts/Library.sol\":3067:3073  result */\n      dup3\n        /* \"contracts/Library.sol\":3074:3079  index */\n      dup3\n        /* \"contracts/Library.sol\":3067:3080  result[index] */\n      dup2\n      mload\n      dup2\n      lt\n      tag_96\n      jumpi\n      tag_97\n      tag_98\n      jump\t// in\n    tag_97:\n    tag_96:\n      0x20\n      mul\n      0x20\n      add\n      add\n        /* \"contracts/Library.sol\":3067:3119  result[index] = BookLedger[_id].ownersHistory[index] */\n      swap1\n      0xffffffffffffffffffffffffffffffffffffffff\n      and\n      swap1\n      dup2\n      0xffffffffffffffffffffffffffffffffffffffff\n      and\n      dup2\n      mstore\n      pop\n      pop\n        /* \"contracts/Library.sol\":3043:3050  index++ */\n      dup1\n      dup1\n      tag_99\n      swap1\n      tag_100\n      jump\t// in\n    tag_99:\n      swap2\n      pop\n      pop\n        /* \"contracts/Library.sol\":2996:3131  for (uint256 index = 0; index < result.length; index++) {\r... */\n      jump(tag_93)\n    tag_94:\n      pop\n        /* \"contracts/Library.sol\":3148:3154  result */\n      dup1\n        /* \"contracts/Library.sol\":3141:3154  return result */\n      swap2\n      pop\n      pop\n        /* \"contracts/Library.sol\":2792:3162  function getOwnerHistoryOfBook(uint256 _id)\r... */\n      swap2\n      swap1\n      pop\n      jump\t// out\n        /* \"@openzeppelin/contracts/access/Ownable.sol\":1831:1932  function renounceOwnership() public virtual onlyOwner {... */\n    tag_30:\n        /* \"@openzeppelin/contracts/access/Ownable.sol\":1094:1107  _checkOwner() */\n      tag_102\n        /* \"@openzeppelin/contracts/access/Ownable.sol\":1094:1105  _checkOwner */\n      tag_60\n        /* \"@openzeppelin/contracts/access/Ownable.sol\":1094:1107  _checkOwner() */\n      jump\t// in\n    tag_102:\n        /* \"@openzeppelin/contracts/access/Ownable.sol\":1895:1925  _transferOwnership(address(0)) */\n      tag_104\n        /* \"@openzeppelin/contracts/access/Ownable.sol\":1922:1923  0 */\n      0x00\n        /* \"@openzeppelin/contracts/access/Ownable.sol\":1895:1913  _transferOwnership */\n      tag_105\n        /* \"@openzeppelin/contracts/access/Ownable.sol\":1895:1925  _transferOwnership(address(0)) */\n      jump\t// in\n    tag_104:\n        /* \"@openzeppelin/contracts/access/Ownable.sol\":1831:1932  function renounceOwnership() public virtual onlyOwner {... */\n      jump\t// out\n        /* \"contracts/Library.sol\":377:419  mapping(uint256 => Book) public BookLedger */\n    tag_33:\n      mstore(0x20, 0x07)\n      dup1\n      0x00\n      mstore\n      keccak256(0x00, 0x40)\n      0x00\n      swap2\n      pop\n      swap1\n      pop\n      dup1\n      0x00\n      add\n      dup1\n      sload\n      tag_106\n      swap1\n      tag_66\n      jump\t// in\n    tag_106:\n      dup1\n      0x1f\n      add\n      0x20\n      dup1\n      swap2\n      div\n      mul\n      0x20\n      add\n      mload(0x40)\n      swap1\n      dup2\n      add\n      0x40\n      mstore\n      dup1\n      swap3\n      swap2\n      swap1\n      dup2\n      dup2\n      mstore\n      0x20\n      add\n      dup3\n      dup1\n      sload\n      tag_107\n      swap1\n      tag_66\n      jump\t// in\n    tag_107:\n      dup1\n      iszero\n      tag_108\n      jumpi\n      dup1\n      0x1f\n      lt\n      tag_109\n      jumpi\n      0x0100\n      dup1\n      dup4\n      sload\n      div\n      mul\n      dup4\n      mstore\n      swap2\n      0x20\n      add\n      swap2\n      jump(tag_108)\n    tag_109:\n      dup3\n      add\n      swap2\n      swap1\n      0x00\n      mstore\n      keccak256(0x00, 0x20)\n      swap1\n    tag_110:\n      dup2\n      sload\n      dup2\n      mstore\n      swap1\n      0x01\n      add\n      swap1\n      0x20\n      add\n      dup1\n      dup4\n      gt\n      tag_110\n      jumpi\n      dup3\n      swap1\n      sub\n      0x1f\n      and\n      dup3\n      add\n      swap2\n    tag_108:\n      pop\n      pop\n      pop\n      pop\n      pop\n      swap1\n      dup1\n      0x01\n      add\n      sload\n      swap1\n      dup1\n      0x02\n      add\n      sload\n      swap1\n      pop\n      dup4\n      jump\t// out\n        /* \"contracts/Library.sol\":1367:1778  function borrowBook(uint256 _id) external {\r... */\n    tag_38:\n        /* \"contracts/Library.sol\":1429:1444  isAlreadyIssued */\n      0x08\n        /* \"contracts/Library.sol\":1429:1456  isAlreadyIssued[msg.sender] */\n      0x00\n        /* \"contracts/Library.sol\":1445:1455  msg.sender */\n      caller\n        /* \"contracts/Library.sol\":1429:1456  isAlreadyIssued[msg.sender] */\n      0xffffffffffffffffffffffffffffffffffffffff\n      and\n      0xffffffffffffffffffffffffffffffffffffffff\n      and\n      dup2\n      mstore\n      0x20\n      add\n      swap1\n      dup2\n      mstore\n      0x20\n      add\n      0x00\n      keccak256\n        /* \"contracts/Library.sol\":1429:1461  isAlreadyIssued[msg.sender][_id] */\n      0x00\n        /* \"contracts/Library.sol\":1457:1460  _id */\n      dup3\n        /* \"contracts/Library.sol\":1429:1461  isAlreadyIssued[msg.sender][_id] */\n      dup2\n      mstore\n      0x20\n      add\n      swap1\n      dup2\n      mstore\n      0x20\n      add\n      0x00\n      keccak256\n      0x00\n      swap1\n      sload\n      swap1\n      0x0100\n      exp\n      swap1\n      div\n      0xff\n      and\n        /* \"contracts/Library.sol\":1428:1461  !isAlreadyIssued[msg.sender][_id] */\n      iszero\n        /* \"contracts/Library.sol\":1420:1488  require(!isAlreadyIssued[msg.sender][_id], \"Book is already issued\") */\n      tag_112\n      jumpi\n      mload(0x40)\n      0x08c379a000000000000000000000000000000000000000000000000000000000\n      dup2\n      mstore\n      0x04\n      add\n      tag_113\n      swap1\n      tag_114\n      jump\t// in\n    tag_113:\n      mload(0x40)\n      dup1\n      swap2\n      sub\n      swap1\n      revert\n    tag_112:\n        /* \"contracts/Library.sol\":1534:1538  true */\n      0x01\n        /* \"contracts/Library.sol\":1499:1514  isAlreadyIssued */\n      0x08\n        /* \"contracts/Library.sol\":1499:1526  isAlreadyIssued[msg.sender] */\n      0x00\n        /* \"contracts/Library.sol\":1515:1525  msg.sender */\n      caller\n        /* \"contracts/Library.sol\":1499:1526  isAlreadyIssued[msg.sender] */\n      0xffffffffffffffffffffffffffffffffffffffff\n      and\n      0xffffffffffffffffffffffffffffffffffffffff\n      and\n      dup2\n      mstore\n      0x20\n      add\n      swap1\n      dup2\n      mstore\n      0x20\n      add\n      0x00\n      keccak256\n        /* \"contracts/Library.sol\":1499:1531  isAlreadyIssued[msg.sender][_id] */\n      0x00\n        /* \"contracts/Library.sol\":1527:1530  _id */\n      dup4\n        /* \"contracts/Library.sol\":1499:1531  isAlreadyIssued[msg.sender][_id] */\n      dup2\n      mstore\n      0x20\n      add\n      swap1\n      dup2\n      mstore\n      0x20\n      add\n      0x00\n      keccak256\n      0x00\n        /* \"contracts/Library.sol\":1499:1538  isAlreadyIssued[msg.sender][_id] = true */\n      0x0100\n      exp\n      dup2\n      sload\n      dup2\n      0xff\n      mul\n      not\n      and\n      swap1\n      dup4\n      iszero\n      iszero\n      mul\n      or\n      swap1\n      sstore\n      pop\n        /* \"contracts/Library.sol\":1549:1566  Book storage book */\n      0x00\n        /* \"contracts/Library.sol\":1569:1579  BookLedger */\n      0x07\n        /* \"contracts/Library.sol\":1569:1584  BookLedger[_id] */\n      0x00\n        /* \"contracts/Library.sol\":1580:1583  _id */\n      dup4\n        /* \"contracts/Library.sol\":1569:1584  BookLedger[_id] */\n      dup2\n      mstore\n      0x20\n      add\n      swap1\n      dup2\n      mstore\n      0x20\n      add\n      0x00\n      keccak256\n        /* \"contracts/Library.sol\":1549:1584  Book storage book = BookLedger[_id] */\n      swap1\n      pop\n        /* \"contracts/Library.sol\":1618:1619  1 */\n      0x01\n        /* \"contracts/Library.sol\":1603:1607  book */\n      dup2\n        /* \"contracts/Library.sol\":1603:1614  book.copies */\n      0x01\n      add\n      sload\n        /* \"contracts/Library.sol\":1603:1619  book.copies >= 1 */\n      lt\n      iszero\n        /* \"contracts/Library.sol\":1595:1620  require(book.copies >= 1) */\n      tag_115\n      jumpi\n      0x00\n      dup1\n      revert\n    tag_115:\n        /* \"contracts/Library.sol\":1658:1659  1 */\n      0x01\n        /* \"contracts/Library.sol\":1645:1649  book */\n      dup2\n        /* \"contracts/Library.sol\":1645:1656  book.copies */\n      0x01\n      add\n      sload\n        /* \"contracts/Library.sol\":1645:1659  book.copies -1 */\n      tag_116\n      swap2\n      swap1\n      tag_117\n      jump\t// in\n    tag_116:\n        /* \"contracts/Library.sol\":1631:1635  book */\n      dup2\n        /* \"contracts/Library.sol\":1631:1642  book.copies */\n      0x01\n      add\n        /* \"contracts/Library.sol\":1631:1659  book.copies = book.copies -1 */\n      dup2\n      swap1\n      sstore\n      pop\n        /* \"contracts/Library.sol\":1708:1718  msg.sender */\n      caller\n        /* \"contracts/Library.sol\":1670:1674  book */\n      dup2\n        /* \"contracts/Library.sol\":1670:1688  book.ownersHistory */\n      0x03\n      add\n        /* \"contracts/Library.sol\":1670:1705  book.ownersHistory[book.ownerCount] */\n      0x00\n        /* \"contracts/Library.sol\":1689:1693  book */\n      dup4\n        /* \"contracts/Library.sol\":1689:1704  book.ownerCount */\n      0x02\n      add\n      sload\n        /* \"contracts/Library.sol\":1670:1705  book.ownersHistory[book.ownerCount] */\n      dup2\n      mstore\n      0x20\n      add\n      swap1\n      dup2\n      mstore\n      0x20\n      add\n      0x00\n      keccak256\n      0x00\n        /* \"contracts/Library.sol\":1670:1718  book.ownersHistory[book.ownerCount] = msg.sender */\n      0x0100\n      exp\n      dup2\n      sload\n      dup2\n      0xffffffffffffffffffffffffffffffffffffffff\n      mul\n      not\n      and\n      swap1\n      dup4\n      0xffffffffffffffffffffffffffffffffffffffff\n      and\n      mul\n      or\n      swap1\n      sstore\n      pop\n        /* \"contracts/Library.sol\":1765:1766  1 */\n      0x01\n        /* \"contracts/Library.sol\":1749:1753  book */\n      dup2\n        /* \"contracts/Library.sol\":1749:1764  book.ownerCount */\n      0x02\n      add\n      sload\n        /* \"contracts/Library.sol\":1749:1766  book.ownerCount+1 */\n      tag_118\n      swap2\n      swap1\n      tag_71\n      jump\t// in\n    tag_118:\n        /* \"contracts/Library.sol\":1731:1735  book */\n      dup2\n        /* \"contracts/Library.sol\":1731:1746  book.ownerCount */\n      0x02\n      add\n        /* \"contracts/Library.sol\":1731:1766  book.ownerCount = book.ownerCount+1 */\n      dup2\n      swap1\n      sstore\n      pop\n        /* \"contracts/Library.sol\":1409:1778  {\r... */\n      pop\n        /* \"contracts/Library.sol\":1367:1778  function borrowBook(uint256 _id) external {\r... */\n      pop\n      jump\t// out\n        /* \"@openzeppelin/contracts/access/Ownable.sol\":1201:1286  function owner() public view virtual returns (address) {... */\n    tag_40:\n        /* \"@openzeppelin/contracts/access/Ownable.sol\":1247:1254  address */\n      0x00\n        /* \"@openzeppelin/contracts/access/Ownable.sol\":1273:1279  _owner */\n      dup1\n      0x00\n      swap1\n      sload\n      swap1\n      0x0100\n      exp\n      swap1\n      div\n      0xffffffffffffffffffffffffffffffffffffffff\n      and\n        /* \"@openzeppelin/contracts/access/Ownable.sol\":1266:1279  return _owner */\n      swap1\n      pop\n        /* \"@openzeppelin/contracts/access/Ownable.sol\":1201:1286  function owner() public view virtual returns (address) {... */\n      swap1\n      jump\t// out\n        /* \"contracts/Library.sol\":294:318  uint256 public bookCount */\n    tag_44:\n      sload(0x05)\n      dup2\n      jump\t// out\n        /* \"contracts/Library.sol\":1787:2046  function returnBook(uint256 _id) external {\r... */\n    tag_49:\n        /* \"contracts/Library.sol\":1848:1863  isAlreadyIssued */\n      0x08\n        /* \"contracts/Library.sol\":1848:1875  isAlreadyIssued[msg.sender] */\n      0x00\n        /* \"contracts/Library.sol\":1864:1874  msg.sender */\n      caller\n        /* \"contracts/Library.sol\":1848:1875  isAlreadyIssued[msg.sender] */\n      0xffffffffffffffffffffffffffffffffffffffff\n      and\n      0xffffffffffffffffffffffffffffffffffffffff\n      and\n      dup2\n      mstore\n      0x20\n      add\n      swap1\n      dup2\n      mstore\n      0x20\n      add\n      0x00\n      keccak256\n        /* \"contracts/Library.sol\":1848:1880  isAlreadyIssued[msg.sender][_id] */\n      0x00\n        /* \"contracts/Library.sol\":1876:1879  _id */\n      dup3\n        /* \"contracts/Library.sol\":1848:1880  isAlreadyIssued[msg.sender][_id] */\n      dup2\n      mstore\n      0x20\n      add\n      swap1\n      dup2\n      mstore\n      0x20\n      add\n      0x00\n      keccak256\n      0x00\n      swap1\n      sload\n      swap1\n      0x0100\n      exp\n      swap1\n      div\n      0xff\n      and\n        /* \"contracts/Library.sol\":1840:1903  require(isAlreadyIssued[msg.sender][_id], \"Book is not issued\") */\n      tag_121\n      jumpi\n      mload(0x40)\n      0x08c379a000000000000000000000000000000000000000000000000000000000\n      dup2\n      mstore\n      0x04\n      add\n      tag_122\n      swap1\n      tag_123\n      jump\t// in\n    tag_122:\n      mload(0x40)\n      dup1\n      swap2\n      sub\n      swap1\n      revert\n    tag_121:\n        /* \"contracts/Library.sol\":1914:1931  Book storage book */\n      0x00\n        /* \"contracts/Library.sol\":1934:1944  BookLedger */\n      0x07\n        /* \"contracts/Library.sol\":1934:1949  BookLedger[_id] */\n      0x00\n        /* \"contracts/Library.sol\":1945:1948  _id */\n      dup4\n        /* \"contracts/Library.sol\":1934:1949  BookLedger[_id] */\n      dup2\n      mstore\n      0x20\n      add\n      swap1\n      dup2\n      mstore\n      0x20\n      add\n      0x00\n      keccak256\n        /* \"contracts/Library.sol\":1914:1949  Book storage book = BookLedger[_id] */\n      swap1\n      pop\n        /* \"contracts/Library.sol\":1986:1987  1 */\n      0x01\n        /* \"contracts/Library.sol\":1974:1978  book */\n      dup2\n        /* \"contracts/Library.sol\":1974:1985  book.copies */\n      0x01\n      add\n      sload\n        /* \"contracts/Library.sol\":1974:1987  book.copies+1 */\n      tag_124\n      swap2\n      swap1\n      tag_71\n      jump\t// in\n    tag_124:\n        /* \"contracts/Library.sol\":1960:1964  book */\n      dup2\n        /* \"contracts/Library.sol\":1960:1971  book.copies */\n      0x01\n      add\n        /* \"contracts/Library.sol\":1960:1987  book.copies = book.copies+1 */\n      dup2\n      swap1\n      sstore\n      pop\n        /* \"contracts/Library.sol\":2033:2038  false */\n      0x00\n        /* \"contracts/Library.sol\":1998:2013  isAlreadyIssued */\n      0x08\n        /* \"contracts/Library.sol\":1998:2025  isAlreadyIssued[msg.sender] */\n      0x00\n        /* \"contracts/Library.sol\":2014:2024  msg.sender */\n      caller\n        /* \"contracts/Library.sol\":1998:2025  isAlreadyIssued[msg.sender] */\n      0xffffffffffffffffffffffffffffffffffffffff\n      and\n      0xffffffffffffffffffffffffffffffffffffffff\n      and\n      dup2\n      mstore\n      0x20\n      add\n      swap1\n      dup2\n      mstore\n      0x20\n      add\n      0x00\n      keccak256\n        /* \"contracts/Library.sol\":1998:2030  isAlreadyIssued[msg.sender][_id] */\n      0x00\n        /* \"contracts/Library.sol\":2026:2029  _id */\n      dup5\n        /* \"contracts/Library.sol\":1998:2030  isAlreadyIssued[msg.sender][_id] */\n      dup2\n      mstore\n      0x20\n      add\n      swap1\n      dup2\n      mstore\n      0x20\n      add\n      0x00\n      keccak256\n      0x00\n        /* \"contracts/Library.sol\":1998:2038  isAlreadyIssued[msg.sender][_id] = false */\n      0x0100\n      exp\n      dup2\n      sload\n      dup2\n      0xff\n      mul\n      not\n      and\n      swap1\n      dup4\n      iszero\n      iszero\n      mul\n      or\n      swap1\n      sstore\n      pop\n        /* \"contracts/Library.sol\":1829:2046  {\r... */\n      pop\n        /* \"contracts/Library.sol\":1787:2046  function returnBook(uint256 _id) external {\r... */\n      pop\n      jump\t// out\n        /* \"@openzeppelin/contracts/access/Ownable.sol\":2081:2279  function transferOwnership(address newOwner) public virtual onlyOwner {... */\n    tag_53:\n        /* \"@openzeppelin/contracts/access/Ownable.sol\":1094:1107  _checkOwner() */\n      tag_126\n        /* \"@openzeppelin/contracts/access/Ownable.sol\":1094:1105  _checkOwner */\n      tag_60\n        /* \"@openzeppelin/contracts/access/Ownable.sol\":1094:1107  _checkOwner() */\n      jump\t// in\n    tag_126:\n        /* \"@openzeppelin/contracts/access/Ownable.sol\":2189:2190  0 */\n      0x00\n        /* \"@openzeppelin/contracts/access/Ownable.sol\":2169:2191  newOwner != address(0) */\n      0xffffffffffffffffffffffffffffffffffffffff\n      and\n        /* \"@openzeppelin/contracts/access/Ownable.sol\":2169:2177  newOwner */\n      dup2\n        /* \"@openzeppelin/contracts/access/Ownable.sol\":2169:2191  newOwner != address(0) */\n      0xffffffffffffffffffffffffffffffffffffffff\n      and\n      eq\n      iszero\n        /* \"@openzeppelin/contracts/access/Ownable.sol\":2161:2234  require(newOwner != address(0), \"Ownable: new owner is the zero address\") */\n      tag_128\n      jumpi\n      mload(0x40)\n      0x08c379a000000000000000000000000000000000000000000000000000000000\n      dup2\n      mstore\n      0x04\n      add\n      tag_129\n      swap1\n      tag_130\n      jump\t// in\n    tag_129:\n      mload(0x40)\n      dup1\n      swap2\n      sub\n      swap1\n      revert\n    tag_128:\n        /* \"@openzeppelin/contracts/access/Ownable.sol\":2244:2272  _transferOwnership(newOwner) */\n      tag_131\n        /* \"@openzeppelin/contracts/access/Ownable.sol\":2263:2271  newOwner */\n      dup2\n        /* \"@openzeppelin/contracts/access/Ownable.sol\":2244:2262  _transferOwnership */\n      tag_105\n        /* \"@openzeppelin/contracts/access/Ownable.sol\":2244:2272  _transferOwnership(newOwner) */\n      jump\t// in\n    tag_131:\n        /* \"@openzeppelin/contracts/access/Ownable.sol\":2081:2279  function transferOwnership(address newOwner) public virtual onlyOwner {... */\n      pop\n      jump\t// out\n        /* \"contracts/Library.sol\":2055:2783  function getAllAvailableBooks() external view returns (uint256[] memory) {\r... */\n    tag_55:\n        /* \"contracts/Library.sol\":2110:2126  uint256[] memory */\n      0x60\n        /* \"contracts/Library.sol\":2139:2159  uint256 currentIndex */\n      0x00\n        /* \"contracts/Library.sol\":2179:2192  uint256 index */\n      dup1\n        /* \"contracts/Library.sol\":2195:2196  1 */\n      0x01\n        /* \"contracts/Library.sol\":2179:2196  uint256 index = 1 */\n      swap1\n      pop\n        /* \"contracts/Library.sol\":2174:2389  for (uint256 index = 1; index <= bookCount; index++) {\r... */\n    tag_133:\n        /* \"contracts/Library.sol\":2207:2216  bookCount */\n      sload(0x05)\n        /* \"contracts/Library.sol\":2198:2203  index */\n      dup2\n        /* \"contracts/Library.sol\":2198:2216  index <= bookCount */\n      gt\n        /* \"contracts/Library.sol\":2174:2389  for (uint256 index = 1; index <= bookCount; index++) {\r... */\n      tag_134\n      jumpi\n        /* \"contracts/Library.sol\":2247:2262  isAlreadyIssued */\n      0x08\n        /* \"contracts/Library.sol\":2247:2274  isAlreadyIssued[msg.sender] */\n      0x00\n        /* \"contracts/Library.sol\":2263:2273  msg.sender */\n      caller\n        /* \"contracts/Library.sol\":2247:2274  isAlreadyIssued[msg.sender] */\n      0xffffffffffffffffffffffffffffffffffffffff\n      and\n      0xffffffffffffffffffffffffffffffffffffffff\n      and\n      dup2\n      mstore\n      0x20\n      add\n      swap1\n      dup2\n      mstore\n      0x20\n      add\n      0x00\n      keccak256\n        /* \"contracts/Library.sol\":2247:2281  isAlreadyIssued[msg.sender][index] */\n      0x00\n        /* \"contracts/Library.sol\":2275:2280  index */\n      dup3\n        /* \"contracts/Library.sol\":2247:2281  isAlreadyIssued[msg.sender][index] */\n      dup2\n      mstore\n      0x20\n      add\n      swap1\n      dup2\n      mstore\n      0x20\n      add\n      0x00\n      keccak256\n      0x00\n      swap1\n      sload\n      swap1\n      0x0100\n      exp\n      swap1\n      div\n      0xff\n      and\n        /* \"contracts/Library.sol\":2246:2281  !isAlreadyIssued[msg.sender][index] */\n      iszero\n        /* \"contracts/Library.sol\":2246:2327  !isAlreadyIssued[msg.sender][index] &&\r... */\n      dup1\n      iszero\n      tag_136\n      jumpi\n      pop\n        /* \"contracts/Library.sol\":2326:2327  0 */\n      0x00\n        /* \"contracts/Library.sol\":2299:2309  BookLedger */\n      0x07\n        /* \"contracts/Library.sol\":2299:2316  BookLedger[index] */\n      0x00\n        /* \"contracts/Library.sol\":2310:2315  index */\n      dup4\n        /* \"contracts/Library.sol\":2299:2316  BookLedger[index] */\n      dup2\n      mstore\n      0x20\n      add\n      swap1\n      dup2\n      mstore\n      0x20\n      add\n      0x00\n      keccak256\n        /* \"contracts/Library.sol\":2299:2323  BookLedger[index].copies */\n      0x01\n      add\n      sload\n        /* \"contracts/Library.sol\":2299:2327  BookLedger[index].copies > 0 */\n      gt\n        /* \"contracts/Library.sol\":2246:2327  !isAlreadyIssued[msg.sender][index] &&\r... */\n    tag_136:\n        /* \"contracts/Library.sol\":2242:2378  if (!isAlreadyIssued[msg.sender][index] &&\r... */\n      iszero\n      tag_137\n      jumpi\n        /* \"contracts/Library.sol\":2348:2362  currentIndex++ */\n      dup2\n      dup1\n      tag_138\n      swap1\n      tag_100\n      jump\t// in\n    tag_138:\n      swap3\n      pop\n      pop\n        /* \"contracts/Library.sol\":2242:2378  if (!isAlreadyIssued[msg.sender][index] &&\r... */\n    tag_137:\n        /* \"contracts/Library.sol\":2218:2225  index++ */\n      dup1\n      dup1\n      tag_139\n      swap1\n      tag_100\n      jump\t// in\n    tag_139:\n      swap2\n      pop\n      pop\n        /* \"contracts/Library.sol\":2174:2389  for (uint256 index = 1; index <= bookCount; index++) {\r... */\n      jump(tag_133)\n    tag_134:\n      pop\n        /* \"contracts/Library.sol\":2399:2422  uint256[] memory result */\n      0x00\n        /* \"contracts/Library.sol\":2439:2451  currentIndex */\n      dup2\n        /* \"contracts/Library.sol\":2425:2452  new uint256[](currentIndex) */\n      0xffffffffffffffff\n      dup2\n      gt\n      iszero\n      tag_140\n      jumpi\n      tag_141\n      tag_91\n      jump\t// in\n    tag_141:\n    tag_140:\n      mload(0x40)\n      swap1\n      dup1\n      dup3\n      mstore\n      dup1\n      0x20\n      mul\n      0x20\n      add\n      dup3\n      add\n      0x40\n      mstore\n      dup1\n      iszero\n      tag_142\n      jumpi\n      dup2\n      0x20\n      add\n      0x20\n      dup3\n      mul\n      dup1\n      calldatasize\n      dup4\n      calldatacopy\n      dup1\n      dup3\n      add\n      swap2\n      pop\n      pop\n      swap1\n      pop\n    tag_142:\n      pop\n        /* \"contracts/Library.sol\":2399:2452  uint256[] memory result = new uint256[](currentIndex) */\n      swap1\n      pop\n        /* \"contracts/Library.sol\":2478:2479  0 */\n      0x00\n        /* \"contracts/Library.sol\":2463:2479  currentIndex = 0 */\n      swap2\n      pop\n        /* \"contracts/Library.sol\":2495:2508  uint256 index */\n      0x00\n        /* \"contracts/Library.sol\":2511:2512  1 */\n      0x01\n        /* \"contracts/Library.sol\":2495:2512  uint256 index = 1 */\n      swap1\n      pop\n        /* \"contracts/Library.sol\":2490:2752  for (uint256 index = 1; index <= bookCount; index++) {\r... */\n    tag_143:\n        /* \"contracts/Library.sol\":2523:2532  bookCount */\n      sload(0x05)\n        /* \"contracts/Library.sol\":2514:2519  index */\n      dup2\n        /* \"contracts/Library.sol\":2514:2532  index <= bookCount */\n      gt\n        /* \"contracts/Library.sol\":2490:2752  for (uint256 index = 1; index <= bookCount; index++) {\r... */\n      tag_144\n      jumpi\n        /* \"contracts/Library.sol\":2563:2578  isAlreadyIssued */\n      0x08\n        /* \"contracts/Library.sol\":2563:2590  isAlreadyIssued[msg.sender] */\n      0x00\n        /* \"contracts/Library.sol\":2579:2589  msg.sender */\n      caller\n        /* \"contracts/Library.sol\":2563:2590  isAlreadyIssued[msg.sender] */\n      0xffffffffffffffffffffffffffffffffffffffff\n      and\n      0xffffffffffffffffffffffffffffffffffffffff\n      and\n      dup2\n      mstore\n      0x20\n      add\n      swap1\n      dup2\n      mstore\n      0x20\n      add\n      0x00\n      keccak256\n        /* \"contracts/Library.sol\":2563:2597  isAlreadyIssued[msg.sender][index] */\n      0x00\n        /* \"contracts/Library.sol\":2591:2596  index */\n      dup3\n        /* \"contracts/Library.sol\":2563:2597  isAlreadyIssued[msg.sender][index] */\n      dup2\n      mstore\n      0x20\n      add\n      swap1\n      dup2\n      mstore\n      0x20\n      add\n      0x00\n      keccak256\n      0x00\n      swap1\n      sload\n      swap1\n      0x0100\n      exp\n      swap1\n      div\n      0xff\n      and\n        /* \"contracts/Library.sol\":2562:2597  !isAlreadyIssued[msg.sender][index] */\n      iszero\n        /* \"contracts/Library.sol\":2562:2643  !isAlreadyIssued[msg.sender][index] &&\r... */\n      dup1\n      iszero\n      tag_146\n      jumpi\n      pop\n        /* \"contracts/Library.sol\":2642:2643  0 */\n      0x00\n        /* \"contracts/Library.sol\":2615:2625  BookLedger */\n      0x07\n        /* \"contracts/Library.sol\":2615:2632  BookLedger[index] */\n      0x00\n        /* \"contracts/Library.sol\":2626:2631  index */\n      dup4\n        /* \"contracts/Library.sol\":2615:2632  BookLedger[index] */\n      dup2\n      mstore\n      0x20\n      add\n      swap1\n      dup2\n      mstore\n      0x20\n      add\n      0x00\n      keccak256\n        /* \"contracts/Library.sol\":2615:2639  BookLedger[index].copies */\n      0x01\n      add\n      sload\n        /* \"contracts/Library.sol\":2615:2643  BookLedger[index].copies > 0 */\n      gt\n        /* \"contracts/Library.sol\":2562:2643  !isAlreadyIssued[msg.sender][index] &&\r... */\n    tag_146:\n        /* \"contracts/Library.sol\":2558:2741  if (!isAlreadyIssued[msg.sender][index] &&\r... */\n      iszero\n      tag_147\n      jumpi\n        /* \"contracts/Library.sol\":2687:2692  index */\n      dup1\n        /* \"contracts/Library.sol\":2664:2670  result */\n      dup3\n        /* \"contracts/Library.sol\":2671:2683  currentIndex */\n      dup5\n        /* \"contracts/Library.sol\":2664:2684  result[currentIndex] */\n      dup2\n      mload\n      dup2\n      lt\n      tag_148\n      jumpi\n      tag_149\n      tag_98\n      jump\t// in\n    tag_149:\n    tag_148:\n      0x20\n      mul\n      0x20\n      add\n      add\n        /* \"contracts/Library.sol\":2664:2692  result[currentIndex] = index */\n      dup2\n      dup2\n      mstore\n      pop\n      pop\n        /* \"contracts/Library.sol\":2711:2725  currentIndex++ */\n      dup3\n      dup1\n      tag_150\n      swap1\n      tag_100\n      jump\t// in\n    tag_150:\n      swap4\n      pop\n      pop\n        /* \"contracts/Library.sol\":2558:2741  if (!isAlreadyIssued[msg.sender][index] &&\r... */\n    tag_147:\n        /* \"contracts/Library.sol\":2534:2541  index++ */\n      dup1\n      dup1\n      tag_151\n      swap1\n      tag_100\n      jump\t// in\n    tag_151:\n      swap2\n      pop\n      pop\n        /* \"contracts/Library.sol\":2490:2752  for (uint256 index = 1; index <= bookCount; index++) {\r... */\n      jump(tag_143)\n    tag_144:\n      pop\n        /* \"contracts/Library.sol\":2769:2775  result */\n      dup1\n        /* \"contracts/Library.sol\":2762:2775  return result */\n      swap3\n      pop\n      pop\n      pop\n        /* \"contracts/Library.sol\":2055:2783  function getAllAvailableBooks() external view returns (uint256[] memory) {\r... */\n      swap1\n      jump\t// out\n        /* \"@openzeppelin/contracts/access/Ownable.sol\":1359:1489  function _checkOwner() internal view virtual {... */\n    tag_60:\n        /* \"@openzeppelin/contracts/access/Ownable.sol\":1433:1445  _msgSender() */\n      tag_153\n        /* \"@openzeppelin/contracts/access/Ownable.sol\":1433:1443  _msgSender */\n      tag_154\n        /* \"@openzeppelin/contracts/access/Ownable.sol\":1433:1445  _msgSender() */\n      jump\t// in\n    tag_153:\n        /* \"@openzeppelin/contracts/access/Ownable.sol\":1422:1445  owner() == _msgSender() */\n      0xffffffffffffffffffffffffffffffffffffffff\n      and\n        /* \"@openzeppelin/contracts/access/Ownable.sol\":1422:1429  owner() */\n      tag_155\n        /* \"@openzeppelin/contracts/access/Ownable.sol\":1422:1427  owner */\n      tag_40\n        /* \"@openzeppelin/contracts/access/Ownable.sol\":1422:1429  owner() */\n      jump\t// in\n    tag_155:\n        /* \"@openzeppelin/contracts/access/Ownable.sol\":1422:1445  owner() == _msgSender() */\n      0xffffffffffffffffffffffffffffffffffffffff\n      and\n      eq\n        /* \"@openzeppelin/contracts/access/Ownable.sol\":1414:1482  require(owner() == _msgSender(), \"Ownable: caller is not the owner\") */\n      tag_156\n      jumpi\n      mload(0x40)\n      0x08c379a000000000000000000000000000000000000000000000000000000000\n      dup2\n      mstore\n      0x04\n      add\n      tag_157\n      swap1\n      tag_158\n      jump\t// in\n    tag_157:\n      mload(0x40)\n      dup1\n      swap2\n      sub\n      swap1\n      revert\n    tag_156:\n        /* \"@openzeppelin/contracts/access/Ownable.sol\":1359:1489  function _checkOwner() internal view virtual {... */\n      jump\t// out\n        /* \"@openzeppelin/contracts/access/Ownable.sol\":2433:2620  function _transferOwnership(address newOwner) internal virtual {... */\n    tag_105:\n        /* \"@openzeppelin/contracts/access/Ownable.sol\":2506:2522  address oldOwner */\n      0x00\n        /* \"@openzeppelin/contracts/access/Ownable.sol\":2525:2531  _owner */\n      dup1\n      0x00\n      swap1\n      sload\n      swap1\n      0x0100\n      exp\n      swap1\n      div\n      0xffffffffffffffffffffffffffffffffffffffff\n      and\n        /* \"@openzeppelin/contracts/access/Ownable.sol\":2506:2531  address oldOwner = _owner */\n      swap1\n      pop\n        /* \"@openzeppelin/contracts/access/Ownable.sol\":2550:2558  newOwner */\n      dup2\n        /* \"@openzeppelin/contracts/access/Ownable.sol\":2541:2547  _owner */\n      0x00\n      dup1\n        /* \"@openzeppelin/contracts/access/Ownable.sol\":2541:2558  _owner = newOwner */\n      0x0100\n      exp\n      dup2\n      sload\n      dup2\n      0xffffffffffffffffffffffffffffffffffffffff\n      mul\n      not\n      and\n      swap1\n      dup4\n      0xffffffffffffffffffffffffffffffffffffffff\n      and\n      mul\n      or\n      swap1\n      sstore\n      pop\n        /* \"@openzeppelin/contracts/access/Ownable.sol\":2604:2612  newOwner */\n      dup2\n        /* \"@openzeppelin/contracts/access/Ownable.sol\":2573:2613  OwnershipTransferred(oldOwner, newOwner) */\n      0xffffffffffffffffffffffffffffffffffffffff\n      and\n        /* \"@openzeppelin/contracts/access/Ownable.sol\":2594:2602  oldOwner */\n      dup2\n        /* \"@openzeppelin/contracts/access/Ownable.sol\":2573:2613  OwnershipTransferred(oldOwner, newOwner) */\n      0xffffffffffffffffffffffffffffffffffffffff\n      and\n      0x8be0079c531659141344cd1fd0a4f28419497f9722a3daafe3b4186f6b6457e0\n      mload(0x40)\n      mload(0x40)\n      dup1\n      swap2\n      sub\n      swap1\n      log3\n        /* \"@openzeppelin/contracts/access/Ownable.sol\":2496:2620  {... */\n      pop\n        /* \"@openzeppelin/contracts/access/Ownable.sol\":2433:2620  function _transferOwnership(address newOwner) internal virtual {... */\n      pop\n      jump\t// out\n        /* \"@openzeppelin/contracts/utils/Context.sol\":640:736  function _msgSender() internal view virtual returns (address) {... */\n    tag_154:\n        /* \"@openzeppelin/contracts/utils/Context.sol\":693:700  address */\n      0x00\n        /* \"@openzeppelin/contracts/utils/Context.sol\":719:729  msg.sender */\n      caller\n        /* \"@openzeppelin/contracts/utils/Context.sol\":712:729  return msg.sender */\n      swap1\n      pop\n        /* \"@openzeppelin/contracts/utils/Context.sol\":640:736  function _msgSender() internal view virtual returns (address) {... */\n      swap1\n      jump\t// out\n    tag_87:\n      dup3\n      dup1\n      sload\n      tag_161\n      swap1\n      tag_66\n      jump\t// in\n    tag_161:\n      swap1\n      0x00\n      mstore\n      keccak256(0x00, 0x20)\n      swap1\n      0x1f\n      add\n      0x20\n      swap1\n      div\n      dup2\n      add\n      swap3\n      dup3\n      tag_163\n      jumpi\n      0x00\n      dup6\n      sstore\n      jump(tag_162)\n    tag_163:\n      dup3\n      0x1f\n      lt\n      tag_164\n      jumpi\n      dup1\n      mload\n      not(0xff)\n      and\n      dup4\n      dup1\n      add\n      or\n      dup6\n      sstore\n      jump(tag_162)\n    tag_164:\n      dup3\n      dup1\n      add\n      0x01\n      add\n      dup6\n      sstore\n      dup3\n      iszero\n      tag_162\n      jumpi\n      swap2\n      dup3\n      add\n    tag_165:\n      dup3\n      dup2\n      gt\n      iszero\n      tag_166\n      jumpi\n      dup3\n      mload\n      dup3\n      sstore\n      swap2\n      0x20\n      add\n      swap2\n      swap1\n      0x01\n      add\n      swap1\n      jump(tag_165)\n    tag_166:\n    tag_162:\n      pop\n      swap1\n      pop\n      tag_167\n      swap2\n      swap1\n      tag_168\n      jump\t// in\n    tag_167:\n      pop\n      swap1\n      jump\t// out\n    tag_168:\n    tag_169:\n      dup1\n      dup3\n      gt\n      iszero\n      tag_170\n      jumpi\n      0x00\n      dup2\n      0x00\n      swap1\n      sstore\n      pop\n      0x01\n      add\n      jump(tag_169)\n    tag_170:\n      pop\n      swap1\n      jump\t// out\n        /* \"#utility.yul\":7:419   */\n    tag_172:\n        /* \"#utility.yul\":85:90   */\n      0x00\n        /* \"#utility.yul\":110:176   */\n      tag_174\n        /* \"#utility.yul\":126:175   */\n      tag_175\n        /* \"#utility.yul\":168:174   */\n      dup5\n        /* \"#utility.yul\":126:175   */\n      tag_176\n      jump\t// in\n    tag_175:\n        /* \"#utility.yul\":110:176   */\n      tag_177\n      jump\t// in\n    tag_174:\n        /* \"#utility.yul\":101:176   */\n      swap1\n      pop\n        /* \"#utility.yul\":199:205   */\n      dup3\n        /* \"#utility.yul\":192:197   */\n      dup2\n        /* \"#utility.yul\":185:206   */\n      mstore\n        /* \"#utility.yul\":237:241   */\n      0x20\n        /* \"#utility.yul\":230:235   */\n      dup2\n        /* \"#utility.yul\":226:242   */\n      add\n        /* \"#utility.yul\":275:278   */\n      dup5\n        /* \"#utility.yul\":266:272   */\n      dup5\n        /* \"#utility.yul\":261:264   */\n      dup5\n        /* \"#utility.yul\":257:273   */\n      add\n        /* \"#utility.yul\":254:279   */\n      gt\n        /* \"#utility.yul\":251:363   */\n      iszero\n      tag_178\n      jumpi\n        /* \"#utility.yul\":282:361   */\n      tag_179\n      tag_180\n      jump\t// in\n    tag_179:\n        /* \"#utility.yul\":251:363   */\n    tag_178:\n        /* \"#utility.yul\":372:413   */\n      tag_181\n        /* \"#utility.yul\":406:412   */\n      dup5\n        /* \"#utility.yul\":401:404   */\n      dup3\n        /* \"#utility.yul\":396:399   */\n      dup6\n        /* \"#utility.yul\":372:413   */\n      tag_182\n      jump\t// in\n    tag_181:\n        /* \"#utility.yul\":91:419   */\n      pop\n        /* \"#utility.yul\":7:419   */\n      swap4\n      swap3\n      pop\n      pop\n      pop\n      jump\t// out\n        /* \"#utility.yul\":425:564   */\n    tag_183:\n        /* \"#utility.yul\":471:476   */\n      0x00\n        /* \"#utility.yul\":509:515   */\n      dup2\n        /* \"#utility.yul\":496:516   */\n      calldataload\n        /* \"#utility.yul\":487:516   */\n      swap1\n      pop\n        /* \"#utility.yul\":525:558   */\n      tag_185\n        /* \"#utility.yul\":552:557   */\n      dup2\n        /* \"#utility.yul\":525:558   */\n      tag_186\n      jump\t// in\n    tag_185:\n        /* \"#utility.yul\":425:564   */\n      swap3\n      swap2\n      pop\n      pop\n      jump\t// out\n        /* \"#utility.yul\":584:924   */\n    tag_187:\n        /* \"#utility.yul\":640:645   */\n      0x00\n        /* \"#utility.yul\":689:692   */\n      dup3\n        /* \"#utility.yul\":682:686   */\n      0x1f\n        /* \"#utility.yul\":674:680   */\n      dup4\n        /* \"#utility.yul\":670:687   */\n      add\n        /* \"#utility.yul\":666:693   */\n      slt\n        /* \"#utility.yul\":656:778   */\n      tag_189\n      jumpi\n        /* \"#utility.yul\":697:776   */\n      tag_190\n      tag_191\n      jump\t// in\n    tag_190:\n        /* \"#utility.yul\":656:778   */\n    tag_189:\n        /* \"#utility.yul\":814:820   */\n      dup2\n        /* \"#utility.yul\":801:821   */\n      calldataload\n        /* \"#utility.yul\":839:918   */\n      tag_192\n        /* \"#utility.yul\":914:917   */\n      dup5\n        /* \"#utility.yul\":906:912   */\n      dup3\n        /* \"#utility.yul\":899:903   */\n      0x20\n        /* \"#utility.yul\":891:897   */\n      dup7\n        /* \"#utility.yul\":887:904   */\n      add\n        /* \"#utility.yul\":839:918   */\n      tag_172\n      jump\t// in\n    tag_192:\n        /* \"#utility.yul\":830:918   */\n      swap2\n      pop\n        /* \"#utility.yul\":646:924   */\n      pop\n        /* \"#utility.yul\":584:924   */\n      swap3\n      swap2\n      pop\n      pop\n      jump\t// out\n        /* \"#utility.yul\":930:1069   */\n    tag_193:\n        /* \"#utility.yul\":976:981   */\n      0x00\n        /* \"#utility.yul\":1014:1020   */\n      dup2\n        /* \"#utility.yul\":1001:1021   */\n      calldataload\n        /* \"#utility.yul\":992:1021   */\n      swap1\n      pop\n        /* \"#utility.yul\":1030:1063   */\n      tag_195\n        /* \"#utility.yul\":1057:1062   */\n      dup2\n        /* \"#utility.yul\":1030:1063   */\n      tag_196\n      jump\t// in\n    tag_195:\n        /* \"#utility.yul\":930:1069   */\n      swap3\n      swap2\n      pop\n      pop\n      jump\t// out\n        /* \"#utility.yul\":1075:1404   */\n    tag_52:\n        /* \"#utility.yul\":1134:1140   */\n      0x00\n        /* \"#utility.yul\":1183:1185   */\n      0x20\n        /* \"#utility.yul\":1171:1180   */\n      dup3\n        /* \"#utility.yul\":1162:1169   */\n      dup5\n        /* \"#utility.yul\":1158:1181   */\n      sub\n        /* \"#utility.yul\":1154:1186   */\n      slt\n        /* \"#utility.yul\":1151:1270   */\n      iszero\n      tag_198\n      jumpi\n        /* \"#utility.yul\":1189:1268   */\n      tag_199\n      tag_200\n      jump\t// in\n    tag_199:\n        /* \"#utility.yul\":1151:1270   */\n    tag_198:\n        /* \"#utility.yul\":1309:1310   */\n      0x00\n        /* \"#utility.yul\":1334:1387   */\n      tag_201\n        /* \"#utility.yul\":1379:1386   */\n      dup5\n        /* \"#utility.yul\":1370:1376   */\n      dup3\n        /* \"#utility.yul\":1359:1368   */\n      dup6\n        /* \"#utility.yul\":1355:1377   */\n      add\n        /* \"#utility.yul\":1334:1387   */\n      tag_183\n      jump\t// in\n    tag_201:\n        /* \"#utility.yul\":1324:1387   */\n      swap2\n      pop\n        /* \"#utility.yul\":1280:1397   */\n      pop\n        /* \"#utility.yul\":1075:1404   */\n      swap3\n      swap2\n      pop\n      pop\n      jump\t// out\n        /* \"#utility.yul\":1410:2064   */\n    tag_21:\n        /* \"#utility.yul\":1488:1494   */\n      0x00\n        /* \"#utility.yul\":1496:1502   */\n      dup1\n        /* \"#utility.yul\":1545:1547   */\n      0x40\n        /* \"#utility.yul\":1533:1542   */\n      dup4\n        /* \"#utility.yul\":1524:1531   */\n      dup6\n        /* \"#utility.yul\":1520:1543   */\n      sub\n        /* \"#utility.yul\":1516:1548   */\n      slt\n        /* \"#utility.yul\":1513:1632   */\n      iszero\n      tag_203\n      jumpi\n        /* \"#utility.yul\":1551:1630   */\n      tag_204\n      tag_200\n      jump\t// in\n    tag_204:\n        /* \"#utility.yul\":1513:1632   */\n    tag_203:\n        /* \"#utility.yul\":1699:1700   */\n      0x00\n        /* \"#utility.yul\":1688:1697   */\n      dup4\n        /* \"#utility.yul\":1684:1701   */\n      add\n        /* \"#utility.yul\":1671:1702   */\n      calldataload\n        /* \"#utility.yul\":1729:1747   */\n      0xffffffffffffffff\n        /* \"#utility.yul\":1721:1727   */\n      dup2\n        /* \"#utility.yul\":1718:1748   */\n      gt\n        /* \"#utility.yul\":1715:1832   */\n      iszero\n      tag_205\n      jumpi\n        /* \"#utility.yul\":1751:1830   */\n      tag_206\n      tag_207\n      jump\t// in\n    tag_206:\n        /* \"#utility.yul\":1715:1832   */\n    tag_205:\n        /* \"#utility.yul\":1856:1919   */\n      tag_208\n        /* \"#utility.yul\":1911:1918   */\n      dup6\n        /* \"#utility.yul\":1902:1908   */\n      dup3\n        /* \"#utility.yul\":1891:1900   */\n      dup7\n        /* \"#utility.yul\":1887:1909   */\n      add\n        /* \"#utility.yul\":1856:1919   */\n      tag_187\n      jump\t// in\n    tag_208:\n        /* \"#utility.yul\":1846:1919   */\n      swap3\n      pop\n        /* \"#utility.yul\":1642:1929   */\n      pop\n        /* \"#utility.yul\":1968:1970   */\n      0x20\n        /* \"#utility.yul\":1994:2047   */\n      tag_209\n        /* \"#utility.yul\":2039:2046   */\n      dup6\n        /* \"#utility.yul\":2030:2036   */\n      dup3\n        /* \"#utility.yul\":2019:2028   */\n      dup7\n        /* \"#utility.yul\":2015:2037   */\n      add\n        /* \"#utility.yul\":1994:2047   */\n      tag_193\n      jump\t// in\n    tag_209:\n        /* \"#utility.yul\":1984:2047   */\n      swap2\n      pop\n        /* \"#utility.yul\":1939:2057   */\n      pop\n        /* \"#utility.yul\":1410:2064   */\n      swap3\n      pop\n      swap3\n      swap1\n      pop\n      jump\t// out\n        /* \"#utility.yul\":2070:2399   */\n    tag_25:\n        /* \"#utility.yul\":2129:2135   */\n      0x00\n        /* \"#utility.yul\":2178:2180   */\n      0x20\n        /* \"#utility.yul\":2166:2175   */\n      dup3\n        /* \"#utility.yul\":2157:2164   */\n      dup5\n        /* \"#utility.yul\":2153:2176   */\n      sub\n        /* \"#utility.yul\":2149:2181   */\n      slt\n        /* \"#utility.yul\":2146:2265   */\n      iszero\n      tag_211\n      jumpi\n        /* \"#utility.yul\":2184:2263   */\n      tag_212\n      tag_200\n      jump\t// in\n    tag_212:\n        /* \"#utility.yul\":2146:2265   */\n    tag_211:\n        /* \"#utility.yul\":2304:2305   */\n      0x00\n        /* \"#utility.yul\":2329:2382   */\n      tag_213\n        /* \"#utility.yul\":2374:2381   */\n      dup5\n        /* \"#utility.yul\":2365:2371   */\n      dup3\n        /* \"#utility.yul\":2354:2363   */\n      dup6\n        /* \"#utility.yul\":2350:2372   */\n      add\n        /* \"#utility.yul\":2329:2382   */\n      tag_193\n      jump\t// in\n    tag_213:\n        /* \"#utility.yul\":2319:2382   */\n      swap2\n      pop\n        /* \"#utility.yul\":2275:2392   */\n      pop\n        /* \"#utility.yul\":2070:2399   */\n      swap3\n      swap2\n      pop\n      pop\n      jump\t// out\n        /* \"#utility.yul\":2405:2879   */\n    tag_17:\n        /* \"#utility.yul\":2473:2479   */\n      0x00\n        /* \"#utility.yul\":2481:2487   */\n      dup1\n        /* \"#utility.yul\":2530:2532   */\n      0x40\n        /* \"#utility.yul\":2518:2527   */\n      dup4\n        /* \"#utility.yul\":2509:2516   */\n      dup6\n        /* \"#utility.yul\":2505:2528   */\n      sub\n        /* \"#utility.yul\":2501:2533   */\n      slt\n        /* \"#utility.yul\":2498:2617   */\n      iszero\n      tag_215\n      jumpi\n        /* \"#utility.yul\":2536:2615   */\n      tag_216\n      tag_200\n      jump\t// in\n    tag_216:\n        /* \"#utility.yul\":2498:2617   */\n    tag_215:\n        /* \"#utility.yul\":2656:2657   */\n      0x00\n        /* \"#utility.yul\":2681:2734   */\n      tag_217\n        /* \"#utility.yul\":2726:2733   */\n      dup6\n        /* \"#utility.yul\":2717:2723   */\n      dup3\n        /* \"#utility.yul\":2706:2715   */\n      dup7\n        /* \"#utility.yul\":2702:2724   */\n      add\n        /* \"#utility.yul\":2681:2734   */\n      tag_193\n      jump\t// in\n    tag_217:\n        /* \"#utility.yul\":2671:2734   */\n      swap3\n      pop\n        /* \"#utility.yul\":2627:2744   */\n      pop\n        /* \"#utility.yul\":2783:2785   */\n      0x20\n        /* \"#utility.yul\":2809:2862   */\n      tag_218\n        /* \"#utility.yul\":2854:2861   */\n      dup6\n        /* \"#utility.yul\":2845:2851   */\n      dup3\n        /* \"#utility.yul\":2834:2843   */\n      dup7\n        /* \"#utility.yul\":2830:2852   */\n      add\n        /* \"#utility.yul\":2809:2862   */\n      tag_193\n      jump\t// in\n    tag_218:\n        /* \"#utility.yul\":2799:2862   */\n      swap2\n      pop\n        /* \"#utility.yul\":2754:2872   */\n      pop\n        /* \"#utility.yul\":2405:2879   */\n      swap3\n      pop\n      swap3\n      swap1\n      pop\n      jump\t// out\n        /* \"#utility.yul\":2885:3064   */\n    tag_219:\n        /* \"#utility.yul\":2954:2964   */\n      0x00\n        /* \"#utility.yul\":2975:3021   */\n      tag_221\n        /* \"#utility.yul\":3017:3020   */\n      dup4\n        /* \"#utility.yul\":3009:3015   */\n      dup4\n        /* \"#utility.yul\":2975:3021   */\n      tag_222\n      jump\t// in\n    tag_221:\n        /* \"#utility.yul\":3053:3057   */\n      0x20\n        /* \"#utility.yul\":3048:3051   */\n      dup4\n        /* \"#utility.yul\":3044:3058   */\n      add\n        /* \"#utility.yul\":3030:3058   */\n      swap1\n      pop\n        /* \"#utility.yul\":2885:3064   */\n      swap3\n      swap2\n      pop\n      pop\n      jump\t// out\n        /* \"#utility.yul\":3070:3249   */\n    tag_223:\n        /* \"#utility.yul\":3139:3149   */\n      0x00\n        /* \"#utility.yul\":3160:3206   */\n      tag_225\n        /* \"#utility.yul\":3202:3205   */\n      dup4\n        /* \"#utility.yul\":3194:3200   */\n      dup4\n        /* \"#utility.yul\":3160:3206   */\n      tag_226\n      jump\t// in\n    tag_225:\n        /* \"#utility.yul\":3238:3242   */\n      0x20\n        /* \"#utility.yul\":3233:3236   */\n      dup4\n        /* \"#utility.yul\":3229:3243   */\n      add\n        /* \"#utility.yul\":3215:3243   */\n      swap1\n      pop\n        /* \"#utility.yul\":3070:3249   */\n      swap3\n      swap2\n      pop\n      pop\n      jump\t// out\n        /* \"#utility.yul\":3255:3363   */\n    tag_222:\n        /* \"#utility.yul\":3332:3356   */\n      tag_228\n        /* \"#utility.yul\":3350:3355   */\n      dup2\n        /* \"#utility.yul\":3332:3356   */\n      tag_229\n      jump\t// in\n    tag_228:\n        /* \"#utility.yul\":3327:3330   */\n      dup3\n        /* \"#utility.yul\":3320:3357   */\n      mstore\n        /* \"#utility.yul\":3255:3363   */\n      pop\n      pop\n      jump\t// out\n        /* \"#utility.yul\":3369:3487   */\n    tag_230:\n        /* \"#utility.yul\":3456:3480   */\n      tag_232\n        /* \"#utility.yul\":3474:3479   */\n      dup2\n        /* \"#utility.yul\":3456:3480   */\n      tag_229\n      jump\t// in\n    tag_232:\n        /* \"#utility.yul\":3451:3454   */\n      dup3\n        /* \"#utility.yul\":3444:3481   */\n      mstore\n        /* \"#utility.yul\":3369:3487   */\n      pop\n      pop\n      jump\t// out\n        /* \"#utility.yul\":3523:4255   */\n    tag_233:\n        /* \"#utility.yul\":3642:3645   */\n      0x00\n        /* \"#utility.yul\":3671:3725   */\n      tag_235\n        /* \"#utility.yul\":3719:3724   */\n      dup3\n        /* \"#utility.yul\":3671:3725   */\n      tag_236\n      jump\t// in\n    tag_235:\n        /* \"#utility.yul\":3741:3827   */\n      tag_237\n        /* \"#utility.yul\":3820:3826   */\n      dup2\n        /* \"#utility.yul\":3815:3818   */\n      dup6\n        /* \"#utility.yul\":3741:3827   */\n      tag_238\n      jump\t// in\n    tag_237:\n        /* \"#utility.yul\":3734:3827   */\n      swap4\n      pop\n        /* \"#utility.yul\":3851:3907   */\n      tag_239\n        /* \"#utility.yul\":3901:3906   */\n      dup4\n        /* \"#utility.yul\":3851:3907   */\n      tag_240\n      jump\t// in\n    tag_239:\n        /* \"#utility.yul\":3930:3937   */\n      dup1\n        /* \"#utility.yul\":3961:3962   */\n      0x00\n        /* \"#utility.yul\":3946:4230   */\n    tag_241:\n        /* \"#utility.yul\":3971:3977   */\n      dup4\n        /* \"#utility.yul\":3968:3969   */\n      dup2\n        /* \"#utility.yul\":3965:3978   */\n      lt\n        /* \"#utility.yul\":3946:4230   */\n      iszero\n      tag_243\n      jumpi\n        /* \"#utility.yul\":4047:4053   */\n      dup2\n        /* \"#utility.yul\":4041:4054   */\n      mload\n        /* \"#utility.yul\":4074:4137   */\n      tag_244\n        /* \"#utility.yul\":4133:4136   */\n      dup9\n        /* \"#utility.yul\":4118:4131   */\n      dup3\n        /* \"#utility.yul\":4074:4137   */\n      tag_219\n      jump\t// in\n    tag_244:\n        /* \"#utility.yul\":4067:4137   */\n      swap8\n      pop\n        /* \"#utility.yul\":4160:4220   */\n      tag_245\n        /* \"#utility.yul\":4213:4219   */\n      dup4\n        /* \"#utility.yul\":4160:4220   */\n      tag_246\n      jump\t// in\n    tag_245:\n        /* \"#utility.yul\":4150:4220   */\n      swap3\n      pop\n        /* \"#utility.yul\":4006:4230   */\n      pop\n        /* \"#utility.yul\":3993:3994   */\n      0x01\n        /* \"#utility.yul\":3990:3991   */\n      dup2\n        /* \"#utility.yul\":3986:3995   */\n      add\n        /* \"#utility.yul\":3981:3995   */\n      swap1\n      pop\n        /* \"#utility.yul\":3946:4230   */\n      jump(tag_241)\n    tag_243:\n        /* \"#utility.yul\":3950:3964   */\n      pop\n        /* \"#utility.yul\":4246:4249   */\n      dup6\n        /* \"#utility.yul\":4239:4249   */\n      swap4\n      pop\n        /* \"#utility.yul\":3647:4255   */\n      pop\n      pop\n      pop\n        /* \"#utility.yul\":3523:4255   */\n      swap3\n      swap2\n      pop\n      pop\n      jump\t// out\n        /* \"#utility.yul\":4291:5023   */\n    tag_247:\n        /* \"#utility.yul\":4410:4413   */\n      0x00\n        /* \"#utility.yul\":4439:4493   */\n      tag_249\n        /* \"#utility.yul\":4487:4492   */\n      dup3\n        /* \"#utility.yul\":4439:4493   */\n      tag_250\n      jump\t// in\n    tag_249:\n        /* \"#utility.yul\":4509:4595   */\n      tag_251\n        /* \"#utility.yul\":4588:4594   */\n      dup2\n        /* \"#utility.yul\":4583:4586   */\n      dup6\n        /* \"#utility.yul\":4509:4595   */\n      tag_252\n      jump\t// in\n    tag_251:\n        /* \"#utility.yul\":4502:4595   */\n      swap4\n      pop\n        /* \"#utility.yul\":4619:4675   */\n      tag_253\n        /* \"#utility.yul\":4669:4674   */\n      dup4\n        /* \"#utility.yul\":4619:4675   */\n      tag_254\n      jump\t// in\n    tag_253:\n        /* \"#utility.yul\":4698:4705   */\n      dup1\n        /* \"#utility.yul\":4729:4730   */\n      0x00\n        /* \"#utility.yul\":4714:4998   */\n    tag_255:\n        /* \"#utility.yul\":4739:4745   */\n      dup4\n        /* \"#utility.yul\":4736:4737   */\n      dup2\n        /* \"#utility.yul\":4733:4746   */\n      lt\n        /* \"#utility.yul\":4714:4998   */\n      iszero\n      tag_257\n      jumpi\n        /* \"#utility.yul\":4815:4821   */\n      dup2\n        /* \"#utility.yul\":4809:4822   */\n      mload\n        /* \"#utility.yul\":4842:4905   */\n      tag_258\n        /* \"#utility.yul\":4901:4904   */\n      dup9\n        /* \"#utility.yul\":4886:4899   */\n      dup3\n        /* \"#utility.yul\":4842:4905   */\n      tag_223\n      jump\t// in\n    tag_258:\n        /* \"#utility.yul\":4835:4905   */\n      swap8\n      pop\n        /* \"#utility.yul\":4928:4988   */\n      tag_259\n        /* \"#utility.yul\":4981:4987   */\n      dup4\n        /* \"#utility.yul\":4928:4988   */\n      tag_260\n      jump\t// in\n    tag_259:\n        /* \"#utility.yul\":4918:4988   */\n      swap3\n      pop\n        /* \"#utility.yul\":4774:4998   */\n      pop\n        /* \"#utility.yul\":4761:4762   */\n      0x01\n        /* \"#utility.yul\":4758:4759   */\n      dup2\n        /* \"#utility.yul\":4754:4763   */\n      add\n        /* \"#utility.yul\":4749:4763   */\n      swap1\n      pop\n        /* \"#utility.yul\":4714:4998   */\n      jump(tag_255)\n    tag_257:\n        /* \"#utility.yul\":4718:4732   */\n      pop\n        /* \"#utility.yul\":5014:5017   */\n      dup6\n        /* \"#utility.yul\":5007:5017   */\n      swap4\n      pop\n        /* \"#utility.yul\":4415:5023   */\n      pop\n      pop\n      pop\n        /* \"#utility.yul\":4291:5023   */\n      swap3\n      swap2\n      pop\n      pop\n      jump\t// out\n        /* \"#utility.yul\":5029:5393   */\n    tag_261:\n        /* \"#utility.yul\":5117:5120   */\n      0x00\n        /* \"#utility.yul\":5145:5184   */\n      tag_263\n        /* \"#utility.yul\":5178:5183   */\n      dup3\n        /* \"#utility.yul\":5145:5184   */\n      tag_264\n      jump\t// in\n    tag_263:\n        /* \"#utility.yul\":5200:5271   */\n      tag_265\n        /* \"#utility.yul\":5264:5270   */\n      dup2\n        /* \"#utility.yul\":5259:5262   */\n      dup6\n        /* \"#utility.yul\":5200:5271   */\n      tag_266\n      jump\t// in\n    tag_265:\n        /* \"#utility.yul\":5193:5271   */\n      swap4\n      pop\n        /* \"#utility.yul\":5280:5332   */\n      tag_267\n        /* \"#utility.yul\":5325:5331   */\n      dup2\n        /* \"#utility.yul\":5320:5323   */\n      dup6\n        /* \"#utility.yul\":5313:5317   */\n      0x20\n        /* \"#utility.yul\":5306:5311   */\n      dup7\n        /* \"#utility.yul\":5302:5318   */\n      add\n        /* \"#utility.yul\":5280:5332   */\n      tag_268\n      jump\t// in\n    tag_267:\n        /* \"#utility.yul\":5357:5386   */\n      tag_269\n        /* \"#utility.yul\":5379:5385   */\n      dup2\n        /* \"#utility.yul\":5357:5386   */\n      tag_270\n      jump\t// in\n    tag_269:\n        /* \"#utility.yul\":5352:5355   */\n      dup5\n        /* \"#utility.yul\":5348:5387   */\n      add\n        /* \"#utility.yul\":5341:5387   */\n      swap2\n      pop\n        /* \"#utility.yul\":5121:5393   */\n      pop\n        /* \"#utility.yul\":5029:5393   */\n      swap3\n      swap2\n      pop\n      pop\n      jump\t// out\n        /* \"#utility.yul\":5399:5776   */\n    tag_271:\n        /* \"#utility.yul\":5505:5508   */\n      0x00\n        /* \"#utility.yul\":5533:5572   */\n      tag_273\n        /* \"#utility.yul\":5566:5571   */\n      dup3\n        /* \"#utility.yul\":5533:5572   */\n      tag_264\n      jump\t// in\n    tag_273:\n        /* \"#utility.yul\":5588:5677   */\n      tag_274\n        /* \"#utility.yul\":5670:5676   */\n      dup2\n        /* \"#utility.yul\":5665:5668   */\n      dup6\n        /* \"#utility.yul\":5588:5677   */\n      tag_275\n      jump\t// in\n    tag_274:\n        /* \"#utility.yul\":5581:5677   */\n      swap4\n      pop\n        /* \"#utility.yul\":5686:5738   */\n      tag_276\n        /* \"#utility.yul\":5731:5737   */\n      dup2\n        /* \"#utility.yul\":5726:5729   */\n      dup6\n        /* \"#utility.yul\":5719:5723   */\n      0x20\n        /* \"#utility.yul\":5712:5717   */\n      dup7\n        /* \"#utility.yul\":5708:5724   */\n      add\n        /* \"#utility.yul\":5686:5738   */\n      tag_268\n      jump\t// in\n    tag_276:\n        /* \"#utility.yul\":5763:5769   */\n      dup1\n        /* \"#utility.yul\":5758:5761   */\n      dup5\n        /* \"#utility.yul\":5754:5770   */\n      add\n        /* \"#utility.yul\":5747:5770   */\n      swap2\n      pop\n        /* \"#utility.yul\":5509:5776   */\n      pop\n        /* \"#utility.yul\":5399:5776   */\n      swap3\n      swap2\n      pop\n      pop\n      jump\t// out\n        /* \"#utility.yul\":5782:6148   */\n    tag_277:\n        /* \"#utility.yul\":5924:5927   */\n      0x00\n        /* \"#utility.yul\":5945:6012   */\n      tag_279\n        /* \"#utility.yul\":6009:6011   */\n      0x14\n        /* \"#utility.yul\":6004:6007   */\n      dup4\n        /* \"#utility.yul\":5945:6012   */\n      tag_266\n      jump\t// in\n    tag_279:\n        /* \"#utility.yul\":5938:6012   */\n      swap2\n      pop\n        /* \"#utility.yul\":6021:6114   */\n      tag_280\n        /* \"#utility.yul\":6110:6113   */\n      dup3\n        /* \"#utility.yul\":6021:6114   */\n      tag_281\n      jump\t// in\n    tag_280:\n        /* \"#utility.yul\":6139:6141   */\n      0x20\n        /* \"#utility.yul\":6134:6137   */\n      dup3\n        /* \"#utility.yul\":6130:6142   */\n      add\n        /* \"#utility.yul\":6123:6142   */\n      swap1\n      pop\n        /* \"#utility.yul\":5782:6148   */\n      swap2\n      swap1\n      pop\n      jump\t// out\n        /* \"#utility.yul\":6154:6520   */\n    tag_282:\n        /* \"#utility.yul\":6296:6299   */\n      0x00\n        /* \"#utility.yul\":6317:6384   */\n      tag_284\n        /* \"#utility.yul\":6381:6383   */\n      0x11\n        /* \"#utility.yul\":6376:6379   */\n      dup4\n        /* \"#utility.yul\":6317:6384   */\n      tag_266\n      jump\t// in\n    tag_284:\n        /* \"#utility.yul\":6310:6384   */\n      swap2\n      pop\n        /* \"#utility.yul\":6393:6486   */\n      tag_285\n        /* \"#utility.yul\":6482:6485   */\n      dup3\n        /* \"#utility.yul\":6393:6486   */\n      tag_286\n      jump\t// in\n    tag_285:\n        /* \"#utility.yul\":6511:6513   */\n      0x20\n        /* \"#utility.yul\":6506:6509   */\n      dup3\n        /* \"#utility.yul\":6502:6514   */\n      add\n        /* \"#utility.yul\":6495:6514   */\n      swap1\n      pop\n        /* \"#utility.yul\":6154:6520   */\n      swap2\n      swap1\n      pop\n      jump\t// out\n        /* \"#utility.yul\":6526:6892   */\n    tag_287:\n        /* \"#utility.yul\":6668:6671   */\n      0x00\n        /* \"#utility.yul\":6689:6756   */\n      tag_289\n        /* \"#utility.yul\":6753:6755   */\n      0x16\n        /* \"#utility.yul\":6748:6751   */\n      dup4\n        /* \"#utility.yul\":6689:6756   */\n      tag_266\n      jump\t// in\n    tag_289:\n        /* \"#utility.yul\":6682:6756   */\n      swap2\n      pop\n        /* \"#utility.yul\":6765:6858   */\n      tag_290\n        /* \"#utility.yul\":6854:6857   */\n      dup3\n        /* \"#utility.yul\":6765:6858   */\n      tag_291\n      jump\t// in\n    tag_290:\n        /* \"#utility.yul\":6883:6885   */\n      0x20\n        /* \"#utility.yul\":6878:6881   */\n      dup3\n        /* \"#utility.yul\":6874:6886   */\n      add\n        /* \"#utility.yul\":6867:6886   */\n      swap1\n      pop\n        /* \"#utility.yul\":6526:6892   */\n      swap2\n      swap1\n      pop\n      jump\t// out\n        /* \"#utility.yul\":6898:7264   */\n    tag_292:\n        /* \"#utility.yul\":7040:7043   */\n      0x00\n        /* \"#utility.yul\":7061:7128   */\n      tag_294\n        /* \"#utility.yul\":7125:7127   */\n      0x26\n        /* \"#utility.yul\":7120:7123   */\n      dup4\n        /* \"#utility.yul\":7061:7128   */\n      tag_266\n      jump\t// in\n    tag_294:\n        /* \"#utility.yul\":7054:7128   */\n      swap2\n      pop\n        /* \"#utility.yul\":7137:7230   */\n      tag_295\n        /* \"#utility.yul\":7226:7229   */\n      dup3\n        /* \"#utility.yul\":7137:7230   */\n      tag_296\n      jump\t// in\n    tag_295:\n        /* \"#utility.yul\":7255:7257   */\n      0x40\n        /* \"#utility.yul\":7250:7253   */\n      dup3\n        /* \"#utility.yul\":7246:7258   */\n      add\n        /* \"#utility.yul\":7239:7258   */\n      swap1\n      pop\n        /* \"#utility.yul\":6898:7264   */\n      swap2\n      swap1\n      pop\n      jump\t// out\n        /* \"#utility.yul\":7270:7636   */\n    tag_297:\n        /* \"#utility.yul\":7412:7415   */\n      0x00\n        /* \"#utility.yul\":7433:7500   */\n      tag_299\n        /* \"#utility.yul\":7497:7499   */\n      0x12\n        /* \"#utility.yul\":7492:7495   */\n      dup4\n        /* \"#utility.yul\":7433:7500   */\n      tag_266\n      jump\t// in\n    tag_299:\n        /* \"#utility.yul\":7426:7500   */\n      swap2\n      pop\n        /* \"#utility.yul\":7509:7602   */\n      tag_300\n        /* \"#utility.yul\":7598:7601   */\n      dup3\n        /* \"#utility.yul\":7509:7602   */\n      tag_301\n      jump\t// in\n    tag_300:\n        /* \"#utility.yul\":7627:7629   */\n      0x20\n        /* \"#utility.yul\":7622:7625   */\n      dup3\n        /* \"#utility.yul\":7618:7630   */\n      add\n        /* \"#utility.yul\":7611:7630   */\n      swap1\n      pop\n        /* \"#utility.yul\":7270:7636   */\n      swap2\n      swap1\n      pop\n      jump\t// out\n        /* \"#utility.yul\":7642:8008   */\n    tag_302:\n        /* \"#utility.yul\":7784:7787   */\n      0x00\n        /* \"#utility.yul\":7805:7872   */\n      tag_304\n        /* \"#utility.yul\":7869:7871   */\n      0x20\n        /* \"#utility.yul\":7864:7867   */\n      dup4\n        /* \"#utility.yul\":7805:7872   */\n      tag_266\n      jump\t// in\n    tag_304:\n        /* \"#utility.yul\":7798:7872   */\n      swap2\n      pop\n        /* \"#utility.yul\":7881:7974   */\n      tag_305\n        /* \"#utility.yul\":7970:7973   */\n      dup3\n        /* \"#utility.yul\":7881:7974   */\n      tag_306\n      jump\t// in\n    tag_305:\n        /* \"#utility.yul\":7999:8001   */\n      0x20\n        /* \"#utility.yul\":7994:7997   */\n      dup3\n        /* \"#utility.yul\":7990:8002   */\n      add\n        /* \"#utility.yul\":7983:8002   */\n      swap1\n      pop\n        /* \"#utility.yul\":7642:8008   */\n      swap2\n      swap1\n      pop\n      jump\t// out\n        /* \"#utility.yul\":8014:8379   */\n    tag_307:\n        /* \"#utility.yul\":8156:8159   */\n      0x00\n        /* \"#utility.yul\":8177:8243   */\n      tag_309\n        /* \"#utility.yul\":8241:8242   */\n      0x05\n        /* \"#utility.yul\":8236:8239   */\n      dup4\n        /* \"#utility.yul\":8177:8243   */\n      tag_266\n      jump\t// in\n    tag_309:\n        /* \"#utility.yul\":8170:8243   */\n      swap2\n      pop\n        /* \"#utility.yul\":8252:8345   */\n      tag_310\n        /* \"#utility.yul\":8341:8344   */\n      dup3\n        /* \"#utility.yul\":8252:8345   */\n      tag_311\n      jump\t// in\n    tag_310:\n        /* \"#utility.yul\":8370:8372   */\n      0x20\n        /* \"#utility.yul\":8365:8368   */\n      dup3\n        /* \"#utility.yul\":8361:8373   */\n      add\n        /* \"#utility.yul\":8354:8373   */\n      swap1\n      pop\n        /* \"#utility.yul\":8014:8379   */\n      swap2\n      swap1\n      pop\n      jump\t// out\n        /* \"#utility.yul\":8385:8751   */\n    tag_312:\n        /* \"#utility.yul\":8527:8530   */\n      0x00\n        /* \"#utility.yul\":8548:8615   */\n      tag_314\n        /* \"#utility.yul\":8612:8614   */\n      0x13\n        /* \"#utility.yul\":8607:8610   */\n      dup4\n        /* \"#utility.yul\":8548:8615   */\n      tag_266\n      jump\t// in\n    tag_314:\n        /* \"#utility.yul\":8541:8615   */\n      swap2\n      pop\n        /* \"#utility.yul\":8624:8717   */\n      tag_315\n        /* \"#utility.yul\":8713:8716   */\n      dup3\n        /* \"#utility.yul\":8624:8717   */\n      tag_316\n      jump\t// in\n    tag_315:\n        /* \"#utility.yul\":8742:8744   */\n      0x20\n        /* \"#utility.yul\":8737:8740   */\n      dup3\n        /* \"#utility.yul\":8733:8745   */\n      add\n        /* \"#utility.yul\":8726:8745   */\n      swap1\n      pop\n        /* \"#utility.yul\":8385:8751   */\n      swap2\n      swap1\n      pop\n      jump\t// out\n        /* \"#utility.yul\":8757:8865   */\n    tag_226:\n        /* \"#utility.yul\":8834:8858   */\n      tag_318\n        /* \"#utility.yul\":8852:8857   */\n      dup2\n        /* \"#utility.yul\":8834:8858   */\n      tag_319\n      jump\t// in\n    tag_318:\n        /* \"#utility.yul\":8829:8832   */\n      dup3\n        /* \"#utility.yul\":8822:8859   */\n      mstore\n        /* \"#utility.yul\":8757:8865   */\n      pop\n      pop\n      jump\t// out\n        /* \"#utility.yul\":8871:8989   */\n    tag_320:\n        /* \"#utility.yul\":8958:8982   */\n      tag_322\n        /* \"#utility.yul\":8976:8981   */\n      dup2\n        /* \"#utility.yul\":8958:8982   */\n      tag_319\n      jump\t// in\n    tag_322:\n        /* \"#utility.yul\":8953:8956   */\n      dup3\n        /* \"#utility.yul\":8946:8983   */\n      mstore\n        /* \"#utility.yul\":8871:8989   */\n      pop\n      pop\n      jump\t// out\n        /* \"#utility.yul\":8995:9270   */\n    tag_76:\n        /* \"#utility.yul\":9127:9130   */\n      0x00\n        /* \"#utility.yul\":9149:9244   */\n      tag_324\n        /* \"#utility.yul\":9240:9243   */\n      dup3\n        /* \"#utility.yul\":9231:9237   */\n      dup5\n        /* \"#utility.yul\":9149:9244   */\n      tag_271\n      jump\t// in\n    tag_324:\n        /* \"#utility.yul\":9142:9244   */\n      swap2\n      pop\n        /* \"#utility.yul\":9261:9264   */\n      dup2\n        /* \"#utility.yul\":9254:9264   */\n      swap1\n      pop\n        /* \"#utility.yul\":8995:9270   */\n      swap3\n      swap2\n      pop\n      pop\n      jump\t// out\n        /* \"#utility.yul\":9276:9498   */\n    tag_42:\n        /* \"#utility.yul\":9369:9373   */\n      0x00\n        /* \"#utility.yul\":9407:9409   */\n      0x20\n        /* \"#utility.yul\":9396:9405   */\n      dup3\n        /* \"#utility.yul\":9392:9410   */\n      add\n        /* \"#utility.yul\":9384:9410   */\n      swap1\n      pop\n        /* \"#utility.yul\":9420:9491   */\n      tag_326\n        /* \"#utility.yul\":9488:9489   */\n      0x00\n        /* \"#utility.yul\":9477:9486   */\n      dup4\n        /* \"#utility.yul\":9473:9490   */\n      add\n        /* \"#utility.yul\":9464:9470   */\n      dup5\n        /* \"#utility.yul\":9420:9491   */\n      tag_230\n      jump\t// in\n    tag_326:\n        /* \"#utility.yul\":9276:9498   */\n      swap3\n      swap2\n      pop\n      pop\n      jump\t// out\n        /* \"#utility.yul\":9504:9877   */\n    tag_28:\n        /* \"#utility.yul\":9647:9651   */\n      0x00\n        /* \"#utility.yul\":9685:9687   */\n      0x20\n        /* \"#utility.yul\":9674:9683   */\n      dup3\n        /* \"#utility.yul\":9670:9688   */\n      add\n        /* \"#utility.yul\":9662:9688   */\n      swap1\n      pop\n        /* \"#utility.yul\":9734:9743   */\n      dup2\n        /* \"#utility.yul\":9728:9732   */\n      dup2\n        /* \"#utility.yul\":9724:9744   */\n      sub\n        /* \"#utility.yul\":9720:9721   */\n      0x00\n        /* \"#utility.yul\":9709:9718   */\n      dup4\n        /* \"#utility.yul\":9705:9722   */\n      add\n        /* \"#utility.yul\":9698:9745   */\n      mstore\n        /* \"#utility.yul\":9762:9870   */\n      tag_328\n        /* \"#utility.yul\":9865:9869   */\n      dup2\n        /* \"#utility.yul\":9856:9862   */\n      dup5\n        /* \"#utility.yul\":9762:9870   */\n      tag_233\n      jump\t// in\n    tag_328:\n        /* \"#utility.yul\":9754:9870   */\n      swap1\n      pop\n        /* \"#utility.yul\":9504:9877   */\n      swap3\n      swap2\n      pop\n      pop\n      jump\t// out\n        /* \"#utility.yul\":9883:10256   */\n    tag_57:\n        /* \"#utility.yul\":10026:10030   */\n      0x00\n        /* \"#utility.yul\":10064:10066   */\n      0x20\n        /* \"#utility.yul\":10053:10062   */\n      dup3\n        /* \"#utility.yul\":10049:10067   */\n      add\n        /* \"#utility.yul\":10041:10067   */\n      swap1\n      pop\n        /* \"#utility.yul\":10113:10122   */\n      dup2\n        /* \"#utility.yul\":10107:10111   */\n      dup2\n        /* \"#utility.yul\":10103:10123   */\n      sub\n        /* \"#utility.yul\":10099:10100   */\n      0x00\n        /* \"#utility.yul\":10088:10097   */\n      dup4\n        /* \"#utility.yul\":10084:10101   */\n      add\n        /* \"#utility.yul\":10077:10124   */\n      mstore\n        /* \"#utility.yul\":10141:10249   */\n      tag_330\n        /* \"#utility.yul\":10244:10248   */\n      dup2\n        /* \"#utility.yul\":10235:10241   */\n      dup5\n        /* \"#utility.yul\":10141:10249   */\n      tag_247\n      jump\t// in\n    tag_330:\n        /* \"#utility.yul\":10133:10249   */\n      swap1\n      pop\n        /* \"#utility.yul\":9883:10256   */\n      swap3\n      swap2\n      pop\n      pop\n      jump\t// out\n        /* \"#utility.yul\":10262:10795   */\n    tag_35:\n        /* \"#utility.yul\":10431:10435   */\n      0x00\n        /* \"#utility.yul\":10469:10471   */\n      0x60\n        /* \"#utility.yul\":10458:10467   */\n      dup3\n        /* \"#utility.yul\":10454:10472   */\n      add\n        /* \"#utility.yul\":10446:10472   */\n      swap1\n      pop\n        /* \"#utility.yul\":10518:10527   */\n      dup2\n        /* \"#utility.yul\":10512:10516   */\n      dup2\n        /* \"#utility.yul\":10508:10528   */\n      sub\n        /* \"#utility.yul\":10504:10505   */\n      0x00\n        /* \"#utility.yul\":10493:10502   */\n      dup4\n        /* \"#utility.yul\":10489:10506   */\n      add\n        /* \"#utility.yul\":10482:10529   */\n      mstore\n        /* \"#utility.yul\":10546:10624   */\n      tag_332\n        /* \"#utility.yul\":10619:10623   */\n      dup2\n        /* \"#utility.yul\":10610:10616   */\n      dup7\n        /* \"#utility.yul\":10546:10624   */\n      tag_261\n      jump\t// in\n    tag_332:\n        /* \"#utility.yul\":10538:10624   */\n      swap1\n      pop\n        /* \"#utility.yul\":10634:10706   */\n      tag_333\n        /* \"#utility.yul\":10702:10704   */\n      0x20\n        /* \"#utility.yul\":10691:10700   */\n      dup4\n        /* \"#utility.yul\":10687:10705   */\n      add\n        /* \"#utility.yul\":10678:10684   */\n      dup6\n        /* \"#utility.yul\":10634:10706   */\n      tag_320\n      jump\t// in\n    tag_333:\n        /* \"#utility.yul\":10716:10788   */\n      tag_334\n        /* \"#utility.yul\":10784:10786   */\n      0x40\n        /* \"#utility.yul\":10773:10782   */\n      dup4\n        /* \"#utility.yul\":10769:10787   */\n      add\n        /* \"#utility.yul\":10760:10766   */\n      dup5\n        /* \"#utility.yul\":10716:10788   */\n      tag_320\n      jump\t// in\n    tag_334:\n        /* \"#utility.yul\":10262:10795   */\n      swap5\n      swap4\n      pop\n      pop\n      pop\n      pop\n      jump\t// out\n        /* \"#utility.yul\":10801:11220   */\n    tag_83:\n        /* \"#utility.yul\":10967:10971   */\n      0x00\n        /* \"#utility.yul\":11005:11007   */\n      0x20\n        /* \"#utility.yul\":10994:11003   */\n      dup3\n        /* \"#utility.yul\":10990:11008   */\n      add\n        /* \"#utility.yul\":10982:11008   */\n      swap1\n      pop\n        /* \"#utility.yul\":11054:11063   */\n      dup2\n        /* \"#utility.yul\":11048:11052   */\n      dup2\n        /* \"#utility.yul\":11044:11064   */\n      sub\n        /* \"#utility.yul\":11040:11041   */\n      0x00\n        /* \"#utility.yul\":11029:11038   */\n      dup4\n        /* \"#utility.yul\":11025:11042   */\n      add\n        /* \"#utility.yul\":11018:11065   */\n      mstore\n        /* \"#utility.yul\":11082:11213   */\n      tag_336\n        /* \"#utility.yul\":11208:11212   */\n      dup2\n        /* \"#utility.yul\":11082:11213   */\n      tag_277\n      jump\t// in\n    tag_336:\n        /* \"#utility.yul\":11074:11213   */\n      swap1\n      pop\n        /* \"#utility.yul\":10801:11220   */\n      swap2\n      swap1\n      pop\n      jump\t// out\n        /* \"#utility.yul\":11226:11645   */\n    tag_79:\n        /* \"#utility.yul\":11392:11396   */\n      0x00\n        /* \"#utility.yul\":11430:11432   */\n      0x20\n        /* \"#utility.yul\":11419:11428   */\n      dup3\n        /* \"#utility.yul\":11415:11433   */\n      add\n        /* \"#utility.yul\":11407:11433   */\n      swap1\n      pop\n        /* \"#utility.yul\":11479:11488   */\n      dup2\n        /* \"#utility.yul\":11473:11477   */\n      dup2\n        /* \"#utility.yul\":11469:11489   */\n      sub\n        /* \"#utility.yul\":11465:11466   */\n      0x00\n        /* \"#utility.yul\":11454:11463   */\n      dup4\n        /* \"#utility.yul\":11450:11467   */\n      add\n        /* \"#utility.yul\":11443:11490   */\n      mstore\n        /* \"#utility.yul\":11507:11638   */\n      tag_338\n        /* \"#utility.yul\":11633:11637   */\n      dup2\n        /* \"#utility.yul\":11507:11638   */\n      tag_282\n      jump\t// in\n    tag_338:\n        /* \"#utility.yul\":11499:11638   */\n      swap1\n      pop\n        /* \"#utility.yul\":11226:11645   */\n      swap2\n      swap1\n      pop\n      jump\t// out\n        /* \"#utility.yul\":11651:12070   */\n    tag_114:\n        /* \"#utility.yul\":11817:11821   */\n      0x00\n        /* \"#utility.yul\":11855:11857   */\n      0x20\n        /* \"#utility.yul\":11844:11853   */\n      dup3\n        /* \"#utility.yul\":11840:11858   */\n      add\n        /* \"#utility.yul\":11832:11858   */\n      swap1\n      pop\n        /* \"#utility.yul\":11904:11913   */\n      dup2\n        /* \"#utility.yul\":11898:11902   */\n      dup2\n        /* \"#utility.yul\":11894:11914   */\n      sub\n        /* \"#utility.yul\":11890:11891   */\n      0x00\n        /* \"#utility.yul\":11879:11888   */\n      dup4\n        /* \"#utility.yul\":11875:11892   */\n      add\n        /* \"#utility.yul\":11868:11915   */\n      mstore\n        /* \"#utility.yul\":11932:12063   */\n      tag_340\n        /* \"#utility.yul\":12058:12062   */\n      dup2\n        /* \"#utility.yul\":11932:12063   */\n      tag_287\n      jump\t// in\n    tag_340:\n        /* \"#utility.yul\":11924:12063   */\n      swap1\n      pop\n        /* \"#utility.yul\":11651:12070   */\n      swap2\n      swap1\n      pop\n      jump\t// out\n        /* \"#utility.yul\":12076:12495   */\n    tag_130:\n        /* \"#utility.yul\":12242:12246   */\n      0x00\n        /* \"#utility.yul\":12280:12282   */\n      0x20\n        /* \"#utility.yul\":12269:12278   */\n      dup3\n        /* \"#utility.yul\":12265:12283   */\n      add\n        /* \"#utility.yul\":12257:12283   */\n      swap1\n      pop\n        /* \"#utility.yul\":12329:12338   */\n      dup2\n        /* \"#utility.yul\":12323:12327   */\n      dup2\n        /* \"#utility.yul\":12319:12339   */\n      sub\n        /* \"#utility.yul\":12315:12316   */\n      0x00\n        /* \"#utility.yul\":12304:12313   */\n      dup4\n        /* \"#utility.yul\":12300:12317   */\n      add\n        /* \"#utility.yul\":12293:12340   */\n      mstore\n        /* \"#utility.yul\":12357:12488   */\n      tag_342\n        /* \"#utility.yul\":12483:12487   */\n      dup2\n        /* \"#utility.yul\":12357:12488   */\n      tag_292\n      jump\t// in\n    tag_342:\n        /* \"#utility.yul\":12349:12488   */\n      swap1\n      pop\n        /* \"#utility.yul\":12076:12495   */\n      swap2\n      swap1\n      pop\n      jump\t// out\n        /* \"#utility.yul\":12501:12920   */\n    tag_123:\n        /* \"#utility.yul\":12667:12671   */\n      0x00\n        /* \"#utility.yul\":12705:12707   */\n      0x20\n        /* \"#utility.yul\":12694:12703   */\n      dup3\n        /* \"#utility.yul\":12690:12708   */\n      add\n        /* \"#utility.yul\":12682:12708   */\n      swap1\n      pop\n        /* \"#utility.yul\":12754:12763   */\n      dup2\n        /* \"#utility.yul\":12748:12752   */\n      dup2\n        /* \"#utility.yul\":12744:12764   */\n      sub\n        /* \"#utility.yul\":12740:12741   */\n      0x00\n        /* \"#utility.yul\":12729:12738   */\n      dup4\n        /* \"#utility.yul\":12725:12742   */\n      add\n        /* \"#utility.yul\":12718:12765   */\n      mstore\n        /* \"#utility.yul\":12782:12913   */\n      tag_344\n        /* \"#utility.yul\":12908:12912   */\n      dup2\n        /* \"#utility.yul\":12782:12913   */\n      tag_297\n      jump\t// in\n    tag_344:\n        /* \"#utility.yul\":12774:12913   */\n      swap1\n      pop\n        /* \"#utility.yul\":12501:12920   */\n      swap2\n      swap1\n      pop\n      jump\t// out\n        /* \"#utility.yul\":12926:13345   */\n    tag_158:\n        /* \"#utility.yul\":13092:13096   */\n      0x00\n        /* \"#utility.yul\":13130:13132   */\n      0x20\n        /* \"#utility.yul\":13119:13128   */\n      dup3\n        /* \"#utility.yul\":13115:13133   */\n      add\n        /* \"#utility.yul\":13107:13133   */\n      swap1\n      pop\n        /* \"#utility.yul\":13179:13188   */\n      dup2\n        /* \"#utility.yul\":13173:13177   */\n      dup2\n        /* \"#utility.yul\":13169:13189   */\n      sub\n        /* \"#utility.yul\":13165:13166   */\n      0x00\n        /* \"#utility.yul\":13154:13163   */\n      dup4\n        /* \"#utility.yul\":13150:13167   */\n      add\n        /* \"#utility.yul\":13143:13190   */\n      mstore\n        /* \"#utility.yul\":13207:13338   */\n      tag_346\n        /* \"#utility.yul\":13333:13337   */\n      dup2\n        /* \"#utility.yul\":13207:13338   */\n      tag_302\n      jump\t// in\n    tag_346:\n        /* \"#utility.yul\":13199:13338   */\n      swap1\n      pop\n        /* \"#utility.yul\":12926:13345   */\n      swap2\n      swap1\n      pop\n      jump\t// out\n        /* \"#utility.yul\":13351:13770   */\n    tag_64:\n        /* \"#utility.yul\":13517:13521   */\n      0x00\n        /* \"#utility.yul\":13555:13557   */\n      0x20\n        /* \"#utility.yul\":13544:13553   */\n      dup3\n        /* \"#utility.yul\":13540:13558   */\n      add\n        /* \"#utility.yul\":13532:13558   */\n      swap1\n      pop\n        /* \"#utility.yul\":13604:13613   */\n      dup2\n        /* \"#utility.yul\":13598:13602   */\n      dup2\n        /* \"#utility.yul\":13594:13614   */\n      sub\n        /* \"#utility.yul\":13590:13591   */\n      0x00\n        /* \"#utility.yul\":13579:13588   */\n      dup4\n        /* \"#utility.yul\":13575:13592   */\n      add\n        /* \"#utility.yul\":13568:13615   */\n      mstore\n        /* \"#utility.yul\":13632:13763   */\n      tag_348\n        /* \"#utility.yul\":13758:13762   */\n      dup2\n        /* \"#utility.yul\":13632:13763   */\n      tag_307\n      jump\t// in\n    tag_348:\n        /* \"#utility.yul\":13624:13763   */\n      swap1\n      pop\n        /* \"#utility.yul\":13351:13770   */\n      swap2\n      swap1\n      pop\n      jump\t// out\n        /* \"#utility.yul\":13776:14195   */\n    tag_69:\n        /* \"#utility.yul\":13942:13946   */\n      0x00\n        /* \"#utility.yul\":13980:13982   */\n      0x20\n        /* \"#utility.yul\":13969:13978   */\n      dup3\n        /* \"#utility.yul\":13965:13983   */\n      add\n        /* \"#utility.yul\":13957:13983   */\n      swap1\n      pop\n        /* \"#utility.yul\":14029:14038   */\n      dup2\n        /* \"#utility.yul\":14023:14027   */\n      dup2\n        /* \"#utility.yul\":14019:14039   */\n      sub\n        /* \"#utility.yul\":14015:14016   */\n      0x00\n        /* \"#utility.yul\":14004:14013   */\n      dup4\n        /* \"#utility.yul\":14000:14017   */\n      add\n        /* \"#utility.yul\":13993:14040   */\n      mstore\n        /* \"#utility.yul\":14057:14188   */\n      tag_350\n        /* \"#utility.yul\":14183:14187   */\n      dup2\n        /* \"#utility.yul\":14057:14188   */\n      tag_312\n      jump\t// in\n    tag_350:\n        /* \"#utility.yul\":14049:14188   */\n      swap1\n      pop\n        /* \"#utility.yul\":13776:14195   */\n      swap2\n      swap1\n      pop\n      jump\t// out\n        /* \"#utility.yul\":14201:14423   */\n    tag_46:\n        /* \"#utility.yul\":14294:14298   */\n      0x00\n        /* \"#utility.yul\":14332:14334   */\n      0x20\n        /* \"#utility.yul\":14321:14330   */\n      dup3\n        /* \"#utility.yul\":14317:14335   */\n      add\n        /* \"#utility.yul\":14309:14335   */\n      swap1\n      pop\n        /* \"#utility.yul\":14345:14416   */\n      tag_352\n        /* \"#utility.yul\":14413:14414   */\n      0x00\n        /* \"#utility.yul\":14402:14411   */\n      dup4\n        /* \"#utility.yul\":14398:14415   */\n      add\n        /* \"#utility.yul\":14389:14395   */\n      dup5\n        /* \"#utility.yul\":14345:14416   */\n      tag_320\n      jump\t// in\n    tag_352:\n        /* \"#utility.yul\":14201:14423   */\n      swap3\n      swap2\n      pop\n      pop\n      jump\t// out\n        /* \"#utility.yul\":14429:14558   */\n    tag_177:\n        /* \"#utility.yul\":14463:14469   */\n      0x00\n        /* \"#utility.yul\":14490:14510   */\n      tag_354\n      tag_355\n      jump\t// in\n    tag_354:\n        /* \"#utility.yul\":14480:14510   */\n      swap1\n      pop\n        /* \"#utility.yul\":14519:14552   */\n      tag_356\n        /* \"#utility.yul\":14547:14551   */\n      dup3\n        /* \"#utility.yul\":14539:14545   */\n      dup3\n        /* \"#utility.yul\":14519:14552   */\n      tag_357\n      jump\t// in\n    tag_356:\n        /* \"#utility.yul\":14429:14558   */\n      swap2\n      swap1\n      pop\n      jump\t// out\n        /* \"#utility.yul\":14564:14639   */\n    tag_355:\n        /* \"#utility.yul\":14597:14603   */\n      0x00\n        /* \"#utility.yul\":14630:14632   */\n      0x40\n        /* \"#utility.yul\":14624:14633   */\n      mload\n        /* \"#utility.yul\":14614:14633   */\n      swap1\n      pop\n        /* \"#utility.yul\":14564:14639   */\n      swap1\n      jump\t// out\n        /* \"#utility.yul\":14645:14953   */\n    tag_176:\n        /* \"#utility.yul\":14707:14711   */\n      0x00\n        /* \"#utility.yul\":14797:14815   */\n      0xffffffffffffffff\n        /* \"#utility.yul\":14789:14795   */\n      dup3\n        /* \"#utility.yul\":14786:14816   */\n      gt\n        /* \"#utility.yul\":14783:14839   */\n      iszero\n      tag_360\n      jumpi\n        /* \"#utility.yul\":14819:14837   */\n      tag_361\n      tag_91\n      jump\t// in\n    tag_361:\n        /* \"#utility.yul\":14783:14839   */\n    tag_360:\n        /* \"#utility.yul\":14857:14886   */\n      tag_362\n        /* \"#utility.yul\":14879:14885   */\n      dup3\n        /* \"#utility.yul\":14857:14886   */\n      tag_270\n      jump\t// in\n    tag_362:\n        /* \"#utility.yul\":14849:14886   */\n      swap1\n      pop\n        /* \"#utility.yul\":14941:14945   */\n      0x20\n        /* \"#utility.yul\":14935:14939   */\n      dup2\n        /* \"#utility.yul\":14931:14946   */\n      add\n        /* \"#utility.yul\":14923:14946   */\n      swap1\n      pop\n        /* \"#utility.yul\":14645:14953   */\n      swap2\n      swap1\n      pop\n      jump\t// out\n        /* \"#utility.yul\":14959:15091   */\n    tag_240:\n        /* \"#utility.yul\":15026:15030   */\n      0x00\n        /* \"#utility.yul\":15049:15052   */\n      dup2\n        /* \"#utility.yul\":15041:15052   */\n      swap1\n      pop\n        /* \"#utility.yul\":15079:15083   */\n      0x20\n        /* \"#utility.yul\":15074:15077   */\n      dup3\n        /* \"#utility.yul\":15070:15084   */\n      add\n        /* \"#utility.yul\":15062:15084   */\n      swap1\n      pop\n        /* \"#utility.yul\":14959:15091   */\n      swap2\n      swap1\n      pop\n      jump\t// out\n        /* \"#utility.yul\":15097:15229   */\n    tag_254:\n        /* \"#utility.yul\":15164:15168   */\n      0x00\n        /* \"#utility.yul\":15187:15190   */\n      dup2\n        /* \"#utility.yul\":15179:15190   */\n      swap1\n      pop\n        /* \"#utility.yul\":15217:15221   */\n      0x20\n        /* \"#utility.yul\":15212:15215   */\n      dup3\n        /* \"#utility.yul\":15208:15222   */\n      add\n        /* \"#utility.yul\":15200:15222   */\n      swap1\n      pop\n        /* \"#utility.yul\":15097:15229   */\n      swap2\n      swap1\n      pop\n      jump\t// out\n        /* \"#utility.yul\":15235:15349   */\n    tag_236:\n        /* \"#utility.yul\":15302:15308   */\n      0x00\n        /* \"#utility.yul\":15336:15341   */\n      dup2\n        /* \"#utility.yul\":15330:15342   */\n      mload\n        /* \"#utility.yul\":15320:15342   */\n      swap1\n      pop\n        /* \"#utility.yul\":15235:15349   */\n      swap2\n      swap1\n      pop\n      jump\t// out\n        /* \"#utility.yul\":15355:15469   */\n    tag_250:\n        /* \"#utility.yul\":15422:15428   */\n      0x00\n        /* \"#utility.yul\":15456:15461   */\n      dup2\n        /* \"#utility.yul\":15450:15462   */\n      mload\n        /* \"#utility.yul\":15440:15462   */\n      swap1\n      pop\n        /* \"#utility.yul\":15355:15469   */\n      swap2\n      swap1\n      pop\n      jump\t// out\n        /* \"#utility.yul\":15475:15574   */\n    tag_264:\n        /* \"#utility.yul\":15527:15533   */\n      0x00\n        /* \"#utility.yul\":15561:15566   */\n      dup2\n        /* \"#utility.yul\":15555:15567   */\n      mload\n        /* \"#utility.yul\":15545:15567   */\n      swap1\n      pop\n        /* \"#utility.yul\":15475:15574   */\n      swap2\n      swap1\n      pop\n      jump\t// out\n        /* \"#utility.yul\":15580:15693   */\n    tag_246:\n        /* \"#utility.yul\":15650:15654   */\n      0x00\n        /* \"#utility.yul\":15682:15686   */\n      0x20\n        /* \"#utility.yul\":15677:15680   */\n      dup3\n        /* \"#utility.yul\":15673:15687   */\n      add\n        /* \"#utility.yul\":15665:15687   */\n      swap1\n      pop\n        /* \"#utility.yul\":15580:15693   */\n      swap2\n      swap1\n      pop\n      jump\t// out\n        /* \"#utility.yul\":15699:15812   */\n    tag_260:\n        /* \"#utility.yul\":15769:15773   */\n      0x00\n        /* \"#utility.yul\":15801:15805   */\n      0x20\n        /* \"#utility.yul\":15796:15799   */\n      dup3\n        /* \"#utility.yul\":15792:15806   */\n      add\n        /* \"#utility.yul\":15784:15806   */\n      swap1\n      pop\n        /* \"#utility.yul\":15699:15812   */\n      swap2\n      swap1\n      pop\n      jump\t// out\n        /* \"#utility.yul\":15818:16002   */\n    tag_238:\n        /* \"#utility.yul\":15917:15928   */\n      0x00\n        /* \"#utility.yul\":15951:15957   */\n      dup3\n        /* \"#utility.yul\":15946:15949   */\n      dup3\n        /* \"#utility.yul\":15939:15958   */\n      mstore\n        /* \"#utility.yul\":15991:15995   */\n      0x20\n        /* \"#utility.yul\":15986:15989   */\n      dup3\n        /* \"#utility.yul\":15982:15996   */\n      add\n        /* \"#utility.yul\":15967:15996   */\n      swap1\n      pop\n        /* \"#utility.yul\":15818:16002   */\n      swap3\n      swap2\n      pop\n      pop\n      jump\t// out\n        /* \"#utility.yul\":16008:16192   */\n    tag_252:\n        /* \"#utility.yul\":16107:16118   */\n      0x00\n        /* \"#utility.yul\":16141:16147   */\n      dup3\n        /* \"#utility.yul\":16136:16139   */\n      dup3\n        /* \"#utility.yul\":16129:16148   */\n      mstore\n        /* \"#utility.yul\":16181:16185   */\n      0x20\n        /* \"#utility.yul\":16176:16179   */\n      dup3\n        /* \"#utility.yul\":16172:16186   */\n      add\n        /* \"#utility.yul\":16157:16186   */\n      swap1\n      pop\n        /* \"#utility.yul\":16008:16192   */\n      swap3\n      swap2\n      pop\n      pop\n      jump\t// out\n        /* \"#utility.yul\":16198:16367   */\n    tag_266:\n        /* \"#utility.yul\":16282:16293   */\n      0x00\n        /* \"#utility.yul\":16316:16322   */\n      dup3\n        /* \"#utility.yul\":16311:16314   */\n      dup3\n        /* \"#utility.yul\":16304:16323   */\n      mstore\n        /* \"#utility.yul\":16356:16360   */\n      0x20\n        /* \"#utility.yul\":16351:16354   */\n      dup3\n        /* \"#utility.yul\":16347:16361   */\n      add\n        /* \"#utility.yul\":16332:16361   */\n      swap1\n      pop\n        /* \"#utility.yul\":16198:16367   */\n      swap3\n      swap2\n      pop\n      pop\n      jump\t// out\n        /* \"#utility.yul\":16373:16521   */\n    tag_275:\n        /* \"#utility.yul\":16475:16486   */\n      0x00\n        /* \"#utility.yul\":16512:16515   */\n      dup2\n        /* \"#utility.yul\":16497:16515   */\n      swap1\n      pop\n        /* \"#utility.yul\":16373:16521   */\n      swap3\n      swap2\n      pop\n      pop\n      jump\t// out\n        /* \"#utility.yul\":16527:16832   */\n    tag_71:\n        /* \"#utility.yul\":16567:16570   */\n      0x00\n        /* \"#utility.yul\":16586:16606   */\n      tag_375\n        /* \"#utility.yul\":16604:16605   */\n      dup3\n        /* \"#utility.yul\":16586:16606   */\n      tag_319\n      jump\t// in\n    tag_375:\n        /* \"#utility.yul\":16581:16606   */\n      swap2\n      pop\n        /* \"#utility.yul\":16620:16640   */\n      tag_376\n        /* \"#utility.yul\":16638:16639   */\n      dup4\n        /* \"#utility.yul\":16620:16640   */\n      tag_319\n      jump\t// in\n    tag_376:\n        /* \"#utility.yul\":16615:16640   */\n      swap3\n      pop\n        /* \"#utility.yul\":16774:16775   */\n      dup3\n        /* \"#utility.yul\":16706:16772   */\n      0xffffffffffffffffffffffffffffffffffffffffffffffffffffffffffffffff\n        /* \"#utility.yul\":16702:16776   */\n      sub\n        /* \"#utility.yul\":16699:16700   */\n      dup3\n        /* \"#utility.yul\":16696:16777   */\n      gt\n        /* \"#utility.yul\":16693:16800   */\n      iszero\n      tag_377\n      jumpi\n        /* \"#utility.yul\":16780:16798   */\n      tag_378\n      tag_379\n      jump\t// in\n    tag_378:\n        /* \"#utility.yul\":16693:16800   */\n    tag_377:\n        /* \"#utility.yul\":16824:16825   */\n      dup3\n        /* \"#utility.yul\":16821:16822   */\n      dup3\n        /* \"#utility.yul\":16817:16826   */\n      add\n        /* \"#utility.yul\":16810:16826   */\n      swap1\n      pop\n        /* \"#utility.yul\":16527:16832   */\n      swap3\n      swap2\n      pop\n      pop\n      jump\t// out\n        /* \"#utility.yul\":16838:17029   */\n    tag_117:\n        /* \"#utility.yul\":16878:16882   */\n      0x00\n        /* \"#utility.yul\":16898:16918   */\n      tag_381\n        /* \"#utility.yul\":16916:16917   */\n      dup3\n        /* \"#utility.yul\":16898:16918   */\n      tag_319\n      jump\t// in\n    tag_381:\n        /* \"#utility.yul\":16893:16918   */\n      swap2\n      pop\n        /* \"#utility.yul\":16932:16952   */\n      tag_382\n        /* \"#utility.yul\":16950:16951   */\n      dup4\n        /* \"#utility.yul\":16932:16952   */\n      tag_319\n      jump\t// in\n    tag_382:\n        /* \"#utility.yul\":16927:16952   */\n      swap3\n      pop\n        /* \"#utility.yul\":16971:16972   */\n      dup3\n        /* \"#utility.yul\":16968:16969   */\n      dup3\n        /* \"#utility.yul\":16965:16973   */\n      lt\n        /* \"#utility.yul\":16962:16996   */\n      iszero\n      tag_383\n      jumpi\n        /* \"#utility.yul\":16976:16994   */\n      tag_384\n      tag_379\n      jump\t// in\n    tag_384:\n        /* \"#utility.yul\":16962:16996   */\n    tag_383:\n        /* \"#utility.yul\":17021:17022   */\n      dup3\n        /* \"#utility.yul\":17018:17019   */\n      dup3\n        /* \"#utility.yul\":17014:17023   */\n      sub\n        /* \"#utility.yul\":17006:17023   */\n      swap1\n      pop\n        /* \"#utility.yul\":16838:17029   */\n      swap3\n      swap2\n      pop\n      pop\n      jump\t// out\n        /* \"#utility.yul\":17035:17131   */\n    tag_229:\n        /* \"#utility.yul\":17072:17079   */\n      0x00\n        /* \"#utility.yul\":17101:17125   */\n      tag_386\n        /* \"#utility.yul\":17119:17124   */\n      dup3\n        /* \"#utility.yul\":17101:17125   */\n      tag_387\n      jump\t// in\n    tag_386:\n        /* \"#utility.yul\":17090:17125   */\n      swap1\n      pop\n        /* \"#utility.yul\":17035:17131   */\n      swap2\n      swap1\n      pop\n      jump\t// out\n        /* \"#utility.yul\":17137:17263   */\n    tag_387:\n        /* \"#utility.yul\":17174:17181   */\n      0x00\n        /* \"#utility.yul\":17214:17256   */\n      0xffffffffffffffffffffffffffffffffffffffff\n        /* \"#utility.yul\":17207:17212   */\n      dup3\n        /* \"#utility.yul\":17203:17257   */\n      and\n        /* \"#utility.yul\":17192:17257   */\n      swap1\n      pop\n        /* \"#utility.yul\":17137:17263   */\n      swap2\n      swap1\n      pop\n      jump\t// out\n        /* \"#utility.yul\":17269:17346   */\n    tag_319:\n        /* \"#utility.yul\":17306:17313   */\n      0x00\n        /* \"#utility.yul\":17335:17340   */\n      dup2\n        /* \"#utility.yul\":17324:17340   */\n      swap1\n      pop\n        /* \"#utility.yul\":17269:17346   */\n      swap2\n      swap1\n      pop\n      jump\t// out\n        /* \"#utility.yul\":17352:17506   */\n    tag_182:\n        /* \"#utility.yul\":17436:17442   */\n      dup3\n        /* \"#utility.yul\":17431:17434   */\n      dup2\n        /* \"#utility.yul\":17426:17429   */\n      dup4\n        /* \"#utility.yul\":17413:17443   */\n      calldatacopy\n        /* \"#utility.yul\":17498:17499   */\n      0x00\n        /* \"#utility.yul\":17489:17495   */\n      dup4\n        /* \"#utility.yul\":17484:17487   */\n      dup4\n        /* \"#utility.yul\":17480:17496   */\n      add\n        /* \"#utility.yul\":17473:17500   */\n      mstore\n        /* \"#utility.yul\":17352:17506   */\n      pop\n      pop\n      pop\n      jump\t// out\n        /* \"#utility.yul\":17512:17819   */\n    tag_268:\n        /* \"#utility.yul\":17580:17581   */\n      0x00\n        /* \"#utility.yul\":17590:17703   */\n    tag_392:\n        /* \"#utility.yul\":17604:17610   */\n      dup4\n        /* \"#utility.yul\":17601:17602   */\n      dup2\n        /* \"#utility.yul\":17598:17611   */\n      lt\n        /* \"#utility.yul\":17590:17703   */\n      iszero\n      tag_394\n      jumpi\n        /* \"#utility.yul\":17689:17690   */\n      dup1\n        /* \"#utility.yul\":17684:17687   */\n      dup3\n        /* \"#utility.yul\":17680:17691   */\n      add\n        /* \"#utility.yul\":17674:17692   */\n      mload\n        /* \"#utility.yul\":17670:17671   */\n      dup2\n        /* \"#utility.yul\":17665:17668   */\n      dup5\n        /* \"#utility.yul\":17661:17672   */\n      add\n        /* \"#utility.yul\":17654:17693   */\n      mstore\n        /* \"#utility.yul\":17626:17628   */\n      0x20\n        /* \"#utility.yul\":17623:17624   */\n      dup2\n        /* \"#utility.yul\":17619:17629   */\n      add\n        /* \"#utility.yul\":17614:17629   */\n      swap1\n      pop\n        /* \"#utility.yul\":17590:17703   */\n      jump(tag_392)\n    tag_394:\n        /* \"#utility.yul\":17721:17727   */\n      dup4\n        /* \"#utility.yul\":17718:17719   */\n      dup2\n        /* \"#utility.yul\":17715:17728   */\n      gt\n        /* \"#utility.yul\":17712:17813   */\n      iszero\n      tag_395\n      jumpi\n        /* \"#utility.yul\":17801:17802   */\n      0x00\n        /* \"#utility.yul\":17792:17798   */\n      dup5\n        /* \"#utility.yul\":17787:17790   */\n      dup5\n        /* \"#utility.yul\":17783:17799   */\n      add\n        /* \"#utility.yul\":17776:17803   */\n      mstore\n        /* \"#utility.yul\":17712:17813   */\n    tag_395:\n        /* \"#utility.yul\":17561:17819   */\n      pop\n        /* \"#utility.yul\":17512:17819   */\n      pop\n      pop\n      pop\n      jump\t// out\n        /* \"#utility.yul\":17825:18145   */\n    tag_66:\n        /* \"#utility.yul\":17869:17875   */\n      0x00\n        /* \"#utility.yul\":17906:17907   */\n      0x02\n        /* \"#utility.yul\":17900:17904   */\n      dup3\n        /* \"#utility.yul\":17896:17908   */\n      div\n        /* \"#utility.yul\":17886:17908   */\n      swap1\n      pop\n        /* \"#utility.yul\":17953:17954   */\n      0x01\n        /* \"#utility.yul\":17947:17951   */\n      dup3\n        /* \"#utility.yul\":17943:17955   */\n      and\n        /* \"#utility.yul\":17974:17992   */\n      dup1\n        /* \"#utility.yul\":17964:18045   */\n      tag_397\n      jumpi\n        /* \"#utility.yul\":18030:18034   */\n      0x7f\n        /* \"#utility.yul\":18022:18028   */\n      dup3\n        /* \"#utility.yul\":18018:18035   */\n      and\n        /* \"#utility.yul\":18008:18035   */\n      swap2\n      pop\n        /* \"#utility.yul\":17964:18045   */\n    tag_397:\n        /* \"#utility.yul\":18092:18094   */\n      0x20\n        /* \"#utility.yul\":18084:18090   */\n      dup3\n        /* \"#utility.yul\":18081:18095   */\n      lt\n        /* \"#utility.yul\":18061:18079   */\n      dup2\n        /* \"#utility.yul\":18058:18096   */\n      eq\n        /* \"#utility.yul\":18055:18139   */\n      iszero\n      tag_398\n      jumpi\n        /* \"#utility.yul\":18111:18129   */\n      tag_399\n      tag_400\n      jump\t// in\n    tag_399:\n        /* \"#utility.yul\":18055:18139   */\n    tag_398:\n        /* \"#utility.yul\":17876:18145   */\n      pop\n        /* \"#utility.yul\":17825:18145   */\n      swap2\n      swap1\n      pop\n      jump\t// out\n        /* \"#utility.yul\":18151:18432   */\n    tag_357:\n        /* \"#utility.yul\":18234:18261   */\n      tag_402\n        /* \"#utility.yul\":18256:18260   */\n      dup3\n        /* \"#utility.yul\":18234:18261   */\n      tag_270\n      jump\t// in\n    tag_402:\n        /* \"#utility.yul\":18226:18232   */\n      dup2\n        /* \"#utility.yul\":18222:18262   */\n      add\n        /* \"#utility.yul\":18364:18370   */\n      dup2\n        /* \"#utility.yul\":18352:18362   */\n      dup2\n        /* \"#utility.yul\":18349:18371   */\n      lt\n        /* \"#utility.yul\":18328:18346   */\n      0xffffffffffffffff\n        /* \"#utility.yul\":18316:18326   */\n      dup3\n        /* \"#utility.yul\":18313:18347   */\n      gt\n        /* \"#utility.yul\":18310:18372   */\n      or\n        /* \"#utility.yul\":18307:18395   */\n      iszero\n      tag_403\n      jumpi\n        /* \"#utility.yul\":18375:18393   */\n      tag_404\n      tag_91\n      jump\t// in\n    tag_404:\n        /* \"#utility.yul\":18307:18395   */\n    tag_403:\n        /* \"#utility.yul\":18415:18425   */\n      dup1\n        /* \"#utility.yul\":18411:18413   */\n      0x40\n        /* \"#utility.yul\":18404:18426   */\n      mstore\n        /* \"#utility.yul\":18194:18432   */\n      pop\n        /* \"#utility.yul\":18151:18432   */\n      pop\n      pop\n      jump\t// out\n        /* \"#utility.yul\":18438:18671   */\n    tag_100:\n        /* \"#utility.yul\":18477:18480   */\n      0x00\n        /* \"#utility.yul\":18500:18524   */\n      tag_406\n        /* \"#utility.yul\":18518:18523   */\n      dup3\n        /* \"#utility.yul\":18500:18524   */\n      tag_319\n      jump\t// in\n    tag_406:\n        /* \"#utility.yul\":18491:18524   */\n      swap2\n      pop\n        /* \"#utility.yul\":18546:18612   */\n      0xffffffffffffffffffffffffffffffffffffffffffffffffffffffffffffffff\n        /* \"#utility.yul\":18539:18544   */\n      dup3\n        /* \"#utility.yul\":18536:18613   */\n      eq\n        /* \"#utility.yul\":18533:18636   */\n      iszero\n      tag_407\n      jumpi\n        /* \"#utility.yul\":18616:18634   */\n      tag_408\n      tag_379\n      jump\t// in\n    tag_408:\n        /* \"#utility.yul\":18533:18636   */\n    tag_407:\n        /* \"#utility.yul\":18663:18664   */\n      0x01\n        /* \"#utility.yul\":18656:18661   */\n      dup3\n        /* \"#utility.yul\":18652:18665   */\n      add\n        /* \"#utility.yul\":18645:18665   */\n      swap1\n      pop\n        /* \"#utility.yul\":18438:18671   */\n      swap2\n      swap1\n      pop\n      jump\t// out\n        /* \"#utility.yul\":18677:18857   */\n    tag_379:\n        /* \"#utility.yul\":18725:18802   */\n      0x4e487b7100000000000000000000000000000000000000000000000000000000\n        /* \"#utility.yul\":18722:18723   */\n      0x00\n        /* \"#utility.yul\":18715:18803   */\n      mstore\n        /* \"#utility.yul\":18822:18826   */\n      0x11\n        /* \"#utility.yul\":18819:18820   */\n      0x04\n        /* \"#utility.yul\":18812:18827   */\n      mstore\n        /* \"#utility.yul\":18846:18850   */\n      0x24\n        /* \"#utility.yul\":18843:18844   */\n      0x00\n        /* \"#utility.yul\":18836:18851   */\n      revert\n        /* \"#utility.yul\":18863:19043   */\n    tag_400:\n        /* \"#utility.yul\":18911:18988   */\n      0x4e487b7100000000000000000000000000000000000000000000000000000000\n        /* \"#utility.yul\":18908:18909   */\n      0x00\n        /* \"#utility.yul\":18901:18989   */\n      mstore\n        /* \"#utility.yul\":19008:19012   */\n      0x22\n        /* \"#utility.yul\":19005:19006   */\n      0x04\n        /* \"#utility.yul\":18998:19013   */\n      mstore\n        /* \"#utility.yul\":19032:19036   */\n      0x24\n        /* \"#utility.yul\":19029:19030   */\n      0x00\n        /* \"#utility.yul\":19022:19037   */\n      revert\n        /* \"#utility.yul\":19049:19229   */\n    tag_98:\n        /* \"#utility.yul\":19097:19174   */\n      0x4e487b7100000000000000000000000000000000000000000000000000000000\n        /* \"#utility.yul\":19094:19095   */\n      0x00\n        /* \"#utility.yul\":19087:19175   */\n      mstore\n        /* \"#utility.yul\":19194:19198   */\n      0x32\n        /* \"#utility.yul\":19191:19192   */\n      0x04\n        /* \"#utility.yul\":19184:19199   */\n      mstore\n        /* \"#utility.yul\":19218:19222   */\n      0x24\n        /* \"#utility.yul\":19215:19216   */\n      0x00\n        /* \"#utility.yul\":19208:19223   */\n      revert\n        /* \"#utility.yul\":19235:19415   */\n    tag_91:\n        /* \"#utility.yul\":19283:19360   */\n      0x4e487b7100000000000000000000000000000000000000000000000000000000\n        /* \"#utility.yul\":19280:19281   */\n      0x00\n        /* \"#utility.yul\":19273:19361   */\n      mstore\n        /* \"#utility.yul\":19380:19384   */\n      0x41\n        /* \"#utility.yul\":19377:19378   */\n      0x04\n        /* \"#utility.yul\":19370:19385   */\n      mstore\n        /* \"#utility.yul\":19404:19408   */\n      0x24\n        /* \"#utility.yul\":19401:19402   */\n      0x00\n        /* \"#utility.yul\":19394:19409   */\n      revert\n        /* \"#utility.yul\":19421:19538   */\n    tag_191:\n        /* \"#utility.yul\":19530:19531   */\n      0x00\n        /* \"#utility.yul\":19527:19528   */\n      dup1\n        /* \"#utility.yul\":19520:19532   */\n      revert\n        /* \"#utility.yul\":19544:19661   */\n    tag_180:\n        /* \"#utility.yul\":19653:19654   */\n      0x00\n        /* \"#utility.yul\":19650:19651   */\n      dup1\n        /* \"#utility.yul\":19643:19655   */\n      revert\n        /* \"#utility.yul\":19667:19784   */\n    tag_207:\n        /* \"#utility.yul\":19776:19777   */\n      0x00\n        /* \"#utility.yul\":19773:19774   */\n      dup1\n        /* \"#utility.yul\":19766:19778   */\n      revert\n        /* \"#utility.yul\":19790:19907   */\n    tag_200:\n        /* \"#utility.yul\":19899:19900   */\n      0x00\n        /* \"#utility.yul\":19896:19897   */\n      dup1\n        /* \"#utility.yul\":19889:19901   */\n      revert\n        /* \"#utility.yul\":19913:20015   */\n    tag_270:\n        /* \"#utility.yul\":19954:19960   */\n      0x00\n        /* \"#utility.yul\":20005:20007   */\n      0x1f\n        /* \"#utility.yul\":20001:20008   */\n      not\n        /* \"#utility.yul\":19996:19998   */\n      0x1f\n        /* \"#utility.yul\":19989:19994   */\n      dup4\n        /* \"#utility.yul\":19985:19999   */\n      add\n        /* \"#utility.yul\":19981:20009   */\n      and\n        /* \"#utility.yul\":19971:20009   */\n      swap1\n      pop\n        /* \"#utility.yul\":19913:20015   */\n      swap2\n      swap1\n      pop\n      jump\t// out\n        /* \"#utility.yul\":20021:20191   */\n    tag_281:\n        /* \"#utility.yul\":20161:20183   */\n      0x4e616d652063616e6e6f7420626520656d707479000000000000000000000000\n        /* \"#utility.yul\":20157:20158   */\n      0x00\n        /* \"#utility.yul\":20149:20155   */\n      dup3\n        /* \"#utility.yul\":20145:20159   */\n      add\n        /* \"#utility.yul\":20138:20184   */\n      mstore\n        /* \"#utility.yul\":20021:20191   */\n      pop\n      jump\t// out\n        /* \"#utility.yul\":20197:20364   */\n    tag_286:\n        /* \"#utility.yul\":20337:20356   */\n      0x426f6f6b20697320617661696c61626c65000000000000000000000000000000\n        /* \"#utility.yul\":20333:20334   */\n      0x00\n        /* \"#utility.yul\":20325:20331   */\n      dup3\n        /* \"#utility.yul\":20321:20335   */\n      add\n        /* \"#utility.yul\":20314:20357   */\n      mstore\n        /* \"#utility.yul\":20197:20364   */\n      pop\n      jump\t// out\n        /* \"#utility.yul\":20370:20542   */\n    tag_291:\n        /* \"#utility.yul\":20510:20534   */\n      0x426f6f6b20697320616c72656164792069737375656400000000000000000000\n        /* \"#utility.yul\":20506:20507   */\n      0x00\n        /* \"#utility.yul\":20498:20504   */\n      dup3\n        /* \"#utility.yul\":20494:20508   */\n      add\n        /* \"#utility.yul\":20487:20535   */\n      mstore\n        /* \"#utility.yul\":20370:20542   */\n      pop\n      jump\t// out\n        /* \"#utility.yul\":20548:20773   */\n    tag_296:\n        /* \"#utility.yul\":20688:20722   */\n      0x4f776e61626c653a206e6577206f776e657220697320746865207a65726f2061\n        /* \"#utility.yul\":20684:20685   */\n      0x00\n        /* \"#utility.yul\":20676:20682   */\n      dup3\n        /* \"#utility.yul\":20672:20686   */\n      add\n        /* \"#utility.yul\":20665:20723   */\n      mstore\n        /* \"#utility.yul\":20757:20765   */\n      0x6464726573730000000000000000000000000000000000000000000000000000\n        /* \"#utility.yul\":20752:20754   */\n      0x20\n        /* \"#utility.yul\":20744:20750   */\n      dup3\n        /* \"#utility.yul\":20740:20755   */\n      add\n        /* \"#utility.yul\":20733:20766   */\n      mstore\n        /* \"#utility.yul\":20548:20773   */\n      pop\n      jump\t// out\n        /* \"#utility.yul\":20779:20947   */\n    tag_301:\n        /* \"#utility.yul\":20919:20939   */\n      0x426f6f6b206973206e6f74206973737565640000000000000000000000000000\n        /* \"#utility.yul\":20915:20916   */\n      0x00\n        /* \"#utility.yul\":20907:20913   */\n      dup3\n        /* \"#utility.yul\":20903:20917   */\n      add\n        /* \"#utility.yul\":20896:20940   */\n      mstore\n        /* \"#utility.yul\":20779:20947   */\n      pop\n      jump\t// out\n        /* \"#utility.yul\":20953:21135   */\n    tag_306:\n        /* \"#utility.yul\":21093:21127   */\n      0x4f776e61626c653a2063616c6c6572206973206e6f7420746865206f776e6572\n        /* \"#utility.yul\":21089:21090   */\n      0x00\n        /* \"#utility.yul\":21081:21087   */\n      dup3\n        /* \"#utility.yul\":21077:21091   */\n      add\n        /* \"#utility.yul\":21070:21128   */\n      mstore\n        /* \"#utility.yul\":20953:21135   */\n      pop\n      jump\t// out\n        /* \"#utility.yul\":21141:21296   */\n    tag_311:\n        /* \"#utility.yul\":21281:21288   */\n      0x217a65726f000000000000000000000000000000000000000000000000000000\n        /* \"#utility.yul\":21277:21278   */\n      0x00\n        /* \"#utility.yul\":21269:21275   */\n      dup3\n        /* \"#utility.yul\":21265:21279   */\n      add\n        /* \"#utility.yul\":21258:21289   */\n      mstore\n        /* \"#utility.yul\":21141:21296   */\n      pop\n      jump\t// out\n        /* \"#utility.yul\":21302:21471   */\n    tag_316:\n        /* \"#utility.yul\":21442:21463   */\n      0x426f6f6b20646f6573206e6f7420657869737400000000000000000000000000\n        /* \"#utility.yul\":21438:21439   */\n      0x00\n        /* \"#utility.yul\":21430:21436   */\n      dup3\n        /* \"#utility.yul\":21426:21440   */\n      add\n        /* \"#utility.yul\":21419:21464   */\n      mstore\n        /* \"#utility.yul\":21302:21471   */\n      pop\n      jump\t// out\n        /* \"#utility.yul\":21477:21599   */\n    tag_186:\n        /* \"#utility.yul\":21550:21574   */\n      tag_427\n        /* \"#utility.yul\":21568:21573   */\n      dup2\n        /* \"#utility.yul\":21550:21574   */\n      tag_229\n      jump\t// in\n    tag_427:\n        /* \"#utility.yul\":21543:21548   */\n      dup2\n        /* \"#utility.yul\":21540:21575   */\n      eq\n        /* \"#utility.yul\":21530:21593   */\n      tag_428\n      jumpi\n        /* \"#utility.yul\":21589:21590   */\n      0x00\n        /* \"#utility.yul\":21586:21587   */\n      dup1\n        /* \"#utility.yul\":21579:21591   */\n      revert\n        /* \"#utility.yul\":21530:21593   */\n    tag_428:\n        /* \"#utility.yul\":21477:21599   */\n      pop\n      jump\t// out\n        /* \"#utility.yul\":21605:21727   */\n    tag_196:\n        /* \"#utility.yul\":21678:21702   */\n      tag_430\n        /* \"#utility.yul\":21696:21701   */\n      dup2\n        /* \"#utility.yul\":21678:21702   */\n      tag_319\n      jump\t// in\n    tag_430:\n        /* \"#utility.yul\":21671:21676   */\n      dup2\n        /* \"#utility.yul\":21668:21703   */\n      eq\n        /* \"#utility.yul\":21658:21721   */\n      tag_431\n      jumpi\n        /* \"#utility.yul\":21717:21718   */\n      0x00\n        /* \"#utility.yul\":21714:21715   */\n      dup1\n        /* \"#utility.yul\":21707:21719   */\n      revert\n        /* \"#utility.yul\":21658:21721   */\n    tag_431:\n        /* \"#utility.yul\":21605:21727   */\n      pop\n      jump\t// out\n\n    auxdata: 0xa2646970667358221220e52251d6979cac3f8279756b0c2b44224185ef4292d6ce3d41600078240f602a64736f6c63430008070033\n}\n",
				"bytecode": {
					"linkReferences": {},
					"object": "608060405234801561001057600080fd5b5061002d61002261003260201b60201c565b61003a60201b60201c565b6100fe565b600033905090565b60008060009054906101000a900473ffffffffffffffffffffffffffffffffffffffff169050816000806101000a81548173ffffffffffffffffffffffffffffffffffffffff021916908373ffffffffffffffffffffffffffffffffffffffff1602179055508173ffffffffffffffffffffffffffffffffffffffff168173ffffffffffffffffffffffffffffffffffffffff167f8be0079c531659141344cd1fd0a4f28419497f9722a3daafe3b4186f6b6457e060405160405180910390a35050565b6118f18061010d6000396000f3fe608060405234801561001057600080fd5b50600436106100a95760003560e01c80637e490a9e116100715780637e490a9e146101525780638da5cb5b1461016e578063b905ad781461018c578063ca5140c9146101aa578063f2fde38b146101c6578063f4cbc4a6146101e2576100a9565b806360f9eefc146100ae578063637a3872146100ca578063642ea5ce146100e6578063715018a6146101165780637975c6b414610120575b600080fd5b6100c860048036038101906100c39190610ee2565b610200565b005b6100e460048036038101906100df9190610e59565b6102de565b005b61010060048036038101906100fb9190610eb5565b610423565b60405161010d91906111fe565b60405180910390f35b61011e610546565b005b61013a60048036038101906101359190610eb5565b61055a565b60405161014993929190611242565b60405180910390f35b61016c60048036038101906101679190610eb5565b61060c565b005b6101766107ca565b60405161018391906111e3565b60405180910390f35b6101946107f3565b6040516101a19190611380565b60405180910390f35b6101c460048036038101906101bf9190610eb5565b6107f9565b005b6101e060048036038101906101db9190610e2c565b610933565b005b6101ea6109b7565b6040516101f79190611220565b60405180910390f35b610208610ba5565b6000811161024b576040517f08c379a000000000000000000000000000000000000000000000000000000000815260040161024290611340565b60405180910390fd5b6000600760008481526020019081526020016000209050600081600001805461027390611592565b905014156102b6576040517f08c379a00000000000000000000000000000000000000000000000000000000081526004016102ad90611360565b60405180910390fd5b60018160010160008282546102cb919061148a565b9250508190558160010181905550505050565b6102e6610ba5565b816006816040516102f791906111cc565b908152602001604051809103902060009054906101000a900460ff1615610353576040517f08c379a000000000000000000000000000000000000000000000000000000000815260040161034a906112a0565b60405180910390fd5b600083511415610398576040517f08c379a000000000000000000000000000000000000000000000000000000000815260040161038f90611280565b60405180910390fd5b60016006846040516103aa91906111cc565b908152602001604051809103902060006101000a81548160ff02191690831515021790555060006001836103de919061148a565b9250829050600060076000838152602001908152602001600020905084816000019080519060200190610412929190610cef565b508381600101819055505050505050565b60606000600760008481526020019081526020016000206002015467ffffffffffffffff811115610457576104566116cb565b5b6040519080825280602002602001820160405280156104855781602001602082028036833780820191505090505b50905060005b815181101561053c5760076000858152602001908152602001600020600301600082815260200190815260200160002060009054906101000a900473ffffffffffffffffffffffffffffffffffffffff168282815181106104ef576104ee61169c565b5b602002602001019073ffffffffffffffffffffffffffffffffffffffff16908173ffffffffffffffffffffffffffffffffffffffff16815250508080610534906115f5565b91505061048b565b5080915050919050565b61054e610ba5565b6105586000610c23565b565b600760205280600052604060002060009150905080600001805461057d90611592565b80601f01602080910402602001604051908101604052809291908181526020018280546105a990611592565b80156105f65780601f106105cb576101008083540402835291602001916105f6565b820191906000526020600020905b8154815290600101906020018083116105d957829003601f168201915b5050505050908060010154908060020154905083565b600860003373ffffffffffffffffffffffffffffffffffffffff1673ffffffffffffffffffffffffffffffffffffffff168152602001908152602001600020600082815260200190815260200160002060009054906101000a900460ff16156106aa576040517f08c379a00000000000000000000000000000000000000000000000000000000081526004016106a1906112c0565b60405180910390fd5b6001600860003373ffffffffffffffffffffffffffffffffffffffff1673ffffffffffffffffffffffffffffffffffffffff168152602001908152602001600020600083815260200190815260200160002060006101000a81548160ff021916908315150217905550600060076000838152602001908152602001600020905060018160010154101561073c57600080fd5b6001816001015461074d91906114e0565b8160010181905550338160030160008360020154815260200190815260200160002060006101000a81548173ffffffffffffffffffffffffffffffffffffffff021916908373ffffffffffffffffffffffffffffffffffffffff160217905550600181600201546107be919061148a565b81600201819055505050565b60008060009054906101000a900473ffffffffffffffffffffffffffffffffffffffff16905090565b60055481565b600860003373ffffffffffffffffffffffffffffffffffffffff1673ffffffffffffffffffffffffffffffffffffffff168152602001908152602001600020600082815260200190815260200160002060009054906101000a900460ff16610896576040517f08c379a000000000000000000000000000000000000000000000000000000000815260040161088d90611300565b60405180910390fd5b6000600760008381526020019081526020016000209050600181600101546108be919061148a565b81600101819055506000600860003373ffffffffffffffffffffffffffffffffffffffff1673ffffffffffffffffffffffffffffffffffffffff168152602001908152602001600020600084815260200190815260200160002060006101000a81548160ff0219169083151502179055505050565b61093b610ba5565b600073ffffffffffffffffffffffffffffffffffffffff168173ffffffffffffffffffffffffffffffffffffffff1614156109ab576040517f08c379a00000000000000000000000000000000000000000000000000000000081526004016109a2906112e0565b60405180910390fd5b6109b481610c23565b50565b6060600080600190505b6005548111610a7257600860003373ffffffffffffffffffffffffffffffffffffffff1673ffffffffffffffffffffffffffffffffffffffff168152602001908152602001600020600082815260200190815260200160002060009054906101000a900460ff16158015610a4b575060006007600083815260200190815260200160002060010154115b15610a5f578180610a5b906115f5565b9250505b8080610a6a906115f5565b9150506109c1565b5060008167ffffffffffffffff811115610a8f57610a8e6116cb565b5b604051908082528060200260200182016040528015610abd5781602001602082028036833780820191505090505b509050600091506000600190505b6005548111610b9c57600860003373ffffffffffffffffffffffffffffffffffffffff1673ffffffffffffffffffffffffffffffffffffffff168152602001908152602001600020600082815260200190815260200160002060009054906101000a900460ff16158015610b55575060006007600083815260200190815260200160002060010154115b15610b895780828481518110610b6e57610b6d61169c565b5b6020026020010181815250508280610b85906115f5565b9350505b8080610b94906115f5565b915050610acb565b50809250505090565b610bad610ce7565b73ffffffffffffffffffffffffffffffffffffffff16610bcb6107ca565b73ffffffffffffffffffffffffffffffffffffffff1614610c21576040517f08c379a0000000000000000000000000000000000000000000000000000000008152600401610c1890611320565b60405180910390fd5b565b60008060009054906101000a900473ffffffffffffffffffffffffffffffffffffffff169050816000806101000a81548173ffffffffffffffffffffffffffffffffffffffff021916908373ffffffffffffffffffffffffffffffffffffffff1602179055508173ffffffffffffffffffffffffffffffffffffffff168173ffffffffffffffffffffffffffffffffffffffff167f8be0079c531659141344cd1fd0a4f28419497f9722a3daafe3b4186f6b6457e060405160405180910390a35050565b600033905090565b828054610cfb90611592565b90600052602060002090601f016020900481019282610d1d5760008555610d64565b82601f10610d3657805160ff1916838001178555610d64565b82800160010185558215610d64579182015b82811115610d63578251825591602001919060010190610d48565b5b509050610d719190610d75565b5090565b5b80821115610d8e576000816000905550600101610d76565b5090565b6000610da5610da0846113c0565b61139b565b905082815260208101848484011115610dc157610dc06116ff565b5b610dcc848285611550565b509392505050565b600081359050610de38161188d565b92915050565b600082601f830112610dfe57610dfd6116fa565b5b8135610e0e848260208601610d92565b91505092915050565b600081359050610e26816118a4565b92915050565b600060208284031215610e4257610e41611709565b5b6000610e5084828501610dd4565b91505092915050565b60008060408385031215610e7057610e6f611709565b5b600083013567ffffffffffffffff811115610e8e57610e8d611704565b5b610e9a85828601610de9565b9250506020610eab85828601610e17565b9150509250929050565b600060208284031215610ecb57610eca611709565b5b6000610ed984828501610e17565b91505092915050565b60008060408385031215610ef957610ef8611709565b5b6000610f0785828601610e17565b9250506020610f1885828601610e17565b9150509250929050565b6000610f2e8383610f52565b60208301905092915050565b6000610f4683836111ae565b60208301905092915050565b610f5b81611514565b82525050565b610f6a81611514565b82525050565b6000610f7b82611411565b610f85818561144c565b9350610f90836113f1565b8060005b83811015610fc1578151610fa88882610f22565b9750610fb383611432565b925050600181019050610f94565b5085935050505092915050565b6000610fd98261141c565b610fe3818561145d565b9350610fee83611401565b8060005b8381101561101f5781516110068882610f3a565b97506110118361143f565b925050600181019050610ff2565b5085935050505092915050565b600061103782611427565b611041818561146e565b935061105181856020860161155f565b61105a8161170e565b840191505092915050565b600061107082611427565b61107a818561147f565b935061108a81856020860161155f565b80840191505092915050565b60006110a360148361146e565b91506110ae8261171f565b602082019050919050565b60006110c660118361146e565b91506110d182611748565b602082019050919050565b60006110e960168361146e565b91506110f482611771565b602082019050919050565b600061110c60268361146e565b91506111178261179a565b604082019050919050565b600061112f60128361146e565b915061113a826117e9565b602082019050919050565b600061115260208361146e565b915061115d82611812565b602082019050919050565b600061117560058361146e565b91506111808261183b565b602082019050919050565b600061119860138361146e565b91506111a382611864565b602082019050919050565b6111b781611546565b82525050565b6111c681611546565b82525050565b60006111d88284611065565b915081905092915050565b60006020820190506111f86000830184610f61565b92915050565b600060208201905081810360008301526112188184610f70565b905092915050565b6000602082019050818103600083015261123a8184610fce565b905092915050565b6000606082019050818103600083015261125c818661102c565b905061126b60208301856111bd565b61127860408301846111bd565b949350505050565b6000602082019050818103600083015261129981611096565b9050919050565b600060208201905081810360008301526112b9816110b9565b9050919050565b600060208201905081810360008301526112d9816110dc565b9050919050565b600060208201905081810360008301526112f9816110ff565b9050919050565b6000602082019050818103600083015261131981611122565b9050919050565b6000602082019050818103600083015261133981611145565b9050919050565b6000602082019050818103600083015261135981611168565b9050919050565b600060208201905081810360008301526113798161118b565b9050919050565b600060208201905061139560008301846111bd565b92915050565b60006113a56113b6565b90506113b182826115c4565b919050565b6000604051905090565b600067ffffffffffffffff8211156113db576113da6116cb565b5b6113e48261170e565b9050602081019050919050565b6000819050602082019050919050565b6000819050602082019050919050565b600081519050919050565b600081519050919050565b600081519050919050565b6000602082019050919050565b6000602082019050919050565b600082825260208201905092915050565b600082825260208201905092915050565b600082825260208201905092915050565b600081905092915050565b600061149582611546565b91506114a083611546565b9250827fffffffffffffffffffffffffffffffffffffffffffffffffffffffffffffffff038211156114d5576114d461163e565b5b828201905092915050565b60006114eb82611546565b91506114f683611546565b9250828210156115095761150861163e565b5b828203905092915050565b600061151f82611526565b9050919050565b600073ffffffffffffffffffffffffffffffffffffffff82169050919050565b6000819050919050565b82818337600083830152505050565b60005b8381101561157d578082015181840152602081019050611562565b8381111561158c576000848401525b50505050565b600060028204905060018216806115aa57607f821691505b602082108114156115be576115bd61166d565b5b50919050565b6115cd8261170e565b810181811067ffffffffffffffff821117156115ec576115eb6116cb565b5b80604052505050565b600061160082611546565b91507fffffffffffffffffffffffffffffffffffffffffffffffffffffffffffffffff8214156116335761163261163e565b5b600182019050919050565b7f4e487b7100000000000000000000000000000000000000000000000000000000600052601160045260246000fd5b7f4e487b7100000000000000000000000000000000000000000000000000000000600052602260045260246000fd5b7f4e487b7100000000000000000000000000000000000000000000000000000000600052603260045260246000fd5b7f4e487b7100000000000000000000000000000000000000000000000000000000600052604160045260246000fd5b600080fd5b600080fd5b600080fd5b600080fd5b6000601f19601f8301169050919050565b7f4e616d652063616e6e6f7420626520656d707479000000000000000000000000600082015250565b7f426f6f6b20697320617661696c61626c65000000000000000000000000000000600082015250565b7f426f6f6b20697320616c72656164792069737375656400000000000000000000600082015250565b7f4f776e61626c653a206e6577206f776e657220697320746865207a65726f206160008201527f6464726573730000000000000000000000000000000000000000000000000000602082015250565b7f426f6f6b206973206e6f74206973737565640000000000000000000000000000600082015250565b7f4f776e61626c653a2063616c6c6572206973206e6f7420746865206f776e6572600082015250565b7f217a65726f000000000000000000000000000000000000000000000000000000600082015250565b7f426f6f6b20646f6573206e6f7420657869737400000000000000000000000000600082015250565b61189681611514565b81146118a157600080fd5b50565b6118ad81611546565b81146118b857600080fd5b5056fea2646970667358221220e52251d6979cac3f8279756b0c2b44224185ef4292d6ce3d41600078240f602a64736f6c63430008070033",
					"opcodes": "PUSH1 0x80 PUSH1 0x40 MSTORE CALLVALUE DUP1 ISZERO PUSH2 0x10 JUMPI PUSH1 0x0 DUP1 REVERT JUMPDEST POP PUSH2 0x2D PUSH2 0x22 PUSH2 0x32 PUSH1 0x20 SHL PUSH1 0x20 SHR JUMP JUMPDEST PUSH2 0x3A PUSH1 0x20 SHL PUSH1 0x20 SHR JUMP JUMPDEST PUSH2 0xFE JUMP JUMPDEST PUSH1 0x0 CALLER SWAP1 POP SWAP1 JUMP JUMPDEST PUSH1 0x0 DUP1 PUSH1 0x0 SWAP1 SLOAD SWAP1 PUSH2 0x100 EXP SWAP1 DIV PUSH20 0xFFFFFFFFFFFFFFFFFFFFFFFFFFFFFFFFFFFFFFFF AND SWAP1 POP DUP2 PUSH1 0x0 DUP1 PUSH2 0x100 EXP DUP2 SLOAD DUP2 PUSH20 0xFFFFFFFFFFFFFFFFFFFFFFFFFFFFFFFFFFFFFFFF MUL NOT AND SWAP1 DUP4 PUSH20 0xFFFFFFFFFFFFFFFFFFFFFFFFFFFFFFFFFFFFFFFF AND MUL OR SWAP1 SSTORE POP DUP2 PUSH20 0xFFFFFFFFFFFFFFFFFFFFFFFFFFFFFFFFFFFFFFFF AND DUP2 PUSH20 0xFFFFFFFFFFFFFFFFFFFFFFFFFFFFFFFFFFFFFFFF AND PUSH32 0x8BE0079C531659141344CD1FD0A4F28419497F9722A3DAAFE3B4186F6B6457E0 PUSH1 0x40 MLOAD PUSH1 0x40 MLOAD DUP1 SWAP2 SUB SWAP1 LOG3 POP POP JUMP JUMPDEST PUSH2 0x18F1 DUP1 PUSH2 0x10D PUSH1 0x0 CODECOPY PUSH1 0x0 RETURN INVALID PUSH1 0x80 PUSH1 0x40 MSTORE CALLVALUE DUP1 ISZERO PUSH2 0x10 JUMPI PUSH1 0x0 DUP1 REVERT JUMPDEST POP PUSH1 0x4 CALLDATASIZE LT PUSH2 0xA9 JUMPI PUSH1 0x0 CALLDATALOAD PUSH1 0xE0 SHR DUP1 PUSH4 0x7E490A9E GT PUSH2 0x71 JUMPI DUP1 PUSH4 0x7E490A9E EQ PUSH2 0x152 JUMPI DUP1 PUSH4 0x8DA5CB5B EQ PUSH2 0x16E JUMPI DUP1 PUSH4 0xB905AD78 EQ PUSH2 0x18C JUMPI DUP1 PUSH4 0xCA5140C9 EQ PUSH2 0x1AA JUMPI DUP1 PUSH4 0xF2FDE38B EQ PUSH2 0x1C6 JUMPI DUP1 PUSH4 0xF4CBC4A6 EQ PUSH2 0x1E2 JUMPI PUSH2 0xA9 JUMP JUMPDEST DUP1 PUSH4 0x60F9EEFC EQ PUSH2 0xAE JUMPI DUP1 PUSH4 0x637A3872 EQ PUSH2 0xCA JUMPI DUP1 PUSH4 0x642EA5CE EQ PUSH2 0xE6 JUMPI DUP1 PUSH4 0x715018A6 EQ PUSH2 0x116 JUMPI DUP1 PUSH4 0x7975C6B4 EQ PUSH2 0x120 JUMPI JUMPDEST PUSH1 0x0 DUP1 REVERT JUMPDEST PUSH2 0xC8 PUSH1 0x4 DUP1 CALLDATASIZE SUB DUP2 ADD SWAP1 PUSH2 0xC3 SWAP2 SWAP1 PUSH2 0xEE2 JUMP JUMPDEST PUSH2 0x200 JUMP JUMPDEST STOP JUMPDEST PUSH2 0xE4 PUSH1 0x4 DUP1 CALLDATASIZE SUB DUP2 ADD SWAP1 PUSH2 0xDF SWAP2 SWAP1 PUSH2 0xE59 JUMP JUMPDEST PUSH2 0x2DE JUMP JUMPDEST STOP JUMPDEST PUSH2 0x100 PUSH1 0x4 DUP1 CALLDATASIZE SUB DUP2 ADD SWAP1 PUSH2 0xFB SWAP2 SWAP1 PUSH2 0xEB5 JUMP JUMPDEST PUSH2 0x423 JUMP JUMPDEST PUSH1 0x40 MLOAD PUSH2 0x10D SWAP2 SWAP1 PUSH2 0x11FE JUMP JUMPDEST PUSH1 0x40 MLOAD DUP1 SWAP2 SUB SWAP1 RETURN JUMPDEST PUSH2 0x11E PUSH2 0x546 JUMP JUMPDEST STOP JUMPDEST PUSH2 0x13A PUSH1 0x4 DUP1 CALLDATASIZE SUB DUP2 ADD SWAP1 PUSH2 0x135 SWAP2 SWAP1 PUSH2 0xEB5 JUMP JUMPDEST PUSH2 0x55A JUMP JUMPDEST PUSH1 0x40 MLOAD PUSH2 0x149 SWAP4 SWAP3 SWAP2 SWAP1 PUSH2 0x1242 JUMP JUMPDEST PUSH1 0x40 MLOAD DUP1 SWAP2 SUB SWAP1 RETURN JUMPDEST PUSH2 0x16C PUSH1 0x4 DUP1 CALLDATASIZE SUB DUP2 ADD SWAP1 PUSH2 0x167 SWAP2 SWAP1 PUSH2 0xEB5 JUMP JUMPDEST PUSH2 0x60C JUMP JUMPDEST STOP JUMPDEST PUSH2 0x176 PUSH2 0x7CA JUMP JUMPDEST PUSH1 0x40 MLOAD PUSH2 0x183 SWAP2 SWAP1 PUSH2 0x11E3 JUMP JUMPDEST PUSH1 0x40 MLOAD DUP1 SWAP2 SUB SWAP1 RETURN JUMPDEST PUSH2 0x194 PUSH2 0x7F3 JUMP JUMPDEST PUSH1 0x40 MLOAD PUSH2 0x1A1 SWAP2 SWAP1 PUSH2 0x1380 JUMP JUMPDEST PUSH1 0x40 MLOAD DUP1 SWAP2 SUB SWAP1 RETURN JUMPDEST PUSH2 0x1C4 PUSH1 0x4 DUP1 CALLDATASIZE SUB DUP2 ADD SWAP1 PUSH2 0x1BF SWAP2 SWAP1 PUSH2 0xEB5 JUMP JUMPDEST PUSH2 0x7F9 JUMP JUMPDEST STOP JUMPDEST PUSH2 0x1E0 PUSH1 0x4 DUP1 CALLDATASIZE SUB DUP2 ADD SWAP1 PUSH2 0x1DB SWAP2 SWAP1 PUSH2 0xE2C JUMP JUMPDEST PUSH2 0x933 JUMP JUMPDEST STOP JUMPDEST PUSH2 0x1EA PUSH2 0x9B7 JUMP JUMPDEST PUSH1 0x40 MLOAD PUSH2 0x1F7 SWAP2 SWAP1 PUSH2 0x1220 JUMP JUMPDEST PUSH1 0x40 MLOAD DUP1 SWAP2 SUB SWAP1 RETURN JUMPDEST PUSH2 0x208 PUSH2 0xBA5 JUMP JUMPDEST PUSH1 0x0 DUP2 GT PUSH2 0x24B JUMPI PUSH1 0x40 MLOAD PUSH32 0x8C379A000000000000000000000000000000000000000000000000000000000 DUP2 MSTORE PUSH1 0x4 ADD PUSH2 0x242 SWAP1 PUSH2 0x1340 JUMP JUMPDEST PUSH1 0x40 MLOAD DUP1 SWAP2 SUB SWAP1 REVERT JUMPDEST PUSH1 0x0 PUSH1 0x7 PUSH1 0x0 DUP5 DUP2 MSTORE PUSH1 0x20 ADD SWAP1 DUP2 MSTORE PUSH1 0x20 ADD PUSH1 0x0 KECCAK256 SWAP1 POP PUSH1 0x0 DUP2 PUSH1 0x0 ADD DUP1 SLOAD PUSH2 0x273 SWAP1 PUSH2 0x1592 JUMP JUMPDEST SWAP1 POP EQ ISZERO PUSH2 0x2B6 JUMPI PUSH1 0x40 MLOAD PUSH32 0x8C379A000000000000000000000000000000000000000000000000000000000 DUP2 MSTORE PUSH1 0x4 ADD PUSH2 0x2AD SWAP1 PUSH2 0x1360 JUMP JUMPDEST PUSH1 0x40 MLOAD DUP1 SWAP2 SUB SWAP1 REVERT JUMPDEST PUSH1 0x1 DUP2 PUSH1 0x1 ADD PUSH1 0x0 DUP3 DUP3 SLOAD PUSH2 0x2CB SWAP2 SWAP1 PUSH2 0x148A JUMP JUMPDEST SWAP3 POP POP DUP2 SWAP1 SSTORE DUP2 PUSH1 0x1 ADD DUP2 SWAP1 SSTORE POP POP POP POP JUMP JUMPDEST PUSH2 0x2E6 PUSH2 0xBA5 JUMP JUMPDEST DUP2 PUSH1 0x6 DUP2 PUSH1 0x40 MLOAD PUSH2 0x2F7 SWAP2 SWAP1 PUSH2 0x11CC JUMP JUMPDEST SWAP1 DUP2 MSTORE PUSH1 0x20 ADD PUSH1 0x40 MLOAD DUP1 SWAP2 SUB SWAP1 KECCAK256 PUSH1 0x0 SWAP1 SLOAD SWAP1 PUSH2 0x100 EXP SWAP1 DIV PUSH1 0xFF AND ISZERO PUSH2 0x353 JUMPI PUSH1 0x40 MLOAD PUSH32 0x8C379A000000000000000000000000000000000000000000000000000000000 DUP2 MSTORE PUSH1 0x4 ADD PUSH2 0x34A SWAP1 PUSH2 0x12A0 JUMP JUMPDEST PUSH1 0x40 MLOAD DUP1 SWAP2 SUB SWAP1 REVERT JUMPDEST PUSH1 0x0 DUP4 MLOAD EQ ISZERO PUSH2 0x398 JUMPI PUSH1 0x40 MLOAD PUSH32 0x8C379A000000000000000000000000000000000000000000000000000000000 DUP2 MSTORE PUSH1 0x4 ADD PUSH2 0x38F SWAP1 PUSH2 0x1280 JUMP JUMPDEST PUSH1 0x40 MLOAD DUP1 SWAP2 SUB SWAP1 REVERT JUMPDEST PUSH1 0x1 PUSH1 0x6 DUP5 PUSH1 0x40 MLOAD PUSH2 0x3AA SWAP2 SWAP1 PUSH2 0x11CC JUMP JUMPDEST SWAP1 DUP2 MSTORE PUSH1 0x20 ADD PUSH1 0x40 MLOAD DUP1 SWAP2 SUB SWAP1 KECCAK256 PUSH1 0x0 PUSH2 0x100 EXP DUP2 SLOAD DUP2 PUSH1 0xFF MUL NOT AND SWAP1 DUP4 ISZERO ISZERO MUL OR SWAP1 SSTORE POP PUSH1 0x0 PUSH1 0x1 DUP4 PUSH2 0x3DE SWAP2 SWAP1 PUSH2 0x148A JUMP JUMPDEST SWAP3 POP DUP3 SWAP1 POP PUSH1 0x0 PUSH1 0x7 PUSH1 0x0 DUP4 DUP2 MSTORE PUSH1 0x20 ADD SWAP1 DUP2 MSTORE PUSH1 0x20 ADD PUSH1 0x0 KECCAK256 SWAP1 POP DUP5 DUP2 PUSH1 0x0 ADD SWAP1 DUP1 MLOAD SWAP1 PUSH1 0x20 ADD SWAP1 PUSH2 0x412 SWAP3 SWAP2 SWAP1 PUSH2 0xCEF JUMP JUMPDEST POP DUP4 DUP2 PUSH1 0x1 ADD DUP2 SWAP1 SSTORE POP POP POP POP POP POP JUMP JUMPDEST PUSH1 0x60 PUSH1 0x0 PUSH1 0x7 PUSH1 0x0 DUP5 DUP2 MSTORE PUSH1 0x20 ADD SWAP1 DUP2 MSTORE PUSH1 0x20 ADD PUSH1 0x0 KECCAK256 PUSH1 0x2 ADD SLOAD PUSH8 0xFFFFFFFFFFFFFFFF DUP2 GT ISZERO PUSH2 0x457 JUMPI PUSH2 0x456 PUSH2 0x16CB JUMP JUMPDEST JUMPDEST PUSH1 0x40 MLOAD SWAP1 DUP1 DUP3 MSTORE DUP1 PUSH1 0x20 MUL PUSH1 0x20 ADD DUP3 ADD PUSH1 0x40 MSTORE DUP1 ISZERO PUSH2 0x485 JUMPI DUP2 PUSH1 0x20 ADD PUSH1 0x20 DUP3 MUL DUP1 CALLDATASIZE DUP4 CALLDATACOPY DUP1 DUP3 ADD SWAP2 POP POP SWAP1 POP JUMPDEST POP SWAP1 POP PUSH1 0x0 JUMPDEST DUP2 MLOAD DUP2 LT ISZERO PUSH2 0x53C JUMPI PUSH1 0x7 PUSH1 0x0 DUP6 DUP2 MSTORE PUSH1 0x20 ADD SWAP1 DUP2 MSTORE PUSH1 0x20 ADD PUSH1 0x0 KECCAK256 PUSH1 0x3 ADD PUSH1 0x0 DUP3 DUP2 MSTORE PUSH1 0x20 ADD SWAP1 DUP2 MSTORE PUSH1 0x20 ADD PUSH1 0x0 KECCAK256 PUSH1 0x0 SWAP1 SLOAD SWAP1 PUSH2 0x100 EXP SWAP1 DIV PUSH20 0xFFFFFFFFFFFFFFFFFFFFFFFFFFFFFFFFFFFFFFFF AND DUP3 DUP3 DUP2 MLOAD DUP2 LT PUSH2 0x4EF JUMPI PUSH2 0x4EE PUSH2 0x169C JUMP JUMPDEST JUMPDEST PUSH1 0x20 MUL PUSH1 0x20 ADD ADD SWAP1 PUSH20 0xFFFFFFFFFFFFFFFFFFFFFFFFFFFFFFFFFFFFFFFF AND SWAP1 DUP2 PUSH20 0xFFFFFFFFFFFFFFFFFFFFFFFFFFFFFFFFFFFFFFFF AND DUP2 MSTORE POP POP DUP1 DUP1 PUSH2 0x534 SWAP1 PUSH2 0x15F5 JUMP JUMPDEST SWAP2 POP POP PUSH2 0x48B JUMP JUMPDEST POP DUP1 SWAP2 POP POP SWAP2 SWAP1 POP JUMP JUMPDEST PUSH2 0x54E PUSH2 0xBA5 JUMP JUMPDEST PUSH2 0x558 PUSH1 0x0 PUSH2 0xC23 JUMP JUMPDEST JUMP JUMPDEST PUSH1 0x7 PUSH1 0x20 MSTORE DUP1 PUSH1 0x0 MSTORE PUSH1 0x40 PUSH1 0x0 KECCAK256 PUSH1 0x0 SWAP2 POP SWAP1 POP DUP1 PUSH1 0x0 ADD DUP1 SLOAD PUSH2 0x57D SWAP1 PUSH2 0x1592 JUMP JUMPDEST DUP1 PUSH1 0x1F ADD PUSH1 0x20 DUP1 SWAP2 DIV MUL PUSH1 0x20 ADD PUSH1 0x40 MLOAD SWAP1 DUP2 ADD PUSH1 0x40 MSTORE DUP1 SWAP3 SWAP2 SWAP1 DUP2 DUP2 MSTORE PUSH1 0x20 ADD DUP3 DUP1 SLOAD PUSH2 0x5A9 SWAP1 PUSH2 0x1592 JUMP JUMPDEST DUP1 ISZERO PUSH2 0x5F6 JUMPI DUP1 PUSH1 0x1F LT PUSH2 0x5CB JUMPI PUSH2 0x100 DUP1 DUP4 SLOAD DIV MUL DUP4 MSTORE SWAP2 PUSH1 0x20 ADD SWAP2 PUSH2 0x5F6 JUMP JUMPDEST DUP3 ADD SWAP2 SWAP1 PUSH1 0x0 MSTORE PUSH1 0x20 PUSH1 0x0 KECCAK256 SWAP1 JUMPDEST DUP2 SLOAD DUP2 MSTORE SWAP1 PUSH1 0x1 ADD SWAP1 PUSH1 0x20 ADD DUP1 DUP4 GT PUSH2 0x5D9 JUMPI DUP3 SWAP1 SUB PUSH1 0x1F AND DUP3 ADD SWAP2 JUMPDEST POP POP POP POP POP SWAP1 DUP1 PUSH1 0x1 ADD SLOAD SWAP1 DUP1 PUSH1 0x2 ADD SLOAD SWAP1 POP DUP4 JUMP JUMPDEST PUSH1 0x8 PUSH1 0x0 CALLER PUSH20 0xFFFFFFFFFFFFFFFFFFFFFFFFFFFFFFFFFFFFFFFF AND PUSH20 0xFFFFFFFFFFFFFFFFFFFFFFFFFFFFFFFFFFFFFFFF AND DUP2 MSTORE PUSH1 0x20 ADD SWAP1 DUP2 MSTORE PUSH1 0x20 ADD PUSH1 0x0 KECCAK256 PUSH1 0x0 DUP3 DUP2 MSTORE PUSH1 0x20 ADD SWAP1 DUP2 MSTORE PUSH1 0x20 ADD PUSH1 0x0 KECCAK256 PUSH1 0x0 SWAP1 SLOAD SWAP1 PUSH2 0x100 EXP SWAP1 DIV PUSH1 0xFF AND ISZERO PUSH2 0x6AA JUMPI PUSH1 0x40 MLOAD PUSH32 0x8C379A000000000000000000000000000000000000000000000000000000000 DUP2 MSTORE PUSH1 0x4 ADD PUSH2 0x6A1 SWAP1 PUSH2 0x12C0 JUMP JUMPDEST PUSH1 0x40 MLOAD DUP1 SWAP2 SUB SWAP1 REVERT JUMPDEST PUSH1 0x1 PUSH1 0x8 PUSH1 0x0 CALLER PUSH20 0xFFFFFFFFFFFFFFFFFFFFFFFFFFFFFFFFFFFFFFFF AND PUSH20 0xFFFFFFFFFFFFFFFFFFFFFFFFFFFFFFFFFFFFFFFF AND DUP2 MSTORE PUSH1 0x20 ADD SWAP1 DUP2 MSTORE PUSH1 0x20 ADD PUSH1 0x0 KECCAK256 PUSH1 0x0 DUP4 DUP2 MSTORE PUSH1 0x20 ADD SWAP1 DUP2 MSTORE PUSH1 0x20 ADD PUSH1 0x0 KECCAK256 PUSH1 0x0 PUSH2 0x100 EXP DUP2 SLOAD DUP2 PUSH1 0xFF MUL NOT AND SWAP1 DUP4 ISZERO ISZERO MUL OR SWAP1 SSTORE POP PUSH1 0x0 PUSH1 0x7 PUSH1 0x0 DUP4 DUP2 MSTORE PUSH1 0x20 ADD SWAP1 DUP2 MSTORE PUSH1 0x20 ADD PUSH1 0x0 KECCAK256 SWAP1 POP PUSH1 0x1 DUP2 PUSH1 0x1 ADD SLOAD LT ISZERO PUSH2 0x73C JUMPI PUSH1 0x0 DUP1 REVERT JUMPDEST PUSH1 0x1 DUP2 PUSH1 0x1 ADD SLOAD PUSH2 0x74D SWAP2 SWAP1 PUSH2 0x14E0 JUMP JUMPDEST DUP2 PUSH1 0x1 ADD DUP2 SWAP1 SSTORE POP CALLER DUP2 PUSH1 0x3 ADD PUSH1 0x0 DUP4 PUSH1 0x2 ADD SLOAD DUP2 MSTORE PUSH1 0x20 ADD SWAP1 DUP2 MSTORE PUSH1 0x20 ADD PUSH1 0x0 KECCAK256 PUSH1 0x0 PUSH2 0x100 EXP DUP2 SLOAD DUP2 PUSH20 0xFFFFFFFFFFFFFFFFFFFFFFFFFFFFFFFFFFFFFFFF MUL NOT AND SWAP1 DUP4 PUSH20 0xFFFFFFFFFFFFFFFFFFFFFFFFFFFFFFFFFFFFFFFF AND MUL OR SWAP1 SSTORE POP PUSH1 0x1 DUP2 PUSH1 0x2 ADD SLOAD PUSH2 0x7BE SWAP2 SWAP1 PUSH2 0x148A JUMP JUMPDEST DUP2 PUSH1 0x2 ADD DUP2 SWAP1 SSTORE POP POP POP JUMP JUMPDEST PUSH1 0x0 DUP1 PUSH1 0x0 SWAP1 SLOAD SWAP1 PUSH2 0x100 EXP SWAP1 DIV PUSH20 0xFFFFFFFFFFFFFFFFFFFFFFFFFFFFFFFFFFFFFFFF AND SWAP1 POP SWAP1 JUMP JUMPDEST PUSH1 0x5 SLOAD DUP2 JUMP JUMPDEST PUSH1 0x8 PUSH1 0x0 CALLER PUSH20 0xFFFFFFFFFFFFFFFFFFFFFFFFFFFFFFFFFFFFFFFF AND PUSH20 0xFFFFFFFFFFFFFFFFFFFFFFFFFFFFFFFFFFFFFFFF AND DUP2 MSTORE PUSH1 0x20 ADD SWAP1 DUP2 MSTORE PUSH1 0x20 ADD PUSH1 0x0 KECCAK256 PUSH1 0x0 DUP3 DUP2 MSTORE PUSH1 0x20 ADD SWAP1 DUP2 MSTORE PUSH1 0x20 ADD PUSH1 0x0 KECCAK256 PUSH1 0x0 SWAP1 SLOAD SWAP1 PUSH2 0x100 EXP SWAP1 DIV PUSH1 0xFF AND PUSH2 0x896 JUMPI PUSH1 0x40 MLOAD PUSH32 0x8C379A000000000000000000000000000000000000000000000000000000000 DUP2 MSTORE PUSH1 0x4 ADD PUSH2 0x88D SWAP1 PUSH2 0x1300 JUMP JUMPDEST PUSH1 0x40 MLOAD DUP1 SWAP2 SUB SWAP1 REVERT JUMPDEST PUSH1 0x0 PUSH1 0x7 PUSH1 0x0 DUP4 DUP2 MSTORE PUSH1 0x20 ADD SWAP1 DUP2 MSTORE PUSH1 0x20 ADD PUSH1 0x0 KECCAK256 SWAP1 POP PUSH1 0x1 DUP2 PUSH1 0x1 ADD SLOAD PUSH2 0x8BE SWAP2 SWAP1 PUSH2 0x148A JUMP JUMPDEST DUP2 PUSH1 0x1 ADD DUP2 SWAP1 SSTORE POP PUSH1 0x0 PUSH1 0x8 PUSH1 0x0 CALLER PUSH20 0xFFFFFFFFFFFFFFFFFFFFFFFFFFFFFFFFFFFFFFFF AND PUSH20 0xFFFFFFFFFFFFFFFFFFFFFFFFFFFFFFFFFFFFFFFF AND DUP2 MSTORE PUSH1 0x20 ADD SWAP1 DUP2 MSTORE PUSH1 0x20 ADD PUSH1 0x0 KECCAK256 PUSH1 0x0 DUP5 DUP2 MSTORE PUSH1 0x20 ADD SWAP1 DUP2 MSTORE PUSH1 0x20 ADD PUSH1 0x0 KECCAK256 PUSH1 0x0 PUSH2 0x100 EXP DUP2 SLOAD DUP2 PUSH1 0xFF MUL NOT AND SWAP1 DUP4 ISZERO ISZERO MUL OR SWAP1 SSTORE POP POP POP JUMP JUMPDEST PUSH2 0x93B PUSH2 0xBA5 JUMP JUMPDEST PUSH1 0x0 PUSH20 0xFFFFFFFFFFFFFFFFFFFFFFFFFFFFFFFFFFFFFFFF AND DUP2 PUSH20 0xFFFFFFFFFFFFFFFFFFFFFFFFFFFFFFFFFFFFFFFF AND EQ ISZERO PUSH2 0x9AB JUMPI PUSH1 0x40 MLOAD PUSH32 0x8C379A000000000000000000000000000000000000000000000000000000000 DUP2 MSTORE PUSH1 0x4 ADD PUSH2 0x9A2 SWAP1 PUSH2 0x12E0 JUMP JUMPDEST PUSH1 0x40 MLOAD DUP1 SWAP2 SUB SWAP1 REVERT JUMPDEST PUSH2 0x9B4 DUP2 PUSH2 0xC23 JUMP JUMPDEST POP JUMP JUMPDEST PUSH1 0x60 PUSH1 0x0 DUP1 PUSH1 0x1 SWAP1 POP JUMPDEST PUSH1 0x5 SLOAD DUP2 GT PUSH2 0xA72 JUMPI PUSH1 0x8 PUSH1 0x0 CALLER PUSH20 0xFFFFFFFFFFFFFFFFFFFFFFFFFFFFFFFFFFFFFFFF AND PUSH20 0xFFFFFFFFFFFFFFFFFFFFFFFFFFFFFFFFFFFFFFFF AND DUP2 MSTORE PUSH1 0x20 ADD SWAP1 DUP2 MSTORE PUSH1 0x20 ADD PUSH1 0x0 KECCAK256 PUSH1 0x0 DUP3 DUP2 MSTORE PUSH1 0x20 ADD SWAP1 DUP2 MSTORE PUSH1 0x20 ADD PUSH1 0x0 KECCAK256 PUSH1 0x0 SWAP1 SLOAD SWAP1 PUSH2 0x100 EXP SWAP1 DIV PUSH1 0xFF AND ISZERO DUP1 ISZERO PUSH2 0xA4B JUMPI POP PUSH1 0x0 PUSH1 0x7 PUSH1 0x0 DUP4 DUP2 MSTORE PUSH1 0x20 ADD SWAP1 DUP2 MSTORE PUSH1 0x20 ADD PUSH1 0x0 KECCAK256 PUSH1 0x1 ADD SLOAD GT JUMPDEST ISZERO PUSH2 0xA5F JUMPI DUP2 DUP1 PUSH2 0xA5B SWAP1 PUSH2 0x15F5 JUMP JUMPDEST SWAP3 POP POP JUMPDEST DUP1 DUP1 PUSH2 0xA6A SWAP1 PUSH2 0x15F5 JUMP JUMPDEST SWAP2 POP POP PUSH2 0x9C1 JUMP JUMPDEST POP PUSH1 0x0 DUP2 PUSH8 0xFFFFFFFFFFFFFFFF DUP2 GT ISZERO PUSH2 0xA8F JUMPI PUSH2 0xA8E PUSH2 0x16CB JUMP JUMPDEST JUMPDEST PUSH1 0x40 MLOAD SWAP1 DUP1 DUP3 MSTORE DUP1 PUSH1 0x20 MUL PUSH1 0x20 ADD DUP3 ADD PUSH1 0x40 MSTORE DUP1 ISZERO PUSH2 0xABD JUMPI DUP2 PUSH1 0x20 ADD PUSH1 0x20 DUP3 MUL DUP1 CALLDATASIZE DUP4 CALLDATACOPY DUP1 DUP3 ADD SWAP2 POP POP SWAP1 POP JUMPDEST POP SWAP1 POP PUSH1 0x0 SWAP2 POP PUSH1 0x0 PUSH1 0x1 SWAP1 POP JUMPDEST PUSH1 0x5 SLOAD DUP2 GT PUSH2 0xB9C JUMPI PUSH1 0x8 PUSH1 0x0 CALLER PUSH20 0xFFFFFFFFFFFFFFFFFFFFFFFFFFFFFFFFFFFFFFFF AND PUSH20 0xFFFFFFFFFFFFFFFFFFFFFFFFFFFFFFFFFFFFFFFF AND DUP2 MSTORE PUSH1 0x20 ADD SWAP1 DUP2 MSTORE PUSH1 0x20 ADD PUSH1 0x0 KECCAK256 PUSH1 0x0 DUP3 DUP2 MSTORE PUSH1 0x20 ADD SWAP1 DUP2 MSTORE PUSH1 0x20 ADD PUSH1 0x0 KECCAK256 PUSH1 0x0 SWAP1 SLOAD SWAP1 PUSH2 0x100 EXP SWAP1 DIV PUSH1 0xFF AND ISZERO DUP1 ISZERO PUSH2 0xB55 JUMPI POP PUSH1 0x0 PUSH1 0x7 PUSH1 0x0 DUP4 DUP2 MSTORE PUSH1 0x20 ADD SWAP1 DUP2 MSTORE PUSH1 0x20 ADD PUSH1 0x0 KECCAK256 PUSH1 0x1 ADD SLOAD GT JUMPDEST ISZERO PUSH2 0xB89 JUMPI DUP1 DUP3 DUP5 DUP2 MLOAD DUP2 LT PUSH2 0xB6E JUMPI PUSH2 0xB6D PUSH2 0x169C JUMP JUMPDEST JUMPDEST PUSH1 0x20 MUL PUSH1 0x20 ADD ADD DUP2 DUP2 MSTORE POP POP DUP3 DUP1 PUSH2 0xB85 SWAP1 PUSH2 0x15F5 JUMP JUMPDEST SWAP4 POP POP JUMPDEST DUP1 DUP1 PUSH2 0xB94 SWAP1 PUSH2 0x15F5 JUMP JUMPDEST SWAP2 POP POP PUSH2 0xACB JUMP JUMPDEST POP DUP1 SWAP3 POP POP POP SWAP1 JUMP JUMPDEST PUSH2 0xBAD PUSH2 0xCE7 JUMP JUMPDEST PUSH20 0xFFFFFFFFFFFFFFFFFFFFFFFFFFFFFFFFFFFFFFFF AND PUSH2 0xBCB PUSH2 0x7CA JUMP JUMPDEST PUSH20 0xFFFFFFFFFFFFFFFFFFFFFFFFFFFFFFFFFFFFFFFF AND EQ PUSH2 0xC21 JUMPI PUSH1 0x40 MLOAD PUSH32 0x8C379A000000000000000000000000000000000000000000000000000000000 DUP2 MSTORE PUSH1 0x4 ADD PUSH2 0xC18 SWAP1 PUSH2 0x1320 JUMP JUMPDEST PUSH1 0x40 MLOAD DUP1 SWAP2 SUB SWAP1 REVERT JUMPDEST JUMP JUMPDEST PUSH1 0x0 DUP1 PUSH1 0x0 SWAP1 SLOAD SWAP1 PUSH2 0x100 EXP SWAP1 DIV PUSH20 0xFFFFFFFFFFFFFFFFFFFFFFFFFFFFFFFFFFFFFFFF AND SWAP1 POP DUP2 PUSH1 0x0 DUP1 PUSH2 0x100 EXP DUP2 SLOAD DUP2 PUSH20 0xFFFFFFFFFFFFFFFFFFFFFFFFFFFFFFFFFFFFFFFF MUL NOT AND SWAP1 DUP4 PUSH20 0xFFFFFFFFFFFFFFFFFFFFFFFFFFFFFFFFFFFFFFFF AND MUL OR SWAP1 SSTORE POP DUP2 PUSH20 0xFFFFFFFFFFFFFFFFFFFFFFFFFFFFFFFFFFFFFFFF AND DUP2 PUSH20 0xFFFFFFFFFFFFFFFFFFFFFFFFFFFFFFFFFFFFFFFF AND PUSH32 0x8BE0079C531659141344CD1FD0A4F28419497F9722A3DAAFE3B4186F6B6457E0 PUSH1 0x40 MLOAD PUSH1 0x40 MLOAD DUP1 SWAP2 SUB SWAP1 LOG3 POP POP JUMP JUMPDEST PUSH1 0x0 CALLER SWAP1 POP SWAP1 JUMP JUMPDEST DUP3 DUP1 SLOAD PUSH2 0xCFB SWAP1 PUSH2 0x1592 JUMP JUMPDEST SWAP1 PUSH1 0x0 MSTORE PUSH1 0x20 PUSH1 0x0 KECCAK256 SWAP1 PUSH1 0x1F ADD PUSH1 0x20 SWAP1 DIV DUP2 ADD SWAP3 DUP3 PUSH2 0xD1D JUMPI PUSH1 0x0 DUP6 SSTORE PUSH2 0xD64 JUMP JUMPDEST DUP3 PUSH1 0x1F LT PUSH2 0xD36 JUMPI DUP1 MLOAD PUSH1 0xFF NOT AND DUP4 DUP1 ADD OR DUP6 SSTORE PUSH2 0xD64 JUMP JUMPDEST DUP3 DUP1 ADD PUSH1 0x1 ADD DUP6 SSTORE DUP3 ISZERO PUSH2 0xD64 JUMPI SWAP2 DUP3 ADD JUMPDEST DUP3 DUP2 GT ISZERO PUSH2 0xD63 JUMPI DUP3 MLOAD DUP3 SSTORE SWAP2 PUSH1 0x20 ADD SWAP2 SWAP1 PUSH1 0x1 ADD SWAP1 PUSH2 0xD48 JUMP JUMPDEST JUMPDEST POP SWAP1 POP PUSH2 0xD71 SWAP2 SWAP1 PUSH2 0xD75 JUMP JUMPDEST POP SWAP1 JUMP JUMPDEST JUMPDEST DUP1 DUP3 GT ISZERO PUSH2 0xD8E JUMPI PUSH1 0x0 DUP2 PUSH1 0x0 SWAP1 SSTORE POP PUSH1 0x1 ADD PUSH2 0xD76 JUMP JUMPDEST POP SWAP1 JUMP JUMPDEST PUSH1 0x0 PUSH2 0xDA5 PUSH2 0xDA0 DUP5 PUSH2 0x13C0 JUMP JUMPDEST PUSH2 0x139B JUMP JUMPDEST SWAP1 POP DUP3 DUP2 MSTORE PUSH1 0x20 DUP2 ADD DUP5 DUP5 DUP5 ADD GT ISZERO PUSH2 0xDC1 JUMPI PUSH2 0xDC0 PUSH2 0x16FF JUMP JUMPDEST JUMPDEST PUSH2 0xDCC DUP5 DUP3 DUP6 PUSH2 0x1550 JUMP JUMPDEST POP SWAP4 SWAP3 POP POP POP JUMP JUMPDEST PUSH1 0x0 DUP2 CALLDATALOAD SWAP1 POP PUSH2 0xDE3 DUP2 PUSH2 0x188D JUMP JUMPDEST SWAP3 SWAP2 POP POP JUMP JUMPDEST PUSH1 0x0 DUP3 PUSH1 0x1F DUP4 ADD SLT PUSH2 0xDFE JUMPI PUSH2 0xDFD PUSH2 0x16FA JUMP JUMPDEST JUMPDEST DUP2 CALLDATALOAD PUSH2 0xE0E DUP5 DUP3 PUSH1 0x20 DUP7 ADD PUSH2 0xD92 JUMP JUMPDEST SWAP2 POP POP SWAP3 SWAP2 POP POP JUMP JUMPDEST PUSH1 0x0 DUP2 CALLDATALOAD SWAP1 POP PUSH2 0xE26 DUP2 PUSH2 0x18A4 JUMP JUMPDEST SWAP3 SWAP2 POP POP JUMP JUMPDEST PUSH1 0x0 PUSH1 0x20 DUP3 DUP5 SUB SLT ISZERO PUSH2 0xE42 JUMPI PUSH2 0xE41 PUSH2 0x1709 JUMP JUMPDEST JUMPDEST PUSH1 0x0 PUSH2 0xE50 DUP5 DUP3 DUP6 ADD PUSH2 0xDD4 JUMP JUMPDEST SWAP2 POP POP SWAP3 SWAP2 POP POP JUMP JUMPDEST PUSH1 0x0 DUP1 PUSH1 0x40 DUP4 DUP6 SUB SLT ISZERO PUSH2 0xE70 JUMPI PUSH2 0xE6F PUSH2 0x1709 JUMP JUMPDEST JUMPDEST PUSH1 0x0 DUP4 ADD CALLDATALOAD PUSH8 0xFFFFFFFFFFFFFFFF DUP2 GT ISZERO PUSH2 0xE8E JUMPI PUSH2 0xE8D PUSH2 0x1704 JUMP JUMPDEST JUMPDEST PUSH2 0xE9A DUP6 DUP3 DUP7 ADD PUSH2 0xDE9 JUMP JUMPDEST SWAP3 POP POP PUSH1 0x20 PUSH2 0xEAB DUP6 DUP3 DUP7 ADD PUSH2 0xE17 JUMP JUMPDEST SWAP2 POP POP SWAP3 POP SWAP3 SWAP1 POP JUMP JUMPDEST PUSH1 0x0 PUSH1 0x20 DUP3 DUP5 SUB SLT ISZERO PUSH2 0xECB JUMPI PUSH2 0xECA PUSH2 0x1709 JUMP JUMPDEST JUMPDEST PUSH1 0x0 PUSH2 0xED9 DUP5 DUP3 DUP6 ADD PUSH2 0xE17 JUMP JUMPDEST SWAP2 POP POP SWAP3 SWAP2 POP POP JUMP JUMPDEST PUSH1 0x0 DUP1 PUSH1 0x40 DUP4 DUP6 SUB SLT ISZERO PUSH2 0xEF9 JUMPI PUSH2 0xEF8 PUSH2 0x1709 JUMP JUMPDEST JUMPDEST PUSH1 0x0 PUSH2 0xF07 DUP6 DUP3 DUP7 ADD PUSH2 0xE17 JUMP JUMPDEST SWAP3 POP POP PUSH1 0x20 PUSH2 0xF18 DUP6 DUP3 DUP7 ADD PUSH2 0xE17 JUMP JUMPDEST SWAP2 POP POP SWAP3 POP SWAP3 SWAP1 POP JUMP JUMPDEST PUSH1 0x0 PUSH2 0xF2E DUP4 DUP4 PUSH2 0xF52 JUMP JUMPDEST PUSH1 0x20 DUP4 ADD SWAP1 POP SWAP3 SWAP2 POP POP JUMP JUMPDEST PUSH1 0x0 PUSH2 0xF46 DUP4 DUP4 PUSH2 0x11AE JUMP JUMPDEST PUSH1 0x20 DUP4 ADD SWAP1 POP SWAP3 SWAP2 POP POP JUMP JUMPDEST PUSH2 0xF5B DUP2 PUSH2 0x1514 JUMP JUMPDEST DUP3 MSTORE POP POP JUMP JUMPDEST PUSH2 0xF6A DUP2 PUSH2 0x1514 JUMP JUMPDEST DUP3 MSTORE POP POP JUMP JUMPDEST PUSH1 0x0 PUSH2 0xF7B DUP3 PUSH2 0x1411 JUMP JUMPDEST PUSH2 0xF85 DUP2 DUP6 PUSH2 0x144C JUMP JUMPDEST SWAP4 POP PUSH2 0xF90 DUP4 PUSH2 0x13F1 JUMP JUMPDEST DUP1 PUSH1 0x0 JUMPDEST DUP4 DUP2 LT ISZERO PUSH2 0xFC1 JUMPI DUP2 MLOAD PUSH2 0xFA8 DUP9 DUP3 PUSH2 0xF22 JUMP JUMPDEST SWAP8 POP PUSH2 0xFB3 DUP4 PUSH2 0x1432 JUMP JUMPDEST SWAP3 POP POP PUSH1 0x1 DUP2 ADD SWAP1 POP PUSH2 0xF94 JUMP JUMPDEST POP DUP6 SWAP4 POP POP POP POP SWAP3 SWAP2 POP POP JUMP JUMPDEST PUSH1 0x0 PUSH2 0xFD9 DUP3 PUSH2 0x141C JUMP JUMPDEST PUSH2 0xFE3 DUP2 DUP6 PUSH2 0x145D JUMP JUMPDEST SWAP4 POP PUSH2 0xFEE DUP4 PUSH2 0x1401 JUMP JUMPDEST DUP1 PUSH1 0x0 JUMPDEST DUP4 DUP2 LT ISZERO PUSH2 0x101F JUMPI DUP2 MLOAD PUSH2 0x1006 DUP9 DUP3 PUSH2 0xF3A JUMP JUMPDEST SWAP8 POP PUSH2 0x1011 DUP4 PUSH2 0x143F JUMP JUMPDEST SWAP3 POP POP PUSH1 0x1 DUP2 ADD SWAP1 POP PUSH2 0xFF2 JUMP JUMPDEST POP DUP6 SWAP4 POP POP POP POP SWAP3 SWAP2 POP POP JUMP JUMPDEST PUSH1 0x0 PUSH2 0x1037 DUP3 PUSH2 0x1427 JUMP JUMPDEST PUSH2 0x1041 DUP2 DUP6 PUSH2 0x146E JUMP JUMPDEST SWAP4 POP PUSH2 0x1051 DUP2 DUP6 PUSH1 0x20 DUP7 ADD PUSH2 0x155F JUMP JUMPDEST PUSH2 0x105A DUP2 PUSH2 0x170E JUMP JUMPDEST DUP5 ADD SWAP2 POP POP SWAP3 SWAP2 POP POP JUMP JUMPDEST PUSH1 0x0 PUSH2 0x1070 DUP3 PUSH2 0x1427 JUMP JUMPDEST PUSH2 0x107A DUP2 DUP6 PUSH2 0x147F JUMP JUMPDEST SWAP4 POP PUSH2 0x108A DUP2 DUP6 PUSH1 0x20 DUP7 ADD PUSH2 0x155F JUMP JUMPDEST DUP1 DUP5 ADD SWAP2 POP POP SWAP3 SWAP2 POP POP JUMP JUMPDEST PUSH1 0x0 PUSH2 0x10A3 PUSH1 0x14 DUP4 PUSH2 0x146E JUMP JUMPDEST SWAP2 POP PUSH2 0x10AE DUP3 PUSH2 0x171F JUMP JUMPDEST PUSH1 0x20 DUP3 ADD SWAP1 POP SWAP2 SWAP1 POP JUMP JUMPDEST PUSH1 0x0 PUSH2 0x10C6 PUSH1 0x11 DUP4 PUSH2 0x146E JUMP JUMPDEST SWAP2 POP PUSH2 0x10D1 DUP3 PUSH2 0x1748 JUMP JUMPDEST PUSH1 0x20 DUP3 ADD SWAP1 POP SWAP2 SWAP1 POP JUMP JUMPDEST PUSH1 0x0 PUSH2 0x10E9 PUSH1 0x16 DUP4 PUSH2 0x146E JUMP JUMPDEST SWAP2 POP PUSH2 0x10F4 DUP3 PUSH2 0x1771 JUMP JUMPDEST PUSH1 0x20 DUP3 ADD SWAP1 POP SWAP2 SWAP1 POP JUMP JUMPDEST PUSH1 0x0 PUSH2 0x110C PUSH1 0x26 DUP4 PUSH2 0x146E JUMP JUMPDEST SWAP2 POP PUSH2 0x1117 DUP3 PUSH2 0x179A JUMP JUMPDEST PUSH1 0x40 DUP3 ADD SWAP1 POP SWAP2 SWAP1 POP JUMP JUMPDEST PUSH1 0x0 PUSH2 0x112F PUSH1 0x12 DUP4 PUSH2 0x146E JUMP JUMPDEST SWAP2 POP PUSH2 0x113A DUP3 PUSH2 0x17E9 JUMP JUMPDEST PUSH1 0x20 DUP3 ADD SWAP1 POP SWAP2 SWAP1 POP JUMP JUMPDEST PUSH1 0x0 PUSH2 0x1152 PUSH1 0x20 DUP4 PUSH2 0x146E JUMP JUMPDEST SWAP2 POP PUSH2 0x115D DUP3 PUSH2 0x1812 JUMP JUMPDEST PUSH1 0x20 DUP3 ADD SWAP1 POP SWAP2 SWAP1 POP JUMP JUMPDEST PUSH1 0x0 PUSH2 0x1175 PUSH1 0x5 DUP4 PUSH2 0x146E JUMP JUMPDEST SWAP2 POP PUSH2 0x1180 DUP3 PUSH2 0x183B JUMP JUMPDEST PUSH1 0x20 DUP3 ADD SWAP1 POP SWAP2 SWAP1 POP JUMP JUMPDEST PUSH1 0x0 PUSH2 0x1198 PUSH1 0x13 DUP4 PUSH2 0x146E JUMP JUMPDEST SWAP2 POP PUSH2 0x11A3 DUP3 PUSH2 0x1864 JUMP JUMPDEST PUSH1 0x20 DUP3 ADD SWAP1 POP SWAP2 SWAP1 POP JUMP JUMPDEST PUSH2 0x11B7 DUP2 PUSH2 0x1546 JUMP JUMPDEST DUP3 MSTORE POP POP JUMP JUMPDEST PUSH2 0x11C6 DUP2 PUSH2 0x1546 JUMP JUMPDEST DUP3 MSTORE POP POP JUMP JUMPDEST PUSH1 0x0 PUSH2 0x11D8 DUP3 DUP5 PUSH2 0x1065 JUMP JUMPDEST SWAP2 POP DUP2 SWAP1 POP SWAP3 SWAP2 POP POP JUMP JUMPDEST PUSH1 0x0 PUSH1 0x20 DUP3 ADD SWAP1 POP PUSH2 0x11F8 PUSH1 0x0 DUP4 ADD DUP5 PUSH2 0xF61 JUMP JUMPDEST SWAP3 SWAP2 POP POP JUMP JUMPDEST PUSH1 0x0 PUSH1 0x20 DUP3 ADD SWAP1 POP DUP2 DUP2 SUB PUSH1 0x0 DUP4 ADD MSTORE PUSH2 0x1218 DUP2 DUP5 PUSH2 0xF70 JUMP JUMPDEST SWAP1 POP SWAP3 SWAP2 POP POP JUMP JUMPDEST PUSH1 0x0 PUSH1 0x20 DUP3 ADD SWAP1 POP DUP2 DUP2 SUB PUSH1 0x0 DUP4 ADD MSTORE PUSH2 0x123A DUP2 DUP5 PUSH2 0xFCE JUMP JUMPDEST SWAP1 POP SWAP3 SWAP2 POP POP JUMP JUMPDEST PUSH1 0x0 PUSH1 0x60 DUP3 ADD SWAP1 POP DUP2 DUP2 SUB PUSH1 0x0 DUP4 ADD MSTORE PUSH2 0x125C DUP2 DUP7 PUSH2 0x102C JUMP JUMPDEST SWAP1 POP PUSH2 0x126B PUSH1 0x20 DUP4 ADD DUP6 PUSH2 0x11BD JUMP JUMPDEST PUSH2 0x1278 PUSH1 0x40 DUP4 ADD DUP5 PUSH2 0x11BD JUMP JUMPDEST SWAP5 SWAP4 POP POP POP POP JUMP JUMPDEST PUSH1 0x0 PUSH1 0x20 DUP3 ADD SWAP1 POP DUP2 DUP2 SUB PUSH1 0x0 DUP4 ADD MSTORE PUSH2 0x1299 DUP2 PUSH2 0x1096 JUMP JUMPDEST SWAP1 POP SWAP2 SWAP1 POP JUMP JUMPDEST PUSH1 0x0 PUSH1 0x20 DUP3 ADD SWAP1 POP DUP2 DUP2 SUB PUSH1 0x0 DUP4 ADD MSTORE PUSH2 0x12B9 DUP2 PUSH2 0x10B9 JUMP JUMPDEST SWAP1 POP SWAP2 SWAP1 POP JUMP JUMPDEST PUSH1 0x0 PUSH1 0x20 DUP3 ADD SWAP1 POP DUP2 DUP2 SUB PUSH1 0x0 DUP4 ADD MSTORE PUSH2 0x12D9 DUP2 PUSH2 0x10DC JUMP JUMPDEST SWAP1 POP SWAP2 SWAP1 POP JUMP JUMPDEST PUSH1 0x0 PUSH1 0x20 DUP3 ADD SWAP1 POP DUP2 DUP2 SUB PUSH1 0x0 DUP4 ADD MSTORE PUSH2 0x12F9 DUP2 PUSH2 0x10FF JUMP JUMPDEST SWAP1 POP SWAP2 SWAP1 POP JUMP JUMPDEST PUSH1 0x0 PUSH1 0x20 DUP3 ADD SWAP1 POP DUP2 DUP2 SUB PUSH1 0x0 DUP4 ADD MSTORE PUSH2 0x1319 DUP2 PUSH2 0x1122 JUMP JUMPDEST SWAP1 POP SWAP2 SWAP1 POP JUMP JUMPDEST PUSH1 0x0 PUSH1 0x20 DUP3 ADD SWAP1 POP DUP2 DUP2 SUB PUSH1 0x0 DUP4 ADD MSTORE PUSH2 0x1339 DUP2 PUSH2 0x1145 JUMP JUMPDEST SWAP1 POP SWAP2 SWAP1 POP JUMP JUMPDEST PUSH1 0x0 PUSH1 0x20 DUP3 ADD SWAP1 POP DUP2 DUP2 SUB PUSH1 0x0 DUP4 ADD MSTORE PUSH2 0x1359 DUP2 PUSH2 0x1168 JUMP JUMPDEST SWAP1 POP SWAP2 SWAP1 POP JUMP JUMPDEST PUSH1 0x0 PUSH1 0x20 DUP3 ADD SWAP1 POP DUP2 DUP2 SUB PUSH1 0x0 DUP4 ADD MSTORE PUSH2 0x1379 DUP2 PUSH2 0x118B JUMP JUMPDEST SWAP1 POP SWAP2 SWAP1 POP JUMP JUMPDEST PUSH1 0x0 PUSH1 0x20 DUP3 ADD SWAP1 POP PUSH2 0x1395 PUSH1 0x0 DUP4 ADD DUP5 PUSH2 0x11BD JUMP JUMPDEST SWAP3 SWAP2 POP POP JUMP JUMPDEST PUSH1 0x0 PUSH2 0x13A5 PUSH2 0x13B6 JUMP JUMPDEST SWAP1 POP PUSH2 0x13B1 DUP3 DUP3 PUSH2 0x15C4 JUMP JUMPDEST SWAP2 SWAP1 POP JUMP JUMPDEST PUSH1 0x0 PUSH1 0x40 MLOAD SWAP1 POP SWAP1 JUMP JUMPDEST PUSH1 0x0 PUSH8 0xFFFFFFFFFFFFFFFF DUP3 GT ISZERO PUSH2 0x13DB JUMPI PUSH2 0x13DA PUSH2 0x16CB JUMP JUMPDEST JUMPDEST PUSH2 0x13E4 DUP3 PUSH2 0x170E JUMP JUMPDEST SWAP1 POP PUSH1 0x20 DUP2 ADD SWAP1 POP SWAP2 SWAP1 POP JUMP JUMPDEST PUSH1 0x0 DUP2 SWAP1 POP PUSH1 0x20 DUP3 ADD SWAP1 POP SWAP2 SWAP1 POP JUMP JUMPDEST PUSH1 0x0 DUP2 SWAP1 POP PUSH1 0x20 DUP3 ADD SWAP1 POP SWAP2 SWAP1 POP JUMP JUMPDEST PUSH1 0x0 DUP2 MLOAD SWAP1 POP SWAP2 SWAP1 POP JUMP JUMPDEST PUSH1 0x0 DUP2 MLOAD SWAP1 POP SWAP2 SWAP1 POP JUMP JUMPDEST PUSH1 0x0 DUP2 MLOAD SWAP1 POP SWAP2 SWAP1 POP JUMP JUMPDEST PUSH1 0x0 PUSH1 0x20 DUP3 ADD SWAP1 POP SWAP2 SWAP1 POP JUMP JUMPDEST PUSH1 0x0 PUSH1 0x20 DUP3 ADD SWAP1 POP SWAP2 SWAP1 POP JUMP JUMPDEST PUSH1 0x0 DUP3 DUP3 MSTORE PUSH1 0x20 DUP3 ADD SWAP1 POP SWAP3 SWAP2 POP POP JUMP JUMPDEST PUSH1 0x0 DUP3 DUP3 MSTORE PUSH1 0x20 DUP3 ADD SWAP1 POP SWAP3 SWAP2 POP POP JUMP JUMPDEST PUSH1 0x0 DUP3 DUP3 MSTORE PUSH1 0x20 DUP3 ADD SWAP1 POP SWAP3 SWAP2 POP POP JUMP JUMPDEST PUSH1 0x0 DUP2 SWAP1 POP SWAP3 SWAP2 POP POP JUMP JUMPDEST PUSH1 0x0 PUSH2 0x1495 DUP3 PUSH2 0x1546 JUMP JUMPDEST SWAP2 POP PUSH2 0x14A0 DUP4 PUSH2 0x1546 JUMP JUMPDEST SWAP3 POP DUP3 PUSH32 0xFFFFFFFFFFFFFFFFFFFFFFFFFFFFFFFFFFFFFFFFFFFFFFFFFFFFFFFFFFFFFFFF SUB DUP3 GT ISZERO PUSH2 0x14D5 JUMPI PUSH2 0x14D4 PUSH2 0x163E JUMP JUMPDEST JUMPDEST DUP3 DUP3 ADD SWAP1 POP SWAP3 SWAP2 POP POP JUMP JUMPDEST PUSH1 0x0 PUSH2 0x14EB DUP3 PUSH2 0x1546 JUMP JUMPDEST SWAP2 POP PUSH2 0x14F6 DUP4 PUSH2 0x1546 JUMP JUMPDEST SWAP3 POP DUP3 DUP3 LT ISZERO PUSH2 0x1509 JUMPI PUSH2 0x1508 PUSH2 0x163E JUMP JUMPDEST JUMPDEST DUP3 DUP3 SUB SWAP1 POP SWAP3 SWAP2 POP POP JUMP JUMPDEST PUSH1 0x0 PUSH2 0x151F DUP3 PUSH2 0x1526 JUMP JUMPDEST SWAP1 POP SWAP2 SWAP1 POP JUMP JUMPDEST PUSH1 0x0 PUSH20 0xFFFFFFFFFFFFFFFFFFFFFFFFFFFFFFFFFFFFFFFF DUP3 AND SWAP1 POP SWAP2 SWAP1 POP JUMP JUMPDEST PUSH1 0x0 DUP2 SWAP1 POP SWAP2 SWAP1 POP JUMP JUMPDEST DUP3 DUP2 DUP4 CALLDATACOPY PUSH1 0x0 DUP4 DUP4 ADD MSTORE POP POP POP JUMP JUMPDEST PUSH1 0x0 JUMPDEST DUP4 DUP2 LT ISZERO PUSH2 0x157D JUMPI DUP1 DUP3 ADD MLOAD DUP2 DUP5 ADD MSTORE PUSH1 0x20 DUP2 ADD SWAP1 POP PUSH2 0x1562 JUMP JUMPDEST DUP4 DUP2 GT ISZERO PUSH2 0x158C JUMPI PUSH1 0x0 DUP5 DUP5 ADD MSTORE JUMPDEST POP POP POP POP JUMP JUMPDEST PUSH1 0x0 PUSH1 0x2 DUP3 DIV SWAP1 POP PUSH1 0x1 DUP3 AND DUP1 PUSH2 0x15AA JUMPI PUSH1 0x7F DUP3 AND SWAP2 POP JUMPDEST PUSH1 0x20 DUP3 LT DUP2 EQ ISZERO PUSH2 0x15BE JUMPI PUSH2 0x15BD PUSH2 0x166D JUMP JUMPDEST JUMPDEST POP SWAP2 SWAP1 POP JUMP JUMPDEST PUSH2 0x15CD DUP3 PUSH2 0x170E JUMP JUMPDEST DUP2 ADD DUP2 DUP2 LT PUSH8 0xFFFFFFFFFFFFFFFF DUP3 GT OR ISZERO PUSH2 0x15EC JUMPI PUSH2 0x15EB PUSH2 0x16CB JUMP JUMPDEST JUMPDEST DUP1 PUSH1 0x40 MSTORE POP POP POP JUMP JUMPDEST PUSH1 0x0 PUSH2 0x1600 DUP3 PUSH2 0x1546 JUMP JUMPDEST SWAP2 POP PUSH32 0xFFFFFFFFFFFFFFFFFFFFFFFFFFFFFFFFFFFFFFFFFFFFFFFFFFFFFFFFFFFFFFFF DUP3 EQ ISZERO PUSH2 0x1633 JUMPI PUSH2 0x1632 PUSH2 0x163E JUMP JUMPDEST JUMPDEST PUSH1 0x1 DUP3 ADD SWAP1 POP SWAP2 SWAP1 POP JUMP JUMPDEST PUSH32 0x4E487B7100000000000000000000000000000000000000000000000000000000 PUSH1 0x0 MSTORE PUSH1 0x11 PUSH1 0x4 MSTORE PUSH1 0x24 PUSH1 0x0 REVERT JUMPDEST PUSH32 0x4E487B7100000000000000000000000000000000000000000000000000000000 PUSH1 0x0 MSTORE PUSH1 0x22 PUSH1 0x4 MSTORE PUSH1 0x24 PUSH1 0x0 REVERT JUMPDEST PUSH32 0x4E487B7100000000000000000000000000000000000000000000000000000000 PUSH1 0x0 MSTORE PUSH1 0x32 PUSH1 0x4 MSTORE PUSH1 0x24 PUSH1 0x0 REVERT JUMPDEST PUSH32 0x4E487B7100000000000000000000000000000000000000000000000000000000 PUSH1 0x0 MSTORE PUSH1 0x41 PUSH1 0x4 MSTORE PUSH1 0x24 PUSH1 0x0 REVERT JUMPDEST PUSH1 0x0 DUP1 REVERT JUMPDEST PUSH1 0x0 DUP1 REVERT JUMPDEST PUSH1 0x0 DUP1 REVERT JUMPDEST PUSH1 0x0 DUP1 REVERT JUMPDEST PUSH1 0x0 PUSH1 0x1F NOT PUSH1 0x1F DUP4 ADD AND SWAP1 POP SWAP2 SWAP1 POP JUMP JUMPDEST PUSH32 0x4E616D652063616E6E6F7420626520656D707479000000000000000000000000 PUSH1 0x0 DUP3 ADD MSTORE POP JUMP JUMPDEST PUSH32 0x426F6F6B20697320617661696C61626C65000000000000000000000000000000 PUSH1 0x0 DUP3 ADD MSTORE POP JUMP JUMPDEST PUSH32 0x426F6F6B20697320616C72656164792069737375656400000000000000000000 PUSH1 0x0 DUP3 ADD MSTORE POP JUMP JUMPDEST PUSH32 0x4F776E61626C653A206E6577206F776E657220697320746865207A65726F2061 PUSH1 0x0 DUP3 ADD MSTORE PUSH32 0x6464726573730000000000000000000000000000000000000000000000000000 PUSH1 0x20 DUP3 ADD MSTORE POP JUMP JUMPDEST PUSH32 0x426F6F6B206973206E6F74206973737565640000000000000000000000000000 PUSH1 0x0 DUP3 ADD MSTORE POP JUMP JUMPDEST PUSH32 0x4F776E61626C653A2063616C6C6572206973206E6F7420746865206F776E6572 PUSH1 0x0 DUP3 ADD MSTORE POP JUMP JUMPDEST PUSH32 0x217A65726F000000000000000000000000000000000000000000000000000000 PUSH1 0x0 DUP3 ADD MSTORE POP JUMP JUMPDEST PUSH32 0x426F6F6B20646F6573206E6F7420657869737400000000000000000000000000 PUSH1 0x0 DUP3 ADD MSTORE POP JUMP JUMPDEST PUSH2 0x1896 DUP2 PUSH2 0x1514 JUMP JUMPDEST DUP2 EQ PUSH2 0x18A1 JUMPI PUSH1 0x0 DUP1 REVERT JUMPDEST POP JUMP JUMPDEST PUSH2 0x18AD DUP2 PUSH2 0x1546 JUMP JUMPDEST DUP2 EQ PUSH2 0x18B8 JUMPI PUSH1 0x0 DUP1 REVERT JUMPDEST POP JUMP INVALID LOG2 PUSH5 0x6970667358 0x22 SLT KECCAK256 0xE5 0x22 MLOAD 0xD6 SWAP8 SWAP13 0xAC EXTCODEHASH DUP3 PUSH26 0x756B0C2B44224185EF4292D6CE3D41600078240F602A64736F6C PUSH4 0x43000807 STOP CALLER "
				},
				"gasEstimates": {
					"creation": {
						"codeDepositCost": "1277000",
						"executionCost": "infinite",
						"totalCost": "infinite"
					},
					"external": {
						"BookLedger(uint256)": "infinite",
						"addBook(string,uint256)": "infinite",
						"addBookCopies(uint256,uint256)": "infinite",
						"bookCount()": "2473",
						"borrowBook(uint256)": "infinite",
						"getAllAvailableBooks()": "infinite",
						"getOwnerHistoryOfBook(uint256)": "infinite",
						"owner()": "2544",
						"renounceOwnership()": "30465",
						"returnBook(uint256)": "infinite",
						"transferOwnership(address)": "30835"
					}
				},
				"methodIdentifiers": {
					"BookLedger(uint256)": "7975c6b4",
					"addBook(string,uint256)": "637a3872",
					"addBookCopies(uint256,uint256)": "60f9eefc",
					"bookCount()": "b905ad78",
					"borrowBook(uint256)": "7e490a9e",
					"getAllAvailableBooks()": "f4cbc4a6",
					"getOwnerHistoryOfBook(uint256)": "642ea5ce",
					"owner()": "8da5cb5b",
					"renounceOwnership()": "715018a6",
					"returnBook(uint256)": "ca5140c9",
					"transferOwnership(address)": "f2fde38b"
				}
			},
			"storageLayout": {
				"storage": [
					{
						"astId": 7,
						"contract": "contracts/Library.sol:Library",
						"label": "_owner",
						"offset": 0,
						"slot": "0",
						"type": "t_address"
					},
					{
						"astId": 153,
						"contract": "contracts/Library.sol:Library",
						"label": "myBook",
						"offset": 0,
						"slot": "1",
						"type": "t_struct(Book)150_storage"
					},
					{
						"astId": 155,
						"contract": "contracts/Library.sol:Library",
						"label": "bookCount",
						"offset": 0,
						"slot": "5",
						"type": "t_uint256"
					},
					{
						"astId": 159,
						"contract": "contracts/Library.sol:Library",
						"label": "isAvailable",
						"offset": 0,
						"slot": "6",
						"type": "t_mapping(t_string_memory_ptr,t_bool)"
					},
					{
						"astId": 164,
						"contract": "contracts/Library.sol:Library",
						"label": "BookLedger",
						"offset": 0,
						"slot": "7",
						"type": "t_mapping(t_uint256,t_struct(Book)150_storage)"
					},
					{
						"astId": 170,
						"contract": "contracts/Library.sol:Library",
						"label": "isAlreadyIssued",
						"offset": 0,
						"slot": "8",
						"type": "t_mapping(t_address,t_mapping(t_uint256,t_bool))"
					}
				],
				"types": {
					"t_address": {
						"encoding": "inplace",
						"label": "address",
						"numberOfBytes": "20"
					},
					"t_bool": {
						"encoding": "inplace",
						"label": "bool",
						"numberOfBytes": "1"
					},
					"t_mapping(t_address,t_mapping(t_uint256,t_bool))": {
						"encoding": "mapping",
						"key": "t_address",
						"label": "mapping(address => mapping(uint256 => bool))",
						"numberOfBytes": "32",
						"value": "t_mapping(t_uint256,t_bool)"
					},
					"t_mapping(t_string_memory_ptr,t_bool)": {
						"encoding": "mapping",
						"key": "t_string_memory_ptr",
						"label": "mapping(string => bool)",
						"numberOfBytes": "32",
						"value": "t_bool"
					},
					"t_mapping(t_uint256,t_address)": {
						"encoding": "mapping",
						"key": "t_uint256",
						"label": "mapping(uint256 => address)",
						"numberOfBytes": "32",
						"value": "t_address"
					},
					"t_mapping(t_uint256,t_bool)": {
						"encoding": "mapping",
						"key": "t_uint256",
						"label": "mapping(uint256 => bool)",
						"numberOfBytes": "32",
						"value": "t_bool"
					},
					"t_mapping(t_uint256,t_struct(Book)150_storage)": {
						"encoding": "mapping",
						"key": "t_uint256",
						"label": "mapping(uint256 => struct Library.Book)",
						"numberOfBytes": "32",
						"value": "t_struct(Book)150_storage"
					},
					"t_string_memory_ptr": {
						"encoding": "bytes",
						"label": "string",
						"numberOfBytes": "32"
					},
					"t_string_storage": {
						"encoding": "bytes",
						"label": "string",
						"numberOfBytes": "32"
					},
					"t_struct(Book)150_storage": {
						"encoding": "inplace",
						"label": "struct Library.Book",
						"members": [
							{
								"astId": 141,
								"contract": "contracts/Library.sol:Library",
								"label": "name",
								"offset": 0,
								"slot": "0",
								"type": "t_string_storage"
							},
							{
								"astId": 143,
								"contract": "contracts/Library.sol:Library",
								"label": "copies",
								"offset": 0,
								"slot": "1",
								"type": "t_uint256"
							},
							{
								"astId": 145,
								"contract": "contracts/Library.sol:Library",
								"label": "ownerCount",
								"offset": 0,
								"slot": "2",
								"type": "t_uint256"
							},
							{
								"astId": 149,
								"contract": "contracts/Library.sol:Library",
								"label": "ownersHistory",
								"offset": 0,
								"slot": "3",
								"type": "t_mapping(t_uint256,t_address)"
							}
						],
						"numberOfBytes": "128"
					},
					"t_uint256": {
						"encoding": "inplace",
						"label": "uint256",
						"numberOfBytes": "32"
					}
				}
			},
			"userdoc": {
				"kind": "user",
				"methods": {},
				"version": 1
			}
		}
	}
}