{
	"contracts/Library.sol": {
		"Library": {
			"abi": [
				{
					"anonymous": false,
					"inputs": [
						{
							"indexed": true,
							"internalType": "address",
							"name": "previousOwner",
							"type": "address"
						},
						{
							"indexed": true,
							"internalType": "address",
							"name": "newOwner",
							"type": "address"
						}
					],
					"name": "OwnershipTransferred",
					"type": "event"
				},
				{
					"inputs": [
						{
							"internalType": "uint32",
							"name": "",
							"type": "uint32"
						}
					],
					"name": "BookLedger",
					"outputs": [
						{
							"internalType": "string",
							"name": "name",
							"type": "string"
						},
						{
							"internalType": "uint32",
							"name": "copies",
							"type": "uint32"
						},
						{
							"internalType": "uint32",
							"name": "ownerCount",
							"type": "uint32"
						}
					],
					"stateMutability": "view",
					"type": "function"
				},
				{
					"inputs": [
						{
							"internalType": "string",
							"name": "_name",
							"type": "string"
						},
						{
							"internalType": "uint32",
							"name": "_copies",
							"type": "uint32"
						}
					],
					"name": "addBook",
					"outputs": [],
					"stateMutability": "nonpayable",
					"type": "function"
				},
				{
					"inputs": [
						{
							"internalType": "uint32",
							"name": "_bookId",
							"type": "uint32"
						},
						{
							"internalType": "uint32",
							"name": "_copies",
							"type": "uint32"
						}
					],
					"name": "addBookCopies",
					"outputs": [],
					"stateMutability": "nonpayable",
					"type": "function"
				},
				{
					"inputs": [],
					"name": "bookCount",
					"outputs": [
						{
							"internalType": "uint32",
							"name": "",
							"type": "uint32"
						}
					],
					"stateMutability": "view",
					"type": "function"
				},
				{
					"inputs": [
						{
							"internalType": "uint32",
							"name": "_id",
							"type": "uint32"
						}
					],
					"name": "borrowBook",
					"outputs": [],
					"stateMutability": "nonpayable",
					"type": "function"
				},
				{
					"inputs": [],
					"name": "getAllAvailableBooks",
					"outputs": [
						{
							"internalType": "uint32[]",
							"name": "",
							"type": "uint32[]"
						}
					],
					"stateMutability": "view",
					"type": "function"
				},
				{
					"inputs": [
						{
							"internalType": "uint32",
							"name": "_id",
							"type": "uint32"
						}
					],
					"name": "getOwnerHistoryOfBook",
					"outputs": [
						{
							"internalType": "address[]",
							"name": "",
							"type": "address[]"
						}
					],
					"stateMutability": "view",
					"type": "function"
				},
				{
					"inputs": [],
					"name": "owner",
					"outputs": [
						{
							"internalType": "address",
							"name": "",
							"type": "address"
						}
					],
					"stateMutability": "view",
					"type": "function"
				},
				{
					"inputs": [],
					"name": "renounceOwnership",
					"outputs": [],
					"stateMutability": "nonpayable",
					"type": "function"
				},
				{
					"inputs": [
						{
							"internalType": "uint32",
							"name": "_id",
							"type": "uint32"
						}
					],
					"name": "returnBook",
					"outputs": [],
					"stateMutability": "nonpayable",
					"type": "function"
				},
				{
					"inputs": [
						{
							"internalType": "address",
							"name": "newOwner",
							"type": "address"
						}
					],
					"name": "transferOwnership",
					"outputs": [],
					"stateMutability": "nonpayable",
					"type": "function"
				}
			],
			"devdoc": {
				"kind": "dev",
				"methods": {
					"owner()": {
						"details": "Returns the address of the current owner."
					},
					"renounceOwnership()": {
						"details": "Leaves the contract without owner. It will not be possible to call `onlyOwner` functions anymore. Can only be called by the current owner. NOTE: Renouncing ownership will leave the contract without an owner, thereby removing any functionality that is only available to the owner."
					},
					"transferOwnership(address)": {
						"details": "Transfers ownership of the contract to a new account (`newOwner`). Can only be called by the current owner."
					}
				},
				"version": 1
			},
			"evm": {
				"assembly": "    /* \"contracts/Library.sol\":84:3147  contract Library is Ownable{\r... */\n  mstore(0x40, 0x80)\n  callvalue\n  dup1\n  iszero\n  tag_1\n  jumpi\n  0x00\n  dup1\n  revert\ntag_1:\n  pop\n    /* \"@openzeppelin/contracts/access/Ownable.sol\":936:968  _transferOwnership(_msgSender()) */\n  tag_4\n    /* \"@openzeppelin/contracts/access/Ownable.sol\":955:967  _msgSender() */\n  tag_5\n    /* \"@openzeppelin/contracts/access/Ownable.sol\":955:965  _msgSender */\n  shl(0x20, tag_6)\n    /* \"@openzeppelin/contracts/access/Ownable.sol\":955:967  _msgSender() */\n  0x20\n  shr\n  jump\t// in\ntag_5:\n    /* \"@openzeppelin/contracts/access/Ownable.sol\":936:954  _transferOwnership */\n  shl(0x20, tag_7)\n    /* \"@openzeppelin/contracts/access/Ownable.sol\":936:968  _transferOwnership(_msgSender()) */\n  0x20\n  shr\n  jump\t// in\ntag_4:\n    /* \"contracts/Library.sol\":84:3147  contract Library is Ownable{\r... */\n  jump(tag_8)\n    /* \"@openzeppelin/contracts/utils/Context.sol\":640:736  function _msgSender() internal view virtual returns (address) {... */\ntag_6:\n    /* \"@openzeppelin/contracts/utils/Context.sol\":693:700  address */\n  0x00\n    /* \"@openzeppelin/contracts/utils/Context.sol\":719:729  msg.sender */\n  caller\n    /* \"@openzeppelin/contracts/utils/Context.sol\":712:729  return msg.sender */\n  swap1\n  pop\n    /* \"@openzeppelin/contracts/utils/Context.sol\":640:736  function _msgSender() internal view virtual returns (address) {... */\n  swap1\n  jump\t// out\n    /* \"@openzeppelin/contracts/access/Ownable.sol\":2433:2620  function _transferOwnership(address newOwner) internal virtual {... */\ntag_7:\n    /* \"@openzeppelin/contracts/access/Ownable.sol\":2506:2522  address oldOwner */\n  0x00\n    /* \"@openzeppelin/contracts/access/Ownable.sol\":2525:2531  _owner */\n  dup1\n  0x00\n  swap1\n  sload\n  swap1\n  0x0100\n  exp\n  swap1\n  div\n  0xffffffffffffffffffffffffffffffffffffffff\n  and\n    /* \"@openzeppelin/contracts/access/Ownable.sol\":2506:2531  address oldOwner = _owner */\n  swap1\n  pop\n    /* \"@openzeppelin/contracts/access/Ownable.sol\":2550:2558  newOwner */\n  dup2\n    /* \"@openzeppelin/contracts/access/Ownable.sol\":2541:2547  _owner */\n  0x00\n  dup1\n    /* \"@openzeppelin/contracts/access/Ownable.sol\":2541:2558  _owner = newOwner */\n  0x0100\n  exp\n  dup2\n  sload\n  dup2\n  0xffffffffffffffffffffffffffffffffffffffff\n  mul\n  not\n  and\n  swap1\n  dup4\n  0xffffffffffffffffffffffffffffffffffffffff\n  and\n  mul\n  or\n  swap1\n  sstore\n  pop\n    /* \"@openzeppelin/contracts/access/Ownable.sol\":2604:2612  newOwner */\n  dup2\n    /* \"@openzeppelin/contracts/access/Ownable.sol\":2573:2613  OwnershipTransferred(oldOwner, newOwner) */\n  0xffffffffffffffffffffffffffffffffffffffff\n  and\n    /* \"@openzeppelin/contracts/access/Ownable.sol\":2594:2602  oldOwner */\n  dup2\n    /* \"@openzeppelin/contracts/access/Ownable.sol\":2573:2613  OwnershipTransferred(oldOwner, newOwner) */\n  0xffffffffffffffffffffffffffffffffffffffff\n  and\n  0x8be0079c531659141344cd1fd0a4f28419497f9722a3daafe3b4186f6b6457e0\n  mload(0x40)\n  mload(0x40)\n  dup1\n  swap2\n  sub\n  swap1\n  log3\n    /* \"@openzeppelin/contracts/access/Ownable.sol\":2496:2620  {... */\n  pop\n    /* \"@openzeppelin/contracts/access/Ownable.sol\":2433:2620  function _transferOwnership(address newOwner) internal virtual {... */\n  pop\n  jump\t// out\n    /* \"contracts/Library.sol\":84:3147  contract Library is Ownable{\r... */\ntag_8:\n  dataSize(sub_0)\n  dup1\n  dataOffset(sub_0)\n  0x00\n  codecopy\n  0x00\n  return\nstop\n\nsub_0: assembly {\n        /* \"contracts/Library.sol\":84:3147  contract Library is Ownable{\r... */\n      mstore(0x40, 0x80)\n      callvalue\n      dup1\n      iszero\n      tag_1\n      jumpi\n      0x00\n      dup1\n      revert\n    tag_1:\n      pop\n      jumpi(tag_2, lt(calldatasize, 0x04))\n      shr(0xe0, calldataload(0x00))\n      dup1\n      0x8da5cb5b\n      gt\n      tag_14\n      jumpi\n      dup1\n      0x8da5cb5b\n      eq\n      tag_8\n      jumpi\n      dup1\n      0xb905ad78\n      eq\n      tag_9\n      jumpi\n      dup1\n      0xbdaa3c1e\n      eq\n      tag_10\n      jumpi\n      dup1\n      0xf2fde38b\n      eq\n      tag_11\n      jumpi\n      dup1\n      0xf4cbc4a6\n      eq\n      tag_12\n      jumpi\n      dup1\n      0xfef4c92a\n      eq\n      tag_13\n      jumpi\n      jump(tag_2)\n    tag_14:\n      dup1\n      0x422d2629\n      eq\n      tag_3\n      jumpi\n      dup1\n      0x48569e59\n      eq\n      tag_4\n      jumpi\n      dup1\n      0x5d70b491\n      eq\n      tag_5\n      jumpi\n      dup1\n      0x715018a6\n      eq\n      tag_6\n      jumpi\n      dup1\n      0x87e97de2\n      eq\n      tag_7\n      jumpi\n    tag_2:\n      0x00\n      dup1\n      revert\n        /* \"contracts/Library.sol\":1778:2036  function returnBook(uint32 _id) external {\r... */\n    tag_3:\n      tag_15\n      0x04\n      dup1\n      calldatasize\n      sub\n      dup2\n      add\n      swap1\n      tag_16\n      swap2\n      swap1\n      tag_17\n      jump\t// in\n    tag_16:\n      tag_18\n      jump\t// in\n    tag_15:\n      stop\n        /* \"contracts/Library.sol\":1359:1769  function borrowBook(uint32 _id) external {\r... */\n    tag_4:\n      tag_19\n      0x04\n      dup1\n      calldatasize\n      sub\n      dup2\n      add\n      swap1\n      tag_20\n      swap2\n      swap1\n      tag_17\n      jump\t// in\n    tag_20:\n      tag_21\n      jump\t// in\n    tag_19:\n      stop\n        /* \"contracts/Library.sol\":374:415  mapping(uint32 => Book) public BookLedger */\n    tag_5:\n      tag_22\n      0x04\n      dup1\n      calldatasize\n      sub\n      dup2\n      add\n      swap1\n      tag_23\n      swap2\n      swap1\n      tag_17\n      jump\t// in\n    tag_23:\n      tag_24\n      jump\t// in\n    tag_22:\n      mload(0x40)\n      tag_25\n      swap4\n      swap3\n      swap2\n      swap1\n      tag_26\n      jump\t// in\n    tag_25:\n      mload(0x40)\n      dup1\n      swap2\n      sub\n      swap1\n      return\n        /* \"@openzeppelin/contracts/access/Ownable.sol\":1831:1932  function renounceOwnership() public virtual onlyOwner {... */\n    tag_6:\n      tag_27\n      tag_28\n      jump\t// in\n    tag_27:\n      stop\n        /* \"contracts/Library.sol\":2776:3144  function getOwnerHistoryOfBook(uint32 _id)\r... */\n    tag_7:\n      tag_29\n      0x04\n      dup1\n      calldatasize\n      sub\n      dup2\n      add\n      swap1\n      tag_30\n      swap2\n      swap1\n      tag_17\n      jump\t// in\n    tag_30:\n      tag_31\n      jump\t// in\n    tag_29:\n      mload(0x40)\n      tag_32\n      swap2\n      swap1\n      tag_33\n      jump\t// in\n    tag_32:\n      mload(0x40)\n      dup1\n      swap2\n      sub\n      swap1\n      return\n        /* \"@openzeppelin/contracts/access/Ownable.sol\":1201:1286  function owner() public view virtual returns (address) {... */\n    tag_8:\n      tag_34\n      tag_35\n      jump\t// in\n    tag_34:\n      mload(0x40)\n      tag_36\n      swap2\n      swap1\n      tag_37\n      jump\t// in\n    tag_36:\n      mload(0x40)\n      dup1\n      swap2\n      sub\n      swap1\n      return\n        /* \"contracts/Library.sol\":292:315  uint32 public bookCount */\n    tag_9:\n      tag_38\n      tag_39\n      jump\t// in\n    tag_38:\n      mload(0x40)\n      tag_40\n      swap2\n      swap1\n      tag_41\n      jump\t// in\n    tag_40:\n      mload(0x40)\n      dup1\n      swap2\n      sub\n      swap1\n      return\n        /* \"contracts/Library.sol\":638:1034  function addBook(string memory _name, uint32 _copies)\r... */\n    tag_10:\n      tag_42\n      0x04\n      dup1\n      calldatasize\n      sub\n      dup2\n      add\n      swap1\n      tag_43\n      swap2\n      swap1\n      tag_44\n      jump\t// in\n    tag_43:\n      tag_45\n      jump\t// in\n    tag_42:\n      stop\n        /* \"@openzeppelin/contracts/access/Ownable.sol\":2081:2279  function transferOwnership(address newOwner) public virtual onlyOwner {... */\n    tag_11:\n      tag_46\n      0x04\n      dup1\n      calldatasize\n      sub\n      dup2\n      add\n      swap1\n      tag_47\n      swap2\n      swap1\n      tag_48\n      jump\t// in\n    tag_47:\n      tag_49\n      jump\t// in\n    tag_46:\n      stop\n        /* \"contracts/Library.sol\":2045:2767  function getAllAvailableBooks() external view returns (uint32[] memory) {\r... */\n    tag_12:\n      tag_50\n      tag_51\n      jump\t// in\n    tag_50:\n      mload(0x40)\n      tag_52\n      swap2\n      swap1\n      tag_53\n      jump\t// in\n    tag_52:\n      mload(0x40)\n      dup1\n      swap2\n      sub\n      swap1\n      return\n        /* \"contracts/Library.sol\":1044:1349  function addBookCopies(uint32 _bookId, uint32 _copies)\r... */\n    tag_13:\n      tag_54\n      0x04\n      dup1\n      calldatasize\n      sub\n      dup2\n      add\n      swap1\n      tag_55\n      swap2\n      swap1\n      tag_56\n      jump\t// in\n    tag_55:\n      tag_57\n      jump\t// in\n    tag_54:\n      stop\n        /* \"contracts/Library.sol\":1778:2036  function returnBook(uint32 _id) external {\r... */\n    tag_18:\n        /* \"contracts/Library.sol\":1838:1853  isAlreadyIssued */\n      0x07\n        /* \"contracts/Library.sol\":1838:1865  isAlreadyIssued[msg.sender] */\n      0x00\n        /* \"contracts/Library.sol\":1854:1864  msg.sender */\n      caller\n        /* \"contracts/Library.sol\":1838:1865  isAlreadyIssued[msg.sender] */\n      0xffffffffffffffffffffffffffffffffffffffff\n      and\n      0xffffffffffffffffffffffffffffffffffffffff\n      and\n      dup2\n      mstore\n      0x20\n      add\n      swap1\n      dup2\n      mstore\n      0x20\n      add\n      0x00\n      keccak256\n        /* \"contracts/Library.sol\":1838:1870  isAlreadyIssued[msg.sender][_id] */\n      0x00\n        /* \"contracts/Library.sol\":1866:1869  _id */\n      dup3\n        /* \"contracts/Library.sol\":1838:1870  isAlreadyIssued[msg.sender][_id] */\n      0xffffffff\n      and\n      dup2\n      mstore\n      0x20\n      add\n      swap1\n      dup2\n      mstore\n      0x20\n      add\n      0x00\n      keccak256\n      0x00\n      swap1\n      sload\n      swap1\n      0x0100\n      exp\n      swap1\n      div\n      0xff\n      and\n        /* \"contracts/Library.sol\":1830:1893  require(isAlreadyIssued[msg.sender][_id], \"Book is not issued\") */\n      tag_59\n      jumpi\n      mload(0x40)\n      0x08c379a000000000000000000000000000000000000000000000000000000000\n      dup2\n      mstore\n      0x04\n      add\n      tag_60\n      swap1\n      tag_61\n      jump\t// in\n    tag_60:\n      mload(0x40)\n      dup1\n      swap2\n      sub\n      swap1\n      revert\n    tag_59:\n        /* \"contracts/Library.sol\":1904:1921  Book storage book */\n      0x00\n        /* \"contracts/Library.sol\":1924:1934  BookLedger */\n      0x06\n        /* \"contracts/Library.sol\":1924:1939  BookLedger[_id] */\n      0x00\n        /* \"contracts/Library.sol\":1935:1938  _id */\n      dup4\n        /* \"contracts/Library.sol\":1924:1939  BookLedger[_id] */\n      0xffffffff\n      and\n      0xffffffff\n      and\n      dup2\n      mstore\n      0x20\n      add\n      swap1\n      dup2\n      mstore\n      0x20\n      add\n      0x00\n      keccak256\n        /* \"contracts/Library.sol\":1904:1939  Book storage book = BookLedger[_id] */\n      swap1\n      pop\n        /* \"contracts/Library.sol\":1976:1977  1 */\n      0x01\n        /* \"contracts/Library.sol\":1964:1968  book */\n      dup2\n        /* \"contracts/Library.sol\":1964:1975  book.copies */\n      0x01\n      add\n      0x00\n      swap1\n      sload\n      swap1\n      0x0100\n      exp\n      swap1\n      div\n      0xffffffff\n      and\n        /* \"contracts/Library.sol\":1964:1977  book.copies+1 */\n      tag_62\n      swap2\n      swap1\n      tag_63\n      jump\t// in\n    tag_62:\n        /* \"contracts/Library.sol\":1950:1954  book */\n      dup2\n        /* \"contracts/Library.sol\":1950:1961  book.copies */\n      0x01\n      add\n      0x00\n        /* \"contracts/Library.sol\":1950:1977  book.copies = book.copies+1 */\n      0x0100\n      exp\n      dup2\n      sload\n      dup2\n      0xffffffff\n      mul\n      not\n      and\n      swap1\n      dup4\n      0xffffffff\n      and\n      mul\n      or\n      swap1\n      sstore\n      pop\n        /* \"contracts/Library.sol\":2023:2028  false */\n      0x00\n        /* \"contracts/Library.sol\":1988:2003  isAlreadyIssued */\n      0x07\n        /* \"contracts/Library.sol\":1988:2015  isAlreadyIssued[msg.sender] */\n      0x00\n        /* \"contracts/Library.sol\":2004:2014  msg.sender */\n      caller\n        /* \"contracts/Library.sol\":1988:2015  isAlreadyIssued[msg.sender] */\n      0xffffffffffffffffffffffffffffffffffffffff\n      and\n      0xffffffffffffffffffffffffffffffffffffffff\n      and\n      dup2\n      mstore\n      0x20\n      add\n      swap1\n      dup2\n      mstore\n      0x20\n      add\n      0x00\n      keccak256\n        /* \"contracts/Library.sol\":1988:2020  isAlreadyIssued[msg.sender][_id] */\n      0x00\n        /* \"contracts/Library.sol\":2016:2019  _id */\n      dup5\n        /* \"contracts/Library.sol\":1988:2020  isAlreadyIssued[msg.sender][_id] */\n      0xffffffff\n      and\n      dup2\n      mstore\n      0x20\n      add\n      swap1\n      dup2\n      mstore\n      0x20\n      add\n      0x00\n      keccak256\n      0x00\n        /* \"contracts/Library.sol\":1988:2028  isAlreadyIssued[msg.sender][_id] = false */\n      0x0100\n      exp\n      dup2\n      sload\n      dup2\n      0xff\n      mul\n      not\n      and\n      swap1\n      dup4\n      iszero\n      iszero\n      mul\n      or\n      swap1\n      sstore\n      pop\n        /* \"contracts/Library.sol\":1819:2036  {\r... */\n      pop\n        /* \"contracts/Library.sol\":1778:2036  function returnBook(uint32 _id) external {\r... */\n      pop\n      jump\t// out\n        /* \"contracts/Library.sol\":1359:1769  function borrowBook(uint32 _id) external {\r... */\n    tag_21:\n        /* \"contracts/Library.sol\":1420:1435  isAlreadyIssued */\n      0x07\n        /* \"contracts/Library.sol\":1420:1447  isAlreadyIssued[msg.sender] */\n      0x00\n        /* \"contracts/Library.sol\":1436:1446  msg.sender */\n      caller\n        /* \"contracts/Library.sol\":1420:1447  isAlreadyIssued[msg.sender] */\n      0xffffffffffffffffffffffffffffffffffffffff\n      and\n      0xffffffffffffffffffffffffffffffffffffffff\n      and\n      dup2\n      mstore\n      0x20\n      add\n      swap1\n      dup2\n      mstore\n      0x20\n      add\n      0x00\n      keccak256\n        /* \"contracts/Library.sol\":1420:1452  isAlreadyIssued[msg.sender][_id] */\n      0x00\n        /* \"contracts/Library.sol\":1448:1451  _id */\n      dup3\n        /* \"contracts/Library.sol\":1420:1452  isAlreadyIssued[msg.sender][_id] */\n      0xffffffff\n      and\n      dup2\n      mstore\n      0x20\n      add\n      swap1\n      dup2\n      mstore\n      0x20\n      add\n      0x00\n      keccak256\n      0x00\n      swap1\n      sload\n      swap1\n      0x0100\n      exp\n      swap1\n      div\n      0xff\n      and\n        /* \"contracts/Library.sol\":1419:1452  !isAlreadyIssued[msg.sender][_id] */\n      iszero\n        /* \"contracts/Library.sol\":1411:1479  require(!isAlreadyIssued[msg.sender][_id], \"Book is already issued\") */\n      tag_65\n      jumpi\n      mload(0x40)\n      0x08c379a000000000000000000000000000000000000000000000000000000000\n      dup2\n      mstore\n      0x04\n      add\n      tag_66\n      swap1\n      tag_67\n      jump\t// in\n    tag_66:\n      mload(0x40)\n      dup1\n      swap2\n      sub\n      swap1\n      revert\n    tag_65:\n        /* \"contracts/Library.sol\":1525:1529  true */\n      0x01\n        /* \"contracts/Library.sol\":1490:1505  isAlreadyIssued */\n      0x07\n        /* \"contracts/Library.sol\":1490:1517  isAlreadyIssued[msg.sender] */\n      0x00\n        /* \"contracts/Library.sol\":1506:1516  msg.sender */\n      caller\n        /* \"contracts/Library.sol\":1490:1517  isAlreadyIssued[msg.sender] */\n      0xffffffffffffffffffffffffffffffffffffffff\n      and\n      0xffffffffffffffffffffffffffffffffffffffff\n      and\n      dup2\n      mstore\n      0x20\n      add\n      swap1\n      dup2\n      mstore\n      0x20\n      add\n      0x00\n      keccak256\n        /* \"contracts/Library.sol\":1490:1522  isAlreadyIssued[msg.sender][_id] */\n      0x00\n        /* \"contracts/Library.sol\":1518:1521  _id */\n      dup4\n        /* \"contracts/Library.sol\":1490:1522  isAlreadyIssued[msg.sender][_id] */\n      0xffffffff\n      and\n      dup2\n      mstore\n      0x20\n      add\n      swap1\n      dup2\n      mstore\n      0x20\n      add\n      0x00\n      keccak256\n      0x00\n        /* \"contracts/Library.sol\":1490:1529  isAlreadyIssued[msg.sender][_id] = true */\n      0x0100\n      exp\n      dup2\n      sload\n      dup2\n      0xff\n      mul\n      not\n      and\n      swap1\n      dup4\n      iszero\n      iszero\n      mul\n      or\n      swap1\n      sstore\n      pop\n        /* \"contracts/Library.sol\":1540:1557  Book storage book */\n      0x00\n        /* \"contracts/Library.sol\":1560:1570  BookLedger */\n      0x06\n        /* \"contracts/Library.sol\":1560:1575  BookLedger[_id] */\n      0x00\n        /* \"contracts/Library.sol\":1571:1574  _id */\n      dup4\n        /* \"contracts/Library.sol\":1560:1575  BookLedger[_id] */\n      0xffffffff\n      and\n      0xffffffff\n      and\n      dup2\n      mstore\n      0x20\n      add\n      swap1\n      dup2\n      mstore\n      0x20\n      add\n      0x00\n      keccak256\n        /* \"contracts/Library.sol\":1540:1575  Book storage book = BookLedger[_id] */\n      swap1\n      pop\n        /* \"contracts/Library.sol\":1609:1610  1 */\n      0x01\n        /* \"contracts/Library.sol\":1594:1598  book */\n      dup2\n        /* \"contracts/Library.sol\":1594:1605  book.copies */\n      0x01\n      add\n      0x00\n      swap1\n      sload\n      swap1\n      0x0100\n      exp\n      swap1\n      div\n      0xffffffff\n      and\n        /* \"contracts/Library.sol\":1594:1610  book.copies >= 1 */\n      0xffffffff\n      and\n      lt\n      iszero\n        /* \"contracts/Library.sol\":1586:1611  require(book.copies >= 1) */\n      tag_68\n      jumpi\n      0x00\n      dup1\n      revert\n    tag_68:\n        /* \"contracts/Library.sol\":1649:1650  1 */\n      0x01\n        /* \"contracts/Library.sol\":1636:1640  book */\n      dup2\n        /* \"contracts/Library.sol\":1636:1647  book.copies */\n      0x01\n      add\n      0x00\n      swap1\n      sload\n      swap1\n      0x0100\n      exp\n      swap1\n      div\n      0xffffffff\n      and\n        /* \"contracts/Library.sol\":1636:1650  book.copies -1 */\n      tag_69\n      swap2\n      swap1\n      tag_70\n      jump\t// in\n    tag_69:\n        /* \"contracts/Library.sol\":1622:1626  book */\n      dup2\n        /* \"contracts/Library.sol\":1622:1633  book.copies */\n      0x01\n      add\n      0x00\n        /* \"contracts/Library.sol\":1622:1650  book.copies = book.copies -1 */\n      0x0100\n      exp\n      dup2\n      sload\n      dup2\n      0xffffffff\n      mul\n      not\n      and\n      swap1\n      dup4\n      0xffffffff\n      and\n      mul\n      or\n      swap1\n      sstore\n      pop\n        /* \"contracts/Library.sol\":1699:1709  msg.sender */\n      caller\n        /* \"contracts/Library.sol\":1661:1665  book */\n      dup2\n        /* \"contracts/Library.sol\":1661:1679  book.ownersHistory */\n      0x02\n      add\n        /* \"contracts/Library.sol\":1661:1696  book.ownersHistory[book.ownerCount] */\n      0x00\n        /* \"contracts/Library.sol\":1680:1684  book */\n      dup4\n        /* \"contracts/Library.sol\":1680:1695  book.ownerCount */\n      0x01\n      add\n      0x04\n      swap1\n      sload\n      swap1\n      0x0100\n      exp\n      swap1\n      div\n      0xffffffff\n      and\n        /* \"contracts/Library.sol\":1661:1696  book.ownersHistory[book.ownerCount] */\n      0xffffffff\n      and\n      dup2\n      mstore\n      0x20\n      add\n      swap1\n      dup2\n      mstore\n      0x20\n      add\n      0x00\n      keccak256\n      0x00\n        /* \"contracts/Library.sol\":1661:1709  book.ownersHistory[book.ownerCount] = msg.sender */\n      0x0100\n      exp\n      dup2\n      sload\n      dup2\n      0xffffffffffffffffffffffffffffffffffffffff\n      mul\n      not\n      and\n      swap1\n      dup4\n      0xffffffffffffffffffffffffffffffffffffffff\n      and\n      mul\n      or\n      swap1\n      sstore\n      pop\n        /* \"contracts/Library.sol\":1756:1757  1 */\n      0x01\n        /* \"contracts/Library.sol\":1740:1744  book */\n      dup2\n        /* \"contracts/Library.sol\":1740:1755  book.ownerCount */\n      0x01\n      add\n      0x04\n      swap1\n      sload\n      swap1\n      0x0100\n      exp\n      swap1\n      div\n      0xffffffff\n      and\n        /* \"contracts/Library.sol\":1740:1757  book.ownerCount+1 */\n      tag_71\n      swap2\n      swap1\n      tag_63\n      jump\t// in\n    tag_71:\n        /* \"contracts/Library.sol\":1722:1726  book */\n      dup2\n        /* \"contracts/Library.sol\":1722:1737  book.ownerCount */\n      0x01\n      add\n      0x04\n        /* \"contracts/Library.sol\":1722:1757  book.ownerCount = book.ownerCount+1 */\n      0x0100\n      exp\n      dup2\n      sload\n      dup2\n      0xffffffff\n      mul\n      not\n      and\n      swap1\n      dup4\n      0xffffffff\n      and\n      mul\n      or\n      swap1\n      sstore\n      pop\n        /* \"contracts/Library.sol\":1400:1769  {\r... */\n      pop\n        /* \"contracts/Library.sol\":1359:1769  function borrowBook(uint32 _id) external {\r... */\n      pop\n      jump\t// out\n        /* \"contracts/Library.sol\":374:415  mapping(uint32 => Book) public BookLedger */\n    tag_24:\n      mstore(0x20, 0x06)\n      dup1\n      0x00\n      mstore\n      keccak256(0x00, 0x40)\n      0x00\n      swap2\n      pop\n      swap1\n      pop\n      dup1\n      0x00\n      add\n      dup1\n      sload\n      tag_72\n      swap1\n      tag_73\n      jump\t// in\n    tag_72:\n      dup1\n      0x1f\n      add\n      0x20\n      dup1\n      swap2\n      div\n      mul\n      0x20\n      add\n      mload(0x40)\n      swap1\n      dup2\n      add\n      0x40\n      mstore\n      dup1\n      swap3\n      swap2\n      swap1\n      dup2\n      dup2\n      mstore\n      0x20\n      add\n      dup3\n      dup1\n      sload\n      tag_74\n      swap1\n      tag_73\n      jump\t// in\n    tag_74:\n      dup1\n      iszero\n      tag_75\n      jumpi\n      dup1\n      0x1f\n      lt\n      tag_76\n      jumpi\n      0x0100\n      dup1\n      dup4\n      sload\n      div\n      mul\n      dup4\n      mstore\n      swap2\n      0x20\n      add\n      swap2\n      jump(tag_75)\n    tag_76:\n      dup3\n      add\n      swap2\n      swap1\n      0x00\n      mstore\n      keccak256(0x00, 0x20)\n      swap1\n    tag_77:\n      dup2\n      sload\n      dup2\n      mstore\n      swap1\n      0x01\n      add\n      swap1\n      0x20\n      add\n      dup1\n      dup4\n      gt\n      tag_77\n      jumpi\n      dup3\n      swap1\n      sub\n      0x1f\n      and\n      dup3\n      add\n      swap2\n    tag_75:\n      pop\n      pop\n      pop\n      pop\n      pop\n      swap1\n      dup1\n      0x01\n      add\n      0x00\n      swap1\n      sload\n      swap1\n      0x0100\n      exp\n      swap1\n      div\n      0xffffffff\n      and\n      swap1\n      dup1\n      0x01\n      add\n      0x04\n      swap1\n      sload\n      swap1\n      0x0100\n      exp\n      swap1\n      div\n      0xffffffff\n      and\n      swap1\n      pop\n      dup4\n      jump\t// out\n        /* \"@openzeppelin/contracts/access/Ownable.sol\":1831:1932  function renounceOwnership() public virtual onlyOwner {... */\n    tag_28:\n        /* \"@openzeppelin/contracts/access/Ownable.sol\":1094:1107  _checkOwner() */\n      tag_79\n        /* \"@openzeppelin/contracts/access/Ownable.sol\":1094:1105  _checkOwner */\n      tag_80\n        /* \"@openzeppelin/contracts/access/Ownable.sol\":1094:1107  _checkOwner() */\n      jump\t// in\n    tag_79:\n        /* \"@openzeppelin/contracts/access/Ownable.sol\":1895:1925  _transferOwnership(address(0)) */\n      tag_82\n        /* \"@openzeppelin/contracts/access/Ownable.sol\":1922:1923  0 */\n      0x00\n        /* \"@openzeppelin/contracts/access/Ownable.sol\":1895:1913  _transferOwnership */\n      tag_83\n        /* \"@openzeppelin/contracts/access/Ownable.sol\":1895:1925  _transferOwnership(address(0)) */\n      jump\t// in\n    tag_82:\n        /* \"@openzeppelin/contracts/access/Ownable.sol\":1831:1932  function renounceOwnership() public virtual onlyOwner {... */\n      jump\t// out\n        /* \"contracts/Library.sol\":2776:3144  function getOwnerHistoryOfBook(uint32 _id)\r... */\n    tag_31:\n        /* \"contracts/Library.sol\":2867:2883  address[] memory */\n      0x60\n        /* \"contracts/Library.sol\":2901:2924  address[] memory result */\n      0x00\n        /* \"contracts/Library.sol\":2941:2951  BookLedger */\n      0x06\n        /* \"contracts/Library.sol\":2941:2956  BookLedger[_id] */\n      0x00\n        /* \"contracts/Library.sol\":2952:2955  _id */\n      dup5\n        /* \"contracts/Library.sol\":2941:2956  BookLedger[_id] */\n      0xffffffff\n      and\n      0xffffffff\n      and\n      dup2\n      mstore\n      0x20\n      add\n      swap1\n      dup2\n      mstore\n      0x20\n      add\n      0x00\n      keccak256\n        /* \"contracts/Library.sol\":2941:2967  BookLedger[_id].ownerCount */\n      0x01\n      add\n      0x04\n      swap1\n      sload\n      swap1\n      0x0100\n      exp\n      swap1\n      div\n      0xffffffff\n      and\n        /* \"contracts/Library.sol\":2927:2968  new address[](BookLedger[_id].ownerCount) */\n      0xffffffff\n      and\n      0xffffffffffffffff\n      dup2\n      gt\n      iszero\n      tag_85\n      jumpi\n      tag_86\n      tag_87\n      jump\t// in\n    tag_86:\n    tag_85:\n      mload(0x40)\n      swap1\n      dup1\n      dup3\n      mstore\n      dup1\n      0x20\n      mul\n      0x20\n      add\n      dup3\n      add\n      0x40\n      mstore\n      dup1\n      iszero\n      tag_88\n      jumpi\n      dup2\n      0x20\n      add\n      0x20\n      dup3\n      mul\n      dup1\n      calldatasize\n      dup4\n      calldatacopy\n      dup1\n      dup3\n      add\n      swap2\n      pop\n      pop\n      swap1\n      pop\n    tag_88:\n      pop\n        /* \"contracts/Library.sol\":2901:2968  address[] memory result = new address[](BookLedger[_id].ownerCount) */\n      swap1\n      pop\n        /* \"contracts/Library.sol\":2984:2996  uint32 index */\n      0x00\n        /* \"contracts/Library.sol\":2979:3113  for (uint32 index = 0; index < result.length; index++) {\r... */\n    tag_89:\n        /* \"contracts/Library.sol\":3010:3016  result */\n      dup2\n        /* \"contracts/Library.sol\":3010:3023  result.length */\n      mload\n        /* \"contracts/Library.sol\":3002:3007  index */\n      dup2\n        /* \"contracts/Library.sol\":3002:3023  index < result.length */\n      0xffffffff\n      and\n      lt\n        /* \"contracts/Library.sol\":2979:3113  for (uint32 index = 0; index < result.length; index++) {\r... */\n      iszero\n      tag_90\n      jumpi\n        /* \"contracts/Library.sol\":3065:3075  BookLedger */\n      0x06\n        /* \"contracts/Library.sol\":3065:3080  BookLedger[_id] */\n      0x00\n        /* \"contracts/Library.sol\":3076:3079  _id */\n      dup6\n        /* \"contracts/Library.sol\":3065:3080  BookLedger[_id] */\n      0xffffffff\n      and\n      0xffffffff\n      and\n      dup2\n      mstore\n      0x20\n      add\n      swap1\n      dup2\n      mstore\n      0x20\n      add\n      0x00\n      keccak256\n        /* \"contracts/Library.sol\":3065:3094  BookLedger[_id].ownersHistory */\n      0x02\n      add\n        /* \"contracts/Library.sol\":3065:3101  BookLedger[_id].ownersHistory[index] */\n      0x00\n        /* \"contracts/Library.sol\":3095:3100  index */\n      dup3\n        /* \"contracts/Library.sol\":3065:3101  BookLedger[_id].ownersHistory[index] */\n      0xffffffff\n      and\n      dup2\n      mstore\n      0x20\n      add\n      swap1\n      dup2\n      mstore\n      0x20\n      add\n      0x00\n      keccak256\n      0x00\n      swap1\n      sload\n      swap1\n      0x0100\n      exp\n      swap1\n      div\n      0xffffffffffffffffffffffffffffffffffffffff\n      and\n        /* \"contracts/Library.sol\":3049:3055  result */\n      dup3\n        /* \"contracts/Library.sol\":3056:3061  index */\n      dup3\n        /* \"contracts/Library.sol\":3049:3062  result[index] */\n      0xffffffff\n      and\n      dup2\n      mload\n      dup2\n      lt\n      tag_92\n      jumpi\n      tag_93\n      tag_94\n      jump\t// in\n    tag_93:\n    tag_92:\n      0x20\n      mul\n      0x20\n      add\n      add\n        /* \"contracts/Library.sol\":3049:3101  result[index] = BookLedger[_id].ownersHistory[index] */\n      swap1\n      0xffffffffffffffffffffffffffffffffffffffff\n      and\n      swap1\n      dup2\n      0xffffffffffffffffffffffffffffffffffffffff\n      and\n      dup2\n      mstore\n      pop\n      pop\n        /* \"contracts/Library.sol\":3025:3032  index++ */\n      dup1\n      dup1\n      tag_95\n      swap1\n      tag_96\n      jump\t// in\n    tag_95:\n      swap2\n      pop\n      pop\n        /* \"contracts/Library.sol\":2979:3113  for (uint32 index = 0; index < result.length; index++) {\r... */\n      jump(tag_89)\n    tag_90:\n      pop\n        /* \"contracts/Library.sol\":3130:3136  result */\n      dup1\n        /* \"contracts/Library.sol\":3123:3136  return result */\n      swap2\n      pop\n      pop\n        /* \"contracts/Library.sol\":2776:3144  function getOwnerHistoryOfBook(uint32 _id)\r... */\n      swap2\n      swap1\n      pop\n      jump\t// out\n        /* \"@openzeppelin/contracts/access/Ownable.sol\":1201:1286  function owner() public view virtual returns (address) {... */\n    tag_35:\n        /* \"@openzeppelin/contracts/access/Ownable.sol\":1247:1254  address */\n      0x00\n        /* \"@openzeppelin/contracts/access/Ownable.sol\":1273:1279  _owner */\n      dup1\n      0x00\n      swap1\n      sload\n      swap1\n      0x0100\n      exp\n      swap1\n      div\n      0xffffffffffffffffffffffffffffffffffffffff\n      and\n        /* \"@openzeppelin/contracts/access/Ownable.sol\":1266:1279  return _owner */\n      swap1\n      pop\n        /* \"@openzeppelin/contracts/access/Ownable.sol\":1201:1286  function owner() public view virtual returns (address) {... */\n      swap1\n      jump\t// out\n        /* \"contracts/Library.sol\":292:315  uint32 public bookCount */\n    tag_39:\n      0x04\n      0x00\n      swap1\n      sload\n      swap1\n      0x0100\n      exp\n      swap1\n      div\n      0xffffffff\n      and\n      dup2\n      jump\t// out\n        /* \"contracts/Library.sol\":638:1034  function addBook(string memory _name, uint32 _copies)\r... */\n    tag_45:\n        /* \"@openzeppelin/contracts/access/Ownable.sol\":1094:1107  _checkOwner() */\n      tag_99\n        /* \"@openzeppelin/contracts/access/Ownable.sol\":1094:1105  _checkOwner */\n      tag_80\n        /* \"@openzeppelin/contracts/access/Ownable.sol\":1094:1107  _checkOwner() */\n      jump\t// in\n    tag_99:\n        /* \"contracts/Library.sol\":755:760  _name */\n      dup2\n        /* \"contracts/Library.sol\":566:577  isAvailable */\n      0x05\n        /* \"contracts/Library.sol\":578:583  _name */\n      dup2\n        /* \"contracts/Library.sol\":566:584  isAvailable[_name] */\n      mload(0x40)\n      tag_101\n      swap2\n      swap1\n      tag_102\n      jump\t// in\n    tag_101:\n      swap1\n      dup2\n      mstore\n      0x20\n      add\n      mload(0x40)\n      dup1\n      swap2\n      sub\n      swap1\n      keccak256\n      0x00\n      swap1\n      sload\n      swap1\n      0x0100\n      exp\n      swap1\n      div\n      0xff\n      and\n        /* \"contracts/Library.sol\":565:584  !isAvailable[_name] */\n      iszero\n        /* \"contracts/Library.sol\":557:606  require(!isAvailable[_name], \"Book is available\") */\n      tag_103\n      jumpi\n      mload(0x40)\n      0x08c379a000000000000000000000000000000000000000000000000000000000\n      dup2\n      mstore\n      0x04\n      add\n      tag_104\n      swap1\n      tag_105\n      jump\t// in\n    tag_104:\n      mload(0x40)\n      dup1\n      swap2\n      sub\n      swap1\n      revert\n    tag_103:\n        /* \"contracts/Library.sol\":809:810  0 */\n      0x00\n        /* \"contracts/Library.sol\":792:797  _name */\n      dup4\n        /* \"contracts/Library.sol\":786:805  bytes(_name).length */\n      mload\n        /* \"contracts/Library.sol\":786:810  bytes(_name).length != 0 */\n      eq\n      iszero\n        /* \"contracts/Library.sol\":778:835  require(bytes(_name).length != 0, \"Name cannot be empty\") */\n      tag_107\n      jumpi\n      mload(0x40)\n      0x08c379a000000000000000000000000000000000000000000000000000000000\n      dup2\n      mstore\n      0x04\n      add\n      tag_108\n      swap1\n      tag_109\n      jump\t// in\n    tag_108:\n      mload(0x40)\n      dup1\n      swap2\n      sub\n      swap1\n      revert\n    tag_107:\n        /* \"contracts/Library.sol\":867:871  true */\n      0x01\n        /* \"contracts/Library.sol\":846:857  isAvailable */\n      0x05\n        /* \"contracts/Library.sol\":858:863  _name */\n      dup5\n        /* \"contracts/Library.sol\":846:864  isAvailable[_name] */\n      mload(0x40)\n      tag_110\n      swap2\n      swap1\n      tag_102\n      jump\t// in\n    tag_110:\n      swap1\n      dup2\n      mstore\n      0x20\n      add\n      mload(0x40)\n      dup1\n      swap2\n      sub\n      swap1\n      keccak256\n      0x00\n        /* \"contracts/Library.sol\":846:871  isAvailable[_name] = true */\n      0x0100\n      exp\n      dup2\n      sload\n      dup2\n      0xff\n      mul\n      not\n      and\n      swap1\n      dup4\n      iszero\n      iszero\n      mul\n      or\n      swap1\n      sstore\n      pop\n        /* \"contracts/Library.sol\":882:896  uint32 _bookId */\n      0x00\n        /* \"contracts/Library.sol\":908:909  1 */\n      0x01\n        /* \"contracts/Library.sol\":899:909  _copies+=1 */\n      dup4\n      tag_111\n      swap2\n      swap1\n      tag_63\n      jump\t// in\n    tag_111:\n      swap3\n      pop\n      dup3\n        /* \"contracts/Library.sol\":882:909  uint32 _bookId = _copies+=1 */\n      swap1\n      pop\n        /* \"contracts/Library.sol\":920:937  Book storage book */\n      0x00\n        /* \"contracts/Library.sol\":940:950  BookLedger */\n      0x06\n        /* \"contracts/Library.sol\":940:959  BookLedger[_bookId] */\n      0x00\n        /* \"contracts/Library.sol\":951:958  _bookId */\n      dup4\n        /* \"contracts/Library.sol\":940:959  BookLedger[_bookId] */\n      0xffffffff\n      and\n      0xffffffff\n      and\n      dup2\n      mstore\n      0x20\n      add\n      swap1\n      dup2\n      mstore\n      0x20\n      add\n      0x00\n      keccak256\n        /* \"contracts/Library.sol\":920:959  Book storage book = BookLedger[_bookId] */\n      swap1\n      pop\n        /* \"contracts/Library.sol\":982:987  _name */\n      dup5\n        /* \"contracts/Library.sol\":970:974  book */\n      dup2\n        /* \"contracts/Library.sol\":970:979  book.name */\n      0x00\n      add\n        /* \"contracts/Library.sol\":970:987  book.name = _name */\n      swap1\n      dup1\n      mload\n      swap1\n      0x20\n      add\n      swap1\n      tag_112\n      swap3\n      swap2\n      swap1\n      tag_113\n      jump\t// in\n    tag_112:\n      pop\n        /* \"contracts/Library.sol\":1012:1019  _copies */\n      dup4\n        /* \"contracts/Library.sol\":998:1002  book */\n      dup2\n        /* \"contracts/Library.sol\":998:1009  book.copies */\n      0x01\n      add\n      0x00\n        /* \"contracts/Library.sol\":998:1019  book.copies = _copies */\n      0x0100\n      exp\n      dup2\n      sload\n      dup2\n      0xffffffff\n      mul\n      not\n      and\n      swap1\n      dup4\n      0xffffffff\n      and\n      mul\n      or\n      swap1\n      sstore\n      pop\n        /* \"contracts/Library.sol\":767:1034  {\r... */\n      pop\n      pop\n        /* \"@openzeppelin/contracts/access/Ownable.sol\":1117:1118  _ */\n      pop\n        /* \"contracts/Library.sol\":638:1034  function addBook(string memory _name, uint32 _copies)\r... */\n      pop\n      pop\n      jump\t// out\n        /* \"@openzeppelin/contracts/access/Ownable.sol\":2081:2279  function transferOwnership(address newOwner) public virtual onlyOwner {... */\n    tag_49:\n        /* \"@openzeppelin/contracts/access/Ownable.sol\":1094:1107  _checkOwner() */\n      tag_115\n        /* \"@openzeppelin/contracts/access/Ownable.sol\":1094:1105  _checkOwner */\n      tag_80\n        /* \"@openzeppelin/contracts/access/Ownable.sol\":1094:1107  _checkOwner() */\n      jump\t// in\n    tag_115:\n        /* \"@openzeppelin/contracts/access/Ownable.sol\":2189:2190  0 */\n      0x00\n        /* \"@openzeppelin/contracts/access/Ownable.sol\":2169:2191  newOwner != address(0) */\n      0xffffffffffffffffffffffffffffffffffffffff\n      and\n        /* \"@openzeppelin/contracts/access/Ownable.sol\":2169:2177  newOwner */\n      dup2\n        /* \"@openzeppelin/contracts/access/Ownable.sol\":2169:2191  newOwner != address(0) */\n      0xffffffffffffffffffffffffffffffffffffffff\n      and\n      eq\n      iszero\n        /* \"@openzeppelin/contracts/access/Ownable.sol\":2161:2234  require(newOwner != address(0), \"Ownable: new owner is the zero address\") */\n      tag_117\n      jumpi\n      mload(0x40)\n      0x08c379a000000000000000000000000000000000000000000000000000000000\n      dup2\n      mstore\n      0x04\n      add\n      tag_118\n      swap1\n      tag_119\n      jump\t// in\n    tag_118:\n      mload(0x40)\n      dup1\n      swap2\n      sub\n      swap1\n      revert\n    tag_117:\n        /* \"@openzeppelin/contracts/access/Ownable.sol\":2244:2272  _transferOwnership(newOwner) */\n      tag_120\n        /* \"@openzeppelin/contracts/access/Ownable.sol\":2263:2271  newOwner */\n      dup2\n        /* \"@openzeppelin/contracts/access/Ownable.sol\":2244:2262  _transferOwnership */\n      tag_83\n        /* \"@openzeppelin/contracts/access/Ownable.sol\":2244:2272  _transferOwnership(newOwner) */\n      jump\t// in\n    tag_120:\n        /* \"@openzeppelin/contracts/access/Ownable.sol\":2081:2279  function transferOwnership(address newOwner) public virtual onlyOwner {... */\n      pop\n      jump\t// out\n        /* \"contracts/Library.sol\":2045:2767  function getAllAvailableBooks() external view returns (uint32[] memory) {\r... */\n    tag_51:\n        /* \"contracts/Library.sol\":2100:2115  uint32[] memory */\n      0x60\n        /* \"contracts/Library.sol\":2128:2147  uint32 currentIndex */\n      0x00\n        /* \"contracts/Library.sol\":2167:2179  uint32 index */\n      dup1\n        /* \"contracts/Library.sol\":2182:2183  1 */\n      0x01\n        /* \"contracts/Library.sol\":2167:2183  uint32 index = 1 */\n      swap1\n      pop\n        /* \"contracts/Library.sol\":2162:2376  for (uint32 index = 1; index <= bookCount; index++) {\r... */\n    tag_122:\n        /* \"contracts/Library.sol\":2194:2203  bookCount */\n      0x04\n      0x00\n      swap1\n      sload\n      swap1\n      0x0100\n      exp\n      swap1\n      div\n      0xffffffff\n      and\n        /* \"contracts/Library.sol\":2185:2203  index <= bookCount */\n      0xffffffff\n      and\n        /* \"contracts/Library.sol\":2185:2190  index */\n      dup2\n        /* \"contracts/Library.sol\":2185:2203  index <= bookCount */\n      0xffffffff\n      and\n      gt\n        /* \"contracts/Library.sol\":2162:2376  for (uint32 index = 1; index <= bookCount; index++) {\r... */\n      tag_123\n      jumpi\n        /* \"contracts/Library.sol\":2234:2249  isAlreadyIssued */\n      0x07\n        /* \"contracts/Library.sol\":2234:2261  isAlreadyIssued[msg.sender] */\n      0x00\n        /* \"contracts/Library.sol\":2250:2260  msg.sender */\n      caller\n        /* \"contracts/Library.sol\":2234:2261  isAlreadyIssued[msg.sender] */\n      0xffffffffffffffffffffffffffffffffffffffff\n      and\n      0xffffffffffffffffffffffffffffffffffffffff\n      and\n      dup2\n      mstore\n      0x20\n      add\n      swap1\n      dup2\n      mstore\n      0x20\n      add\n      0x00\n      keccak256\n        /* \"contracts/Library.sol\":2234:2268  isAlreadyIssued[msg.sender][index] */\n      0x00\n        /* \"contracts/Library.sol\":2262:2267  index */\n      dup3\n        /* \"contracts/Library.sol\":2234:2268  isAlreadyIssued[msg.sender][index] */\n      0xffffffff\n      and\n      dup2\n      mstore\n      0x20\n      add\n      swap1\n      dup2\n      mstore\n      0x20\n      add\n      0x00\n      keccak256\n      0x00\n      swap1\n      sload\n      swap1\n      0x0100\n      exp\n      swap1\n      div\n      0xff\n      and\n        /* \"contracts/Library.sol\":2233:2268  !isAlreadyIssued[msg.sender][index] */\n      iszero\n        /* \"contracts/Library.sol\":2233:2314  !isAlreadyIssued[msg.sender][index] &&\r... */\n      dup1\n      iszero\n      tag_125\n      jumpi\n      pop\n        /* \"contracts/Library.sol\":2313:2314  0 */\n      0x00\n        /* \"contracts/Library.sol\":2286:2296  BookLedger */\n      0x06\n        /* \"contracts/Library.sol\":2286:2303  BookLedger[index] */\n      0x00\n        /* \"contracts/Library.sol\":2297:2302  index */\n      dup4\n        /* \"contracts/Library.sol\":2286:2303  BookLedger[index] */\n      0xffffffff\n      and\n      0xffffffff\n      and\n      dup2\n      mstore\n      0x20\n      add\n      swap1\n      dup2\n      mstore\n      0x20\n      add\n      0x00\n      keccak256\n        /* \"contracts/Library.sol\":2286:2310  BookLedger[index].copies */\n      0x01\n      add\n      0x00\n      swap1\n      sload\n      swap1\n      0x0100\n      exp\n      swap1\n      div\n      0xffffffff\n      and\n        /* \"contracts/Library.sol\":2286:2314  BookLedger[index].copies > 0 */\n      0xffffffff\n      and\n      gt\n        /* \"contracts/Library.sol\":2233:2314  !isAlreadyIssued[msg.sender][index] &&\r... */\n    tag_125:\n        /* \"contracts/Library.sol\":2229:2365  if (!isAlreadyIssued[msg.sender][index] &&\r... */\n      iszero\n      tag_126\n      jumpi\n        /* \"contracts/Library.sol\":2335:2349  currentIndex++ */\n      dup2\n      dup1\n      tag_127\n      swap1\n      tag_96\n      jump\t// in\n    tag_127:\n      swap3\n      pop\n      pop\n        /* \"contracts/Library.sol\":2229:2365  if (!isAlreadyIssued[msg.sender][index] &&\r... */\n    tag_126:\n        /* \"contracts/Library.sol\":2205:2212  index++ */\n      dup1\n      dup1\n      tag_128\n      swap1\n      tag_96\n      jump\t// in\n    tag_128:\n      swap2\n      pop\n      pop\n        /* \"contracts/Library.sol\":2162:2376  for (uint32 index = 1; index <= bookCount; index++) {\r... */\n      jump(tag_122)\n    tag_123:\n      pop\n        /* \"contracts/Library.sol\":2386:2408  uint32[] memory result */\n      0x00\n        /* \"contracts/Library.sol\":2424:2436  currentIndex */\n      dup2\n        /* \"contracts/Library.sol\":2411:2437  new uint32[](currentIndex) */\n      0xffffffff\n      and\n      0xffffffffffffffff\n      dup2\n      gt\n      iszero\n      tag_129\n      jumpi\n      tag_130\n      tag_87\n      jump\t// in\n    tag_130:\n    tag_129:\n      mload(0x40)\n      swap1\n      dup1\n      dup3\n      mstore\n      dup1\n      0x20\n      mul\n      0x20\n      add\n      dup3\n      add\n      0x40\n      mstore\n      dup1\n      iszero\n      tag_131\n      jumpi\n      dup2\n      0x20\n      add\n      0x20\n      dup3\n      mul\n      dup1\n      calldatasize\n      dup4\n      calldatacopy\n      dup1\n      dup3\n      add\n      swap2\n      pop\n      pop\n      swap1\n      pop\n    tag_131:\n      pop\n        /* \"contracts/Library.sol\":2386:2437  uint32[] memory result = new uint32[](currentIndex) */\n      swap1\n      pop\n        /* \"contracts/Library.sol\":2463:2464  0 */\n      0x00\n        /* \"contracts/Library.sol\":2448:2464  currentIndex = 0 */\n      swap2\n      pop\n        /* \"contracts/Library.sol\":2480:2492  uint32 index */\n      0x00\n        /* \"contracts/Library.sol\":2495:2496  1 */\n      0x01\n        /* \"contracts/Library.sol\":2480:2496  uint32 index = 1 */\n      swap1\n      pop\n        /* \"contracts/Library.sol\":2475:2736  for (uint32 index = 1; index <= bookCount; index++) {\r... */\n    tag_132:\n        /* \"contracts/Library.sol\":2507:2516  bookCount */\n      0x04\n      0x00\n      swap1\n      sload\n      swap1\n      0x0100\n      exp\n      swap1\n      div\n      0xffffffff\n      and\n        /* \"contracts/Library.sol\":2498:2516  index <= bookCount */\n      0xffffffff\n      and\n        /* \"contracts/Library.sol\":2498:2503  index */\n      dup2\n        /* \"contracts/Library.sol\":2498:2516  index <= bookCount */\n      0xffffffff\n      and\n      gt\n        /* \"contracts/Library.sol\":2475:2736  for (uint32 index = 1; index <= bookCount; index++) {\r... */\n      tag_133\n      jumpi\n        /* \"contracts/Library.sol\":2547:2562  isAlreadyIssued */\n      0x07\n        /* \"contracts/Library.sol\":2547:2574  isAlreadyIssued[msg.sender] */\n      0x00\n        /* \"contracts/Library.sol\":2563:2573  msg.sender */\n      caller\n        /* \"contracts/Library.sol\":2547:2574  isAlreadyIssued[msg.sender] */\n      0xffffffffffffffffffffffffffffffffffffffff\n      and\n      0xffffffffffffffffffffffffffffffffffffffff\n      and\n      dup2\n      mstore\n      0x20\n      add\n      swap1\n      dup2\n      mstore\n      0x20\n      add\n      0x00\n      keccak256\n        /* \"contracts/Library.sol\":2547:2581  isAlreadyIssued[msg.sender][index] */\n      0x00\n        /* \"contracts/Library.sol\":2575:2580  index */\n      dup3\n        /* \"contracts/Library.sol\":2547:2581  isAlreadyIssued[msg.sender][index] */\n      0xffffffff\n      and\n      dup2\n      mstore\n      0x20\n      add\n      swap1\n      dup2\n      mstore\n      0x20\n      add\n      0x00\n      keccak256\n      0x00\n      swap1\n      sload\n      swap1\n      0x0100\n      exp\n      swap1\n      div\n      0xff\n      and\n        /* \"contracts/Library.sol\":2546:2581  !isAlreadyIssued[msg.sender][index] */\n      iszero\n        /* \"contracts/Library.sol\":2546:2627  !isAlreadyIssued[msg.sender][index] &&\r... */\n      dup1\n      iszero\n      tag_135\n      jumpi\n      pop\n        /* \"contracts/Library.sol\":2626:2627  0 */\n      0x00\n        /* \"contracts/Library.sol\":2599:2609  BookLedger */\n      0x06\n        /* \"contracts/Library.sol\":2599:2616  BookLedger[index] */\n      0x00\n        /* \"contracts/Library.sol\":2610:2615  index */\n      dup4\n        /* \"contracts/Library.sol\":2599:2616  BookLedger[index] */\n      0xffffffff\n      and\n      0xffffffff\n      and\n      dup2\n      mstore\n      0x20\n      add\n      swap1\n      dup2\n      mstore\n      0x20\n      add\n      0x00\n      keccak256\n        /* \"contracts/Library.sol\":2599:2623  BookLedger[index].copies */\n      0x01\n      add\n      0x00\n      swap1\n      sload\n      swap1\n      0x0100\n      exp\n      swap1\n      div\n      0xffffffff\n      and\n        /* \"contracts/Library.sol\":2599:2627  BookLedger[index].copies > 0 */\n      0xffffffff\n      and\n      gt\n        /* \"contracts/Library.sol\":2546:2627  !isAlreadyIssued[msg.sender][index] &&\r... */\n    tag_135:\n        /* \"contracts/Library.sol\":2542:2725  if (!isAlreadyIssued[msg.sender][index] &&\r... */\n      iszero\n      tag_136\n      jumpi\n        /* \"contracts/Library.sol\":2671:2676  index */\n      dup1\n        /* \"contracts/Library.sol\":2648:2654  result */\n      dup3\n        /* \"contracts/Library.sol\":2655:2667  currentIndex */\n      dup5\n        /* \"contracts/Library.sol\":2648:2668  result[currentIndex] */\n      0xffffffff\n      and\n      dup2\n      mload\n      dup2\n      lt\n      tag_137\n      jumpi\n      tag_138\n      tag_94\n      jump\t// in\n    tag_138:\n    tag_137:\n      0x20\n      mul\n      0x20\n      add\n      add\n        /* \"contracts/Library.sol\":2648:2676  result[currentIndex] = index */\n      swap1\n      0xffffffff\n      and\n      swap1\n      dup2\n      0xffffffff\n      and\n      dup2\n      mstore\n      pop\n      pop\n        /* \"contracts/Library.sol\":2695:2709  currentIndex++ */\n      dup3\n      dup1\n      tag_139\n      swap1\n      tag_96\n      jump\t// in\n    tag_139:\n      swap4\n      pop\n      pop\n        /* \"contracts/Library.sol\":2542:2725  if (!isAlreadyIssued[msg.sender][index] &&\r... */\n    tag_136:\n        /* \"contracts/Library.sol\":2518:2525  index++ */\n      dup1\n      dup1\n      tag_140\n      swap1\n      tag_96\n      jump\t// in\n    tag_140:\n      swap2\n      pop\n      pop\n        /* \"contracts/Library.sol\":2475:2736  for (uint32 index = 1; index <= bookCount; index++) {\r... */\n      jump(tag_132)\n    tag_133:\n      pop\n        /* \"contracts/Library.sol\":2753:2759  result */\n      dup1\n        /* \"contracts/Library.sol\":2746:2759  return result */\n      swap3\n      pop\n      pop\n      pop\n        /* \"contracts/Library.sol\":2045:2767  function getAllAvailableBooks() external view returns (uint32[] memory) {\r... */\n      swap1\n      jump\t// out\n        /* \"contracts/Library.sol\":1044:1349  function addBookCopies(uint32 _bookId, uint32 _copies)\r... */\n    tag_57:\n        /* \"@openzeppelin/contracts/access/Ownable.sol\":1094:1107  _checkOwner() */\n      tag_142\n        /* \"@openzeppelin/contracts/access/Ownable.sol\":1094:1105  _checkOwner */\n      tag_80\n        /* \"@openzeppelin/contracts/access/Ownable.sol\":1094:1107  _checkOwner() */\n      jump\t// in\n    tag_142:\n        /* \"contracts/Library.sol\":1170:1171  0 */\n      0x00\n        /* \"contracts/Library.sol\":1160:1167  _copies */\n      dup2\n        /* \"contracts/Library.sol\":1160:1171  _copies > 0 */\n      0xffffffff\n      and\n      gt\n        /* \"contracts/Library.sol\":1152:1181  require(_copies > 0, \"!zero\") */\n      tag_144\n      jumpi\n      mload(0x40)\n      0x08c379a000000000000000000000000000000000000000000000000000000000\n      dup2\n      mstore\n      0x04\n      add\n      tag_145\n      swap1\n      tag_146\n      jump\t// in\n    tag_145:\n      mload(0x40)\n      dup1\n      swap2\n      sub\n      swap1\n      revert\n    tag_144:\n        /* \"contracts/Library.sol\":1192:1209  Book storage book */\n      0x00\n        /* \"contracts/Library.sol\":1212:1222  BookLedger */\n      0x06\n        /* \"contracts/Library.sol\":1212:1231  BookLedger[_bookId] */\n      0x00\n        /* \"contracts/Library.sol\":1223:1230  _bookId */\n      dup5\n        /* \"contracts/Library.sol\":1212:1231  BookLedger[_bookId] */\n      0xffffffff\n      and\n      0xffffffff\n      and\n      dup2\n      mstore\n      0x20\n      add\n      swap1\n      dup2\n      mstore\n      0x20\n      add\n      0x00\n      keccak256\n        /* \"contracts/Library.sol\":1192:1231  Book storage book = BookLedger[_bookId] */\n      swap1\n      pop\n        /* \"contracts/Library.sol\":1277:1278  0 */\n      0x00\n        /* \"contracts/Library.sol\":1256:1260  book */\n      dup2\n        /* \"contracts/Library.sol\":1256:1265  book.name */\n      0x00\n      add\n        /* \"contracts/Library.sol\":1250:1273  bytes(book.name).length */\n      dup1\n      sload\n      tag_147\n      swap1\n      tag_73\n      jump\t// in\n    tag_147:\n      swap1\n      pop\n        /* \"contracts/Library.sol\":1250:1278  bytes(book.name).length != 0 */\n      eq\n      iszero\n        /* \"contracts/Library.sol\":1242:1302  require(bytes(book.name).length != 0, \"Book does not exist\") */\n      tag_148\n      jumpi\n      mload(0x40)\n      0x08c379a000000000000000000000000000000000000000000000000000000000\n      dup2\n      mstore\n      0x04\n      add\n      tag_149\n      swap1\n      tag_150\n      jump\t// in\n    tag_149:\n      mload(0x40)\n      dup1\n      swap2\n      sub\n      swap1\n      revert\n    tag_148:\n        /* \"contracts/Library.sol\":1340:1341  1 */\n      0x01\n        /* \"contracts/Library.sol\":1327:1331  book */\n      dup2\n        /* \"contracts/Library.sol\":1327:1338  book.copies */\n      0x01\n      add\n      0x00\n        /* \"contracts/Library.sol\":1327:1341  book.copies+=1 */\n      dup3\n      dup3\n      dup3\n      swap1\n      sload\n      swap1\n      0x0100\n      exp\n      swap1\n      div\n      0xffffffff\n      and\n      tag_151\n      swap2\n      swap1\n      tag_63\n      jump\t// in\n    tag_151:\n      swap3\n      pop\n      0x0100\n      exp\n      dup2\n      sload\n      dup2\n      0xffffffff\n      mul\n      not\n      and\n      swap1\n      dup4\n      0xffffffff\n      and\n      mul\n      or\n      swap1\n      sstore\n        /* \"contracts/Library.sol\":1313:1317  book */\n      dup2\n        /* \"contracts/Library.sol\":1313:1324  book.copies */\n      0x01\n      add\n      0x00\n        /* \"contracts/Library.sol\":1313:1341  book.copies = book.copies+=1 */\n      0x0100\n      exp\n      dup2\n      sload\n      dup2\n      0xffffffff\n      mul\n      not\n      and\n      swap1\n      dup4\n      0xffffffff\n      and\n      mul\n      or\n      swap1\n      sstore\n      pop\n        /* \"contracts/Library.sol\":1141:1349  {\r... */\n      pop\n        /* \"contracts/Library.sol\":1044:1349  function addBookCopies(uint32 _bookId, uint32 _copies)\r... */\n      pop\n      pop\n      jump\t// out\n        /* \"@openzeppelin/contracts/access/Ownable.sol\":1359:1489  function _checkOwner() internal view virtual {... */\n    tag_80:\n        /* \"@openzeppelin/contracts/access/Ownable.sol\":1433:1445  _msgSender() */\n      tag_153\n        /* \"@openzeppelin/contracts/access/Ownable.sol\":1433:1443  _msgSender */\n      tag_154\n        /* \"@openzeppelin/contracts/access/Ownable.sol\":1433:1445  _msgSender() */\n      jump\t// in\n    tag_153:\n        /* \"@openzeppelin/contracts/access/Ownable.sol\":1422:1445  owner() == _msgSender() */\n      0xffffffffffffffffffffffffffffffffffffffff\n      and\n        /* \"@openzeppelin/contracts/access/Ownable.sol\":1422:1429  owner() */\n      tag_155\n        /* \"@openzeppelin/contracts/access/Ownable.sol\":1422:1427  owner */\n      tag_35\n        /* \"@openzeppelin/contracts/access/Ownable.sol\":1422:1429  owner() */\n      jump\t// in\n    tag_155:\n        /* \"@openzeppelin/contracts/access/Ownable.sol\":1422:1445  owner() == _msgSender() */\n      0xffffffffffffffffffffffffffffffffffffffff\n      and\n      eq\n        /* \"@openzeppelin/contracts/access/Ownable.sol\":1414:1482  require(owner() == _msgSender(), \"Ownable: caller is not the owner\") */\n      tag_156\n      jumpi\n      mload(0x40)\n      0x08c379a000000000000000000000000000000000000000000000000000000000\n      dup2\n      mstore\n      0x04\n      add\n      tag_157\n      swap1\n      tag_158\n      jump\t// in\n    tag_157:\n      mload(0x40)\n      dup1\n      swap2\n      sub\n      swap1\n      revert\n    tag_156:\n        /* \"@openzeppelin/contracts/access/Ownable.sol\":1359:1489  function _checkOwner() internal view virtual {... */\n      jump\t// out\n        /* \"@openzeppelin/contracts/access/Ownable.sol\":2433:2620  function _transferOwnership(address newOwner) internal virtual {... */\n    tag_83:\n        /* \"@openzeppelin/contracts/access/Ownable.sol\":2506:2522  address oldOwner */\n      0x00\n        /* \"@openzeppelin/contracts/access/Ownable.sol\":2525:2531  _owner */\n      dup1\n      0x00\n      swap1\n      sload\n      swap1\n      0x0100\n      exp\n      swap1\n      div\n      0xffffffffffffffffffffffffffffffffffffffff\n      and\n        /* \"@openzeppelin/contracts/access/Ownable.sol\":2506:2531  address oldOwner = _owner */\n      swap1\n      pop\n        /* \"@openzeppelin/contracts/access/Ownable.sol\":2550:2558  newOwner */\n      dup2\n        /* \"@openzeppelin/contracts/access/Ownable.sol\":2541:2547  _owner */\n      0x00\n      dup1\n        /* \"@openzeppelin/contracts/access/Ownable.sol\":2541:2558  _owner = newOwner */\n      0x0100\n      exp\n      dup2\n      sload\n      dup2\n      0xffffffffffffffffffffffffffffffffffffffff\n      mul\n      not\n      and\n      swap1\n      dup4\n      0xffffffffffffffffffffffffffffffffffffffff\n      and\n      mul\n      or\n      swap1\n      sstore\n      pop\n        /* \"@openzeppelin/contracts/access/Ownable.sol\":2604:2612  newOwner */\n      dup2\n        /* \"@openzeppelin/contracts/access/Ownable.sol\":2573:2613  OwnershipTransferred(oldOwner, newOwner) */\n      0xffffffffffffffffffffffffffffffffffffffff\n      and\n        /* \"@openzeppelin/contracts/access/Ownable.sol\":2594:2602  oldOwner */\n      dup2\n        /* \"@openzeppelin/contracts/access/Ownable.sol\":2573:2613  OwnershipTransferred(oldOwner, newOwner) */\n      0xffffffffffffffffffffffffffffffffffffffff\n      and\n      0x8be0079c531659141344cd1fd0a4f28419497f9722a3daafe3b4186f6b6457e0\n      mload(0x40)\n      mload(0x40)\n      dup1\n      swap2\n      sub\n      swap1\n      log3\n        /* \"@openzeppelin/contracts/access/Ownable.sol\":2496:2620  {... */\n      pop\n        /* \"@openzeppelin/contracts/access/Ownable.sol\":2433:2620  function _transferOwnership(address newOwner) internal virtual {... */\n      pop\n      jump\t// out\n        /* \"@openzeppelin/contracts/utils/Context.sol\":640:736  function _msgSender() internal view virtual returns (address) {... */\n    tag_154:\n        /* \"@openzeppelin/contracts/utils/Context.sol\":693:700  address */\n      0x00\n        /* \"@openzeppelin/contracts/utils/Context.sol\":719:729  msg.sender */\n      caller\n        /* \"@openzeppelin/contracts/utils/Context.sol\":712:729  return msg.sender */\n      swap1\n      pop\n        /* \"@openzeppelin/contracts/utils/Context.sol\":640:736  function _msgSender() internal view virtual returns (address) {... */\n      swap1\n      jump\t// out\n    tag_113:\n      dup3\n      dup1\n      sload\n      tag_161\n      swap1\n      tag_73\n      jump\t// in\n    tag_161:\n      swap1\n      0x00\n      mstore\n      keccak256(0x00, 0x20)\n      swap1\n      0x1f\n      add\n      0x20\n      swap1\n      div\n      dup2\n      add\n      swap3\n      dup3\n      tag_163\n      jumpi\n      0x00\n      dup6\n      sstore\n      jump(tag_162)\n    tag_163:\n      dup3\n      0x1f\n      lt\n      tag_164\n      jumpi\n      dup1\n      mload\n      not(0xff)\n      and\n      dup4\n      dup1\n      add\n      or\n      dup6\n      sstore\n      jump(tag_162)\n    tag_164:\n      dup3\n      dup1\n      add\n      0x01\n      add\n      dup6\n      sstore\n      dup3\n      iszero\n      tag_162\n      jumpi\n      swap2\n      dup3\n      add\n    tag_165:\n      dup3\n      dup2\n      gt\n      iszero\n      tag_166\n      jumpi\n      dup3\n      mload\n      dup3\n      sstore\n      swap2\n      0x20\n      add\n      swap2\n      swap1\n      0x01\n      add\n      swap1\n      jump(tag_165)\n    tag_166:\n    tag_162:\n      pop\n      swap1\n      pop\n      tag_167\n      swap2\n      swap1\n      tag_168\n      jump\t// in\n    tag_167:\n      pop\n      swap1\n      jump\t// out\n    tag_168:\n    tag_169:\n      dup1\n      dup3\n      gt\n      iszero\n      tag_170\n      jumpi\n      0x00\n      dup2\n      0x00\n      swap1\n      sstore\n      pop\n      0x01\n      add\n      jump(tag_169)\n    tag_170:\n      pop\n      swap1\n      jump\t// out\n        /* \"#utility.yul\":7:419   */\n    tag_172:\n        /* \"#utility.yul\":85:90   */\n      0x00\n        /* \"#utility.yul\":110:176   */\n      tag_174\n        /* \"#utility.yul\":126:175   */\n      tag_175\n        /* \"#utility.yul\":168:174   */\n      dup5\n        /* \"#utility.yul\":126:175   */\n      tag_176\n      jump\t// in\n    tag_175:\n        /* \"#utility.yul\":110:176   */\n      tag_177\n      jump\t// in\n    tag_174:\n        /* \"#utility.yul\":101:176   */\n      swap1\n      pop\n        /* \"#utility.yul\":199:205   */\n      dup3\n        /* \"#utility.yul\":192:197   */\n      dup2\n        /* \"#utility.yul\":185:206   */\n      mstore\n        /* \"#utility.yul\":237:241   */\n      0x20\n        /* \"#utility.yul\":230:235   */\n      dup2\n        /* \"#utility.yul\":226:242   */\n      add\n        /* \"#utility.yul\":275:278   */\n      dup5\n        /* \"#utility.yul\":266:272   */\n      dup5\n        /* \"#utility.yul\":261:264   */\n      dup5\n        /* \"#utility.yul\":257:273   */\n      add\n        /* \"#utility.yul\":254:279   */\n      gt\n        /* \"#utility.yul\":251:363   */\n      iszero\n      tag_178\n      jumpi\n        /* \"#utility.yul\":282:361   */\n      tag_179\n      tag_180\n      jump\t// in\n    tag_179:\n        /* \"#utility.yul\":251:363   */\n    tag_178:\n        /* \"#utility.yul\":372:413   */\n      tag_181\n        /* \"#utility.yul\":406:412   */\n      dup5\n        /* \"#utility.yul\":401:404   */\n      dup3\n        /* \"#utility.yul\":396:399   */\n      dup6\n        /* \"#utility.yul\":372:413   */\n      tag_182\n      jump\t// in\n    tag_181:\n        /* \"#utility.yul\":91:419   */\n      pop\n        /* \"#utility.yul\":7:419   */\n      swap4\n      swap3\n      pop\n      pop\n      pop\n      jump\t// out\n        /* \"#utility.yul\":425:564   */\n    tag_183:\n        /* \"#utility.yul\":471:476   */\n      0x00\n        /* \"#utility.yul\":509:515   */\n      dup2\n        /* \"#utility.yul\":496:516   */\n      calldataload\n        /* \"#utility.yul\":487:516   */\n      swap1\n      pop\n        /* \"#utility.yul\":525:558   */\n      tag_185\n        /* \"#utility.yul\":552:557   */\n      dup2\n        /* \"#utility.yul\":525:558   */\n      tag_186\n      jump\t// in\n    tag_185:\n        /* \"#utility.yul\":425:564   */\n      swap3\n      swap2\n      pop\n      pop\n      jump\t// out\n        /* \"#utility.yul\":584:924   */\n    tag_187:\n        /* \"#utility.yul\":640:645   */\n      0x00\n        /* \"#utility.yul\":689:692   */\n      dup3\n        /* \"#utility.yul\":682:686   */\n      0x1f\n        /* \"#utility.yul\":674:680   */\n      dup4\n        /* \"#utility.yul\":670:687   */\n      add\n        /* \"#utility.yul\":666:693   */\n      slt\n        /* \"#utility.yul\":656:778   */\n      tag_189\n      jumpi\n        /* \"#utility.yul\":697:776   */\n      tag_190\n      tag_191\n      jump\t// in\n    tag_190:\n        /* \"#utility.yul\":656:778   */\n    tag_189:\n        /* \"#utility.yul\":814:820   */\n      dup2\n        /* \"#utility.yul\":801:821   */\n      calldataload\n        /* \"#utility.yul\":839:918   */\n      tag_192\n        /* \"#utility.yul\":914:917   */\n      dup5\n        /* \"#utility.yul\":906:912   */\n      dup3\n        /* \"#utility.yul\":899:903   */\n      0x20\n        /* \"#utility.yul\":891:897   */\n      dup7\n        /* \"#utility.yul\":887:904   */\n      add\n        /* \"#utility.yul\":839:918   */\n      tag_172\n      jump\t// in\n    tag_192:\n        /* \"#utility.yul\":830:918   */\n      swap2\n      pop\n        /* \"#utility.yul\":646:924   */\n      pop\n        /* \"#utility.yul\":584:924   */\n      swap3\n      swap2\n      pop\n      pop\n      jump\t// out\n        /* \"#utility.yul\":930:1067   */\n    tag_193:\n        /* \"#utility.yul\":975:980   */\n      0x00\n        /* \"#utility.yul\":1013:1019   */\n      dup2\n        /* \"#utility.yul\":1000:1020   */\n      calldataload\n        /* \"#utility.yul\":991:1020   */\n      swap1\n      pop\n        /* \"#utility.yul\":1029:1061   */\n      tag_195\n        /* \"#utility.yul\":1055:1060   */\n      dup2\n        /* \"#utility.yul\":1029:1061   */\n      tag_196\n      jump\t// in\n    tag_195:\n        /* \"#utility.yul\":930:1067   */\n      swap3\n      swap2\n      pop\n      pop\n      jump\t// out\n        /* \"#utility.yul\":1073:1402   */\n    tag_48:\n        /* \"#utility.yul\":1132:1138   */\n      0x00\n        /* \"#utility.yul\":1181:1183   */\n      0x20\n        /* \"#utility.yul\":1169:1178   */\n      dup3\n        /* \"#utility.yul\":1160:1167   */\n      dup5\n        /* \"#utility.yul\":1156:1179   */\n      sub\n        /* \"#utility.yul\":1152:1184   */\n      slt\n        /* \"#utility.yul\":1149:1268   */\n      iszero\n      tag_198\n      jumpi\n        /* \"#utility.yul\":1187:1266   */\n      tag_199\n      tag_200\n      jump\t// in\n    tag_199:\n        /* \"#utility.yul\":1149:1268   */\n    tag_198:\n        /* \"#utility.yul\":1307:1308   */\n      0x00\n        /* \"#utility.yul\":1332:1385   */\n      tag_201\n        /* \"#utility.yul\":1377:1384   */\n      dup5\n        /* \"#utility.yul\":1368:1374   */\n      dup3\n        /* \"#utility.yul\":1357:1366   */\n      dup6\n        /* \"#utility.yul\":1353:1375   */\n      add\n        /* \"#utility.yul\":1332:1385   */\n      tag_183\n      jump\t// in\n    tag_201:\n        /* \"#utility.yul\":1322:1385   */\n      swap2\n      pop\n        /* \"#utility.yul\":1278:1395   */\n      pop\n        /* \"#utility.yul\":1073:1402   */\n      swap3\n      swap2\n      pop\n      pop\n      jump\t// out\n        /* \"#utility.yul\":1408:2060   */\n    tag_44:\n        /* \"#utility.yul\":1485:1491   */\n      0x00\n        /* \"#utility.yul\":1493:1499   */\n      dup1\n        /* \"#utility.yul\":1542:1544   */\n      0x40\n        /* \"#utility.yul\":1530:1539   */\n      dup4\n        /* \"#utility.yul\":1521:1528   */\n      dup6\n        /* \"#utility.yul\":1517:1540   */\n      sub\n        /* \"#utility.yul\":1513:1545   */\n      slt\n        /* \"#utility.yul\":1510:1629   */\n      iszero\n      tag_203\n      jumpi\n        /* \"#utility.yul\":1548:1627   */\n      tag_204\n      tag_200\n      jump\t// in\n    tag_204:\n        /* \"#utility.yul\":1510:1629   */\n    tag_203:\n        /* \"#utility.yul\":1696:1697   */\n      0x00\n        /* \"#utility.yul\":1685:1694   */\n      dup4\n        /* \"#utility.yul\":1681:1698   */\n      add\n        /* \"#utility.yul\":1668:1699   */\n      calldataload\n        /* \"#utility.yul\":1726:1744   */\n      0xffffffffffffffff\n        /* \"#utility.yul\":1718:1724   */\n      dup2\n        /* \"#utility.yul\":1715:1745   */\n      gt\n        /* \"#utility.yul\":1712:1829   */\n      iszero\n      tag_205\n      jumpi\n        /* \"#utility.yul\":1748:1827   */\n      tag_206\n      tag_207\n      jump\t// in\n    tag_206:\n        /* \"#utility.yul\":1712:1829   */\n    tag_205:\n        /* \"#utility.yul\":1853:1916   */\n      tag_208\n        /* \"#utility.yul\":1908:1915   */\n      dup6\n        /* \"#utility.yul\":1899:1905   */\n      dup3\n        /* \"#utility.yul\":1888:1897   */\n      dup7\n        /* \"#utility.yul\":1884:1906   */\n      add\n        /* \"#utility.yul\":1853:1916   */\n      tag_187\n      jump\t// in\n    tag_208:\n        /* \"#utility.yul\":1843:1916   */\n      swap3\n      pop\n        /* \"#utility.yul\":1639:1926   */\n      pop\n        /* \"#utility.yul\":1965:1967   */\n      0x20\n        /* \"#utility.yul\":1991:2043   */\n      tag_209\n        /* \"#utility.yul\":2035:2042   */\n      dup6\n        /* \"#utility.yul\":2026:2032   */\n      dup3\n        /* \"#utility.yul\":2015:2024   */\n      dup7\n        /* \"#utility.yul\":2011:2033   */\n      add\n        /* \"#utility.yul\":1991:2043   */\n      tag_193\n      jump\t// in\n    tag_209:\n        /* \"#utility.yul\":1981:2043   */\n      swap2\n      pop\n        /* \"#utility.yul\":1936:2053   */\n      pop\n        /* \"#utility.yul\":1408:2060   */\n      swap3\n      pop\n      swap3\n      swap1\n      pop\n      jump\t// out\n        /* \"#utility.yul\":2066:2393   */\n    tag_17:\n        /* \"#utility.yul\":2124:2130   */\n      0x00\n        /* \"#utility.yul\":2173:2175   */\n      0x20\n        /* \"#utility.yul\":2161:2170   */\n      dup3\n        /* \"#utility.yul\":2152:2159   */\n      dup5\n        /* \"#utility.yul\":2148:2171   */\n      sub\n        /* \"#utility.yul\":2144:2176   */\n      slt\n        /* \"#utility.yul\":2141:2260   */\n      iszero\n      tag_211\n      jumpi\n        /* \"#utility.yul\":2179:2258   */\n      tag_212\n      tag_200\n      jump\t// in\n    tag_212:\n        /* \"#utility.yul\":2141:2260   */\n    tag_211:\n        /* \"#utility.yul\":2299:2300   */\n      0x00\n        /* \"#utility.yul\":2324:2376   */\n      tag_213\n        /* \"#utility.yul\":2368:2375   */\n      dup5\n        /* \"#utility.yul\":2359:2365   */\n      dup3\n        /* \"#utility.yul\":2348:2357   */\n      dup6\n        /* \"#utility.yul\":2344:2366   */\n      add\n        /* \"#utility.yul\":2324:2376   */\n      tag_193\n      jump\t// in\n    tag_213:\n        /* \"#utility.yul\":2314:2376   */\n      swap2\n      pop\n        /* \"#utility.yul\":2270:2386   */\n      pop\n        /* \"#utility.yul\":2066:2393   */\n      swap3\n      swap2\n      pop\n      pop\n      jump\t// out\n        /* \"#utility.yul\":2399:2869   */\n    tag_56:\n        /* \"#utility.yul\":2465:2471   */\n      0x00\n        /* \"#utility.yul\":2473:2479   */\n      dup1\n        /* \"#utility.yul\":2522:2524   */\n      0x40\n        /* \"#utility.yul\":2510:2519   */\n      dup4\n        /* \"#utility.yul\":2501:2508   */\n      dup6\n        /* \"#utility.yul\":2497:2520   */\n      sub\n        /* \"#utility.yul\":2493:2525   */\n      slt\n        /* \"#utility.yul\":2490:2609   */\n      iszero\n      tag_215\n      jumpi\n        /* \"#utility.yul\":2528:2607   */\n      tag_216\n      tag_200\n      jump\t// in\n    tag_216:\n        /* \"#utility.yul\":2490:2609   */\n    tag_215:\n        /* \"#utility.yul\":2648:2649   */\n      0x00\n        /* \"#utility.yul\":2673:2725   */\n      tag_217\n        /* \"#utility.yul\":2717:2724   */\n      dup6\n        /* \"#utility.yul\":2708:2714   */\n      dup3\n        /* \"#utility.yul\":2697:2706   */\n      dup7\n        /* \"#utility.yul\":2693:2715   */\n      add\n        /* \"#utility.yul\":2673:2725   */\n      tag_193\n      jump\t// in\n    tag_217:\n        /* \"#utility.yul\":2663:2725   */\n      swap3\n      pop\n        /* \"#utility.yul\":2619:2735   */\n      pop\n        /* \"#utility.yul\":2774:2776   */\n      0x20\n        /* \"#utility.yul\":2800:2852   */\n      tag_218\n        /* \"#utility.yul\":2844:2851   */\n      dup6\n        /* \"#utility.yul\":2835:2841   */\n      dup3\n        /* \"#utility.yul\":2824:2833   */\n      dup7\n        /* \"#utility.yul\":2820:2842   */\n      add\n        /* \"#utility.yul\":2800:2852   */\n      tag_193\n      jump\t// in\n    tag_218:\n        /* \"#utility.yul\":2790:2852   */\n      swap2\n      pop\n        /* \"#utility.yul\":2745:2862   */\n      pop\n        /* \"#utility.yul\":2399:2869   */\n      swap3\n      pop\n      swap3\n      swap1\n      pop\n      jump\t// out\n        /* \"#utility.yul\":2875:3054   */\n    tag_219:\n        /* \"#utility.yul\":2944:2954   */\n      0x00\n        /* \"#utility.yul\":2965:3011   */\n      tag_221\n        /* \"#utility.yul\":3007:3010   */\n      dup4\n        /* \"#utility.yul\":2999:3005   */\n      dup4\n        /* \"#utility.yul\":2965:3011   */\n      tag_222\n      jump\t// in\n    tag_221:\n        /* \"#utility.yul\":3043:3047   */\n      0x20\n        /* \"#utility.yul\":3038:3041   */\n      dup4\n        /* \"#utility.yul\":3034:3048   */\n      add\n        /* \"#utility.yul\":3020:3048   */\n      swap1\n      pop\n        /* \"#utility.yul\":2875:3054   */\n      swap3\n      swap2\n      pop\n      pop\n      jump\t// out\n        /* \"#utility.yul\":3060:3235   */\n    tag_223:\n        /* \"#utility.yul\":3127:3137   */\n      0x00\n        /* \"#utility.yul\":3148:3192   */\n      tag_225\n        /* \"#utility.yul\":3188:3191   */\n      dup4\n        /* \"#utility.yul\":3180:3186   */\n      dup4\n        /* \"#utility.yul\":3148:3192   */\n      tag_226\n      jump\t// in\n    tag_225:\n        /* \"#utility.yul\":3224:3228   */\n      0x20\n        /* \"#utility.yul\":3219:3222   */\n      dup4\n        /* \"#utility.yul\":3215:3229   */\n      add\n        /* \"#utility.yul\":3201:3229   */\n      swap1\n      pop\n        /* \"#utility.yul\":3060:3235   */\n      swap3\n      swap2\n      pop\n      pop\n      jump\t// out\n        /* \"#utility.yul\":3241:3349   */\n    tag_222:\n        /* \"#utility.yul\":3318:3342   */\n      tag_228\n        /* \"#utility.yul\":3336:3341   */\n      dup2\n        /* \"#utility.yul\":3318:3342   */\n      tag_229\n      jump\t// in\n    tag_228:\n        /* \"#utility.yul\":3313:3316   */\n      dup3\n        /* \"#utility.yul\":3306:3343   */\n      mstore\n        /* \"#utility.yul\":3241:3349   */\n      pop\n      pop\n      jump\t// out\n        /* \"#utility.yul\":3355:3473   */\n    tag_230:\n        /* \"#utility.yul\":3442:3466   */\n      tag_232\n        /* \"#utility.yul\":3460:3465   */\n      dup2\n        /* \"#utility.yul\":3442:3466   */\n      tag_229\n      jump\t// in\n    tag_232:\n        /* \"#utility.yul\":3437:3440   */\n      dup3\n        /* \"#utility.yul\":3430:3467   */\n      mstore\n        /* \"#utility.yul\":3355:3473   */\n      pop\n      pop\n      jump\t// out\n        /* \"#utility.yul\":3509:4241   */\n    tag_233:\n        /* \"#utility.yul\":3628:3631   */\n      0x00\n        /* \"#utility.yul\":3657:3711   */\n      tag_235\n        /* \"#utility.yul\":3705:3710   */\n      dup3\n        /* \"#utility.yul\":3657:3711   */\n      tag_236\n      jump\t// in\n    tag_235:\n        /* \"#utility.yul\":3727:3813   */\n      tag_237\n        /* \"#utility.yul\":3806:3812   */\n      dup2\n        /* \"#utility.yul\":3801:3804   */\n      dup6\n        /* \"#utility.yul\":3727:3813   */\n      tag_238\n      jump\t// in\n    tag_237:\n        /* \"#utility.yul\":3720:3813   */\n      swap4\n      pop\n        /* \"#utility.yul\":3837:3893   */\n      tag_239\n        /* \"#utility.yul\":3887:3892   */\n      dup4\n        /* \"#utility.yul\":3837:3893   */\n      tag_240\n      jump\t// in\n    tag_239:\n        /* \"#utility.yul\":3916:3923   */\n      dup1\n        /* \"#utility.yul\":3947:3948   */\n      0x00\n        /* \"#utility.yul\":3932:4216   */\n    tag_241:\n        /* \"#utility.yul\":3957:3963   */\n      dup4\n        /* \"#utility.yul\":3954:3955   */\n      dup2\n        /* \"#utility.yul\":3951:3964   */\n      lt\n        /* \"#utility.yul\":3932:4216   */\n      iszero\n      tag_243\n      jumpi\n        /* \"#utility.yul\":4033:4039   */\n      dup2\n        /* \"#utility.yul\":4027:4040   */\n      mload\n        /* \"#utility.yul\":4060:4123   */\n      tag_244\n        /* \"#utility.yul\":4119:4122   */\n      dup9\n        /* \"#utility.yul\":4104:4117   */\n      dup3\n        /* \"#utility.yul\":4060:4123   */\n      tag_219\n      jump\t// in\n    tag_244:\n        /* \"#utility.yul\":4053:4123   */\n      swap8\n      pop\n        /* \"#utility.yul\":4146:4206   */\n      tag_245\n        /* \"#utility.yul\":4199:4205   */\n      dup4\n        /* \"#utility.yul\":4146:4206   */\n      tag_246\n      jump\t// in\n    tag_245:\n        /* \"#utility.yul\":4136:4206   */\n      swap3\n      pop\n        /* \"#utility.yul\":3992:4216   */\n      pop\n        /* \"#utility.yul\":3979:3980   */\n      0x01\n        /* \"#utility.yul\":3976:3977   */\n      dup2\n        /* \"#utility.yul\":3972:3981   */\n      add\n        /* \"#utility.yul\":3967:3981   */\n      swap1\n      pop\n        /* \"#utility.yul\":3932:4216   */\n      jump(tag_241)\n    tag_243:\n        /* \"#utility.yul\":3936:3950   */\n      pop\n        /* \"#utility.yul\":4232:4235   */\n      dup6\n        /* \"#utility.yul\":4225:4235   */\n      swap4\n      pop\n        /* \"#utility.yul\":3633:4241   */\n      pop\n      pop\n      pop\n        /* \"#utility.yul\":3509:4241   */\n      swap3\n      swap2\n      pop\n      pop\n      jump\t// out\n        /* \"#utility.yul\":4275:4999   */\n    tag_247:\n        /* \"#utility.yul\":4392:4395   */\n      0x00\n        /* \"#utility.yul\":4421:4474   */\n      tag_249\n        /* \"#utility.yul\":4468:4473   */\n      dup3\n        /* \"#utility.yul\":4421:4474   */\n      tag_250\n      jump\t// in\n    tag_249:\n        /* \"#utility.yul\":4490:4575   */\n      tag_251\n        /* \"#utility.yul\":4568:4574   */\n      dup2\n        /* \"#utility.yul\":4563:4566   */\n      dup6\n        /* \"#utility.yul\":4490:4575   */\n      tag_252\n      jump\t// in\n    tag_251:\n        /* \"#utility.yul\":4483:4575   */\n      swap4\n      pop\n        /* \"#utility.yul\":4599:4654   */\n      tag_253\n        /* \"#utility.yul\":4648:4653   */\n      dup4\n        /* \"#utility.yul\":4599:4654   */\n      tag_254\n      jump\t// in\n    tag_253:\n        /* \"#utility.yul\":4677:4684   */\n      dup1\n        /* \"#utility.yul\":4708:4709   */\n      0x00\n        /* \"#utility.yul\":4693:4974   */\n    tag_255:\n        /* \"#utility.yul\":4718:4724   */\n      dup4\n        /* \"#utility.yul\":4715:4716   */\n      dup2\n        /* \"#utility.yul\":4712:4725   */\n      lt\n        /* \"#utility.yul\":4693:4974   */\n      iszero\n      tag_257\n      jumpi\n        /* \"#utility.yul\":4794:4800   */\n      dup2\n        /* \"#utility.yul\":4788:4801   */\n      mload\n        /* \"#utility.yul\":4821:4882   */\n      tag_258\n        /* \"#utility.yul\":4878:4881   */\n      dup9\n        /* \"#utility.yul\":4863:4876   */\n      dup3\n        /* \"#utility.yul\":4821:4882   */\n      tag_223\n      jump\t// in\n    tag_258:\n        /* \"#utility.yul\":4814:4882   */\n      swap8\n      pop\n        /* \"#utility.yul\":4905:4964   */\n      tag_259\n        /* \"#utility.yul\":4957:4963   */\n      dup4\n        /* \"#utility.yul\":4905:4964   */\n      tag_260\n      jump\t// in\n    tag_259:\n        /* \"#utility.yul\":4895:4964   */\n      swap3\n      pop\n        /* \"#utility.yul\":4753:4974   */\n      pop\n        /* \"#utility.yul\":4740:4741   */\n      0x01\n        /* \"#utility.yul\":4737:4738   */\n      dup2\n        /* \"#utility.yul\":4733:4742   */\n      add\n        /* \"#utility.yul\":4728:4742   */\n      swap1\n      pop\n        /* \"#utility.yul\":4693:4974   */\n      jump(tag_255)\n    tag_257:\n        /* \"#utility.yul\":4697:4711   */\n      pop\n        /* \"#utility.yul\":4990:4993   */\n      dup6\n        /* \"#utility.yul\":4983:4993   */\n      swap4\n      pop\n        /* \"#utility.yul\":4397:4999   */\n      pop\n      pop\n      pop\n        /* \"#utility.yul\":4275:4999   */\n      swap3\n      swap2\n      pop\n      pop\n      jump\t// out\n        /* \"#utility.yul\":5005:5369   */\n    tag_261:\n        /* \"#utility.yul\":5093:5096   */\n      0x00\n        /* \"#utility.yul\":5121:5160   */\n      tag_263\n        /* \"#utility.yul\":5154:5159   */\n      dup3\n        /* \"#utility.yul\":5121:5160   */\n      tag_264\n      jump\t// in\n    tag_263:\n        /* \"#utility.yul\":5176:5247   */\n      tag_265\n        /* \"#utility.yul\":5240:5246   */\n      dup2\n        /* \"#utility.yul\":5235:5238   */\n      dup6\n        /* \"#utility.yul\":5176:5247   */\n      tag_266\n      jump\t// in\n    tag_265:\n        /* \"#utility.yul\":5169:5247   */\n      swap4\n      pop\n        /* \"#utility.yul\":5256:5308   */\n      tag_267\n        /* \"#utility.yul\":5301:5307   */\n      dup2\n        /* \"#utility.yul\":5296:5299   */\n      dup6\n        /* \"#utility.yul\":5289:5293   */\n      0x20\n        /* \"#utility.yul\":5282:5287   */\n      dup7\n        /* \"#utility.yul\":5278:5294   */\n      add\n        /* \"#utility.yul\":5256:5308   */\n      tag_268\n      jump\t// in\n    tag_267:\n        /* \"#utility.yul\":5333:5362   */\n      tag_269\n        /* \"#utility.yul\":5355:5361   */\n      dup2\n        /* \"#utility.yul\":5333:5362   */\n      tag_270\n      jump\t// in\n    tag_269:\n        /* \"#utility.yul\":5328:5331   */\n      dup5\n        /* \"#utility.yul\":5324:5363   */\n      add\n        /* \"#utility.yul\":5317:5363   */\n      swap2\n      pop\n        /* \"#utility.yul\":5097:5369   */\n      pop\n        /* \"#utility.yul\":5005:5369   */\n      swap3\n      swap2\n      pop\n      pop\n      jump\t// out\n        /* \"#utility.yul\":5375:5752   */\n    tag_271:\n        /* \"#utility.yul\":5481:5484   */\n      0x00\n        /* \"#utility.yul\":5509:5548   */\n      tag_273\n        /* \"#utility.yul\":5542:5547   */\n      dup3\n        /* \"#utility.yul\":5509:5548   */\n      tag_264\n      jump\t// in\n    tag_273:\n        /* \"#utility.yul\":5564:5653   */\n      tag_274\n        /* \"#utility.yul\":5646:5652   */\n      dup2\n        /* \"#utility.yul\":5641:5644   */\n      dup6\n        /* \"#utility.yul\":5564:5653   */\n      tag_275\n      jump\t// in\n    tag_274:\n        /* \"#utility.yul\":5557:5653   */\n      swap4\n      pop\n        /* \"#utility.yul\":5662:5714   */\n      tag_276\n        /* \"#utility.yul\":5707:5713   */\n      dup2\n        /* \"#utility.yul\":5702:5705   */\n      dup6\n        /* \"#utility.yul\":5695:5699   */\n      0x20\n        /* \"#utility.yul\":5688:5693   */\n      dup7\n        /* \"#utility.yul\":5684:5700   */\n      add\n        /* \"#utility.yul\":5662:5714   */\n      tag_268\n      jump\t// in\n    tag_276:\n        /* \"#utility.yul\":5739:5745   */\n      dup1\n        /* \"#utility.yul\":5734:5737   */\n      dup5\n        /* \"#utility.yul\":5730:5746   */\n      add\n        /* \"#utility.yul\":5723:5746   */\n      swap2\n      pop\n        /* \"#utility.yul\":5485:5752   */\n      pop\n        /* \"#utility.yul\":5375:5752   */\n      swap3\n      swap2\n      pop\n      pop\n      jump\t// out\n        /* \"#utility.yul\":5758:6124   */\n    tag_277:\n        /* \"#utility.yul\":5900:5903   */\n      0x00\n        /* \"#utility.yul\":5921:5988   */\n      tag_279\n        /* \"#utility.yul\":5985:5987   */\n      0x14\n        /* \"#utility.yul\":5980:5983   */\n      dup4\n        /* \"#utility.yul\":5921:5988   */\n      tag_266\n      jump\t// in\n    tag_279:\n        /* \"#utility.yul\":5914:5988   */\n      swap2\n      pop\n        /* \"#utility.yul\":5997:6090   */\n      tag_280\n        /* \"#utility.yul\":6086:6089   */\n      dup3\n        /* \"#utility.yul\":5997:6090   */\n      tag_281\n      jump\t// in\n    tag_280:\n        /* \"#utility.yul\":6115:6117   */\n      0x20\n        /* \"#utility.yul\":6110:6113   */\n      dup3\n        /* \"#utility.yul\":6106:6118   */\n      add\n        /* \"#utility.yul\":6099:6118   */\n      swap1\n      pop\n        /* \"#utility.yul\":5758:6124   */\n      swap2\n      swap1\n      pop\n      jump\t// out\n        /* \"#utility.yul\":6130:6496   */\n    tag_282:\n        /* \"#utility.yul\":6272:6275   */\n      0x00\n        /* \"#utility.yul\":6293:6360   */\n      tag_284\n        /* \"#utility.yul\":6357:6359   */\n      0x11\n        /* \"#utility.yul\":6352:6355   */\n      dup4\n        /* \"#utility.yul\":6293:6360   */\n      tag_266\n      jump\t// in\n    tag_284:\n        /* \"#utility.yul\":6286:6360   */\n      swap2\n      pop\n        /* \"#utility.yul\":6369:6462   */\n      tag_285\n        /* \"#utility.yul\":6458:6461   */\n      dup3\n        /* \"#utility.yul\":6369:6462   */\n      tag_286\n      jump\t// in\n    tag_285:\n        /* \"#utility.yul\":6487:6489   */\n      0x20\n        /* \"#utility.yul\":6482:6485   */\n      dup3\n        /* \"#utility.yul\":6478:6490   */\n      add\n        /* \"#utility.yul\":6471:6490   */\n      swap1\n      pop\n        /* \"#utility.yul\":6130:6496   */\n      swap2\n      swap1\n      pop\n      jump\t// out\n        /* \"#utility.yul\":6502:6868   */\n    tag_287:\n        /* \"#utility.yul\":6644:6647   */\n      0x00\n        /* \"#utility.yul\":6665:6732   */\n      tag_289\n        /* \"#utility.yul\":6729:6731   */\n      0x16\n        /* \"#utility.yul\":6724:6727   */\n      dup4\n        /* \"#utility.yul\":6665:6732   */\n      tag_266\n      jump\t// in\n    tag_289:\n        /* \"#utility.yul\":6658:6732   */\n      swap2\n      pop\n        /* \"#utility.yul\":6741:6834   */\n      tag_290\n        /* \"#utility.yul\":6830:6833   */\n      dup3\n        /* \"#utility.yul\":6741:6834   */\n      tag_291\n      jump\t// in\n    tag_290:\n        /* \"#utility.yul\":6859:6861   */\n      0x20\n        /* \"#utility.yul\":6854:6857   */\n      dup3\n        /* \"#utility.yul\":6850:6862   */\n      add\n        /* \"#utility.yul\":6843:6862   */\n      swap1\n      pop\n        /* \"#utility.yul\":6502:6868   */\n      swap2\n      swap1\n      pop\n      jump\t// out\n        /* \"#utility.yul\":6874:7240   */\n    tag_292:\n        /* \"#utility.yul\":7016:7019   */\n      0x00\n        /* \"#utility.yul\":7037:7104   */\n      tag_294\n        /* \"#utility.yul\":7101:7103   */\n      0x26\n        /* \"#utility.yul\":7096:7099   */\n      dup4\n        /* \"#utility.yul\":7037:7104   */\n      tag_266\n      jump\t// in\n    tag_294:\n        /* \"#utility.yul\":7030:7104   */\n      swap2\n      pop\n        /* \"#utility.yul\":7113:7206   */\n      tag_295\n        /* \"#utility.yul\":7202:7205   */\n      dup3\n        /* \"#utility.yul\":7113:7206   */\n      tag_296\n      jump\t// in\n    tag_295:\n        /* \"#utility.yul\":7231:7233   */\n      0x40\n        /* \"#utility.yul\":7226:7229   */\n      dup3\n        /* \"#utility.yul\":7222:7234   */\n      add\n        /* \"#utility.yul\":7215:7234   */\n      swap1\n      pop\n        /* \"#utility.yul\":6874:7240   */\n      swap2\n      swap1\n      pop\n      jump\t// out\n        /* \"#utility.yul\":7246:7612   */\n    tag_297:\n        /* \"#utility.yul\":7388:7391   */\n      0x00\n        /* \"#utility.yul\":7409:7476   */\n      tag_299\n        /* \"#utility.yul\":7473:7475   */\n      0x12\n        /* \"#utility.yul\":7468:7471   */\n      dup4\n        /* \"#utility.yul\":7409:7476   */\n      tag_266\n      jump\t// in\n    tag_299:\n        /* \"#utility.yul\":7402:7476   */\n      swap2\n      pop\n        /* \"#utility.yul\":7485:7578   */\n      tag_300\n        /* \"#utility.yul\":7574:7577   */\n      dup3\n        /* \"#utility.yul\":7485:7578   */\n      tag_301\n      jump\t// in\n    tag_300:\n        /* \"#utility.yul\":7603:7605   */\n      0x20\n        /* \"#utility.yul\":7598:7601   */\n      dup3\n        /* \"#utility.yul\":7594:7606   */\n      add\n        /* \"#utility.yul\":7587:7606   */\n      swap1\n      pop\n        /* \"#utility.yul\":7246:7612   */\n      swap2\n      swap1\n      pop\n      jump\t// out\n        /* \"#utility.yul\":7618:7984   */\n    tag_302:\n        /* \"#utility.yul\":7760:7763   */\n      0x00\n        /* \"#utility.yul\":7781:7848   */\n      tag_304\n        /* \"#utility.yul\":7845:7847   */\n      0x20\n        /* \"#utility.yul\":7840:7843   */\n      dup4\n        /* \"#utility.yul\":7781:7848   */\n      tag_266\n      jump\t// in\n    tag_304:\n        /* \"#utility.yul\":7774:7848   */\n      swap2\n      pop\n        /* \"#utility.yul\":7857:7950   */\n      tag_305\n        /* \"#utility.yul\":7946:7949   */\n      dup3\n        /* \"#utility.yul\":7857:7950   */\n      tag_306\n      jump\t// in\n    tag_305:\n        /* \"#utility.yul\":7975:7977   */\n      0x20\n        /* \"#utility.yul\":7970:7973   */\n      dup3\n        /* \"#utility.yul\":7966:7978   */\n      add\n        /* \"#utility.yul\":7959:7978   */\n      swap1\n      pop\n        /* \"#utility.yul\":7618:7984   */\n      swap2\n      swap1\n      pop\n      jump\t// out\n        /* \"#utility.yul\":7990:8355   */\n    tag_307:\n        /* \"#utility.yul\":8132:8135   */\n      0x00\n        /* \"#utility.yul\":8153:8219   */\n      tag_309\n        /* \"#utility.yul\":8217:8218   */\n      0x05\n        /* \"#utility.yul\":8212:8215   */\n      dup4\n        /* \"#utility.yul\":8153:8219   */\n      tag_266\n      jump\t// in\n    tag_309:\n        /* \"#utility.yul\":8146:8219   */\n      swap2\n      pop\n        /* \"#utility.yul\":8228:8321   */\n      tag_310\n        /* \"#utility.yul\":8317:8320   */\n      dup3\n        /* \"#utility.yul\":8228:8321   */\n      tag_311\n      jump\t// in\n    tag_310:\n        /* \"#utility.yul\":8346:8348   */\n      0x20\n        /* \"#utility.yul\":8341:8344   */\n      dup3\n        /* \"#utility.yul\":8337:8349   */\n      add\n        /* \"#utility.yul\":8330:8349   */\n      swap1\n      pop\n        /* \"#utility.yul\":7990:8355   */\n      swap2\n      swap1\n      pop\n      jump\t// out\n        /* \"#utility.yul\":8361:8727   */\n    tag_312:\n        /* \"#utility.yul\":8503:8506   */\n      0x00\n        /* \"#utility.yul\":8524:8591   */\n      tag_314\n        /* \"#utility.yul\":8588:8590   */\n      0x13\n        /* \"#utility.yul\":8583:8586   */\n      dup4\n        /* \"#utility.yul\":8524:8591   */\n      tag_266\n      jump\t// in\n    tag_314:\n        /* \"#utility.yul\":8517:8591   */\n      swap2\n      pop\n        /* \"#utility.yul\":8600:8693   */\n      tag_315\n        /* \"#utility.yul\":8689:8692   */\n      dup3\n        /* \"#utility.yul\":8600:8693   */\n      tag_316\n      jump\t// in\n    tag_315:\n        /* \"#utility.yul\":8718:8720   */\n      0x20\n        /* \"#utility.yul\":8713:8716   */\n      dup3\n        /* \"#utility.yul\":8709:8721   */\n      add\n        /* \"#utility.yul\":8702:8721   */\n      swap1\n      pop\n        /* \"#utility.yul\":8361:8727   */\n      swap2\n      swap1\n      pop\n      jump\t// out\n        /* \"#utility.yul\":8733:8838   */\n    tag_226:\n        /* \"#utility.yul\":8808:8831   */\n      tag_318\n        /* \"#utility.yul\":8825:8830   */\n      dup2\n        /* \"#utility.yul\":8808:8831   */\n      tag_319\n      jump\t// in\n    tag_318:\n        /* \"#utility.yul\":8803:8806   */\n      dup3\n        /* \"#utility.yul\":8796:8832   */\n      mstore\n        /* \"#utility.yul\":8733:8838   */\n      pop\n      pop\n      jump\t// out\n        /* \"#utility.yul\":8844:8959   */\n    tag_320:\n        /* \"#utility.yul\":8929:8952   */\n      tag_322\n        /* \"#utility.yul\":8946:8951   */\n      dup2\n        /* \"#utility.yul\":8929:8952   */\n      tag_319\n      jump\t// in\n    tag_322:\n        /* \"#utility.yul\":8924:8927   */\n      dup3\n        /* \"#utility.yul\":8917:8953   */\n      mstore\n        /* \"#utility.yul\":8844:8959   */\n      pop\n      pop\n      jump\t// out\n        /* \"#utility.yul\":8965:9240   */\n    tag_102:\n        /* \"#utility.yul\":9097:9100   */\n      0x00\n        /* \"#utility.yul\":9119:9214   */\n      tag_324\n        /* \"#utility.yul\":9210:9213   */\n      dup3\n        /* \"#utility.yul\":9201:9207   */\n      dup5\n        /* \"#utility.yul\":9119:9214   */\n      tag_271\n      jump\t// in\n    tag_324:\n        /* \"#utility.yul\":9112:9214   */\n      swap2\n      pop\n        /* \"#utility.yul\":9231:9234   */\n      dup2\n        /* \"#utility.yul\":9224:9234   */\n      swap1\n      pop\n        /* \"#utility.yul\":8965:9240   */\n      swap3\n      swap2\n      pop\n      pop\n      jump\t// out\n        /* \"#utility.yul\":9246:9468   */\n    tag_37:\n        /* \"#utility.yul\":9339:9343   */\n      0x00\n        /* \"#utility.yul\":9377:9379   */\n      0x20\n        /* \"#utility.yul\":9366:9375   */\n      dup3\n        /* \"#utility.yul\":9362:9380   */\n      add\n        /* \"#utility.yul\":9354:9380   */\n      swap1\n      pop\n        /* \"#utility.yul\":9390:9461   */\n      tag_326\n        /* \"#utility.yul\":9458:9459   */\n      0x00\n        /* \"#utility.yul\":9447:9456   */\n      dup4\n        /* \"#utility.yul\":9443:9460   */\n      add\n        /* \"#utility.yul\":9434:9440   */\n      dup5\n        /* \"#utility.yul\":9390:9461   */\n      tag_230\n      jump\t// in\n    tag_326:\n        /* \"#utility.yul\":9246:9468   */\n      swap3\n      swap2\n      pop\n      pop\n      jump\t// out\n        /* \"#utility.yul\":9474:9847   */\n    tag_33:\n        /* \"#utility.yul\":9617:9621   */\n      0x00\n        /* \"#utility.yul\":9655:9657   */\n      0x20\n        /* \"#utility.yul\":9644:9653   */\n      dup3\n        /* \"#utility.yul\":9640:9658   */\n      add\n        /* \"#utility.yul\":9632:9658   */\n      swap1\n      pop\n        /* \"#utility.yul\":9704:9713   */\n      dup2\n        /* \"#utility.yul\":9698:9702   */\n      dup2\n        /* \"#utility.yul\":9694:9714   */\n      sub\n        /* \"#utility.yul\":9690:9691   */\n      0x00\n        /* \"#utility.yul\":9679:9688   */\n      dup4\n        /* \"#utility.yul\":9675:9692   */\n      add\n        /* \"#utility.yul\":9668:9715   */\n      mstore\n        /* \"#utility.yul\":9732:9840   */\n      tag_328\n        /* \"#utility.yul\":9835:9839   */\n      dup2\n        /* \"#utility.yul\":9826:9832   */\n      dup5\n        /* \"#utility.yul\":9732:9840   */\n      tag_233\n      jump\t// in\n    tag_328:\n        /* \"#utility.yul\":9724:9840   */\n      swap1\n      pop\n        /* \"#utility.yul\":9474:9847   */\n      swap3\n      swap2\n      pop\n      pop\n      jump\t// out\n        /* \"#utility.yul\":9853:10222   */\n    tag_53:\n        /* \"#utility.yul\":9994:9998   */\n      0x00\n        /* \"#utility.yul\":10032:10034   */\n      0x20\n        /* \"#utility.yul\":10021:10030   */\n      dup3\n        /* \"#utility.yul\":10017:10035   */\n      add\n        /* \"#utility.yul\":10009:10035   */\n      swap1\n      pop\n        /* \"#utility.yul\":10081:10090   */\n      dup2\n        /* \"#utility.yul\":10075:10079   */\n      dup2\n        /* \"#utility.yul\":10071:10091   */\n      sub\n        /* \"#utility.yul\":10067:10068   */\n      0x00\n        /* \"#utility.yul\":10056:10065   */\n      dup4\n        /* \"#utility.yul\":10052:10069   */\n      add\n        /* \"#utility.yul\":10045:10092   */\n      mstore\n        /* \"#utility.yul\":10109:10215   */\n      tag_330\n        /* \"#utility.yul\":10210:10214   */\n      dup2\n        /* \"#utility.yul\":10201:10207   */\n      dup5\n        /* \"#utility.yul\":10109:10215   */\n      tag_247\n      jump\t// in\n    tag_330:\n        /* \"#utility.yul\":10101:10215   */\n      swap1\n      pop\n        /* \"#utility.yul\":9853:10222   */\n      swap3\n      swap2\n      pop\n      pop\n      jump\t// out\n        /* \"#utility.yul\":10228:10753   */\n    tag_26:\n        /* \"#utility.yul\":10393:10397   */\n      0x00\n        /* \"#utility.yul\":10431:10433   */\n      0x60\n        /* \"#utility.yul\":10420:10429   */\n      dup3\n        /* \"#utility.yul\":10416:10434   */\n      add\n        /* \"#utility.yul\":10408:10434   */\n      swap1\n      pop\n        /* \"#utility.yul\":10480:10489   */\n      dup2\n        /* \"#utility.yul\":10474:10478   */\n      dup2\n        /* \"#utility.yul\":10470:10490   */\n      sub\n        /* \"#utility.yul\":10466:10467   */\n      0x00\n        /* \"#utility.yul\":10455:10464   */\n      dup4\n        /* \"#utility.yul\":10451:10468   */\n      add\n        /* \"#utility.yul\":10444:10491   */\n      mstore\n        /* \"#utility.yul\":10508:10586   */\n      tag_332\n        /* \"#utility.yul\":10581:10585   */\n      dup2\n        /* \"#utility.yul\":10572:10578   */\n      dup7\n        /* \"#utility.yul\":10508:10586   */\n      tag_261\n      jump\t// in\n    tag_332:\n        /* \"#utility.yul\":10500:10586   */\n      swap1\n      pop\n        /* \"#utility.yul\":10596:10666   */\n      tag_333\n        /* \"#utility.yul\":10662:10664   */\n      0x20\n        /* \"#utility.yul\":10651:10660   */\n      dup4\n        /* \"#utility.yul\":10647:10665   */\n      add\n        /* \"#utility.yul\":10638:10644   */\n      dup6\n        /* \"#utility.yul\":10596:10666   */\n      tag_320\n      jump\t// in\n    tag_333:\n        /* \"#utility.yul\":10676:10746   */\n      tag_334\n        /* \"#utility.yul\":10742:10744   */\n      0x40\n        /* \"#utility.yul\":10731:10740   */\n      dup4\n        /* \"#utility.yul\":10727:10745   */\n      add\n        /* \"#utility.yul\":10718:10724   */\n      dup5\n        /* \"#utility.yul\":10676:10746   */\n      tag_320\n      jump\t// in\n    tag_334:\n        /* \"#utility.yul\":10228:10753   */\n      swap5\n      swap4\n      pop\n      pop\n      pop\n      pop\n      jump\t// out\n        /* \"#utility.yul\":10759:11178   */\n    tag_109:\n        /* \"#utility.yul\":10925:10929   */\n      0x00\n        /* \"#utility.yul\":10963:10965   */\n      0x20\n        /* \"#utility.yul\":10952:10961   */\n      dup3\n        /* \"#utility.yul\":10948:10966   */\n      add\n        /* \"#utility.yul\":10940:10966   */\n      swap1\n      pop\n        /* \"#utility.yul\":11012:11021   */\n      dup2\n        /* \"#utility.yul\":11006:11010   */\n      dup2\n        /* \"#utility.yul\":11002:11022   */\n      sub\n        /* \"#utility.yul\":10998:10999   */\n      0x00\n        /* \"#utility.yul\":10987:10996   */\n      dup4\n        /* \"#utility.yul\":10983:11000   */\n      add\n        /* \"#utility.yul\":10976:11023   */\n      mstore\n        /* \"#utility.yul\":11040:11171   */\n      tag_336\n        /* \"#utility.yul\":11166:11170   */\n      dup2\n        /* \"#utility.yul\":11040:11171   */\n      tag_277\n      jump\t// in\n    tag_336:\n        /* \"#utility.yul\":11032:11171   */\n      swap1\n      pop\n        /* \"#utility.yul\":10759:11178   */\n      swap2\n      swap1\n      pop\n      jump\t// out\n        /* \"#utility.yul\":11184:11603   */\n    tag_105:\n        /* \"#utility.yul\":11350:11354   */\n      0x00\n        /* \"#utility.yul\":11388:11390   */\n      0x20\n        /* \"#utility.yul\":11377:11386   */\n      dup3\n        /* \"#utility.yul\":11373:11391   */\n      add\n        /* \"#utility.yul\":11365:11391   */\n      swap1\n      pop\n        /* \"#utility.yul\":11437:11446   */\n      dup2\n        /* \"#utility.yul\":11431:11435   */\n      dup2\n        /* \"#utility.yul\":11427:11447   */\n      sub\n        /* \"#utility.yul\":11423:11424   */\n      0x00\n        /* \"#utility.yul\":11412:11421   */\n      dup4\n        /* \"#utility.yul\":11408:11425   */\n      add\n        /* \"#utility.yul\":11401:11448   */\n      mstore\n        /* \"#utility.yul\":11465:11596   */\n      tag_338\n        /* \"#utility.yul\":11591:11595   */\n      dup2\n        /* \"#utility.yul\":11465:11596   */\n      tag_282\n      jump\t// in\n    tag_338:\n        /* \"#utility.yul\":11457:11596   */\n      swap1\n      pop\n        /* \"#utility.yul\":11184:11603   */\n      swap2\n      swap1\n      pop\n      jump\t// out\n        /* \"#utility.yul\":11609:12028   */\n    tag_67:\n        /* \"#utility.yul\":11775:11779   */\n      0x00\n        /* \"#utility.yul\":11813:11815   */\n      0x20\n        /* \"#utility.yul\":11802:11811   */\n      dup3\n        /* \"#utility.yul\":11798:11816   */\n      add\n        /* \"#utility.yul\":11790:11816   */\n      swap1\n      pop\n        /* \"#utility.yul\":11862:11871   */\n      dup2\n        /* \"#utility.yul\":11856:11860   */\n      dup2\n        /* \"#utility.yul\":11852:11872   */\n      sub\n        /* \"#utility.yul\":11848:11849   */\n      0x00\n        /* \"#utility.yul\":11837:11846   */\n      dup4\n        /* \"#utility.yul\":11833:11850   */\n      add\n        /* \"#utility.yul\":11826:11873   */\n      mstore\n        /* \"#utility.yul\":11890:12021   */\n      tag_340\n        /* \"#utility.yul\":12016:12020   */\n      dup2\n        /* \"#utility.yul\":11890:12021   */\n      tag_287\n      jump\t// in\n    tag_340:\n        /* \"#utility.yul\":11882:12021   */\n      swap1\n      pop\n        /* \"#utility.yul\":11609:12028   */\n      swap2\n      swap1\n      pop\n      jump\t// out\n        /* \"#utility.yul\":12034:12453   */\n    tag_119:\n        /* \"#utility.yul\":12200:12204   */\n      0x00\n        /* \"#utility.yul\":12238:12240   */\n      0x20\n        /* \"#utility.yul\":12227:12236   */\n      dup3\n        /* \"#utility.yul\":12223:12241   */\n      add\n        /* \"#utility.yul\":12215:12241   */\n      swap1\n      pop\n        /* \"#utility.yul\":12287:12296   */\n      dup2\n        /* \"#utility.yul\":12281:12285   */\n      dup2\n        /* \"#utility.yul\":12277:12297   */\n      sub\n        /* \"#utility.yul\":12273:12274   */\n      0x00\n        /* \"#utility.yul\":12262:12271   */\n      dup4\n        /* \"#utility.yul\":12258:12275   */\n      add\n        /* \"#utility.yul\":12251:12298   */\n      mstore\n        /* \"#utility.yul\":12315:12446   */\n      tag_342\n        /* \"#utility.yul\":12441:12445   */\n      dup2\n        /* \"#utility.yul\":12315:12446   */\n      tag_292\n      jump\t// in\n    tag_342:\n        /* \"#utility.yul\":12307:12446   */\n      swap1\n      pop\n        /* \"#utility.yul\":12034:12453   */\n      swap2\n      swap1\n      pop\n      jump\t// out\n        /* \"#utility.yul\":12459:12878   */\n    tag_61:\n        /* \"#utility.yul\":12625:12629   */\n      0x00\n        /* \"#utility.yul\":12663:12665   */\n      0x20\n        /* \"#utility.yul\":12652:12661   */\n      dup3\n        /* \"#utility.yul\":12648:12666   */\n      add\n        /* \"#utility.yul\":12640:12666   */\n      swap1\n      pop\n        /* \"#utility.yul\":12712:12721   */\n      dup2\n        /* \"#utility.yul\":12706:12710   */\n      dup2\n        /* \"#utility.yul\":12702:12722   */\n      sub\n        /* \"#utility.yul\":12698:12699   */\n      0x00\n        /* \"#utility.yul\":12687:12696   */\n      dup4\n        /* \"#utility.yul\":12683:12700   */\n      add\n        /* \"#utility.yul\":12676:12723   */\n      mstore\n        /* \"#utility.yul\":12740:12871   */\n      tag_344\n        /* \"#utility.yul\":12866:12870   */\n      dup2\n        /* \"#utility.yul\":12740:12871   */\n      tag_297\n      jump\t// in\n    tag_344:\n        /* \"#utility.yul\":12732:12871   */\n      swap1\n      pop\n        /* \"#utility.yul\":12459:12878   */\n      swap2\n      swap1\n      pop\n      jump\t// out\n        /* \"#utility.yul\":12884:13303   */\n    tag_158:\n        /* \"#utility.yul\":13050:13054   */\n      0x00\n        /* \"#utility.yul\":13088:13090   */\n      0x20\n        /* \"#utility.yul\":13077:13086   */\n      dup3\n        /* \"#utility.yul\":13073:13091   */\n      add\n        /* \"#utility.yul\":13065:13091   */\n      swap1\n      pop\n        /* \"#utility.yul\":13137:13146   */\n      dup2\n        /* \"#utility.yul\":13131:13135   */\n      dup2\n        /* \"#utility.yul\":13127:13147   */\n      sub\n        /* \"#utility.yul\":13123:13124   */\n      0x00\n        /* \"#utility.yul\":13112:13121   */\n      dup4\n        /* \"#utility.yul\":13108:13125   */\n      add\n        /* \"#utility.yul\":13101:13148   */\n      mstore\n        /* \"#utility.yul\":13165:13296   */\n      tag_346\n        /* \"#utility.yul\":13291:13295   */\n      dup2\n        /* \"#utility.yul\":13165:13296   */\n      tag_302\n      jump\t// in\n    tag_346:\n        /* \"#utility.yul\":13157:13296   */\n      swap1\n      pop\n        /* \"#utility.yul\":12884:13303   */\n      swap2\n      swap1\n      pop\n      jump\t// out\n        /* \"#utility.yul\":13309:13728   */\n    tag_146:\n        /* \"#utility.yul\":13475:13479   */\n      0x00\n        /* \"#utility.yul\":13513:13515   */\n      0x20\n        /* \"#utility.yul\":13502:13511   */\n      dup3\n        /* \"#utility.yul\":13498:13516   */\n      add\n        /* \"#utility.yul\":13490:13516   */\n      swap1\n      pop\n        /* \"#utility.yul\":13562:13571   */\n      dup2\n        /* \"#utility.yul\":13556:13560   */\n      dup2\n        /* \"#utility.yul\":13552:13572   */\n      sub\n        /* \"#utility.yul\":13548:13549   */\n      0x00\n        /* \"#utility.yul\":13537:13546   */\n      dup4\n        /* \"#utility.yul\":13533:13550   */\n      add\n        /* \"#utility.yul\":13526:13573   */\n      mstore\n        /* \"#utility.yul\":13590:13721   */\n      tag_348\n        /* \"#utility.yul\":13716:13720   */\n      dup2\n        /* \"#utility.yul\":13590:13721   */\n      tag_307\n      jump\t// in\n    tag_348:\n        /* \"#utility.yul\":13582:13721   */\n      swap1\n      pop\n        /* \"#utility.yul\":13309:13728   */\n      swap2\n      swap1\n      pop\n      jump\t// out\n        /* \"#utility.yul\":13734:14153   */\n    tag_150:\n        /* \"#utility.yul\":13900:13904   */\n      0x00\n        /* \"#utility.yul\":13938:13940   */\n      0x20\n        /* \"#utility.yul\":13927:13936   */\n      dup3\n        /* \"#utility.yul\":13923:13941   */\n      add\n        /* \"#utility.yul\":13915:13941   */\n      swap1\n      pop\n        /* \"#utility.yul\":13987:13996   */\n      dup2\n        /* \"#utility.yul\":13981:13985   */\n      dup2\n        /* \"#utility.yul\":13977:13997   */\n      sub\n        /* \"#utility.yul\":13973:13974   */\n      0x00\n        /* \"#utility.yul\":13962:13971   */\n      dup4\n        /* \"#utility.yul\":13958:13975   */\n      add\n        /* \"#utility.yul\":13951:13998   */\n      mstore\n        /* \"#utility.yul\":14015:14146   */\n      tag_350\n        /* \"#utility.yul\":14141:14145   */\n      dup2\n        /* \"#utility.yul\":14015:14146   */\n      tag_312\n      jump\t// in\n    tag_350:\n        /* \"#utility.yul\":14007:14146   */\n      swap1\n      pop\n        /* \"#utility.yul\":13734:14153   */\n      swap2\n      swap1\n      pop\n      jump\t// out\n        /* \"#utility.yul\":14159:14377   */\n    tag_41:\n        /* \"#utility.yul\":14250:14254   */\n      0x00\n        /* \"#utility.yul\":14288:14290   */\n      0x20\n        /* \"#utility.yul\":14277:14286   */\n      dup3\n        /* \"#utility.yul\":14273:14291   */\n      add\n        /* \"#utility.yul\":14265:14291   */\n      swap1\n      pop\n        /* \"#utility.yul\":14301:14370   */\n      tag_352\n        /* \"#utility.yul\":14367:14368   */\n      0x00\n        /* \"#utility.yul\":14356:14365   */\n      dup4\n        /* \"#utility.yul\":14352:14369   */\n      add\n        /* \"#utility.yul\":14343:14349   */\n      dup5\n        /* \"#utility.yul\":14301:14370   */\n      tag_320\n      jump\t// in\n    tag_352:\n        /* \"#utility.yul\":14159:14377   */\n      swap3\n      swap2\n      pop\n      pop\n      jump\t// out\n        /* \"#utility.yul\":14383:14512   */\n    tag_177:\n        /* \"#utility.yul\":14417:14423   */\n      0x00\n        /* \"#utility.yul\":14444:14464   */\n      tag_354\n      tag_355\n      jump\t// in\n    tag_354:\n        /* \"#utility.yul\":14434:14464   */\n      swap1\n      pop\n        /* \"#utility.yul\":14473:14506   */\n      tag_356\n        /* \"#utility.yul\":14501:14505   */\n      dup3\n        /* \"#utility.yul\":14493:14499   */\n      dup3\n        /* \"#utility.yul\":14473:14506   */\n      tag_357\n      jump\t// in\n    tag_356:\n        /* \"#utility.yul\":14383:14512   */\n      swap2\n      swap1\n      pop\n      jump\t// out\n        /* \"#utility.yul\":14518:14593   */\n    tag_355:\n        /* \"#utility.yul\":14551:14557   */\n      0x00\n        /* \"#utility.yul\":14584:14586   */\n      0x40\n        /* \"#utility.yul\":14578:14587   */\n      mload\n        /* \"#utility.yul\":14568:14587   */\n      swap1\n      pop\n        /* \"#utility.yul\":14518:14593   */\n      swap1\n      jump\t// out\n        /* \"#utility.yul\":14599:14907   */\n    tag_176:\n        /* \"#utility.yul\":14661:14665   */\n      0x00\n        /* \"#utility.yul\":14751:14769   */\n      0xffffffffffffffff\n        /* \"#utility.yul\":14743:14749   */\n      dup3\n        /* \"#utility.yul\":14740:14770   */\n      gt\n        /* \"#utility.yul\":14737:14793   */\n      iszero\n      tag_360\n      jumpi\n        /* \"#utility.yul\":14773:14791   */\n      tag_361\n      tag_87\n      jump\t// in\n    tag_361:\n        /* \"#utility.yul\":14737:14793   */\n    tag_360:\n        /* \"#utility.yul\":14811:14840   */\n      tag_362\n        /* \"#utility.yul\":14833:14839   */\n      dup3\n        /* \"#utility.yul\":14811:14840   */\n      tag_270\n      jump\t// in\n    tag_362:\n        /* \"#utility.yul\":14803:14840   */\n      swap1\n      pop\n        /* \"#utility.yul\":14895:14899   */\n      0x20\n        /* \"#utility.yul\":14889:14893   */\n      dup2\n        /* \"#utility.yul\":14885:14900   */\n      add\n        /* \"#utility.yul\":14877:14900   */\n      swap1\n      pop\n        /* \"#utility.yul\":14599:14907   */\n      swap2\n      swap1\n      pop\n      jump\t// out\n        /* \"#utility.yul\":14913:15045   */\n    tag_240:\n        /* \"#utility.yul\":14980:14984   */\n      0x00\n        /* \"#utility.yul\":15003:15006   */\n      dup2\n        /* \"#utility.yul\":14995:15006   */\n      swap1\n      pop\n        /* \"#utility.yul\":15033:15037   */\n      0x20\n        /* \"#utility.yul\":15028:15031   */\n      dup3\n        /* \"#utility.yul\":15024:15038   */\n      add\n        /* \"#utility.yul\":15016:15038   */\n      swap1\n      pop\n        /* \"#utility.yul\":14913:15045   */\n      swap2\n      swap1\n      pop\n      jump\t// out\n        /* \"#utility.yul\":15051:15182   */\n    tag_254:\n        /* \"#utility.yul\":15117:15121   */\n      0x00\n        /* \"#utility.yul\":15140:15143   */\n      dup2\n        /* \"#utility.yul\":15132:15143   */\n      swap1\n      pop\n        /* \"#utility.yul\":15170:15174   */\n      0x20\n        /* \"#utility.yul\":15165:15168   */\n      dup3\n        /* \"#utility.yul\":15161:15175   */\n      add\n        /* \"#utility.yul\":15153:15175   */\n      swap1\n      pop\n        /* \"#utility.yul\":15051:15182   */\n      swap2\n      swap1\n      pop\n      jump\t// out\n        /* \"#utility.yul\":15188:15302   */\n    tag_236:\n        /* \"#utility.yul\":15255:15261   */\n      0x00\n        /* \"#utility.yul\":15289:15294   */\n      dup2\n        /* \"#utility.yul\":15283:15295   */\n      mload\n        /* \"#utility.yul\":15273:15295   */\n      swap1\n      pop\n        /* \"#utility.yul\":15188:15302   */\n      swap2\n      swap1\n      pop\n      jump\t// out\n        /* \"#utility.yul\":15308:15421   */\n    tag_250:\n        /* \"#utility.yul\":15374:15380   */\n      0x00\n        /* \"#utility.yul\":15408:15413   */\n      dup2\n        /* \"#utility.yul\":15402:15414   */\n      mload\n        /* \"#utility.yul\":15392:15414   */\n      swap1\n      pop\n        /* \"#utility.yul\":15308:15421   */\n      swap2\n      swap1\n      pop\n      jump\t// out\n        /* \"#utility.yul\":15427:15526   */\n    tag_264:\n        /* \"#utility.yul\":15479:15485   */\n      0x00\n        /* \"#utility.yul\":15513:15518   */\n      dup2\n        /* \"#utility.yul\":15507:15519   */\n      mload\n        /* \"#utility.yul\":15497:15519   */\n      swap1\n      pop\n        /* \"#utility.yul\":15427:15526   */\n      swap2\n      swap1\n      pop\n      jump\t// out\n        /* \"#utility.yul\":15532:15645   */\n    tag_246:\n        /* \"#utility.yul\":15602:15606   */\n      0x00\n        /* \"#utility.yul\":15634:15638   */\n      0x20\n        /* \"#utility.yul\":15629:15632   */\n      dup3\n        /* \"#utility.yul\":15625:15639   */\n      add\n        /* \"#utility.yul\":15617:15639   */\n      swap1\n      pop\n        /* \"#utility.yul\":15532:15645   */\n      swap2\n      swap1\n      pop\n      jump\t// out\n        /* \"#utility.yul\":15651:15763   */\n    tag_260:\n        /* \"#utility.yul\":15720:15724   */\n      0x00\n        /* \"#utility.yul\":15752:15756   */\n      0x20\n        /* \"#utility.yul\":15747:15750   */\n      dup3\n        /* \"#utility.yul\":15743:15757   */\n      add\n        /* \"#utility.yul\":15735:15757   */\n      swap1\n      pop\n        /* \"#utility.yul\":15651:15763   */\n      swap2\n      swap1\n      pop\n      jump\t// out\n        /* \"#utility.yul\":15769:15953   */\n    tag_238:\n        /* \"#utility.yul\":15868:15879   */\n      0x00\n        /* \"#utility.yul\":15902:15908   */\n      dup3\n        /* \"#utility.yul\":15897:15900   */\n      dup3\n        /* \"#utility.yul\":15890:15909   */\n      mstore\n        /* \"#utility.yul\":15942:15946   */\n      0x20\n        /* \"#utility.yul\":15937:15940   */\n      dup3\n        /* \"#utility.yul\":15933:15947   */\n      add\n        /* \"#utility.yul\":15918:15947   */\n      swap1\n      pop\n        /* \"#utility.yul\":15769:15953   */\n      swap3\n      swap2\n      pop\n      pop\n      jump\t// out\n        /* \"#utility.yul\":15959:16142   */\n    tag_252:\n        /* \"#utility.yul\":16057:16068   */\n      0x00\n        /* \"#utility.yul\":16091:16097   */\n      dup3\n        /* \"#utility.yul\":16086:16089   */\n      dup3\n        /* \"#utility.yul\":16079:16098   */\n      mstore\n        /* \"#utility.yul\":16131:16135   */\n      0x20\n        /* \"#utility.yul\":16126:16129   */\n      dup3\n        /* \"#utility.yul\":16122:16136   */\n      add\n        /* \"#utility.yul\":16107:16136   */\n      swap1\n      pop\n        /* \"#utility.yul\":15959:16142   */\n      swap3\n      swap2\n      pop\n      pop\n      jump\t// out\n        /* \"#utility.yul\":16148:16317   */\n    tag_266:\n        /* \"#utility.yul\":16232:16243   */\n      0x00\n        /* \"#utility.yul\":16266:16272   */\n      dup3\n        /* \"#utility.yul\":16261:16264   */\n      dup3\n        /* \"#utility.yul\":16254:16273   */\n      mstore\n        /* \"#utility.yul\":16306:16310   */\n      0x20\n        /* \"#utility.yul\":16301:16304   */\n      dup3\n        /* \"#utility.yul\":16297:16311   */\n      add\n        /* \"#utility.yul\":16282:16311   */\n      swap1\n      pop\n        /* \"#utility.yul\":16148:16317   */\n      swap3\n      swap2\n      pop\n      pop\n      jump\t// out\n        /* \"#utility.yul\":16323:16471   */\n    tag_275:\n        /* \"#utility.yul\":16425:16436   */\n      0x00\n        /* \"#utility.yul\":16462:16465   */\n      dup2\n        /* \"#utility.yul\":16447:16465   */\n      swap1\n      pop\n        /* \"#utility.yul\":16323:16471   */\n      swap3\n      swap2\n      pop\n      pop\n      jump\t// out\n        /* \"#utility.yul\":16477:16723   */\n    tag_63:\n        /* \"#utility.yul\":16516:16519   */\n      0x00\n        /* \"#utility.yul\":16535:16554   */\n      tag_375\n        /* \"#utility.yul\":16552:16553   */\n      dup3\n        /* \"#utility.yul\":16535:16554   */\n      tag_319\n      jump\t// in\n    tag_375:\n        /* \"#utility.yul\":16530:16554   */\n      swap2\n      pop\n        /* \"#utility.yul\":16568:16587   */\n      tag_376\n        /* \"#utility.yul\":16585:16586   */\n      dup4\n        /* \"#utility.yul\":16568:16587   */\n      tag_319\n      jump\t// in\n    tag_376:\n        /* \"#utility.yul\":16563:16587   */\n      swap3\n      pop\n        /* \"#utility.yul\":16665:16666   */\n      dup3\n        /* \"#utility.yul\":16653:16663   */\n      0xffffffff\n        /* \"#utility.yul\":16649:16667   */\n      sub\n        /* \"#utility.yul\":16646:16647   */\n      dup3\n        /* \"#utility.yul\":16643:16668   */\n      gt\n        /* \"#utility.yul\":16640:16691   */\n      iszero\n      tag_377\n      jumpi\n        /* \"#utility.yul\":16671:16689   */\n      tag_378\n      tag_379\n      jump\t// in\n    tag_378:\n        /* \"#utility.yul\":16640:16691   */\n    tag_377:\n        /* \"#utility.yul\":16715:16716   */\n      dup3\n        /* \"#utility.yul\":16712:16713   */\n      dup3\n        /* \"#utility.yul\":16708:16717   */\n      add\n        /* \"#utility.yul\":16701:16717   */\n      swap1\n      pop\n        /* \"#utility.yul\":16477:16723   */\n      swap3\n      swap2\n      pop\n      pop\n      jump\t// out\n        /* \"#utility.yul\":16729:16917   */\n    tag_70:\n        /* \"#utility.yul\":16768:16772   */\n      0x00\n        /* \"#utility.yul\":16788:16807   */\n      tag_381\n        /* \"#utility.yul\":16805:16806   */\n      dup3\n        /* \"#utility.yul\":16788:16807   */\n      tag_319\n      jump\t// in\n    tag_381:\n        /* \"#utility.yul\":16783:16807   */\n      swap2\n      pop\n        /* \"#utility.yul\":16821:16840   */\n      tag_382\n        /* \"#utility.yul\":16838:16839   */\n      dup4\n        /* \"#utility.yul\":16821:16840   */\n      tag_319\n      jump\t// in\n    tag_382:\n        /* \"#utility.yul\":16816:16840   */\n      swap3\n      pop\n        /* \"#utility.yul\":16859:16860   */\n      dup3\n        /* \"#utility.yul\":16856:16857   */\n      dup3\n        /* \"#utility.yul\":16853:16861   */\n      lt\n        /* \"#utility.yul\":16850:16884   */\n      iszero\n      tag_383\n      jumpi\n        /* \"#utility.yul\":16864:16882   */\n      tag_384\n      tag_379\n      jump\t// in\n    tag_384:\n        /* \"#utility.yul\":16850:16884   */\n    tag_383:\n        /* \"#utility.yul\":16909:16910   */\n      dup3\n        /* \"#utility.yul\":16906:16907   */\n      dup3\n        /* \"#utility.yul\":16902:16911   */\n      sub\n        /* \"#utility.yul\":16894:16911   */\n      swap1\n      pop\n        /* \"#utility.yul\":16729:16917   */\n      swap3\n      swap2\n      pop\n      pop\n      jump\t// out\n        /* \"#utility.yul\":16923:17019   */\n    tag_229:\n        /* \"#utility.yul\":16960:16967   */\n      0x00\n        /* \"#utility.yul\":16989:17013   */\n      tag_386\n        /* \"#utility.yul\":17007:17012   */\n      dup3\n        /* \"#utility.yul\":16989:17013   */\n      tag_387\n      jump\t// in\n    tag_386:\n        /* \"#utility.yul\":16978:17013   */\n      swap1\n      pop\n        /* \"#utility.yul\":16923:17019   */\n      swap2\n      swap1\n      pop\n      jump\t// out\n        /* \"#utility.yul\":17025:17151   */\n    tag_387:\n        /* \"#utility.yul\":17062:17069   */\n      0x00\n        /* \"#utility.yul\":17102:17144   */\n      0xffffffffffffffffffffffffffffffffffffffff\n        /* \"#utility.yul\":17095:17100   */\n      dup3\n        /* \"#utility.yul\":17091:17145   */\n      and\n        /* \"#utility.yul\":17080:17145   */\n      swap1\n      pop\n        /* \"#utility.yul\":17025:17151   */\n      swap2\n      swap1\n      pop\n      jump\t// out\n        /* \"#utility.yul\":17157:17250   */\n    tag_319:\n        /* \"#utility.yul\":17193:17200   */\n      0x00\n        /* \"#utility.yul\":17233:17243   */\n      0xffffffff\n        /* \"#utility.yul\":17226:17231   */\n      dup3\n        /* \"#utility.yul\":17222:17244   */\n      and\n        /* \"#utility.yul\":17211:17244   */\n      swap1\n      pop\n        /* \"#utility.yul\":17157:17250   */\n      swap2\n      swap1\n      pop\n      jump\t// out\n        /* \"#utility.yul\":17256:17410   */\n    tag_182:\n        /* \"#utility.yul\":17340:17346   */\n      dup3\n        /* \"#utility.yul\":17335:17338   */\n      dup2\n        /* \"#utility.yul\":17330:17333   */\n      dup4\n        /* \"#utility.yul\":17317:17347   */\n      calldatacopy\n        /* \"#utility.yul\":17402:17403   */\n      0x00\n        /* \"#utility.yul\":17393:17399   */\n      dup4\n        /* \"#utility.yul\":17388:17391   */\n      dup4\n        /* \"#utility.yul\":17384:17400   */\n      add\n        /* \"#utility.yul\":17377:17404   */\n      mstore\n        /* \"#utility.yul\":17256:17410   */\n      pop\n      pop\n      pop\n      jump\t// out\n        /* \"#utility.yul\":17416:17723   */\n    tag_268:\n        /* \"#utility.yul\":17484:17485   */\n      0x00\n        /* \"#utility.yul\":17494:17607   */\n    tag_392:\n        /* \"#utility.yul\":17508:17514   */\n      dup4\n        /* \"#utility.yul\":17505:17506   */\n      dup2\n        /* \"#utility.yul\":17502:17515   */\n      lt\n        /* \"#utility.yul\":17494:17607   */\n      iszero\n      tag_394\n      jumpi\n        /* \"#utility.yul\":17593:17594   */\n      dup1\n        /* \"#utility.yul\":17588:17591   */\n      dup3\n        /* \"#utility.yul\":17584:17595   */\n      add\n        /* \"#utility.yul\":17578:17596   */\n      mload\n        /* \"#utility.yul\":17574:17575   */\n      dup2\n        /* \"#utility.yul\":17569:17572   */\n      dup5\n        /* \"#utility.yul\":17565:17576   */\n      add\n        /* \"#utility.yul\":17558:17597   */\n      mstore\n        /* \"#utility.yul\":17530:17532   */\n      0x20\n        /* \"#utility.yul\":17527:17528   */\n      dup2\n        /* \"#utility.yul\":17523:17533   */\n      add\n        /* \"#utility.yul\":17518:17533   */\n      swap1\n      pop\n        /* \"#utility.yul\":17494:17607   */\n      jump(tag_392)\n    tag_394:\n        /* \"#utility.yul\":17625:17631   */\n      dup4\n        /* \"#utility.yul\":17622:17623   */\n      dup2\n        /* \"#utility.yul\":17619:17632   */\n      gt\n        /* \"#utility.yul\":17616:17717   */\n      iszero\n      tag_395\n      jumpi\n        /* \"#utility.yul\":17705:17706   */\n      0x00\n        /* \"#utility.yul\":17696:17702   */\n      dup5\n        /* \"#utility.yul\":17691:17694   */\n      dup5\n        /* \"#utility.yul\":17687:17703   */\n      add\n        /* \"#utility.yul\":17680:17707   */\n      mstore\n        /* \"#utility.yul\":17616:17717   */\n    tag_395:\n        /* \"#utility.yul\":17465:17723   */\n      pop\n        /* \"#utility.yul\":17416:17723   */\n      pop\n      pop\n      pop\n      jump\t// out\n        /* \"#utility.yul\":17729:18049   */\n    tag_73:\n        /* \"#utility.yul\":17773:17779   */\n      0x00\n        /* \"#utility.yul\":17810:17811   */\n      0x02\n        /* \"#utility.yul\":17804:17808   */\n      dup3\n        /* \"#utility.yul\":17800:17812   */\n      div\n        /* \"#utility.yul\":17790:17812   */\n      swap1\n      pop\n        /* \"#utility.yul\":17857:17858   */\n      0x01\n        /* \"#utility.yul\":17851:17855   */\n      dup3\n        /* \"#utility.yul\":17847:17859   */\n      and\n        /* \"#utility.yul\":17878:17896   */\n      dup1\n        /* \"#utility.yul\":17868:17949   */\n      tag_397\n      jumpi\n        /* \"#utility.yul\":17934:17938   */\n      0x7f\n        /* \"#utility.yul\":17926:17932   */\n      dup3\n        /* \"#utility.yul\":17922:17939   */\n      and\n        /* \"#utility.yul\":17912:17939   */\n      swap2\n      pop\n        /* \"#utility.yul\":17868:17949   */\n    tag_397:\n        /* \"#utility.yul\":17996:17998   */\n      0x20\n        /* \"#utility.yul\":17988:17994   */\n      dup3\n        /* \"#utility.yul\":17985:17999   */\n      lt\n        /* \"#utility.yul\":17965:17983   */\n      dup2\n        /* \"#utility.yul\":17962:18000   */\n      eq\n        /* \"#utility.yul\":17959:18043   */\n      iszero\n      tag_398\n      jumpi\n        /* \"#utility.yul\":18015:18033   */\n      tag_399\n      tag_400\n      jump\t// in\n    tag_399:\n        /* \"#utility.yul\":17959:18043   */\n    tag_398:\n        /* \"#utility.yul\":17780:18049   */\n      pop\n        /* \"#utility.yul\":17729:18049   */\n      swap2\n      swap1\n      pop\n      jump\t// out\n        /* \"#utility.yul\":18055:18336   */\n    tag_357:\n        /* \"#utility.yul\":18138:18165   */\n      tag_402\n        /* \"#utility.yul\":18160:18164   */\n      dup3\n        /* \"#utility.yul\":18138:18165   */\n      tag_270\n      jump\t// in\n    tag_402:\n        /* \"#utility.yul\":18130:18136   */\n      dup2\n        /* \"#utility.yul\":18126:18166   */\n      add\n        /* \"#utility.yul\":18268:18274   */\n      dup2\n        /* \"#utility.yul\":18256:18266   */\n      dup2\n        /* \"#utility.yul\":18253:18275   */\n      lt\n        /* \"#utility.yul\":18232:18250   */\n      0xffffffffffffffff\n        /* \"#utility.yul\":18220:18230   */\n      dup3\n        /* \"#utility.yul\":18217:18251   */\n      gt\n        /* \"#utility.yul\":18214:18276   */\n      or\n        /* \"#utility.yul\":18211:18299   */\n      iszero\n      tag_403\n      jumpi\n        /* \"#utility.yul\":18279:18297   */\n      tag_404\n      tag_87\n      jump\t// in\n    tag_404:\n        /* \"#utility.yul\":18211:18299   */\n    tag_403:\n        /* \"#utility.yul\":18319:18329   */\n      dup1\n        /* \"#utility.yul\":18315:18317   */\n      0x40\n        /* \"#utility.yul\":18308:18330   */\n      mstore\n        /* \"#utility.yul\":18098:18336   */\n      pop\n        /* \"#utility.yul\":18055:18336   */\n      pop\n      pop\n      jump\t// out\n        /* \"#utility.yul\":18342:18517   */\n    tag_96:\n        /* \"#utility.yul\":18380:18383   */\n      0x00\n        /* \"#utility.yul\":18403:18426   */\n      tag_406\n        /* \"#utility.yul\":18420:18425   */\n      dup3\n        /* \"#utility.yul\":18403:18426   */\n      tag_319\n      jump\t// in\n    tag_406:\n        /* \"#utility.yul\":18394:18426   */\n      swap2\n      pop\n        /* \"#utility.yul\":18448:18458   */\n      0xffffffff\n        /* \"#utility.yul\":18441:18446   */\n      dup3\n        /* \"#utility.yul\":18438:18459   */\n      eq\n        /* \"#utility.yul\":18435:18482   */\n      iszero\n      tag_407\n      jumpi\n        /* \"#utility.yul\":18462:18480   */\n      tag_408\n      tag_379\n      jump\t// in\n    tag_408:\n        /* \"#utility.yul\":18435:18482   */\n    tag_407:\n        /* \"#utility.yul\":18509:18510   */\n      0x01\n        /* \"#utility.yul\":18502:18507   */\n      dup3\n        /* \"#utility.yul\":18498:18511   */\n      add\n        /* \"#utility.yul\":18491:18511   */\n      swap1\n      pop\n        /* \"#utility.yul\":18342:18517   */\n      swap2\n      swap1\n      pop\n      jump\t// out\n        /* \"#utility.yul\":18523:18703   */\n    tag_379:\n        /* \"#utility.yul\":18571:18648   */\n      0x4e487b7100000000000000000000000000000000000000000000000000000000\n        /* \"#utility.yul\":18568:18569   */\n      0x00\n        /* \"#utility.yul\":18561:18649   */\n      mstore\n        /* \"#utility.yul\":18668:18672   */\n      0x11\n        /* \"#utility.yul\":18665:18666   */\n      0x04\n        /* \"#utility.yul\":18658:18673   */\n      mstore\n        /* \"#utility.yul\":18692:18696   */\n      0x24\n        /* \"#utility.yul\":18689:18690   */\n      0x00\n        /* \"#utility.yul\":18682:18697   */\n      revert\n        /* \"#utility.yul\":18709:18889   */\n    tag_400:\n        /* \"#utility.yul\":18757:18834   */\n      0x4e487b7100000000000000000000000000000000000000000000000000000000\n        /* \"#utility.yul\":18754:18755   */\n      0x00\n        /* \"#utility.yul\":18747:18835   */\n      mstore\n        /* \"#utility.yul\":18854:18858   */\n      0x22\n        /* \"#utility.yul\":18851:18852   */\n      0x04\n        /* \"#utility.yul\":18844:18859   */\n      mstore\n        /* \"#utility.yul\":18878:18882   */\n      0x24\n        /* \"#utility.yul\":18875:18876   */\n      0x00\n        /* \"#utility.yul\":18868:18883   */\n      revert\n        /* \"#utility.yul\":18895:19075   */\n    tag_94:\n        /* \"#utility.yul\":18943:19020   */\n      0x4e487b7100000000000000000000000000000000000000000000000000000000\n        /* \"#utility.yul\":18940:18941   */\n      0x00\n        /* \"#utility.yul\":18933:19021   */\n      mstore\n        /* \"#utility.yul\":19040:19044   */\n      0x32\n        /* \"#utility.yul\":19037:19038   */\n      0x04\n        /* \"#utility.yul\":19030:19045   */\n      mstore\n        /* \"#utility.yul\":19064:19068   */\n      0x24\n        /* \"#utility.yul\":19061:19062   */\n      0x00\n        /* \"#utility.yul\":19054:19069   */\n      revert\n        /* \"#utility.yul\":19081:19261   */\n    tag_87:\n        /* \"#utility.yul\":19129:19206   */\n      0x4e487b7100000000000000000000000000000000000000000000000000000000\n        /* \"#utility.yul\":19126:19127   */\n      0x00\n        /* \"#utility.yul\":19119:19207   */\n      mstore\n        /* \"#utility.yul\":19226:19230   */\n      0x41\n        /* \"#utility.yul\":19223:19224   */\n      0x04\n        /* \"#utility.yul\":19216:19231   */\n      mstore\n        /* \"#utility.yul\":19250:19254   */\n      0x24\n        /* \"#utility.yul\":19247:19248   */\n      0x00\n        /* \"#utility.yul\":19240:19255   */\n      revert\n        /* \"#utility.yul\":19267:19384   */\n    tag_191:\n        /* \"#utility.yul\":19376:19377   */\n      0x00\n        /* \"#utility.yul\":19373:19374   */\n      dup1\n        /* \"#utility.yul\":19366:19378   */\n      revert\n        /* \"#utility.yul\":19390:19507   */\n    tag_180:\n        /* \"#utility.yul\":19499:19500   */\n      0x00\n        /* \"#utility.yul\":19496:19497   */\n      dup1\n        /* \"#utility.yul\":19489:19501   */\n      revert\n        /* \"#utility.yul\":19513:19630   */\n    tag_207:\n        /* \"#utility.yul\":19622:19623   */\n      0x00\n        /* \"#utility.yul\":19619:19620   */\n      dup1\n        /* \"#utility.yul\":19612:19624   */\n      revert\n        /* \"#utility.yul\":19636:19753   */\n    tag_200:\n        /* \"#utility.yul\":19745:19746   */\n      0x00\n        /* \"#utility.yul\":19742:19743   */\n      dup1\n        /* \"#utility.yul\":19735:19747   */\n      revert\n        /* \"#utility.yul\":19759:19861   */\n    tag_270:\n        /* \"#utility.yul\":19800:19806   */\n      0x00\n        /* \"#utility.yul\":19851:19853   */\n      0x1f\n        /* \"#utility.yul\":19847:19854   */\n      not\n        /* \"#utility.yul\":19842:19844   */\n      0x1f\n        /* \"#utility.yul\":19835:19840   */\n      dup4\n        /* \"#utility.yul\":19831:19845   */\n      add\n        /* \"#utility.yul\":19827:19855   */\n      and\n        /* \"#utility.yul\":19817:19855   */\n      swap1\n      pop\n        /* \"#utility.yul\":19759:19861   */\n      swap2\n      swap1\n      pop\n      jump\t// out\n        /* \"#utility.yul\":19867:20037   */\n    tag_281:\n        /* \"#utility.yul\":20007:20029   */\n      0x4e616d652063616e6e6f7420626520656d707479000000000000000000000000\n        /* \"#utility.yul\":20003:20004   */\n      0x00\n        /* \"#utility.yul\":19995:20001   */\n      dup3\n        /* \"#utility.yul\":19991:20005   */\n      add\n        /* \"#utility.yul\":19984:20030   */\n      mstore\n        /* \"#utility.yul\":19867:20037   */\n      pop\n      jump\t// out\n        /* \"#utility.yul\":20043:20210   */\n    tag_286:\n        /* \"#utility.yul\":20183:20202   */\n      0x426f6f6b20697320617661696c61626c65000000000000000000000000000000\n        /* \"#utility.yul\":20179:20180   */\n      0x00\n        /* \"#utility.yul\":20171:20177   */\n      dup3\n        /* \"#utility.yul\":20167:20181   */\n      add\n        /* \"#utility.yul\":20160:20203   */\n      mstore\n        /* \"#utility.yul\":20043:20210   */\n      pop\n      jump\t// out\n        /* \"#utility.yul\":20216:20388   */\n    tag_291:\n        /* \"#utility.yul\":20356:20380   */\n      0x426f6f6b20697320616c72656164792069737375656400000000000000000000\n        /* \"#utility.yul\":20352:20353   */\n      0x00\n        /* \"#utility.yul\":20344:20350   */\n      dup3\n        /* \"#utility.yul\":20340:20354   */\n      add\n        /* \"#utility.yul\":20333:20381   */\n      mstore\n        /* \"#utility.yul\":20216:20388   */\n      pop\n      jump\t// out\n        /* \"#utility.yul\":20394:20619   */\n    tag_296:\n        /* \"#utility.yul\":20534:20568   */\n      0x4f776e61626c653a206e6577206f776e657220697320746865207a65726f2061\n        /* \"#utility.yul\":20530:20531   */\n      0x00\n        /* \"#utility.yul\":20522:20528   */\n      dup3\n        /* \"#utility.yul\":20518:20532   */\n      add\n        /* \"#utility.yul\":20511:20569   */\n      mstore\n        /* \"#utility.yul\":20603:20611   */\n      0x6464726573730000000000000000000000000000000000000000000000000000\n        /* \"#utility.yul\":20598:20600   */\n      0x20\n        /* \"#utility.yul\":20590:20596   */\n      dup3\n        /* \"#utility.yul\":20586:20601   */\n      add\n        /* \"#utility.yul\":20579:20612   */\n      mstore\n        /* \"#utility.yul\":20394:20619   */\n      pop\n      jump\t// out\n        /* \"#utility.yul\":20625:20793   */\n    tag_301:\n        /* \"#utility.yul\":20765:20785   */\n      0x426f6f6b206973206e6f74206973737565640000000000000000000000000000\n        /* \"#utility.yul\":20761:20762   */\n      0x00\n        /* \"#utility.yul\":20753:20759   */\n      dup3\n        /* \"#utility.yul\":20749:20763   */\n      add\n        /* \"#utility.yul\":20742:20786   */\n      mstore\n        /* \"#utility.yul\":20625:20793   */\n      pop\n      jump\t// out\n        /* \"#utility.yul\":20799:20981   */\n    tag_306:\n        /* \"#utility.yul\":20939:20973   */\n      0x4f776e61626c653a2063616c6c6572206973206e6f7420746865206f776e6572\n        /* \"#utility.yul\":20935:20936   */\n      0x00\n        /* \"#utility.yul\":20927:20933   */\n      dup3\n        /* \"#utility.yul\":20923:20937   */\n      add\n        /* \"#utility.yul\":20916:20974   */\n      mstore\n        /* \"#utility.yul\":20799:20981   */\n      pop\n      jump\t// out\n        /* \"#utility.yul\":20987:21142   */\n    tag_311:\n        /* \"#utility.yul\":21127:21134   */\n      0x217a65726f000000000000000000000000000000000000000000000000000000\n        /* \"#utility.yul\":21123:21124   */\n      0x00\n        /* \"#utility.yul\":21115:21121   */\n      dup3\n        /* \"#utility.yul\":21111:21125   */\n      add\n        /* \"#utility.yul\":21104:21135   */\n      mstore\n        /* \"#utility.yul\":20987:21142   */\n      pop\n      jump\t// out\n        /* \"#utility.yul\":21148:21317   */\n    tag_316:\n        /* \"#utility.yul\":21288:21309   */\n      0x426f6f6b20646f6573206e6f7420657869737400000000000000000000000000\n        /* \"#utility.yul\":21284:21285   */\n      0x00\n        /* \"#utility.yul\":21276:21282   */\n      dup3\n        /* \"#utility.yul\":21272:21286   */\n      add\n        /* \"#utility.yul\":21265:21310   */\n      mstore\n        /* \"#utility.yul\":21148:21317   */\n      pop\n      jump\t// out\n        /* \"#utility.yul\":21323:21445   */\n    tag_186:\n        /* \"#utility.yul\":21396:21420   */\n      tag_427\n        /* \"#utility.yul\":21414:21419   */\n      dup2\n        /* \"#utility.yul\":21396:21420   */\n      tag_229\n      jump\t// in\n    tag_427:\n        /* \"#utility.yul\":21389:21394   */\n      dup2\n        /* \"#utility.yul\":21386:21421   */\n      eq\n        /* \"#utility.yul\":21376:21439   */\n      tag_428\n      jumpi\n        /* \"#utility.yul\":21435:21436   */\n      0x00\n        /* \"#utility.yul\":21432:21433   */\n      dup1\n        /* \"#utility.yul\":21425:21437   */\n      revert\n        /* \"#utility.yul\":21376:21439   */\n    tag_428:\n        /* \"#utility.yul\":21323:21445   */\n      pop\n      jump\t// out\n        /* \"#utility.yul\":21451:21571   */\n    tag_196:\n        /* \"#utility.yul\":21523:21546   */\n      tag_430\n        /* \"#utility.yul\":21540:21545   */\n      dup2\n        /* \"#utility.yul\":21523:21546   */\n      tag_319\n      jump\t// in\n    tag_430:\n        /* \"#utility.yul\":21516:21521   */\n      dup2\n        /* \"#utility.yul\":21513:21547   */\n      eq\n        /* \"#utility.yul\":21503:21565   */\n      tag_431\n      jumpi\n        /* \"#utility.yul\":21561:21562   */\n      0x00\n        /* \"#utility.yul\":21558:21559   */\n      dup1\n        /* \"#utility.yul\":21551:21563   */\n      revert\n        /* \"#utility.yul\":21503:21565   */\n    tag_431:\n        /* \"#utility.yul\":21451:21571   */\n      pop\n      jump\t// out\n\n    auxdata: 0xa2646970667358221220d9fc4f4b97078144a2f50782135ad6c5f8620c62f3b58c28b158a4756e3e4d0964736f6c63430008070033\n}\n",
				"bytecode": {
					"linkReferences": {},
					"object": "608060405234801561001057600080fd5b5061002d61002261003260201b60201c565b61003a60201b60201c565b6100fe565b600033905090565b60008060009054906101000a900473ffffffffffffffffffffffffffffffffffffffff169050816000806101000a81548173ffffffffffffffffffffffffffffffffffffffff021916908373ffffffffffffffffffffffffffffffffffffffff1602179055508173ffffffffffffffffffffffffffffffffffffffff168173ffffffffffffffffffffffffffffffffffffffff167f8be0079c531659141344cd1fd0a4f28419497f9722a3daafe3b4186f6b6457e060405160405180910390a35050565b611b238061010d6000396000f3fe608060405234801561001057600080fd5b50600436106100a95760003560e01c80638da5cb5b116100715780638da5cb5b14610152578063b905ad7814610170578063bdaa3c1e1461018e578063f2fde38b146101aa578063f4cbc4a6146101c6578063fef4c92a146101e4576100a9565b8063422d2629146100ae57806348569e59146100ca5780635d70b491146100e6578063715018a61461011857806387e97de214610122575b600080fd5b6100c860048036038101906100c39190611119565b610200565b005b6100e460048036038101906100df9190611119565b61037c565b005b61010060048036038101906100fb9190611119565b6105d2565b60405161010f939291906114a6565b60405180910390f35b6101206106a4565b005b61013c60048036038101906101379190611119565b6106b8565b6040516101499190611462565b60405180910390f35b61015a61081b565b6040516101679190611447565b60405180910390f35b610178610844565b60405161018591906115e4565b60405180910390f35b6101a860048036038101906101a391906110bd565b61085a565b005b6101c460048036038101906101bf9190611090565b6109c5565b005b6101ce610a49565b6040516101db9190611484565b60405180910390f35b6101fe60048036038101906101f99190611146565b610cd9565b005b600760003373ffffffffffffffffffffffffffffffffffffffff1673ffffffffffffffffffffffffffffffffffffffff16815260200190815260200160002060008263ffffffff16815260200190815260200160002060009054906101000a900460ff166102a3576040517f08c379a000000000000000000000000000000000000000000000000000000000815260040161029a90611564565b60405180910390fd5b6000600660008363ffffffff1663ffffffff168152602001908152602001600020905060018160010160009054906101000a900463ffffffff166102e791906116ee565b8160010160006101000a81548163ffffffff021916908363ffffffff1602179055506000600760003373ffffffffffffffffffffffffffffffffffffffff1673ffffffffffffffffffffffffffffffffffffffff16815260200190815260200160002060008463ffffffff16815260200190815260200160002060006101000a81548160ff0219169083151502179055505050565b600760003373ffffffffffffffffffffffffffffffffffffffff1673ffffffffffffffffffffffffffffffffffffffff16815260200190815260200160002060008263ffffffff16815260200190815260200160002060009054906101000a900460ff1615610420576040517f08c379a000000000000000000000000000000000000000000000000000000000815260040161041790611524565b60405180910390fd5b6001600760003373ffffffffffffffffffffffffffffffffffffffff1673ffffffffffffffffffffffffffffffffffffffff16815260200190815260200160002060008363ffffffff16815260200190815260200160002060006101000a81548160ff0219169083151502179055506000600660008363ffffffff1663ffffffff168152602001908152602001600020905060018160010160009054906101000a900463ffffffff1663ffffffff1610156104da57600080fd5b60018160010160009054906101000a900463ffffffff166104fb9190611728565b8160010160006101000a81548163ffffffff021916908363ffffffff160217905550338160020160008360010160049054906101000a900463ffffffff1663ffffffff16815260200190815260200160002060006101000a81548173ffffffffffffffffffffffffffffffffffffffff021916908373ffffffffffffffffffffffffffffffffffffffff16021790555060018160010160049054906101000a900463ffffffff166105ac91906116ee565b8160010160046101000a81548163ffffffff021916908363ffffffff1602179055505050565b60066020528060005260406000206000915090508060000180546105f5906117e0565b80601f0160208091040260200160405190810160405280929190818152602001828054610621906117e0565b801561066e5780601f106106435761010080835404028352916020019161066e565b820191906000526020600020905b81548152906001019060200180831161065157829003601f168201915b5050505050908060010160009054906101000a900463ffffffff16908060010160049054906101000a900463ffffffff16905083565b6106ac610e09565b6106b66000610e87565b565b60606000600660008463ffffffff1663ffffffff16815260200190815260200160002060010160049054906101000a900463ffffffff1663ffffffff1667ffffffffffffffff81111561070e5761070d6118fd565b5b60405190808252806020026020018201604052801561073c5781602001602082028036833780820191505090505b50905060005b81518163ffffffff16101561081157600660008563ffffffff1663ffffffff16815260200190815260200160002060020160008263ffffffff16815260200190815260200160002060009054906101000a900473ffffffffffffffffffffffffffffffffffffffff16828263ffffffff16815181106107c4576107c36118ce565b5b602002602001019073ffffffffffffffffffffffffffffffffffffffff16908173ffffffffffffffffffffffffffffffffffffffff1681525050808061080990611843565b915050610742565b5080915050919050565b60008060009054906101000a900473ffffffffffffffffffffffffffffffffffffffff16905090565b600460009054906101000a900463ffffffff1681565b610862610e09565b816005816040516108739190611430565b908152602001604051809103902060009054906101000a900460ff16156108cf576040517f08c379a00000000000000000000000000000000000000000000000000000000081526004016108c690611504565b60405180910390fd5b600083511415610914576040517f08c379a000000000000000000000000000000000000000000000000000000000815260040161090b906114e4565b60405180910390fd5b60016005846040516109269190611430565b908152602001604051809103902060006101000a81548160ff021916908315150217905550600060018361095a91906116ee565b92508290506000600660008363ffffffff1663ffffffff16815260200190815260200160002090508481600001908051906020019061099a929190610f53565b50838160010160006101000a81548163ffffffff021916908363ffffffff1602179055505050505050565b6109cd610e09565b600073ffffffffffffffffffffffffffffffffffffffff168173ffffffffffffffffffffffffffffffffffffffff161415610a3d576040517f08c379a0000000000000000000000000000000000000000000000000000000008152600401610a3490611544565b60405180910390fd5b610a4681610e87565b50565b6060600080600190505b600460009054906101000a900463ffffffff1663ffffffff168163ffffffff1611610b4857600760003373ffffffffffffffffffffffffffffffffffffffff1673ffffffffffffffffffffffffffffffffffffffff16815260200190815260200160002060008263ffffffff16815260200190815260200160002060009054906101000a900460ff16158015610b2157506000600660008363ffffffff1663ffffffff16815260200190815260200160002060010160009054906101000a900463ffffffff1663ffffffff16115b15610b35578180610b3190611843565b9250505b8080610b4090611843565b915050610a53565b5060008163ffffffff1667ffffffffffffffff811115610b6b57610b6a6118fd565b5b604051908082528060200260200182016040528015610b995781602001602082028036833780820191505090505b509050600091506000600190505b600460009054906101000a900463ffffffff1663ffffffff168163ffffffff1611610cd057600760003373ffffffffffffffffffffffffffffffffffffffff1673ffffffffffffffffffffffffffffffffffffffff16815260200190815260200160002060008263ffffffff16815260200190815260200160002060009054906101000a900460ff16158015610c7557506000600660008363ffffffff1663ffffffff16815260200190815260200160002060010160009054906101000a900463ffffffff1663ffffffff16115b15610cbd5780828463ffffffff1681518110610c9457610c936118ce565b5b602002602001019063ffffffff16908163ffffffff16815250508280610cb990611843565b9350505b8080610cc890611843565b915050610ba7565b50809250505090565b610ce1610e09565b60008163ffffffff1611610d2a576040517f08c379a0000000000000000000000000000000000000000000000000000000008152600401610d21906115a4565b60405180910390fd5b6000600660008463ffffffff1663ffffffff16815260200190815260200160002090506000816000018054610d5e906117e0565b90501415610da1576040517f08c379a0000000000000000000000000000000000000000000000000000000008152600401610d98906115c4565b60405180910390fd5b60018160010160008282829054906101000a900463ffffffff16610dc591906116ee565b92506101000a81548163ffffffff021916908363ffffffff16021790558160010160006101000a81548163ffffffff021916908363ffffffff160217905550505050565b610e11610f4b565b73ffffffffffffffffffffffffffffffffffffffff16610e2f61081b565b73ffffffffffffffffffffffffffffffffffffffff1614610e85576040517f08c379a0000000000000000000000000000000000000000000000000000000008152600401610e7c90611584565b60405180910390fd5b565b60008060009054906101000a900473ffffffffffffffffffffffffffffffffffffffff169050816000806101000a81548173ffffffffffffffffffffffffffffffffffffffff021916908373ffffffffffffffffffffffffffffffffffffffff1602179055508173ffffffffffffffffffffffffffffffffffffffff168173ffffffffffffffffffffffffffffffffffffffff167f8be0079c531659141344cd1fd0a4f28419497f9722a3daafe3b4186f6b6457e060405160405180910390a35050565b600033905090565b828054610f5f906117e0565b90600052602060002090601f016020900481019282610f815760008555610fc8565b82601f10610f9a57805160ff1916838001178555610fc8565b82800160010185558215610fc8579182015b82811115610fc7578251825591602001919060010190610fac565b5b509050610fd59190610fd9565b5090565b5b80821115610ff2576000816000905550600101610fda565b5090565b600061100961100484611624565b6115ff565b90508281526020810184848401111561102557611024611931565b5b61103084828561179e565b509392505050565b60008135905061104781611abf565b92915050565b600082601f8301126110625761106161192c565b5b8135611072848260208601610ff6565b91505092915050565b60008135905061108a81611ad6565b92915050565b6000602082840312156110a6576110a561193b565b5b60006110b484828501611038565b91505092915050565b600080604083850312156110d4576110d361193b565b5b600083013567ffffffffffffffff8111156110f2576110f1611936565b5b6110fe8582860161104d565b925050602061110f8582860161107b565b9150509250929050565b60006020828403121561112f5761112e61193b565b5b600061113d8482850161107b565b91505092915050565b6000806040838503121561115d5761115c61193b565b5b600061116b8582860161107b565b925050602061117c8582860161107b565b9150509250929050565b600061119283836111b6565b60208301905092915050565b60006111aa8383611412565b60208301905092915050565b6111bf8161175c565b82525050565b6111ce8161175c565b82525050565b60006111df82611675565b6111e981856116b0565b93506111f483611655565b8060005b8381101561122557815161120c8882611186565b975061121783611696565b9250506001810190506111f8565b5085935050505092915050565b600061123d82611680565b61124781856116c1565b935061125283611665565b8060005b8381101561128357815161126a888261119e565b9750611275836116a3565b925050600181019050611256565b5085935050505092915050565b600061129b8261168b565b6112a581856116d2565b93506112b58185602086016117ad565b6112be81611940565b840191505092915050565b60006112d48261168b565b6112de81856116e3565b93506112ee8185602086016117ad565b80840191505092915050565b60006113076014836116d2565b915061131282611951565b602082019050919050565b600061132a6011836116d2565b91506113358261197a565b602082019050919050565b600061134d6016836116d2565b9150611358826119a3565b602082019050919050565b60006113706026836116d2565b915061137b826119cc565b604082019050919050565b60006113936012836116d2565b915061139e82611a1b565b602082019050919050565b60006113b66020836116d2565b91506113c182611a44565b602082019050919050565b60006113d96005836116d2565b91506113e482611a6d565b602082019050919050565b60006113fc6013836116d2565b915061140782611a96565b602082019050919050565b61141b8161178e565b82525050565b61142a8161178e565b82525050565b600061143c82846112c9565b915081905092915050565b600060208201905061145c60008301846111c5565b92915050565b6000602082019050818103600083015261147c81846111d4565b905092915050565b6000602082019050818103600083015261149e8184611232565b905092915050565b600060608201905081810360008301526114c08186611290565b90506114cf6020830185611421565b6114dc6040830184611421565b949350505050565b600060208201905081810360008301526114fd816112fa565b9050919050565b6000602082019050818103600083015261151d8161131d565b9050919050565b6000602082019050818103600083015261153d81611340565b9050919050565b6000602082019050818103600083015261155d81611363565b9050919050565b6000602082019050818103600083015261157d81611386565b9050919050565b6000602082019050818103600083015261159d816113a9565b9050919050565b600060208201905081810360008301526115bd816113cc565b9050919050565b600060208201905081810360008301526115dd816113ef565b9050919050565b60006020820190506115f96000830184611421565b92915050565b600061160961161a565b90506116158282611812565b919050565b6000604051905090565b600067ffffffffffffffff82111561163f5761163e6118fd565b5b61164882611940565b9050602081019050919050565b6000819050602082019050919050565b6000819050602082019050919050565b600081519050919050565b600081519050919050565b600081519050919050565b6000602082019050919050565b6000602082019050919050565b600082825260208201905092915050565b600082825260208201905092915050565b600082825260208201905092915050565b600081905092915050565b60006116f98261178e565b91506117048361178e565b92508263ffffffff0382111561171d5761171c611870565b5b828201905092915050565b60006117338261178e565b915061173e8361178e565b92508282101561175157611750611870565b5b828203905092915050565b60006117678261176e565b9050919050565b600073ffffffffffffffffffffffffffffffffffffffff82169050919050565b600063ffffffff82169050919050565b82818337600083830152505050565b60005b838110156117cb5780820151818401526020810190506117b0565b838111156117da576000848401525b50505050565b600060028204905060018216806117f857607f821691505b6020821081141561180c5761180b61189f565b5b50919050565b61181b82611940565b810181811067ffffffffffffffff8211171561183a576118396118fd565b5b80604052505050565b600061184e8261178e565b915063ffffffff82141561186557611864611870565b5b600182019050919050565b7f4e487b7100000000000000000000000000000000000000000000000000000000600052601160045260246000fd5b7f4e487b7100000000000000000000000000000000000000000000000000000000600052602260045260246000fd5b7f4e487b7100000000000000000000000000000000000000000000000000000000600052603260045260246000fd5b7f4e487b7100000000000000000000000000000000000000000000000000000000600052604160045260246000fd5b600080fd5b600080fd5b600080fd5b600080fd5b6000601f19601f8301169050919050565b7f4e616d652063616e6e6f7420626520656d707479000000000000000000000000600082015250565b7f426f6f6b20697320617661696c61626c65000000000000000000000000000000600082015250565b7f426f6f6b20697320616c72656164792069737375656400000000000000000000600082015250565b7f4f776e61626c653a206e6577206f776e657220697320746865207a65726f206160008201527f6464726573730000000000000000000000000000000000000000000000000000602082015250565b7f426f6f6b206973206e6f74206973737565640000000000000000000000000000600082015250565b7f4f776e61626c653a2063616c6c6572206973206e6f7420746865206f776e6572600082015250565b7f217a65726f000000000000000000000000000000000000000000000000000000600082015250565b7f426f6f6b20646f6573206e6f7420657869737400000000000000000000000000600082015250565b611ac88161175c565b8114611ad357600080fd5b50565b611adf8161178e565b8114611aea57600080fd5b5056fea2646970667358221220d9fc4f4b97078144a2f50782135ad6c5f8620c62f3b58c28b158a4756e3e4d0964736f6c63430008070033",
					"opcodes": "PUSH1 0x80 PUSH1 0x40 MSTORE CALLVALUE DUP1 ISZERO PUSH2 0x10 JUMPI PUSH1 0x0 DUP1 REVERT JUMPDEST POP PUSH2 0x2D PUSH2 0x22 PUSH2 0x32 PUSH1 0x20 SHL PUSH1 0x20 SHR JUMP JUMPDEST PUSH2 0x3A PUSH1 0x20 SHL PUSH1 0x20 SHR JUMP JUMPDEST PUSH2 0xFE JUMP JUMPDEST PUSH1 0x0 CALLER SWAP1 POP SWAP1 JUMP JUMPDEST PUSH1 0x0 DUP1 PUSH1 0x0 SWAP1 SLOAD SWAP1 PUSH2 0x100 EXP SWAP1 DIV PUSH20 0xFFFFFFFFFFFFFFFFFFFFFFFFFFFFFFFFFFFFFFFF AND SWAP1 POP DUP2 PUSH1 0x0 DUP1 PUSH2 0x100 EXP DUP2 SLOAD DUP2 PUSH20 0xFFFFFFFFFFFFFFFFFFFFFFFFFFFFFFFFFFFFFFFF MUL NOT AND SWAP1 DUP4 PUSH20 0xFFFFFFFFFFFFFFFFFFFFFFFFFFFFFFFFFFFFFFFF AND MUL OR SWAP1 SSTORE POP DUP2 PUSH20 0xFFFFFFFFFFFFFFFFFFFFFFFFFFFFFFFFFFFFFFFF AND DUP2 PUSH20 0xFFFFFFFFFFFFFFFFFFFFFFFFFFFFFFFFFFFFFFFF AND PUSH32 0x8BE0079C531659141344CD1FD0A4F28419497F9722A3DAAFE3B4186F6B6457E0 PUSH1 0x40 MLOAD PUSH1 0x40 MLOAD DUP1 SWAP2 SUB SWAP1 LOG3 POP POP JUMP JUMPDEST PUSH2 0x1B23 DUP1 PUSH2 0x10D PUSH1 0x0 CODECOPY PUSH1 0x0 RETURN INVALID PUSH1 0x80 PUSH1 0x40 MSTORE CALLVALUE DUP1 ISZERO PUSH2 0x10 JUMPI PUSH1 0x0 DUP1 REVERT JUMPDEST POP PUSH1 0x4 CALLDATASIZE LT PUSH2 0xA9 JUMPI PUSH1 0x0 CALLDATALOAD PUSH1 0xE0 SHR DUP1 PUSH4 0x8DA5CB5B GT PUSH2 0x71 JUMPI DUP1 PUSH4 0x8DA5CB5B EQ PUSH2 0x152 JUMPI DUP1 PUSH4 0xB905AD78 EQ PUSH2 0x170 JUMPI DUP1 PUSH4 0xBDAA3C1E EQ PUSH2 0x18E JUMPI DUP1 PUSH4 0xF2FDE38B EQ PUSH2 0x1AA JUMPI DUP1 PUSH4 0xF4CBC4A6 EQ PUSH2 0x1C6 JUMPI DUP1 PUSH4 0xFEF4C92A EQ PUSH2 0x1E4 JUMPI PUSH2 0xA9 JUMP JUMPDEST DUP1 PUSH4 0x422D2629 EQ PUSH2 0xAE JUMPI DUP1 PUSH4 0x48569E59 EQ PUSH2 0xCA JUMPI DUP1 PUSH4 0x5D70B491 EQ PUSH2 0xE6 JUMPI DUP1 PUSH4 0x715018A6 EQ PUSH2 0x118 JUMPI DUP1 PUSH4 0x87E97DE2 EQ PUSH2 0x122 JUMPI JUMPDEST PUSH1 0x0 DUP1 REVERT JUMPDEST PUSH2 0xC8 PUSH1 0x4 DUP1 CALLDATASIZE SUB DUP2 ADD SWAP1 PUSH2 0xC3 SWAP2 SWAP1 PUSH2 0x1119 JUMP JUMPDEST PUSH2 0x200 JUMP JUMPDEST STOP JUMPDEST PUSH2 0xE4 PUSH1 0x4 DUP1 CALLDATASIZE SUB DUP2 ADD SWAP1 PUSH2 0xDF SWAP2 SWAP1 PUSH2 0x1119 JUMP JUMPDEST PUSH2 0x37C JUMP JUMPDEST STOP JUMPDEST PUSH2 0x100 PUSH1 0x4 DUP1 CALLDATASIZE SUB DUP2 ADD SWAP1 PUSH2 0xFB SWAP2 SWAP1 PUSH2 0x1119 JUMP JUMPDEST PUSH2 0x5D2 JUMP JUMPDEST PUSH1 0x40 MLOAD PUSH2 0x10F SWAP4 SWAP3 SWAP2 SWAP1 PUSH2 0x14A6 JUMP JUMPDEST PUSH1 0x40 MLOAD DUP1 SWAP2 SUB SWAP1 RETURN JUMPDEST PUSH2 0x120 PUSH2 0x6A4 JUMP JUMPDEST STOP JUMPDEST PUSH2 0x13C PUSH1 0x4 DUP1 CALLDATASIZE SUB DUP2 ADD SWAP1 PUSH2 0x137 SWAP2 SWAP1 PUSH2 0x1119 JUMP JUMPDEST PUSH2 0x6B8 JUMP JUMPDEST PUSH1 0x40 MLOAD PUSH2 0x149 SWAP2 SWAP1 PUSH2 0x1462 JUMP JUMPDEST PUSH1 0x40 MLOAD DUP1 SWAP2 SUB SWAP1 RETURN JUMPDEST PUSH2 0x15A PUSH2 0x81B JUMP JUMPDEST PUSH1 0x40 MLOAD PUSH2 0x167 SWAP2 SWAP1 PUSH2 0x1447 JUMP JUMPDEST PUSH1 0x40 MLOAD DUP1 SWAP2 SUB SWAP1 RETURN JUMPDEST PUSH2 0x178 PUSH2 0x844 JUMP JUMPDEST PUSH1 0x40 MLOAD PUSH2 0x185 SWAP2 SWAP1 PUSH2 0x15E4 JUMP JUMPDEST PUSH1 0x40 MLOAD DUP1 SWAP2 SUB SWAP1 RETURN JUMPDEST PUSH2 0x1A8 PUSH1 0x4 DUP1 CALLDATASIZE SUB DUP2 ADD SWAP1 PUSH2 0x1A3 SWAP2 SWAP1 PUSH2 0x10BD JUMP JUMPDEST PUSH2 0x85A JUMP JUMPDEST STOP JUMPDEST PUSH2 0x1C4 PUSH1 0x4 DUP1 CALLDATASIZE SUB DUP2 ADD SWAP1 PUSH2 0x1BF SWAP2 SWAP1 PUSH2 0x1090 JUMP JUMPDEST PUSH2 0x9C5 JUMP JUMPDEST STOP JUMPDEST PUSH2 0x1CE PUSH2 0xA49 JUMP JUMPDEST PUSH1 0x40 MLOAD PUSH2 0x1DB SWAP2 SWAP1 PUSH2 0x1484 JUMP JUMPDEST PUSH1 0x40 MLOAD DUP1 SWAP2 SUB SWAP1 RETURN JUMPDEST PUSH2 0x1FE PUSH1 0x4 DUP1 CALLDATASIZE SUB DUP2 ADD SWAP1 PUSH2 0x1F9 SWAP2 SWAP1 PUSH2 0x1146 JUMP JUMPDEST PUSH2 0xCD9 JUMP JUMPDEST STOP JUMPDEST PUSH1 0x7 PUSH1 0x0 CALLER PUSH20 0xFFFFFFFFFFFFFFFFFFFFFFFFFFFFFFFFFFFFFFFF AND PUSH20 0xFFFFFFFFFFFFFFFFFFFFFFFFFFFFFFFFFFFFFFFF AND DUP2 MSTORE PUSH1 0x20 ADD SWAP1 DUP2 MSTORE PUSH1 0x20 ADD PUSH1 0x0 KECCAK256 PUSH1 0x0 DUP3 PUSH4 0xFFFFFFFF AND DUP2 MSTORE PUSH1 0x20 ADD SWAP1 DUP2 MSTORE PUSH1 0x20 ADD PUSH1 0x0 KECCAK256 PUSH1 0x0 SWAP1 SLOAD SWAP1 PUSH2 0x100 EXP SWAP1 DIV PUSH1 0xFF AND PUSH2 0x2A3 JUMPI PUSH1 0x40 MLOAD PUSH32 0x8C379A000000000000000000000000000000000000000000000000000000000 DUP2 MSTORE PUSH1 0x4 ADD PUSH2 0x29A SWAP1 PUSH2 0x1564 JUMP JUMPDEST PUSH1 0x40 MLOAD DUP1 SWAP2 SUB SWAP1 REVERT JUMPDEST PUSH1 0x0 PUSH1 0x6 PUSH1 0x0 DUP4 PUSH4 0xFFFFFFFF AND PUSH4 0xFFFFFFFF AND DUP2 MSTORE PUSH1 0x20 ADD SWAP1 DUP2 MSTORE PUSH1 0x20 ADD PUSH1 0x0 KECCAK256 SWAP1 POP PUSH1 0x1 DUP2 PUSH1 0x1 ADD PUSH1 0x0 SWAP1 SLOAD SWAP1 PUSH2 0x100 EXP SWAP1 DIV PUSH4 0xFFFFFFFF AND PUSH2 0x2E7 SWAP2 SWAP1 PUSH2 0x16EE JUMP JUMPDEST DUP2 PUSH1 0x1 ADD PUSH1 0x0 PUSH2 0x100 EXP DUP2 SLOAD DUP2 PUSH4 0xFFFFFFFF MUL NOT AND SWAP1 DUP4 PUSH4 0xFFFFFFFF AND MUL OR SWAP1 SSTORE POP PUSH1 0x0 PUSH1 0x7 PUSH1 0x0 CALLER PUSH20 0xFFFFFFFFFFFFFFFFFFFFFFFFFFFFFFFFFFFFFFFF AND PUSH20 0xFFFFFFFFFFFFFFFFFFFFFFFFFFFFFFFFFFFFFFFF AND DUP2 MSTORE PUSH1 0x20 ADD SWAP1 DUP2 MSTORE PUSH1 0x20 ADD PUSH1 0x0 KECCAK256 PUSH1 0x0 DUP5 PUSH4 0xFFFFFFFF AND DUP2 MSTORE PUSH1 0x20 ADD SWAP1 DUP2 MSTORE PUSH1 0x20 ADD PUSH1 0x0 KECCAK256 PUSH1 0x0 PUSH2 0x100 EXP DUP2 SLOAD DUP2 PUSH1 0xFF MUL NOT AND SWAP1 DUP4 ISZERO ISZERO MUL OR SWAP1 SSTORE POP POP POP JUMP JUMPDEST PUSH1 0x7 PUSH1 0x0 CALLER PUSH20 0xFFFFFFFFFFFFFFFFFFFFFFFFFFFFFFFFFFFFFFFF AND PUSH20 0xFFFFFFFFFFFFFFFFFFFFFFFFFFFFFFFFFFFFFFFF AND DUP2 MSTORE PUSH1 0x20 ADD SWAP1 DUP2 MSTORE PUSH1 0x20 ADD PUSH1 0x0 KECCAK256 PUSH1 0x0 DUP3 PUSH4 0xFFFFFFFF AND DUP2 MSTORE PUSH1 0x20 ADD SWAP1 DUP2 MSTORE PUSH1 0x20 ADD PUSH1 0x0 KECCAK256 PUSH1 0x0 SWAP1 SLOAD SWAP1 PUSH2 0x100 EXP SWAP1 DIV PUSH1 0xFF AND ISZERO PUSH2 0x420 JUMPI PUSH1 0x40 MLOAD PUSH32 0x8C379A000000000000000000000000000000000000000000000000000000000 DUP2 MSTORE PUSH1 0x4 ADD PUSH2 0x417 SWAP1 PUSH2 0x1524 JUMP JUMPDEST PUSH1 0x40 MLOAD DUP1 SWAP2 SUB SWAP1 REVERT JUMPDEST PUSH1 0x1 PUSH1 0x7 PUSH1 0x0 CALLER PUSH20 0xFFFFFFFFFFFFFFFFFFFFFFFFFFFFFFFFFFFFFFFF AND PUSH20 0xFFFFFFFFFFFFFFFFFFFFFFFFFFFFFFFFFFFFFFFF AND DUP2 MSTORE PUSH1 0x20 ADD SWAP1 DUP2 MSTORE PUSH1 0x20 ADD PUSH1 0x0 KECCAK256 PUSH1 0x0 DUP4 PUSH4 0xFFFFFFFF AND DUP2 MSTORE PUSH1 0x20 ADD SWAP1 DUP2 MSTORE PUSH1 0x20 ADD PUSH1 0x0 KECCAK256 PUSH1 0x0 PUSH2 0x100 EXP DUP2 SLOAD DUP2 PUSH1 0xFF MUL NOT AND SWAP1 DUP4 ISZERO ISZERO MUL OR SWAP1 SSTORE POP PUSH1 0x0 PUSH1 0x6 PUSH1 0x0 DUP4 PUSH4 0xFFFFFFFF AND PUSH4 0xFFFFFFFF AND DUP2 MSTORE PUSH1 0x20 ADD SWAP1 DUP2 MSTORE PUSH1 0x20 ADD PUSH1 0x0 KECCAK256 SWAP1 POP PUSH1 0x1 DUP2 PUSH1 0x1 ADD PUSH1 0x0 SWAP1 SLOAD SWAP1 PUSH2 0x100 EXP SWAP1 DIV PUSH4 0xFFFFFFFF AND PUSH4 0xFFFFFFFF AND LT ISZERO PUSH2 0x4DA JUMPI PUSH1 0x0 DUP1 REVERT JUMPDEST PUSH1 0x1 DUP2 PUSH1 0x1 ADD PUSH1 0x0 SWAP1 SLOAD SWAP1 PUSH2 0x100 EXP SWAP1 DIV PUSH4 0xFFFFFFFF AND PUSH2 0x4FB SWAP2 SWAP1 PUSH2 0x1728 JUMP JUMPDEST DUP2 PUSH1 0x1 ADD PUSH1 0x0 PUSH2 0x100 EXP DUP2 SLOAD DUP2 PUSH4 0xFFFFFFFF MUL NOT AND SWAP1 DUP4 PUSH4 0xFFFFFFFF AND MUL OR SWAP1 SSTORE POP CALLER DUP2 PUSH1 0x2 ADD PUSH1 0x0 DUP4 PUSH1 0x1 ADD PUSH1 0x4 SWAP1 SLOAD SWAP1 PUSH2 0x100 EXP SWAP1 DIV PUSH4 0xFFFFFFFF AND PUSH4 0xFFFFFFFF AND DUP2 MSTORE PUSH1 0x20 ADD SWAP1 DUP2 MSTORE PUSH1 0x20 ADD PUSH1 0x0 KECCAK256 PUSH1 0x0 PUSH2 0x100 EXP DUP2 SLOAD DUP2 PUSH20 0xFFFFFFFFFFFFFFFFFFFFFFFFFFFFFFFFFFFFFFFF MUL NOT AND SWAP1 DUP4 PUSH20 0xFFFFFFFFFFFFFFFFFFFFFFFFFFFFFFFFFFFFFFFF AND MUL OR SWAP1 SSTORE POP PUSH1 0x1 DUP2 PUSH1 0x1 ADD PUSH1 0x4 SWAP1 SLOAD SWAP1 PUSH2 0x100 EXP SWAP1 DIV PUSH4 0xFFFFFFFF AND PUSH2 0x5AC SWAP2 SWAP1 PUSH2 0x16EE JUMP JUMPDEST DUP2 PUSH1 0x1 ADD PUSH1 0x4 PUSH2 0x100 EXP DUP2 SLOAD DUP2 PUSH4 0xFFFFFFFF MUL NOT AND SWAP1 DUP4 PUSH4 0xFFFFFFFF AND MUL OR SWAP1 SSTORE POP POP POP JUMP JUMPDEST PUSH1 0x6 PUSH1 0x20 MSTORE DUP1 PUSH1 0x0 MSTORE PUSH1 0x40 PUSH1 0x0 KECCAK256 PUSH1 0x0 SWAP2 POP SWAP1 POP DUP1 PUSH1 0x0 ADD DUP1 SLOAD PUSH2 0x5F5 SWAP1 PUSH2 0x17E0 JUMP JUMPDEST DUP1 PUSH1 0x1F ADD PUSH1 0x20 DUP1 SWAP2 DIV MUL PUSH1 0x20 ADD PUSH1 0x40 MLOAD SWAP1 DUP2 ADD PUSH1 0x40 MSTORE DUP1 SWAP3 SWAP2 SWAP1 DUP2 DUP2 MSTORE PUSH1 0x20 ADD DUP3 DUP1 SLOAD PUSH2 0x621 SWAP1 PUSH2 0x17E0 JUMP JUMPDEST DUP1 ISZERO PUSH2 0x66E JUMPI DUP1 PUSH1 0x1F LT PUSH2 0x643 JUMPI PUSH2 0x100 DUP1 DUP4 SLOAD DIV MUL DUP4 MSTORE SWAP2 PUSH1 0x20 ADD SWAP2 PUSH2 0x66E JUMP JUMPDEST DUP3 ADD SWAP2 SWAP1 PUSH1 0x0 MSTORE PUSH1 0x20 PUSH1 0x0 KECCAK256 SWAP1 JUMPDEST DUP2 SLOAD DUP2 MSTORE SWAP1 PUSH1 0x1 ADD SWAP1 PUSH1 0x20 ADD DUP1 DUP4 GT PUSH2 0x651 JUMPI DUP3 SWAP1 SUB PUSH1 0x1F AND DUP3 ADD SWAP2 JUMPDEST POP POP POP POP POP SWAP1 DUP1 PUSH1 0x1 ADD PUSH1 0x0 SWAP1 SLOAD SWAP1 PUSH2 0x100 EXP SWAP1 DIV PUSH4 0xFFFFFFFF AND SWAP1 DUP1 PUSH1 0x1 ADD PUSH1 0x4 SWAP1 SLOAD SWAP1 PUSH2 0x100 EXP SWAP1 DIV PUSH4 0xFFFFFFFF AND SWAP1 POP DUP4 JUMP JUMPDEST PUSH2 0x6AC PUSH2 0xE09 JUMP JUMPDEST PUSH2 0x6B6 PUSH1 0x0 PUSH2 0xE87 JUMP JUMPDEST JUMP JUMPDEST PUSH1 0x60 PUSH1 0x0 PUSH1 0x6 PUSH1 0x0 DUP5 PUSH4 0xFFFFFFFF AND PUSH4 0xFFFFFFFF AND DUP2 MSTORE PUSH1 0x20 ADD SWAP1 DUP2 MSTORE PUSH1 0x20 ADD PUSH1 0x0 KECCAK256 PUSH1 0x1 ADD PUSH1 0x4 SWAP1 SLOAD SWAP1 PUSH2 0x100 EXP SWAP1 DIV PUSH4 0xFFFFFFFF AND PUSH4 0xFFFFFFFF AND PUSH8 0xFFFFFFFFFFFFFFFF DUP2 GT ISZERO PUSH2 0x70E JUMPI PUSH2 0x70D PUSH2 0x18FD JUMP JUMPDEST JUMPDEST PUSH1 0x40 MLOAD SWAP1 DUP1 DUP3 MSTORE DUP1 PUSH1 0x20 MUL PUSH1 0x20 ADD DUP3 ADD PUSH1 0x40 MSTORE DUP1 ISZERO PUSH2 0x73C JUMPI DUP2 PUSH1 0x20 ADD PUSH1 0x20 DUP3 MUL DUP1 CALLDATASIZE DUP4 CALLDATACOPY DUP1 DUP3 ADD SWAP2 POP POP SWAP1 POP JUMPDEST POP SWAP1 POP PUSH1 0x0 JUMPDEST DUP2 MLOAD DUP2 PUSH4 0xFFFFFFFF AND LT ISZERO PUSH2 0x811 JUMPI PUSH1 0x6 PUSH1 0x0 DUP6 PUSH4 0xFFFFFFFF AND PUSH4 0xFFFFFFFF AND DUP2 MSTORE PUSH1 0x20 ADD SWAP1 DUP2 MSTORE PUSH1 0x20 ADD PUSH1 0x0 KECCAK256 PUSH1 0x2 ADD PUSH1 0x0 DUP3 PUSH4 0xFFFFFFFF AND DUP2 MSTORE PUSH1 0x20 ADD SWAP1 DUP2 MSTORE PUSH1 0x20 ADD PUSH1 0x0 KECCAK256 PUSH1 0x0 SWAP1 SLOAD SWAP1 PUSH2 0x100 EXP SWAP1 DIV PUSH20 0xFFFFFFFFFFFFFFFFFFFFFFFFFFFFFFFFFFFFFFFF AND DUP3 DUP3 PUSH4 0xFFFFFFFF AND DUP2 MLOAD DUP2 LT PUSH2 0x7C4 JUMPI PUSH2 0x7C3 PUSH2 0x18CE JUMP JUMPDEST JUMPDEST PUSH1 0x20 MUL PUSH1 0x20 ADD ADD SWAP1 PUSH20 0xFFFFFFFFFFFFFFFFFFFFFFFFFFFFFFFFFFFFFFFF AND SWAP1 DUP2 PUSH20 0xFFFFFFFFFFFFFFFFFFFFFFFFFFFFFFFFFFFFFFFF AND DUP2 MSTORE POP POP DUP1 DUP1 PUSH2 0x809 SWAP1 PUSH2 0x1843 JUMP JUMPDEST SWAP2 POP POP PUSH2 0x742 JUMP JUMPDEST POP DUP1 SWAP2 POP POP SWAP2 SWAP1 POP JUMP JUMPDEST PUSH1 0x0 DUP1 PUSH1 0x0 SWAP1 SLOAD SWAP1 PUSH2 0x100 EXP SWAP1 DIV PUSH20 0xFFFFFFFFFFFFFFFFFFFFFFFFFFFFFFFFFFFFFFFF AND SWAP1 POP SWAP1 JUMP JUMPDEST PUSH1 0x4 PUSH1 0x0 SWAP1 SLOAD SWAP1 PUSH2 0x100 EXP SWAP1 DIV PUSH4 0xFFFFFFFF AND DUP2 JUMP JUMPDEST PUSH2 0x862 PUSH2 0xE09 JUMP JUMPDEST DUP2 PUSH1 0x5 DUP2 PUSH1 0x40 MLOAD PUSH2 0x873 SWAP2 SWAP1 PUSH2 0x1430 JUMP JUMPDEST SWAP1 DUP2 MSTORE PUSH1 0x20 ADD PUSH1 0x40 MLOAD DUP1 SWAP2 SUB SWAP1 KECCAK256 PUSH1 0x0 SWAP1 SLOAD SWAP1 PUSH2 0x100 EXP SWAP1 DIV PUSH1 0xFF AND ISZERO PUSH2 0x8CF JUMPI PUSH1 0x40 MLOAD PUSH32 0x8C379A000000000000000000000000000000000000000000000000000000000 DUP2 MSTORE PUSH1 0x4 ADD PUSH2 0x8C6 SWAP1 PUSH2 0x1504 JUMP JUMPDEST PUSH1 0x40 MLOAD DUP1 SWAP2 SUB SWAP1 REVERT JUMPDEST PUSH1 0x0 DUP4 MLOAD EQ ISZERO PUSH2 0x914 JUMPI PUSH1 0x40 MLOAD PUSH32 0x8C379A000000000000000000000000000000000000000000000000000000000 DUP2 MSTORE PUSH1 0x4 ADD PUSH2 0x90B SWAP1 PUSH2 0x14E4 JUMP JUMPDEST PUSH1 0x40 MLOAD DUP1 SWAP2 SUB SWAP1 REVERT JUMPDEST PUSH1 0x1 PUSH1 0x5 DUP5 PUSH1 0x40 MLOAD PUSH2 0x926 SWAP2 SWAP1 PUSH2 0x1430 JUMP JUMPDEST SWAP1 DUP2 MSTORE PUSH1 0x20 ADD PUSH1 0x40 MLOAD DUP1 SWAP2 SUB SWAP1 KECCAK256 PUSH1 0x0 PUSH2 0x100 EXP DUP2 SLOAD DUP2 PUSH1 0xFF MUL NOT AND SWAP1 DUP4 ISZERO ISZERO MUL OR SWAP1 SSTORE POP PUSH1 0x0 PUSH1 0x1 DUP4 PUSH2 0x95A SWAP2 SWAP1 PUSH2 0x16EE JUMP JUMPDEST SWAP3 POP DUP3 SWAP1 POP PUSH1 0x0 PUSH1 0x6 PUSH1 0x0 DUP4 PUSH4 0xFFFFFFFF AND PUSH4 0xFFFFFFFF AND DUP2 MSTORE PUSH1 0x20 ADD SWAP1 DUP2 MSTORE PUSH1 0x20 ADD PUSH1 0x0 KECCAK256 SWAP1 POP DUP5 DUP2 PUSH1 0x0 ADD SWAP1 DUP1 MLOAD SWAP1 PUSH1 0x20 ADD SWAP1 PUSH2 0x99A SWAP3 SWAP2 SWAP1 PUSH2 0xF53 JUMP JUMPDEST POP DUP4 DUP2 PUSH1 0x1 ADD PUSH1 0x0 PUSH2 0x100 EXP DUP2 SLOAD DUP2 PUSH4 0xFFFFFFFF MUL NOT AND SWAP1 DUP4 PUSH4 0xFFFFFFFF AND MUL OR SWAP1 SSTORE POP POP POP POP POP POP JUMP JUMPDEST PUSH2 0x9CD PUSH2 0xE09 JUMP JUMPDEST PUSH1 0x0 PUSH20 0xFFFFFFFFFFFFFFFFFFFFFFFFFFFFFFFFFFFFFFFF AND DUP2 PUSH20 0xFFFFFFFFFFFFFFFFFFFFFFFFFFFFFFFFFFFFFFFF AND EQ ISZERO PUSH2 0xA3D JUMPI PUSH1 0x40 MLOAD PUSH32 0x8C379A000000000000000000000000000000000000000000000000000000000 DUP2 MSTORE PUSH1 0x4 ADD PUSH2 0xA34 SWAP1 PUSH2 0x1544 JUMP JUMPDEST PUSH1 0x40 MLOAD DUP1 SWAP2 SUB SWAP1 REVERT JUMPDEST PUSH2 0xA46 DUP2 PUSH2 0xE87 JUMP JUMPDEST POP JUMP JUMPDEST PUSH1 0x60 PUSH1 0x0 DUP1 PUSH1 0x1 SWAP1 POP JUMPDEST PUSH1 0x4 PUSH1 0x0 SWAP1 SLOAD SWAP1 PUSH2 0x100 EXP SWAP1 DIV PUSH4 0xFFFFFFFF AND PUSH4 0xFFFFFFFF AND DUP2 PUSH4 0xFFFFFFFF AND GT PUSH2 0xB48 JUMPI PUSH1 0x7 PUSH1 0x0 CALLER PUSH20 0xFFFFFFFFFFFFFFFFFFFFFFFFFFFFFFFFFFFFFFFF AND PUSH20 0xFFFFFFFFFFFFFFFFFFFFFFFFFFFFFFFFFFFFFFFF AND DUP2 MSTORE PUSH1 0x20 ADD SWAP1 DUP2 MSTORE PUSH1 0x20 ADD PUSH1 0x0 KECCAK256 PUSH1 0x0 DUP3 PUSH4 0xFFFFFFFF AND DUP2 MSTORE PUSH1 0x20 ADD SWAP1 DUP2 MSTORE PUSH1 0x20 ADD PUSH1 0x0 KECCAK256 PUSH1 0x0 SWAP1 SLOAD SWAP1 PUSH2 0x100 EXP SWAP1 DIV PUSH1 0xFF AND ISZERO DUP1 ISZERO PUSH2 0xB21 JUMPI POP PUSH1 0x0 PUSH1 0x6 PUSH1 0x0 DUP4 PUSH4 0xFFFFFFFF AND PUSH4 0xFFFFFFFF AND DUP2 MSTORE PUSH1 0x20 ADD SWAP1 DUP2 MSTORE PUSH1 0x20 ADD PUSH1 0x0 KECCAK256 PUSH1 0x1 ADD PUSH1 0x0 SWAP1 SLOAD SWAP1 PUSH2 0x100 EXP SWAP1 DIV PUSH4 0xFFFFFFFF AND PUSH4 0xFFFFFFFF AND GT JUMPDEST ISZERO PUSH2 0xB35 JUMPI DUP2 DUP1 PUSH2 0xB31 SWAP1 PUSH2 0x1843 JUMP JUMPDEST SWAP3 POP POP JUMPDEST DUP1 DUP1 PUSH2 0xB40 SWAP1 PUSH2 0x1843 JUMP JUMPDEST SWAP2 POP POP PUSH2 0xA53 JUMP JUMPDEST POP PUSH1 0x0 DUP2 PUSH4 0xFFFFFFFF AND PUSH8 0xFFFFFFFFFFFFFFFF DUP2 GT ISZERO PUSH2 0xB6B JUMPI PUSH2 0xB6A PUSH2 0x18FD JUMP JUMPDEST JUMPDEST PUSH1 0x40 MLOAD SWAP1 DUP1 DUP3 MSTORE DUP1 PUSH1 0x20 MUL PUSH1 0x20 ADD DUP3 ADD PUSH1 0x40 MSTORE DUP1 ISZERO PUSH2 0xB99 JUMPI DUP2 PUSH1 0x20 ADD PUSH1 0x20 DUP3 MUL DUP1 CALLDATASIZE DUP4 CALLDATACOPY DUP1 DUP3 ADD SWAP2 POP POP SWAP1 POP JUMPDEST POP SWAP1 POP PUSH1 0x0 SWAP2 POP PUSH1 0x0 PUSH1 0x1 SWAP1 POP JUMPDEST PUSH1 0x4 PUSH1 0x0 SWAP1 SLOAD SWAP1 PUSH2 0x100 EXP SWAP1 DIV PUSH4 0xFFFFFFFF AND PUSH4 0xFFFFFFFF AND DUP2 PUSH4 0xFFFFFFFF AND GT PUSH2 0xCD0 JUMPI PUSH1 0x7 PUSH1 0x0 CALLER PUSH20 0xFFFFFFFFFFFFFFFFFFFFFFFFFFFFFFFFFFFFFFFF AND PUSH20 0xFFFFFFFFFFFFFFFFFFFFFFFFFFFFFFFFFFFFFFFF AND DUP2 MSTORE PUSH1 0x20 ADD SWAP1 DUP2 MSTORE PUSH1 0x20 ADD PUSH1 0x0 KECCAK256 PUSH1 0x0 DUP3 PUSH4 0xFFFFFFFF AND DUP2 MSTORE PUSH1 0x20 ADD SWAP1 DUP2 MSTORE PUSH1 0x20 ADD PUSH1 0x0 KECCAK256 PUSH1 0x0 SWAP1 SLOAD SWAP1 PUSH2 0x100 EXP SWAP1 DIV PUSH1 0xFF AND ISZERO DUP1 ISZERO PUSH2 0xC75 JUMPI POP PUSH1 0x0 PUSH1 0x6 PUSH1 0x0 DUP4 PUSH4 0xFFFFFFFF AND PUSH4 0xFFFFFFFF AND DUP2 MSTORE PUSH1 0x20 ADD SWAP1 DUP2 MSTORE PUSH1 0x20 ADD PUSH1 0x0 KECCAK256 PUSH1 0x1 ADD PUSH1 0x0 SWAP1 SLOAD SWAP1 PUSH2 0x100 EXP SWAP1 DIV PUSH4 0xFFFFFFFF AND PUSH4 0xFFFFFFFF AND GT JUMPDEST ISZERO PUSH2 0xCBD JUMPI DUP1 DUP3 DUP5 PUSH4 0xFFFFFFFF AND DUP2 MLOAD DUP2 LT PUSH2 0xC94 JUMPI PUSH2 0xC93 PUSH2 0x18CE JUMP JUMPDEST JUMPDEST PUSH1 0x20 MUL PUSH1 0x20 ADD ADD SWAP1 PUSH4 0xFFFFFFFF AND SWAP1 DUP2 PUSH4 0xFFFFFFFF AND DUP2 MSTORE POP POP DUP3 DUP1 PUSH2 0xCB9 SWAP1 PUSH2 0x1843 JUMP JUMPDEST SWAP4 POP POP JUMPDEST DUP1 DUP1 PUSH2 0xCC8 SWAP1 PUSH2 0x1843 JUMP JUMPDEST SWAP2 POP POP PUSH2 0xBA7 JUMP JUMPDEST POP DUP1 SWAP3 POP POP POP SWAP1 JUMP JUMPDEST PUSH2 0xCE1 PUSH2 0xE09 JUMP JUMPDEST PUSH1 0x0 DUP2 PUSH4 0xFFFFFFFF AND GT PUSH2 0xD2A JUMPI PUSH1 0x40 MLOAD PUSH32 0x8C379A000000000000000000000000000000000000000000000000000000000 DUP2 MSTORE PUSH1 0x4 ADD PUSH2 0xD21 SWAP1 PUSH2 0x15A4 JUMP JUMPDEST PUSH1 0x40 MLOAD DUP1 SWAP2 SUB SWAP1 REVERT JUMPDEST PUSH1 0x0 PUSH1 0x6 PUSH1 0x0 DUP5 PUSH4 0xFFFFFFFF AND PUSH4 0xFFFFFFFF AND DUP2 MSTORE PUSH1 0x20 ADD SWAP1 DUP2 MSTORE PUSH1 0x20 ADD PUSH1 0x0 KECCAK256 SWAP1 POP PUSH1 0x0 DUP2 PUSH1 0x0 ADD DUP1 SLOAD PUSH2 0xD5E SWAP1 PUSH2 0x17E0 JUMP JUMPDEST SWAP1 POP EQ ISZERO PUSH2 0xDA1 JUMPI PUSH1 0x40 MLOAD PUSH32 0x8C379A000000000000000000000000000000000000000000000000000000000 DUP2 MSTORE PUSH1 0x4 ADD PUSH2 0xD98 SWAP1 PUSH2 0x15C4 JUMP JUMPDEST PUSH1 0x40 MLOAD DUP1 SWAP2 SUB SWAP1 REVERT JUMPDEST PUSH1 0x1 DUP2 PUSH1 0x1 ADD PUSH1 0x0 DUP3 DUP3 DUP3 SWAP1 SLOAD SWAP1 PUSH2 0x100 EXP SWAP1 DIV PUSH4 0xFFFFFFFF AND PUSH2 0xDC5 SWAP2 SWAP1 PUSH2 0x16EE JUMP JUMPDEST SWAP3 POP PUSH2 0x100 EXP DUP2 SLOAD DUP2 PUSH4 0xFFFFFFFF MUL NOT AND SWAP1 DUP4 PUSH4 0xFFFFFFFF AND MUL OR SWAP1 SSTORE DUP2 PUSH1 0x1 ADD PUSH1 0x0 PUSH2 0x100 EXP DUP2 SLOAD DUP2 PUSH4 0xFFFFFFFF MUL NOT AND SWAP1 DUP4 PUSH4 0xFFFFFFFF AND MUL OR SWAP1 SSTORE POP POP POP POP JUMP JUMPDEST PUSH2 0xE11 PUSH2 0xF4B JUMP JUMPDEST PUSH20 0xFFFFFFFFFFFFFFFFFFFFFFFFFFFFFFFFFFFFFFFF AND PUSH2 0xE2F PUSH2 0x81B JUMP JUMPDEST PUSH20 0xFFFFFFFFFFFFFFFFFFFFFFFFFFFFFFFFFFFFFFFF AND EQ PUSH2 0xE85 JUMPI PUSH1 0x40 MLOAD PUSH32 0x8C379A000000000000000000000000000000000000000000000000000000000 DUP2 MSTORE PUSH1 0x4 ADD PUSH2 0xE7C SWAP1 PUSH2 0x1584 JUMP JUMPDEST PUSH1 0x40 MLOAD DUP1 SWAP2 SUB SWAP1 REVERT JUMPDEST JUMP JUMPDEST PUSH1 0x0 DUP1 PUSH1 0x0 SWAP1 SLOAD SWAP1 PUSH2 0x100 EXP SWAP1 DIV PUSH20 0xFFFFFFFFFFFFFFFFFFFFFFFFFFFFFFFFFFFFFFFF AND SWAP1 POP DUP2 PUSH1 0x0 DUP1 PUSH2 0x100 EXP DUP2 SLOAD DUP2 PUSH20 0xFFFFFFFFFFFFFFFFFFFFFFFFFFFFFFFFFFFFFFFF MUL NOT AND SWAP1 DUP4 PUSH20 0xFFFFFFFFFFFFFFFFFFFFFFFFFFFFFFFFFFFFFFFF AND MUL OR SWAP1 SSTORE POP DUP2 PUSH20 0xFFFFFFFFFFFFFFFFFFFFFFFFFFFFFFFFFFFFFFFF AND DUP2 PUSH20 0xFFFFFFFFFFFFFFFFFFFFFFFFFFFFFFFFFFFFFFFF AND PUSH32 0x8BE0079C531659141344CD1FD0A4F28419497F9722A3DAAFE3B4186F6B6457E0 PUSH1 0x40 MLOAD PUSH1 0x40 MLOAD DUP1 SWAP2 SUB SWAP1 LOG3 POP POP JUMP JUMPDEST PUSH1 0x0 CALLER SWAP1 POP SWAP1 JUMP JUMPDEST DUP3 DUP1 SLOAD PUSH2 0xF5F SWAP1 PUSH2 0x17E0 JUMP JUMPDEST SWAP1 PUSH1 0x0 MSTORE PUSH1 0x20 PUSH1 0x0 KECCAK256 SWAP1 PUSH1 0x1F ADD PUSH1 0x20 SWAP1 DIV DUP2 ADD SWAP3 DUP3 PUSH2 0xF81 JUMPI PUSH1 0x0 DUP6 SSTORE PUSH2 0xFC8 JUMP JUMPDEST DUP3 PUSH1 0x1F LT PUSH2 0xF9A JUMPI DUP1 MLOAD PUSH1 0xFF NOT AND DUP4 DUP1 ADD OR DUP6 SSTORE PUSH2 0xFC8 JUMP JUMPDEST DUP3 DUP1 ADD PUSH1 0x1 ADD DUP6 SSTORE DUP3 ISZERO PUSH2 0xFC8 JUMPI SWAP2 DUP3 ADD JUMPDEST DUP3 DUP2 GT ISZERO PUSH2 0xFC7 JUMPI DUP3 MLOAD DUP3 SSTORE SWAP2 PUSH1 0x20 ADD SWAP2 SWAP1 PUSH1 0x1 ADD SWAP1 PUSH2 0xFAC JUMP JUMPDEST JUMPDEST POP SWAP1 POP PUSH2 0xFD5 SWAP2 SWAP1 PUSH2 0xFD9 JUMP JUMPDEST POP SWAP1 JUMP JUMPDEST JUMPDEST DUP1 DUP3 GT ISZERO PUSH2 0xFF2 JUMPI PUSH1 0x0 DUP2 PUSH1 0x0 SWAP1 SSTORE POP PUSH1 0x1 ADD PUSH2 0xFDA JUMP JUMPDEST POP SWAP1 JUMP JUMPDEST PUSH1 0x0 PUSH2 0x1009 PUSH2 0x1004 DUP5 PUSH2 0x1624 JUMP JUMPDEST PUSH2 0x15FF JUMP JUMPDEST SWAP1 POP DUP3 DUP2 MSTORE PUSH1 0x20 DUP2 ADD DUP5 DUP5 DUP5 ADD GT ISZERO PUSH2 0x1025 JUMPI PUSH2 0x1024 PUSH2 0x1931 JUMP JUMPDEST JUMPDEST PUSH2 0x1030 DUP5 DUP3 DUP6 PUSH2 0x179E JUMP JUMPDEST POP SWAP4 SWAP3 POP POP POP JUMP JUMPDEST PUSH1 0x0 DUP2 CALLDATALOAD SWAP1 POP PUSH2 0x1047 DUP2 PUSH2 0x1ABF JUMP JUMPDEST SWAP3 SWAP2 POP POP JUMP JUMPDEST PUSH1 0x0 DUP3 PUSH1 0x1F DUP4 ADD SLT PUSH2 0x1062 JUMPI PUSH2 0x1061 PUSH2 0x192C JUMP JUMPDEST JUMPDEST DUP2 CALLDATALOAD PUSH2 0x1072 DUP5 DUP3 PUSH1 0x20 DUP7 ADD PUSH2 0xFF6 JUMP JUMPDEST SWAP2 POP POP SWAP3 SWAP2 POP POP JUMP JUMPDEST PUSH1 0x0 DUP2 CALLDATALOAD SWAP1 POP PUSH2 0x108A DUP2 PUSH2 0x1AD6 JUMP JUMPDEST SWAP3 SWAP2 POP POP JUMP JUMPDEST PUSH1 0x0 PUSH1 0x20 DUP3 DUP5 SUB SLT ISZERO PUSH2 0x10A6 JUMPI PUSH2 0x10A5 PUSH2 0x193B JUMP JUMPDEST JUMPDEST PUSH1 0x0 PUSH2 0x10B4 DUP5 DUP3 DUP6 ADD PUSH2 0x1038 JUMP JUMPDEST SWAP2 POP POP SWAP3 SWAP2 POP POP JUMP JUMPDEST PUSH1 0x0 DUP1 PUSH1 0x40 DUP4 DUP6 SUB SLT ISZERO PUSH2 0x10D4 JUMPI PUSH2 0x10D3 PUSH2 0x193B JUMP JUMPDEST JUMPDEST PUSH1 0x0 DUP4 ADD CALLDATALOAD PUSH8 0xFFFFFFFFFFFFFFFF DUP2 GT ISZERO PUSH2 0x10F2 JUMPI PUSH2 0x10F1 PUSH2 0x1936 JUMP JUMPDEST JUMPDEST PUSH2 0x10FE DUP6 DUP3 DUP7 ADD PUSH2 0x104D JUMP JUMPDEST SWAP3 POP POP PUSH1 0x20 PUSH2 0x110F DUP6 DUP3 DUP7 ADD PUSH2 0x107B JUMP JUMPDEST SWAP2 POP POP SWAP3 POP SWAP3 SWAP1 POP JUMP JUMPDEST PUSH1 0x0 PUSH1 0x20 DUP3 DUP5 SUB SLT ISZERO PUSH2 0x112F JUMPI PUSH2 0x112E PUSH2 0x193B JUMP JUMPDEST JUMPDEST PUSH1 0x0 PUSH2 0x113D DUP5 DUP3 DUP6 ADD PUSH2 0x107B JUMP JUMPDEST SWAP2 POP POP SWAP3 SWAP2 POP POP JUMP JUMPDEST PUSH1 0x0 DUP1 PUSH1 0x40 DUP4 DUP6 SUB SLT ISZERO PUSH2 0x115D JUMPI PUSH2 0x115C PUSH2 0x193B JUMP JUMPDEST JUMPDEST PUSH1 0x0 PUSH2 0x116B DUP6 DUP3 DUP7 ADD PUSH2 0x107B JUMP JUMPDEST SWAP3 POP POP PUSH1 0x20 PUSH2 0x117C DUP6 DUP3 DUP7 ADD PUSH2 0x107B JUMP JUMPDEST SWAP2 POP POP SWAP3 POP SWAP3 SWAP1 POP JUMP JUMPDEST PUSH1 0x0 PUSH2 0x1192 DUP4 DUP4 PUSH2 0x11B6 JUMP JUMPDEST PUSH1 0x20 DUP4 ADD SWAP1 POP SWAP3 SWAP2 POP POP JUMP JUMPDEST PUSH1 0x0 PUSH2 0x11AA DUP4 DUP4 PUSH2 0x1412 JUMP JUMPDEST PUSH1 0x20 DUP4 ADD SWAP1 POP SWAP3 SWAP2 POP POP JUMP JUMPDEST PUSH2 0x11BF DUP2 PUSH2 0x175C JUMP JUMPDEST DUP3 MSTORE POP POP JUMP JUMPDEST PUSH2 0x11CE DUP2 PUSH2 0x175C JUMP JUMPDEST DUP3 MSTORE POP POP JUMP JUMPDEST PUSH1 0x0 PUSH2 0x11DF DUP3 PUSH2 0x1675 JUMP JUMPDEST PUSH2 0x11E9 DUP2 DUP6 PUSH2 0x16B0 JUMP JUMPDEST SWAP4 POP PUSH2 0x11F4 DUP4 PUSH2 0x1655 JUMP JUMPDEST DUP1 PUSH1 0x0 JUMPDEST DUP4 DUP2 LT ISZERO PUSH2 0x1225 JUMPI DUP2 MLOAD PUSH2 0x120C DUP9 DUP3 PUSH2 0x1186 JUMP JUMPDEST SWAP8 POP PUSH2 0x1217 DUP4 PUSH2 0x1696 JUMP JUMPDEST SWAP3 POP POP PUSH1 0x1 DUP2 ADD SWAP1 POP PUSH2 0x11F8 JUMP JUMPDEST POP DUP6 SWAP4 POP POP POP POP SWAP3 SWAP2 POP POP JUMP JUMPDEST PUSH1 0x0 PUSH2 0x123D DUP3 PUSH2 0x1680 JUMP JUMPDEST PUSH2 0x1247 DUP2 DUP6 PUSH2 0x16C1 JUMP JUMPDEST SWAP4 POP PUSH2 0x1252 DUP4 PUSH2 0x1665 JUMP JUMPDEST DUP1 PUSH1 0x0 JUMPDEST DUP4 DUP2 LT ISZERO PUSH2 0x1283 JUMPI DUP2 MLOAD PUSH2 0x126A DUP9 DUP3 PUSH2 0x119E JUMP JUMPDEST SWAP8 POP PUSH2 0x1275 DUP4 PUSH2 0x16A3 JUMP JUMPDEST SWAP3 POP POP PUSH1 0x1 DUP2 ADD SWAP1 POP PUSH2 0x1256 JUMP JUMPDEST POP DUP6 SWAP4 POP POP POP POP SWAP3 SWAP2 POP POP JUMP JUMPDEST PUSH1 0x0 PUSH2 0x129B DUP3 PUSH2 0x168B JUMP JUMPDEST PUSH2 0x12A5 DUP2 DUP6 PUSH2 0x16D2 JUMP JUMPDEST SWAP4 POP PUSH2 0x12B5 DUP2 DUP6 PUSH1 0x20 DUP7 ADD PUSH2 0x17AD JUMP JUMPDEST PUSH2 0x12BE DUP2 PUSH2 0x1940 JUMP JUMPDEST DUP5 ADD SWAP2 POP POP SWAP3 SWAP2 POP POP JUMP JUMPDEST PUSH1 0x0 PUSH2 0x12D4 DUP3 PUSH2 0x168B JUMP JUMPDEST PUSH2 0x12DE DUP2 DUP6 PUSH2 0x16E3 JUMP JUMPDEST SWAP4 POP PUSH2 0x12EE DUP2 DUP6 PUSH1 0x20 DUP7 ADD PUSH2 0x17AD JUMP JUMPDEST DUP1 DUP5 ADD SWAP2 POP POP SWAP3 SWAP2 POP POP JUMP JUMPDEST PUSH1 0x0 PUSH2 0x1307 PUSH1 0x14 DUP4 PUSH2 0x16D2 JUMP JUMPDEST SWAP2 POP PUSH2 0x1312 DUP3 PUSH2 0x1951 JUMP JUMPDEST PUSH1 0x20 DUP3 ADD SWAP1 POP SWAP2 SWAP1 POP JUMP JUMPDEST PUSH1 0x0 PUSH2 0x132A PUSH1 0x11 DUP4 PUSH2 0x16D2 JUMP JUMPDEST SWAP2 POP PUSH2 0x1335 DUP3 PUSH2 0x197A JUMP JUMPDEST PUSH1 0x20 DUP3 ADD SWAP1 POP SWAP2 SWAP1 POP JUMP JUMPDEST PUSH1 0x0 PUSH2 0x134D PUSH1 0x16 DUP4 PUSH2 0x16D2 JUMP JUMPDEST SWAP2 POP PUSH2 0x1358 DUP3 PUSH2 0x19A3 JUMP JUMPDEST PUSH1 0x20 DUP3 ADD SWAP1 POP SWAP2 SWAP1 POP JUMP JUMPDEST PUSH1 0x0 PUSH2 0x1370 PUSH1 0x26 DUP4 PUSH2 0x16D2 JUMP JUMPDEST SWAP2 POP PUSH2 0x137B DUP3 PUSH2 0x19CC JUMP JUMPDEST PUSH1 0x40 DUP3 ADD SWAP1 POP SWAP2 SWAP1 POP JUMP JUMPDEST PUSH1 0x0 PUSH2 0x1393 PUSH1 0x12 DUP4 PUSH2 0x16D2 JUMP JUMPDEST SWAP2 POP PUSH2 0x139E DUP3 PUSH2 0x1A1B JUMP JUMPDEST PUSH1 0x20 DUP3 ADD SWAP1 POP SWAP2 SWAP1 POP JUMP JUMPDEST PUSH1 0x0 PUSH2 0x13B6 PUSH1 0x20 DUP4 PUSH2 0x16D2 JUMP JUMPDEST SWAP2 POP PUSH2 0x13C1 DUP3 PUSH2 0x1A44 JUMP JUMPDEST PUSH1 0x20 DUP3 ADD SWAP1 POP SWAP2 SWAP1 POP JUMP JUMPDEST PUSH1 0x0 PUSH2 0x13D9 PUSH1 0x5 DUP4 PUSH2 0x16D2 JUMP JUMPDEST SWAP2 POP PUSH2 0x13E4 DUP3 PUSH2 0x1A6D JUMP JUMPDEST PUSH1 0x20 DUP3 ADD SWAP1 POP SWAP2 SWAP1 POP JUMP JUMPDEST PUSH1 0x0 PUSH2 0x13FC PUSH1 0x13 DUP4 PUSH2 0x16D2 JUMP JUMPDEST SWAP2 POP PUSH2 0x1407 DUP3 PUSH2 0x1A96 JUMP JUMPDEST PUSH1 0x20 DUP3 ADD SWAP1 POP SWAP2 SWAP1 POP JUMP JUMPDEST PUSH2 0x141B DUP2 PUSH2 0x178E JUMP JUMPDEST DUP3 MSTORE POP POP JUMP JUMPDEST PUSH2 0x142A DUP2 PUSH2 0x178E JUMP JUMPDEST DUP3 MSTORE POP POP JUMP JUMPDEST PUSH1 0x0 PUSH2 0x143C DUP3 DUP5 PUSH2 0x12C9 JUMP JUMPDEST SWAP2 POP DUP2 SWAP1 POP SWAP3 SWAP2 POP POP JUMP JUMPDEST PUSH1 0x0 PUSH1 0x20 DUP3 ADD SWAP1 POP PUSH2 0x145C PUSH1 0x0 DUP4 ADD DUP5 PUSH2 0x11C5 JUMP JUMPDEST SWAP3 SWAP2 POP POP JUMP JUMPDEST PUSH1 0x0 PUSH1 0x20 DUP3 ADD SWAP1 POP DUP2 DUP2 SUB PUSH1 0x0 DUP4 ADD MSTORE PUSH2 0x147C DUP2 DUP5 PUSH2 0x11D4 JUMP JUMPDEST SWAP1 POP SWAP3 SWAP2 POP POP JUMP JUMPDEST PUSH1 0x0 PUSH1 0x20 DUP3 ADD SWAP1 POP DUP2 DUP2 SUB PUSH1 0x0 DUP4 ADD MSTORE PUSH2 0x149E DUP2 DUP5 PUSH2 0x1232 JUMP JUMPDEST SWAP1 POP SWAP3 SWAP2 POP POP JUMP JUMPDEST PUSH1 0x0 PUSH1 0x60 DUP3 ADD SWAP1 POP DUP2 DUP2 SUB PUSH1 0x0 DUP4 ADD MSTORE PUSH2 0x14C0 DUP2 DUP7 PUSH2 0x1290 JUMP JUMPDEST SWAP1 POP PUSH2 0x14CF PUSH1 0x20 DUP4 ADD DUP6 PUSH2 0x1421 JUMP JUMPDEST PUSH2 0x14DC PUSH1 0x40 DUP4 ADD DUP5 PUSH2 0x1421 JUMP JUMPDEST SWAP5 SWAP4 POP POP POP POP JUMP JUMPDEST PUSH1 0x0 PUSH1 0x20 DUP3 ADD SWAP1 POP DUP2 DUP2 SUB PUSH1 0x0 DUP4 ADD MSTORE PUSH2 0x14FD DUP2 PUSH2 0x12FA JUMP JUMPDEST SWAP1 POP SWAP2 SWAP1 POP JUMP JUMPDEST PUSH1 0x0 PUSH1 0x20 DUP3 ADD SWAP1 POP DUP2 DUP2 SUB PUSH1 0x0 DUP4 ADD MSTORE PUSH2 0x151D DUP2 PUSH2 0x131D JUMP JUMPDEST SWAP1 POP SWAP2 SWAP1 POP JUMP JUMPDEST PUSH1 0x0 PUSH1 0x20 DUP3 ADD SWAP1 POP DUP2 DUP2 SUB PUSH1 0x0 DUP4 ADD MSTORE PUSH2 0x153D DUP2 PUSH2 0x1340 JUMP JUMPDEST SWAP1 POP SWAP2 SWAP1 POP JUMP JUMPDEST PUSH1 0x0 PUSH1 0x20 DUP3 ADD SWAP1 POP DUP2 DUP2 SUB PUSH1 0x0 DUP4 ADD MSTORE PUSH2 0x155D DUP2 PUSH2 0x1363 JUMP JUMPDEST SWAP1 POP SWAP2 SWAP1 POP JUMP JUMPDEST PUSH1 0x0 PUSH1 0x20 DUP3 ADD SWAP1 POP DUP2 DUP2 SUB PUSH1 0x0 DUP4 ADD MSTORE PUSH2 0x157D DUP2 PUSH2 0x1386 JUMP JUMPDEST SWAP1 POP SWAP2 SWAP1 POP JUMP JUMPDEST PUSH1 0x0 PUSH1 0x20 DUP3 ADD SWAP1 POP DUP2 DUP2 SUB PUSH1 0x0 DUP4 ADD MSTORE PUSH2 0x159D DUP2 PUSH2 0x13A9 JUMP JUMPDEST SWAP1 POP SWAP2 SWAP1 POP JUMP JUMPDEST PUSH1 0x0 PUSH1 0x20 DUP3 ADD SWAP1 POP DUP2 DUP2 SUB PUSH1 0x0 DUP4 ADD MSTORE PUSH2 0x15BD DUP2 PUSH2 0x13CC JUMP JUMPDEST SWAP1 POP SWAP2 SWAP1 POP JUMP JUMPDEST PUSH1 0x0 PUSH1 0x20 DUP3 ADD SWAP1 POP DUP2 DUP2 SUB PUSH1 0x0 DUP4 ADD MSTORE PUSH2 0x15DD DUP2 PUSH2 0x13EF JUMP JUMPDEST SWAP1 POP SWAP2 SWAP1 POP JUMP JUMPDEST PUSH1 0x0 PUSH1 0x20 DUP3 ADD SWAP1 POP PUSH2 0x15F9 PUSH1 0x0 DUP4 ADD DUP5 PUSH2 0x1421 JUMP JUMPDEST SWAP3 SWAP2 POP POP JUMP JUMPDEST PUSH1 0x0 PUSH2 0x1609 PUSH2 0x161A JUMP JUMPDEST SWAP1 POP PUSH2 0x1615 DUP3 DUP3 PUSH2 0x1812 JUMP JUMPDEST SWAP2 SWAP1 POP JUMP JUMPDEST PUSH1 0x0 PUSH1 0x40 MLOAD SWAP1 POP SWAP1 JUMP JUMPDEST PUSH1 0x0 PUSH8 0xFFFFFFFFFFFFFFFF DUP3 GT ISZERO PUSH2 0x163F JUMPI PUSH2 0x163E PUSH2 0x18FD JUMP JUMPDEST JUMPDEST PUSH2 0x1648 DUP3 PUSH2 0x1940 JUMP JUMPDEST SWAP1 POP PUSH1 0x20 DUP2 ADD SWAP1 POP SWAP2 SWAP1 POP JUMP JUMPDEST PUSH1 0x0 DUP2 SWAP1 POP PUSH1 0x20 DUP3 ADD SWAP1 POP SWAP2 SWAP1 POP JUMP JUMPDEST PUSH1 0x0 DUP2 SWAP1 POP PUSH1 0x20 DUP3 ADD SWAP1 POP SWAP2 SWAP1 POP JUMP JUMPDEST PUSH1 0x0 DUP2 MLOAD SWAP1 POP SWAP2 SWAP1 POP JUMP JUMPDEST PUSH1 0x0 DUP2 MLOAD SWAP1 POP SWAP2 SWAP1 POP JUMP JUMPDEST PUSH1 0x0 DUP2 MLOAD SWAP1 POP SWAP2 SWAP1 POP JUMP JUMPDEST PUSH1 0x0 PUSH1 0x20 DUP3 ADD SWAP1 POP SWAP2 SWAP1 POP JUMP JUMPDEST PUSH1 0x0 PUSH1 0x20 DUP3 ADD SWAP1 POP SWAP2 SWAP1 POP JUMP JUMPDEST PUSH1 0x0 DUP3 DUP3 MSTORE PUSH1 0x20 DUP3 ADD SWAP1 POP SWAP3 SWAP2 POP POP JUMP JUMPDEST PUSH1 0x0 DUP3 DUP3 MSTORE PUSH1 0x20 DUP3 ADD SWAP1 POP SWAP3 SWAP2 POP POP JUMP JUMPDEST PUSH1 0x0 DUP3 DUP3 MSTORE PUSH1 0x20 DUP3 ADD SWAP1 POP SWAP3 SWAP2 POP POP JUMP JUMPDEST PUSH1 0x0 DUP2 SWAP1 POP SWAP3 SWAP2 POP POP JUMP JUMPDEST PUSH1 0x0 PUSH2 0x16F9 DUP3 PUSH2 0x178E JUMP JUMPDEST SWAP2 POP PUSH2 0x1704 DUP4 PUSH2 0x178E JUMP JUMPDEST SWAP3 POP DUP3 PUSH4 0xFFFFFFFF SUB DUP3 GT ISZERO PUSH2 0x171D JUMPI PUSH2 0x171C PUSH2 0x1870 JUMP JUMPDEST JUMPDEST DUP3 DUP3 ADD SWAP1 POP SWAP3 SWAP2 POP POP JUMP JUMPDEST PUSH1 0x0 PUSH2 0x1733 DUP3 PUSH2 0x178E JUMP JUMPDEST SWAP2 POP PUSH2 0x173E DUP4 PUSH2 0x178E JUMP JUMPDEST SWAP3 POP DUP3 DUP3 LT ISZERO PUSH2 0x1751 JUMPI PUSH2 0x1750 PUSH2 0x1870 JUMP JUMPDEST JUMPDEST DUP3 DUP3 SUB SWAP1 POP SWAP3 SWAP2 POP POP JUMP JUMPDEST PUSH1 0x0 PUSH2 0x1767 DUP3 PUSH2 0x176E JUMP JUMPDEST SWAP1 POP SWAP2 SWAP1 POP JUMP JUMPDEST PUSH1 0x0 PUSH20 0xFFFFFFFFFFFFFFFFFFFFFFFFFFFFFFFFFFFFFFFF DUP3 AND SWAP1 POP SWAP2 SWAP1 POP JUMP JUMPDEST PUSH1 0x0 PUSH4 0xFFFFFFFF DUP3 AND SWAP1 POP SWAP2 SWAP1 POP JUMP JUMPDEST DUP3 DUP2 DUP4 CALLDATACOPY PUSH1 0x0 DUP4 DUP4 ADD MSTORE POP POP POP JUMP JUMPDEST PUSH1 0x0 JUMPDEST DUP4 DUP2 LT ISZERO PUSH2 0x17CB JUMPI DUP1 DUP3 ADD MLOAD DUP2 DUP5 ADD MSTORE PUSH1 0x20 DUP2 ADD SWAP1 POP PUSH2 0x17B0 JUMP JUMPDEST DUP4 DUP2 GT ISZERO PUSH2 0x17DA JUMPI PUSH1 0x0 DUP5 DUP5 ADD MSTORE JUMPDEST POP POP POP POP JUMP JUMPDEST PUSH1 0x0 PUSH1 0x2 DUP3 DIV SWAP1 POP PUSH1 0x1 DUP3 AND DUP1 PUSH2 0x17F8 JUMPI PUSH1 0x7F DUP3 AND SWAP2 POP JUMPDEST PUSH1 0x20 DUP3 LT DUP2 EQ ISZERO PUSH2 0x180C JUMPI PUSH2 0x180B PUSH2 0x189F JUMP JUMPDEST JUMPDEST POP SWAP2 SWAP1 POP JUMP JUMPDEST PUSH2 0x181B DUP3 PUSH2 0x1940 JUMP JUMPDEST DUP2 ADD DUP2 DUP2 LT PUSH8 0xFFFFFFFFFFFFFFFF DUP3 GT OR ISZERO PUSH2 0x183A JUMPI PUSH2 0x1839 PUSH2 0x18FD JUMP JUMPDEST JUMPDEST DUP1 PUSH1 0x40 MSTORE POP POP POP JUMP JUMPDEST PUSH1 0x0 PUSH2 0x184E DUP3 PUSH2 0x178E JUMP JUMPDEST SWAP2 POP PUSH4 0xFFFFFFFF DUP3 EQ ISZERO PUSH2 0x1865 JUMPI PUSH2 0x1864 PUSH2 0x1870 JUMP JUMPDEST JUMPDEST PUSH1 0x1 DUP3 ADD SWAP1 POP SWAP2 SWAP1 POP JUMP JUMPDEST PUSH32 0x4E487B7100000000000000000000000000000000000000000000000000000000 PUSH1 0x0 MSTORE PUSH1 0x11 PUSH1 0x4 MSTORE PUSH1 0x24 PUSH1 0x0 REVERT JUMPDEST PUSH32 0x4E487B7100000000000000000000000000000000000000000000000000000000 PUSH1 0x0 MSTORE PUSH1 0x22 PUSH1 0x4 MSTORE PUSH1 0x24 PUSH1 0x0 REVERT JUMPDEST PUSH32 0x4E487B7100000000000000000000000000000000000000000000000000000000 PUSH1 0x0 MSTORE PUSH1 0x32 PUSH1 0x4 MSTORE PUSH1 0x24 PUSH1 0x0 REVERT JUMPDEST PUSH32 0x4E487B7100000000000000000000000000000000000000000000000000000000 PUSH1 0x0 MSTORE PUSH1 0x41 PUSH1 0x4 MSTORE PUSH1 0x24 PUSH1 0x0 REVERT JUMPDEST PUSH1 0x0 DUP1 REVERT JUMPDEST PUSH1 0x0 DUP1 REVERT JUMPDEST PUSH1 0x0 DUP1 REVERT JUMPDEST PUSH1 0x0 DUP1 REVERT JUMPDEST PUSH1 0x0 PUSH1 0x1F NOT PUSH1 0x1F DUP4 ADD AND SWAP1 POP SWAP2 SWAP1 POP JUMP JUMPDEST PUSH32 0x4E616D652063616E6E6F7420626520656D707479000000000000000000000000 PUSH1 0x0 DUP3 ADD MSTORE POP JUMP JUMPDEST PUSH32 0x426F6F6B20697320617661696C61626C65000000000000000000000000000000 PUSH1 0x0 DUP3 ADD MSTORE POP JUMP JUMPDEST PUSH32 0x426F6F6B20697320616C72656164792069737375656400000000000000000000 PUSH1 0x0 DUP3 ADD MSTORE POP JUMP JUMPDEST PUSH32 0x4F776E61626C653A206E6577206F776E657220697320746865207A65726F2061 PUSH1 0x0 DUP3 ADD MSTORE PUSH32 0x6464726573730000000000000000000000000000000000000000000000000000 PUSH1 0x20 DUP3 ADD MSTORE POP JUMP JUMPDEST PUSH32 0x426F6F6B206973206E6F74206973737565640000000000000000000000000000 PUSH1 0x0 DUP3 ADD MSTORE POP JUMP JUMPDEST PUSH32 0x4F776E61626C653A2063616C6C6572206973206E6F7420746865206F776E6572 PUSH1 0x0 DUP3 ADD MSTORE POP JUMP JUMPDEST PUSH32 0x217A65726F000000000000000000000000000000000000000000000000000000 PUSH1 0x0 DUP3 ADD MSTORE POP JUMP JUMPDEST PUSH32 0x426F6F6B20646F6573206E6F7420657869737400000000000000000000000000 PUSH1 0x0 DUP3 ADD MSTORE POP JUMP JUMPDEST PUSH2 0x1AC8 DUP2 PUSH2 0x175C JUMP JUMPDEST DUP2 EQ PUSH2 0x1AD3 JUMPI PUSH1 0x0 DUP1 REVERT JUMPDEST POP JUMP JUMPDEST PUSH2 0x1ADF DUP2 PUSH2 0x178E JUMP JUMPDEST DUP2 EQ PUSH2 0x1AEA JUMPI PUSH1 0x0 DUP1 REVERT JUMPDEST POP JUMP INVALID LOG2 PUSH5 0x6970667358 0x22 SLT KECCAK256 0xD9 0xFC 0x4F 0x4B SWAP8 SMOD DUP2 DIFFICULTY LOG2 CREATE2 SMOD DUP3 SGT GAS 0xD6 0xC5 0xF8 PUSH3 0xC62F3 0xB5 DUP13 0x28 0xB1 PC LOG4 PUSH22 0x6E3E4D0964736F6C6343000807003300000000000000 "
				},
				"gasEstimates": {
					"creation": {
						"codeDepositCost": "1389400",
						"executionCost": "infinite",
						"totalCost": "infinite"
					},
					"external": {
						"BookLedger(uint32)": "infinite",
						"addBook(string,uint32)": "infinite",
						"addBookCopies(uint32,uint32)": "infinite",
						"bookCount()": "2493",
						"borrowBook(uint32)": "infinite",
						"getAllAvailableBooks()": "infinite",
						"getOwnerHistoryOfBook(uint32)": "infinite",
						"owner()": "2522",
						"renounceOwnership()": "30465",
						"returnBook(uint32)": "infinite",
						"transferOwnership(address)": "30813"
					}
				},
				"methodIdentifiers": {
					"BookLedger(uint32)": "5d70b491",
					"addBook(string,uint32)": "bdaa3c1e",
					"addBookCopies(uint32,uint32)": "fef4c92a",
					"bookCount()": "b905ad78",
					"borrowBook(uint32)": "48569e59",
					"getAllAvailableBooks()": "f4cbc4a6",
					"getOwnerHistoryOfBook(uint32)": "87e97de2",
					"owner()": "8da5cb5b",
					"renounceOwnership()": "715018a6",
					"returnBook(uint32)": "422d2629",
					"transferOwnership(address)": "f2fde38b"
				}
			},
			"storageLayout": {
				"storage": [
					{
						"astId": 7,
						"contract": "contracts/Library.sol:Library",
						"label": "_owner",
						"offset": 0,
						"slot": "0",
						"type": "t_address"
					},
					{
						"astId": 153,
						"contract": "contracts/Library.sol:Library",
						"label": "myBook",
						"offset": 0,
						"slot": "1",
						"type": "t_struct(Book)150_storage"
					},
					{
						"astId": 155,
						"contract": "contracts/Library.sol:Library",
						"label": "bookCount",
						"offset": 0,
						"slot": "4",
						"type": "t_uint32"
					},
					{
						"astId": 159,
						"contract": "contracts/Library.sol:Library",
						"label": "isAvailable",
						"offset": 0,
						"slot": "5",
						"type": "t_mapping(t_string_memory_ptr,t_bool)"
					},
					{
						"astId": 164,
						"contract": "contracts/Library.sol:Library",
						"label": "BookLedger",
						"offset": 0,
						"slot": "6",
						"type": "t_mapping(t_uint32,t_struct(Book)150_storage)"
					},
					{
						"astId": 170,
						"contract": "contracts/Library.sol:Library",
						"label": "isAlreadyIssued",
						"offset": 0,
						"slot": "7",
						"type": "t_mapping(t_address,t_mapping(t_uint256,t_bool))"
					}
				],
				"types": {
					"t_address": {
						"encoding": "inplace",
						"label": "address",
						"numberOfBytes": "20"
					},
					"t_bool": {
						"encoding": "inplace",
						"label": "bool",
						"numberOfBytes": "1"
					},
					"t_mapping(t_address,t_mapping(t_uint256,t_bool))": {
						"encoding": "mapping",
						"key": "t_address",
						"label": "mapping(address => mapping(uint256 => bool))",
						"numberOfBytes": "32",
						"value": "t_mapping(t_uint256,t_bool)"
					},
					"t_mapping(t_string_memory_ptr,t_bool)": {
						"encoding": "mapping",
						"key": "t_string_memory_ptr",
						"label": "mapping(string => bool)",
						"numberOfBytes": "32",
						"value": "t_bool"
					},
					"t_mapping(t_uint256,t_address)": {
						"encoding": "mapping",
						"key": "t_uint256",
						"label": "mapping(uint256 => address)",
						"numberOfBytes": "32",
						"value": "t_address"
					},
					"t_mapping(t_uint256,t_bool)": {
						"encoding": "mapping",
						"key": "t_uint256",
						"label": "mapping(uint256 => bool)",
						"numberOfBytes": "32",
						"value": "t_bool"
					},
					"t_mapping(t_uint32,t_struct(Book)150_storage)": {
						"encoding": "mapping",
						"key": "t_uint32",
						"label": "mapping(uint32 => struct Library.Book)",
						"numberOfBytes": "32",
						"value": "t_struct(Book)150_storage"
					},
					"t_string_memory_ptr": {
						"encoding": "bytes",
						"label": "string",
						"numberOfBytes": "32"
					},
					"t_string_storage": {
						"encoding": "bytes",
						"label": "string",
						"numberOfBytes": "32"
					},
					"t_struct(Book)150_storage": {
						"encoding": "inplace",
						"label": "struct Library.Book",
						"members": [
							{
								"astId": 141,
								"contract": "contracts/Library.sol:Library",
								"label": "name",
								"offset": 0,
								"slot": "0",
								"type": "t_string_storage"
							},
							{
								"astId": 143,
								"contract": "contracts/Library.sol:Library",
								"label": "copies",
								"offset": 0,
								"slot": "1",
								"type": "t_uint32"
							},
							{
								"astId": 145,
								"contract": "contracts/Library.sol:Library",
								"label": "ownerCount",
								"offset": 4,
								"slot": "1",
								"type": "t_uint32"
							},
							{
								"astId": 149,
								"contract": "contracts/Library.sol:Library",
								"label": "ownersHistory",
								"offset": 0,
								"slot": "2",
								"type": "t_mapping(t_uint256,t_address)"
							}
						],
						"numberOfBytes": "96"
					},
					"t_uint256": {
						"encoding": "inplace",
						"label": "uint256",
						"numberOfBytes": "32"
					},
					"t_uint32": {
						"encoding": "inplace",
						"label": "uint32",
						"numberOfBytes": "4"
					}
				}
			},
			"userdoc": {
				"kind": "user",
				"methods": {},
				"version": 1
			}
		}
	}
}