{
	"contracts/Library.sol": {
		"Library": {
			"abi": [
				{
					"anonymous": false,
					"inputs": [
						{
							"indexed": true,
							"internalType": "address",
							"name": "previousOwner",
							"type": "address"
						},
						{
							"indexed": true,
							"internalType": "address",
							"name": "newOwner",
							"type": "address"
						}
					],
					"name": "OwnershipTransferred",
					"type": "event"
				},
				{
					"inputs": [
						{
							"internalType": "uint256",
							"name": "",
							"type": "uint256"
						}
					],
					"name": "BookLedger",
					"outputs": [
						{
							"internalType": "string",
							"name": "name",
							"type": "string"
						},
						{
							"internalType": "uint256",
							"name": "copies",
							"type": "uint256"
						}
					],
					"stateMutability": "view",
					"type": "function"
				},
				{
					"inputs": [
						{
							"internalType": "string",
							"name": "_name",
							"type": "string"
						},
						{
							"internalType": "uint256",
							"name": "_copies",
							"type": "uint256"
						}
					],
					"name": "addBook",
					"outputs": [],
					"stateMutability": "nonpayable",
					"type": "function"
				},
				{
					"inputs": [
						{
							"internalType": "uint256",
							"name": "_bookId",
							"type": "uint256"
						},
						{
							"internalType": "uint256",
							"name": "_copies",
							"type": "uint256"
						}
					],
					"name": "addBookCopies",
					"outputs": [],
					"stateMutability": "nonpayable",
					"type": "function"
				},
				{
					"inputs": [],
					"name": "bookCount",
					"outputs": [
						{
							"internalType": "uint256",
							"name": "",
							"type": "uint256"
						}
					],
					"stateMutability": "view",
					"type": "function"
				},
				{
					"inputs": [],
					"name": "owner",
					"outputs": [
						{
							"internalType": "address",
							"name": "",
							"type": "address"
						}
					],
					"stateMutability": "view",
					"type": "function"
				},
				{
					"inputs": [],
					"name": "renounceOwnership",
					"outputs": [],
					"stateMutability": "nonpayable",
					"type": "function"
				},
				{
					"inputs": [
						{
							"internalType": "address",
							"name": "newOwner",
							"type": "address"
						}
					],
					"name": "transferOwnership",
					"outputs": [],
					"stateMutability": "nonpayable",
					"type": "function"
				}
			],
			"devdoc": {
				"kind": "dev",
				"methods": {
					"owner()": {
						"details": "Returns the address of the current owner."
					},
					"renounceOwnership()": {
						"details": "Leaves the contract without owner. It will not be possible to call `onlyOwner` functions anymore. Can only be called by the current owner. NOTE: Renouncing ownership will leave the contract without an owner, thereby removing any functionality that is only available to the owner."
					},
					"transferOwnership(address)": {
						"details": "Transfers ownership of the contract to a new account (`newOwner`). Can only be called by the current owner."
					}
				},
				"version": 1
			},
			"evm": {
				"assembly": "    /* \"contracts/Library.sol\":84:1256  contract Library is Ownable{\r... */\n  mstore(0x40, 0x80)\n  callvalue\n  dup1\n  iszero\n  tag_1\n  jumpi\n  0x00\n  dup1\n  revert\ntag_1:\n  pop\n    /* \"@openzeppelin/contracts/access/Ownable.sol\":936:968  _transferOwnership(_msgSender()) */\n  tag_4\n    /* \"@openzeppelin/contracts/access/Ownable.sol\":955:967  _msgSender() */\n  tag_5\n    /* \"@openzeppelin/contracts/access/Ownable.sol\":955:965  _msgSender */\n  shl(0x20, tag_6)\n    /* \"@openzeppelin/contracts/access/Ownable.sol\":955:967  _msgSender() */\n  0x20\n  shr\n  jump\t// in\ntag_5:\n    /* \"@openzeppelin/contracts/access/Ownable.sol\":936:954  _transferOwnership */\n  shl(0x20, tag_7)\n    /* \"@openzeppelin/contracts/access/Ownable.sol\":936:968  _transferOwnership(_msgSender()) */\n  0x20\n  shr\n  jump\t// in\ntag_4:\n    /* \"contracts/Library.sol\":84:1256  contract Library is Ownable{\r... */\n  jump(tag_8)\n    /* \"@openzeppelin/contracts/utils/Context.sol\":640:736  function _msgSender() internal view virtual returns (address) {... */\ntag_6:\n    /* \"@openzeppelin/contracts/utils/Context.sol\":693:700  address */\n  0x00\n    /* \"@openzeppelin/contracts/utils/Context.sol\":719:729  msg.sender */\n  caller\n    /* \"@openzeppelin/contracts/utils/Context.sol\":712:729  return msg.sender */\n  swap1\n  pop\n    /* \"@openzeppelin/contracts/utils/Context.sol\":640:736  function _msgSender() internal view virtual returns (address) {... */\n  swap1\n  jump\t// out\n    /* \"@openzeppelin/contracts/access/Ownable.sol\":2433:2620  function _transferOwnership(address newOwner) internal virtual {... */\ntag_7:\n    /* \"@openzeppelin/contracts/access/Ownable.sol\":2506:2522  address oldOwner */\n  0x00\n    /* \"@openzeppelin/contracts/access/Ownable.sol\":2525:2531  _owner */\n  dup1\n  0x00\n  swap1\n  sload\n  swap1\n  0x0100\n  exp\n  swap1\n  div\n  0xffffffffffffffffffffffffffffffffffffffff\n  and\n    /* \"@openzeppelin/contracts/access/Ownable.sol\":2506:2531  address oldOwner = _owner */\n  swap1\n  pop\n    /* \"@openzeppelin/contracts/access/Ownable.sol\":2550:2558  newOwner */\n  dup2\n    /* \"@openzeppelin/contracts/access/Ownable.sol\":2541:2547  _owner */\n  0x00\n  dup1\n    /* \"@openzeppelin/contracts/access/Ownable.sol\":2541:2558  _owner = newOwner */\n  0x0100\n  exp\n  dup2\n  sload\n  dup2\n  0xffffffffffffffffffffffffffffffffffffffff\n  mul\n  not\n  and\n  swap1\n  dup4\n  0xffffffffffffffffffffffffffffffffffffffff\n  and\n  mul\n  or\n  swap1\n  sstore\n  pop\n    /* \"@openzeppelin/contracts/access/Ownable.sol\":2604:2612  newOwner */\n  dup2\n    /* \"@openzeppelin/contracts/access/Ownable.sol\":2573:2613  OwnershipTransferred(oldOwner, newOwner) */\n  0xffffffffffffffffffffffffffffffffffffffff\n  and\n    /* \"@openzeppelin/contracts/access/Ownable.sol\":2594:2602  oldOwner */\n  dup2\n    /* \"@openzeppelin/contracts/access/Ownable.sol\":2573:2613  OwnershipTransferred(oldOwner, newOwner) */\n  0xffffffffffffffffffffffffffffffffffffffff\n  and\n  0x8be0079c531659141344cd1fd0a4f28419497f9722a3daafe3b4186f6b6457e0\n  mload(0x40)\n  mload(0x40)\n  dup1\n  swap2\n  sub\n  swap1\n  log3\n    /* \"@openzeppelin/contracts/access/Ownable.sol\":2496:2620  {... */\n  pop\n    /* \"@openzeppelin/contracts/access/Ownable.sol\":2433:2620  function _transferOwnership(address newOwner) internal virtual {... */\n  pop\n  jump\t// out\n    /* \"contracts/Library.sol\":84:1256  contract Library is Ownable{\r... */\ntag_8:\n  dataSize(sub_0)\n  dup1\n  dataOffset(sub_0)\n  0x00\n  codecopy\n  0x00\n  return\nstop\n\nsub_0: assembly {\n        /* \"contracts/Library.sol\":84:1256  contract Library is Ownable{\r... */\n      mstore(0x40, 0x80)\n      callvalue\n      dup1\n      iszero\n      tag_1\n      jumpi\n      0x00\n      dup1\n      revert\n    tag_1:\n      pop\n      jumpi(tag_2, lt(calldatasize, 0x04))\n      shr(0xe0, calldataload(0x00))\n      dup1\n      0x7975c6b4\n      gt\n      tag_10\n      jumpi\n      dup1\n      0x7975c6b4\n      eq\n      tag_6\n      jumpi\n      dup1\n      0x8da5cb5b\n      eq\n      tag_7\n      jumpi\n      dup1\n      0xb905ad78\n      eq\n      tag_8\n      jumpi\n      dup1\n      0xf2fde38b\n      eq\n      tag_9\n      jumpi\n      jump(tag_2)\n    tag_10:\n      dup1\n      0x60f9eefc\n      eq\n      tag_3\n      jumpi\n      dup1\n      0x637a3872\n      eq\n      tag_4\n      jumpi\n      dup1\n      0x715018a6\n      eq\n      tag_5\n      jumpi\n    tag_2:\n      0x00\n      dup1\n      revert\n        /* \"contracts/Library.sol\":946:1253  function addBookCopies(uint256 _bookId, uint256 _copies)\r... */\n    tag_3:\n      tag_11\n      0x04\n      dup1\n      calldatasize\n      sub\n      dup2\n      add\n      swap1\n      tag_12\n      swap2\n      swap1\n      tag_13\n      jump\t// in\n    tag_12:\n      tag_14\n      jump\t// in\n    tag_11:\n      stop\n        /* \"contracts/Library.sol\":538:936  function addBook(string memory _name, uint256 _copies)\r... */\n    tag_4:\n      tag_15\n      0x04\n      dup1\n      calldatasize\n      sub\n      dup2\n      add\n      swap1\n      tag_16\n      swap2\n      swap1\n      tag_17\n      jump\t// in\n    tag_16:\n      tag_18\n      jump\t// in\n    tag_15:\n      stop\n        /* \"@openzeppelin/contracts/access/Ownable.sol\":1831:1932  function renounceOwnership() public virtual onlyOwner {... */\n    tag_5:\n      tag_19\n      tag_20\n      jump\t// in\n    tag_19:\n      stop\n        /* \"contracts/Library.sol\":348:390  mapping(uint256 => Book) public BookLedger */\n    tag_6:\n      tag_21\n      0x04\n      dup1\n      calldatasize\n      sub\n      dup2\n      add\n      swap1\n      tag_22\n      swap2\n      swap1\n      tag_23\n      jump\t// in\n    tag_22:\n      tag_24\n      jump\t// in\n    tag_21:\n      mload(0x40)\n      tag_25\n      swap3\n      swap2\n      swap1\n      tag_26\n      jump\t// in\n    tag_25:\n      mload(0x40)\n      dup1\n      swap2\n      sub\n      swap1\n      return\n        /* \"@openzeppelin/contracts/access/Ownable.sol\":1201:1286  function owner() public view virtual returns (address) {... */\n    tag_7:\n      tag_27\n      tag_28\n      jump\t// in\n    tag_27:\n      mload(0x40)\n      tag_29\n      swap2\n      swap1\n      tag_30\n      jump\t// in\n    tag_29:\n      mload(0x40)\n      dup1\n      swap2\n      sub\n      swap1\n      return\n        /* \"contracts/Library.sol\":265:289  uint256 public bookCount */\n    tag_8:\n      tag_31\n      tag_32\n      jump\t// in\n    tag_31:\n      mload(0x40)\n      tag_33\n      swap2\n      swap1\n      tag_34\n      jump\t// in\n    tag_33:\n      mload(0x40)\n      dup1\n      swap2\n      sub\n      swap1\n      return\n        /* \"@openzeppelin/contracts/access/Ownable.sol\":2081:2279  function transferOwnership(address newOwner) public virtual onlyOwner {... */\n    tag_9:\n      tag_35\n      0x04\n      dup1\n      calldatasize\n      sub\n      dup2\n      add\n      swap1\n      tag_36\n      swap2\n      swap1\n      tag_37\n      jump\t// in\n    tag_36:\n      tag_38\n      jump\t// in\n    tag_35:\n      stop\n        /* \"contracts/Library.sol\":946:1253  function addBookCopies(uint256 _bookId, uint256 _copies)\r... */\n    tag_14:\n        /* \"@openzeppelin/contracts/access/Ownable.sol\":1094:1107  _checkOwner() */\n      tag_40\n        /* \"@openzeppelin/contracts/access/Ownable.sol\":1094:1105  _checkOwner */\n      tag_41\n        /* \"@openzeppelin/contracts/access/Ownable.sol\":1094:1107  _checkOwner() */\n      jump\t// in\n    tag_40:\n        /* \"contracts/Library.sol\":1074:1075  0 */\n      0x00\n        /* \"contracts/Library.sol\":1064:1071  _copies */\n      dup2\n        /* \"contracts/Library.sol\":1064:1075  _copies > 0 */\n      gt\n        /* \"contracts/Library.sol\":1056:1085  require(_copies > 0, \"!zero\") */\n      tag_43\n      jumpi\n      mload(0x40)\n      0x08c379a000000000000000000000000000000000000000000000000000000000\n      dup2\n      mstore\n      0x04\n      add\n      tag_44\n      swap1\n      tag_45\n      jump\t// in\n    tag_44:\n      mload(0x40)\n      dup1\n      swap2\n      sub\n      swap1\n      revert\n    tag_43:\n        /* \"contracts/Library.sol\":1096:1113  Book storage book */\n      0x00\n        /* \"contracts/Library.sol\":1116:1126  BookLedger */\n      0x06\n        /* \"contracts/Library.sol\":1116:1135  BookLedger[_bookId] */\n      0x00\n        /* \"contracts/Library.sol\":1127:1134  _bookId */\n      dup5\n        /* \"contracts/Library.sol\":1116:1135  BookLedger[_bookId] */\n      dup2\n      mstore\n      0x20\n      add\n      swap1\n      dup2\n      mstore\n      0x20\n      add\n      0x00\n      keccak256\n        /* \"contracts/Library.sol\":1096:1135  Book storage book = BookLedger[_bookId] */\n      swap1\n      pop\n        /* \"contracts/Library.sol\":1181:1182  0 */\n      0x00\n        /* \"contracts/Library.sol\":1160:1164  book */\n      dup2\n        /* \"contracts/Library.sol\":1160:1169  book.name */\n      0x00\n      add\n        /* \"contracts/Library.sol\":1154:1177  bytes(book.name).length */\n      dup1\n      sload\n      tag_46\n      swap1\n      tag_47\n      jump\t// in\n    tag_46:\n      swap1\n      pop\n        /* \"contracts/Library.sol\":1154:1182  bytes(book.name).length != 0 */\n      eq\n      iszero\n        /* \"contracts/Library.sol\":1146:1206  require(bytes(book.name).length != 0, \"Book does not exist\") */\n      tag_48\n      jumpi\n      mload(0x40)\n      0x08c379a000000000000000000000000000000000000000000000000000000000\n      dup2\n      mstore\n      0x04\n      add\n      tag_49\n      swap1\n      tag_50\n      jump\t// in\n    tag_49:\n      mload(0x40)\n      dup1\n      swap2\n      sub\n      swap1\n      revert\n    tag_48:\n        /* \"contracts/Library.sol\":1244:1245  1 */\n      0x01\n        /* \"contracts/Library.sol\":1231:1235  book */\n      dup2\n        /* \"contracts/Library.sol\":1231:1242  book.copies */\n      0x01\n      add\n      0x00\n        /* \"contracts/Library.sol\":1231:1245  book.copies+=1 */\n      dup3\n      dup3\n      sload\n      tag_51\n      swap2\n      swap1\n      tag_52\n      jump\t// in\n    tag_51:\n      swap3\n      pop\n      pop\n      dup2\n      swap1\n      sstore\n        /* \"contracts/Library.sol\":1217:1221  book */\n      dup2\n        /* \"contracts/Library.sol\":1217:1228  book.copies */\n      0x01\n      add\n        /* \"contracts/Library.sol\":1217:1245  book.copies = book.copies+=1 */\n      dup2\n      swap1\n      sstore\n      pop\n        /* \"contracts/Library.sol\":1045:1253  {\r... */\n      pop\n        /* \"contracts/Library.sol\":946:1253  function addBookCopies(uint256 _bookId, uint256 _copies)\r... */\n      pop\n      pop\n      jump\t// out\n        /* \"contracts/Library.sol\":538:936  function addBook(string memory _name, uint256 _copies)\r... */\n    tag_18:\n        /* \"@openzeppelin/contracts/access/Ownable.sol\":1094:1107  _checkOwner() */\n      tag_54\n        /* \"@openzeppelin/contracts/access/Ownable.sol\":1094:1105  _checkOwner */\n      tag_41\n        /* \"@openzeppelin/contracts/access/Ownable.sol\":1094:1107  _checkOwner() */\n      jump\t// in\n    tag_54:\n        /* \"contracts/Library.sol\":656:661  _name */\n      dup2\n        /* \"contracts/Library.sol\":466:477  isAvailable */\n      0x05\n        /* \"contracts/Library.sol\":478:483  _name */\n      dup2\n        /* \"contracts/Library.sol\":466:484  isAvailable[_name] */\n      mload(0x40)\n      tag_56\n      swap2\n      swap1\n      tag_57\n      jump\t// in\n    tag_56:\n      swap1\n      dup2\n      mstore\n      0x20\n      add\n      mload(0x40)\n      dup1\n      swap2\n      sub\n      swap1\n      keccak256\n      0x00\n      swap1\n      sload\n      swap1\n      0x0100\n      exp\n      swap1\n      div\n      0xff\n      and\n        /* \"contracts/Library.sol\":465:484  !isAvailable[_name] */\n      iszero\n        /* \"contracts/Library.sol\":457:506  require(!isAvailable[_name], \"Book is available\") */\n      tag_58\n      jumpi\n      mload(0x40)\n      0x08c379a000000000000000000000000000000000000000000000000000000000\n      dup2\n      mstore\n      0x04\n      add\n      tag_59\n      swap1\n      tag_60\n      jump\t// in\n    tag_59:\n      mload(0x40)\n      dup1\n      swap2\n      sub\n      swap1\n      revert\n    tag_58:\n        /* \"contracts/Library.sol\":710:711  0 */\n      0x00\n        /* \"contracts/Library.sol\":693:698  _name */\n      dup4\n        /* \"contracts/Library.sol\":687:706  bytes(_name).length */\n      mload\n        /* \"contracts/Library.sol\":687:711  bytes(_name).length != 0 */\n      eq\n      iszero\n        /* \"contracts/Library.sol\":679:736  require(bytes(_name).length != 0, \"Name cannot be empty\") */\n      tag_62\n      jumpi\n      mload(0x40)\n      0x08c379a000000000000000000000000000000000000000000000000000000000\n      dup2\n      mstore\n      0x04\n      add\n      tag_63\n      swap1\n      tag_64\n      jump\t// in\n    tag_63:\n      mload(0x40)\n      dup1\n      swap2\n      sub\n      swap1\n      revert\n    tag_62:\n        /* \"contracts/Library.sol\":768:772  true */\n      0x01\n        /* \"contracts/Library.sol\":747:758  isAvailable */\n      0x05\n        /* \"contracts/Library.sol\":759:764  _name */\n      dup5\n        /* \"contracts/Library.sol\":747:765  isAvailable[_name] */\n      mload(0x40)\n      tag_65\n      swap2\n      swap1\n      tag_57\n      jump\t// in\n    tag_65:\n      swap1\n      dup2\n      mstore\n      0x20\n      add\n      mload(0x40)\n      dup1\n      swap2\n      sub\n      swap1\n      keccak256\n      0x00\n        /* \"contracts/Library.sol\":747:772  isAvailable[_name] = true */\n      0x0100\n      exp\n      dup2\n      sload\n      dup2\n      0xff\n      mul\n      not\n      and\n      swap1\n      dup4\n      iszero\n      iszero\n      mul\n      or\n      swap1\n      sstore\n      pop\n        /* \"contracts/Library.sol\":783:798  uint256 _bookId */\n      0x00\n        /* \"contracts/Library.sol\":810:811  1 */\n      0x01\n        /* \"contracts/Library.sol\":801:811  _copies+=1 */\n      dup4\n      tag_66\n      swap2\n      swap1\n      tag_52\n      jump\t// in\n    tag_66:\n      swap3\n      pop\n      dup3\n        /* \"contracts/Library.sol\":783:811  uint256 _bookId = _copies+=1 */\n      swap1\n      pop\n        /* \"contracts/Library.sol\":822:839  Book storage book */\n      0x00\n        /* \"contracts/Library.sol\":842:852  BookLedger */\n      0x06\n        /* \"contracts/Library.sol\":842:861  BookLedger[_bookId] */\n      0x00\n        /* \"contracts/Library.sol\":853:860  _bookId */\n      dup4\n        /* \"contracts/Library.sol\":842:861  BookLedger[_bookId] */\n      dup2\n      mstore\n      0x20\n      add\n      swap1\n      dup2\n      mstore\n      0x20\n      add\n      0x00\n      keccak256\n        /* \"contracts/Library.sol\":822:861  Book storage book = BookLedger[_bookId] */\n      swap1\n      pop\n        /* \"contracts/Library.sol\":884:889  _name */\n      dup5\n        /* \"contracts/Library.sol\":872:876  book */\n      dup2\n        /* \"contracts/Library.sol\":872:881  book.name */\n      0x00\n      add\n        /* \"contracts/Library.sol\":872:889  book.name = _name */\n      swap1\n      dup1\n      mload\n      swap1\n      0x20\n      add\n      swap1\n      tag_67\n      swap3\n      swap2\n      swap1\n      tag_68\n      jump\t// in\n    tag_67:\n      pop\n        /* \"contracts/Library.sol\":914:921  _copies */\n      dup4\n        /* \"contracts/Library.sol\":900:904  book */\n      dup2\n        /* \"contracts/Library.sol\":900:911  book.copies */\n      0x01\n      add\n        /* \"contracts/Library.sol\":900:921  book.copies = _copies */\n      dup2\n      swap1\n      sstore\n      pop\n        /* \"contracts/Library.sol\":668:936  {\r... */\n      pop\n      pop\n        /* \"@openzeppelin/contracts/access/Ownable.sol\":1117:1118  _ */\n      pop\n        /* \"contracts/Library.sol\":538:936  function addBook(string memory _name, uint256 _copies)\r... */\n      pop\n      pop\n      jump\t// out\n        /* \"@openzeppelin/contracts/access/Ownable.sol\":1831:1932  function renounceOwnership() public virtual onlyOwner {... */\n    tag_20:\n        /* \"@openzeppelin/contracts/access/Ownable.sol\":1094:1107  _checkOwner() */\n      tag_70\n        /* \"@openzeppelin/contracts/access/Ownable.sol\":1094:1105  _checkOwner */\n      tag_41\n        /* \"@openzeppelin/contracts/access/Ownable.sol\":1094:1107  _checkOwner() */\n      jump\t// in\n    tag_70:\n        /* \"@openzeppelin/contracts/access/Ownable.sol\":1895:1925  _transferOwnership(address(0)) */\n      tag_72\n        /* \"@openzeppelin/contracts/access/Ownable.sol\":1922:1923  0 */\n      0x00\n        /* \"@openzeppelin/contracts/access/Ownable.sol\":1895:1913  _transferOwnership */\n      tag_73\n        /* \"@openzeppelin/contracts/access/Ownable.sol\":1895:1925  _transferOwnership(address(0)) */\n      jump\t// in\n    tag_72:\n        /* \"@openzeppelin/contracts/access/Ownable.sol\":1831:1932  function renounceOwnership() public virtual onlyOwner {... */\n      jump\t// out\n        /* \"contracts/Library.sol\":348:390  mapping(uint256 => Book) public BookLedger */\n    tag_24:\n      mstore(0x20, 0x06)\n      dup1\n      0x00\n      mstore\n      keccak256(0x00, 0x40)\n      0x00\n      swap2\n      pop\n      swap1\n      pop\n      dup1\n      0x00\n      add\n      dup1\n      sload\n      tag_74\n      swap1\n      tag_47\n      jump\t// in\n    tag_74:\n      dup1\n      0x1f\n      add\n      0x20\n      dup1\n      swap2\n      div\n      mul\n      0x20\n      add\n      mload(0x40)\n      swap1\n      dup2\n      add\n      0x40\n      mstore\n      dup1\n      swap3\n      swap2\n      swap1\n      dup2\n      dup2\n      mstore\n      0x20\n      add\n      dup3\n      dup1\n      sload\n      tag_75\n      swap1\n      tag_47\n      jump\t// in\n    tag_75:\n      dup1\n      iszero\n      tag_76\n      jumpi\n      dup1\n      0x1f\n      lt\n      tag_77\n      jumpi\n      0x0100\n      dup1\n      dup4\n      sload\n      div\n      mul\n      dup4\n      mstore\n      swap2\n      0x20\n      add\n      swap2\n      jump(tag_76)\n    tag_77:\n      dup3\n      add\n      swap2\n      swap1\n      0x00\n      mstore\n      keccak256(0x00, 0x20)\n      swap1\n    tag_78:\n      dup2\n      sload\n      dup2\n      mstore\n      swap1\n      0x01\n      add\n      swap1\n      0x20\n      add\n      dup1\n      dup4\n      gt\n      tag_78\n      jumpi\n      dup3\n      swap1\n      sub\n      0x1f\n      and\n      dup3\n      add\n      swap2\n    tag_76:\n      pop\n      pop\n      pop\n      pop\n      pop\n      swap1\n      dup1\n      0x01\n      add\n      sload\n      swap1\n      pop\n      dup3\n      jump\t// out\n        /* \"@openzeppelin/contracts/access/Ownable.sol\":1201:1286  function owner() public view virtual returns (address) {... */\n    tag_28:\n        /* \"@openzeppelin/contracts/access/Ownable.sol\":1247:1254  address */\n      0x00\n        /* \"@openzeppelin/contracts/access/Ownable.sol\":1273:1279  _owner */\n      dup1\n      0x00\n      swap1\n      sload\n      swap1\n      0x0100\n      exp\n      swap1\n      div\n      0xffffffffffffffffffffffffffffffffffffffff\n      and\n        /* \"@openzeppelin/contracts/access/Ownable.sol\":1266:1279  return _owner */\n      swap1\n      pop\n        /* \"@openzeppelin/contracts/access/Ownable.sol\":1201:1286  function owner() public view virtual returns (address) {... */\n      swap1\n      jump\t// out\n        /* \"contracts/Library.sol\":265:289  uint256 public bookCount */\n    tag_32:\n      sload(0x04)\n      dup2\n      jump\t// out\n        /* \"@openzeppelin/contracts/access/Ownable.sol\":2081:2279  function transferOwnership(address newOwner) public virtual onlyOwner {... */\n    tag_38:\n        /* \"@openzeppelin/contracts/access/Ownable.sol\":1094:1107  _checkOwner() */\n      tag_81\n        /* \"@openzeppelin/contracts/access/Ownable.sol\":1094:1105  _checkOwner */\n      tag_41\n        /* \"@openzeppelin/contracts/access/Ownable.sol\":1094:1107  _checkOwner() */\n      jump\t// in\n    tag_81:\n        /* \"@openzeppelin/contracts/access/Ownable.sol\":2189:2190  0 */\n      0x00\n        /* \"@openzeppelin/contracts/access/Ownable.sol\":2169:2191  newOwner != address(0) */\n      0xffffffffffffffffffffffffffffffffffffffff\n      and\n        /* \"@openzeppelin/contracts/access/Ownable.sol\":2169:2177  newOwner */\n      dup2\n        /* \"@openzeppelin/contracts/access/Ownable.sol\":2169:2191  newOwner != address(0) */\n      0xffffffffffffffffffffffffffffffffffffffff\n      and\n      eq\n      iszero\n        /* \"@openzeppelin/contracts/access/Ownable.sol\":2161:2234  require(newOwner != address(0), \"Ownable: new owner is the zero address\") */\n      tag_83\n      jumpi\n      mload(0x40)\n      0x08c379a000000000000000000000000000000000000000000000000000000000\n      dup2\n      mstore\n      0x04\n      add\n      tag_84\n      swap1\n      tag_85\n      jump\t// in\n    tag_84:\n      mload(0x40)\n      dup1\n      swap2\n      sub\n      swap1\n      revert\n    tag_83:\n        /* \"@openzeppelin/contracts/access/Ownable.sol\":2244:2272  _transferOwnership(newOwner) */\n      tag_86\n        /* \"@openzeppelin/contracts/access/Ownable.sol\":2263:2271  newOwner */\n      dup2\n        /* \"@openzeppelin/contracts/access/Ownable.sol\":2244:2262  _transferOwnership */\n      tag_73\n        /* \"@openzeppelin/contracts/access/Ownable.sol\":2244:2272  _transferOwnership(newOwner) */\n      jump\t// in\n    tag_86:\n        /* \"@openzeppelin/contracts/access/Ownable.sol\":2081:2279  function transferOwnership(address newOwner) public virtual onlyOwner {... */\n      pop\n      jump\t// out\n        /* \"@openzeppelin/contracts/access/Ownable.sol\":1359:1489  function _checkOwner() internal view virtual {... */\n    tag_41:\n        /* \"@openzeppelin/contracts/access/Ownable.sol\":1433:1445  _msgSender() */\n      tag_88\n        /* \"@openzeppelin/contracts/access/Ownable.sol\":1433:1443  _msgSender */\n      tag_89\n        /* \"@openzeppelin/contracts/access/Ownable.sol\":1433:1445  _msgSender() */\n      jump\t// in\n    tag_88:\n        /* \"@openzeppelin/contracts/access/Ownable.sol\":1422:1445  owner() == _msgSender() */\n      0xffffffffffffffffffffffffffffffffffffffff\n      and\n        /* \"@openzeppelin/contracts/access/Ownable.sol\":1422:1429  owner() */\n      tag_90\n        /* \"@openzeppelin/contracts/access/Ownable.sol\":1422:1427  owner */\n      tag_28\n        /* \"@openzeppelin/contracts/access/Ownable.sol\":1422:1429  owner() */\n      jump\t// in\n    tag_90:\n        /* \"@openzeppelin/contracts/access/Ownable.sol\":1422:1445  owner() == _msgSender() */\n      0xffffffffffffffffffffffffffffffffffffffff\n      and\n      eq\n        /* \"@openzeppelin/contracts/access/Ownable.sol\":1414:1482  require(owner() == _msgSender(), \"Ownable: caller is not the owner\") */\n      tag_91\n      jumpi\n      mload(0x40)\n      0x08c379a000000000000000000000000000000000000000000000000000000000\n      dup2\n      mstore\n      0x04\n      add\n      tag_92\n      swap1\n      tag_93\n      jump\t// in\n    tag_92:\n      mload(0x40)\n      dup1\n      swap2\n      sub\n      swap1\n      revert\n    tag_91:\n        /* \"@openzeppelin/contracts/access/Ownable.sol\":1359:1489  function _checkOwner() internal view virtual {... */\n      jump\t// out\n        /* \"@openzeppelin/contracts/access/Ownable.sol\":2433:2620  function _transferOwnership(address newOwner) internal virtual {... */\n    tag_73:\n        /* \"@openzeppelin/contracts/access/Ownable.sol\":2506:2522  address oldOwner */\n      0x00\n        /* \"@openzeppelin/contracts/access/Ownable.sol\":2525:2531  _owner */\n      dup1\n      0x00\n      swap1\n      sload\n      swap1\n      0x0100\n      exp\n      swap1\n      div\n      0xffffffffffffffffffffffffffffffffffffffff\n      and\n        /* \"@openzeppelin/contracts/access/Ownable.sol\":2506:2531  address oldOwner = _owner */\n      swap1\n      pop\n        /* \"@openzeppelin/contracts/access/Ownable.sol\":2550:2558  newOwner */\n      dup2\n        /* \"@openzeppelin/contracts/access/Ownable.sol\":2541:2547  _owner */\n      0x00\n      dup1\n        /* \"@openzeppelin/contracts/access/Ownable.sol\":2541:2558  _owner = newOwner */\n      0x0100\n      exp\n      dup2\n      sload\n      dup2\n      0xffffffffffffffffffffffffffffffffffffffff\n      mul\n      not\n      and\n      swap1\n      dup4\n      0xffffffffffffffffffffffffffffffffffffffff\n      and\n      mul\n      or\n      swap1\n      sstore\n      pop\n        /* \"@openzeppelin/contracts/access/Ownable.sol\":2604:2612  newOwner */\n      dup2\n        /* \"@openzeppelin/contracts/access/Ownable.sol\":2573:2613  OwnershipTransferred(oldOwner, newOwner) */\n      0xffffffffffffffffffffffffffffffffffffffff\n      and\n        /* \"@openzeppelin/contracts/access/Ownable.sol\":2594:2602  oldOwner */\n      dup2\n        /* \"@openzeppelin/contracts/access/Ownable.sol\":2573:2613  OwnershipTransferred(oldOwner, newOwner) */\n      0xffffffffffffffffffffffffffffffffffffffff\n      and\n      0x8be0079c531659141344cd1fd0a4f28419497f9722a3daafe3b4186f6b6457e0\n      mload(0x40)\n      mload(0x40)\n      dup1\n      swap2\n      sub\n      swap1\n      log3\n        /* \"@openzeppelin/contracts/access/Ownable.sol\":2496:2620  {... */\n      pop\n        /* \"@openzeppelin/contracts/access/Ownable.sol\":2433:2620  function _transferOwnership(address newOwner) internal virtual {... */\n      pop\n      jump\t// out\n        /* \"@openzeppelin/contracts/utils/Context.sol\":640:736  function _msgSender() internal view virtual returns (address) {... */\n    tag_89:\n        /* \"@openzeppelin/contracts/utils/Context.sol\":693:700  address */\n      0x00\n        /* \"@openzeppelin/contracts/utils/Context.sol\":719:729  msg.sender */\n      caller\n        /* \"@openzeppelin/contracts/utils/Context.sol\":712:729  return msg.sender */\n      swap1\n      pop\n        /* \"@openzeppelin/contracts/utils/Context.sol\":640:736  function _msgSender() internal view virtual returns (address) {... */\n      swap1\n      jump\t// out\n    tag_68:\n      dup3\n      dup1\n      sload\n      tag_96\n      swap1\n      tag_47\n      jump\t// in\n    tag_96:\n      swap1\n      0x00\n      mstore\n      keccak256(0x00, 0x20)\n      swap1\n      0x1f\n      add\n      0x20\n      swap1\n      div\n      dup2\n      add\n      swap3\n      dup3\n      tag_98\n      jumpi\n      0x00\n      dup6\n      sstore\n      jump(tag_97)\n    tag_98:\n      dup3\n      0x1f\n      lt\n      tag_99\n      jumpi\n      dup1\n      mload\n      not(0xff)\n      and\n      dup4\n      dup1\n      add\n      or\n      dup6\n      sstore\n      jump(tag_97)\n    tag_99:\n      dup3\n      dup1\n      add\n      0x01\n      add\n      dup6\n      sstore\n      dup3\n      iszero\n      tag_97\n      jumpi\n      swap2\n      dup3\n      add\n    tag_100:\n      dup3\n      dup2\n      gt\n      iszero\n      tag_101\n      jumpi\n      dup3\n      mload\n      dup3\n      sstore\n      swap2\n      0x20\n      add\n      swap2\n      swap1\n      0x01\n      add\n      swap1\n      jump(tag_100)\n    tag_101:\n    tag_97:\n      pop\n      swap1\n      pop\n      tag_102\n      swap2\n      swap1\n      tag_103\n      jump\t// in\n    tag_102:\n      pop\n      swap1\n      jump\t// out\n    tag_103:\n    tag_104:\n      dup1\n      dup3\n      gt\n      iszero\n      tag_105\n      jumpi\n      0x00\n      dup2\n      0x00\n      swap1\n      sstore\n      pop\n      0x01\n      add\n      jump(tag_104)\n    tag_105:\n      pop\n      swap1\n      jump\t// out\n        /* \"#utility.yul\":7:419   */\n    tag_107:\n        /* \"#utility.yul\":85:90   */\n      0x00\n        /* \"#utility.yul\":110:176   */\n      tag_109\n        /* \"#utility.yul\":126:175   */\n      tag_110\n        /* \"#utility.yul\":168:174   */\n      dup5\n        /* \"#utility.yul\":126:175   */\n      tag_111\n      jump\t// in\n    tag_110:\n        /* \"#utility.yul\":110:176   */\n      tag_112\n      jump\t// in\n    tag_109:\n        /* \"#utility.yul\":101:176   */\n      swap1\n      pop\n        /* \"#utility.yul\":199:205   */\n      dup3\n        /* \"#utility.yul\":192:197   */\n      dup2\n        /* \"#utility.yul\":185:206   */\n      mstore\n        /* \"#utility.yul\":237:241   */\n      0x20\n        /* \"#utility.yul\":230:235   */\n      dup2\n        /* \"#utility.yul\":226:242   */\n      add\n        /* \"#utility.yul\":275:278   */\n      dup5\n        /* \"#utility.yul\":266:272   */\n      dup5\n        /* \"#utility.yul\":261:264   */\n      dup5\n        /* \"#utility.yul\":257:273   */\n      add\n        /* \"#utility.yul\":254:279   */\n      gt\n        /* \"#utility.yul\":251:363   */\n      iszero\n      tag_113\n      jumpi\n        /* \"#utility.yul\":282:361   */\n      tag_114\n      tag_115\n      jump\t// in\n    tag_114:\n        /* \"#utility.yul\":251:363   */\n    tag_113:\n        /* \"#utility.yul\":372:413   */\n      tag_116\n        /* \"#utility.yul\":406:412   */\n      dup5\n        /* \"#utility.yul\":401:404   */\n      dup3\n        /* \"#utility.yul\":396:399   */\n      dup6\n        /* \"#utility.yul\":372:413   */\n      tag_117\n      jump\t// in\n    tag_116:\n        /* \"#utility.yul\":91:419   */\n      pop\n        /* \"#utility.yul\":7:419   */\n      swap4\n      swap3\n      pop\n      pop\n      pop\n      jump\t// out\n        /* \"#utility.yul\":425:564   */\n    tag_118:\n        /* \"#utility.yul\":471:476   */\n      0x00\n        /* \"#utility.yul\":509:515   */\n      dup2\n        /* \"#utility.yul\":496:516   */\n      calldataload\n        /* \"#utility.yul\":487:516   */\n      swap1\n      pop\n        /* \"#utility.yul\":525:558   */\n      tag_120\n        /* \"#utility.yul\":552:557   */\n      dup2\n        /* \"#utility.yul\":525:558   */\n      tag_121\n      jump\t// in\n    tag_120:\n        /* \"#utility.yul\":425:564   */\n      swap3\n      swap2\n      pop\n      pop\n      jump\t// out\n        /* \"#utility.yul\":584:924   */\n    tag_122:\n        /* \"#utility.yul\":640:645   */\n      0x00\n        /* \"#utility.yul\":689:692   */\n      dup3\n        /* \"#utility.yul\":682:686   */\n      0x1f\n        /* \"#utility.yul\":674:680   */\n      dup4\n        /* \"#utility.yul\":670:687   */\n      add\n        /* \"#utility.yul\":666:693   */\n      slt\n        /* \"#utility.yul\":656:778   */\n      tag_124\n      jumpi\n        /* \"#utility.yul\":697:776   */\n      tag_125\n      tag_126\n      jump\t// in\n    tag_125:\n        /* \"#utility.yul\":656:778   */\n    tag_124:\n        /* \"#utility.yul\":814:820   */\n      dup2\n        /* \"#utility.yul\":801:821   */\n      calldataload\n        /* \"#utility.yul\":839:918   */\n      tag_127\n        /* \"#utility.yul\":914:917   */\n      dup5\n        /* \"#utility.yul\":906:912   */\n      dup3\n        /* \"#utility.yul\":899:903   */\n      0x20\n        /* \"#utility.yul\":891:897   */\n      dup7\n        /* \"#utility.yul\":887:904   */\n      add\n        /* \"#utility.yul\":839:918   */\n      tag_107\n      jump\t// in\n    tag_127:\n        /* \"#utility.yul\":830:918   */\n      swap2\n      pop\n        /* \"#utility.yul\":646:924   */\n      pop\n        /* \"#utility.yul\":584:924   */\n      swap3\n      swap2\n      pop\n      pop\n      jump\t// out\n        /* \"#utility.yul\":930:1069   */\n    tag_128:\n        /* \"#utility.yul\":976:981   */\n      0x00\n        /* \"#utility.yul\":1014:1020   */\n      dup2\n        /* \"#utility.yul\":1001:1021   */\n      calldataload\n        /* \"#utility.yul\":992:1021   */\n      swap1\n      pop\n        /* \"#utility.yul\":1030:1063   */\n      tag_130\n        /* \"#utility.yul\":1057:1062   */\n      dup2\n        /* \"#utility.yul\":1030:1063   */\n      tag_131\n      jump\t// in\n    tag_130:\n        /* \"#utility.yul\":930:1069   */\n      swap3\n      swap2\n      pop\n      pop\n      jump\t// out\n        /* \"#utility.yul\":1075:1404   */\n    tag_37:\n        /* \"#utility.yul\":1134:1140   */\n      0x00\n        /* \"#utility.yul\":1183:1185   */\n      0x20\n        /* \"#utility.yul\":1171:1180   */\n      dup3\n        /* \"#utility.yul\":1162:1169   */\n      dup5\n        /* \"#utility.yul\":1158:1181   */\n      sub\n        /* \"#utility.yul\":1154:1186   */\n      slt\n        /* \"#utility.yul\":1151:1270   */\n      iszero\n      tag_133\n      jumpi\n        /* \"#utility.yul\":1189:1268   */\n      tag_134\n      tag_135\n      jump\t// in\n    tag_134:\n        /* \"#utility.yul\":1151:1270   */\n    tag_133:\n        /* \"#utility.yul\":1309:1310   */\n      0x00\n        /* \"#utility.yul\":1334:1387   */\n      tag_136\n        /* \"#utility.yul\":1379:1386   */\n      dup5\n        /* \"#utility.yul\":1370:1376   */\n      dup3\n        /* \"#utility.yul\":1359:1368   */\n      dup6\n        /* \"#utility.yul\":1355:1377   */\n      add\n        /* \"#utility.yul\":1334:1387   */\n      tag_118\n      jump\t// in\n    tag_136:\n        /* \"#utility.yul\":1324:1387   */\n      swap2\n      pop\n        /* \"#utility.yul\":1280:1397   */\n      pop\n        /* \"#utility.yul\":1075:1404   */\n      swap3\n      swap2\n      pop\n      pop\n      jump\t// out\n        /* \"#utility.yul\":1410:2064   */\n    tag_17:\n        /* \"#utility.yul\":1488:1494   */\n      0x00\n        /* \"#utility.yul\":1496:1502   */\n      dup1\n        /* \"#utility.yul\":1545:1547   */\n      0x40\n        /* \"#utility.yul\":1533:1542   */\n      dup4\n        /* \"#utility.yul\":1524:1531   */\n      dup6\n        /* \"#utility.yul\":1520:1543   */\n      sub\n        /* \"#utility.yul\":1516:1548   */\n      slt\n        /* \"#utility.yul\":1513:1632   */\n      iszero\n      tag_138\n      jumpi\n        /* \"#utility.yul\":1551:1630   */\n      tag_139\n      tag_135\n      jump\t// in\n    tag_139:\n        /* \"#utility.yul\":1513:1632   */\n    tag_138:\n        /* \"#utility.yul\":1699:1700   */\n      0x00\n        /* \"#utility.yul\":1688:1697   */\n      dup4\n        /* \"#utility.yul\":1684:1701   */\n      add\n        /* \"#utility.yul\":1671:1702   */\n      calldataload\n        /* \"#utility.yul\":1729:1747   */\n      0xffffffffffffffff\n        /* \"#utility.yul\":1721:1727   */\n      dup2\n        /* \"#utility.yul\":1718:1748   */\n      gt\n        /* \"#utility.yul\":1715:1832   */\n      iszero\n      tag_140\n      jumpi\n        /* \"#utility.yul\":1751:1830   */\n      tag_141\n      tag_142\n      jump\t// in\n    tag_141:\n        /* \"#utility.yul\":1715:1832   */\n    tag_140:\n        /* \"#utility.yul\":1856:1919   */\n      tag_143\n        /* \"#utility.yul\":1911:1918   */\n      dup6\n        /* \"#utility.yul\":1902:1908   */\n      dup3\n        /* \"#utility.yul\":1891:1900   */\n      dup7\n        /* \"#utility.yul\":1887:1909   */\n      add\n        /* \"#utility.yul\":1856:1919   */\n      tag_122\n      jump\t// in\n    tag_143:\n        /* \"#utility.yul\":1846:1919   */\n      swap3\n      pop\n        /* \"#utility.yul\":1642:1929   */\n      pop\n        /* \"#utility.yul\":1968:1970   */\n      0x20\n        /* \"#utility.yul\":1994:2047   */\n      tag_144\n        /* \"#utility.yul\":2039:2046   */\n      dup6\n        /* \"#utility.yul\":2030:2036   */\n      dup3\n        /* \"#utility.yul\":2019:2028   */\n      dup7\n        /* \"#utility.yul\":2015:2037   */\n      add\n        /* \"#utility.yul\":1994:2047   */\n      tag_128\n      jump\t// in\n    tag_144:\n        /* \"#utility.yul\":1984:2047   */\n      swap2\n      pop\n        /* \"#utility.yul\":1939:2057   */\n      pop\n        /* \"#utility.yul\":1410:2064   */\n      swap3\n      pop\n      swap3\n      swap1\n      pop\n      jump\t// out\n        /* \"#utility.yul\":2070:2399   */\n    tag_23:\n        /* \"#utility.yul\":2129:2135   */\n      0x00\n        /* \"#utility.yul\":2178:2180   */\n      0x20\n        /* \"#utility.yul\":2166:2175   */\n      dup3\n        /* \"#utility.yul\":2157:2164   */\n      dup5\n        /* \"#utility.yul\":2153:2176   */\n      sub\n        /* \"#utility.yul\":2149:2181   */\n      slt\n        /* \"#utility.yul\":2146:2265   */\n      iszero\n      tag_146\n      jumpi\n        /* \"#utility.yul\":2184:2263   */\n      tag_147\n      tag_135\n      jump\t// in\n    tag_147:\n        /* \"#utility.yul\":2146:2265   */\n    tag_146:\n        /* \"#utility.yul\":2304:2305   */\n      0x00\n        /* \"#utility.yul\":2329:2382   */\n      tag_148\n        /* \"#utility.yul\":2374:2381   */\n      dup5\n        /* \"#utility.yul\":2365:2371   */\n      dup3\n        /* \"#utility.yul\":2354:2363   */\n      dup6\n        /* \"#utility.yul\":2350:2372   */\n      add\n        /* \"#utility.yul\":2329:2382   */\n      tag_128\n      jump\t// in\n    tag_148:\n        /* \"#utility.yul\":2319:2382   */\n      swap2\n      pop\n        /* \"#utility.yul\":2275:2392   */\n      pop\n        /* \"#utility.yul\":2070:2399   */\n      swap3\n      swap2\n      pop\n      pop\n      jump\t// out\n        /* \"#utility.yul\":2405:2879   */\n    tag_13:\n        /* \"#utility.yul\":2473:2479   */\n      0x00\n        /* \"#utility.yul\":2481:2487   */\n      dup1\n        /* \"#utility.yul\":2530:2532   */\n      0x40\n        /* \"#utility.yul\":2518:2527   */\n      dup4\n        /* \"#utility.yul\":2509:2516   */\n      dup6\n        /* \"#utility.yul\":2505:2528   */\n      sub\n        /* \"#utility.yul\":2501:2533   */\n      slt\n        /* \"#utility.yul\":2498:2617   */\n      iszero\n      tag_150\n      jumpi\n        /* \"#utility.yul\":2536:2615   */\n      tag_151\n      tag_135\n      jump\t// in\n    tag_151:\n        /* \"#utility.yul\":2498:2617   */\n    tag_150:\n        /* \"#utility.yul\":2656:2657   */\n      0x00\n        /* \"#utility.yul\":2681:2734   */\n      tag_152\n        /* \"#utility.yul\":2726:2733   */\n      dup6\n        /* \"#utility.yul\":2717:2723   */\n      dup3\n        /* \"#utility.yul\":2706:2715   */\n      dup7\n        /* \"#utility.yul\":2702:2724   */\n      add\n        /* \"#utility.yul\":2681:2734   */\n      tag_128\n      jump\t// in\n    tag_152:\n        /* \"#utility.yul\":2671:2734   */\n      swap3\n      pop\n        /* \"#utility.yul\":2627:2744   */\n      pop\n        /* \"#utility.yul\":2783:2785   */\n      0x20\n        /* \"#utility.yul\":2809:2862   */\n      tag_153\n        /* \"#utility.yul\":2854:2861   */\n      dup6\n        /* \"#utility.yul\":2845:2851   */\n      dup3\n        /* \"#utility.yul\":2834:2843   */\n      dup7\n        /* \"#utility.yul\":2830:2852   */\n      add\n        /* \"#utility.yul\":2809:2862   */\n      tag_128\n      jump\t// in\n    tag_153:\n        /* \"#utility.yul\":2799:2862   */\n      swap2\n      pop\n        /* \"#utility.yul\":2754:2872   */\n      pop\n        /* \"#utility.yul\":2405:2879   */\n      swap3\n      pop\n      swap3\n      swap1\n      pop\n      jump\t// out\n        /* \"#utility.yul\":2885:3003   */\n    tag_154:\n        /* \"#utility.yul\":2972:2996   */\n      tag_156\n        /* \"#utility.yul\":2990:2995   */\n      dup2\n        /* \"#utility.yul\":2972:2996   */\n      tag_157\n      jump\t// in\n    tag_156:\n        /* \"#utility.yul\":2967:2970   */\n      dup3\n        /* \"#utility.yul\":2960:2997   */\n      mstore\n        /* \"#utility.yul\":2885:3003   */\n      pop\n      pop\n      jump\t// out\n        /* \"#utility.yul\":3009:3373   */\n    tag_158:\n        /* \"#utility.yul\":3097:3100   */\n      0x00\n        /* \"#utility.yul\":3125:3164   */\n      tag_160\n        /* \"#utility.yul\":3158:3163   */\n      dup3\n        /* \"#utility.yul\":3125:3164   */\n      tag_161\n      jump\t// in\n    tag_160:\n        /* \"#utility.yul\":3180:3251   */\n      tag_162\n        /* \"#utility.yul\":3244:3250   */\n      dup2\n        /* \"#utility.yul\":3239:3242   */\n      dup6\n        /* \"#utility.yul\":3180:3251   */\n      tag_163\n      jump\t// in\n    tag_162:\n        /* \"#utility.yul\":3173:3251   */\n      swap4\n      pop\n        /* \"#utility.yul\":3260:3312   */\n      tag_164\n        /* \"#utility.yul\":3305:3311   */\n      dup2\n        /* \"#utility.yul\":3300:3303   */\n      dup6\n        /* \"#utility.yul\":3293:3297   */\n      0x20\n        /* \"#utility.yul\":3286:3291   */\n      dup7\n        /* \"#utility.yul\":3282:3298   */\n      add\n        /* \"#utility.yul\":3260:3312   */\n      tag_165\n      jump\t// in\n    tag_164:\n        /* \"#utility.yul\":3337:3366   */\n      tag_166\n        /* \"#utility.yul\":3359:3365   */\n      dup2\n        /* \"#utility.yul\":3337:3366   */\n      tag_167\n      jump\t// in\n    tag_166:\n        /* \"#utility.yul\":3332:3335   */\n      dup5\n        /* \"#utility.yul\":3328:3367   */\n      add\n        /* \"#utility.yul\":3321:3367   */\n      swap2\n      pop\n        /* \"#utility.yul\":3101:3373   */\n      pop\n        /* \"#utility.yul\":3009:3373   */\n      swap3\n      swap2\n      pop\n      pop\n      jump\t// out\n        /* \"#utility.yul\":3379:3756   */\n    tag_168:\n        /* \"#utility.yul\":3485:3488   */\n      0x00\n        /* \"#utility.yul\":3513:3552   */\n      tag_170\n        /* \"#utility.yul\":3546:3551   */\n      dup3\n        /* \"#utility.yul\":3513:3552   */\n      tag_161\n      jump\t// in\n    tag_170:\n        /* \"#utility.yul\":3568:3657   */\n      tag_171\n        /* \"#utility.yul\":3650:3656   */\n      dup2\n        /* \"#utility.yul\":3645:3648   */\n      dup6\n        /* \"#utility.yul\":3568:3657   */\n      tag_172\n      jump\t// in\n    tag_171:\n        /* \"#utility.yul\":3561:3657   */\n      swap4\n      pop\n        /* \"#utility.yul\":3666:3718   */\n      tag_173\n        /* \"#utility.yul\":3711:3717   */\n      dup2\n        /* \"#utility.yul\":3706:3709   */\n      dup6\n        /* \"#utility.yul\":3699:3703   */\n      0x20\n        /* \"#utility.yul\":3692:3697   */\n      dup7\n        /* \"#utility.yul\":3688:3704   */\n      add\n        /* \"#utility.yul\":3666:3718   */\n      tag_165\n      jump\t// in\n    tag_173:\n        /* \"#utility.yul\":3743:3749   */\n      dup1\n        /* \"#utility.yul\":3738:3741   */\n      dup5\n        /* \"#utility.yul\":3734:3750   */\n      add\n        /* \"#utility.yul\":3727:3750   */\n      swap2\n      pop\n        /* \"#utility.yul\":3489:3756   */\n      pop\n        /* \"#utility.yul\":3379:3756   */\n      swap3\n      swap2\n      pop\n      pop\n      jump\t// out\n        /* \"#utility.yul\":3762:4128   */\n    tag_174:\n        /* \"#utility.yul\":3904:3907   */\n      0x00\n        /* \"#utility.yul\":3925:3992   */\n      tag_176\n        /* \"#utility.yul\":3989:3991   */\n      0x14\n        /* \"#utility.yul\":3984:3987   */\n      dup4\n        /* \"#utility.yul\":3925:3992   */\n      tag_163\n      jump\t// in\n    tag_176:\n        /* \"#utility.yul\":3918:3992   */\n      swap2\n      pop\n        /* \"#utility.yul\":4001:4094   */\n      tag_177\n        /* \"#utility.yul\":4090:4093   */\n      dup3\n        /* \"#utility.yul\":4001:4094   */\n      tag_178\n      jump\t// in\n    tag_177:\n        /* \"#utility.yul\":4119:4121   */\n      0x20\n        /* \"#utility.yul\":4114:4117   */\n      dup3\n        /* \"#utility.yul\":4110:4122   */\n      add\n        /* \"#utility.yul\":4103:4122   */\n      swap1\n      pop\n        /* \"#utility.yul\":3762:4128   */\n      swap2\n      swap1\n      pop\n      jump\t// out\n        /* \"#utility.yul\":4134:4500   */\n    tag_179:\n        /* \"#utility.yul\":4276:4279   */\n      0x00\n        /* \"#utility.yul\":4297:4364   */\n      tag_181\n        /* \"#utility.yul\":4361:4363   */\n      0x11\n        /* \"#utility.yul\":4356:4359   */\n      dup4\n        /* \"#utility.yul\":4297:4364   */\n      tag_163\n      jump\t// in\n    tag_181:\n        /* \"#utility.yul\":4290:4364   */\n      swap2\n      pop\n        /* \"#utility.yul\":4373:4466   */\n      tag_182\n        /* \"#utility.yul\":4462:4465   */\n      dup3\n        /* \"#utility.yul\":4373:4466   */\n      tag_183\n      jump\t// in\n    tag_182:\n        /* \"#utility.yul\":4491:4493   */\n      0x20\n        /* \"#utility.yul\":4486:4489   */\n      dup3\n        /* \"#utility.yul\":4482:4494   */\n      add\n        /* \"#utility.yul\":4475:4494   */\n      swap1\n      pop\n        /* \"#utility.yul\":4134:4500   */\n      swap2\n      swap1\n      pop\n      jump\t// out\n        /* \"#utility.yul\":4506:4872   */\n    tag_184:\n        /* \"#utility.yul\":4648:4651   */\n      0x00\n        /* \"#utility.yul\":4669:4736   */\n      tag_186\n        /* \"#utility.yul\":4733:4735   */\n      0x26\n        /* \"#utility.yul\":4728:4731   */\n      dup4\n        /* \"#utility.yul\":4669:4736   */\n      tag_163\n      jump\t// in\n    tag_186:\n        /* \"#utility.yul\":4662:4736   */\n      swap2\n      pop\n        /* \"#utility.yul\":4745:4838   */\n      tag_187\n        /* \"#utility.yul\":4834:4837   */\n      dup3\n        /* \"#utility.yul\":4745:4838   */\n      tag_188\n      jump\t// in\n    tag_187:\n        /* \"#utility.yul\":4863:4865   */\n      0x40\n        /* \"#utility.yul\":4858:4861   */\n      dup3\n        /* \"#utility.yul\":4854:4866   */\n      add\n        /* \"#utility.yul\":4847:4866   */\n      swap1\n      pop\n        /* \"#utility.yul\":4506:4872   */\n      swap2\n      swap1\n      pop\n      jump\t// out\n        /* \"#utility.yul\":4878:5244   */\n    tag_189:\n        /* \"#utility.yul\":5020:5023   */\n      0x00\n        /* \"#utility.yul\":5041:5108   */\n      tag_191\n        /* \"#utility.yul\":5105:5107   */\n      0x20\n        /* \"#utility.yul\":5100:5103   */\n      dup4\n        /* \"#utility.yul\":5041:5108   */\n      tag_163\n      jump\t// in\n    tag_191:\n        /* \"#utility.yul\":5034:5108   */\n      swap2\n      pop\n        /* \"#utility.yul\":5117:5210   */\n      tag_192\n        /* \"#utility.yul\":5206:5209   */\n      dup3\n        /* \"#utility.yul\":5117:5210   */\n      tag_193\n      jump\t// in\n    tag_192:\n        /* \"#utility.yul\":5235:5237   */\n      0x20\n        /* \"#utility.yul\":5230:5233   */\n      dup3\n        /* \"#utility.yul\":5226:5238   */\n      add\n        /* \"#utility.yul\":5219:5238   */\n      swap1\n      pop\n        /* \"#utility.yul\":4878:5244   */\n      swap2\n      swap1\n      pop\n      jump\t// out\n        /* \"#utility.yul\":5250:5615   */\n    tag_194:\n        /* \"#utility.yul\":5392:5395   */\n      0x00\n        /* \"#utility.yul\":5413:5479   */\n      tag_196\n        /* \"#utility.yul\":5477:5478   */\n      0x05\n        /* \"#utility.yul\":5472:5475   */\n      dup4\n        /* \"#utility.yul\":5413:5479   */\n      tag_163\n      jump\t// in\n    tag_196:\n        /* \"#utility.yul\":5406:5479   */\n      swap2\n      pop\n        /* \"#utility.yul\":5488:5581   */\n      tag_197\n        /* \"#utility.yul\":5577:5580   */\n      dup3\n        /* \"#utility.yul\":5488:5581   */\n      tag_198\n      jump\t// in\n    tag_197:\n        /* \"#utility.yul\":5606:5608   */\n      0x20\n        /* \"#utility.yul\":5601:5604   */\n      dup3\n        /* \"#utility.yul\":5597:5609   */\n      add\n        /* \"#utility.yul\":5590:5609   */\n      swap1\n      pop\n        /* \"#utility.yul\":5250:5615   */\n      swap2\n      swap1\n      pop\n      jump\t// out\n        /* \"#utility.yul\":5621:5987   */\n    tag_199:\n        /* \"#utility.yul\":5763:5766   */\n      0x00\n        /* \"#utility.yul\":5784:5851   */\n      tag_201\n        /* \"#utility.yul\":5848:5850   */\n      0x13\n        /* \"#utility.yul\":5843:5846   */\n      dup4\n        /* \"#utility.yul\":5784:5851   */\n      tag_163\n      jump\t// in\n    tag_201:\n        /* \"#utility.yul\":5777:5851   */\n      swap2\n      pop\n        /* \"#utility.yul\":5860:5953   */\n      tag_202\n        /* \"#utility.yul\":5949:5952   */\n      dup3\n        /* \"#utility.yul\":5860:5953   */\n      tag_203\n      jump\t// in\n    tag_202:\n        /* \"#utility.yul\":5978:5980   */\n      0x20\n        /* \"#utility.yul\":5973:5976   */\n      dup3\n        /* \"#utility.yul\":5969:5981   */\n      add\n        /* \"#utility.yul\":5962:5981   */\n      swap1\n      pop\n        /* \"#utility.yul\":5621:5987   */\n      swap2\n      swap1\n      pop\n      jump\t// out\n        /* \"#utility.yul\":5993:6111   */\n    tag_204:\n        /* \"#utility.yul\":6080:6104   */\n      tag_206\n        /* \"#utility.yul\":6098:6103   */\n      dup2\n        /* \"#utility.yul\":6080:6104   */\n      tag_207\n      jump\t// in\n    tag_206:\n        /* \"#utility.yul\":6075:6078   */\n      dup3\n        /* \"#utility.yul\":6068:6105   */\n      mstore\n        /* \"#utility.yul\":5993:6111   */\n      pop\n      pop\n      jump\t// out\n        /* \"#utility.yul\":6117:6392   */\n    tag_57:\n        /* \"#utility.yul\":6249:6252   */\n      0x00\n        /* \"#utility.yul\":6271:6366   */\n      tag_209\n        /* \"#utility.yul\":6362:6365   */\n      dup3\n        /* \"#utility.yul\":6353:6359   */\n      dup5\n        /* \"#utility.yul\":6271:6366   */\n      tag_168\n      jump\t// in\n    tag_209:\n        /* \"#utility.yul\":6264:6366   */\n      swap2\n      pop\n        /* \"#utility.yul\":6383:6386   */\n      dup2\n        /* \"#utility.yul\":6376:6386   */\n      swap1\n      pop\n        /* \"#utility.yul\":6117:6392   */\n      swap3\n      swap2\n      pop\n      pop\n      jump\t// out\n        /* \"#utility.yul\":6398:6620   */\n    tag_30:\n        /* \"#utility.yul\":6491:6495   */\n      0x00\n        /* \"#utility.yul\":6529:6531   */\n      0x20\n        /* \"#utility.yul\":6518:6527   */\n      dup3\n        /* \"#utility.yul\":6514:6532   */\n      add\n        /* \"#utility.yul\":6506:6532   */\n      swap1\n      pop\n        /* \"#utility.yul\":6542:6613   */\n      tag_211\n        /* \"#utility.yul\":6610:6611   */\n      0x00\n        /* \"#utility.yul\":6599:6608   */\n      dup4\n        /* \"#utility.yul\":6595:6612   */\n      add\n        /* \"#utility.yul\":6586:6592   */\n      dup5\n        /* \"#utility.yul\":6542:6613   */\n      tag_154\n      jump\t// in\n    tag_211:\n        /* \"#utility.yul\":6398:6620   */\n      swap3\n      swap2\n      pop\n      pop\n      jump\t// out\n        /* \"#utility.yul\":6626:7049   */\n    tag_26:\n        /* \"#utility.yul\":6767:6771   */\n      0x00\n        /* \"#utility.yul\":6805:6807   */\n      0x40\n        /* \"#utility.yul\":6794:6803   */\n      dup3\n        /* \"#utility.yul\":6790:6808   */\n      add\n        /* \"#utility.yul\":6782:6808   */\n      swap1\n      pop\n        /* \"#utility.yul\":6854:6863   */\n      dup2\n        /* \"#utility.yul\":6848:6852   */\n      dup2\n        /* \"#utility.yul\":6844:6864   */\n      sub\n        /* \"#utility.yul\":6840:6841   */\n      0x00\n        /* \"#utility.yul\":6829:6838   */\n      dup4\n        /* \"#utility.yul\":6825:6842   */\n      add\n        /* \"#utility.yul\":6818:6865   */\n      mstore\n        /* \"#utility.yul\":6882:6960   */\n      tag_213\n        /* \"#utility.yul\":6955:6959   */\n      dup2\n        /* \"#utility.yul\":6946:6952   */\n      dup6\n        /* \"#utility.yul\":6882:6960   */\n      tag_158\n      jump\t// in\n    tag_213:\n        /* \"#utility.yul\":6874:6960   */\n      swap1\n      pop\n        /* \"#utility.yul\":6970:7042   */\n      tag_214\n        /* \"#utility.yul\":7038:7040   */\n      0x20\n        /* \"#utility.yul\":7027:7036   */\n      dup4\n        /* \"#utility.yul\":7023:7041   */\n      add\n        /* \"#utility.yul\":7014:7020   */\n      dup5\n        /* \"#utility.yul\":6970:7042   */\n      tag_204\n      jump\t// in\n    tag_214:\n        /* \"#utility.yul\":6626:7049   */\n      swap4\n      swap3\n      pop\n      pop\n      pop\n      jump\t// out\n        /* \"#utility.yul\":7055:7474   */\n    tag_64:\n        /* \"#utility.yul\":7221:7225   */\n      0x00\n        /* \"#utility.yul\":7259:7261   */\n      0x20\n        /* \"#utility.yul\":7248:7257   */\n      dup3\n        /* \"#utility.yul\":7244:7262   */\n      add\n        /* \"#utility.yul\":7236:7262   */\n      swap1\n      pop\n        /* \"#utility.yul\":7308:7317   */\n      dup2\n        /* \"#utility.yul\":7302:7306   */\n      dup2\n        /* \"#utility.yul\":7298:7318   */\n      sub\n        /* \"#utility.yul\":7294:7295   */\n      0x00\n        /* \"#utility.yul\":7283:7292   */\n      dup4\n        /* \"#utility.yul\":7279:7296   */\n      add\n        /* \"#utility.yul\":7272:7319   */\n      mstore\n        /* \"#utility.yul\":7336:7467   */\n      tag_216\n        /* \"#utility.yul\":7462:7466   */\n      dup2\n        /* \"#utility.yul\":7336:7467   */\n      tag_174\n      jump\t// in\n    tag_216:\n        /* \"#utility.yul\":7328:7467   */\n      swap1\n      pop\n        /* \"#utility.yul\":7055:7474   */\n      swap2\n      swap1\n      pop\n      jump\t// out\n        /* \"#utility.yul\":7480:7899   */\n    tag_60:\n        /* \"#utility.yul\":7646:7650   */\n      0x00\n        /* \"#utility.yul\":7684:7686   */\n      0x20\n        /* \"#utility.yul\":7673:7682   */\n      dup3\n        /* \"#utility.yul\":7669:7687   */\n      add\n        /* \"#utility.yul\":7661:7687   */\n      swap1\n      pop\n        /* \"#utility.yul\":7733:7742   */\n      dup2\n        /* \"#utility.yul\":7727:7731   */\n      dup2\n        /* \"#utility.yul\":7723:7743   */\n      sub\n        /* \"#utility.yul\":7719:7720   */\n      0x00\n        /* \"#utility.yul\":7708:7717   */\n      dup4\n        /* \"#utility.yul\":7704:7721   */\n      add\n        /* \"#utility.yul\":7697:7744   */\n      mstore\n        /* \"#utility.yul\":7761:7892   */\n      tag_218\n        /* \"#utility.yul\":7887:7891   */\n      dup2\n        /* \"#utility.yul\":7761:7892   */\n      tag_179\n      jump\t// in\n    tag_218:\n        /* \"#utility.yul\":7753:7892   */\n      swap1\n      pop\n        /* \"#utility.yul\":7480:7899   */\n      swap2\n      swap1\n      pop\n      jump\t// out\n        /* \"#utility.yul\":7905:8324   */\n    tag_85:\n        /* \"#utility.yul\":8071:8075   */\n      0x00\n        /* \"#utility.yul\":8109:8111   */\n      0x20\n        /* \"#utility.yul\":8098:8107   */\n      dup3\n        /* \"#utility.yul\":8094:8112   */\n      add\n        /* \"#utility.yul\":8086:8112   */\n      swap1\n      pop\n        /* \"#utility.yul\":8158:8167   */\n      dup2\n        /* \"#utility.yul\":8152:8156   */\n      dup2\n        /* \"#utility.yul\":8148:8168   */\n      sub\n        /* \"#utility.yul\":8144:8145   */\n      0x00\n        /* \"#utility.yul\":8133:8142   */\n      dup4\n        /* \"#utility.yul\":8129:8146   */\n      add\n        /* \"#utility.yul\":8122:8169   */\n      mstore\n        /* \"#utility.yul\":8186:8317   */\n      tag_220\n        /* \"#utility.yul\":8312:8316   */\n      dup2\n        /* \"#utility.yul\":8186:8317   */\n      tag_184\n      jump\t// in\n    tag_220:\n        /* \"#utility.yul\":8178:8317   */\n      swap1\n      pop\n        /* \"#utility.yul\":7905:8324   */\n      swap2\n      swap1\n      pop\n      jump\t// out\n        /* \"#utility.yul\":8330:8749   */\n    tag_93:\n        /* \"#utility.yul\":8496:8500   */\n      0x00\n        /* \"#utility.yul\":8534:8536   */\n      0x20\n        /* \"#utility.yul\":8523:8532   */\n      dup3\n        /* \"#utility.yul\":8519:8537   */\n      add\n        /* \"#utility.yul\":8511:8537   */\n      swap1\n      pop\n        /* \"#utility.yul\":8583:8592   */\n      dup2\n        /* \"#utility.yul\":8577:8581   */\n      dup2\n        /* \"#utility.yul\":8573:8593   */\n      sub\n        /* \"#utility.yul\":8569:8570   */\n      0x00\n        /* \"#utility.yul\":8558:8567   */\n      dup4\n        /* \"#utility.yul\":8554:8571   */\n      add\n        /* \"#utility.yul\":8547:8594   */\n      mstore\n        /* \"#utility.yul\":8611:8742   */\n      tag_222\n        /* \"#utility.yul\":8737:8741   */\n      dup2\n        /* \"#utility.yul\":8611:8742   */\n      tag_189\n      jump\t// in\n    tag_222:\n        /* \"#utility.yul\":8603:8742   */\n      swap1\n      pop\n        /* \"#utility.yul\":8330:8749   */\n      swap2\n      swap1\n      pop\n      jump\t// out\n        /* \"#utility.yul\":8755:9174   */\n    tag_45:\n        /* \"#utility.yul\":8921:8925   */\n      0x00\n        /* \"#utility.yul\":8959:8961   */\n      0x20\n        /* \"#utility.yul\":8948:8957   */\n      dup3\n        /* \"#utility.yul\":8944:8962   */\n      add\n        /* \"#utility.yul\":8936:8962   */\n      swap1\n      pop\n        /* \"#utility.yul\":9008:9017   */\n      dup2\n        /* \"#utility.yul\":9002:9006   */\n      dup2\n        /* \"#utility.yul\":8998:9018   */\n      sub\n        /* \"#utility.yul\":8994:8995   */\n      0x00\n        /* \"#utility.yul\":8983:8992   */\n      dup4\n        /* \"#utility.yul\":8979:8996   */\n      add\n        /* \"#utility.yul\":8972:9019   */\n      mstore\n        /* \"#utility.yul\":9036:9167   */\n      tag_224\n        /* \"#utility.yul\":9162:9166   */\n      dup2\n        /* \"#utility.yul\":9036:9167   */\n      tag_194\n      jump\t// in\n    tag_224:\n        /* \"#utility.yul\":9028:9167   */\n      swap1\n      pop\n        /* \"#utility.yul\":8755:9174   */\n      swap2\n      swap1\n      pop\n      jump\t// out\n        /* \"#utility.yul\":9180:9599   */\n    tag_50:\n        /* \"#utility.yul\":9346:9350   */\n      0x00\n        /* \"#utility.yul\":9384:9386   */\n      0x20\n        /* \"#utility.yul\":9373:9382   */\n      dup3\n        /* \"#utility.yul\":9369:9387   */\n      add\n        /* \"#utility.yul\":9361:9387   */\n      swap1\n      pop\n        /* \"#utility.yul\":9433:9442   */\n      dup2\n        /* \"#utility.yul\":9427:9431   */\n      dup2\n        /* \"#utility.yul\":9423:9443   */\n      sub\n        /* \"#utility.yul\":9419:9420   */\n      0x00\n        /* \"#utility.yul\":9408:9417   */\n      dup4\n        /* \"#utility.yul\":9404:9421   */\n      add\n        /* \"#utility.yul\":9397:9444   */\n      mstore\n        /* \"#utility.yul\":9461:9592   */\n      tag_226\n        /* \"#utility.yul\":9587:9591   */\n      dup2\n        /* \"#utility.yul\":9461:9592   */\n      tag_199\n      jump\t// in\n    tag_226:\n        /* \"#utility.yul\":9453:9592   */\n      swap1\n      pop\n        /* \"#utility.yul\":9180:9599   */\n      swap2\n      swap1\n      pop\n      jump\t// out\n        /* \"#utility.yul\":9605:9827   */\n    tag_34:\n        /* \"#utility.yul\":9698:9702   */\n      0x00\n        /* \"#utility.yul\":9736:9738   */\n      0x20\n        /* \"#utility.yul\":9725:9734   */\n      dup3\n        /* \"#utility.yul\":9721:9739   */\n      add\n        /* \"#utility.yul\":9713:9739   */\n      swap1\n      pop\n        /* \"#utility.yul\":9749:9820   */\n      tag_228\n        /* \"#utility.yul\":9817:9818   */\n      0x00\n        /* \"#utility.yul\":9806:9815   */\n      dup4\n        /* \"#utility.yul\":9802:9819   */\n      add\n        /* \"#utility.yul\":9793:9799   */\n      dup5\n        /* \"#utility.yul\":9749:9820   */\n      tag_204\n      jump\t// in\n    tag_228:\n        /* \"#utility.yul\":9605:9827   */\n      swap3\n      swap2\n      pop\n      pop\n      jump\t// out\n        /* \"#utility.yul\":9833:9962   */\n    tag_112:\n        /* \"#utility.yul\":9867:9873   */\n      0x00\n        /* \"#utility.yul\":9894:9914   */\n      tag_230\n      tag_231\n      jump\t// in\n    tag_230:\n        /* \"#utility.yul\":9884:9914   */\n      swap1\n      pop\n        /* \"#utility.yul\":9923:9956   */\n      tag_232\n        /* \"#utility.yul\":9951:9955   */\n      dup3\n        /* \"#utility.yul\":9943:9949   */\n      dup3\n        /* \"#utility.yul\":9923:9956   */\n      tag_233\n      jump\t// in\n    tag_232:\n        /* \"#utility.yul\":9833:9962   */\n      swap2\n      swap1\n      pop\n      jump\t// out\n        /* \"#utility.yul\":9968:10043   */\n    tag_231:\n        /* \"#utility.yul\":10001:10007   */\n      0x00\n        /* \"#utility.yul\":10034:10036   */\n      0x40\n        /* \"#utility.yul\":10028:10037   */\n      mload\n        /* \"#utility.yul\":10018:10037   */\n      swap1\n      pop\n        /* \"#utility.yul\":9968:10043   */\n      swap1\n      jump\t// out\n        /* \"#utility.yul\":10049:10357   */\n    tag_111:\n        /* \"#utility.yul\":10111:10115   */\n      0x00\n        /* \"#utility.yul\":10201:10219   */\n      0xffffffffffffffff\n        /* \"#utility.yul\":10193:10199   */\n      dup3\n        /* \"#utility.yul\":10190:10220   */\n      gt\n        /* \"#utility.yul\":10187:10243   */\n      iszero\n      tag_236\n      jumpi\n        /* \"#utility.yul\":10223:10241   */\n      tag_237\n      tag_238\n      jump\t// in\n    tag_237:\n        /* \"#utility.yul\":10187:10243   */\n    tag_236:\n        /* \"#utility.yul\":10261:10290   */\n      tag_239\n        /* \"#utility.yul\":10283:10289   */\n      dup3\n        /* \"#utility.yul\":10261:10290   */\n      tag_167\n      jump\t// in\n    tag_239:\n        /* \"#utility.yul\":10253:10290   */\n      swap1\n      pop\n        /* \"#utility.yul\":10345:10349   */\n      0x20\n        /* \"#utility.yul\":10339:10343   */\n      dup2\n        /* \"#utility.yul\":10335:10350   */\n      add\n        /* \"#utility.yul\":10327:10350   */\n      swap1\n      pop\n        /* \"#utility.yul\":10049:10357   */\n      swap2\n      swap1\n      pop\n      jump\t// out\n        /* \"#utility.yul\":10363:10462   */\n    tag_161:\n        /* \"#utility.yul\":10415:10421   */\n      0x00\n        /* \"#utility.yul\":10449:10454   */\n      dup2\n        /* \"#utility.yul\":10443:10455   */\n      mload\n        /* \"#utility.yul\":10433:10455   */\n      swap1\n      pop\n        /* \"#utility.yul\":10363:10462   */\n      swap2\n      swap1\n      pop\n      jump\t// out\n        /* \"#utility.yul\":10468:10637   */\n    tag_163:\n        /* \"#utility.yul\":10552:10563   */\n      0x00\n        /* \"#utility.yul\":10586:10592   */\n      dup3\n        /* \"#utility.yul\":10581:10584   */\n      dup3\n        /* \"#utility.yul\":10574:10593   */\n      mstore\n        /* \"#utility.yul\":10626:10630   */\n      0x20\n        /* \"#utility.yul\":10621:10624   */\n      dup3\n        /* \"#utility.yul\":10617:10631   */\n      add\n        /* \"#utility.yul\":10602:10631   */\n      swap1\n      pop\n        /* \"#utility.yul\":10468:10637   */\n      swap3\n      swap2\n      pop\n      pop\n      jump\t// out\n        /* \"#utility.yul\":10643:10791   */\n    tag_172:\n        /* \"#utility.yul\":10745:10756   */\n      0x00\n        /* \"#utility.yul\":10782:10785   */\n      dup2\n        /* \"#utility.yul\":10767:10785   */\n      swap1\n      pop\n        /* \"#utility.yul\":10643:10791   */\n      swap3\n      swap2\n      pop\n      pop\n      jump\t// out\n        /* \"#utility.yul\":10797:11102   */\n    tag_52:\n        /* \"#utility.yul\":10837:10840   */\n      0x00\n        /* \"#utility.yul\":10856:10876   */\n      tag_244\n        /* \"#utility.yul\":10874:10875   */\n      dup3\n        /* \"#utility.yul\":10856:10876   */\n      tag_207\n      jump\t// in\n    tag_244:\n        /* \"#utility.yul\":10851:10876   */\n      swap2\n      pop\n        /* \"#utility.yul\":10890:10910   */\n      tag_245\n        /* \"#utility.yul\":10908:10909   */\n      dup4\n        /* \"#utility.yul\":10890:10910   */\n      tag_207\n      jump\t// in\n    tag_245:\n        /* \"#utility.yul\":10885:10910   */\n      swap3\n      pop\n        /* \"#utility.yul\":11044:11045   */\n      dup3\n        /* \"#utility.yul\":10976:11042   */\n      0xffffffffffffffffffffffffffffffffffffffffffffffffffffffffffffffff\n        /* \"#utility.yul\":10972:11046   */\n      sub\n        /* \"#utility.yul\":10969:10970   */\n      dup3\n        /* \"#utility.yul\":10966:11047   */\n      gt\n        /* \"#utility.yul\":10963:11070   */\n      iszero\n      tag_246\n      jumpi\n        /* \"#utility.yul\":11050:11068   */\n      tag_247\n      tag_248\n      jump\t// in\n    tag_247:\n        /* \"#utility.yul\":10963:11070   */\n    tag_246:\n        /* \"#utility.yul\":11094:11095   */\n      dup3\n        /* \"#utility.yul\":11091:11092   */\n      dup3\n        /* \"#utility.yul\":11087:11096   */\n      add\n        /* \"#utility.yul\":11080:11096   */\n      swap1\n      pop\n        /* \"#utility.yul\":10797:11102   */\n      swap3\n      swap2\n      pop\n      pop\n      jump\t// out\n        /* \"#utility.yul\":11108:11204   */\n    tag_157:\n        /* \"#utility.yul\":11145:11152   */\n      0x00\n        /* \"#utility.yul\":11174:11198   */\n      tag_250\n        /* \"#utility.yul\":11192:11197   */\n      dup3\n        /* \"#utility.yul\":11174:11198   */\n      tag_251\n      jump\t// in\n    tag_250:\n        /* \"#utility.yul\":11163:11198   */\n      swap1\n      pop\n        /* \"#utility.yul\":11108:11204   */\n      swap2\n      swap1\n      pop\n      jump\t// out\n        /* \"#utility.yul\":11210:11336   */\n    tag_251:\n        /* \"#utility.yul\":11247:11254   */\n      0x00\n        /* \"#utility.yul\":11287:11329   */\n      0xffffffffffffffffffffffffffffffffffffffff\n        /* \"#utility.yul\":11280:11285   */\n      dup3\n        /* \"#utility.yul\":11276:11330   */\n      and\n        /* \"#utility.yul\":11265:11330   */\n      swap1\n      pop\n        /* \"#utility.yul\":11210:11336   */\n      swap2\n      swap1\n      pop\n      jump\t// out\n        /* \"#utility.yul\":11342:11419   */\n    tag_207:\n        /* \"#utility.yul\":11379:11386   */\n      0x00\n        /* \"#utility.yul\":11408:11413   */\n      dup2\n        /* \"#utility.yul\":11397:11413   */\n      swap1\n      pop\n        /* \"#utility.yul\":11342:11419   */\n      swap2\n      swap1\n      pop\n      jump\t// out\n        /* \"#utility.yul\":11425:11579   */\n    tag_117:\n        /* \"#utility.yul\":11509:11515   */\n      dup3\n        /* \"#utility.yul\":11504:11507   */\n      dup2\n        /* \"#utility.yul\":11499:11502   */\n      dup4\n        /* \"#utility.yul\":11486:11516   */\n      calldatacopy\n        /* \"#utility.yul\":11571:11572   */\n      0x00\n        /* \"#utility.yul\":11562:11568   */\n      dup4\n        /* \"#utility.yul\":11557:11560   */\n      dup4\n        /* \"#utility.yul\":11553:11569   */\n      add\n        /* \"#utility.yul\":11546:11573   */\n      mstore\n        /* \"#utility.yul\":11425:11579   */\n      pop\n      pop\n      pop\n      jump\t// out\n        /* \"#utility.yul\":11585:11892   */\n    tag_165:\n        /* \"#utility.yul\":11653:11654   */\n      0x00\n        /* \"#utility.yul\":11663:11776   */\n    tag_256:\n        /* \"#utility.yul\":11677:11683   */\n      dup4\n        /* \"#utility.yul\":11674:11675   */\n      dup2\n        /* \"#utility.yul\":11671:11684   */\n      lt\n        /* \"#utility.yul\":11663:11776   */\n      iszero\n      tag_258\n      jumpi\n        /* \"#utility.yul\":11762:11763   */\n      dup1\n        /* \"#utility.yul\":11757:11760   */\n      dup3\n        /* \"#utility.yul\":11753:11764   */\n      add\n        /* \"#utility.yul\":11747:11765   */\n      mload\n        /* \"#utility.yul\":11743:11744   */\n      dup2\n        /* \"#utility.yul\":11738:11741   */\n      dup5\n        /* \"#utility.yul\":11734:11745   */\n      add\n        /* \"#utility.yul\":11727:11766   */\n      mstore\n        /* \"#utility.yul\":11699:11701   */\n      0x20\n        /* \"#utility.yul\":11696:11697   */\n      dup2\n        /* \"#utility.yul\":11692:11702   */\n      add\n        /* \"#utility.yul\":11687:11702   */\n      swap1\n      pop\n        /* \"#utility.yul\":11663:11776   */\n      jump(tag_256)\n    tag_258:\n        /* \"#utility.yul\":11794:11800   */\n      dup4\n        /* \"#utility.yul\":11791:11792   */\n      dup2\n        /* \"#utility.yul\":11788:11801   */\n      gt\n        /* \"#utility.yul\":11785:11886   */\n      iszero\n      tag_259\n      jumpi\n        /* \"#utility.yul\":11874:11875   */\n      0x00\n        /* \"#utility.yul\":11865:11871   */\n      dup5\n        /* \"#utility.yul\":11860:11863   */\n      dup5\n        /* \"#utility.yul\":11856:11872   */\n      add\n        /* \"#utility.yul\":11849:11876   */\n      mstore\n        /* \"#utility.yul\":11785:11886   */\n    tag_259:\n        /* \"#utility.yul\":11634:11892   */\n      pop\n        /* \"#utility.yul\":11585:11892   */\n      pop\n      pop\n      pop\n      jump\t// out\n        /* \"#utility.yul\":11898:12218   */\n    tag_47:\n        /* \"#utility.yul\":11942:11948   */\n      0x00\n        /* \"#utility.yul\":11979:11980   */\n      0x02\n        /* \"#utility.yul\":11973:11977   */\n      dup3\n        /* \"#utility.yul\":11969:11981   */\n      div\n        /* \"#utility.yul\":11959:11981   */\n      swap1\n      pop\n        /* \"#utility.yul\":12026:12027   */\n      0x01\n        /* \"#utility.yul\":12020:12024   */\n      dup3\n        /* \"#utility.yul\":12016:12028   */\n      and\n        /* \"#utility.yul\":12047:12065   */\n      dup1\n        /* \"#utility.yul\":12037:12118   */\n      tag_261\n      jumpi\n        /* \"#utility.yul\":12103:12107   */\n      0x7f\n        /* \"#utility.yul\":12095:12101   */\n      dup3\n        /* \"#utility.yul\":12091:12108   */\n      and\n        /* \"#utility.yul\":12081:12108   */\n      swap2\n      pop\n        /* \"#utility.yul\":12037:12118   */\n    tag_261:\n        /* \"#utility.yul\":12165:12167   */\n      0x20\n        /* \"#utility.yul\":12157:12163   */\n      dup3\n        /* \"#utility.yul\":12154:12168   */\n      lt\n        /* \"#utility.yul\":12134:12152   */\n      dup2\n        /* \"#utility.yul\":12131:12169   */\n      eq\n        /* \"#utility.yul\":12128:12212   */\n      iszero\n      tag_262\n      jumpi\n        /* \"#utility.yul\":12184:12202   */\n      tag_263\n      tag_264\n      jump\t// in\n    tag_263:\n        /* \"#utility.yul\":12128:12212   */\n    tag_262:\n        /* \"#utility.yul\":11949:12218   */\n      pop\n        /* \"#utility.yul\":11898:12218   */\n      swap2\n      swap1\n      pop\n      jump\t// out\n        /* \"#utility.yul\":12224:12505   */\n    tag_233:\n        /* \"#utility.yul\":12307:12334   */\n      tag_266\n        /* \"#utility.yul\":12329:12333   */\n      dup3\n        /* \"#utility.yul\":12307:12334   */\n      tag_167\n      jump\t// in\n    tag_266:\n        /* \"#utility.yul\":12299:12305   */\n      dup2\n        /* \"#utility.yul\":12295:12335   */\n      add\n        /* \"#utility.yul\":12437:12443   */\n      dup2\n        /* \"#utility.yul\":12425:12435   */\n      dup2\n        /* \"#utility.yul\":12422:12444   */\n      lt\n        /* \"#utility.yul\":12401:12419   */\n      0xffffffffffffffff\n        /* \"#utility.yul\":12389:12399   */\n      dup3\n        /* \"#utility.yul\":12386:12420   */\n      gt\n        /* \"#utility.yul\":12383:12445   */\n      or\n        /* \"#utility.yul\":12380:12468   */\n      iszero\n      tag_267\n      jumpi\n        /* \"#utility.yul\":12448:12466   */\n      tag_268\n      tag_238\n      jump\t// in\n    tag_268:\n        /* \"#utility.yul\":12380:12468   */\n    tag_267:\n        /* \"#utility.yul\":12488:12498   */\n      dup1\n        /* \"#utility.yul\":12484:12486   */\n      0x40\n        /* \"#utility.yul\":12477:12499   */\n      mstore\n        /* \"#utility.yul\":12267:12505   */\n      pop\n        /* \"#utility.yul\":12224:12505   */\n      pop\n      pop\n      jump\t// out\n        /* \"#utility.yul\":12511:12691   */\n    tag_248:\n        /* \"#utility.yul\":12559:12636   */\n      0x4e487b7100000000000000000000000000000000000000000000000000000000\n        /* \"#utility.yul\":12556:12557   */\n      0x00\n        /* \"#utility.yul\":12549:12637   */\n      mstore\n        /* \"#utility.yul\":12656:12660   */\n      0x11\n        /* \"#utility.yul\":12653:12654   */\n      0x04\n        /* \"#utility.yul\":12646:12661   */\n      mstore\n        /* \"#utility.yul\":12680:12684   */\n      0x24\n        /* \"#utility.yul\":12677:12678   */\n      0x00\n        /* \"#utility.yul\":12670:12685   */\n      revert\n        /* \"#utility.yul\":12697:12877   */\n    tag_264:\n        /* \"#utility.yul\":12745:12822   */\n      0x4e487b7100000000000000000000000000000000000000000000000000000000\n        /* \"#utility.yul\":12742:12743   */\n      0x00\n        /* \"#utility.yul\":12735:12823   */\n      mstore\n        /* \"#utility.yul\":12842:12846   */\n      0x22\n        /* \"#utility.yul\":12839:12840   */\n      0x04\n        /* \"#utility.yul\":12832:12847   */\n      mstore\n        /* \"#utility.yul\":12866:12870   */\n      0x24\n        /* \"#utility.yul\":12863:12864   */\n      0x00\n        /* \"#utility.yul\":12856:12871   */\n      revert\n        /* \"#utility.yul\":12883:13063   */\n    tag_238:\n        /* \"#utility.yul\":12931:13008   */\n      0x4e487b7100000000000000000000000000000000000000000000000000000000\n        /* \"#utility.yul\":12928:12929   */\n      0x00\n        /* \"#utility.yul\":12921:13009   */\n      mstore\n        /* \"#utility.yul\":13028:13032   */\n      0x41\n        /* \"#utility.yul\":13025:13026   */\n      0x04\n        /* \"#utility.yul\":13018:13033   */\n      mstore\n        /* \"#utility.yul\":13052:13056   */\n      0x24\n        /* \"#utility.yul\":13049:13050   */\n      0x00\n        /* \"#utility.yul\":13042:13057   */\n      revert\n        /* \"#utility.yul\":13069:13186   */\n    tag_126:\n        /* \"#utility.yul\":13178:13179   */\n      0x00\n        /* \"#utility.yul\":13175:13176   */\n      dup1\n        /* \"#utility.yul\":13168:13180   */\n      revert\n        /* \"#utility.yul\":13192:13309   */\n    tag_115:\n        /* \"#utility.yul\":13301:13302   */\n      0x00\n        /* \"#utility.yul\":13298:13299   */\n      dup1\n        /* \"#utility.yul\":13291:13303   */\n      revert\n        /* \"#utility.yul\":13315:13432   */\n    tag_142:\n        /* \"#utility.yul\":13424:13425   */\n      0x00\n        /* \"#utility.yul\":13421:13422   */\n      dup1\n        /* \"#utility.yul\":13414:13426   */\n      revert\n        /* \"#utility.yul\":13438:13555   */\n    tag_135:\n        /* \"#utility.yul\":13547:13548   */\n      0x00\n        /* \"#utility.yul\":13544:13545   */\n      dup1\n        /* \"#utility.yul\":13537:13549   */\n      revert\n        /* \"#utility.yul\":13561:13663   */\n    tag_167:\n        /* \"#utility.yul\":13602:13608   */\n      0x00\n        /* \"#utility.yul\":13653:13655   */\n      0x1f\n        /* \"#utility.yul\":13649:13656   */\n      not\n        /* \"#utility.yul\":13644:13646   */\n      0x1f\n        /* \"#utility.yul\":13637:13642   */\n      dup4\n        /* \"#utility.yul\":13633:13647   */\n      add\n        /* \"#utility.yul\":13629:13657   */\n      and\n        /* \"#utility.yul\":13619:13657   */\n      swap1\n      pop\n        /* \"#utility.yul\":13561:13663   */\n      swap2\n      swap1\n      pop\n      jump\t// out\n        /* \"#utility.yul\":13669:13839   */\n    tag_178:\n        /* \"#utility.yul\":13809:13831   */\n      0x4e616d652063616e6e6f7420626520656d707479000000000000000000000000\n        /* \"#utility.yul\":13805:13806   */\n      0x00\n        /* \"#utility.yul\":13797:13803   */\n      dup3\n        /* \"#utility.yul\":13793:13807   */\n      add\n        /* \"#utility.yul\":13786:13832   */\n      mstore\n        /* \"#utility.yul\":13669:13839   */\n      pop\n      jump\t// out\n        /* \"#utility.yul\":13845:14012   */\n    tag_183:\n        /* \"#utility.yul\":13985:14004   */\n      0x426f6f6b20697320617661696c61626c65000000000000000000000000000000\n        /* \"#utility.yul\":13981:13982   */\n      0x00\n        /* \"#utility.yul\":13973:13979   */\n      dup3\n        /* \"#utility.yul\":13969:13983   */\n      add\n        /* \"#utility.yul\":13962:14005   */\n      mstore\n        /* \"#utility.yul\":13845:14012   */\n      pop\n      jump\t// out\n        /* \"#utility.yul\":14018:14243   */\n    tag_188:\n        /* \"#utility.yul\":14158:14192   */\n      0x4f776e61626c653a206e6577206f776e657220697320746865207a65726f2061\n        /* \"#utility.yul\":14154:14155   */\n      0x00\n        /* \"#utility.yul\":14146:14152   */\n      dup3\n        /* \"#utility.yul\":14142:14156   */\n      add\n        /* \"#utility.yul\":14135:14193   */\n      mstore\n        /* \"#utility.yul\":14227:14235   */\n      0x6464726573730000000000000000000000000000000000000000000000000000\n        /* \"#utility.yul\":14222:14224   */\n      0x20\n        /* \"#utility.yul\":14214:14220   */\n      dup3\n        /* \"#utility.yul\":14210:14225   */\n      add\n        /* \"#utility.yul\":14203:14236   */\n      mstore\n        /* \"#utility.yul\":14018:14243   */\n      pop\n      jump\t// out\n        /* \"#utility.yul\":14249:14431   */\n    tag_193:\n        /* \"#utility.yul\":14389:14423   */\n      0x4f776e61626c653a2063616c6c6572206973206e6f7420746865206f776e6572\n        /* \"#utility.yul\":14385:14386   */\n      0x00\n        /* \"#utility.yul\":14377:14383   */\n      dup3\n        /* \"#utility.yul\":14373:14387   */\n      add\n        /* \"#utility.yul\":14366:14424   */\n      mstore\n        /* \"#utility.yul\":14249:14431   */\n      pop\n      jump\t// out\n        /* \"#utility.yul\":14437:14592   */\n    tag_198:\n        /* \"#utility.yul\":14577:14584   */\n      0x217a65726f000000000000000000000000000000000000000000000000000000\n        /* \"#utility.yul\":14573:14574   */\n      0x00\n        /* \"#utility.yul\":14565:14571   */\n      dup3\n        /* \"#utility.yul\":14561:14575   */\n      add\n        /* \"#utility.yul\":14554:14585   */\n      mstore\n        /* \"#utility.yul\":14437:14592   */\n      pop\n      jump\t// out\n        /* \"#utility.yul\":14598:14767   */\n    tag_203:\n        /* \"#utility.yul\":14738:14759   */\n      0x426f6f6b20646f6573206e6f7420657869737400000000000000000000000000\n        /* \"#utility.yul\":14734:14735   */\n      0x00\n        /* \"#utility.yul\":14726:14732   */\n      dup3\n        /* \"#utility.yul\":14722:14736   */\n      add\n        /* \"#utility.yul\":14715:14760   */\n      mstore\n        /* \"#utility.yul\":14598:14767   */\n      pop\n      jump\t// out\n        /* \"#utility.yul\":14773:14895   */\n    tag_121:\n        /* \"#utility.yul\":14846:14870   */\n      tag_284\n        /* \"#utility.yul\":14864:14869   */\n      dup2\n        /* \"#utility.yul\":14846:14870   */\n      tag_157\n      jump\t// in\n    tag_284:\n        /* \"#utility.yul\":14839:14844   */\n      dup2\n        /* \"#utility.yul\":14836:14871   */\n      eq\n        /* \"#utility.yul\":14826:14889   */\n      tag_285\n      jumpi\n        /* \"#utility.yul\":14885:14886   */\n      0x00\n        /* \"#utility.yul\":14882:14883   */\n      dup1\n        /* \"#utility.yul\":14875:14887   */\n      revert\n        /* \"#utility.yul\":14826:14889   */\n    tag_285:\n        /* \"#utility.yul\":14773:14895   */\n      pop\n      jump\t// out\n        /* \"#utility.yul\":14901:15023   */\n    tag_131:\n        /* \"#utility.yul\":14974:14998   */\n      tag_287\n        /* \"#utility.yul\":14992:14997   */\n      dup2\n        /* \"#utility.yul\":14974:14998   */\n      tag_207\n      jump\t// in\n    tag_287:\n        /* \"#utility.yul\":14967:14972   */\n      dup2\n        /* \"#utility.yul\":14964:14999   */\n      eq\n        /* \"#utility.yul\":14954:15017   */\n      tag_288\n      jumpi\n        /* \"#utility.yul\":15013:15014   */\n      0x00\n        /* \"#utility.yul\":15010:15011   */\n      dup1\n        /* \"#utility.yul\":15003:15015   */\n      revert\n        /* \"#utility.yul\":14954:15017   */\n    tag_288:\n        /* \"#utility.yul\":14901:15023   */\n      pop\n      jump\t// out\n\n    auxdata: 0xa26469706673582212207780adf075cb19d71e5885f12e1badf391200e960d4cc5f28f89137fb0a6571764736f6c63430008070033\n}\n",
				"bytecode": {
					"linkReferences": {},
					"object": "608060405234801561001057600080fd5b5061002d61002261003260201b60201c565b61003a60201b60201c565b6100fe565b600033905090565b60008060009054906101000a900473ffffffffffffffffffffffffffffffffffffffff169050816000806101000a81548173ffffffffffffffffffffffffffffffffffffffff021916908373ffffffffffffffffffffffffffffffffffffffff1602179055508173ffffffffffffffffffffffffffffffffffffffff168173ffffffffffffffffffffffffffffffffffffffff167f8be0079c531659141344cd1fd0a4f28419497f9722a3daafe3b4186f6b6457e060405160405180910390a35050565b610edd8061010d6000396000f3fe608060405234801561001057600080fd5b506004361061007d5760003560e01c80637975c6b41161005b5780637975c6b4146100c45780638da5cb5b146100f5578063b905ad7814610113578063f2fde38b146101315761007d565b806360f9eefc14610082578063637a38721461009e578063715018a6146100ba575b600080fd5b61009c60048036038101906100979190610820565b61014d565b005b6100b860048036038101906100b39190610797565b61022b565b005b6100c2610370565b005b6100de60048036038101906100d991906107f3565b610384565b6040516100ec9291906109ec565b60405180910390f35b6100fd610430565b60405161010a91906109d1565b60405180910390f35b61011b610459565b6040516101289190610adc565b60405180910390f35b61014b6004803603810190610146919061076a565b61045f565b005b6101556104e3565b60008111610198576040517f08c379a000000000000000000000000000000000000000000000000000000000815260040161018f90610a9c565b60405180910390fd5b600060066000848152602001908152602001600020905060008160000180546101c090610c48565b90501415610203576040517f08c379a00000000000000000000000000000000000000000000000000000000081526004016101fa90610abc565b60405180910390fd5b60018160010160008282546102189190610b74565b9250508190558160010181905550505050565b6102336104e3565b8160058160405161024491906109ba565b908152602001604051809103902060009054906101000a900460ff16156102a0576040517f08c379a000000000000000000000000000000000000000000000000000000000815260040161029790610a3c565b60405180910390fd5b6000835114156102e5576040517f08c379a00000000000000000000000000000000000000000000000000000000081526004016102dc90610a1c565b60405180910390fd5b60016005846040516102f791906109ba565b908152602001604051809103902060006101000a81548160ff021916908315150217905550600060018361032b9190610b74565b925082905060006006600083815260200190815260200160002090508481600001908051906020019061035f92919061062d565b508381600101819055505050505050565b6103786104e3565b6103826000610561565b565b60066020528060005260406000206000915090508060000180546103a790610c48565b80601f01602080910402602001604051908101604052809291908181526020018280546103d390610c48565b80156104205780601f106103f557610100808354040283529160200191610420565b820191906000526020600020905b81548152906001019060200180831161040357829003601f168201915b5050505050908060010154905082565b60008060009054906101000a900473ffffffffffffffffffffffffffffffffffffffff16905090565b60045481565b6104676104e3565b600073ffffffffffffffffffffffffffffffffffffffff168173ffffffffffffffffffffffffffffffffffffffff1614156104d7576040517f08c379a00000000000000000000000000000000000000000000000000000000081526004016104ce90610a5c565b60405180910390fd5b6104e081610561565b50565b6104eb610625565b73ffffffffffffffffffffffffffffffffffffffff16610509610430565b73ffffffffffffffffffffffffffffffffffffffff161461055f576040517f08c379a000000000000000000000000000000000000000000000000000000000815260040161055690610a7c565b60405180910390fd5b565b60008060009054906101000a900473ffffffffffffffffffffffffffffffffffffffff169050816000806101000a81548173ffffffffffffffffffffffffffffffffffffffff021916908373ffffffffffffffffffffffffffffffffffffffff1602179055508173ffffffffffffffffffffffffffffffffffffffff168173ffffffffffffffffffffffffffffffffffffffff167f8be0079c531659141344cd1fd0a4f28419497f9722a3daafe3b4186f6b6457e060405160405180910390a35050565b600033905090565b82805461063990610c48565b90600052602060002090601f01602090048101928261065b57600085556106a2565b82601f1061067457805160ff19168380011785556106a2565b828001600101855582156106a2579182015b828111156106a1578251825591602001919060010190610686565b5b5090506106af91906106b3565b5090565b5b808211156106cc5760008160009055506001016106b4565b5090565b60006106e36106de84610b1c565b610af7565b9050828152602081018484840111156106ff576106fe610d3d565b5b61070a848285610c06565b509392505050565b60008135905061072181610e79565b92915050565b600082601f83011261073c5761073b610d38565b5b813561074c8482602086016106d0565b91505092915050565b60008135905061076481610e90565b92915050565b6000602082840312156107805761077f610d47565b5b600061078e84828501610712565b91505092915050565b600080604083850312156107ae576107ad610d47565b5b600083013567ffffffffffffffff8111156107cc576107cb610d42565b5b6107d885828601610727565b92505060206107e985828601610755565b9150509250929050565b60006020828403121561080957610808610d47565b5b600061081784828501610755565b91505092915050565b6000806040838503121561083757610836610d47565b5b600061084585828601610755565b925050602061085685828601610755565b9150509250929050565b61086981610bca565b82525050565b600061087a82610b4d565b6108848185610b58565b9350610894818560208601610c15565b61089d81610d4c565b840191505092915050565b60006108b382610b4d565b6108bd8185610b69565b93506108cd818560208601610c15565b80840191505092915050565b60006108e6601483610b58565b91506108f182610d5d565b602082019050919050565b6000610909601183610b58565b915061091482610d86565b602082019050919050565b600061092c602683610b58565b915061093782610daf565b604082019050919050565b600061094f602083610b58565b915061095a82610dfe565b602082019050919050565b6000610972600583610b58565b915061097d82610e27565b602082019050919050565b6000610995601383610b58565b91506109a082610e50565b602082019050919050565b6109b481610bfc565b82525050565b60006109c682846108a8565b915081905092915050565b60006020820190506109e66000830184610860565b92915050565b60006040820190508181036000830152610a06818561086f565b9050610a1560208301846109ab565b9392505050565b60006020820190508181036000830152610a35816108d9565b9050919050565b60006020820190508181036000830152610a55816108fc565b9050919050565b60006020820190508181036000830152610a758161091f565b9050919050565b60006020820190508181036000830152610a9581610942565b9050919050565b60006020820190508181036000830152610ab581610965565b9050919050565b60006020820190508181036000830152610ad581610988565b9050919050565b6000602082019050610af160008301846109ab565b92915050565b6000610b01610b12565b9050610b0d8282610c7a565b919050565b6000604051905090565b600067ffffffffffffffff821115610b3757610b36610d09565b5b610b4082610d4c565b9050602081019050919050565b600081519050919050565b600082825260208201905092915050565b600081905092915050565b6000610b7f82610bfc565b9150610b8a83610bfc565b9250827fffffffffffffffffffffffffffffffffffffffffffffffffffffffffffffffff03821115610bbf57610bbe610cab565b5b828201905092915050565b6000610bd582610bdc565b9050919050565b600073ffffffffffffffffffffffffffffffffffffffff82169050919050565b6000819050919050565b82818337600083830152505050565b60005b83811015610c33578082015181840152602081019050610c18565b83811115610c42576000848401525b50505050565b60006002820490506001821680610c6057607f821691505b60208210811415610c7457610c73610cda565b5b50919050565b610c8382610d4c565b810181811067ffffffffffffffff82111715610ca257610ca1610d09565b5b80604052505050565b7f4e487b7100000000000000000000000000000000000000000000000000000000600052601160045260246000fd5b7f4e487b7100000000000000000000000000000000000000000000000000000000600052602260045260246000fd5b7f4e487b7100000000000000000000000000000000000000000000000000000000600052604160045260246000fd5b600080fd5b600080fd5b600080fd5b600080fd5b6000601f19601f8301169050919050565b7f4e616d652063616e6e6f7420626520656d707479000000000000000000000000600082015250565b7f426f6f6b20697320617661696c61626c65000000000000000000000000000000600082015250565b7f4f776e61626c653a206e6577206f776e657220697320746865207a65726f206160008201527f6464726573730000000000000000000000000000000000000000000000000000602082015250565b7f4f776e61626c653a2063616c6c6572206973206e6f7420746865206f776e6572600082015250565b7f217a65726f000000000000000000000000000000000000000000000000000000600082015250565b7f426f6f6b20646f6573206e6f7420657869737400000000000000000000000000600082015250565b610e8281610bca565b8114610e8d57600080fd5b50565b610e9981610bfc565b8114610ea457600080fd5b5056fea26469706673582212207780adf075cb19d71e5885f12e1badf391200e960d4cc5f28f89137fb0a6571764736f6c63430008070033",
					"opcodes": "PUSH1 0x80 PUSH1 0x40 MSTORE CALLVALUE DUP1 ISZERO PUSH2 0x10 JUMPI PUSH1 0x0 DUP1 REVERT JUMPDEST POP PUSH2 0x2D PUSH2 0x22 PUSH2 0x32 PUSH1 0x20 SHL PUSH1 0x20 SHR JUMP JUMPDEST PUSH2 0x3A PUSH1 0x20 SHL PUSH1 0x20 SHR JUMP JUMPDEST PUSH2 0xFE JUMP JUMPDEST PUSH1 0x0 CALLER SWAP1 POP SWAP1 JUMP JUMPDEST PUSH1 0x0 DUP1 PUSH1 0x0 SWAP1 SLOAD SWAP1 PUSH2 0x100 EXP SWAP1 DIV PUSH20 0xFFFFFFFFFFFFFFFFFFFFFFFFFFFFFFFFFFFFFFFF AND SWAP1 POP DUP2 PUSH1 0x0 DUP1 PUSH2 0x100 EXP DUP2 SLOAD DUP2 PUSH20 0xFFFFFFFFFFFFFFFFFFFFFFFFFFFFFFFFFFFFFFFF MUL NOT AND SWAP1 DUP4 PUSH20 0xFFFFFFFFFFFFFFFFFFFFFFFFFFFFFFFFFFFFFFFF AND MUL OR SWAP1 SSTORE POP DUP2 PUSH20 0xFFFFFFFFFFFFFFFFFFFFFFFFFFFFFFFFFFFFFFFF AND DUP2 PUSH20 0xFFFFFFFFFFFFFFFFFFFFFFFFFFFFFFFFFFFFFFFF AND PUSH32 0x8BE0079C531659141344CD1FD0A4F28419497F9722A3DAAFE3B4186F6B6457E0 PUSH1 0x40 MLOAD PUSH1 0x40 MLOAD DUP1 SWAP2 SUB SWAP1 LOG3 POP POP JUMP JUMPDEST PUSH2 0xEDD DUP1 PUSH2 0x10D PUSH1 0x0 CODECOPY PUSH1 0x0 RETURN INVALID PUSH1 0x80 PUSH1 0x40 MSTORE CALLVALUE DUP1 ISZERO PUSH2 0x10 JUMPI PUSH1 0x0 DUP1 REVERT JUMPDEST POP PUSH1 0x4 CALLDATASIZE LT PUSH2 0x7D JUMPI PUSH1 0x0 CALLDATALOAD PUSH1 0xE0 SHR DUP1 PUSH4 0x7975C6B4 GT PUSH2 0x5B JUMPI DUP1 PUSH4 0x7975C6B4 EQ PUSH2 0xC4 JUMPI DUP1 PUSH4 0x8DA5CB5B EQ PUSH2 0xF5 JUMPI DUP1 PUSH4 0xB905AD78 EQ PUSH2 0x113 JUMPI DUP1 PUSH4 0xF2FDE38B EQ PUSH2 0x131 JUMPI PUSH2 0x7D JUMP JUMPDEST DUP1 PUSH4 0x60F9EEFC EQ PUSH2 0x82 JUMPI DUP1 PUSH4 0x637A3872 EQ PUSH2 0x9E JUMPI DUP1 PUSH4 0x715018A6 EQ PUSH2 0xBA JUMPI JUMPDEST PUSH1 0x0 DUP1 REVERT JUMPDEST PUSH2 0x9C PUSH1 0x4 DUP1 CALLDATASIZE SUB DUP2 ADD SWAP1 PUSH2 0x97 SWAP2 SWAP1 PUSH2 0x820 JUMP JUMPDEST PUSH2 0x14D JUMP JUMPDEST STOP JUMPDEST PUSH2 0xB8 PUSH1 0x4 DUP1 CALLDATASIZE SUB DUP2 ADD SWAP1 PUSH2 0xB3 SWAP2 SWAP1 PUSH2 0x797 JUMP JUMPDEST PUSH2 0x22B JUMP JUMPDEST STOP JUMPDEST PUSH2 0xC2 PUSH2 0x370 JUMP JUMPDEST STOP JUMPDEST PUSH2 0xDE PUSH1 0x4 DUP1 CALLDATASIZE SUB DUP2 ADD SWAP1 PUSH2 0xD9 SWAP2 SWAP1 PUSH2 0x7F3 JUMP JUMPDEST PUSH2 0x384 JUMP JUMPDEST PUSH1 0x40 MLOAD PUSH2 0xEC SWAP3 SWAP2 SWAP1 PUSH2 0x9EC JUMP JUMPDEST PUSH1 0x40 MLOAD DUP1 SWAP2 SUB SWAP1 RETURN JUMPDEST PUSH2 0xFD PUSH2 0x430 JUMP JUMPDEST PUSH1 0x40 MLOAD PUSH2 0x10A SWAP2 SWAP1 PUSH2 0x9D1 JUMP JUMPDEST PUSH1 0x40 MLOAD DUP1 SWAP2 SUB SWAP1 RETURN JUMPDEST PUSH2 0x11B PUSH2 0x459 JUMP JUMPDEST PUSH1 0x40 MLOAD PUSH2 0x128 SWAP2 SWAP1 PUSH2 0xADC JUMP JUMPDEST PUSH1 0x40 MLOAD DUP1 SWAP2 SUB SWAP1 RETURN JUMPDEST PUSH2 0x14B PUSH1 0x4 DUP1 CALLDATASIZE SUB DUP2 ADD SWAP1 PUSH2 0x146 SWAP2 SWAP1 PUSH2 0x76A JUMP JUMPDEST PUSH2 0x45F JUMP JUMPDEST STOP JUMPDEST PUSH2 0x155 PUSH2 0x4E3 JUMP JUMPDEST PUSH1 0x0 DUP2 GT PUSH2 0x198 JUMPI PUSH1 0x40 MLOAD PUSH32 0x8C379A000000000000000000000000000000000000000000000000000000000 DUP2 MSTORE PUSH1 0x4 ADD PUSH2 0x18F SWAP1 PUSH2 0xA9C JUMP JUMPDEST PUSH1 0x40 MLOAD DUP1 SWAP2 SUB SWAP1 REVERT JUMPDEST PUSH1 0x0 PUSH1 0x6 PUSH1 0x0 DUP5 DUP2 MSTORE PUSH1 0x20 ADD SWAP1 DUP2 MSTORE PUSH1 0x20 ADD PUSH1 0x0 KECCAK256 SWAP1 POP PUSH1 0x0 DUP2 PUSH1 0x0 ADD DUP1 SLOAD PUSH2 0x1C0 SWAP1 PUSH2 0xC48 JUMP JUMPDEST SWAP1 POP EQ ISZERO PUSH2 0x203 JUMPI PUSH1 0x40 MLOAD PUSH32 0x8C379A000000000000000000000000000000000000000000000000000000000 DUP2 MSTORE PUSH1 0x4 ADD PUSH2 0x1FA SWAP1 PUSH2 0xABC JUMP JUMPDEST PUSH1 0x40 MLOAD DUP1 SWAP2 SUB SWAP1 REVERT JUMPDEST PUSH1 0x1 DUP2 PUSH1 0x1 ADD PUSH1 0x0 DUP3 DUP3 SLOAD PUSH2 0x218 SWAP2 SWAP1 PUSH2 0xB74 JUMP JUMPDEST SWAP3 POP POP DUP2 SWAP1 SSTORE DUP2 PUSH1 0x1 ADD DUP2 SWAP1 SSTORE POP POP POP POP JUMP JUMPDEST PUSH2 0x233 PUSH2 0x4E3 JUMP JUMPDEST DUP2 PUSH1 0x5 DUP2 PUSH1 0x40 MLOAD PUSH2 0x244 SWAP2 SWAP1 PUSH2 0x9BA JUMP JUMPDEST SWAP1 DUP2 MSTORE PUSH1 0x20 ADD PUSH1 0x40 MLOAD DUP1 SWAP2 SUB SWAP1 KECCAK256 PUSH1 0x0 SWAP1 SLOAD SWAP1 PUSH2 0x100 EXP SWAP1 DIV PUSH1 0xFF AND ISZERO PUSH2 0x2A0 JUMPI PUSH1 0x40 MLOAD PUSH32 0x8C379A000000000000000000000000000000000000000000000000000000000 DUP2 MSTORE PUSH1 0x4 ADD PUSH2 0x297 SWAP1 PUSH2 0xA3C JUMP JUMPDEST PUSH1 0x40 MLOAD DUP1 SWAP2 SUB SWAP1 REVERT JUMPDEST PUSH1 0x0 DUP4 MLOAD EQ ISZERO PUSH2 0x2E5 JUMPI PUSH1 0x40 MLOAD PUSH32 0x8C379A000000000000000000000000000000000000000000000000000000000 DUP2 MSTORE PUSH1 0x4 ADD PUSH2 0x2DC SWAP1 PUSH2 0xA1C JUMP JUMPDEST PUSH1 0x40 MLOAD DUP1 SWAP2 SUB SWAP1 REVERT JUMPDEST PUSH1 0x1 PUSH1 0x5 DUP5 PUSH1 0x40 MLOAD PUSH2 0x2F7 SWAP2 SWAP1 PUSH2 0x9BA JUMP JUMPDEST SWAP1 DUP2 MSTORE PUSH1 0x20 ADD PUSH1 0x40 MLOAD DUP1 SWAP2 SUB SWAP1 KECCAK256 PUSH1 0x0 PUSH2 0x100 EXP DUP2 SLOAD DUP2 PUSH1 0xFF MUL NOT AND SWAP1 DUP4 ISZERO ISZERO MUL OR SWAP1 SSTORE POP PUSH1 0x0 PUSH1 0x1 DUP4 PUSH2 0x32B SWAP2 SWAP1 PUSH2 0xB74 JUMP JUMPDEST SWAP3 POP DUP3 SWAP1 POP PUSH1 0x0 PUSH1 0x6 PUSH1 0x0 DUP4 DUP2 MSTORE PUSH1 0x20 ADD SWAP1 DUP2 MSTORE PUSH1 0x20 ADD PUSH1 0x0 KECCAK256 SWAP1 POP DUP5 DUP2 PUSH1 0x0 ADD SWAP1 DUP1 MLOAD SWAP1 PUSH1 0x20 ADD SWAP1 PUSH2 0x35F SWAP3 SWAP2 SWAP1 PUSH2 0x62D JUMP JUMPDEST POP DUP4 DUP2 PUSH1 0x1 ADD DUP2 SWAP1 SSTORE POP POP POP POP POP POP JUMP JUMPDEST PUSH2 0x378 PUSH2 0x4E3 JUMP JUMPDEST PUSH2 0x382 PUSH1 0x0 PUSH2 0x561 JUMP JUMPDEST JUMP JUMPDEST PUSH1 0x6 PUSH1 0x20 MSTORE DUP1 PUSH1 0x0 MSTORE PUSH1 0x40 PUSH1 0x0 KECCAK256 PUSH1 0x0 SWAP2 POP SWAP1 POP DUP1 PUSH1 0x0 ADD DUP1 SLOAD PUSH2 0x3A7 SWAP1 PUSH2 0xC48 JUMP JUMPDEST DUP1 PUSH1 0x1F ADD PUSH1 0x20 DUP1 SWAP2 DIV MUL PUSH1 0x20 ADD PUSH1 0x40 MLOAD SWAP1 DUP2 ADD PUSH1 0x40 MSTORE DUP1 SWAP3 SWAP2 SWAP1 DUP2 DUP2 MSTORE PUSH1 0x20 ADD DUP3 DUP1 SLOAD PUSH2 0x3D3 SWAP1 PUSH2 0xC48 JUMP JUMPDEST DUP1 ISZERO PUSH2 0x420 JUMPI DUP1 PUSH1 0x1F LT PUSH2 0x3F5 JUMPI PUSH2 0x100 DUP1 DUP4 SLOAD DIV MUL DUP4 MSTORE SWAP2 PUSH1 0x20 ADD SWAP2 PUSH2 0x420 JUMP JUMPDEST DUP3 ADD SWAP2 SWAP1 PUSH1 0x0 MSTORE PUSH1 0x20 PUSH1 0x0 KECCAK256 SWAP1 JUMPDEST DUP2 SLOAD DUP2 MSTORE SWAP1 PUSH1 0x1 ADD SWAP1 PUSH1 0x20 ADD DUP1 DUP4 GT PUSH2 0x403 JUMPI DUP3 SWAP1 SUB PUSH1 0x1F AND DUP3 ADD SWAP2 JUMPDEST POP POP POP POP POP SWAP1 DUP1 PUSH1 0x1 ADD SLOAD SWAP1 POP DUP3 JUMP JUMPDEST PUSH1 0x0 DUP1 PUSH1 0x0 SWAP1 SLOAD SWAP1 PUSH2 0x100 EXP SWAP1 DIV PUSH20 0xFFFFFFFFFFFFFFFFFFFFFFFFFFFFFFFFFFFFFFFF AND SWAP1 POP SWAP1 JUMP JUMPDEST PUSH1 0x4 SLOAD DUP2 JUMP JUMPDEST PUSH2 0x467 PUSH2 0x4E3 JUMP JUMPDEST PUSH1 0x0 PUSH20 0xFFFFFFFFFFFFFFFFFFFFFFFFFFFFFFFFFFFFFFFF AND DUP2 PUSH20 0xFFFFFFFFFFFFFFFFFFFFFFFFFFFFFFFFFFFFFFFF AND EQ ISZERO PUSH2 0x4D7 JUMPI PUSH1 0x40 MLOAD PUSH32 0x8C379A000000000000000000000000000000000000000000000000000000000 DUP2 MSTORE PUSH1 0x4 ADD PUSH2 0x4CE SWAP1 PUSH2 0xA5C JUMP JUMPDEST PUSH1 0x40 MLOAD DUP1 SWAP2 SUB SWAP1 REVERT JUMPDEST PUSH2 0x4E0 DUP2 PUSH2 0x561 JUMP JUMPDEST POP JUMP JUMPDEST PUSH2 0x4EB PUSH2 0x625 JUMP JUMPDEST PUSH20 0xFFFFFFFFFFFFFFFFFFFFFFFFFFFFFFFFFFFFFFFF AND PUSH2 0x509 PUSH2 0x430 JUMP JUMPDEST PUSH20 0xFFFFFFFFFFFFFFFFFFFFFFFFFFFFFFFFFFFFFFFF AND EQ PUSH2 0x55F JUMPI PUSH1 0x40 MLOAD PUSH32 0x8C379A000000000000000000000000000000000000000000000000000000000 DUP2 MSTORE PUSH1 0x4 ADD PUSH2 0x556 SWAP1 PUSH2 0xA7C JUMP JUMPDEST PUSH1 0x40 MLOAD DUP1 SWAP2 SUB SWAP1 REVERT JUMPDEST JUMP JUMPDEST PUSH1 0x0 DUP1 PUSH1 0x0 SWAP1 SLOAD SWAP1 PUSH2 0x100 EXP SWAP1 DIV PUSH20 0xFFFFFFFFFFFFFFFFFFFFFFFFFFFFFFFFFFFFFFFF AND SWAP1 POP DUP2 PUSH1 0x0 DUP1 PUSH2 0x100 EXP DUP2 SLOAD DUP2 PUSH20 0xFFFFFFFFFFFFFFFFFFFFFFFFFFFFFFFFFFFFFFFF MUL NOT AND SWAP1 DUP4 PUSH20 0xFFFFFFFFFFFFFFFFFFFFFFFFFFFFFFFFFFFFFFFF AND MUL OR SWAP1 SSTORE POP DUP2 PUSH20 0xFFFFFFFFFFFFFFFFFFFFFFFFFFFFFFFFFFFFFFFF AND DUP2 PUSH20 0xFFFFFFFFFFFFFFFFFFFFFFFFFFFFFFFFFFFFFFFF AND PUSH32 0x8BE0079C531659141344CD1FD0A4F28419497F9722A3DAAFE3B4186F6B6457E0 PUSH1 0x40 MLOAD PUSH1 0x40 MLOAD DUP1 SWAP2 SUB SWAP1 LOG3 POP POP JUMP JUMPDEST PUSH1 0x0 CALLER SWAP1 POP SWAP1 JUMP JUMPDEST DUP3 DUP1 SLOAD PUSH2 0x639 SWAP1 PUSH2 0xC48 JUMP JUMPDEST SWAP1 PUSH1 0x0 MSTORE PUSH1 0x20 PUSH1 0x0 KECCAK256 SWAP1 PUSH1 0x1F ADD PUSH1 0x20 SWAP1 DIV DUP2 ADD SWAP3 DUP3 PUSH2 0x65B JUMPI PUSH1 0x0 DUP6 SSTORE PUSH2 0x6A2 JUMP JUMPDEST DUP3 PUSH1 0x1F LT PUSH2 0x674 JUMPI DUP1 MLOAD PUSH1 0xFF NOT AND DUP4 DUP1 ADD OR DUP6 SSTORE PUSH2 0x6A2 JUMP JUMPDEST DUP3 DUP1 ADD PUSH1 0x1 ADD DUP6 SSTORE DUP3 ISZERO PUSH2 0x6A2 JUMPI SWAP2 DUP3 ADD JUMPDEST DUP3 DUP2 GT ISZERO PUSH2 0x6A1 JUMPI DUP3 MLOAD DUP3 SSTORE SWAP2 PUSH1 0x20 ADD SWAP2 SWAP1 PUSH1 0x1 ADD SWAP1 PUSH2 0x686 JUMP JUMPDEST JUMPDEST POP SWAP1 POP PUSH2 0x6AF SWAP2 SWAP1 PUSH2 0x6B3 JUMP JUMPDEST POP SWAP1 JUMP JUMPDEST JUMPDEST DUP1 DUP3 GT ISZERO PUSH2 0x6CC JUMPI PUSH1 0x0 DUP2 PUSH1 0x0 SWAP1 SSTORE POP PUSH1 0x1 ADD PUSH2 0x6B4 JUMP JUMPDEST POP SWAP1 JUMP JUMPDEST PUSH1 0x0 PUSH2 0x6E3 PUSH2 0x6DE DUP5 PUSH2 0xB1C JUMP JUMPDEST PUSH2 0xAF7 JUMP JUMPDEST SWAP1 POP DUP3 DUP2 MSTORE PUSH1 0x20 DUP2 ADD DUP5 DUP5 DUP5 ADD GT ISZERO PUSH2 0x6FF JUMPI PUSH2 0x6FE PUSH2 0xD3D JUMP JUMPDEST JUMPDEST PUSH2 0x70A DUP5 DUP3 DUP6 PUSH2 0xC06 JUMP JUMPDEST POP SWAP4 SWAP3 POP POP POP JUMP JUMPDEST PUSH1 0x0 DUP2 CALLDATALOAD SWAP1 POP PUSH2 0x721 DUP2 PUSH2 0xE79 JUMP JUMPDEST SWAP3 SWAP2 POP POP JUMP JUMPDEST PUSH1 0x0 DUP3 PUSH1 0x1F DUP4 ADD SLT PUSH2 0x73C JUMPI PUSH2 0x73B PUSH2 0xD38 JUMP JUMPDEST JUMPDEST DUP2 CALLDATALOAD PUSH2 0x74C DUP5 DUP3 PUSH1 0x20 DUP7 ADD PUSH2 0x6D0 JUMP JUMPDEST SWAP2 POP POP SWAP3 SWAP2 POP POP JUMP JUMPDEST PUSH1 0x0 DUP2 CALLDATALOAD SWAP1 POP PUSH2 0x764 DUP2 PUSH2 0xE90 JUMP JUMPDEST SWAP3 SWAP2 POP POP JUMP JUMPDEST PUSH1 0x0 PUSH1 0x20 DUP3 DUP5 SUB SLT ISZERO PUSH2 0x780 JUMPI PUSH2 0x77F PUSH2 0xD47 JUMP JUMPDEST JUMPDEST PUSH1 0x0 PUSH2 0x78E DUP5 DUP3 DUP6 ADD PUSH2 0x712 JUMP JUMPDEST SWAP2 POP POP SWAP3 SWAP2 POP POP JUMP JUMPDEST PUSH1 0x0 DUP1 PUSH1 0x40 DUP4 DUP6 SUB SLT ISZERO PUSH2 0x7AE JUMPI PUSH2 0x7AD PUSH2 0xD47 JUMP JUMPDEST JUMPDEST PUSH1 0x0 DUP4 ADD CALLDATALOAD PUSH8 0xFFFFFFFFFFFFFFFF DUP2 GT ISZERO PUSH2 0x7CC JUMPI PUSH2 0x7CB PUSH2 0xD42 JUMP JUMPDEST JUMPDEST PUSH2 0x7D8 DUP6 DUP3 DUP7 ADD PUSH2 0x727 JUMP JUMPDEST SWAP3 POP POP PUSH1 0x20 PUSH2 0x7E9 DUP6 DUP3 DUP7 ADD PUSH2 0x755 JUMP JUMPDEST SWAP2 POP POP SWAP3 POP SWAP3 SWAP1 POP JUMP JUMPDEST PUSH1 0x0 PUSH1 0x20 DUP3 DUP5 SUB SLT ISZERO PUSH2 0x809 JUMPI PUSH2 0x808 PUSH2 0xD47 JUMP JUMPDEST JUMPDEST PUSH1 0x0 PUSH2 0x817 DUP5 DUP3 DUP6 ADD PUSH2 0x755 JUMP JUMPDEST SWAP2 POP POP SWAP3 SWAP2 POP POP JUMP JUMPDEST PUSH1 0x0 DUP1 PUSH1 0x40 DUP4 DUP6 SUB SLT ISZERO PUSH2 0x837 JUMPI PUSH2 0x836 PUSH2 0xD47 JUMP JUMPDEST JUMPDEST PUSH1 0x0 PUSH2 0x845 DUP6 DUP3 DUP7 ADD PUSH2 0x755 JUMP JUMPDEST SWAP3 POP POP PUSH1 0x20 PUSH2 0x856 DUP6 DUP3 DUP7 ADD PUSH2 0x755 JUMP JUMPDEST SWAP2 POP POP SWAP3 POP SWAP3 SWAP1 POP JUMP JUMPDEST PUSH2 0x869 DUP2 PUSH2 0xBCA JUMP JUMPDEST DUP3 MSTORE POP POP JUMP JUMPDEST PUSH1 0x0 PUSH2 0x87A DUP3 PUSH2 0xB4D JUMP JUMPDEST PUSH2 0x884 DUP2 DUP6 PUSH2 0xB58 JUMP JUMPDEST SWAP4 POP PUSH2 0x894 DUP2 DUP6 PUSH1 0x20 DUP7 ADD PUSH2 0xC15 JUMP JUMPDEST PUSH2 0x89D DUP2 PUSH2 0xD4C JUMP JUMPDEST DUP5 ADD SWAP2 POP POP SWAP3 SWAP2 POP POP JUMP JUMPDEST PUSH1 0x0 PUSH2 0x8B3 DUP3 PUSH2 0xB4D JUMP JUMPDEST PUSH2 0x8BD DUP2 DUP6 PUSH2 0xB69 JUMP JUMPDEST SWAP4 POP PUSH2 0x8CD DUP2 DUP6 PUSH1 0x20 DUP7 ADD PUSH2 0xC15 JUMP JUMPDEST DUP1 DUP5 ADD SWAP2 POP POP SWAP3 SWAP2 POP POP JUMP JUMPDEST PUSH1 0x0 PUSH2 0x8E6 PUSH1 0x14 DUP4 PUSH2 0xB58 JUMP JUMPDEST SWAP2 POP PUSH2 0x8F1 DUP3 PUSH2 0xD5D JUMP JUMPDEST PUSH1 0x20 DUP3 ADD SWAP1 POP SWAP2 SWAP1 POP JUMP JUMPDEST PUSH1 0x0 PUSH2 0x909 PUSH1 0x11 DUP4 PUSH2 0xB58 JUMP JUMPDEST SWAP2 POP PUSH2 0x914 DUP3 PUSH2 0xD86 JUMP JUMPDEST PUSH1 0x20 DUP3 ADD SWAP1 POP SWAP2 SWAP1 POP JUMP JUMPDEST PUSH1 0x0 PUSH2 0x92C PUSH1 0x26 DUP4 PUSH2 0xB58 JUMP JUMPDEST SWAP2 POP PUSH2 0x937 DUP3 PUSH2 0xDAF JUMP JUMPDEST PUSH1 0x40 DUP3 ADD SWAP1 POP SWAP2 SWAP1 POP JUMP JUMPDEST PUSH1 0x0 PUSH2 0x94F PUSH1 0x20 DUP4 PUSH2 0xB58 JUMP JUMPDEST SWAP2 POP PUSH2 0x95A DUP3 PUSH2 0xDFE JUMP JUMPDEST PUSH1 0x20 DUP3 ADD SWAP1 POP SWAP2 SWAP1 POP JUMP JUMPDEST PUSH1 0x0 PUSH2 0x972 PUSH1 0x5 DUP4 PUSH2 0xB58 JUMP JUMPDEST SWAP2 POP PUSH2 0x97D DUP3 PUSH2 0xE27 JUMP JUMPDEST PUSH1 0x20 DUP3 ADD SWAP1 POP SWAP2 SWAP1 POP JUMP JUMPDEST PUSH1 0x0 PUSH2 0x995 PUSH1 0x13 DUP4 PUSH2 0xB58 JUMP JUMPDEST SWAP2 POP PUSH2 0x9A0 DUP3 PUSH2 0xE50 JUMP JUMPDEST PUSH1 0x20 DUP3 ADD SWAP1 POP SWAP2 SWAP1 POP JUMP JUMPDEST PUSH2 0x9B4 DUP2 PUSH2 0xBFC JUMP JUMPDEST DUP3 MSTORE POP POP JUMP JUMPDEST PUSH1 0x0 PUSH2 0x9C6 DUP3 DUP5 PUSH2 0x8A8 JUMP JUMPDEST SWAP2 POP DUP2 SWAP1 POP SWAP3 SWAP2 POP POP JUMP JUMPDEST PUSH1 0x0 PUSH1 0x20 DUP3 ADD SWAP1 POP PUSH2 0x9E6 PUSH1 0x0 DUP4 ADD DUP5 PUSH2 0x860 JUMP JUMPDEST SWAP3 SWAP2 POP POP JUMP JUMPDEST PUSH1 0x0 PUSH1 0x40 DUP3 ADD SWAP1 POP DUP2 DUP2 SUB PUSH1 0x0 DUP4 ADD MSTORE PUSH2 0xA06 DUP2 DUP6 PUSH2 0x86F JUMP JUMPDEST SWAP1 POP PUSH2 0xA15 PUSH1 0x20 DUP4 ADD DUP5 PUSH2 0x9AB JUMP JUMPDEST SWAP4 SWAP3 POP POP POP JUMP JUMPDEST PUSH1 0x0 PUSH1 0x20 DUP3 ADD SWAP1 POP DUP2 DUP2 SUB PUSH1 0x0 DUP4 ADD MSTORE PUSH2 0xA35 DUP2 PUSH2 0x8D9 JUMP JUMPDEST SWAP1 POP SWAP2 SWAP1 POP JUMP JUMPDEST PUSH1 0x0 PUSH1 0x20 DUP3 ADD SWAP1 POP DUP2 DUP2 SUB PUSH1 0x0 DUP4 ADD MSTORE PUSH2 0xA55 DUP2 PUSH2 0x8FC JUMP JUMPDEST SWAP1 POP SWAP2 SWAP1 POP JUMP JUMPDEST PUSH1 0x0 PUSH1 0x20 DUP3 ADD SWAP1 POP DUP2 DUP2 SUB PUSH1 0x0 DUP4 ADD MSTORE PUSH2 0xA75 DUP2 PUSH2 0x91F JUMP JUMPDEST SWAP1 POP SWAP2 SWAP1 POP JUMP JUMPDEST PUSH1 0x0 PUSH1 0x20 DUP3 ADD SWAP1 POP DUP2 DUP2 SUB PUSH1 0x0 DUP4 ADD MSTORE PUSH2 0xA95 DUP2 PUSH2 0x942 JUMP JUMPDEST SWAP1 POP SWAP2 SWAP1 POP JUMP JUMPDEST PUSH1 0x0 PUSH1 0x20 DUP3 ADD SWAP1 POP DUP2 DUP2 SUB PUSH1 0x0 DUP4 ADD MSTORE PUSH2 0xAB5 DUP2 PUSH2 0x965 JUMP JUMPDEST SWAP1 POP SWAP2 SWAP1 POP JUMP JUMPDEST PUSH1 0x0 PUSH1 0x20 DUP3 ADD SWAP1 POP DUP2 DUP2 SUB PUSH1 0x0 DUP4 ADD MSTORE PUSH2 0xAD5 DUP2 PUSH2 0x988 JUMP JUMPDEST SWAP1 POP SWAP2 SWAP1 POP JUMP JUMPDEST PUSH1 0x0 PUSH1 0x20 DUP3 ADD SWAP1 POP PUSH2 0xAF1 PUSH1 0x0 DUP4 ADD DUP5 PUSH2 0x9AB JUMP JUMPDEST SWAP3 SWAP2 POP POP JUMP JUMPDEST PUSH1 0x0 PUSH2 0xB01 PUSH2 0xB12 JUMP JUMPDEST SWAP1 POP PUSH2 0xB0D DUP3 DUP3 PUSH2 0xC7A JUMP JUMPDEST SWAP2 SWAP1 POP JUMP JUMPDEST PUSH1 0x0 PUSH1 0x40 MLOAD SWAP1 POP SWAP1 JUMP JUMPDEST PUSH1 0x0 PUSH8 0xFFFFFFFFFFFFFFFF DUP3 GT ISZERO PUSH2 0xB37 JUMPI PUSH2 0xB36 PUSH2 0xD09 JUMP JUMPDEST JUMPDEST PUSH2 0xB40 DUP3 PUSH2 0xD4C JUMP JUMPDEST SWAP1 POP PUSH1 0x20 DUP2 ADD SWAP1 POP SWAP2 SWAP1 POP JUMP JUMPDEST PUSH1 0x0 DUP2 MLOAD SWAP1 POP SWAP2 SWAP1 POP JUMP JUMPDEST PUSH1 0x0 DUP3 DUP3 MSTORE PUSH1 0x20 DUP3 ADD SWAP1 POP SWAP3 SWAP2 POP POP JUMP JUMPDEST PUSH1 0x0 DUP2 SWAP1 POP SWAP3 SWAP2 POP POP JUMP JUMPDEST PUSH1 0x0 PUSH2 0xB7F DUP3 PUSH2 0xBFC JUMP JUMPDEST SWAP2 POP PUSH2 0xB8A DUP4 PUSH2 0xBFC JUMP JUMPDEST SWAP3 POP DUP3 PUSH32 0xFFFFFFFFFFFFFFFFFFFFFFFFFFFFFFFFFFFFFFFFFFFFFFFFFFFFFFFFFFFFFFFF SUB DUP3 GT ISZERO PUSH2 0xBBF JUMPI PUSH2 0xBBE PUSH2 0xCAB JUMP JUMPDEST JUMPDEST DUP3 DUP3 ADD SWAP1 POP SWAP3 SWAP2 POP POP JUMP JUMPDEST PUSH1 0x0 PUSH2 0xBD5 DUP3 PUSH2 0xBDC JUMP JUMPDEST SWAP1 POP SWAP2 SWAP1 POP JUMP JUMPDEST PUSH1 0x0 PUSH20 0xFFFFFFFFFFFFFFFFFFFFFFFFFFFFFFFFFFFFFFFF DUP3 AND SWAP1 POP SWAP2 SWAP1 POP JUMP JUMPDEST PUSH1 0x0 DUP2 SWAP1 POP SWAP2 SWAP1 POP JUMP JUMPDEST DUP3 DUP2 DUP4 CALLDATACOPY PUSH1 0x0 DUP4 DUP4 ADD MSTORE POP POP POP JUMP JUMPDEST PUSH1 0x0 JUMPDEST DUP4 DUP2 LT ISZERO PUSH2 0xC33 JUMPI DUP1 DUP3 ADD MLOAD DUP2 DUP5 ADD MSTORE PUSH1 0x20 DUP2 ADD SWAP1 POP PUSH2 0xC18 JUMP JUMPDEST DUP4 DUP2 GT ISZERO PUSH2 0xC42 JUMPI PUSH1 0x0 DUP5 DUP5 ADD MSTORE JUMPDEST POP POP POP POP JUMP JUMPDEST PUSH1 0x0 PUSH1 0x2 DUP3 DIV SWAP1 POP PUSH1 0x1 DUP3 AND DUP1 PUSH2 0xC60 JUMPI PUSH1 0x7F DUP3 AND SWAP2 POP JUMPDEST PUSH1 0x20 DUP3 LT DUP2 EQ ISZERO PUSH2 0xC74 JUMPI PUSH2 0xC73 PUSH2 0xCDA JUMP JUMPDEST JUMPDEST POP SWAP2 SWAP1 POP JUMP JUMPDEST PUSH2 0xC83 DUP3 PUSH2 0xD4C JUMP JUMPDEST DUP2 ADD DUP2 DUP2 LT PUSH8 0xFFFFFFFFFFFFFFFF DUP3 GT OR ISZERO PUSH2 0xCA2 JUMPI PUSH2 0xCA1 PUSH2 0xD09 JUMP JUMPDEST JUMPDEST DUP1 PUSH1 0x40 MSTORE POP POP POP JUMP JUMPDEST PUSH32 0x4E487B7100000000000000000000000000000000000000000000000000000000 PUSH1 0x0 MSTORE PUSH1 0x11 PUSH1 0x4 MSTORE PUSH1 0x24 PUSH1 0x0 REVERT JUMPDEST PUSH32 0x4E487B7100000000000000000000000000000000000000000000000000000000 PUSH1 0x0 MSTORE PUSH1 0x22 PUSH1 0x4 MSTORE PUSH1 0x24 PUSH1 0x0 REVERT JUMPDEST PUSH32 0x4E487B7100000000000000000000000000000000000000000000000000000000 PUSH1 0x0 MSTORE PUSH1 0x41 PUSH1 0x4 MSTORE PUSH1 0x24 PUSH1 0x0 REVERT JUMPDEST PUSH1 0x0 DUP1 REVERT JUMPDEST PUSH1 0x0 DUP1 REVERT JUMPDEST PUSH1 0x0 DUP1 REVERT JUMPDEST PUSH1 0x0 DUP1 REVERT JUMPDEST PUSH1 0x0 PUSH1 0x1F NOT PUSH1 0x1F DUP4 ADD AND SWAP1 POP SWAP2 SWAP1 POP JUMP JUMPDEST PUSH32 0x4E616D652063616E6E6F7420626520656D707479000000000000000000000000 PUSH1 0x0 DUP3 ADD MSTORE POP JUMP JUMPDEST PUSH32 0x426F6F6B20697320617661696C61626C65000000000000000000000000000000 PUSH1 0x0 DUP3 ADD MSTORE POP JUMP JUMPDEST PUSH32 0x4F776E61626C653A206E6577206F776E657220697320746865207A65726F2061 PUSH1 0x0 DUP3 ADD MSTORE PUSH32 0x6464726573730000000000000000000000000000000000000000000000000000 PUSH1 0x20 DUP3 ADD MSTORE POP JUMP JUMPDEST PUSH32 0x4F776E61626C653A2063616C6C6572206973206E6F7420746865206F776E6572 PUSH1 0x0 DUP3 ADD MSTORE POP JUMP JUMPDEST PUSH32 0x217A65726F000000000000000000000000000000000000000000000000000000 PUSH1 0x0 DUP3 ADD MSTORE POP JUMP JUMPDEST PUSH32 0x426F6F6B20646F6573206E6F7420657869737400000000000000000000000000 PUSH1 0x0 DUP3 ADD MSTORE POP JUMP JUMPDEST PUSH2 0xE82 DUP2 PUSH2 0xBCA JUMP JUMPDEST DUP2 EQ PUSH2 0xE8D JUMPI PUSH1 0x0 DUP1 REVERT JUMPDEST POP JUMP JUMPDEST PUSH2 0xE99 DUP2 PUSH2 0xBFC JUMP JUMPDEST DUP2 EQ PUSH2 0xEA4 JUMPI PUSH1 0x0 DUP1 REVERT JUMPDEST POP JUMP INVALID LOG2 PUSH5 0x6970667358 0x22 SLT KECCAK256 PUSH24 0x80ADF075CB19D71E5885F12E1BADF391200E960D4CC5F28F DUP10 SGT PUSH32 0xB0A6571764736F6C634300080700330000000000000000000000000000000000 "
				},
				"gasEstimates": {
					"creation": {
						"codeDepositCost": "761000",
						"executionCost": "infinite",
						"totalCost": "infinite"
					},
					"external": {
						"BookLedger(uint256)": "infinite",
						"addBook(string,uint256)": "infinite",
						"addBookCopies(uint256,uint256)": "infinite",
						"bookCount()": "2473",
						"owner()": "2544",
						"renounceOwnership()": "30443",
						"transferOwnership(address)": "30813"
					}
				},
				"methodIdentifiers": {
					"BookLedger(uint256)": "7975c6b4",
					"addBook(string,uint256)": "637a3872",
					"addBookCopies(uint256,uint256)": "60f9eefc",
					"bookCount()": "b905ad78",
					"owner()": "8da5cb5b",
					"renounceOwnership()": "715018a6",
					"transferOwnership(address)": "f2fde38b"
				}
			},
			"storageLayout": {
				"storage": [
					{
						"astId": 7,
						"contract": "contracts/Library.sol:Library",
						"label": "_owner",
						"offset": 0,
						"slot": "0",
						"type": "t_address"
					},
					{
						"astId": 151,
						"contract": "contracts/Library.sol:Library",
						"label": "myBook",
						"offset": 0,
						"slot": "1",
						"type": "t_struct(Book)148_storage"
					},
					{
						"astId": 153,
						"contract": "contracts/Library.sol:Library",
						"label": "bookCount",
						"offset": 0,
						"slot": "4",
						"type": "t_uint256"
					},
					{
						"astId": 157,
						"contract": "contracts/Library.sol:Library",
						"label": "isAvailable",
						"offset": 0,
						"slot": "5",
						"type": "t_mapping(t_string_memory_ptr,t_bool)"
					},
					{
						"astId": 162,
						"contract": "contracts/Library.sol:Library",
						"label": "BookLedger",
						"offset": 0,
						"slot": "6",
						"type": "t_mapping(t_uint256,t_struct(Book)148_storage)"
					}
				],
				"types": {
					"t_address": {
						"encoding": "inplace",
						"label": "address",
						"numberOfBytes": "20"
					},
					"t_bool": {
						"encoding": "inplace",
						"label": "bool",
						"numberOfBytes": "1"
					},
					"t_mapping(t_string_memory_ptr,t_bool)": {
						"encoding": "mapping",
						"key": "t_string_memory_ptr",
						"label": "mapping(string => bool)",
						"numberOfBytes": "32",
						"value": "t_bool"
					},
					"t_mapping(t_uint256,t_address)": {
						"encoding": "mapping",
						"key": "t_uint256",
						"label": "mapping(uint256 => address)",
						"numberOfBytes": "32",
						"value": "t_address"
					},
					"t_mapping(t_uint256,t_struct(Book)148_storage)": {
						"encoding": "mapping",
						"key": "t_uint256",
						"label": "mapping(uint256 => struct Library.Book)",
						"numberOfBytes": "32",
						"value": "t_struct(Book)148_storage"
					},
					"t_string_memory_ptr": {
						"encoding": "bytes",
						"label": "string",
						"numberOfBytes": "32"
					},
					"t_string_storage": {
						"encoding": "bytes",
						"label": "string",
						"numberOfBytes": "32"
					},
					"t_struct(Book)148_storage": {
						"encoding": "inplace",
						"label": "struct Library.Book",
						"members": [
							{
								"astId": 141,
								"contract": "contracts/Library.sol:Library",
								"label": "name",
								"offset": 0,
								"slot": "0",
								"type": "t_string_storage"
							},
							{
								"astId": 143,
								"contract": "contracts/Library.sol:Library",
								"label": "copies",
								"offset": 0,
								"slot": "1",
								"type": "t_uint256"
							},
							{
								"astId": 147,
								"contract": "contracts/Library.sol:Library",
								"label": "ownersHistory",
								"offset": 0,
								"slot": "2",
								"type": "t_mapping(t_uint256,t_address)"
							}
						],
						"numberOfBytes": "96"
					},
					"t_uint256": {
						"encoding": "inplace",
						"label": "uint256",
						"numberOfBytes": "32"
					}
				}
			},
			"userdoc": {
				"kind": "user",
				"methods": {},
				"version": 1
			}
		}
	}
}