{
	"contracts/Library.sol": {
		"Library": {
			"abi": [
				{
					"anonymous": false,
					"inputs": [
						{
							"indexed": true,
							"internalType": "address",
							"name": "previousOwner",
							"type": "address"
						},
						{
							"indexed": true,
							"internalType": "address",
							"name": "newOwner",
							"type": "address"
						}
					],
					"name": "OwnershipTransferred",
					"type": "event"
				},
				{
					"inputs": [
						{
							"internalType": "uint256",
							"name": "",
							"type": "uint256"
						}
					],
					"name": "BookLedger",
					"outputs": [
						{
							"internalType": "string",
							"name": "name",
							"type": "string"
						},
						{
							"internalType": "uint256",
							"name": "copies",
							"type": "uint256"
						},
						{
							"internalType": "uint256",
							"name": "ownerCount",
							"type": "uint256"
						}
					],
					"stateMutability": "view",
					"type": "function"
				},
				{
					"inputs": [
						{
							"internalType": "string",
							"name": "_name",
							"type": "string"
						},
						{
							"internalType": "uint256",
							"name": "_copies",
							"type": "uint256"
						}
					],
					"name": "addBook",
					"outputs": [],
					"stateMutability": "nonpayable",
					"type": "function"
				},
				{
					"inputs": [
						{
							"internalType": "uint256",
							"name": "_bookId",
							"type": "uint256"
						},
						{
							"internalType": "uint256",
							"name": "_copies",
							"type": "uint256"
						}
					],
					"name": "addBookCopies",
					"outputs": [],
					"stateMutability": "nonpayable",
					"type": "function"
				},
				{
					"inputs": [],
					"name": "bookCount",
					"outputs": [
						{
							"internalType": "uint256",
							"name": "",
							"type": "uint256"
						}
					],
					"stateMutability": "view",
					"type": "function"
				},
				{
					"inputs": [
						{
							"internalType": "uint256",
							"name": "_id",
							"type": "uint256"
						}
					],
					"name": "borrowBook",
					"outputs": [],
					"stateMutability": "nonpayable",
					"type": "function"
				},
				{
					"inputs": [],
					"name": "owner",
					"outputs": [
						{
							"internalType": "address",
							"name": "",
							"type": "address"
						}
					],
					"stateMutability": "view",
					"type": "function"
				},
				{
					"inputs": [],
					"name": "renounceOwnership",
					"outputs": [],
					"stateMutability": "nonpayable",
					"type": "function"
				},
				{
					"inputs": [
						{
							"internalType": "uint256",
							"name": "_id",
							"type": "uint256"
						}
					],
					"name": "returnBook",
					"outputs": [],
					"stateMutability": "nonpayable",
					"type": "function"
				},
				{
					"inputs": [
						{
							"internalType": "address",
							"name": "newOwner",
							"type": "address"
						}
					],
					"name": "transferOwnership",
					"outputs": [],
					"stateMutability": "nonpayable",
					"type": "function"
				}
			],
			"devdoc": {
				"kind": "dev",
				"methods": {
					"owner()": {
						"details": "Returns the address of the current owner."
					},
					"renounceOwnership()": {
						"details": "Leaves the contract without owner. It will not be possible to call `onlyOwner` functions anymore. Can only be called by the current owner. NOTE: Renouncing ownership will leave the contract without an owner, thereby removing any functionality that is only available to the owner."
					},
					"transferOwnership(address)": {
						"details": "Transfers ownership of the contract to a new account (`newOwner`). Can only be called by the current owner."
					}
				},
				"version": 1
			},
			"evm": {
				"assembly": "    /* \"contracts/Library.sol\":84:2049  contract Library is Ownable{\r... */\n  mstore(0x40, 0x80)\n  callvalue\n  dup1\n  iszero\n  tag_1\n  jumpi\n  0x00\n  dup1\n  revert\ntag_1:\n  pop\n    /* \"@openzeppelin/contracts/access/Ownable.sol\":936:968  _transferOwnership(_msgSender()) */\n  tag_4\n    /* \"@openzeppelin/contracts/access/Ownable.sol\":955:967  _msgSender() */\n  tag_5\n    /* \"@openzeppelin/contracts/access/Ownable.sol\":955:965  _msgSender */\n  shl(0x20, tag_6)\n    /* \"@openzeppelin/contracts/access/Ownable.sol\":955:967  _msgSender() */\n  0x20\n  shr\n  jump\t// in\ntag_5:\n    /* \"@openzeppelin/contracts/access/Ownable.sol\":936:954  _transferOwnership */\n  shl(0x20, tag_7)\n    /* \"@openzeppelin/contracts/access/Ownable.sol\":936:968  _transferOwnership(_msgSender()) */\n  0x20\n  shr\n  jump\t// in\ntag_4:\n    /* \"contracts/Library.sol\":84:2049  contract Library is Ownable{\r... */\n  jump(tag_8)\n    /* \"@openzeppelin/contracts/utils/Context.sol\":640:736  function _msgSender() internal view virtual returns (address) {... */\ntag_6:\n    /* \"@openzeppelin/contracts/utils/Context.sol\":693:700  address */\n  0x00\n    /* \"@openzeppelin/contracts/utils/Context.sol\":719:729  msg.sender */\n  caller\n    /* \"@openzeppelin/contracts/utils/Context.sol\":712:729  return msg.sender */\n  swap1\n  pop\n    /* \"@openzeppelin/contracts/utils/Context.sol\":640:736  function _msgSender() internal view virtual returns (address) {... */\n  swap1\n  jump\t// out\n    /* \"@openzeppelin/contracts/access/Ownable.sol\":2433:2620  function _transferOwnership(address newOwner) internal virtual {... */\ntag_7:\n    /* \"@openzeppelin/contracts/access/Ownable.sol\":2506:2522  address oldOwner */\n  0x00\n    /* \"@openzeppelin/contracts/access/Ownable.sol\":2525:2531  _owner */\n  dup1\n  0x00\n  swap1\n  sload\n  swap1\n  0x0100\n  exp\n  swap1\n  div\n  0xffffffffffffffffffffffffffffffffffffffff\n  and\n    /* \"@openzeppelin/contracts/access/Ownable.sol\":2506:2531  address oldOwner = _owner */\n  swap1\n  pop\n    /* \"@openzeppelin/contracts/access/Ownable.sol\":2550:2558  newOwner */\n  dup2\n    /* \"@openzeppelin/contracts/access/Ownable.sol\":2541:2547  _owner */\n  0x00\n  dup1\n    /* \"@openzeppelin/contracts/access/Ownable.sol\":2541:2558  _owner = newOwner */\n  0x0100\n  exp\n  dup2\n  sload\n  dup2\n  0xffffffffffffffffffffffffffffffffffffffff\n  mul\n  not\n  and\n  swap1\n  dup4\n  0xffffffffffffffffffffffffffffffffffffffff\n  and\n  mul\n  or\n  swap1\n  sstore\n  pop\n    /* \"@openzeppelin/contracts/access/Ownable.sol\":2604:2612  newOwner */\n  dup2\n    /* \"@openzeppelin/contracts/access/Ownable.sol\":2573:2613  OwnershipTransferred(oldOwner, newOwner) */\n  0xffffffffffffffffffffffffffffffffffffffff\n  and\n    /* \"@openzeppelin/contracts/access/Ownable.sol\":2594:2602  oldOwner */\n  dup2\n    /* \"@openzeppelin/contracts/access/Ownable.sol\":2573:2613  OwnershipTransferred(oldOwner, newOwner) */\n  0xffffffffffffffffffffffffffffffffffffffff\n  and\n  0x8be0079c531659141344cd1fd0a4f28419497f9722a3daafe3b4186f6b6457e0\n  mload(0x40)\n  mload(0x40)\n  dup1\n  swap2\n  sub\n  swap1\n  log3\n    /* \"@openzeppelin/contracts/access/Ownable.sol\":2496:2620  {... */\n  pop\n    /* \"@openzeppelin/contracts/access/Ownable.sol\":2433:2620  function _transferOwnership(address newOwner) internal virtual {... */\n  pop\n  jump\t// out\n    /* \"contracts/Library.sol\":84:2049  contract Library is Ownable{\r... */\ntag_8:\n  dataSize(sub_0)\n  dup1\n  dataOffset(sub_0)\n  0x00\n  codecopy\n  0x00\n  return\nstop\n\nsub_0: assembly {\n        /* \"contracts/Library.sol\":84:2049  contract Library is Ownable{\r... */\n      mstore(0x40, 0x80)\n      callvalue\n      dup1\n      iszero\n      tag_1\n      jumpi\n      0x00\n      dup1\n      revert\n    tag_1:\n      pop\n      jumpi(tag_2, lt(calldatasize, 0x04))\n      shr(0xe0, calldataload(0x00))\n      dup1\n      0x7e490a9e\n      gt\n      tag_12\n      jumpi\n      dup1\n      0x7e490a9e\n      eq\n      tag_7\n      jumpi\n      dup1\n      0x8da5cb5b\n      eq\n      tag_8\n      jumpi\n      dup1\n      0xb905ad78\n      eq\n      tag_9\n      jumpi\n      dup1\n      0xca5140c9\n      eq\n      tag_10\n      jumpi\n      dup1\n      0xf2fde38b\n      eq\n      tag_11\n      jumpi\n      jump(tag_2)\n    tag_12:\n      dup1\n      0x60f9eefc\n      eq\n      tag_3\n      jumpi\n      dup1\n      0x637a3872\n      eq\n      tag_4\n      jumpi\n      dup1\n      0x715018a6\n      eq\n      tag_5\n      jumpi\n      dup1\n      0x7975c6b4\n      eq\n      tag_6\n      jumpi\n    tag_2:\n      0x00\n      dup1\n      revert\n        /* \"contracts/Library.sol\":1050:1357  function addBookCopies(uint256 _bookId, uint256 _copies)\r... */\n    tag_3:\n      tag_13\n      0x04\n      dup1\n      calldatasize\n      sub\n      dup2\n      add\n      swap1\n      tag_14\n      swap2\n      swap1\n      tag_15\n      jump\t// in\n    tag_14:\n      tag_16\n      jump\t// in\n    tag_13:\n      stop\n        /* \"contracts/Library.sol\":642:1040  function addBook(string memory _name, uint256 _copies)\r... */\n    tag_4:\n      tag_17\n      0x04\n      dup1\n      calldatasize\n      sub\n      dup2\n      add\n      swap1\n      tag_18\n      swap2\n      swap1\n      tag_19\n      jump\t// in\n    tag_18:\n      tag_20\n      jump\t// in\n    tag_17:\n      stop\n        /* \"@openzeppelin/contracts/access/Ownable.sol\":1831:1932  function renounceOwnership() public virtual onlyOwner {... */\n    tag_5:\n      tag_21\n      tag_22\n      jump\t// in\n    tag_21:\n      stop\n        /* \"contracts/Library.sol\":377:419  mapping(uint256 => Book) public BookLedger */\n    tag_6:\n      tag_23\n      0x04\n      dup1\n      calldatasize\n      sub\n      dup2\n      add\n      swap1\n      tag_24\n      swap2\n      swap1\n      tag_25\n      jump\t// in\n    tag_24:\n      tag_26\n      jump\t// in\n    tag_23:\n      mload(0x40)\n      tag_27\n      swap4\n      swap3\n      swap2\n      swap1\n      tag_28\n      jump\t// in\n    tag_27:\n      mload(0x40)\n      dup1\n      swap2\n      sub\n      swap1\n      return\n        /* \"contracts/Library.sol\":1367:1778  function borrowBook(uint256 _id) external {\r... */\n    tag_7:\n      tag_29\n      0x04\n      dup1\n      calldatasize\n      sub\n      dup2\n      add\n      swap1\n      tag_30\n      swap2\n      swap1\n      tag_25\n      jump\t// in\n    tag_30:\n      tag_31\n      jump\t// in\n    tag_29:\n      stop\n        /* \"@openzeppelin/contracts/access/Ownable.sol\":1201:1286  function owner() public view virtual returns (address) {... */\n    tag_8:\n      tag_32\n      tag_33\n      jump\t// in\n    tag_32:\n      mload(0x40)\n      tag_34\n      swap2\n      swap1\n      tag_35\n      jump\t// in\n    tag_34:\n      mload(0x40)\n      dup1\n      swap2\n      sub\n      swap1\n      return\n        /* \"contracts/Library.sol\":294:318  uint256 public bookCount */\n    tag_9:\n      tag_36\n      tag_37\n      jump\t// in\n    tag_36:\n      mload(0x40)\n      tag_38\n      swap2\n      swap1\n      tag_39\n      jump\t// in\n    tag_38:\n      mload(0x40)\n      dup1\n      swap2\n      sub\n      swap1\n      return\n        /* \"contracts/Library.sol\":1787:2046  function returnBook(uint256 _id) external {\r... */\n    tag_10:\n      tag_40\n      0x04\n      dup1\n      calldatasize\n      sub\n      dup2\n      add\n      swap1\n      tag_41\n      swap2\n      swap1\n      tag_25\n      jump\t// in\n    tag_41:\n      tag_42\n      jump\t// in\n    tag_40:\n      stop\n        /* \"@openzeppelin/contracts/access/Ownable.sol\":2081:2279  function transferOwnership(address newOwner) public virtual onlyOwner {... */\n    tag_11:\n      tag_43\n      0x04\n      dup1\n      calldatasize\n      sub\n      dup2\n      add\n      swap1\n      tag_44\n      swap2\n      swap1\n      tag_45\n      jump\t// in\n    tag_44:\n      tag_46\n      jump\t// in\n    tag_43:\n      stop\n        /* \"contracts/Library.sol\":1050:1357  function addBookCopies(uint256 _bookId, uint256 _copies)\r... */\n    tag_16:\n        /* \"@openzeppelin/contracts/access/Ownable.sol\":1094:1107  _checkOwner() */\n      tag_48\n        /* \"@openzeppelin/contracts/access/Ownable.sol\":1094:1105  _checkOwner */\n      tag_49\n        /* \"@openzeppelin/contracts/access/Ownable.sol\":1094:1107  _checkOwner() */\n      jump\t// in\n    tag_48:\n        /* \"contracts/Library.sol\":1178:1179  0 */\n      0x00\n        /* \"contracts/Library.sol\":1168:1175  _copies */\n      dup2\n        /* \"contracts/Library.sol\":1168:1179  _copies > 0 */\n      gt\n        /* \"contracts/Library.sol\":1160:1189  require(_copies > 0, \"!zero\") */\n      tag_51\n      jumpi\n      mload(0x40)\n      0x08c379a000000000000000000000000000000000000000000000000000000000\n      dup2\n      mstore\n      0x04\n      add\n      tag_52\n      swap1\n      tag_53\n      jump\t// in\n    tag_52:\n      mload(0x40)\n      dup1\n      swap2\n      sub\n      swap1\n      revert\n    tag_51:\n        /* \"contracts/Library.sol\":1200:1217  Book storage book */\n      0x00\n        /* \"contracts/Library.sol\":1220:1230  BookLedger */\n      0x07\n        /* \"contracts/Library.sol\":1220:1239  BookLedger[_bookId] */\n      0x00\n        /* \"contracts/Library.sol\":1231:1238  _bookId */\n      dup5\n        /* \"contracts/Library.sol\":1220:1239  BookLedger[_bookId] */\n      dup2\n      mstore\n      0x20\n      add\n      swap1\n      dup2\n      mstore\n      0x20\n      add\n      0x00\n      keccak256\n        /* \"contracts/Library.sol\":1200:1239  Book storage book = BookLedger[_bookId] */\n      swap1\n      pop\n        /* \"contracts/Library.sol\":1285:1286  0 */\n      0x00\n        /* \"contracts/Library.sol\":1264:1268  book */\n      dup2\n        /* \"contracts/Library.sol\":1264:1273  book.name */\n      0x00\n      add\n        /* \"contracts/Library.sol\":1258:1281  bytes(book.name).length */\n      dup1\n      sload\n      tag_54\n      swap1\n      tag_55\n      jump\t// in\n    tag_54:\n      swap1\n      pop\n        /* \"contracts/Library.sol\":1258:1286  bytes(book.name).length != 0 */\n      eq\n      iszero\n        /* \"contracts/Library.sol\":1250:1310  require(bytes(book.name).length != 0, \"Book does not exist\") */\n      tag_56\n      jumpi\n      mload(0x40)\n      0x08c379a000000000000000000000000000000000000000000000000000000000\n      dup2\n      mstore\n      0x04\n      add\n      tag_57\n      swap1\n      tag_58\n      jump\t// in\n    tag_57:\n      mload(0x40)\n      dup1\n      swap2\n      sub\n      swap1\n      revert\n    tag_56:\n        /* \"contracts/Library.sol\":1348:1349  1 */\n      0x01\n        /* \"contracts/Library.sol\":1335:1339  book */\n      dup2\n        /* \"contracts/Library.sol\":1335:1346  book.copies */\n      0x01\n      add\n      0x00\n        /* \"contracts/Library.sol\":1335:1349  book.copies+=1 */\n      dup3\n      dup3\n      sload\n      tag_59\n      swap2\n      swap1\n      tag_60\n      jump\t// in\n    tag_59:\n      swap3\n      pop\n      pop\n      dup2\n      swap1\n      sstore\n        /* \"contracts/Library.sol\":1321:1325  book */\n      dup2\n        /* \"contracts/Library.sol\":1321:1332  book.copies */\n      0x01\n      add\n        /* \"contracts/Library.sol\":1321:1349  book.copies = book.copies+=1 */\n      dup2\n      swap1\n      sstore\n      pop\n        /* \"contracts/Library.sol\":1149:1357  {\r... */\n      pop\n        /* \"contracts/Library.sol\":1050:1357  function addBookCopies(uint256 _bookId, uint256 _copies)\r... */\n      pop\n      pop\n      jump\t// out\n        /* \"contracts/Library.sol\":642:1040  function addBook(string memory _name, uint256 _copies)\r... */\n    tag_20:\n        /* \"@openzeppelin/contracts/access/Ownable.sol\":1094:1107  _checkOwner() */\n      tag_62\n        /* \"@openzeppelin/contracts/access/Ownable.sol\":1094:1105  _checkOwner */\n      tag_49\n        /* \"@openzeppelin/contracts/access/Ownable.sol\":1094:1107  _checkOwner() */\n      jump\t// in\n    tag_62:\n        /* \"contracts/Library.sol\":760:765  _name */\n      dup2\n        /* \"contracts/Library.sol\":570:581  isAvailable */\n      0x06\n        /* \"contracts/Library.sol\":582:587  _name */\n      dup2\n        /* \"contracts/Library.sol\":570:588  isAvailable[_name] */\n      mload(0x40)\n      tag_64\n      swap2\n      swap1\n      tag_65\n      jump\t// in\n    tag_64:\n      swap1\n      dup2\n      mstore\n      0x20\n      add\n      mload(0x40)\n      dup1\n      swap2\n      sub\n      swap1\n      keccak256\n      0x00\n      swap1\n      sload\n      swap1\n      0x0100\n      exp\n      swap1\n      div\n      0xff\n      and\n        /* \"contracts/Library.sol\":569:588  !isAvailable[_name] */\n      iszero\n        /* \"contracts/Library.sol\":561:610  require(!isAvailable[_name], \"Book is available\") */\n      tag_66\n      jumpi\n      mload(0x40)\n      0x08c379a000000000000000000000000000000000000000000000000000000000\n      dup2\n      mstore\n      0x04\n      add\n      tag_67\n      swap1\n      tag_68\n      jump\t// in\n    tag_67:\n      mload(0x40)\n      dup1\n      swap2\n      sub\n      swap1\n      revert\n    tag_66:\n        /* \"contracts/Library.sol\":814:815  0 */\n      0x00\n        /* \"contracts/Library.sol\":797:802  _name */\n      dup4\n        /* \"contracts/Library.sol\":791:810  bytes(_name).length */\n      mload\n        /* \"contracts/Library.sol\":791:815  bytes(_name).length != 0 */\n      eq\n      iszero\n        /* \"contracts/Library.sol\":783:840  require(bytes(_name).length != 0, \"Name cannot be empty\") */\n      tag_70\n      jumpi\n      mload(0x40)\n      0x08c379a000000000000000000000000000000000000000000000000000000000\n      dup2\n      mstore\n      0x04\n      add\n      tag_71\n      swap1\n      tag_72\n      jump\t// in\n    tag_71:\n      mload(0x40)\n      dup1\n      swap2\n      sub\n      swap1\n      revert\n    tag_70:\n        /* \"contracts/Library.sol\":872:876  true */\n      0x01\n        /* \"contracts/Library.sol\":851:862  isAvailable */\n      0x06\n        /* \"contracts/Library.sol\":863:868  _name */\n      dup5\n        /* \"contracts/Library.sol\":851:869  isAvailable[_name] */\n      mload(0x40)\n      tag_73\n      swap2\n      swap1\n      tag_65\n      jump\t// in\n    tag_73:\n      swap1\n      dup2\n      mstore\n      0x20\n      add\n      mload(0x40)\n      dup1\n      swap2\n      sub\n      swap1\n      keccak256\n      0x00\n        /* \"contracts/Library.sol\":851:876  isAvailable[_name] = true */\n      0x0100\n      exp\n      dup2\n      sload\n      dup2\n      0xff\n      mul\n      not\n      and\n      swap1\n      dup4\n      iszero\n      iszero\n      mul\n      or\n      swap1\n      sstore\n      pop\n        /* \"contracts/Library.sol\":887:902  uint256 _bookId */\n      0x00\n        /* \"contracts/Library.sol\":914:915  1 */\n      0x01\n        /* \"contracts/Library.sol\":905:915  _copies+=1 */\n      dup4\n      tag_74\n      swap2\n      swap1\n      tag_60\n      jump\t// in\n    tag_74:\n      swap3\n      pop\n      dup3\n        /* \"contracts/Library.sol\":887:915  uint256 _bookId = _copies+=1 */\n      swap1\n      pop\n        /* \"contracts/Library.sol\":926:943  Book storage book */\n      0x00\n        /* \"contracts/Library.sol\":946:956  BookLedger */\n      0x07\n        /* \"contracts/Library.sol\":946:965  BookLedger[_bookId] */\n      0x00\n        /* \"contracts/Library.sol\":957:964  _bookId */\n      dup4\n        /* \"contracts/Library.sol\":946:965  BookLedger[_bookId] */\n      dup2\n      mstore\n      0x20\n      add\n      swap1\n      dup2\n      mstore\n      0x20\n      add\n      0x00\n      keccak256\n        /* \"contracts/Library.sol\":926:965  Book storage book = BookLedger[_bookId] */\n      swap1\n      pop\n        /* \"contracts/Library.sol\":988:993  _name */\n      dup5\n        /* \"contracts/Library.sol\":976:980  book */\n      dup2\n        /* \"contracts/Library.sol\":976:985  book.name */\n      0x00\n      add\n        /* \"contracts/Library.sol\":976:993  book.name = _name */\n      swap1\n      dup1\n      mload\n      swap1\n      0x20\n      add\n      swap1\n      tag_75\n      swap3\n      swap2\n      swap1\n      tag_76\n      jump\t// in\n    tag_75:\n      pop\n        /* \"contracts/Library.sol\":1018:1025  _copies */\n      dup4\n        /* \"contracts/Library.sol\":1004:1008  book */\n      dup2\n        /* \"contracts/Library.sol\":1004:1015  book.copies */\n      0x01\n      add\n        /* \"contracts/Library.sol\":1004:1025  book.copies = _copies */\n      dup2\n      swap1\n      sstore\n      pop\n        /* \"contracts/Library.sol\":772:1040  {\r... */\n      pop\n      pop\n        /* \"@openzeppelin/contracts/access/Ownable.sol\":1117:1118  _ */\n      pop\n        /* \"contracts/Library.sol\":642:1040  function addBook(string memory _name, uint256 _copies)\r... */\n      pop\n      pop\n      jump\t// out\n        /* \"@openzeppelin/contracts/access/Ownable.sol\":1831:1932  function renounceOwnership() public virtual onlyOwner {... */\n    tag_22:\n        /* \"@openzeppelin/contracts/access/Ownable.sol\":1094:1107  _checkOwner() */\n      tag_78\n        /* \"@openzeppelin/contracts/access/Ownable.sol\":1094:1105  _checkOwner */\n      tag_49\n        /* \"@openzeppelin/contracts/access/Ownable.sol\":1094:1107  _checkOwner() */\n      jump\t// in\n    tag_78:\n        /* \"@openzeppelin/contracts/access/Ownable.sol\":1895:1925  _transferOwnership(address(0)) */\n      tag_80\n        /* \"@openzeppelin/contracts/access/Ownable.sol\":1922:1923  0 */\n      0x00\n        /* \"@openzeppelin/contracts/access/Ownable.sol\":1895:1913  _transferOwnership */\n      tag_81\n        /* \"@openzeppelin/contracts/access/Ownable.sol\":1895:1925  _transferOwnership(address(0)) */\n      jump\t// in\n    tag_80:\n        /* \"@openzeppelin/contracts/access/Ownable.sol\":1831:1932  function renounceOwnership() public virtual onlyOwner {... */\n      jump\t// out\n        /* \"contracts/Library.sol\":377:419  mapping(uint256 => Book) public BookLedger */\n    tag_26:\n      mstore(0x20, 0x07)\n      dup1\n      0x00\n      mstore\n      keccak256(0x00, 0x40)\n      0x00\n      swap2\n      pop\n      swap1\n      pop\n      dup1\n      0x00\n      add\n      dup1\n      sload\n      tag_82\n      swap1\n      tag_55\n      jump\t// in\n    tag_82:\n      dup1\n      0x1f\n      add\n      0x20\n      dup1\n      swap2\n      div\n      mul\n      0x20\n      add\n      mload(0x40)\n      swap1\n      dup2\n      add\n      0x40\n      mstore\n      dup1\n      swap3\n      swap2\n      swap1\n      dup2\n      dup2\n      mstore\n      0x20\n      add\n      dup3\n      dup1\n      sload\n      tag_83\n      swap1\n      tag_55\n      jump\t// in\n    tag_83:\n      dup1\n      iszero\n      tag_84\n      jumpi\n      dup1\n      0x1f\n      lt\n      tag_85\n      jumpi\n      0x0100\n      dup1\n      dup4\n      sload\n      div\n      mul\n      dup4\n      mstore\n      swap2\n      0x20\n      add\n      swap2\n      jump(tag_84)\n    tag_85:\n      dup3\n      add\n      swap2\n      swap1\n      0x00\n      mstore\n      keccak256(0x00, 0x20)\n      swap1\n    tag_86:\n      dup2\n      sload\n      dup2\n      mstore\n      swap1\n      0x01\n      add\n      swap1\n      0x20\n      add\n      dup1\n      dup4\n      gt\n      tag_86\n      jumpi\n      dup3\n      swap1\n      sub\n      0x1f\n      and\n      dup3\n      add\n      swap2\n    tag_84:\n      pop\n      pop\n      pop\n      pop\n      pop\n      swap1\n      dup1\n      0x01\n      add\n      sload\n      swap1\n      dup1\n      0x02\n      add\n      sload\n      swap1\n      pop\n      dup4\n      jump\t// out\n        /* \"contracts/Library.sol\":1367:1778  function borrowBook(uint256 _id) external {\r... */\n    tag_31:\n        /* \"contracts/Library.sol\":1429:1444  isAlreadyIssued */\n      0x08\n        /* \"contracts/Library.sol\":1429:1456  isAlreadyIssued[msg.sender] */\n      0x00\n        /* \"contracts/Library.sol\":1445:1455  msg.sender */\n      caller\n        /* \"contracts/Library.sol\":1429:1456  isAlreadyIssued[msg.sender] */\n      0xffffffffffffffffffffffffffffffffffffffff\n      and\n      0xffffffffffffffffffffffffffffffffffffffff\n      and\n      dup2\n      mstore\n      0x20\n      add\n      swap1\n      dup2\n      mstore\n      0x20\n      add\n      0x00\n      keccak256\n        /* \"contracts/Library.sol\":1429:1461  isAlreadyIssued[msg.sender][_id] */\n      0x00\n        /* \"contracts/Library.sol\":1457:1460  _id */\n      dup3\n        /* \"contracts/Library.sol\":1429:1461  isAlreadyIssued[msg.sender][_id] */\n      dup2\n      mstore\n      0x20\n      add\n      swap1\n      dup2\n      mstore\n      0x20\n      add\n      0x00\n      keccak256\n      0x00\n      swap1\n      sload\n      swap1\n      0x0100\n      exp\n      swap1\n      div\n      0xff\n      and\n        /* \"contracts/Library.sol\":1428:1461  !isAlreadyIssued[msg.sender][_id] */\n      iszero\n        /* \"contracts/Library.sol\":1420:1488  require(!isAlreadyIssued[msg.sender][_id], \"Book is already issued\") */\n      tag_88\n      jumpi\n      mload(0x40)\n      0x08c379a000000000000000000000000000000000000000000000000000000000\n      dup2\n      mstore\n      0x04\n      add\n      tag_89\n      swap1\n      tag_90\n      jump\t// in\n    tag_89:\n      mload(0x40)\n      dup1\n      swap2\n      sub\n      swap1\n      revert\n    tag_88:\n        /* \"contracts/Library.sol\":1534:1538  true */\n      0x01\n        /* \"contracts/Library.sol\":1499:1514  isAlreadyIssued */\n      0x08\n        /* \"contracts/Library.sol\":1499:1526  isAlreadyIssued[msg.sender] */\n      0x00\n        /* \"contracts/Library.sol\":1515:1525  msg.sender */\n      caller\n        /* \"contracts/Library.sol\":1499:1526  isAlreadyIssued[msg.sender] */\n      0xffffffffffffffffffffffffffffffffffffffff\n      and\n      0xffffffffffffffffffffffffffffffffffffffff\n      and\n      dup2\n      mstore\n      0x20\n      add\n      swap1\n      dup2\n      mstore\n      0x20\n      add\n      0x00\n      keccak256\n        /* \"contracts/Library.sol\":1499:1531  isAlreadyIssued[msg.sender][_id] */\n      0x00\n        /* \"contracts/Library.sol\":1527:1530  _id */\n      dup4\n        /* \"contracts/Library.sol\":1499:1531  isAlreadyIssued[msg.sender][_id] */\n      dup2\n      mstore\n      0x20\n      add\n      swap1\n      dup2\n      mstore\n      0x20\n      add\n      0x00\n      keccak256\n      0x00\n        /* \"contracts/Library.sol\":1499:1538  isAlreadyIssued[msg.sender][_id] = true */\n      0x0100\n      exp\n      dup2\n      sload\n      dup2\n      0xff\n      mul\n      not\n      and\n      swap1\n      dup4\n      iszero\n      iszero\n      mul\n      or\n      swap1\n      sstore\n      pop\n        /* \"contracts/Library.sol\":1549:1566  Book storage book */\n      0x00\n        /* \"contracts/Library.sol\":1569:1579  BookLedger */\n      0x07\n        /* \"contracts/Library.sol\":1569:1584  BookLedger[_id] */\n      0x00\n        /* \"contracts/Library.sol\":1580:1583  _id */\n      dup4\n        /* \"contracts/Library.sol\":1569:1584  BookLedger[_id] */\n      dup2\n      mstore\n      0x20\n      add\n      swap1\n      dup2\n      mstore\n      0x20\n      add\n      0x00\n      keccak256\n        /* \"contracts/Library.sol\":1549:1584  Book storage book = BookLedger[_id] */\n      swap1\n      pop\n        /* \"contracts/Library.sol\":1618:1619  1 */\n      0x01\n        /* \"contracts/Library.sol\":1603:1607  book */\n      dup2\n        /* \"contracts/Library.sol\":1603:1614  book.copies */\n      0x01\n      add\n      sload\n        /* \"contracts/Library.sol\":1603:1619  book.copies >= 1 */\n      lt\n      iszero\n        /* \"contracts/Library.sol\":1595:1620  require(book.copies >= 1) */\n      tag_91\n      jumpi\n      0x00\n      dup1\n      revert\n    tag_91:\n        /* \"contracts/Library.sol\":1658:1659  1 */\n      0x01\n        /* \"contracts/Library.sol\":1645:1649  book */\n      dup2\n        /* \"contracts/Library.sol\":1645:1656  book.copies */\n      0x01\n      add\n      sload\n        /* \"contracts/Library.sol\":1645:1659  book.copies -1 */\n      tag_92\n      swap2\n      swap1\n      tag_93\n      jump\t// in\n    tag_92:\n        /* \"contracts/Library.sol\":1631:1635  book */\n      dup2\n        /* \"contracts/Library.sol\":1631:1642  book.copies */\n      0x01\n      add\n        /* \"contracts/Library.sol\":1631:1659  book.copies = book.copies -1 */\n      dup2\n      swap1\n      sstore\n      pop\n        /* \"contracts/Library.sol\":1708:1718  msg.sender */\n      caller\n        /* \"contracts/Library.sol\":1670:1674  book */\n      dup2\n        /* \"contracts/Library.sol\":1670:1688  book.ownersHistory */\n      0x03\n      add\n        /* \"contracts/Library.sol\":1670:1705  book.ownersHistory[book.ownerCount] */\n      0x00\n        /* \"contracts/Library.sol\":1689:1693  book */\n      dup4\n        /* \"contracts/Library.sol\":1689:1704  book.ownerCount */\n      0x02\n      add\n      sload\n        /* \"contracts/Library.sol\":1670:1705  book.ownersHistory[book.ownerCount] */\n      dup2\n      mstore\n      0x20\n      add\n      swap1\n      dup2\n      mstore\n      0x20\n      add\n      0x00\n      keccak256\n      0x00\n        /* \"contracts/Library.sol\":1670:1718  book.ownersHistory[book.ownerCount] = msg.sender */\n      0x0100\n      exp\n      dup2\n      sload\n      dup2\n      0xffffffffffffffffffffffffffffffffffffffff\n      mul\n      not\n      and\n      swap1\n      dup4\n      0xffffffffffffffffffffffffffffffffffffffff\n      and\n      mul\n      or\n      swap1\n      sstore\n      pop\n        /* \"contracts/Library.sol\":1765:1766  1 */\n      0x01\n        /* \"contracts/Library.sol\":1749:1753  book */\n      dup2\n        /* \"contracts/Library.sol\":1749:1764  book.ownerCount */\n      0x02\n      add\n      sload\n        /* \"contracts/Library.sol\":1749:1766  book.ownerCount+1 */\n      tag_94\n      swap2\n      swap1\n      tag_60\n      jump\t// in\n    tag_94:\n        /* \"contracts/Library.sol\":1731:1735  book */\n      dup2\n        /* \"contracts/Library.sol\":1731:1746  book.ownerCount */\n      0x02\n      add\n        /* \"contracts/Library.sol\":1731:1766  book.ownerCount = book.ownerCount+1 */\n      dup2\n      swap1\n      sstore\n      pop\n        /* \"contracts/Library.sol\":1409:1778  {\r... */\n      pop\n        /* \"contracts/Library.sol\":1367:1778  function borrowBook(uint256 _id) external {\r... */\n      pop\n      jump\t// out\n        /* \"@openzeppelin/contracts/access/Ownable.sol\":1201:1286  function owner() public view virtual returns (address) {... */\n    tag_33:\n        /* \"@openzeppelin/contracts/access/Ownable.sol\":1247:1254  address */\n      0x00\n        /* \"@openzeppelin/contracts/access/Ownable.sol\":1273:1279  _owner */\n      dup1\n      0x00\n      swap1\n      sload\n      swap1\n      0x0100\n      exp\n      swap1\n      div\n      0xffffffffffffffffffffffffffffffffffffffff\n      and\n        /* \"@openzeppelin/contracts/access/Ownable.sol\":1266:1279  return _owner */\n      swap1\n      pop\n        /* \"@openzeppelin/contracts/access/Ownable.sol\":1201:1286  function owner() public view virtual returns (address) {... */\n      swap1\n      jump\t// out\n        /* \"contracts/Library.sol\":294:318  uint256 public bookCount */\n    tag_37:\n      sload(0x05)\n      dup2\n      jump\t// out\n        /* \"contracts/Library.sol\":1787:2046  function returnBook(uint256 _id) external {\r... */\n    tag_42:\n        /* \"contracts/Library.sol\":1848:1863  isAlreadyIssued */\n      0x08\n        /* \"contracts/Library.sol\":1848:1875  isAlreadyIssued[msg.sender] */\n      0x00\n        /* \"contracts/Library.sol\":1864:1874  msg.sender */\n      caller\n        /* \"contracts/Library.sol\":1848:1875  isAlreadyIssued[msg.sender] */\n      0xffffffffffffffffffffffffffffffffffffffff\n      and\n      0xffffffffffffffffffffffffffffffffffffffff\n      and\n      dup2\n      mstore\n      0x20\n      add\n      swap1\n      dup2\n      mstore\n      0x20\n      add\n      0x00\n      keccak256\n        /* \"contracts/Library.sol\":1848:1880  isAlreadyIssued[msg.sender][_id] */\n      0x00\n        /* \"contracts/Library.sol\":1876:1879  _id */\n      dup3\n        /* \"contracts/Library.sol\":1848:1880  isAlreadyIssued[msg.sender][_id] */\n      dup2\n      mstore\n      0x20\n      add\n      swap1\n      dup2\n      mstore\n      0x20\n      add\n      0x00\n      keccak256\n      0x00\n      swap1\n      sload\n      swap1\n      0x0100\n      exp\n      swap1\n      div\n      0xff\n      and\n        /* \"contracts/Library.sol\":1840:1903  require(isAlreadyIssued[msg.sender][_id], \"Book is not issued\") */\n      tag_97\n      jumpi\n      mload(0x40)\n      0x08c379a000000000000000000000000000000000000000000000000000000000\n      dup2\n      mstore\n      0x04\n      add\n      tag_98\n      swap1\n      tag_99\n      jump\t// in\n    tag_98:\n      mload(0x40)\n      dup1\n      swap2\n      sub\n      swap1\n      revert\n    tag_97:\n        /* \"contracts/Library.sol\":1914:1931  Book storage book */\n      0x00\n        /* \"contracts/Library.sol\":1934:1944  BookLedger */\n      0x07\n        /* \"contracts/Library.sol\":1934:1949  BookLedger[_id] */\n      0x00\n        /* \"contracts/Library.sol\":1945:1948  _id */\n      dup4\n        /* \"contracts/Library.sol\":1934:1949  BookLedger[_id] */\n      dup2\n      mstore\n      0x20\n      add\n      swap1\n      dup2\n      mstore\n      0x20\n      add\n      0x00\n      keccak256\n        /* \"contracts/Library.sol\":1914:1949  Book storage book = BookLedger[_id] */\n      swap1\n      pop\n        /* \"contracts/Library.sol\":1986:1987  1 */\n      0x01\n        /* \"contracts/Library.sol\":1974:1978  book */\n      dup2\n        /* \"contracts/Library.sol\":1974:1985  book.copies */\n      0x01\n      add\n      sload\n        /* \"contracts/Library.sol\":1974:1987  book.copies+1 */\n      tag_100\n      swap2\n      swap1\n      tag_60\n      jump\t// in\n    tag_100:\n        /* \"contracts/Library.sol\":1960:1964  book */\n      dup2\n        /* \"contracts/Library.sol\":1960:1971  book.copies */\n      0x01\n      add\n        /* \"contracts/Library.sol\":1960:1987  book.copies = book.copies+1 */\n      dup2\n      swap1\n      sstore\n      pop\n        /* \"contracts/Library.sol\":2033:2038  false */\n      0x00\n        /* \"contracts/Library.sol\":1998:2013  isAlreadyIssued */\n      0x08\n        /* \"contracts/Library.sol\":1998:2025  isAlreadyIssued[msg.sender] */\n      0x00\n        /* \"contracts/Library.sol\":2014:2024  msg.sender */\n      caller\n        /* \"contracts/Library.sol\":1998:2025  isAlreadyIssued[msg.sender] */\n      0xffffffffffffffffffffffffffffffffffffffff\n      and\n      0xffffffffffffffffffffffffffffffffffffffff\n      and\n      dup2\n      mstore\n      0x20\n      add\n      swap1\n      dup2\n      mstore\n      0x20\n      add\n      0x00\n      keccak256\n        /* \"contracts/Library.sol\":1998:2030  isAlreadyIssued[msg.sender][_id] */\n      0x00\n        /* \"contracts/Library.sol\":2026:2029  _id */\n      dup5\n        /* \"contracts/Library.sol\":1998:2030  isAlreadyIssued[msg.sender][_id] */\n      dup2\n      mstore\n      0x20\n      add\n      swap1\n      dup2\n      mstore\n      0x20\n      add\n      0x00\n      keccak256\n      0x00\n        /* \"contracts/Library.sol\":1998:2038  isAlreadyIssued[msg.sender][_id] = false */\n      0x0100\n      exp\n      dup2\n      sload\n      dup2\n      0xff\n      mul\n      not\n      and\n      swap1\n      dup4\n      iszero\n      iszero\n      mul\n      or\n      swap1\n      sstore\n      pop\n        /* \"contracts/Library.sol\":1829:2046  {\r... */\n      pop\n        /* \"contracts/Library.sol\":1787:2046  function returnBook(uint256 _id) external {\r... */\n      pop\n      jump\t// out\n        /* \"@openzeppelin/contracts/access/Ownable.sol\":2081:2279  function transferOwnership(address newOwner) public virtual onlyOwner {... */\n    tag_46:\n        /* \"@openzeppelin/contracts/access/Ownable.sol\":1094:1107  _checkOwner() */\n      tag_102\n        /* \"@openzeppelin/contracts/access/Ownable.sol\":1094:1105  _checkOwner */\n      tag_49\n        /* \"@openzeppelin/contracts/access/Ownable.sol\":1094:1107  _checkOwner() */\n      jump\t// in\n    tag_102:\n        /* \"@openzeppelin/contracts/access/Ownable.sol\":2189:2190  0 */\n      0x00\n        /* \"@openzeppelin/contracts/access/Ownable.sol\":2169:2191  newOwner != address(0) */\n      0xffffffffffffffffffffffffffffffffffffffff\n      and\n        /* \"@openzeppelin/contracts/access/Ownable.sol\":2169:2177  newOwner */\n      dup2\n        /* \"@openzeppelin/contracts/access/Ownable.sol\":2169:2191  newOwner != address(0) */\n      0xffffffffffffffffffffffffffffffffffffffff\n      and\n      eq\n      iszero\n        /* \"@openzeppelin/contracts/access/Ownable.sol\":2161:2234  require(newOwner != address(0), \"Ownable: new owner is the zero address\") */\n      tag_104\n      jumpi\n      mload(0x40)\n      0x08c379a000000000000000000000000000000000000000000000000000000000\n      dup2\n      mstore\n      0x04\n      add\n      tag_105\n      swap1\n      tag_106\n      jump\t// in\n    tag_105:\n      mload(0x40)\n      dup1\n      swap2\n      sub\n      swap1\n      revert\n    tag_104:\n        /* \"@openzeppelin/contracts/access/Ownable.sol\":2244:2272  _transferOwnership(newOwner) */\n      tag_107\n        /* \"@openzeppelin/contracts/access/Ownable.sol\":2263:2271  newOwner */\n      dup2\n        /* \"@openzeppelin/contracts/access/Ownable.sol\":2244:2262  _transferOwnership */\n      tag_81\n        /* \"@openzeppelin/contracts/access/Ownable.sol\":2244:2272  _transferOwnership(newOwner) */\n      jump\t// in\n    tag_107:\n        /* \"@openzeppelin/contracts/access/Ownable.sol\":2081:2279  function transferOwnership(address newOwner) public virtual onlyOwner {... */\n      pop\n      jump\t// out\n        /* \"@openzeppelin/contracts/access/Ownable.sol\":1359:1489  function _checkOwner() internal view virtual {... */\n    tag_49:\n        /* \"@openzeppelin/contracts/access/Ownable.sol\":1433:1445  _msgSender() */\n      tag_109\n        /* \"@openzeppelin/contracts/access/Ownable.sol\":1433:1443  _msgSender */\n      tag_110\n        /* \"@openzeppelin/contracts/access/Ownable.sol\":1433:1445  _msgSender() */\n      jump\t// in\n    tag_109:\n        /* \"@openzeppelin/contracts/access/Ownable.sol\":1422:1445  owner() == _msgSender() */\n      0xffffffffffffffffffffffffffffffffffffffff\n      and\n        /* \"@openzeppelin/contracts/access/Ownable.sol\":1422:1429  owner() */\n      tag_111\n        /* \"@openzeppelin/contracts/access/Ownable.sol\":1422:1427  owner */\n      tag_33\n        /* \"@openzeppelin/contracts/access/Ownable.sol\":1422:1429  owner() */\n      jump\t// in\n    tag_111:\n        /* \"@openzeppelin/contracts/access/Ownable.sol\":1422:1445  owner() == _msgSender() */\n      0xffffffffffffffffffffffffffffffffffffffff\n      and\n      eq\n        /* \"@openzeppelin/contracts/access/Ownable.sol\":1414:1482  require(owner() == _msgSender(), \"Ownable: caller is not the owner\") */\n      tag_112\n      jumpi\n      mload(0x40)\n      0x08c379a000000000000000000000000000000000000000000000000000000000\n      dup2\n      mstore\n      0x04\n      add\n      tag_113\n      swap1\n      tag_114\n      jump\t// in\n    tag_113:\n      mload(0x40)\n      dup1\n      swap2\n      sub\n      swap1\n      revert\n    tag_112:\n        /* \"@openzeppelin/contracts/access/Ownable.sol\":1359:1489  function _checkOwner() internal view virtual {... */\n      jump\t// out\n        /* \"@openzeppelin/contracts/access/Ownable.sol\":2433:2620  function _transferOwnership(address newOwner) internal virtual {... */\n    tag_81:\n        /* \"@openzeppelin/contracts/access/Ownable.sol\":2506:2522  address oldOwner */\n      0x00\n        /* \"@openzeppelin/contracts/access/Ownable.sol\":2525:2531  _owner */\n      dup1\n      0x00\n      swap1\n      sload\n      swap1\n      0x0100\n      exp\n      swap1\n      div\n      0xffffffffffffffffffffffffffffffffffffffff\n      and\n        /* \"@openzeppelin/contracts/access/Ownable.sol\":2506:2531  address oldOwner = _owner */\n      swap1\n      pop\n        /* \"@openzeppelin/contracts/access/Ownable.sol\":2550:2558  newOwner */\n      dup2\n        /* \"@openzeppelin/contracts/access/Ownable.sol\":2541:2547  _owner */\n      0x00\n      dup1\n        /* \"@openzeppelin/contracts/access/Ownable.sol\":2541:2558  _owner = newOwner */\n      0x0100\n      exp\n      dup2\n      sload\n      dup2\n      0xffffffffffffffffffffffffffffffffffffffff\n      mul\n      not\n      and\n      swap1\n      dup4\n      0xffffffffffffffffffffffffffffffffffffffff\n      and\n      mul\n      or\n      swap1\n      sstore\n      pop\n        /* \"@openzeppelin/contracts/access/Ownable.sol\":2604:2612  newOwner */\n      dup2\n        /* \"@openzeppelin/contracts/access/Ownable.sol\":2573:2613  OwnershipTransferred(oldOwner, newOwner) */\n      0xffffffffffffffffffffffffffffffffffffffff\n      and\n        /* \"@openzeppelin/contracts/access/Ownable.sol\":2594:2602  oldOwner */\n      dup2\n        /* \"@openzeppelin/contracts/access/Ownable.sol\":2573:2613  OwnershipTransferred(oldOwner, newOwner) */\n      0xffffffffffffffffffffffffffffffffffffffff\n      and\n      0x8be0079c531659141344cd1fd0a4f28419497f9722a3daafe3b4186f6b6457e0\n      mload(0x40)\n      mload(0x40)\n      dup1\n      swap2\n      sub\n      swap1\n      log3\n        /* \"@openzeppelin/contracts/access/Ownable.sol\":2496:2620  {... */\n      pop\n        /* \"@openzeppelin/contracts/access/Ownable.sol\":2433:2620  function _transferOwnership(address newOwner) internal virtual {... */\n      pop\n      jump\t// out\n        /* \"@openzeppelin/contracts/utils/Context.sol\":640:736  function _msgSender() internal view virtual returns (address) {... */\n    tag_110:\n        /* \"@openzeppelin/contracts/utils/Context.sol\":693:700  address */\n      0x00\n        /* \"@openzeppelin/contracts/utils/Context.sol\":719:729  msg.sender */\n      caller\n        /* \"@openzeppelin/contracts/utils/Context.sol\":712:729  return msg.sender */\n      swap1\n      pop\n        /* \"@openzeppelin/contracts/utils/Context.sol\":640:736  function _msgSender() internal view virtual returns (address) {... */\n      swap1\n      jump\t// out\n    tag_76:\n      dup3\n      dup1\n      sload\n      tag_117\n      swap1\n      tag_55\n      jump\t// in\n    tag_117:\n      swap1\n      0x00\n      mstore\n      keccak256(0x00, 0x20)\n      swap1\n      0x1f\n      add\n      0x20\n      swap1\n      div\n      dup2\n      add\n      swap3\n      dup3\n      tag_119\n      jumpi\n      0x00\n      dup6\n      sstore\n      jump(tag_118)\n    tag_119:\n      dup3\n      0x1f\n      lt\n      tag_120\n      jumpi\n      dup1\n      mload\n      not(0xff)\n      and\n      dup4\n      dup1\n      add\n      or\n      dup6\n      sstore\n      jump(tag_118)\n    tag_120:\n      dup3\n      dup1\n      add\n      0x01\n      add\n      dup6\n      sstore\n      dup3\n      iszero\n      tag_118\n      jumpi\n      swap2\n      dup3\n      add\n    tag_121:\n      dup3\n      dup2\n      gt\n      iszero\n      tag_122\n      jumpi\n      dup3\n      mload\n      dup3\n      sstore\n      swap2\n      0x20\n      add\n      swap2\n      swap1\n      0x01\n      add\n      swap1\n      jump(tag_121)\n    tag_122:\n    tag_118:\n      pop\n      swap1\n      pop\n      tag_123\n      swap2\n      swap1\n      tag_124\n      jump\t// in\n    tag_123:\n      pop\n      swap1\n      jump\t// out\n    tag_124:\n    tag_125:\n      dup1\n      dup3\n      gt\n      iszero\n      tag_126\n      jumpi\n      0x00\n      dup2\n      0x00\n      swap1\n      sstore\n      pop\n      0x01\n      add\n      jump(tag_125)\n    tag_126:\n      pop\n      swap1\n      jump\t// out\n        /* \"#utility.yul\":7:419   */\n    tag_128:\n        /* \"#utility.yul\":85:90   */\n      0x00\n        /* \"#utility.yul\":110:176   */\n      tag_130\n        /* \"#utility.yul\":126:175   */\n      tag_131\n        /* \"#utility.yul\":168:174   */\n      dup5\n        /* \"#utility.yul\":126:175   */\n      tag_132\n      jump\t// in\n    tag_131:\n        /* \"#utility.yul\":110:176   */\n      tag_133\n      jump\t// in\n    tag_130:\n        /* \"#utility.yul\":101:176   */\n      swap1\n      pop\n        /* \"#utility.yul\":199:205   */\n      dup3\n        /* \"#utility.yul\":192:197   */\n      dup2\n        /* \"#utility.yul\":185:206   */\n      mstore\n        /* \"#utility.yul\":237:241   */\n      0x20\n        /* \"#utility.yul\":230:235   */\n      dup2\n        /* \"#utility.yul\":226:242   */\n      add\n        /* \"#utility.yul\":275:278   */\n      dup5\n        /* \"#utility.yul\":266:272   */\n      dup5\n        /* \"#utility.yul\":261:264   */\n      dup5\n        /* \"#utility.yul\":257:273   */\n      add\n        /* \"#utility.yul\":254:279   */\n      gt\n        /* \"#utility.yul\":251:363   */\n      iszero\n      tag_134\n      jumpi\n        /* \"#utility.yul\":282:361   */\n      tag_135\n      tag_136\n      jump\t// in\n    tag_135:\n        /* \"#utility.yul\":251:363   */\n    tag_134:\n        /* \"#utility.yul\":372:413   */\n      tag_137\n        /* \"#utility.yul\":406:412   */\n      dup5\n        /* \"#utility.yul\":401:404   */\n      dup3\n        /* \"#utility.yul\":396:399   */\n      dup6\n        /* \"#utility.yul\":372:413   */\n      tag_138\n      jump\t// in\n    tag_137:\n        /* \"#utility.yul\":91:419   */\n      pop\n        /* \"#utility.yul\":7:419   */\n      swap4\n      swap3\n      pop\n      pop\n      pop\n      jump\t// out\n        /* \"#utility.yul\":425:564   */\n    tag_139:\n        /* \"#utility.yul\":471:476   */\n      0x00\n        /* \"#utility.yul\":509:515   */\n      dup2\n        /* \"#utility.yul\":496:516   */\n      calldataload\n        /* \"#utility.yul\":487:516   */\n      swap1\n      pop\n        /* \"#utility.yul\":525:558   */\n      tag_141\n        /* \"#utility.yul\":552:557   */\n      dup2\n        /* \"#utility.yul\":525:558   */\n      tag_142\n      jump\t// in\n    tag_141:\n        /* \"#utility.yul\":425:564   */\n      swap3\n      swap2\n      pop\n      pop\n      jump\t// out\n        /* \"#utility.yul\":584:924   */\n    tag_143:\n        /* \"#utility.yul\":640:645   */\n      0x00\n        /* \"#utility.yul\":689:692   */\n      dup3\n        /* \"#utility.yul\":682:686   */\n      0x1f\n        /* \"#utility.yul\":674:680   */\n      dup4\n        /* \"#utility.yul\":670:687   */\n      add\n        /* \"#utility.yul\":666:693   */\n      slt\n        /* \"#utility.yul\":656:778   */\n      tag_145\n      jumpi\n        /* \"#utility.yul\":697:776   */\n      tag_146\n      tag_147\n      jump\t// in\n    tag_146:\n        /* \"#utility.yul\":656:778   */\n    tag_145:\n        /* \"#utility.yul\":814:820   */\n      dup2\n        /* \"#utility.yul\":801:821   */\n      calldataload\n        /* \"#utility.yul\":839:918   */\n      tag_148\n        /* \"#utility.yul\":914:917   */\n      dup5\n        /* \"#utility.yul\":906:912   */\n      dup3\n        /* \"#utility.yul\":899:903   */\n      0x20\n        /* \"#utility.yul\":891:897   */\n      dup7\n        /* \"#utility.yul\":887:904   */\n      add\n        /* \"#utility.yul\":839:918   */\n      tag_128\n      jump\t// in\n    tag_148:\n        /* \"#utility.yul\":830:918   */\n      swap2\n      pop\n        /* \"#utility.yul\":646:924   */\n      pop\n        /* \"#utility.yul\":584:924   */\n      swap3\n      swap2\n      pop\n      pop\n      jump\t// out\n        /* \"#utility.yul\":930:1069   */\n    tag_149:\n        /* \"#utility.yul\":976:981   */\n      0x00\n        /* \"#utility.yul\":1014:1020   */\n      dup2\n        /* \"#utility.yul\":1001:1021   */\n      calldataload\n        /* \"#utility.yul\":992:1021   */\n      swap1\n      pop\n        /* \"#utility.yul\":1030:1063   */\n      tag_151\n        /* \"#utility.yul\":1057:1062   */\n      dup2\n        /* \"#utility.yul\":1030:1063   */\n      tag_152\n      jump\t// in\n    tag_151:\n        /* \"#utility.yul\":930:1069   */\n      swap3\n      swap2\n      pop\n      pop\n      jump\t// out\n        /* \"#utility.yul\":1075:1404   */\n    tag_45:\n        /* \"#utility.yul\":1134:1140   */\n      0x00\n        /* \"#utility.yul\":1183:1185   */\n      0x20\n        /* \"#utility.yul\":1171:1180   */\n      dup3\n        /* \"#utility.yul\":1162:1169   */\n      dup5\n        /* \"#utility.yul\":1158:1181   */\n      sub\n        /* \"#utility.yul\":1154:1186   */\n      slt\n        /* \"#utility.yul\":1151:1270   */\n      iszero\n      tag_154\n      jumpi\n        /* \"#utility.yul\":1189:1268   */\n      tag_155\n      tag_156\n      jump\t// in\n    tag_155:\n        /* \"#utility.yul\":1151:1270   */\n    tag_154:\n        /* \"#utility.yul\":1309:1310   */\n      0x00\n        /* \"#utility.yul\":1334:1387   */\n      tag_157\n        /* \"#utility.yul\":1379:1386   */\n      dup5\n        /* \"#utility.yul\":1370:1376   */\n      dup3\n        /* \"#utility.yul\":1359:1368   */\n      dup6\n        /* \"#utility.yul\":1355:1377   */\n      add\n        /* \"#utility.yul\":1334:1387   */\n      tag_139\n      jump\t// in\n    tag_157:\n        /* \"#utility.yul\":1324:1387   */\n      swap2\n      pop\n        /* \"#utility.yul\":1280:1397   */\n      pop\n        /* \"#utility.yul\":1075:1404   */\n      swap3\n      swap2\n      pop\n      pop\n      jump\t// out\n        /* \"#utility.yul\":1410:2064   */\n    tag_19:\n        /* \"#utility.yul\":1488:1494   */\n      0x00\n        /* \"#utility.yul\":1496:1502   */\n      dup1\n        /* \"#utility.yul\":1545:1547   */\n      0x40\n        /* \"#utility.yul\":1533:1542   */\n      dup4\n        /* \"#utility.yul\":1524:1531   */\n      dup6\n        /* \"#utility.yul\":1520:1543   */\n      sub\n        /* \"#utility.yul\":1516:1548   */\n      slt\n        /* \"#utility.yul\":1513:1632   */\n      iszero\n      tag_159\n      jumpi\n        /* \"#utility.yul\":1551:1630   */\n      tag_160\n      tag_156\n      jump\t// in\n    tag_160:\n        /* \"#utility.yul\":1513:1632   */\n    tag_159:\n        /* \"#utility.yul\":1699:1700   */\n      0x00\n        /* \"#utility.yul\":1688:1697   */\n      dup4\n        /* \"#utility.yul\":1684:1701   */\n      add\n        /* \"#utility.yul\":1671:1702   */\n      calldataload\n        /* \"#utility.yul\":1729:1747   */\n      0xffffffffffffffff\n        /* \"#utility.yul\":1721:1727   */\n      dup2\n        /* \"#utility.yul\":1718:1748   */\n      gt\n        /* \"#utility.yul\":1715:1832   */\n      iszero\n      tag_161\n      jumpi\n        /* \"#utility.yul\":1751:1830   */\n      tag_162\n      tag_163\n      jump\t// in\n    tag_162:\n        /* \"#utility.yul\":1715:1832   */\n    tag_161:\n        /* \"#utility.yul\":1856:1919   */\n      tag_164\n        /* \"#utility.yul\":1911:1918   */\n      dup6\n        /* \"#utility.yul\":1902:1908   */\n      dup3\n        /* \"#utility.yul\":1891:1900   */\n      dup7\n        /* \"#utility.yul\":1887:1909   */\n      add\n        /* \"#utility.yul\":1856:1919   */\n      tag_143\n      jump\t// in\n    tag_164:\n        /* \"#utility.yul\":1846:1919   */\n      swap3\n      pop\n        /* \"#utility.yul\":1642:1929   */\n      pop\n        /* \"#utility.yul\":1968:1970   */\n      0x20\n        /* \"#utility.yul\":1994:2047   */\n      tag_165\n        /* \"#utility.yul\":2039:2046   */\n      dup6\n        /* \"#utility.yul\":2030:2036   */\n      dup3\n        /* \"#utility.yul\":2019:2028   */\n      dup7\n        /* \"#utility.yul\":2015:2037   */\n      add\n        /* \"#utility.yul\":1994:2047   */\n      tag_149\n      jump\t// in\n    tag_165:\n        /* \"#utility.yul\":1984:2047   */\n      swap2\n      pop\n        /* \"#utility.yul\":1939:2057   */\n      pop\n        /* \"#utility.yul\":1410:2064   */\n      swap3\n      pop\n      swap3\n      swap1\n      pop\n      jump\t// out\n        /* \"#utility.yul\":2070:2399   */\n    tag_25:\n        /* \"#utility.yul\":2129:2135   */\n      0x00\n        /* \"#utility.yul\":2178:2180   */\n      0x20\n        /* \"#utility.yul\":2166:2175   */\n      dup3\n        /* \"#utility.yul\":2157:2164   */\n      dup5\n        /* \"#utility.yul\":2153:2176   */\n      sub\n        /* \"#utility.yul\":2149:2181   */\n      slt\n        /* \"#utility.yul\":2146:2265   */\n      iszero\n      tag_167\n      jumpi\n        /* \"#utility.yul\":2184:2263   */\n      tag_168\n      tag_156\n      jump\t// in\n    tag_168:\n        /* \"#utility.yul\":2146:2265   */\n    tag_167:\n        /* \"#utility.yul\":2304:2305   */\n      0x00\n        /* \"#utility.yul\":2329:2382   */\n      tag_169\n        /* \"#utility.yul\":2374:2381   */\n      dup5\n        /* \"#utility.yul\":2365:2371   */\n      dup3\n        /* \"#utility.yul\":2354:2363   */\n      dup6\n        /* \"#utility.yul\":2350:2372   */\n      add\n        /* \"#utility.yul\":2329:2382   */\n      tag_149\n      jump\t// in\n    tag_169:\n        /* \"#utility.yul\":2319:2382   */\n      swap2\n      pop\n        /* \"#utility.yul\":2275:2392   */\n      pop\n        /* \"#utility.yul\":2070:2399   */\n      swap3\n      swap2\n      pop\n      pop\n      jump\t// out\n        /* \"#utility.yul\":2405:2879   */\n    tag_15:\n        /* \"#utility.yul\":2473:2479   */\n      0x00\n        /* \"#utility.yul\":2481:2487   */\n      dup1\n        /* \"#utility.yul\":2530:2532   */\n      0x40\n        /* \"#utility.yul\":2518:2527   */\n      dup4\n        /* \"#utility.yul\":2509:2516   */\n      dup6\n        /* \"#utility.yul\":2505:2528   */\n      sub\n        /* \"#utility.yul\":2501:2533   */\n      slt\n        /* \"#utility.yul\":2498:2617   */\n      iszero\n      tag_171\n      jumpi\n        /* \"#utility.yul\":2536:2615   */\n      tag_172\n      tag_156\n      jump\t// in\n    tag_172:\n        /* \"#utility.yul\":2498:2617   */\n    tag_171:\n        /* \"#utility.yul\":2656:2657   */\n      0x00\n        /* \"#utility.yul\":2681:2734   */\n      tag_173\n        /* \"#utility.yul\":2726:2733   */\n      dup6\n        /* \"#utility.yul\":2717:2723   */\n      dup3\n        /* \"#utility.yul\":2706:2715   */\n      dup7\n        /* \"#utility.yul\":2702:2724   */\n      add\n        /* \"#utility.yul\":2681:2734   */\n      tag_149\n      jump\t// in\n    tag_173:\n        /* \"#utility.yul\":2671:2734   */\n      swap3\n      pop\n        /* \"#utility.yul\":2627:2744   */\n      pop\n        /* \"#utility.yul\":2783:2785   */\n      0x20\n        /* \"#utility.yul\":2809:2862   */\n      tag_174\n        /* \"#utility.yul\":2854:2861   */\n      dup6\n        /* \"#utility.yul\":2845:2851   */\n      dup3\n        /* \"#utility.yul\":2834:2843   */\n      dup7\n        /* \"#utility.yul\":2830:2852   */\n      add\n        /* \"#utility.yul\":2809:2862   */\n      tag_149\n      jump\t// in\n    tag_174:\n        /* \"#utility.yul\":2799:2862   */\n      swap2\n      pop\n        /* \"#utility.yul\":2754:2872   */\n      pop\n        /* \"#utility.yul\":2405:2879   */\n      swap3\n      pop\n      swap3\n      swap1\n      pop\n      jump\t// out\n        /* \"#utility.yul\":2885:3003   */\n    tag_175:\n        /* \"#utility.yul\":2972:2996   */\n      tag_177\n        /* \"#utility.yul\":2990:2995   */\n      dup2\n        /* \"#utility.yul\":2972:2996   */\n      tag_178\n      jump\t// in\n    tag_177:\n        /* \"#utility.yul\":2967:2970   */\n      dup3\n        /* \"#utility.yul\":2960:2997   */\n      mstore\n        /* \"#utility.yul\":2885:3003   */\n      pop\n      pop\n      jump\t// out\n        /* \"#utility.yul\":3009:3373   */\n    tag_179:\n        /* \"#utility.yul\":3097:3100   */\n      0x00\n        /* \"#utility.yul\":3125:3164   */\n      tag_181\n        /* \"#utility.yul\":3158:3163   */\n      dup3\n        /* \"#utility.yul\":3125:3164   */\n      tag_182\n      jump\t// in\n    tag_181:\n        /* \"#utility.yul\":3180:3251   */\n      tag_183\n        /* \"#utility.yul\":3244:3250   */\n      dup2\n        /* \"#utility.yul\":3239:3242   */\n      dup6\n        /* \"#utility.yul\":3180:3251   */\n      tag_184\n      jump\t// in\n    tag_183:\n        /* \"#utility.yul\":3173:3251   */\n      swap4\n      pop\n        /* \"#utility.yul\":3260:3312   */\n      tag_185\n        /* \"#utility.yul\":3305:3311   */\n      dup2\n        /* \"#utility.yul\":3300:3303   */\n      dup6\n        /* \"#utility.yul\":3293:3297   */\n      0x20\n        /* \"#utility.yul\":3286:3291   */\n      dup7\n        /* \"#utility.yul\":3282:3298   */\n      add\n        /* \"#utility.yul\":3260:3312   */\n      tag_186\n      jump\t// in\n    tag_185:\n        /* \"#utility.yul\":3337:3366   */\n      tag_187\n        /* \"#utility.yul\":3359:3365   */\n      dup2\n        /* \"#utility.yul\":3337:3366   */\n      tag_188\n      jump\t// in\n    tag_187:\n        /* \"#utility.yul\":3332:3335   */\n      dup5\n        /* \"#utility.yul\":3328:3367   */\n      add\n        /* \"#utility.yul\":3321:3367   */\n      swap2\n      pop\n        /* \"#utility.yul\":3101:3373   */\n      pop\n        /* \"#utility.yul\":3009:3373   */\n      swap3\n      swap2\n      pop\n      pop\n      jump\t// out\n        /* \"#utility.yul\":3379:3756   */\n    tag_189:\n        /* \"#utility.yul\":3485:3488   */\n      0x00\n        /* \"#utility.yul\":3513:3552   */\n      tag_191\n        /* \"#utility.yul\":3546:3551   */\n      dup3\n        /* \"#utility.yul\":3513:3552   */\n      tag_182\n      jump\t// in\n    tag_191:\n        /* \"#utility.yul\":3568:3657   */\n      tag_192\n        /* \"#utility.yul\":3650:3656   */\n      dup2\n        /* \"#utility.yul\":3645:3648   */\n      dup6\n        /* \"#utility.yul\":3568:3657   */\n      tag_193\n      jump\t// in\n    tag_192:\n        /* \"#utility.yul\":3561:3657   */\n      swap4\n      pop\n        /* \"#utility.yul\":3666:3718   */\n      tag_194\n        /* \"#utility.yul\":3711:3717   */\n      dup2\n        /* \"#utility.yul\":3706:3709   */\n      dup6\n        /* \"#utility.yul\":3699:3703   */\n      0x20\n        /* \"#utility.yul\":3692:3697   */\n      dup7\n        /* \"#utility.yul\":3688:3704   */\n      add\n        /* \"#utility.yul\":3666:3718   */\n      tag_186\n      jump\t// in\n    tag_194:\n        /* \"#utility.yul\":3743:3749   */\n      dup1\n        /* \"#utility.yul\":3738:3741   */\n      dup5\n        /* \"#utility.yul\":3734:3750   */\n      add\n        /* \"#utility.yul\":3727:3750   */\n      swap2\n      pop\n        /* \"#utility.yul\":3489:3756   */\n      pop\n        /* \"#utility.yul\":3379:3756   */\n      swap3\n      swap2\n      pop\n      pop\n      jump\t// out\n        /* \"#utility.yul\":3762:4128   */\n    tag_195:\n        /* \"#utility.yul\":3904:3907   */\n      0x00\n        /* \"#utility.yul\":3925:3992   */\n      tag_197\n        /* \"#utility.yul\":3989:3991   */\n      0x14\n        /* \"#utility.yul\":3984:3987   */\n      dup4\n        /* \"#utility.yul\":3925:3992   */\n      tag_184\n      jump\t// in\n    tag_197:\n        /* \"#utility.yul\":3918:3992   */\n      swap2\n      pop\n        /* \"#utility.yul\":4001:4094   */\n      tag_198\n        /* \"#utility.yul\":4090:4093   */\n      dup3\n        /* \"#utility.yul\":4001:4094   */\n      tag_199\n      jump\t// in\n    tag_198:\n        /* \"#utility.yul\":4119:4121   */\n      0x20\n        /* \"#utility.yul\":4114:4117   */\n      dup3\n        /* \"#utility.yul\":4110:4122   */\n      add\n        /* \"#utility.yul\":4103:4122   */\n      swap1\n      pop\n        /* \"#utility.yul\":3762:4128   */\n      swap2\n      swap1\n      pop\n      jump\t// out\n        /* \"#utility.yul\":4134:4500   */\n    tag_200:\n        /* \"#utility.yul\":4276:4279   */\n      0x00\n        /* \"#utility.yul\":4297:4364   */\n      tag_202\n        /* \"#utility.yul\":4361:4363   */\n      0x11\n        /* \"#utility.yul\":4356:4359   */\n      dup4\n        /* \"#utility.yul\":4297:4364   */\n      tag_184\n      jump\t// in\n    tag_202:\n        /* \"#utility.yul\":4290:4364   */\n      swap2\n      pop\n        /* \"#utility.yul\":4373:4466   */\n      tag_203\n        /* \"#utility.yul\":4462:4465   */\n      dup3\n        /* \"#utility.yul\":4373:4466   */\n      tag_204\n      jump\t// in\n    tag_203:\n        /* \"#utility.yul\":4491:4493   */\n      0x20\n        /* \"#utility.yul\":4486:4489   */\n      dup3\n        /* \"#utility.yul\":4482:4494   */\n      add\n        /* \"#utility.yul\":4475:4494   */\n      swap1\n      pop\n        /* \"#utility.yul\":4134:4500   */\n      swap2\n      swap1\n      pop\n      jump\t// out\n        /* \"#utility.yul\":4506:4872   */\n    tag_205:\n        /* \"#utility.yul\":4648:4651   */\n      0x00\n        /* \"#utility.yul\":4669:4736   */\n      tag_207\n        /* \"#utility.yul\":4733:4735   */\n      0x16\n        /* \"#utility.yul\":4728:4731   */\n      dup4\n        /* \"#utility.yul\":4669:4736   */\n      tag_184\n      jump\t// in\n    tag_207:\n        /* \"#utility.yul\":4662:4736   */\n      swap2\n      pop\n        /* \"#utility.yul\":4745:4838   */\n      tag_208\n        /* \"#utility.yul\":4834:4837   */\n      dup3\n        /* \"#utility.yul\":4745:4838   */\n      tag_209\n      jump\t// in\n    tag_208:\n        /* \"#utility.yul\":4863:4865   */\n      0x20\n        /* \"#utility.yul\":4858:4861   */\n      dup3\n        /* \"#utility.yul\":4854:4866   */\n      add\n        /* \"#utility.yul\":4847:4866   */\n      swap1\n      pop\n        /* \"#utility.yul\":4506:4872   */\n      swap2\n      swap1\n      pop\n      jump\t// out\n        /* \"#utility.yul\":4878:5244   */\n    tag_210:\n        /* \"#utility.yul\":5020:5023   */\n      0x00\n        /* \"#utility.yul\":5041:5108   */\n      tag_212\n        /* \"#utility.yul\":5105:5107   */\n      0x26\n        /* \"#utility.yul\":5100:5103   */\n      dup4\n        /* \"#utility.yul\":5041:5108   */\n      tag_184\n      jump\t// in\n    tag_212:\n        /* \"#utility.yul\":5034:5108   */\n      swap2\n      pop\n        /* \"#utility.yul\":5117:5210   */\n      tag_213\n        /* \"#utility.yul\":5206:5209   */\n      dup3\n        /* \"#utility.yul\":5117:5210   */\n      tag_214\n      jump\t// in\n    tag_213:\n        /* \"#utility.yul\":5235:5237   */\n      0x40\n        /* \"#utility.yul\":5230:5233   */\n      dup3\n        /* \"#utility.yul\":5226:5238   */\n      add\n        /* \"#utility.yul\":5219:5238   */\n      swap1\n      pop\n        /* \"#utility.yul\":4878:5244   */\n      swap2\n      swap1\n      pop\n      jump\t// out\n        /* \"#utility.yul\":5250:5616   */\n    tag_215:\n        /* \"#utility.yul\":5392:5395   */\n      0x00\n        /* \"#utility.yul\":5413:5480   */\n      tag_217\n        /* \"#utility.yul\":5477:5479   */\n      0x12\n        /* \"#utility.yul\":5472:5475   */\n      dup4\n        /* \"#utility.yul\":5413:5480   */\n      tag_184\n      jump\t// in\n    tag_217:\n        /* \"#utility.yul\":5406:5480   */\n      swap2\n      pop\n        /* \"#utility.yul\":5489:5582   */\n      tag_218\n        /* \"#utility.yul\":5578:5581   */\n      dup3\n        /* \"#utility.yul\":5489:5582   */\n      tag_219\n      jump\t// in\n    tag_218:\n        /* \"#utility.yul\":5607:5609   */\n      0x20\n        /* \"#utility.yul\":5602:5605   */\n      dup3\n        /* \"#utility.yul\":5598:5610   */\n      add\n        /* \"#utility.yul\":5591:5610   */\n      swap1\n      pop\n        /* \"#utility.yul\":5250:5616   */\n      swap2\n      swap1\n      pop\n      jump\t// out\n        /* \"#utility.yul\":5622:5988   */\n    tag_220:\n        /* \"#utility.yul\":5764:5767   */\n      0x00\n        /* \"#utility.yul\":5785:5852   */\n      tag_222\n        /* \"#utility.yul\":5849:5851   */\n      0x20\n        /* \"#utility.yul\":5844:5847   */\n      dup4\n        /* \"#utility.yul\":5785:5852   */\n      tag_184\n      jump\t// in\n    tag_222:\n        /* \"#utility.yul\":5778:5852   */\n      swap2\n      pop\n        /* \"#utility.yul\":5861:5954   */\n      tag_223\n        /* \"#utility.yul\":5950:5953   */\n      dup3\n        /* \"#utility.yul\":5861:5954   */\n      tag_224\n      jump\t// in\n    tag_223:\n        /* \"#utility.yul\":5979:5981   */\n      0x20\n        /* \"#utility.yul\":5974:5977   */\n      dup3\n        /* \"#utility.yul\":5970:5982   */\n      add\n        /* \"#utility.yul\":5963:5982   */\n      swap1\n      pop\n        /* \"#utility.yul\":5622:5988   */\n      swap2\n      swap1\n      pop\n      jump\t// out\n        /* \"#utility.yul\":5994:6359   */\n    tag_225:\n        /* \"#utility.yul\":6136:6139   */\n      0x00\n        /* \"#utility.yul\":6157:6223   */\n      tag_227\n        /* \"#utility.yul\":6221:6222   */\n      0x05\n        /* \"#utility.yul\":6216:6219   */\n      dup4\n        /* \"#utility.yul\":6157:6223   */\n      tag_184\n      jump\t// in\n    tag_227:\n        /* \"#utility.yul\":6150:6223   */\n      swap2\n      pop\n        /* \"#utility.yul\":6232:6325   */\n      tag_228\n        /* \"#utility.yul\":6321:6324   */\n      dup3\n        /* \"#utility.yul\":6232:6325   */\n      tag_229\n      jump\t// in\n    tag_228:\n        /* \"#utility.yul\":6350:6352   */\n      0x20\n        /* \"#utility.yul\":6345:6348   */\n      dup3\n        /* \"#utility.yul\":6341:6353   */\n      add\n        /* \"#utility.yul\":6334:6353   */\n      swap1\n      pop\n        /* \"#utility.yul\":5994:6359   */\n      swap2\n      swap1\n      pop\n      jump\t// out\n        /* \"#utility.yul\":6365:6731   */\n    tag_230:\n        /* \"#utility.yul\":6507:6510   */\n      0x00\n        /* \"#utility.yul\":6528:6595   */\n      tag_232\n        /* \"#utility.yul\":6592:6594   */\n      0x13\n        /* \"#utility.yul\":6587:6590   */\n      dup4\n        /* \"#utility.yul\":6528:6595   */\n      tag_184\n      jump\t// in\n    tag_232:\n        /* \"#utility.yul\":6521:6595   */\n      swap2\n      pop\n        /* \"#utility.yul\":6604:6697   */\n      tag_233\n        /* \"#utility.yul\":6693:6696   */\n      dup3\n        /* \"#utility.yul\":6604:6697   */\n      tag_234\n      jump\t// in\n    tag_233:\n        /* \"#utility.yul\":6722:6724   */\n      0x20\n        /* \"#utility.yul\":6717:6720   */\n      dup3\n        /* \"#utility.yul\":6713:6725   */\n      add\n        /* \"#utility.yul\":6706:6725   */\n      swap1\n      pop\n        /* \"#utility.yul\":6365:6731   */\n      swap2\n      swap1\n      pop\n      jump\t// out\n        /* \"#utility.yul\":6737:6855   */\n    tag_235:\n        /* \"#utility.yul\":6824:6848   */\n      tag_237\n        /* \"#utility.yul\":6842:6847   */\n      dup2\n        /* \"#utility.yul\":6824:6848   */\n      tag_238\n      jump\t// in\n    tag_237:\n        /* \"#utility.yul\":6819:6822   */\n      dup3\n        /* \"#utility.yul\":6812:6849   */\n      mstore\n        /* \"#utility.yul\":6737:6855   */\n      pop\n      pop\n      jump\t// out\n        /* \"#utility.yul\":6861:7136   */\n    tag_65:\n        /* \"#utility.yul\":6993:6996   */\n      0x00\n        /* \"#utility.yul\":7015:7110   */\n      tag_240\n        /* \"#utility.yul\":7106:7109   */\n      dup3\n        /* \"#utility.yul\":7097:7103   */\n      dup5\n        /* \"#utility.yul\":7015:7110   */\n      tag_189\n      jump\t// in\n    tag_240:\n        /* \"#utility.yul\":7008:7110   */\n      swap2\n      pop\n        /* \"#utility.yul\":7127:7130   */\n      dup2\n        /* \"#utility.yul\":7120:7130   */\n      swap1\n      pop\n        /* \"#utility.yul\":6861:7136   */\n      swap3\n      swap2\n      pop\n      pop\n      jump\t// out\n        /* \"#utility.yul\":7142:7364   */\n    tag_35:\n        /* \"#utility.yul\":7235:7239   */\n      0x00\n        /* \"#utility.yul\":7273:7275   */\n      0x20\n        /* \"#utility.yul\":7262:7271   */\n      dup3\n        /* \"#utility.yul\":7258:7276   */\n      add\n        /* \"#utility.yul\":7250:7276   */\n      swap1\n      pop\n        /* \"#utility.yul\":7286:7357   */\n      tag_242\n        /* \"#utility.yul\":7354:7355   */\n      0x00\n        /* \"#utility.yul\":7343:7352   */\n      dup4\n        /* \"#utility.yul\":7339:7356   */\n      add\n        /* \"#utility.yul\":7330:7336   */\n      dup5\n        /* \"#utility.yul\":7286:7357   */\n      tag_175\n      jump\t// in\n    tag_242:\n        /* \"#utility.yul\":7142:7364   */\n      swap3\n      swap2\n      pop\n      pop\n      jump\t// out\n        /* \"#utility.yul\":7370:7903   */\n    tag_28:\n        /* \"#utility.yul\":7539:7543   */\n      0x00\n        /* \"#utility.yul\":7577:7579   */\n      0x60\n        /* \"#utility.yul\":7566:7575   */\n      dup3\n        /* \"#utility.yul\":7562:7580   */\n      add\n        /* \"#utility.yul\":7554:7580   */\n      swap1\n      pop\n        /* \"#utility.yul\":7626:7635   */\n      dup2\n        /* \"#utility.yul\":7620:7624   */\n      dup2\n        /* \"#utility.yul\":7616:7636   */\n      sub\n        /* \"#utility.yul\":7612:7613   */\n      0x00\n        /* \"#utility.yul\":7601:7610   */\n      dup4\n        /* \"#utility.yul\":7597:7614   */\n      add\n        /* \"#utility.yul\":7590:7637   */\n      mstore\n        /* \"#utility.yul\":7654:7732   */\n      tag_244\n        /* \"#utility.yul\":7727:7731   */\n      dup2\n        /* \"#utility.yul\":7718:7724   */\n      dup7\n        /* \"#utility.yul\":7654:7732   */\n      tag_179\n      jump\t// in\n    tag_244:\n        /* \"#utility.yul\":7646:7732   */\n      swap1\n      pop\n        /* \"#utility.yul\":7742:7814   */\n      tag_245\n        /* \"#utility.yul\":7810:7812   */\n      0x20\n        /* \"#utility.yul\":7799:7808   */\n      dup4\n        /* \"#utility.yul\":7795:7813   */\n      add\n        /* \"#utility.yul\":7786:7792   */\n      dup6\n        /* \"#utility.yul\":7742:7814   */\n      tag_235\n      jump\t// in\n    tag_245:\n        /* \"#utility.yul\":7824:7896   */\n      tag_246\n        /* \"#utility.yul\":7892:7894   */\n      0x40\n        /* \"#utility.yul\":7881:7890   */\n      dup4\n        /* \"#utility.yul\":7877:7895   */\n      add\n        /* \"#utility.yul\":7868:7874   */\n      dup5\n        /* \"#utility.yul\":7824:7896   */\n      tag_235\n      jump\t// in\n    tag_246:\n        /* \"#utility.yul\":7370:7903   */\n      swap5\n      swap4\n      pop\n      pop\n      pop\n      pop\n      jump\t// out\n        /* \"#utility.yul\":7909:8328   */\n    tag_72:\n        /* \"#utility.yul\":8075:8079   */\n      0x00\n        /* \"#utility.yul\":8113:8115   */\n      0x20\n        /* \"#utility.yul\":8102:8111   */\n      dup3\n        /* \"#utility.yul\":8098:8116   */\n      add\n        /* \"#utility.yul\":8090:8116   */\n      swap1\n      pop\n        /* \"#utility.yul\":8162:8171   */\n      dup2\n        /* \"#utility.yul\":8156:8160   */\n      dup2\n        /* \"#utility.yul\":8152:8172   */\n      sub\n        /* \"#utility.yul\":8148:8149   */\n      0x00\n        /* \"#utility.yul\":8137:8146   */\n      dup4\n        /* \"#utility.yul\":8133:8150   */\n      add\n        /* \"#utility.yul\":8126:8173   */\n      mstore\n        /* \"#utility.yul\":8190:8321   */\n      tag_248\n        /* \"#utility.yul\":8316:8320   */\n      dup2\n        /* \"#utility.yul\":8190:8321   */\n      tag_195\n      jump\t// in\n    tag_248:\n        /* \"#utility.yul\":8182:8321   */\n      swap1\n      pop\n        /* \"#utility.yul\":7909:8328   */\n      swap2\n      swap1\n      pop\n      jump\t// out\n        /* \"#utility.yul\":8334:8753   */\n    tag_68:\n        /* \"#utility.yul\":8500:8504   */\n      0x00\n        /* \"#utility.yul\":8538:8540   */\n      0x20\n        /* \"#utility.yul\":8527:8536   */\n      dup3\n        /* \"#utility.yul\":8523:8541   */\n      add\n        /* \"#utility.yul\":8515:8541   */\n      swap1\n      pop\n        /* \"#utility.yul\":8587:8596   */\n      dup2\n        /* \"#utility.yul\":8581:8585   */\n      dup2\n        /* \"#utility.yul\":8577:8597   */\n      sub\n        /* \"#utility.yul\":8573:8574   */\n      0x00\n        /* \"#utility.yul\":8562:8571   */\n      dup4\n        /* \"#utility.yul\":8558:8575   */\n      add\n        /* \"#utility.yul\":8551:8598   */\n      mstore\n        /* \"#utility.yul\":8615:8746   */\n      tag_250\n        /* \"#utility.yul\":8741:8745   */\n      dup2\n        /* \"#utility.yul\":8615:8746   */\n      tag_200\n      jump\t// in\n    tag_250:\n        /* \"#utility.yul\":8607:8746   */\n      swap1\n      pop\n        /* \"#utility.yul\":8334:8753   */\n      swap2\n      swap1\n      pop\n      jump\t// out\n        /* \"#utility.yul\":8759:9178   */\n    tag_90:\n        /* \"#utility.yul\":8925:8929   */\n      0x00\n        /* \"#utility.yul\":8963:8965   */\n      0x20\n        /* \"#utility.yul\":8952:8961   */\n      dup3\n        /* \"#utility.yul\":8948:8966   */\n      add\n        /* \"#utility.yul\":8940:8966   */\n      swap1\n      pop\n        /* \"#utility.yul\":9012:9021   */\n      dup2\n        /* \"#utility.yul\":9006:9010   */\n      dup2\n        /* \"#utility.yul\":9002:9022   */\n      sub\n        /* \"#utility.yul\":8998:8999   */\n      0x00\n        /* \"#utility.yul\":8987:8996   */\n      dup4\n        /* \"#utility.yul\":8983:9000   */\n      add\n        /* \"#utility.yul\":8976:9023   */\n      mstore\n        /* \"#utility.yul\":9040:9171   */\n      tag_252\n        /* \"#utility.yul\":9166:9170   */\n      dup2\n        /* \"#utility.yul\":9040:9171   */\n      tag_205\n      jump\t// in\n    tag_252:\n        /* \"#utility.yul\":9032:9171   */\n      swap1\n      pop\n        /* \"#utility.yul\":8759:9178   */\n      swap2\n      swap1\n      pop\n      jump\t// out\n        /* \"#utility.yul\":9184:9603   */\n    tag_106:\n        /* \"#utility.yul\":9350:9354   */\n      0x00\n        /* \"#utility.yul\":9388:9390   */\n      0x20\n        /* \"#utility.yul\":9377:9386   */\n      dup3\n        /* \"#utility.yul\":9373:9391   */\n      add\n        /* \"#utility.yul\":9365:9391   */\n      swap1\n      pop\n        /* \"#utility.yul\":9437:9446   */\n      dup2\n        /* \"#utility.yul\":9431:9435   */\n      dup2\n        /* \"#utility.yul\":9427:9447   */\n      sub\n        /* \"#utility.yul\":9423:9424   */\n      0x00\n        /* \"#utility.yul\":9412:9421   */\n      dup4\n        /* \"#utility.yul\":9408:9425   */\n      add\n        /* \"#utility.yul\":9401:9448   */\n      mstore\n        /* \"#utility.yul\":9465:9596   */\n      tag_254\n        /* \"#utility.yul\":9591:9595   */\n      dup2\n        /* \"#utility.yul\":9465:9596   */\n      tag_210\n      jump\t// in\n    tag_254:\n        /* \"#utility.yul\":9457:9596   */\n      swap1\n      pop\n        /* \"#utility.yul\":9184:9603   */\n      swap2\n      swap1\n      pop\n      jump\t// out\n        /* \"#utility.yul\":9609:10028   */\n    tag_99:\n        /* \"#utility.yul\":9775:9779   */\n      0x00\n        /* \"#utility.yul\":9813:9815   */\n      0x20\n        /* \"#utility.yul\":9802:9811   */\n      dup3\n        /* \"#utility.yul\":9798:9816   */\n      add\n        /* \"#utility.yul\":9790:9816   */\n      swap1\n      pop\n        /* \"#utility.yul\":9862:9871   */\n      dup2\n        /* \"#utility.yul\":9856:9860   */\n      dup2\n        /* \"#utility.yul\":9852:9872   */\n      sub\n        /* \"#utility.yul\":9848:9849   */\n      0x00\n        /* \"#utility.yul\":9837:9846   */\n      dup4\n        /* \"#utility.yul\":9833:9850   */\n      add\n        /* \"#utility.yul\":9826:9873   */\n      mstore\n        /* \"#utility.yul\":9890:10021   */\n      tag_256\n        /* \"#utility.yul\":10016:10020   */\n      dup2\n        /* \"#utility.yul\":9890:10021   */\n      tag_215\n      jump\t// in\n    tag_256:\n        /* \"#utility.yul\":9882:10021   */\n      swap1\n      pop\n        /* \"#utility.yul\":9609:10028   */\n      swap2\n      swap1\n      pop\n      jump\t// out\n        /* \"#utility.yul\":10034:10453   */\n    tag_114:\n        /* \"#utility.yul\":10200:10204   */\n      0x00\n        /* \"#utility.yul\":10238:10240   */\n      0x20\n        /* \"#utility.yul\":10227:10236   */\n      dup3\n        /* \"#utility.yul\":10223:10241   */\n      add\n        /* \"#utility.yul\":10215:10241   */\n      swap1\n      pop\n        /* \"#utility.yul\":10287:10296   */\n      dup2\n        /* \"#utility.yul\":10281:10285   */\n      dup2\n        /* \"#utility.yul\":10277:10297   */\n      sub\n        /* \"#utility.yul\":10273:10274   */\n      0x00\n        /* \"#utility.yul\":10262:10271   */\n      dup4\n        /* \"#utility.yul\":10258:10275   */\n      add\n        /* \"#utility.yul\":10251:10298   */\n      mstore\n        /* \"#utility.yul\":10315:10446   */\n      tag_258\n        /* \"#utility.yul\":10441:10445   */\n      dup2\n        /* \"#utility.yul\":10315:10446   */\n      tag_220\n      jump\t// in\n    tag_258:\n        /* \"#utility.yul\":10307:10446   */\n      swap1\n      pop\n        /* \"#utility.yul\":10034:10453   */\n      swap2\n      swap1\n      pop\n      jump\t// out\n        /* \"#utility.yul\":10459:10878   */\n    tag_53:\n        /* \"#utility.yul\":10625:10629   */\n      0x00\n        /* \"#utility.yul\":10663:10665   */\n      0x20\n        /* \"#utility.yul\":10652:10661   */\n      dup3\n        /* \"#utility.yul\":10648:10666   */\n      add\n        /* \"#utility.yul\":10640:10666   */\n      swap1\n      pop\n        /* \"#utility.yul\":10712:10721   */\n      dup2\n        /* \"#utility.yul\":10706:10710   */\n      dup2\n        /* \"#utility.yul\":10702:10722   */\n      sub\n        /* \"#utility.yul\":10698:10699   */\n      0x00\n        /* \"#utility.yul\":10687:10696   */\n      dup4\n        /* \"#utility.yul\":10683:10700   */\n      add\n        /* \"#utility.yul\":10676:10723   */\n      mstore\n        /* \"#utility.yul\":10740:10871   */\n      tag_260\n        /* \"#utility.yul\":10866:10870   */\n      dup2\n        /* \"#utility.yul\":10740:10871   */\n      tag_225\n      jump\t// in\n    tag_260:\n        /* \"#utility.yul\":10732:10871   */\n      swap1\n      pop\n        /* \"#utility.yul\":10459:10878   */\n      swap2\n      swap1\n      pop\n      jump\t// out\n        /* \"#utility.yul\":10884:11303   */\n    tag_58:\n        /* \"#utility.yul\":11050:11054   */\n      0x00\n        /* \"#utility.yul\":11088:11090   */\n      0x20\n        /* \"#utility.yul\":11077:11086   */\n      dup3\n        /* \"#utility.yul\":11073:11091   */\n      add\n        /* \"#utility.yul\":11065:11091   */\n      swap1\n      pop\n        /* \"#utility.yul\":11137:11146   */\n      dup2\n        /* \"#utility.yul\":11131:11135   */\n      dup2\n        /* \"#utility.yul\":11127:11147   */\n      sub\n        /* \"#utility.yul\":11123:11124   */\n      0x00\n        /* \"#utility.yul\":11112:11121   */\n      dup4\n        /* \"#utility.yul\":11108:11125   */\n      add\n        /* \"#utility.yul\":11101:11148   */\n      mstore\n        /* \"#utility.yul\":11165:11296   */\n      tag_262\n        /* \"#utility.yul\":11291:11295   */\n      dup2\n        /* \"#utility.yul\":11165:11296   */\n      tag_230\n      jump\t// in\n    tag_262:\n        /* \"#utility.yul\":11157:11296   */\n      swap1\n      pop\n        /* \"#utility.yul\":10884:11303   */\n      swap2\n      swap1\n      pop\n      jump\t// out\n        /* \"#utility.yul\":11309:11531   */\n    tag_39:\n        /* \"#utility.yul\":11402:11406   */\n      0x00\n        /* \"#utility.yul\":11440:11442   */\n      0x20\n        /* \"#utility.yul\":11429:11438   */\n      dup3\n        /* \"#utility.yul\":11425:11443   */\n      add\n        /* \"#utility.yul\":11417:11443   */\n      swap1\n      pop\n        /* \"#utility.yul\":11453:11524   */\n      tag_264\n        /* \"#utility.yul\":11521:11522   */\n      0x00\n        /* \"#utility.yul\":11510:11519   */\n      dup4\n        /* \"#utility.yul\":11506:11523   */\n      add\n        /* \"#utility.yul\":11497:11503   */\n      dup5\n        /* \"#utility.yul\":11453:11524   */\n      tag_235\n      jump\t// in\n    tag_264:\n        /* \"#utility.yul\":11309:11531   */\n      swap3\n      swap2\n      pop\n      pop\n      jump\t// out\n        /* \"#utility.yul\":11537:11666   */\n    tag_133:\n        /* \"#utility.yul\":11571:11577   */\n      0x00\n        /* \"#utility.yul\":11598:11618   */\n      tag_266\n      tag_267\n      jump\t// in\n    tag_266:\n        /* \"#utility.yul\":11588:11618   */\n      swap1\n      pop\n        /* \"#utility.yul\":11627:11660   */\n      tag_268\n        /* \"#utility.yul\":11655:11659   */\n      dup3\n        /* \"#utility.yul\":11647:11653   */\n      dup3\n        /* \"#utility.yul\":11627:11660   */\n      tag_269\n      jump\t// in\n    tag_268:\n        /* \"#utility.yul\":11537:11666   */\n      swap2\n      swap1\n      pop\n      jump\t// out\n        /* \"#utility.yul\":11672:11747   */\n    tag_267:\n        /* \"#utility.yul\":11705:11711   */\n      0x00\n        /* \"#utility.yul\":11738:11740   */\n      0x40\n        /* \"#utility.yul\":11732:11741   */\n      mload\n        /* \"#utility.yul\":11722:11741   */\n      swap1\n      pop\n        /* \"#utility.yul\":11672:11747   */\n      swap1\n      jump\t// out\n        /* \"#utility.yul\":11753:12061   */\n    tag_132:\n        /* \"#utility.yul\":11815:11819   */\n      0x00\n        /* \"#utility.yul\":11905:11923   */\n      0xffffffffffffffff\n        /* \"#utility.yul\":11897:11903   */\n      dup3\n        /* \"#utility.yul\":11894:11924   */\n      gt\n        /* \"#utility.yul\":11891:11947   */\n      iszero\n      tag_272\n      jumpi\n        /* \"#utility.yul\":11927:11945   */\n      tag_273\n      tag_274\n      jump\t// in\n    tag_273:\n        /* \"#utility.yul\":11891:11947   */\n    tag_272:\n        /* \"#utility.yul\":11965:11994   */\n      tag_275\n        /* \"#utility.yul\":11987:11993   */\n      dup3\n        /* \"#utility.yul\":11965:11994   */\n      tag_188\n      jump\t// in\n    tag_275:\n        /* \"#utility.yul\":11957:11994   */\n      swap1\n      pop\n        /* \"#utility.yul\":12049:12053   */\n      0x20\n        /* \"#utility.yul\":12043:12047   */\n      dup2\n        /* \"#utility.yul\":12039:12054   */\n      add\n        /* \"#utility.yul\":12031:12054   */\n      swap1\n      pop\n        /* \"#utility.yul\":11753:12061   */\n      swap2\n      swap1\n      pop\n      jump\t// out\n        /* \"#utility.yul\":12067:12166   */\n    tag_182:\n        /* \"#utility.yul\":12119:12125   */\n      0x00\n        /* \"#utility.yul\":12153:12158   */\n      dup2\n        /* \"#utility.yul\":12147:12159   */\n      mload\n        /* \"#utility.yul\":12137:12159   */\n      swap1\n      pop\n        /* \"#utility.yul\":12067:12166   */\n      swap2\n      swap1\n      pop\n      jump\t// out\n        /* \"#utility.yul\":12172:12341   */\n    tag_184:\n        /* \"#utility.yul\":12256:12267   */\n      0x00\n        /* \"#utility.yul\":12290:12296   */\n      dup3\n        /* \"#utility.yul\":12285:12288   */\n      dup3\n        /* \"#utility.yul\":12278:12297   */\n      mstore\n        /* \"#utility.yul\":12330:12334   */\n      0x20\n        /* \"#utility.yul\":12325:12328   */\n      dup3\n        /* \"#utility.yul\":12321:12335   */\n      add\n        /* \"#utility.yul\":12306:12335   */\n      swap1\n      pop\n        /* \"#utility.yul\":12172:12341   */\n      swap3\n      swap2\n      pop\n      pop\n      jump\t// out\n        /* \"#utility.yul\":12347:12495   */\n    tag_193:\n        /* \"#utility.yul\":12449:12460   */\n      0x00\n        /* \"#utility.yul\":12486:12489   */\n      dup2\n        /* \"#utility.yul\":12471:12489   */\n      swap1\n      pop\n        /* \"#utility.yul\":12347:12495   */\n      swap3\n      swap2\n      pop\n      pop\n      jump\t// out\n        /* \"#utility.yul\":12501:12806   */\n    tag_60:\n        /* \"#utility.yul\":12541:12544   */\n      0x00\n        /* \"#utility.yul\":12560:12580   */\n      tag_280\n        /* \"#utility.yul\":12578:12579   */\n      dup3\n        /* \"#utility.yul\":12560:12580   */\n      tag_238\n      jump\t// in\n    tag_280:\n        /* \"#utility.yul\":12555:12580   */\n      swap2\n      pop\n        /* \"#utility.yul\":12594:12614   */\n      tag_281\n        /* \"#utility.yul\":12612:12613   */\n      dup4\n        /* \"#utility.yul\":12594:12614   */\n      tag_238\n      jump\t// in\n    tag_281:\n        /* \"#utility.yul\":12589:12614   */\n      swap3\n      pop\n        /* \"#utility.yul\":12748:12749   */\n      dup3\n        /* \"#utility.yul\":12680:12746   */\n      0xffffffffffffffffffffffffffffffffffffffffffffffffffffffffffffffff\n        /* \"#utility.yul\":12676:12750   */\n      sub\n        /* \"#utility.yul\":12673:12674   */\n      dup3\n        /* \"#utility.yul\":12670:12751   */\n      gt\n        /* \"#utility.yul\":12667:12774   */\n      iszero\n      tag_282\n      jumpi\n        /* \"#utility.yul\":12754:12772   */\n      tag_283\n      tag_284\n      jump\t// in\n    tag_283:\n        /* \"#utility.yul\":12667:12774   */\n    tag_282:\n        /* \"#utility.yul\":12798:12799   */\n      dup3\n        /* \"#utility.yul\":12795:12796   */\n      dup3\n        /* \"#utility.yul\":12791:12800   */\n      add\n        /* \"#utility.yul\":12784:12800   */\n      swap1\n      pop\n        /* \"#utility.yul\":12501:12806   */\n      swap3\n      swap2\n      pop\n      pop\n      jump\t// out\n        /* \"#utility.yul\":12812:13003   */\n    tag_93:\n        /* \"#utility.yul\":12852:12856   */\n      0x00\n        /* \"#utility.yul\":12872:12892   */\n      tag_286\n        /* \"#utility.yul\":12890:12891   */\n      dup3\n        /* \"#utility.yul\":12872:12892   */\n      tag_238\n      jump\t// in\n    tag_286:\n        /* \"#utility.yul\":12867:12892   */\n      swap2\n      pop\n        /* \"#utility.yul\":12906:12926   */\n      tag_287\n        /* \"#utility.yul\":12924:12925   */\n      dup4\n        /* \"#utility.yul\":12906:12926   */\n      tag_238\n      jump\t// in\n    tag_287:\n        /* \"#utility.yul\":12901:12926   */\n      swap3\n      pop\n        /* \"#utility.yul\":12945:12946   */\n      dup3\n        /* \"#utility.yul\":12942:12943   */\n      dup3\n        /* \"#utility.yul\":12939:12947   */\n      lt\n        /* \"#utility.yul\":12936:12970   */\n      iszero\n      tag_288\n      jumpi\n        /* \"#utility.yul\":12950:12968   */\n      tag_289\n      tag_284\n      jump\t// in\n    tag_289:\n        /* \"#utility.yul\":12936:12970   */\n    tag_288:\n        /* \"#utility.yul\":12995:12996   */\n      dup3\n        /* \"#utility.yul\":12992:12993   */\n      dup3\n        /* \"#utility.yul\":12988:12997   */\n      sub\n        /* \"#utility.yul\":12980:12997   */\n      swap1\n      pop\n        /* \"#utility.yul\":12812:13003   */\n      swap3\n      swap2\n      pop\n      pop\n      jump\t// out\n        /* \"#utility.yul\":13009:13105   */\n    tag_178:\n        /* \"#utility.yul\":13046:13053   */\n      0x00\n        /* \"#utility.yul\":13075:13099   */\n      tag_291\n        /* \"#utility.yul\":13093:13098   */\n      dup3\n        /* \"#utility.yul\":13075:13099   */\n      tag_292\n      jump\t// in\n    tag_291:\n        /* \"#utility.yul\":13064:13099   */\n      swap1\n      pop\n        /* \"#utility.yul\":13009:13105   */\n      swap2\n      swap1\n      pop\n      jump\t// out\n        /* \"#utility.yul\":13111:13237   */\n    tag_292:\n        /* \"#utility.yul\":13148:13155   */\n      0x00\n        /* \"#utility.yul\":13188:13230   */\n      0xffffffffffffffffffffffffffffffffffffffff\n        /* \"#utility.yul\":13181:13186   */\n      dup3\n        /* \"#utility.yul\":13177:13231   */\n      and\n        /* \"#utility.yul\":13166:13231   */\n      swap1\n      pop\n        /* \"#utility.yul\":13111:13237   */\n      swap2\n      swap1\n      pop\n      jump\t// out\n        /* \"#utility.yul\":13243:13320   */\n    tag_238:\n        /* \"#utility.yul\":13280:13287   */\n      0x00\n        /* \"#utility.yul\":13309:13314   */\n      dup2\n        /* \"#utility.yul\":13298:13314   */\n      swap1\n      pop\n        /* \"#utility.yul\":13243:13320   */\n      swap2\n      swap1\n      pop\n      jump\t// out\n        /* \"#utility.yul\":13326:13480   */\n    tag_138:\n        /* \"#utility.yul\":13410:13416   */\n      dup3\n        /* \"#utility.yul\":13405:13408   */\n      dup2\n        /* \"#utility.yul\":13400:13403   */\n      dup4\n        /* \"#utility.yul\":13387:13417   */\n      calldatacopy\n        /* \"#utility.yul\":13472:13473   */\n      0x00\n        /* \"#utility.yul\":13463:13469   */\n      dup4\n        /* \"#utility.yul\":13458:13461   */\n      dup4\n        /* \"#utility.yul\":13454:13470   */\n      add\n        /* \"#utility.yul\":13447:13474   */\n      mstore\n        /* \"#utility.yul\":13326:13480   */\n      pop\n      pop\n      pop\n      jump\t// out\n        /* \"#utility.yul\":13486:13793   */\n    tag_186:\n        /* \"#utility.yul\":13554:13555   */\n      0x00\n        /* \"#utility.yul\":13564:13677   */\n    tag_297:\n        /* \"#utility.yul\":13578:13584   */\n      dup4\n        /* \"#utility.yul\":13575:13576   */\n      dup2\n        /* \"#utility.yul\":13572:13585   */\n      lt\n        /* \"#utility.yul\":13564:13677   */\n      iszero\n      tag_299\n      jumpi\n        /* \"#utility.yul\":13663:13664   */\n      dup1\n        /* \"#utility.yul\":13658:13661   */\n      dup3\n        /* \"#utility.yul\":13654:13665   */\n      add\n        /* \"#utility.yul\":13648:13666   */\n      mload\n        /* \"#utility.yul\":13644:13645   */\n      dup2\n        /* \"#utility.yul\":13639:13642   */\n      dup5\n        /* \"#utility.yul\":13635:13646   */\n      add\n        /* \"#utility.yul\":13628:13667   */\n      mstore\n        /* \"#utility.yul\":13600:13602   */\n      0x20\n        /* \"#utility.yul\":13597:13598   */\n      dup2\n        /* \"#utility.yul\":13593:13603   */\n      add\n        /* \"#utility.yul\":13588:13603   */\n      swap1\n      pop\n        /* \"#utility.yul\":13564:13677   */\n      jump(tag_297)\n    tag_299:\n        /* \"#utility.yul\":13695:13701   */\n      dup4\n        /* \"#utility.yul\":13692:13693   */\n      dup2\n        /* \"#utility.yul\":13689:13702   */\n      gt\n        /* \"#utility.yul\":13686:13787   */\n      iszero\n      tag_300\n      jumpi\n        /* \"#utility.yul\":13775:13776   */\n      0x00\n        /* \"#utility.yul\":13766:13772   */\n      dup5\n        /* \"#utility.yul\":13761:13764   */\n      dup5\n        /* \"#utility.yul\":13757:13773   */\n      add\n        /* \"#utility.yul\":13750:13777   */\n      mstore\n        /* \"#utility.yul\":13686:13787   */\n    tag_300:\n        /* \"#utility.yul\":13535:13793   */\n      pop\n        /* \"#utility.yul\":13486:13793   */\n      pop\n      pop\n      pop\n      jump\t// out\n        /* \"#utility.yul\":13799:14119   */\n    tag_55:\n        /* \"#utility.yul\":13843:13849   */\n      0x00\n        /* \"#utility.yul\":13880:13881   */\n      0x02\n        /* \"#utility.yul\":13874:13878   */\n      dup3\n        /* \"#utility.yul\":13870:13882   */\n      div\n        /* \"#utility.yul\":13860:13882   */\n      swap1\n      pop\n        /* \"#utility.yul\":13927:13928   */\n      0x01\n        /* \"#utility.yul\":13921:13925   */\n      dup3\n        /* \"#utility.yul\":13917:13929   */\n      and\n        /* \"#utility.yul\":13948:13966   */\n      dup1\n        /* \"#utility.yul\":13938:14019   */\n      tag_302\n      jumpi\n        /* \"#utility.yul\":14004:14008   */\n      0x7f\n        /* \"#utility.yul\":13996:14002   */\n      dup3\n        /* \"#utility.yul\":13992:14009   */\n      and\n        /* \"#utility.yul\":13982:14009   */\n      swap2\n      pop\n        /* \"#utility.yul\":13938:14019   */\n    tag_302:\n        /* \"#utility.yul\":14066:14068   */\n      0x20\n        /* \"#utility.yul\":14058:14064   */\n      dup3\n        /* \"#utility.yul\":14055:14069   */\n      lt\n        /* \"#utility.yul\":14035:14053   */\n      dup2\n        /* \"#utility.yul\":14032:14070   */\n      eq\n        /* \"#utility.yul\":14029:14113   */\n      iszero\n      tag_303\n      jumpi\n        /* \"#utility.yul\":14085:14103   */\n      tag_304\n      tag_305\n      jump\t// in\n    tag_304:\n        /* \"#utility.yul\":14029:14113   */\n    tag_303:\n        /* \"#utility.yul\":13850:14119   */\n      pop\n        /* \"#utility.yul\":13799:14119   */\n      swap2\n      swap1\n      pop\n      jump\t// out\n        /* \"#utility.yul\":14125:14406   */\n    tag_269:\n        /* \"#utility.yul\":14208:14235   */\n      tag_307\n        /* \"#utility.yul\":14230:14234   */\n      dup3\n        /* \"#utility.yul\":14208:14235   */\n      tag_188\n      jump\t// in\n    tag_307:\n        /* \"#utility.yul\":14200:14206   */\n      dup2\n        /* \"#utility.yul\":14196:14236   */\n      add\n        /* \"#utility.yul\":14338:14344   */\n      dup2\n        /* \"#utility.yul\":14326:14336   */\n      dup2\n        /* \"#utility.yul\":14323:14345   */\n      lt\n        /* \"#utility.yul\":14302:14320   */\n      0xffffffffffffffff\n        /* \"#utility.yul\":14290:14300   */\n      dup3\n        /* \"#utility.yul\":14287:14321   */\n      gt\n        /* \"#utility.yul\":14284:14346   */\n      or\n        /* \"#utility.yul\":14281:14369   */\n      iszero\n      tag_308\n      jumpi\n        /* \"#utility.yul\":14349:14367   */\n      tag_309\n      tag_274\n      jump\t// in\n    tag_309:\n        /* \"#utility.yul\":14281:14369   */\n    tag_308:\n        /* \"#utility.yul\":14389:14399   */\n      dup1\n        /* \"#utility.yul\":14385:14387   */\n      0x40\n        /* \"#utility.yul\":14378:14400   */\n      mstore\n        /* \"#utility.yul\":14168:14406   */\n      pop\n        /* \"#utility.yul\":14125:14406   */\n      pop\n      pop\n      jump\t// out\n        /* \"#utility.yul\":14412:14592   */\n    tag_284:\n        /* \"#utility.yul\":14460:14537   */\n      0x4e487b7100000000000000000000000000000000000000000000000000000000\n        /* \"#utility.yul\":14457:14458   */\n      0x00\n        /* \"#utility.yul\":14450:14538   */\n      mstore\n        /* \"#utility.yul\":14557:14561   */\n      0x11\n        /* \"#utility.yul\":14554:14555   */\n      0x04\n        /* \"#utility.yul\":14547:14562   */\n      mstore\n        /* \"#utility.yul\":14581:14585   */\n      0x24\n        /* \"#utility.yul\":14578:14579   */\n      0x00\n        /* \"#utility.yul\":14571:14586   */\n      revert\n        /* \"#utility.yul\":14598:14778   */\n    tag_305:\n        /* \"#utility.yul\":14646:14723   */\n      0x4e487b7100000000000000000000000000000000000000000000000000000000\n        /* \"#utility.yul\":14643:14644   */\n      0x00\n        /* \"#utility.yul\":14636:14724   */\n      mstore\n        /* \"#utility.yul\":14743:14747   */\n      0x22\n        /* \"#utility.yul\":14740:14741   */\n      0x04\n        /* \"#utility.yul\":14733:14748   */\n      mstore\n        /* \"#utility.yul\":14767:14771   */\n      0x24\n        /* \"#utility.yul\":14764:14765   */\n      0x00\n        /* \"#utility.yul\":14757:14772   */\n      revert\n        /* \"#utility.yul\":14784:14964   */\n    tag_274:\n        /* \"#utility.yul\":14832:14909   */\n      0x4e487b7100000000000000000000000000000000000000000000000000000000\n        /* \"#utility.yul\":14829:14830   */\n      0x00\n        /* \"#utility.yul\":14822:14910   */\n      mstore\n        /* \"#utility.yul\":14929:14933   */\n      0x41\n        /* \"#utility.yul\":14926:14927   */\n      0x04\n        /* \"#utility.yul\":14919:14934   */\n      mstore\n        /* \"#utility.yul\":14953:14957   */\n      0x24\n        /* \"#utility.yul\":14950:14951   */\n      0x00\n        /* \"#utility.yul\":14943:14958   */\n      revert\n        /* \"#utility.yul\":14970:15087   */\n    tag_147:\n        /* \"#utility.yul\":15079:15080   */\n      0x00\n        /* \"#utility.yul\":15076:15077   */\n      dup1\n        /* \"#utility.yul\":15069:15081   */\n      revert\n        /* \"#utility.yul\":15093:15210   */\n    tag_136:\n        /* \"#utility.yul\":15202:15203   */\n      0x00\n        /* \"#utility.yul\":15199:15200   */\n      dup1\n        /* \"#utility.yul\":15192:15204   */\n      revert\n        /* \"#utility.yul\":15216:15333   */\n    tag_163:\n        /* \"#utility.yul\":15325:15326   */\n      0x00\n        /* \"#utility.yul\":15322:15323   */\n      dup1\n        /* \"#utility.yul\":15315:15327   */\n      revert\n        /* \"#utility.yul\":15339:15456   */\n    tag_156:\n        /* \"#utility.yul\":15448:15449   */\n      0x00\n        /* \"#utility.yul\":15445:15446   */\n      dup1\n        /* \"#utility.yul\":15438:15450   */\n      revert\n        /* \"#utility.yul\":15462:15564   */\n    tag_188:\n        /* \"#utility.yul\":15503:15509   */\n      0x00\n        /* \"#utility.yul\":15554:15556   */\n      0x1f\n        /* \"#utility.yul\":15550:15557   */\n      not\n        /* \"#utility.yul\":15545:15547   */\n      0x1f\n        /* \"#utility.yul\":15538:15543   */\n      dup4\n        /* \"#utility.yul\":15534:15548   */\n      add\n        /* \"#utility.yul\":15530:15558   */\n      and\n        /* \"#utility.yul\":15520:15558   */\n      swap1\n      pop\n        /* \"#utility.yul\":15462:15564   */\n      swap2\n      swap1\n      pop\n      jump\t// out\n        /* \"#utility.yul\":15570:15740   */\n    tag_199:\n        /* \"#utility.yul\":15710:15732   */\n      0x4e616d652063616e6e6f7420626520656d707479000000000000000000000000\n        /* \"#utility.yul\":15706:15707   */\n      0x00\n        /* \"#utility.yul\":15698:15704   */\n      dup3\n        /* \"#utility.yul\":15694:15708   */\n      add\n        /* \"#utility.yul\":15687:15733   */\n      mstore\n        /* \"#utility.yul\":15570:15740   */\n      pop\n      jump\t// out\n        /* \"#utility.yul\":15746:15913   */\n    tag_204:\n        /* \"#utility.yul\":15886:15905   */\n      0x426f6f6b20697320617661696c61626c65000000000000000000000000000000\n        /* \"#utility.yul\":15882:15883   */\n      0x00\n        /* \"#utility.yul\":15874:15880   */\n      dup3\n        /* \"#utility.yul\":15870:15884   */\n      add\n        /* \"#utility.yul\":15863:15906   */\n      mstore\n        /* \"#utility.yul\":15746:15913   */\n      pop\n      jump\t// out\n        /* \"#utility.yul\":15919:16091   */\n    tag_209:\n        /* \"#utility.yul\":16059:16083   */\n      0x426f6f6b20697320616c72656164792069737375656400000000000000000000\n        /* \"#utility.yul\":16055:16056   */\n      0x00\n        /* \"#utility.yul\":16047:16053   */\n      dup3\n        /* \"#utility.yul\":16043:16057   */\n      add\n        /* \"#utility.yul\":16036:16084   */\n      mstore\n        /* \"#utility.yul\":15919:16091   */\n      pop\n      jump\t// out\n        /* \"#utility.yul\":16097:16322   */\n    tag_214:\n        /* \"#utility.yul\":16237:16271   */\n      0x4f776e61626c653a206e6577206f776e657220697320746865207a65726f2061\n        /* \"#utility.yul\":16233:16234   */\n      0x00\n        /* \"#utility.yul\":16225:16231   */\n      dup3\n        /* \"#utility.yul\":16221:16235   */\n      add\n        /* \"#utility.yul\":16214:16272   */\n      mstore\n        /* \"#utility.yul\":16306:16314   */\n      0x6464726573730000000000000000000000000000000000000000000000000000\n        /* \"#utility.yul\":16301:16303   */\n      0x20\n        /* \"#utility.yul\":16293:16299   */\n      dup3\n        /* \"#utility.yul\":16289:16304   */\n      add\n        /* \"#utility.yul\":16282:16315   */\n      mstore\n        /* \"#utility.yul\":16097:16322   */\n      pop\n      jump\t// out\n        /* \"#utility.yul\":16328:16496   */\n    tag_219:\n        /* \"#utility.yul\":16468:16488   */\n      0x426f6f6b206973206e6f74206973737565640000000000000000000000000000\n        /* \"#utility.yul\":16464:16465   */\n      0x00\n        /* \"#utility.yul\":16456:16462   */\n      dup3\n        /* \"#utility.yul\":16452:16466   */\n      add\n        /* \"#utility.yul\":16445:16489   */\n      mstore\n        /* \"#utility.yul\":16328:16496   */\n      pop\n      jump\t// out\n        /* \"#utility.yul\":16502:16684   */\n    tag_224:\n        /* \"#utility.yul\":16642:16676   */\n      0x4f776e61626c653a2063616c6c6572206973206e6f7420746865206f776e6572\n        /* \"#utility.yul\":16638:16639   */\n      0x00\n        /* \"#utility.yul\":16630:16636   */\n      dup3\n        /* \"#utility.yul\":16626:16640   */\n      add\n        /* \"#utility.yul\":16619:16677   */\n      mstore\n        /* \"#utility.yul\":16502:16684   */\n      pop\n      jump\t// out\n        /* \"#utility.yul\":16690:16845   */\n    tag_229:\n        /* \"#utility.yul\":16830:16837   */\n      0x217a65726f000000000000000000000000000000000000000000000000000000\n        /* \"#utility.yul\":16826:16827   */\n      0x00\n        /* \"#utility.yul\":16818:16824   */\n      dup3\n        /* \"#utility.yul\":16814:16828   */\n      add\n        /* \"#utility.yul\":16807:16838   */\n      mstore\n        /* \"#utility.yul\":16690:16845   */\n      pop\n      jump\t// out\n        /* \"#utility.yul\":16851:17020   */\n    tag_234:\n        /* \"#utility.yul\":16991:17012   */\n      0x426f6f6b20646f6573206e6f7420657869737400000000000000000000000000\n        /* \"#utility.yul\":16987:16988   */\n      0x00\n        /* \"#utility.yul\":16979:16985   */\n      dup3\n        /* \"#utility.yul\":16975:16989   */\n      add\n        /* \"#utility.yul\":16968:17013   */\n      mstore\n        /* \"#utility.yul\":16851:17020   */\n      pop\n      jump\t// out\n        /* \"#utility.yul\":17026:17148   */\n    tag_142:\n        /* \"#utility.yul\":17099:17123   */\n      tag_327\n        /* \"#utility.yul\":17117:17122   */\n      dup2\n        /* \"#utility.yul\":17099:17123   */\n      tag_178\n      jump\t// in\n    tag_327:\n        /* \"#utility.yul\":17092:17097   */\n      dup2\n        /* \"#utility.yul\":17089:17124   */\n      eq\n        /* \"#utility.yul\":17079:17142   */\n      tag_328\n      jumpi\n        /* \"#utility.yul\":17138:17139   */\n      0x00\n        /* \"#utility.yul\":17135:17136   */\n      dup1\n        /* \"#utility.yul\":17128:17140   */\n      revert\n        /* \"#utility.yul\":17079:17142   */\n    tag_328:\n        /* \"#utility.yul\":17026:17148   */\n      pop\n      jump\t// out\n        /* \"#utility.yul\":17154:17276   */\n    tag_152:\n        /* \"#utility.yul\":17227:17251   */\n      tag_330\n        /* \"#utility.yul\":17245:17250   */\n      dup2\n        /* \"#utility.yul\":17227:17251   */\n      tag_238\n      jump\t// in\n    tag_330:\n        /* \"#utility.yul\":17220:17225   */\n      dup2\n        /* \"#utility.yul\":17217:17252   */\n      eq\n        /* \"#utility.yul\":17207:17270   */\n      tag_331\n      jumpi\n        /* \"#utility.yul\":17266:17267   */\n      0x00\n        /* \"#utility.yul\":17263:17264   */\n      dup1\n        /* \"#utility.yul\":17256:17268   */\n      revert\n        /* \"#utility.yul\":17207:17270   */\n    tag_331:\n        /* \"#utility.yul\":17154:17276   */\n      pop\n      jump\t// out\n\n    auxdata: 0xa2646970667358221220c5b6d30b21028d5936633b8d8ed735c1fcaef75f758dc6fe874bbd2fd995c46564736f6c63430008070033\n}\n",
				"bytecode": {
					"linkReferences": {},
					"object": "608060405234801561001057600080fd5b5061002d61002261003260201b60201c565b61003a60201b60201c565b6100fe565b600033905090565b60008060009054906101000a900473ffffffffffffffffffffffffffffffffffffffff169050816000806101000a81548173ffffffffffffffffffffffffffffffffffffffff021916908373ffffffffffffffffffffffffffffffffffffffff1602179055508173ffffffffffffffffffffffffffffffffffffffff168173ffffffffffffffffffffffffffffffffffffffff167f8be0079c531659141344cd1fd0a4f28419497f9722a3daafe3b4186f6b6457e060405160405180910390a35050565b6113448061010d6000396000f3fe608060405234801561001057600080fd5b50600436106100935760003560e01c80637e490a9e116100665780637e490a9e1461010c5780638da5cb5b14610128578063b905ad7814610146578063ca5140c914610164578063f2fde38b1461018057610093565b806360f9eefc14610098578063637a3872146100b4578063715018a6146100d05780637975c6b4146100da575b600080fd5b6100b260048036038101906100ad9190610b6d565b61019c565b005b6100ce60048036038101906100c99190610ae4565b61027a565b005b6100d86103bf565b005b6100f460048036038101906100ef9190610b40565b6103d3565b60405161010393929190610d7f565b60405180910390f35b61012660048036038101906101219190610b40565b610485565b005b610130610643565b60405161013d9190610d64565b60405180910390f35b61014e61066c565b60405161015b9190610ebd565b60405180910390f35b61017e60048036038101906101799190610b40565b610672565b005b61019a60048036038101906101959190610ab7565b6107ac565b005b6101a4610830565b600081116101e7576040517f08c379a00000000000000000000000000000000000000000000000000000000081526004016101de90610e7d565b60405180910390fd5b6000600760008481526020019081526020016000209050600081600001805461020f9061105d565b90501415610252576040517f08c379a000000000000000000000000000000000000000000000000000000000815260040161024990610e9d565b60405180910390fd5b60018160010160008282546102679190610f55565b9250508190558160010181905550505050565b610282610830565b816006816040516102939190610d4d565b908152602001604051809103902060009054906101000a900460ff16156102ef576040517f08c379a00000000000000000000000000000000000000000000000000000000081526004016102e690610ddd565b60405180910390fd5b600083511415610334576040517f08c379a000000000000000000000000000000000000000000000000000000000815260040161032b90610dbd565b60405180910390fd5b60016006846040516103469190610d4d565b908152602001604051809103902060006101000a81548160ff021916908315150217905550600060018361037a9190610f55565b92508290506000600760008381526020019081526020016000209050848160000190805190602001906103ae92919061097a565b508381600101819055505050505050565b6103c7610830565b6103d160006108ae565b565b60076020528060005260406000206000915090508060000180546103f69061105d565b80601f01602080910402602001604051908101604052809291908181526020018280546104229061105d565b801561046f5780601f106104445761010080835404028352916020019161046f565b820191906000526020600020905b81548152906001019060200180831161045257829003601f168201915b5050505050908060010154908060020154905083565b600860003373ffffffffffffffffffffffffffffffffffffffff1673ffffffffffffffffffffffffffffffffffffffff168152602001908152602001600020600082815260200190815260200160002060009054906101000a900460ff1615610523576040517f08c379a000000000000000000000000000000000000000000000000000000000815260040161051a90610dfd565b60405180910390fd5b6001600860003373ffffffffffffffffffffffffffffffffffffffff1673ffffffffffffffffffffffffffffffffffffffff168152602001908152602001600020600083815260200190815260200160002060006101000a81548160ff02191690831515021790555060006007600083815260200190815260200160002090506001816001015410156105b557600080fd5b600181600101546105c69190610fab565b8160010181905550338160030160008360020154815260200190815260200160002060006101000a81548173ffffffffffffffffffffffffffffffffffffffff021916908373ffffffffffffffffffffffffffffffffffffffff160217905550600181600201546106379190610f55565b81600201819055505050565b60008060009054906101000a900473ffffffffffffffffffffffffffffffffffffffff16905090565b60055481565b600860003373ffffffffffffffffffffffffffffffffffffffff1673ffffffffffffffffffffffffffffffffffffffff168152602001908152602001600020600082815260200190815260200160002060009054906101000a900460ff1661070f576040517f08c379a000000000000000000000000000000000000000000000000000000000815260040161070690610e3d565b60405180910390fd5b6000600760008381526020019081526020016000209050600181600101546107379190610f55565b81600101819055506000600860003373ffffffffffffffffffffffffffffffffffffffff1673ffffffffffffffffffffffffffffffffffffffff168152602001908152602001600020600084815260200190815260200160002060006101000a81548160ff0219169083151502179055505050565b6107b4610830565b600073ffffffffffffffffffffffffffffffffffffffff168173ffffffffffffffffffffffffffffffffffffffff161415610824576040517f08c379a000000000000000000000000000000000000000000000000000000000815260040161081b90610e1d565b60405180910390fd5b61082d816108ae565b50565b610838610972565b73ffffffffffffffffffffffffffffffffffffffff16610856610643565b73ffffffffffffffffffffffffffffffffffffffff16146108ac576040517f08c379a00000000000000000000000000000000000000000000000000000000081526004016108a390610e5d565b60405180910390fd5b565b60008060009054906101000a900473ffffffffffffffffffffffffffffffffffffffff169050816000806101000a81548173ffffffffffffffffffffffffffffffffffffffff021916908373ffffffffffffffffffffffffffffffffffffffff1602179055508173ffffffffffffffffffffffffffffffffffffffff168173ffffffffffffffffffffffffffffffffffffffff167f8be0079c531659141344cd1fd0a4f28419497f9722a3daafe3b4186f6b6457e060405160405180910390a35050565b600033905090565b8280546109869061105d565b90600052602060002090601f0160209004810192826109a857600085556109ef565b82601f106109c157805160ff19168380011785556109ef565b828001600101855582156109ef579182015b828111156109ee5782518255916020019190600101906109d3565b5b5090506109fc9190610a00565b5090565b5b80821115610a19576000816000905550600101610a01565b5090565b6000610a30610a2b84610efd565b610ed8565b905082815260208101848484011115610a4c57610a4b611152565b5b610a5784828561101b565b509392505050565b600081359050610a6e816112e0565b92915050565b600082601f830112610a8957610a8861114d565b5b8135610a99848260208601610a1d565b91505092915050565b600081359050610ab1816112f7565b92915050565b600060208284031215610acd57610acc61115c565b5b6000610adb84828501610a5f565b91505092915050565b60008060408385031215610afb57610afa61115c565b5b600083013567ffffffffffffffff811115610b1957610b18611157565b5b610b2585828601610a74565b9250506020610b3685828601610aa2565b9150509250929050565b600060208284031215610b5657610b5561115c565b5b6000610b6484828501610aa2565b91505092915050565b60008060408385031215610b8457610b8361115c565b5b6000610b9285828601610aa2565b9250506020610ba385828601610aa2565b9150509250929050565b610bb681610fdf565b82525050565b6000610bc782610f2e565b610bd18185610f39565b9350610be181856020860161102a565b610bea81611161565b840191505092915050565b6000610c0082610f2e565b610c0a8185610f4a565b9350610c1a81856020860161102a565b80840191505092915050565b6000610c33601483610f39565b9150610c3e82611172565b602082019050919050565b6000610c56601183610f39565b9150610c618261119b565b602082019050919050565b6000610c79601683610f39565b9150610c84826111c4565b602082019050919050565b6000610c9c602683610f39565b9150610ca7826111ed565b604082019050919050565b6000610cbf601283610f39565b9150610cca8261123c565b602082019050919050565b6000610ce2602083610f39565b9150610ced82611265565b602082019050919050565b6000610d05600583610f39565b9150610d108261128e565b602082019050919050565b6000610d28601383610f39565b9150610d33826112b7565b602082019050919050565b610d4781611011565b82525050565b6000610d598284610bf5565b915081905092915050565b6000602082019050610d796000830184610bad565b92915050565b60006060820190508181036000830152610d998186610bbc565b9050610da86020830185610d3e565b610db56040830184610d3e565b949350505050565b60006020820190508181036000830152610dd681610c26565b9050919050565b60006020820190508181036000830152610df681610c49565b9050919050565b60006020820190508181036000830152610e1681610c6c565b9050919050565b60006020820190508181036000830152610e3681610c8f565b9050919050565b60006020820190508181036000830152610e5681610cb2565b9050919050565b60006020820190508181036000830152610e7681610cd5565b9050919050565b60006020820190508181036000830152610e9681610cf8565b9050919050565b60006020820190508181036000830152610eb681610d1b565b9050919050565b6000602082019050610ed26000830184610d3e565b92915050565b6000610ee2610ef3565b9050610eee828261108f565b919050565b6000604051905090565b600067ffffffffffffffff821115610f1857610f1761111e565b5b610f2182611161565b9050602081019050919050565b600081519050919050565b600082825260208201905092915050565b600081905092915050565b6000610f6082611011565b9150610f6b83611011565b9250827fffffffffffffffffffffffffffffffffffffffffffffffffffffffffffffffff03821115610fa057610f9f6110c0565b5b828201905092915050565b6000610fb682611011565b9150610fc183611011565b925082821015610fd457610fd36110c0565b5b828203905092915050565b6000610fea82610ff1565b9050919050565b600073ffffffffffffffffffffffffffffffffffffffff82169050919050565b6000819050919050565b82818337600083830152505050565b60005b8381101561104857808201518184015260208101905061102d565b83811115611057576000848401525b50505050565b6000600282049050600182168061107557607f821691505b60208210811415611089576110886110ef565b5b50919050565b61109882611161565b810181811067ffffffffffffffff821117156110b7576110b661111e565b5b80604052505050565b7f4e487b7100000000000000000000000000000000000000000000000000000000600052601160045260246000fd5b7f4e487b7100000000000000000000000000000000000000000000000000000000600052602260045260246000fd5b7f4e487b7100000000000000000000000000000000000000000000000000000000600052604160045260246000fd5b600080fd5b600080fd5b600080fd5b600080fd5b6000601f19601f8301169050919050565b7f4e616d652063616e6e6f7420626520656d707479000000000000000000000000600082015250565b7f426f6f6b20697320617661696c61626c65000000000000000000000000000000600082015250565b7f426f6f6b20697320616c72656164792069737375656400000000000000000000600082015250565b7f4f776e61626c653a206e6577206f776e657220697320746865207a65726f206160008201527f6464726573730000000000000000000000000000000000000000000000000000602082015250565b7f426f6f6b206973206e6f74206973737565640000000000000000000000000000600082015250565b7f4f776e61626c653a2063616c6c6572206973206e6f7420746865206f776e6572600082015250565b7f217a65726f000000000000000000000000000000000000000000000000000000600082015250565b7f426f6f6b20646f6573206e6f7420657869737400000000000000000000000000600082015250565b6112e981610fdf565b81146112f457600080fd5b50565b61130081611011565b811461130b57600080fd5b5056fea2646970667358221220c5b6d30b21028d5936633b8d8ed735c1fcaef75f758dc6fe874bbd2fd995c46564736f6c63430008070033",
					"opcodes": "PUSH1 0x80 PUSH1 0x40 MSTORE CALLVALUE DUP1 ISZERO PUSH2 0x10 JUMPI PUSH1 0x0 DUP1 REVERT JUMPDEST POP PUSH2 0x2D PUSH2 0x22 PUSH2 0x32 PUSH1 0x20 SHL PUSH1 0x20 SHR JUMP JUMPDEST PUSH2 0x3A PUSH1 0x20 SHL PUSH1 0x20 SHR JUMP JUMPDEST PUSH2 0xFE JUMP JUMPDEST PUSH1 0x0 CALLER SWAP1 POP SWAP1 JUMP JUMPDEST PUSH1 0x0 DUP1 PUSH1 0x0 SWAP1 SLOAD SWAP1 PUSH2 0x100 EXP SWAP1 DIV PUSH20 0xFFFFFFFFFFFFFFFFFFFFFFFFFFFFFFFFFFFFFFFF AND SWAP1 POP DUP2 PUSH1 0x0 DUP1 PUSH2 0x100 EXP DUP2 SLOAD DUP2 PUSH20 0xFFFFFFFFFFFFFFFFFFFFFFFFFFFFFFFFFFFFFFFF MUL NOT AND SWAP1 DUP4 PUSH20 0xFFFFFFFFFFFFFFFFFFFFFFFFFFFFFFFFFFFFFFFF AND MUL OR SWAP1 SSTORE POP DUP2 PUSH20 0xFFFFFFFFFFFFFFFFFFFFFFFFFFFFFFFFFFFFFFFF AND DUP2 PUSH20 0xFFFFFFFFFFFFFFFFFFFFFFFFFFFFFFFFFFFFFFFF AND PUSH32 0x8BE0079C531659141344CD1FD0A4F28419497F9722A3DAAFE3B4186F6B6457E0 PUSH1 0x40 MLOAD PUSH1 0x40 MLOAD DUP1 SWAP2 SUB SWAP1 LOG3 POP POP JUMP JUMPDEST PUSH2 0x1344 DUP1 PUSH2 0x10D PUSH1 0x0 CODECOPY PUSH1 0x0 RETURN INVALID PUSH1 0x80 PUSH1 0x40 MSTORE CALLVALUE DUP1 ISZERO PUSH2 0x10 JUMPI PUSH1 0x0 DUP1 REVERT JUMPDEST POP PUSH1 0x4 CALLDATASIZE LT PUSH2 0x93 JUMPI PUSH1 0x0 CALLDATALOAD PUSH1 0xE0 SHR DUP1 PUSH4 0x7E490A9E GT PUSH2 0x66 JUMPI DUP1 PUSH4 0x7E490A9E EQ PUSH2 0x10C JUMPI DUP1 PUSH4 0x8DA5CB5B EQ PUSH2 0x128 JUMPI DUP1 PUSH4 0xB905AD78 EQ PUSH2 0x146 JUMPI DUP1 PUSH4 0xCA5140C9 EQ PUSH2 0x164 JUMPI DUP1 PUSH4 0xF2FDE38B EQ PUSH2 0x180 JUMPI PUSH2 0x93 JUMP JUMPDEST DUP1 PUSH4 0x60F9EEFC EQ PUSH2 0x98 JUMPI DUP1 PUSH4 0x637A3872 EQ PUSH2 0xB4 JUMPI DUP1 PUSH4 0x715018A6 EQ PUSH2 0xD0 JUMPI DUP1 PUSH4 0x7975C6B4 EQ PUSH2 0xDA JUMPI JUMPDEST PUSH1 0x0 DUP1 REVERT JUMPDEST PUSH2 0xB2 PUSH1 0x4 DUP1 CALLDATASIZE SUB DUP2 ADD SWAP1 PUSH2 0xAD SWAP2 SWAP1 PUSH2 0xB6D JUMP JUMPDEST PUSH2 0x19C JUMP JUMPDEST STOP JUMPDEST PUSH2 0xCE PUSH1 0x4 DUP1 CALLDATASIZE SUB DUP2 ADD SWAP1 PUSH2 0xC9 SWAP2 SWAP1 PUSH2 0xAE4 JUMP JUMPDEST PUSH2 0x27A JUMP JUMPDEST STOP JUMPDEST PUSH2 0xD8 PUSH2 0x3BF JUMP JUMPDEST STOP JUMPDEST PUSH2 0xF4 PUSH1 0x4 DUP1 CALLDATASIZE SUB DUP2 ADD SWAP1 PUSH2 0xEF SWAP2 SWAP1 PUSH2 0xB40 JUMP JUMPDEST PUSH2 0x3D3 JUMP JUMPDEST PUSH1 0x40 MLOAD PUSH2 0x103 SWAP4 SWAP3 SWAP2 SWAP1 PUSH2 0xD7F JUMP JUMPDEST PUSH1 0x40 MLOAD DUP1 SWAP2 SUB SWAP1 RETURN JUMPDEST PUSH2 0x126 PUSH1 0x4 DUP1 CALLDATASIZE SUB DUP2 ADD SWAP1 PUSH2 0x121 SWAP2 SWAP1 PUSH2 0xB40 JUMP JUMPDEST PUSH2 0x485 JUMP JUMPDEST STOP JUMPDEST PUSH2 0x130 PUSH2 0x643 JUMP JUMPDEST PUSH1 0x40 MLOAD PUSH2 0x13D SWAP2 SWAP1 PUSH2 0xD64 JUMP JUMPDEST PUSH1 0x40 MLOAD DUP1 SWAP2 SUB SWAP1 RETURN JUMPDEST PUSH2 0x14E PUSH2 0x66C JUMP JUMPDEST PUSH1 0x40 MLOAD PUSH2 0x15B SWAP2 SWAP1 PUSH2 0xEBD JUMP JUMPDEST PUSH1 0x40 MLOAD DUP1 SWAP2 SUB SWAP1 RETURN JUMPDEST PUSH2 0x17E PUSH1 0x4 DUP1 CALLDATASIZE SUB DUP2 ADD SWAP1 PUSH2 0x179 SWAP2 SWAP1 PUSH2 0xB40 JUMP JUMPDEST PUSH2 0x672 JUMP JUMPDEST STOP JUMPDEST PUSH2 0x19A PUSH1 0x4 DUP1 CALLDATASIZE SUB DUP2 ADD SWAP1 PUSH2 0x195 SWAP2 SWAP1 PUSH2 0xAB7 JUMP JUMPDEST PUSH2 0x7AC JUMP JUMPDEST STOP JUMPDEST PUSH2 0x1A4 PUSH2 0x830 JUMP JUMPDEST PUSH1 0x0 DUP2 GT PUSH2 0x1E7 JUMPI PUSH1 0x40 MLOAD PUSH32 0x8C379A000000000000000000000000000000000000000000000000000000000 DUP2 MSTORE PUSH1 0x4 ADD PUSH2 0x1DE SWAP1 PUSH2 0xE7D JUMP JUMPDEST PUSH1 0x40 MLOAD DUP1 SWAP2 SUB SWAP1 REVERT JUMPDEST PUSH1 0x0 PUSH1 0x7 PUSH1 0x0 DUP5 DUP2 MSTORE PUSH1 0x20 ADD SWAP1 DUP2 MSTORE PUSH1 0x20 ADD PUSH1 0x0 KECCAK256 SWAP1 POP PUSH1 0x0 DUP2 PUSH1 0x0 ADD DUP1 SLOAD PUSH2 0x20F SWAP1 PUSH2 0x105D JUMP JUMPDEST SWAP1 POP EQ ISZERO PUSH2 0x252 JUMPI PUSH1 0x40 MLOAD PUSH32 0x8C379A000000000000000000000000000000000000000000000000000000000 DUP2 MSTORE PUSH1 0x4 ADD PUSH2 0x249 SWAP1 PUSH2 0xE9D JUMP JUMPDEST PUSH1 0x40 MLOAD DUP1 SWAP2 SUB SWAP1 REVERT JUMPDEST PUSH1 0x1 DUP2 PUSH1 0x1 ADD PUSH1 0x0 DUP3 DUP3 SLOAD PUSH2 0x267 SWAP2 SWAP1 PUSH2 0xF55 JUMP JUMPDEST SWAP3 POP POP DUP2 SWAP1 SSTORE DUP2 PUSH1 0x1 ADD DUP2 SWAP1 SSTORE POP POP POP POP JUMP JUMPDEST PUSH2 0x282 PUSH2 0x830 JUMP JUMPDEST DUP2 PUSH1 0x6 DUP2 PUSH1 0x40 MLOAD PUSH2 0x293 SWAP2 SWAP1 PUSH2 0xD4D JUMP JUMPDEST SWAP1 DUP2 MSTORE PUSH1 0x20 ADD PUSH1 0x40 MLOAD DUP1 SWAP2 SUB SWAP1 KECCAK256 PUSH1 0x0 SWAP1 SLOAD SWAP1 PUSH2 0x100 EXP SWAP1 DIV PUSH1 0xFF AND ISZERO PUSH2 0x2EF JUMPI PUSH1 0x40 MLOAD PUSH32 0x8C379A000000000000000000000000000000000000000000000000000000000 DUP2 MSTORE PUSH1 0x4 ADD PUSH2 0x2E6 SWAP1 PUSH2 0xDDD JUMP JUMPDEST PUSH1 0x40 MLOAD DUP1 SWAP2 SUB SWAP1 REVERT JUMPDEST PUSH1 0x0 DUP4 MLOAD EQ ISZERO PUSH2 0x334 JUMPI PUSH1 0x40 MLOAD PUSH32 0x8C379A000000000000000000000000000000000000000000000000000000000 DUP2 MSTORE PUSH1 0x4 ADD PUSH2 0x32B SWAP1 PUSH2 0xDBD JUMP JUMPDEST PUSH1 0x40 MLOAD DUP1 SWAP2 SUB SWAP1 REVERT JUMPDEST PUSH1 0x1 PUSH1 0x6 DUP5 PUSH1 0x40 MLOAD PUSH2 0x346 SWAP2 SWAP1 PUSH2 0xD4D JUMP JUMPDEST SWAP1 DUP2 MSTORE PUSH1 0x20 ADD PUSH1 0x40 MLOAD DUP1 SWAP2 SUB SWAP1 KECCAK256 PUSH1 0x0 PUSH2 0x100 EXP DUP2 SLOAD DUP2 PUSH1 0xFF MUL NOT AND SWAP1 DUP4 ISZERO ISZERO MUL OR SWAP1 SSTORE POP PUSH1 0x0 PUSH1 0x1 DUP4 PUSH2 0x37A SWAP2 SWAP1 PUSH2 0xF55 JUMP JUMPDEST SWAP3 POP DUP3 SWAP1 POP PUSH1 0x0 PUSH1 0x7 PUSH1 0x0 DUP4 DUP2 MSTORE PUSH1 0x20 ADD SWAP1 DUP2 MSTORE PUSH1 0x20 ADD PUSH1 0x0 KECCAK256 SWAP1 POP DUP5 DUP2 PUSH1 0x0 ADD SWAP1 DUP1 MLOAD SWAP1 PUSH1 0x20 ADD SWAP1 PUSH2 0x3AE SWAP3 SWAP2 SWAP1 PUSH2 0x97A JUMP JUMPDEST POP DUP4 DUP2 PUSH1 0x1 ADD DUP2 SWAP1 SSTORE POP POP POP POP POP POP JUMP JUMPDEST PUSH2 0x3C7 PUSH2 0x830 JUMP JUMPDEST PUSH2 0x3D1 PUSH1 0x0 PUSH2 0x8AE JUMP JUMPDEST JUMP JUMPDEST PUSH1 0x7 PUSH1 0x20 MSTORE DUP1 PUSH1 0x0 MSTORE PUSH1 0x40 PUSH1 0x0 KECCAK256 PUSH1 0x0 SWAP2 POP SWAP1 POP DUP1 PUSH1 0x0 ADD DUP1 SLOAD PUSH2 0x3F6 SWAP1 PUSH2 0x105D JUMP JUMPDEST DUP1 PUSH1 0x1F ADD PUSH1 0x20 DUP1 SWAP2 DIV MUL PUSH1 0x20 ADD PUSH1 0x40 MLOAD SWAP1 DUP2 ADD PUSH1 0x40 MSTORE DUP1 SWAP3 SWAP2 SWAP1 DUP2 DUP2 MSTORE PUSH1 0x20 ADD DUP3 DUP1 SLOAD PUSH2 0x422 SWAP1 PUSH2 0x105D JUMP JUMPDEST DUP1 ISZERO PUSH2 0x46F JUMPI DUP1 PUSH1 0x1F LT PUSH2 0x444 JUMPI PUSH2 0x100 DUP1 DUP4 SLOAD DIV MUL DUP4 MSTORE SWAP2 PUSH1 0x20 ADD SWAP2 PUSH2 0x46F JUMP JUMPDEST DUP3 ADD SWAP2 SWAP1 PUSH1 0x0 MSTORE PUSH1 0x20 PUSH1 0x0 KECCAK256 SWAP1 JUMPDEST DUP2 SLOAD DUP2 MSTORE SWAP1 PUSH1 0x1 ADD SWAP1 PUSH1 0x20 ADD DUP1 DUP4 GT PUSH2 0x452 JUMPI DUP3 SWAP1 SUB PUSH1 0x1F AND DUP3 ADD SWAP2 JUMPDEST POP POP POP POP POP SWAP1 DUP1 PUSH1 0x1 ADD SLOAD SWAP1 DUP1 PUSH1 0x2 ADD SLOAD SWAP1 POP DUP4 JUMP JUMPDEST PUSH1 0x8 PUSH1 0x0 CALLER PUSH20 0xFFFFFFFFFFFFFFFFFFFFFFFFFFFFFFFFFFFFFFFF AND PUSH20 0xFFFFFFFFFFFFFFFFFFFFFFFFFFFFFFFFFFFFFFFF AND DUP2 MSTORE PUSH1 0x20 ADD SWAP1 DUP2 MSTORE PUSH1 0x20 ADD PUSH1 0x0 KECCAK256 PUSH1 0x0 DUP3 DUP2 MSTORE PUSH1 0x20 ADD SWAP1 DUP2 MSTORE PUSH1 0x20 ADD PUSH1 0x0 KECCAK256 PUSH1 0x0 SWAP1 SLOAD SWAP1 PUSH2 0x100 EXP SWAP1 DIV PUSH1 0xFF AND ISZERO PUSH2 0x523 JUMPI PUSH1 0x40 MLOAD PUSH32 0x8C379A000000000000000000000000000000000000000000000000000000000 DUP2 MSTORE PUSH1 0x4 ADD PUSH2 0x51A SWAP1 PUSH2 0xDFD JUMP JUMPDEST PUSH1 0x40 MLOAD DUP1 SWAP2 SUB SWAP1 REVERT JUMPDEST PUSH1 0x1 PUSH1 0x8 PUSH1 0x0 CALLER PUSH20 0xFFFFFFFFFFFFFFFFFFFFFFFFFFFFFFFFFFFFFFFF AND PUSH20 0xFFFFFFFFFFFFFFFFFFFFFFFFFFFFFFFFFFFFFFFF AND DUP2 MSTORE PUSH1 0x20 ADD SWAP1 DUP2 MSTORE PUSH1 0x20 ADD PUSH1 0x0 KECCAK256 PUSH1 0x0 DUP4 DUP2 MSTORE PUSH1 0x20 ADD SWAP1 DUP2 MSTORE PUSH1 0x20 ADD PUSH1 0x0 KECCAK256 PUSH1 0x0 PUSH2 0x100 EXP DUP2 SLOAD DUP2 PUSH1 0xFF MUL NOT AND SWAP1 DUP4 ISZERO ISZERO MUL OR SWAP1 SSTORE POP PUSH1 0x0 PUSH1 0x7 PUSH1 0x0 DUP4 DUP2 MSTORE PUSH1 0x20 ADD SWAP1 DUP2 MSTORE PUSH1 0x20 ADD PUSH1 0x0 KECCAK256 SWAP1 POP PUSH1 0x1 DUP2 PUSH1 0x1 ADD SLOAD LT ISZERO PUSH2 0x5B5 JUMPI PUSH1 0x0 DUP1 REVERT JUMPDEST PUSH1 0x1 DUP2 PUSH1 0x1 ADD SLOAD PUSH2 0x5C6 SWAP2 SWAP1 PUSH2 0xFAB JUMP JUMPDEST DUP2 PUSH1 0x1 ADD DUP2 SWAP1 SSTORE POP CALLER DUP2 PUSH1 0x3 ADD PUSH1 0x0 DUP4 PUSH1 0x2 ADD SLOAD DUP2 MSTORE PUSH1 0x20 ADD SWAP1 DUP2 MSTORE PUSH1 0x20 ADD PUSH1 0x0 KECCAK256 PUSH1 0x0 PUSH2 0x100 EXP DUP2 SLOAD DUP2 PUSH20 0xFFFFFFFFFFFFFFFFFFFFFFFFFFFFFFFFFFFFFFFF MUL NOT AND SWAP1 DUP4 PUSH20 0xFFFFFFFFFFFFFFFFFFFFFFFFFFFFFFFFFFFFFFFF AND MUL OR SWAP1 SSTORE POP PUSH1 0x1 DUP2 PUSH1 0x2 ADD SLOAD PUSH2 0x637 SWAP2 SWAP1 PUSH2 0xF55 JUMP JUMPDEST DUP2 PUSH1 0x2 ADD DUP2 SWAP1 SSTORE POP POP POP JUMP JUMPDEST PUSH1 0x0 DUP1 PUSH1 0x0 SWAP1 SLOAD SWAP1 PUSH2 0x100 EXP SWAP1 DIV PUSH20 0xFFFFFFFFFFFFFFFFFFFFFFFFFFFFFFFFFFFFFFFF AND SWAP1 POP SWAP1 JUMP JUMPDEST PUSH1 0x5 SLOAD DUP2 JUMP JUMPDEST PUSH1 0x8 PUSH1 0x0 CALLER PUSH20 0xFFFFFFFFFFFFFFFFFFFFFFFFFFFFFFFFFFFFFFFF AND PUSH20 0xFFFFFFFFFFFFFFFFFFFFFFFFFFFFFFFFFFFFFFFF AND DUP2 MSTORE PUSH1 0x20 ADD SWAP1 DUP2 MSTORE PUSH1 0x20 ADD PUSH1 0x0 KECCAK256 PUSH1 0x0 DUP3 DUP2 MSTORE PUSH1 0x20 ADD SWAP1 DUP2 MSTORE PUSH1 0x20 ADD PUSH1 0x0 KECCAK256 PUSH1 0x0 SWAP1 SLOAD SWAP1 PUSH2 0x100 EXP SWAP1 DIV PUSH1 0xFF AND PUSH2 0x70F JUMPI PUSH1 0x40 MLOAD PUSH32 0x8C379A000000000000000000000000000000000000000000000000000000000 DUP2 MSTORE PUSH1 0x4 ADD PUSH2 0x706 SWAP1 PUSH2 0xE3D JUMP JUMPDEST PUSH1 0x40 MLOAD DUP1 SWAP2 SUB SWAP1 REVERT JUMPDEST PUSH1 0x0 PUSH1 0x7 PUSH1 0x0 DUP4 DUP2 MSTORE PUSH1 0x20 ADD SWAP1 DUP2 MSTORE PUSH1 0x20 ADD PUSH1 0x0 KECCAK256 SWAP1 POP PUSH1 0x1 DUP2 PUSH1 0x1 ADD SLOAD PUSH2 0x737 SWAP2 SWAP1 PUSH2 0xF55 JUMP JUMPDEST DUP2 PUSH1 0x1 ADD DUP2 SWAP1 SSTORE POP PUSH1 0x0 PUSH1 0x8 PUSH1 0x0 CALLER PUSH20 0xFFFFFFFFFFFFFFFFFFFFFFFFFFFFFFFFFFFFFFFF AND PUSH20 0xFFFFFFFFFFFFFFFFFFFFFFFFFFFFFFFFFFFFFFFF AND DUP2 MSTORE PUSH1 0x20 ADD SWAP1 DUP2 MSTORE PUSH1 0x20 ADD PUSH1 0x0 KECCAK256 PUSH1 0x0 DUP5 DUP2 MSTORE PUSH1 0x20 ADD SWAP1 DUP2 MSTORE PUSH1 0x20 ADD PUSH1 0x0 KECCAK256 PUSH1 0x0 PUSH2 0x100 EXP DUP2 SLOAD DUP2 PUSH1 0xFF MUL NOT AND SWAP1 DUP4 ISZERO ISZERO MUL OR SWAP1 SSTORE POP POP POP JUMP JUMPDEST PUSH2 0x7B4 PUSH2 0x830 JUMP JUMPDEST PUSH1 0x0 PUSH20 0xFFFFFFFFFFFFFFFFFFFFFFFFFFFFFFFFFFFFFFFF AND DUP2 PUSH20 0xFFFFFFFFFFFFFFFFFFFFFFFFFFFFFFFFFFFFFFFF AND EQ ISZERO PUSH2 0x824 JUMPI PUSH1 0x40 MLOAD PUSH32 0x8C379A000000000000000000000000000000000000000000000000000000000 DUP2 MSTORE PUSH1 0x4 ADD PUSH2 0x81B SWAP1 PUSH2 0xE1D JUMP JUMPDEST PUSH1 0x40 MLOAD DUP1 SWAP2 SUB SWAP1 REVERT JUMPDEST PUSH2 0x82D DUP2 PUSH2 0x8AE JUMP JUMPDEST POP JUMP JUMPDEST PUSH2 0x838 PUSH2 0x972 JUMP JUMPDEST PUSH20 0xFFFFFFFFFFFFFFFFFFFFFFFFFFFFFFFFFFFFFFFF AND PUSH2 0x856 PUSH2 0x643 JUMP JUMPDEST PUSH20 0xFFFFFFFFFFFFFFFFFFFFFFFFFFFFFFFFFFFFFFFF AND EQ PUSH2 0x8AC JUMPI PUSH1 0x40 MLOAD PUSH32 0x8C379A000000000000000000000000000000000000000000000000000000000 DUP2 MSTORE PUSH1 0x4 ADD PUSH2 0x8A3 SWAP1 PUSH2 0xE5D JUMP JUMPDEST PUSH1 0x40 MLOAD DUP1 SWAP2 SUB SWAP1 REVERT JUMPDEST JUMP JUMPDEST PUSH1 0x0 DUP1 PUSH1 0x0 SWAP1 SLOAD SWAP1 PUSH2 0x100 EXP SWAP1 DIV PUSH20 0xFFFFFFFFFFFFFFFFFFFFFFFFFFFFFFFFFFFFFFFF AND SWAP1 POP DUP2 PUSH1 0x0 DUP1 PUSH2 0x100 EXP DUP2 SLOAD DUP2 PUSH20 0xFFFFFFFFFFFFFFFFFFFFFFFFFFFFFFFFFFFFFFFF MUL NOT AND SWAP1 DUP4 PUSH20 0xFFFFFFFFFFFFFFFFFFFFFFFFFFFFFFFFFFFFFFFF AND MUL OR SWAP1 SSTORE POP DUP2 PUSH20 0xFFFFFFFFFFFFFFFFFFFFFFFFFFFFFFFFFFFFFFFF AND DUP2 PUSH20 0xFFFFFFFFFFFFFFFFFFFFFFFFFFFFFFFFFFFFFFFF AND PUSH32 0x8BE0079C531659141344CD1FD0A4F28419497F9722A3DAAFE3B4186F6B6457E0 PUSH1 0x40 MLOAD PUSH1 0x40 MLOAD DUP1 SWAP2 SUB SWAP1 LOG3 POP POP JUMP JUMPDEST PUSH1 0x0 CALLER SWAP1 POP SWAP1 JUMP JUMPDEST DUP3 DUP1 SLOAD PUSH2 0x986 SWAP1 PUSH2 0x105D JUMP JUMPDEST SWAP1 PUSH1 0x0 MSTORE PUSH1 0x20 PUSH1 0x0 KECCAK256 SWAP1 PUSH1 0x1F ADD PUSH1 0x20 SWAP1 DIV DUP2 ADD SWAP3 DUP3 PUSH2 0x9A8 JUMPI PUSH1 0x0 DUP6 SSTORE PUSH2 0x9EF JUMP JUMPDEST DUP3 PUSH1 0x1F LT PUSH2 0x9C1 JUMPI DUP1 MLOAD PUSH1 0xFF NOT AND DUP4 DUP1 ADD OR DUP6 SSTORE PUSH2 0x9EF JUMP JUMPDEST DUP3 DUP1 ADD PUSH1 0x1 ADD DUP6 SSTORE DUP3 ISZERO PUSH2 0x9EF JUMPI SWAP2 DUP3 ADD JUMPDEST DUP3 DUP2 GT ISZERO PUSH2 0x9EE JUMPI DUP3 MLOAD DUP3 SSTORE SWAP2 PUSH1 0x20 ADD SWAP2 SWAP1 PUSH1 0x1 ADD SWAP1 PUSH2 0x9D3 JUMP JUMPDEST JUMPDEST POP SWAP1 POP PUSH2 0x9FC SWAP2 SWAP1 PUSH2 0xA00 JUMP JUMPDEST POP SWAP1 JUMP JUMPDEST JUMPDEST DUP1 DUP3 GT ISZERO PUSH2 0xA19 JUMPI PUSH1 0x0 DUP2 PUSH1 0x0 SWAP1 SSTORE POP PUSH1 0x1 ADD PUSH2 0xA01 JUMP JUMPDEST POP SWAP1 JUMP JUMPDEST PUSH1 0x0 PUSH2 0xA30 PUSH2 0xA2B DUP5 PUSH2 0xEFD JUMP JUMPDEST PUSH2 0xED8 JUMP JUMPDEST SWAP1 POP DUP3 DUP2 MSTORE PUSH1 0x20 DUP2 ADD DUP5 DUP5 DUP5 ADD GT ISZERO PUSH2 0xA4C JUMPI PUSH2 0xA4B PUSH2 0x1152 JUMP JUMPDEST JUMPDEST PUSH2 0xA57 DUP5 DUP3 DUP6 PUSH2 0x101B JUMP JUMPDEST POP SWAP4 SWAP3 POP POP POP JUMP JUMPDEST PUSH1 0x0 DUP2 CALLDATALOAD SWAP1 POP PUSH2 0xA6E DUP2 PUSH2 0x12E0 JUMP JUMPDEST SWAP3 SWAP2 POP POP JUMP JUMPDEST PUSH1 0x0 DUP3 PUSH1 0x1F DUP4 ADD SLT PUSH2 0xA89 JUMPI PUSH2 0xA88 PUSH2 0x114D JUMP JUMPDEST JUMPDEST DUP2 CALLDATALOAD PUSH2 0xA99 DUP5 DUP3 PUSH1 0x20 DUP7 ADD PUSH2 0xA1D JUMP JUMPDEST SWAP2 POP POP SWAP3 SWAP2 POP POP JUMP JUMPDEST PUSH1 0x0 DUP2 CALLDATALOAD SWAP1 POP PUSH2 0xAB1 DUP2 PUSH2 0x12F7 JUMP JUMPDEST SWAP3 SWAP2 POP POP JUMP JUMPDEST PUSH1 0x0 PUSH1 0x20 DUP3 DUP5 SUB SLT ISZERO PUSH2 0xACD JUMPI PUSH2 0xACC PUSH2 0x115C JUMP JUMPDEST JUMPDEST PUSH1 0x0 PUSH2 0xADB DUP5 DUP3 DUP6 ADD PUSH2 0xA5F JUMP JUMPDEST SWAP2 POP POP SWAP3 SWAP2 POP POP JUMP JUMPDEST PUSH1 0x0 DUP1 PUSH1 0x40 DUP4 DUP6 SUB SLT ISZERO PUSH2 0xAFB JUMPI PUSH2 0xAFA PUSH2 0x115C JUMP JUMPDEST JUMPDEST PUSH1 0x0 DUP4 ADD CALLDATALOAD PUSH8 0xFFFFFFFFFFFFFFFF DUP2 GT ISZERO PUSH2 0xB19 JUMPI PUSH2 0xB18 PUSH2 0x1157 JUMP JUMPDEST JUMPDEST PUSH2 0xB25 DUP6 DUP3 DUP7 ADD PUSH2 0xA74 JUMP JUMPDEST SWAP3 POP POP PUSH1 0x20 PUSH2 0xB36 DUP6 DUP3 DUP7 ADD PUSH2 0xAA2 JUMP JUMPDEST SWAP2 POP POP SWAP3 POP SWAP3 SWAP1 POP JUMP JUMPDEST PUSH1 0x0 PUSH1 0x20 DUP3 DUP5 SUB SLT ISZERO PUSH2 0xB56 JUMPI PUSH2 0xB55 PUSH2 0x115C JUMP JUMPDEST JUMPDEST PUSH1 0x0 PUSH2 0xB64 DUP5 DUP3 DUP6 ADD PUSH2 0xAA2 JUMP JUMPDEST SWAP2 POP POP SWAP3 SWAP2 POP POP JUMP JUMPDEST PUSH1 0x0 DUP1 PUSH1 0x40 DUP4 DUP6 SUB SLT ISZERO PUSH2 0xB84 JUMPI PUSH2 0xB83 PUSH2 0x115C JUMP JUMPDEST JUMPDEST PUSH1 0x0 PUSH2 0xB92 DUP6 DUP3 DUP7 ADD PUSH2 0xAA2 JUMP JUMPDEST SWAP3 POP POP PUSH1 0x20 PUSH2 0xBA3 DUP6 DUP3 DUP7 ADD PUSH2 0xAA2 JUMP JUMPDEST SWAP2 POP POP SWAP3 POP SWAP3 SWAP1 POP JUMP JUMPDEST PUSH2 0xBB6 DUP2 PUSH2 0xFDF JUMP JUMPDEST DUP3 MSTORE POP POP JUMP JUMPDEST PUSH1 0x0 PUSH2 0xBC7 DUP3 PUSH2 0xF2E JUMP JUMPDEST PUSH2 0xBD1 DUP2 DUP6 PUSH2 0xF39 JUMP JUMPDEST SWAP4 POP PUSH2 0xBE1 DUP2 DUP6 PUSH1 0x20 DUP7 ADD PUSH2 0x102A JUMP JUMPDEST PUSH2 0xBEA DUP2 PUSH2 0x1161 JUMP JUMPDEST DUP5 ADD SWAP2 POP POP SWAP3 SWAP2 POP POP JUMP JUMPDEST PUSH1 0x0 PUSH2 0xC00 DUP3 PUSH2 0xF2E JUMP JUMPDEST PUSH2 0xC0A DUP2 DUP6 PUSH2 0xF4A JUMP JUMPDEST SWAP4 POP PUSH2 0xC1A DUP2 DUP6 PUSH1 0x20 DUP7 ADD PUSH2 0x102A JUMP JUMPDEST DUP1 DUP5 ADD SWAP2 POP POP SWAP3 SWAP2 POP POP JUMP JUMPDEST PUSH1 0x0 PUSH2 0xC33 PUSH1 0x14 DUP4 PUSH2 0xF39 JUMP JUMPDEST SWAP2 POP PUSH2 0xC3E DUP3 PUSH2 0x1172 JUMP JUMPDEST PUSH1 0x20 DUP3 ADD SWAP1 POP SWAP2 SWAP1 POP JUMP JUMPDEST PUSH1 0x0 PUSH2 0xC56 PUSH1 0x11 DUP4 PUSH2 0xF39 JUMP JUMPDEST SWAP2 POP PUSH2 0xC61 DUP3 PUSH2 0x119B JUMP JUMPDEST PUSH1 0x20 DUP3 ADD SWAP1 POP SWAP2 SWAP1 POP JUMP JUMPDEST PUSH1 0x0 PUSH2 0xC79 PUSH1 0x16 DUP4 PUSH2 0xF39 JUMP JUMPDEST SWAP2 POP PUSH2 0xC84 DUP3 PUSH2 0x11C4 JUMP JUMPDEST PUSH1 0x20 DUP3 ADD SWAP1 POP SWAP2 SWAP1 POP JUMP JUMPDEST PUSH1 0x0 PUSH2 0xC9C PUSH1 0x26 DUP4 PUSH2 0xF39 JUMP JUMPDEST SWAP2 POP PUSH2 0xCA7 DUP3 PUSH2 0x11ED JUMP JUMPDEST PUSH1 0x40 DUP3 ADD SWAP1 POP SWAP2 SWAP1 POP JUMP JUMPDEST PUSH1 0x0 PUSH2 0xCBF PUSH1 0x12 DUP4 PUSH2 0xF39 JUMP JUMPDEST SWAP2 POP PUSH2 0xCCA DUP3 PUSH2 0x123C JUMP JUMPDEST PUSH1 0x20 DUP3 ADD SWAP1 POP SWAP2 SWAP1 POP JUMP JUMPDEST PUSH1 0x0 PUSH2 0xCE2 PUSH1 0x20 DUP4 PUSH2 0xF39 JUMP JUMPDEST SWAP2 POP PUSH2 0xCED DUP3 PUSH2 0x1265 JUMP JUMPDEST PUSH1 0x20 DUP3 ADD SWAP1 POP SWAP2 SWAP1 POP JUMP JUMPDEST PUSH1 0x0 PUSH2 0xD05 PUSH1 0x5 DUP4 PUSH2 0xF39 JUMP JUMPDEST SWAP2 POP PUSH2 0xD10 DUP3 PUSH2 0x128E JUMP JUMPDEST PUSH1 0x20 DUP3 ADD SWAP1 POP SWAP2 SWAP1 POP JUMP JUMPDEST PUSH1 0x0 PUSH2 0xD28 PUSH1 0x13 DUP4 PUSH2 0xF39 JUMP JUMPDEST SWAP2 POP PUSH2 0xD33 DUP3 PUSH2 0x12B7 JUMP JUMPDEST PUSH1 0x20 DUP3 ADD SWAP1 POP SWAP2 SWAP1 POP JUMP JUMPDEST PUSH2 0xD47 DUP2 PUSH2 0x1011 JUMP JUMPDEST DUP3 MSTORE POP POP JUMP JUMPDEST PUSH1 0x0 PUSH2 0xD59 DUP3 DUP5 PUSH2 0xBF5 JUMP JUMPDEST SWAP2 POP DUP2 SWAP1 POP SWAP3 SWAP2 POP POP JUMP JUMPDEST PUSH1 0x0 PUSH1 0x20 DUP3 ADD SWAP1 POP PUSH2 0xD79 PUSH1 0x0 DUP4 ADD DUP5 PUSH2 0xBAD JUMP JUMPDEST SWAP3 SWAP2 POP POP JUMP JUMPDEST PUSH1 0x0 PUSH1 0x60 DUP3 ADD SWAP1 POP DUP2 DUP2 SUB PUSH1 0x0 DUP4 ADD MSTORE PUSH2 0xD99 DUP2 DUP7 PUSH2 0xBBC JUMP JUMPDEST SWAP1 POP PUSH2 0xDA8 PUSH1 0x20 DUP4 ADD DUP6 PUSH2 0xD3E JUMP JUMPDEST PUSH2 0xDB5 PUSH1 0x40 DUP4 ADD DUP5 PUSH2 0xD3E JUMP JUMPDEST SWAP5 SWAP4 POP POP POP POP JUMP JUMPDEST PUSH1 0x0 PUSH1 0x20 DUP3 ADD SWAP1 POP DUP2 DUP2 SUB PUSH1 0x0 DUP4 ADD MSTORE PUSH2 0xDD6 DUP2 PUSH2 0xC26 JUMP JUMPDEST SWAP1 POP SWAP2 SWAP1 POP JUMP JUMPDEST PUSH1 0x0 PUSH1 0x20 DUP3 ADD SWAP1 POP DUP2 DUP2 SUB PUSH1 0x0 DUP4 ADD MSTORE PUSH2 0xDF6 DUP2 PUSH2 0xC49 JUMP JUMPDEST SWAP1 POP SWAP2 SWAP1 POP JUMP JUMPDEST PUSH1 0x0 PUSH1 0x20 DUP3 ADD SWAP1 POP DUP2 DUP2 SUB PUSH1 0x0 DUP4 ADD MSTORE PUSH2 0xE16 DUP2 PUSH2 0xC6C JUMP JUMPDEST SWAP1 POP SWAP2 SWAP1 POP JUMP JUMPDEST PUSH1 0x0 PUSH1 0x20 DUP3 ADD SWAP1 POP DUP2 DUP2 SUB PUSH1 0x0 DUP4 ADD MSTORE PUSH2 0xE36 DUP2 PUSH2 0xC8F JUMP JUMPDEST SWAP1 POP SWAP2 SWAP1 POP JUMP JUMPDEST PUSH1 0x0 PUSH1 0x20 DUP3 ADD SWAP1 POP DUP2 DUP2 SUB PUSH1 0x0 DUP4 ADD MSTORE PUSH2 0xE56 DUP2 PUSH2 0xCB2 JUMP JUMPDEST SWAP1 POP SWAP2 SWAP1 POP JUMP JUMPDEST PUSH1 0x0 PUSH1 0x20 DUP3 ADD SWAP1 POP DUP2 DUP2 SUB PUSH1 0x0 DUP4 ADD MSTORE PUSH2 0xE76 DUP2 PUSH2 0xCD5 JUMP JUMPDEST SWAP1 POP SWAP2 SWAP1 POP JUMP JUMPDEST PUSH1 0x0 PUSH1 0x20 DUP3 ADD SWAP1 POP DUP2 DUP2 SUB PUSH1 0x0 DUP4 ADD MSTORE PUSH2 0xE96 DUP2 PUSH2 0xCF8 JUMP JUMPDEST SWAP1 POP SWAP2 SWAP1 POP JUMP JUMPDEST PUSH1 0x0 PUSH1 0x20 DUP3 ADD SWAP1 POP DUP2 DUP2 SUB PUSH1 0x0 DUP4 ADD MSTORE PUSH2 0xEB6 DUP2 PUSH2 0xD1B JUMP JUMPDEST SWAP1 POP SWAP2 SWAP1 POP JUMP JUMPDEST PUSH1 0x0 PUSH1 0x20 DUP3 ADD SWAP1 POP PUSH2 0xED2 PUSH1 0x0 DUP4 ADD DUP5 PUSH2 0xD3E JUMP JUMPDEST SWAP3 SWAP2 POP POP JUMP JUMPDEST PUSH1 0x0 PUSH2 0xEE2 PUSH2 0xEF3 JUMP JUMPDEST SWAP1 POP PUSH2 0xEEE DUP3 DUP3 PUSH2 0x108F JUMP JUMPDEST SWAP2 SWAP1 POP JUMP JUMPDEST PUSH1 0x0 PUSH1 0x40 MLOAD SWAP1 POP SWAP1 JUMP JUMPDEST PUSH1 0x0 PUSH8 0xFFFFFFFFFFFFFFFF DUP3 GT ISZERO PUSH2 0xF18 JUMPI PUSH2 0xF17 PUSH2 0x111E JUMP JUMPDEST JUMPDEST PUSH2 0xF21 DUP3 PUSH2 0x1161 JUMP JUMPDEST SWAP1 POP PUSH1 0x20 DUP2 ADD SWAP1 POP SWAP2 SWAP1 POP JUMP JUMPDEST PUSH1 0x0 DUP2 MLOAD SWAP1 POP SWAP2 SWAP1 POP JUMP JUMPDEST PUSH1 0x0 DUP3 DUP3 MSTORE PUSH1 0x20 DUP3 ADD SWAP1 POP SWAP3 SWAP2 POP POP JUMP JUMPDEST PUSH1 0x0 DUP2 SWAP1 POP SWAP3 SWAP2 POP POP JUMP JUMPDEST PUSH1 0x0 PUSH2 0xF60 DUP3 PUSH2 0x1011 JUMP JUMPDEST SWAP2 POP PUSH2 0xF6B DUP4 PUSH2 0x1011 JUMP JUMPDEST SWAP3 POP DUP3 PUSH32 0xFFFFFFFFFFFFFFFFFFFFFFFFFFFFFFFFFFFFFFFFFFFFFFFFFFFFFFFFFFFFFFFF SUB DUP3 GT ISZERO PUSH2 0xFA0 JUMPI PUSH2 0xF9F PUSH2 0x10C0 JUMP JUMPDEST JUMPDEST DUP3 DUP3 ADD SWAP1 POP SWAP3 SWAP2 POP POP JUMP JUMPDEST PUSH1 0x0 PUSH2 0xFB6 DUP3 PUSH2 0x1011 JUMP JUMPDEST SWAP2 POP PUSH2 0xFC1 DUP4 PUSH2 0x1011 JUMP JUMPDEST SWAP3 POP DUP3 DUP3 LT ISZERO PUSH2 0xFD4 JUMPI PUSH2 0xFD3 PUSH2 0x10C0 JUMP JUMPDEST JUMPDEST DUP3 DUP3 SUB SWAP1 POP SWAP3 SWAP2 POP POP JUMP JUMPDEST PUSH1 0x0 PUSH2 0xFEA DUP3 PUSH2 0xFF1 JUMP JUMPDEST SWAP1 POP SWAP2 SWAP1 POP JUMP JUMPDEST PUSH1 0x0 PUSH20 0xFFFFFFFFFFFFFFFFFFFFFFFFFFFFFFFFFFFFFFFF DUP3 AND SWAP1 POP SWAP2 SWAP1 POP JUMP JUMPDEST PUSH1 0x0 DUP2 SWAP1 POP SWAP2 SWAP1 POP JUMP JUMPDEST DUP3 DUP2 DUP4 CALLDATACOPY PUSH1 0x0 DUP4 DUP4 ADD MSTORE POP POP POP JUMP JUMPDEST PUSH1 0x0 JUMPDEST DUP4 DUP2 LT ISZERO PUSH2 0x1048 JUMPI DUP1 DUP3 ADD MLOAD DUP2 DUP5 ADD MSTORE PUSH1 0x20 DUP2 ADD SWAP1 POP PUSH2 0x102D JUMP JUMPDEST DUP4 DUP2 GT ISZERO PUSH2 0x1057 JUMPI PUSH1 0x0 DUP5 DUP5 ADD MSTORE JUMPDEST POP POP POP POP JUMP JUMPDEST PUSH1 0x0 PUSH1 0x2 DUP3 DIV SWAP1 POP PUSH1 0x1 DUP3 AND DUP1 PUSH2 0x1075 JUMPI PUSH1 0x7F DUP3 AND SWAP2 POP JUMPDEST PUSH1 0x20 DUP3 LT DUP2 EQ ISZERO PUSH2 0x1089 JUMPI PUSH2 0x1088 PUSH2 0x10EF JUMP JUMPDEST JUMPDEST POP SWAP2 SWAP1 POP JUMP JUMPDEST PUSH2 0x1098 DUP3 PUSH2 0x1161 JUMP JUMPDEST DUP2 ADD DUP2 DUP2 LT PUSH8 0xFFFFFFFFFFFFFFFF DUP3 GT OR ISZERO PUSH2 0x10B7 JUMPI PUSH2 0x10B6 PUSH2 0x111E JUMP JUMPDEST JUMPDEST DUP1 PUSH1 0x40 MSTORE POP POP POP JUMP JUMPDEST PUSH32 0x4E487B7100000000000000000000000000000000000000000000000000000000 PUSH1 0x0 MSTORE PUSH1 0x11 PUSH1 0x4 MSTORE PUSH1 0x24 PUSH1 0x0 REVERT JUMPDEST PUSH32 0x4E487B7100000000000000000000000000000000000000000000000000000000 PUSH1 0x0 MSTORE PUSH1 0x22 PUSH1 0x4 MSTORE PUSH1 0x24 PUSH1 0x0 REVERT JUMPDEST PUSH32 0x4E487B7100000000000000000000000000000000000000000000000000000000 PUSH1 0x0 MSTORE PUSH1 0x41 PUSH1 0x4 MSTORE PUSH1 0x24 PUSH1 0x0 REVERT JUMPDEST PUSH1 0x0 DUP1 REVERT JUMPDEST PUSH1 0x0 DUP1 REVERT JUMPDEST PUSH1 0x0 DUP1 REVERT JUMPDEST PUSH1 0x0 DUP1 REVERT JUMPDEST PUSH1 0x0 PUSH1 0x1F NOT PUSH1 0x1F DUP4 ADD AND SWAP1 POP SWAP2 SWAP1 POP JUMP JUMPDEST PUSH32 0x4E616D652063616E6E6F7420626520656D707479000000000000000000000000 PUSH1 0x0 DUP3 ADD MSTORE POP JUMP JUMPDEST PUSH32 0x426F6F6B20697320617661696C61626C65000000000000000000000000000000 PUSH1 0x0 DUP3 ADD MSTORE POP JUMP JUMPDEST PUSH32 0x426F6F6B20697320616C72656164792069737375656400000000000000000000 PUSH1 0x0 DUP3 ADD MSTORE POP JUMP JUMPDEST PUSH32 0x4F776E61626C653A206E6577206F776E657220697320746865207A65726F2061 PUSH1 0x0 DUP3 ADD MSTORE PUSH32 0x6464726573730000000000000000000000000000000000000000000000000000 PUSH1 0x20 DUP3 ADD MSTORE POP JUMP JUMPDEST PUSH32 0x426F6F6B206973206E6F74206973737565640000000000000000000000000000 PUSH1 0x0 DUP3 ADD MSTORE POP JUMP JUMPDEST PUSH32 0x4F776E61626C653A2063616C6C6572206973206E6F7420746865206F776E6572 PUSH1 0x0 DUP3 ADD MSTORE POP JUMP JUMPDEST PUSH32 0x217A65726F000000000000000000000000000000000000000000000000000000 PUSH1 0x0 DUP3 ADD MSTORE POP JUMP JUMPDEST PUSH32 0x426F6F6B20646F6573206E6F7420657869737400000000000000000000000000 PUSH1 0x0 DUP3 ADD MSTORE POP JUMP JUMPDEST PUSH2 0x12E9 DUP2 PUSH2 0xFDF JUMP JUMPDEST DUP2 EQ PUSH2 0x12F4 JUMPI PUSH1 0x0 DUP1 REVERT JUMPDEST POP JUMP JUMPDEST PUSH2 0x1300 DUP2 PUSH2 0x1011 JUMP JUMPDEST DUP2 EQ PUSH2 0x130B JUMPI PUSH1 0x0 DUP1 REVERT JUMPDEST POP JUMP INVALID LOG2 PUSH5 0x6970667358 0x22 SLT KECCAK256 0xC5 0xB6 0xD3 SIGNEXTEND 0x21 MUL DUP14 MSIZE CALLDATASIZE PUSH4 0x3B8D8ED7 CALLDATALOAD 0xC1 0xFC 0xAE 0xF7 0x5F PUSH22 0x8DC6FE874BBD2FD995C46564736F6C63430008070033 "
				},
				"gasEstimates": {
					"creation": {
						"codeDepositCost": "986400",
						"executionCost": "infinite",
						"totalCost": "infinite"
					},
					"external": {
						"BookLedger(uint256)": "infinite",
						"addBook(string,uint256)": "infinite",
						"addBookCopies(uint256,uint256)": "infinite",
						"bookCount()": "2473",
						"borrowBook(uint256)": "infinite",
						"owner()": "2544",
						"renounceOwnership()": "30443",
						"returnBook(uint256)": "infinite",
						"transferOwnership(address)": "30835"
					}
				},
				"methodIdentifiers": {
					"BookLedger(uint256)": "7975c6b4",
					"addBook(string,uint256)": "637a3872",
					"addBookCopies(uint256,uint256)": "60f9eefc",
					"bookCount()": "b905ad78",
					"borrowBook(uint256)": "7e490a9e",
					"owner()": "8da5cb5b",
					"renounceOwnership()": "715018a6",
					"returnBook(uint256)": "ca5140c9",
					"transferOwnership(address)": "f2fde38b"
				}
			},
			"storageLayout": {
				"storage": [
					{
						"astId": 7,
						"contract": "contracts/Library.sol:Library",
						"label": "_owner",
						"offset": 0,
						"slot": "0",
						"type": "t_address"
					},
					{
						"astId": 153,
						"contract": "contracts/Library.sol:Library",
						"label": "myBook",
						"offset": 0,
						"slot": "1",
						"type": "t_struct(Book)150_storage"
					},
					{
						"astId": 155,
						"contract": "contracts/Library.sol:Library",
						"label": "bookCount",
						"offset": 0,
						"slot": "5",
						"type": "t_uint256"
					},
					{
						"astId": 159,
						"contract": "contracts/Library.sol:Library",
						"label": "isAvailable",
						"offset": 0,
						"slot": "6",
						"type": "t_mapping(t_string_memory_ptr,t_bool)"
					},
					{
						"astId": 164,
						"contract": "contracts/Library.sol:Library",
						"label": "BookLedger",
						"offset": 0,
						"slot": "7",
						"type": "t_mapping(t_uint256,t_struct(Book)150_storage)"
					},
					{
						"astId": 170,
						"contract": "contracts/Library.sol:Library",
						"label": "isAlreadyIssued",
						"offset": 0,
						"slot": "8",
						"type": "t_mapping(t_address,t_mapping(t_uint256,t_bool))"
					}
				],
				"types": {
					"t_address": {
						"encoding": "inplace",
						"label": "address",
						"numberOfBytes": "20"
					},
					"t_bool": {
						"encoding": "inplace",
						"label": "bool",
						"numberOfBytes": "1"
					},
					"t_mapping(t_address,t_mapping(t_uint256,t_bool))": {
						"encoding": "mapping",
						"key": "t_address",
						"label": "mapping(address => mapping(uint256 => bool))",
						"numberOfBytes": "32",
						"value": "t_mapping(t_uint256,t_bool)"
					},
					"t_mapping(t_string_memory_ptr,t_bool)": {
						"encoding": "mapping",
						"key": "t_string_memory_ptr",
						"label": "mapping(string => bool)",
						"numberOfBytes": "32",
						"value": "t_bool"
					},
					"t_mapping(t_uint256,t_address)": {
						"encoding": "mapping",
						"key": "t_uint256",
						"label": "mapping(uint256 => address)",
						"numberOfBytes": "32",
						"value": "t_address"
					},
					"t_mapping(t_uint256,t_bool)": {
						"encoding": "mapping",
						"key": "t_uint256",
						"label": "mapping(uint256 => bool)",
						"numberOfBytes": "32",
						"value": "t_bool"
					},
					"t_mapping(t_uint256,t_struct(Book)150_storage)": {
						"encoding": "mapping",
						"key": "t_uint256",
						"label": "mapping(uint256 => struct Library.Book)",
						"numberOfBytes": "32",
						"value": "t_struct(Book)150_storage"
					},
					"t_string_memory_ptr": {
						"encoding": "bytes",
						"label": "string",
						"numberOfBytes": "32"
					},
					"t_string_storage": {
						"encoding": "bytes",
						"label": "string",
						"numberOfBytes": "32"
					},
					"t_struct(Book)150_storage": {
						"encoding": "inplace",
						"label": "struct Library.Book",
						"members": [
							{
								"astId": 141,
								"contract": "contracts/Library.sol:Library",
								"label": "name",
								"offset": 0,
								"slot": "0",
								"type": "t_string_storage"
							},
							{
								"astId": 143,
								"contract": "contracts/Library.sol:Library",
								"label": "copies",
								"offset": 0,
								"slot": "1",
								"type": "t_uint256"
							},
							{
								"astId": 145,
								"contract": "contracts/Library.sol:Library",
								"label": "ownerCount",
								"offset": 0,
								"slot": "2",
								"type": "t_uint256"
							},
							{
								"astId": 149,
								"contract": "contracts/Library.sol:Library",
								"label": "ownersHistory",
								"offset": 0,
								"slot": "3",
								"type": "t_mapping(t_uint256,t_address)"
							}
						],
						"numberOfBytes": "128"
					},
					"t_uint256": {
						"encoding": "inplace",
						"label": "uint256",
						"numberOfBytes": "32"
					}
				}
			},
			"userdoc": {
				"kind": "user",
				"methods": {},
				"version": 1
			}
		}
	}
}