{
	"contracts/Library.sol": {
		"Library": {
			"abi": [
				{
					"anonymous": false,
					"inputs": [
						{
							"indexed": true,
							"internalType": "address",
							"name": "previousOwner",
							"type": "address"
						},
						{
							"indexed": true,
							"internalType": "address",
							"name": "newOwner",
							"type": "address"
						}
					],
					"name": "OwnershipTransferred",
					"type": "event"
				},
				{
					"inputs": [
						{
							"internalType": "uint32",
							"name": "",
							"type": "uint32"
						}
					],
					"name": "BookLedger",
					"outputs": [
						{
							"internalType": "string",
							"name": "name",
							"type": "string"
						},
						{
							"internalType": "uint32",
							"name": "copies",
							"type": "uint32"
						},
						{
							"internalType": "uint32",
							"name": "ownerCount",
							"type": "uint32"
						}
					],
					"stateMutability": "view",
					"type": "function"
				},
				{
					"inputs": [
						{
							"internalType": "string",
							"name": "_name",
							"type": "string"
						},
						{
							"internalType": "uint32",
							"name": "_copies",
							"type": "uint32"
						}
					],
					"name": "addBook",
					"outputs": [],
					"stateMutability": "nonpayable",
					"type": "function"
				},
				{
					"inputs": [
						{
							"internalType": "uint32",
							"name": "_bookId",
							"type": "uint32"
						},
						{
							"internalType": "uint32",
							"name": "_copies",
							"type": "uint32"
						}
					],
					"name": "addBookCopies",
					"outputs": [],
					"stateMutability": "nonpayable",
					"type": "function"
				},
				{
					"inputs": [],
					"name": "bookCount",
					"outputs": [
						{
							"internalType": "uint256",
							"name": "",
							"type": "uint256"
						}
					],
					"stateMutability": "view",
					"type": "function"
				},
				{
					"inputs": [
						{
							"internalType": "uint32",
							"name": "_id",
							"type": "uint32"
						}
					],
					"name": "borrowBook",
					"outputs": [],
					"stateMutability": "nonpayable",
					"type": "function"
				},
				{
					"inputs": [],
					"name": "getAllAvailableBooks",
					"outputs": [
						{
							"internalType": "uint32[]",
							"name": "",
							"type": "uint32[]"
						}
					],
					"stateMutability": "view",
					"type": "function"
				},
				{
					"inputs": [
						{
							"internalType": "uint32",
							"name": "_id",
							"type": "uint32"
						}
					],
					"name": "getOwnerHistoryOfBook",
					"outputs": [
						{
							"internalType": "address[]",
							"name": "",
							"type": "address[]"
						}
					],
					"stateMutability": "view",
					"type": "function"
				},
				{
					"inputs": [],
					"name": "owner",
					"outputs": [
						{
							"internalType": "address",
							"name": "",
							"type": "address"
						}
					],
					"stateMutability": "view",
					"type": "function"
				},
				{
					"inputs": [],
					"name": "renounceOwnership",
					"outputs": [],
					"stateMutability": "nonpayable",
					"type": "function"
				},
				{
					"inputs": [
						{
							"internalType": "uint32",
							"name": "_id",
							"type": "uint32"
						}
					],
					"name": "returnBook",
					"outputs": [],
					"stateMutability": "nonpayable",
					"type": "function"
				},
				{
					"inputs": [
						{
							"internalType": "address",
							"name": "newOwner",
							"type": "address"
						}
					],
					"name": "transferOwnership",
					"outputs": [],
					"stateMutability": "nonpayable",
					"type": "function"
				}
			],
			"devdoc": {
				"kind": "dev",
				"methods": {
					"owner()": {
						"details": "Returns the address of the current owner."
					},
					"renounceOwnership()": {
						"details": "Leaves the contract without owner. It will not be possible to call `onlyOwner` functions anymore. Can only be called by the current owner. NOTE: Renouncing ownership will leave the contract without an owner, thereby removing any functionality that is only available to the owner."
					},
					"transferOwnership(address)": {
						"details": "Transfers ownership of the contract to a new account (`newOwner`). Can only be called by the current owner."
					}
				},
				"version": 1
			},
			"evm": {
				"assembly": "    /* \"contracts/Library.sol\":84:3148  contract Library is Ownable{\r... */\n  mstore(0x40, 0x80)\n  callvalue\n  dup1\n  iszero\n  tag_1\n  jumpi\n  0x00\n  dup1\n  revert\ntag_1:\n  pop\n    /* \"@openzeppelin/contracts/access/Ownable.sol\":936:968  _transferOwnership(_msgSender()) */\n  tag_4\n    /* \"@openzeppelin/contracts/access/Ownable.sol\":955:967  _msgSender() */\n  tag_5\n    /* \"@openzeppelin/contracts/access/Ownable.sol\":955:965  _msgSender */\n  shl(0x20, tag_6)\n    /* \"@openzeppelin/contracts/access/Ownable.sol\":955:967  _msgSender() */\n  0x20\n  shr\n  jump\t// in\ntag_5:\n    /* \"@openzeppelin/contracts/access/Ownable.sol\":936:954  _transferOwnership */\n  shl(0x20, tag_7)\n    /* \"@openzeppelin/contracts/access/Ownable.sol\":936:968  _transferOwnership(_msgSender()) */\n  0x20\n  shr\n  jump\t// in\ntag_4:\n    /* \"contracts/Library.sol\":84:3148  contract Library is Ownable{\r... */\n  jump(tag_8)\n    /* \"@openzeppelin/contracts/utils/Context.sol\":640:736  function _msgSender() internal view virtual returns (address) {... */\ntag_6:\n    /* \"@openzeppelin/contracts/utils/Context.sol\":693:700  address */\n  0x00\n    /* \"@openzeppelin/contracts/utils/Context.sol\":719:729  msg.sender */\n  caller\n    /* \"@openzeppelin/contracts/utils/Context.sol\":712:729  return msg.sender */\n  swap1\n  pop\n    /* \"@openzeppelin/contracts/utils/Context.sol\":640:736  function _msgSender() internal view virtual returns (address) {... */\n  swap1\n  jump\t// out\n    /* \"@openzeppelin/contracts/access/Ownable.sol\":2433:2620  function _transferOwnership(address newOwner) internal virtual {... */\ntag_7:\n    /* \"@openzeppelin/contracts/access/Ownable.sol\":2506:2522  address oldOwner */\n  0x00\n    /* \"@openzeppelin/contracts/access/Ownable.sol\":2525:2531  _owner */\n  dup1\n  0x00\n  swap1\n  sload\n  swap1\n  0x0100\n  exp\n  swap1\n  div\n  0xffffffffffffffffffffffffffffffffffffffff\n  and\n    /* \"@openzeppelin/contracts/access/Ownable.sol\":2506:2531  address oldOwner = _owner */\n  swap1\n  pop\n    /* \"@openzeppelin/contracts/access/Ownable.sol\":2550:2558  newOwner */\n  dup2\n    /* \"@openzeppelin/contracts/access/Ownable.sol\":2541:2547  _owner */\n  0x00\n  dup1\n    /* \"@openzeppelin/contracts/access/Ownable.sol\":2541:2558  _owner = newOwner */\n  0x0100\n  exp\n  dup2\n  sload\n  dup2\n  0xffffffffffffffffffffffffffffffffffffffff\n  mul\n  not\n  and\n  swap1\n  dup4\n  0xffffffffffffffffffffffffffffffffffffffff\n  and\n  mul\n  or\n  swap1\n  sstore\n  pop\n    /* \"@openzeppelin/contracts/access/Ownable.sol\":2604:2612  newOwner */\n  dup2\n    /* \"@openzeppelin/contracts/access/Ownable.sol\":2573:2613  OwnershipTransferred(oldOwner, newOwner) */\n  0xffffffffffffffffffffffffffffffffffffffff\n  and\n    /* \"@openzeppelin/contracts/access/Ownable.sol\":2594:2602  oldOwner */\n  dup2\n    /* \"@openzeppelin/contracts/access/Ownable.sol\":2573:2613  OwnershipTransferred(oldOwner, newOwner) */\n  0xffffffffffffffffffffffffffffffffffffffff\n  and\n  0x8be0079c531659141344cd1fd0a4f28419497f9722a3daafe3b4186f6b6457e0\n  mload(0x40)\n  mload(0x40)\n  dup1\n  swap2\n  sub\n  swap1\n  log3\n    /* \"@openzeppelin/contracts/access/Ownable.sol\":2496:2620  {... */\n  pop\n    /* \"@openzeppelin/contracts/access/Ownable.sol\":2433:2620  function _transferOwnership(address newOwner) internal virtual {... */\n  pop\n  jump\t// out\n    /* \"contracts/Library.sol\":84:3148  contract Library is Ownable{\r... */\ntag_8:\n  dataSize(sub_0)\n  dup1\n  dataOffset(sub_0)\n  0x00\n  codecopy\n  0x00\n  return\nstop\n\nsub_0: assembly {\n        /* \"contracts/Library.sol\":84:3148  contract Library is Ownable{\r... */\n      mstore(0x40, 0x80)\n      callvalue\n      dup1\n      iszero\n      tag_1\n      jumpi\n      0x00\n      dup1\n      revert\n    tag_1:\n      pop\n      jumpi(tag_2, lt(calldatasize, 0x04))\n      shr(0xe0, calldataload(0x00))\n      dup1\n      0x8da5cb5b\n      gt\n      tag_14\n      jumpi\n      dup1\n      0x8da5cb5b\n      eq\n      tag_8\n      jumpi\n      dup1\n      0xb905ad78\n      eq\n      tag_9\n      jumpi\n      dup1\n      0xbdaa3c1e\n      eq\n      tag_10\n      jumpi\n      dup1\n      0xf2fde38b\n      eq\n      tag_11\n      jumpi\n      dup1\n      0xf4cbc4a6\n      eq\n      tag_12\n      jumpi\n      dup1\n      0xfef4c92a\n      eq\n      tag_13\n      jumpi\n      jump(tag_2)\n    tag_14:\n      dup1\n      0x422d2629\n      eq\n      tag_3\n      jumpi\n      dup1\n      0x48569e59\n      eq\n      tag_4\n      jumpi\n      dup1\n      0x5d70b491\n      eq\n      tag_5\n      jumpi\n      dup1\n      0x715018a6\n      eq\n      tag_6\n      jumpi\n      dup1\n      0x87e97de2\n      eq\n      tag_7\n      jumpi\n    tag_2:\n      0x00\n      dup1\n      revert\n        /* \"contracts/Library.sol\":1779:2037  function returnBook(uint32 _id) external {\r... */\n    tag_3:\n      tag_15\n      0x04\n      dup1\n      calldatasize\n      sub\n      dup2\n      add\n      swap1\n      tag_16\n      swap2\n      swap1\n      tag_17\n      jump\t// in\n    tag_16:\n      tag_18\n      jump\t// in\n    tag_15:\n      stop\n        /* \"contracts/Library.sol\":1360:1770  function borrowBook(uint32 _id) external {\r... */\n    tag_4:\n      tag_19\n      0x04\n      dup1\n      calldatasize\n      sub\n      dup2\n      add\n      swap1\n      tag_20\n      swap2\n      swap1\n      tag_17\n      jump\t// in\n    tag_20:\n      tag_21\n      jump\t// in\n    tag_19:\n      stop\n        /* \"contracts/Library.sol\":375:416  mapping(uint32 => Book) public BookLedger */\n    tag_5:\n      tag_22\n      0x04\n      dup1\n      calldatasize\n      sub\n      dup2\n      add\n      swap1\n      tag_23\n      swap2\n      swap1\n      tag_17\n      jump\t// in\n    tag_23:\n      tag_24\n      jump\t// in\n    tag_22:\n      mload(0x40)\n      tag_25\n      swap4\n      swap3\n      swap2\n      swap1\n      tag_26\n      jump\t// in\n    tag_25:\n      mload(0x40)\n      dup1\n      swap2\n      sub\n      swap1\n      return\n        /* \"@openzeppelin/contracts/access/Ownable.sol\":1831:1932  function renounceOwnership() public virtual onlyOwner {... */\n    tag_6:\n      tag_27\n      tag_28\n      jump\t// in\n    tag_27:\n      stop\n        /* \"contracts/Library.sol\":2777:3145  function getOwnerHistoryOfBook(uint32 _id)\r... */\n    tag_7:\n      tag_29\n      0x04\n      dup1\n      calldatasize\n      sub\n      dup2\n      add\n      swap1\n      tag_30\n      swap2\n      swap1\n      tag_17\n      jump\t// in\n    tag_30:\n      tag_31\n      jump\t// in\n    tag_29:\n      mload(0x40)\n      tag_32\n      swap2\n      swap1\n      tag_33\n      jump\t// in\n    tag_32:\n      mload(0x40)\n      dup1\n      swap2\n      sub\n      swap1\n      return\n        /* \"@openzeppelin/contracts/access/Ownable.sol\":1201:1286  function owner() public view virtual returns (address) {... */\n    tag_8:\n      tag_34\n      tag_35\n      jump\t// in\n    tag_34:\n      mload(0x40)\n      tag_36\n      swap2\n      swap1\n      tag_37\n      jump\t// in\n    tag_36:\n      mload(0x40)\n      dup1\n      swap2\n      sub\n      swap1\n      return\n        /* \"contracts/Library.sol\":292:316  uint256 public bookCount */\n    tag_9:\n      tag_38\n      tag_39\n      jump\t// in\n    tag_38:\n      mload(0x40)\n      tag_40\n      swap2\n      swap1\n      tag_41\n      jump\t// in\n    tag_40:\n      mload(0x40)\n      dup1\n      swap2\n      sub\n      swap1\n      return\n        /* \"contracts/Library.sol\":639:1035  function addBook(string memory _name, uint32 _copies)\r... */\n    tag_10:\n      tag_42\n      0x04\n      dup1\n      calldatasize\n      sub\n      dup2\n      add\n      swap1\n      tag_43\n      swap2\n      swap1\n      tag_44\n      jump\t// in\n    tag_43:\n      tag_45\n      jump\t// in\n    tag_42:\n      stop\n        /* \"@openzeppelin/contracts/access/Ownable.sol\":2081:2279  function transferOwnership(address newOwner) public virtual onlyOwner {... */\n    tag_11:\n      tag_46\n      0x04\n      dup1\n      calldatasize\n      sub\n      dup2\n      add\n      swap1\n      tag_47\n      swap2\n      swap1\n      tag_48\n      jump\t// in\n    tag_47:\n      tag_49\n      jump\t// in\n    tag_46:\n      stop\n        /* \"contracts/Library.sol\":2046:2768  function getAllAvailableBooks() external view returns (uint32[] memory) {\r... */\n    tag_12:\n      tag_50\n      tag_51\n      jump\t// in\n    tag_50:\n      mload(0x40)\n      tag_52\n      swap2\n      swap1\n      tag_53\n      jump\t// in\n    tag_52:\n      mload(0x40)\n      dup1\n      swap2\n      sub\n      swap1\n      return\n        /* \"contracts/Library.sol\":1045:1350  function addBookCopies(uint32 _bookId, uint32 _copies)\r... */\n    tag_13:\n      tag_54\n      0x04\n      dup1\n      calldatasize\n      sub\n      dup2\n      add\n      swap1\n      tag_55\n      swap2\n      swap1\n      tag_56\n      jump\t// in\n    tag_55:\n      tag_57\n      jump\t// in\n    tag_54:\n      stop\n        /* \"contracts/Library.sol\":1779:2037  function returnBook(uint32 _id) external {\r... */\n    tag_18:\n        /* \"contracts/Library.sol\":1839:1854  isAlreadyIssued */\n      0x07\n        /* \"contracts/Library.sol\":1839:1866  isAlreadyIssued[msg.sender] */\n      0x00\n        /* \"contracts/Library.sol\":1855:1865  msg.sender */\n      caller\n        /* \"contracts/Library.sol\":1839:1866  isAlreadyIssued[msg.sender] */\n      0xffffffffffffffffffffffffffffffffffffffff\n      and\n      0xffffffffffffffffffffffffffffffffffffffff\n      and\n      dup2\n      mstore\n      0x20\n      add\n      swap1\n      dup2\n      mstore\n      0x20\n      add\n      0x00\n      keccak256\n        /* \"contracts/Library.sol\":1839:1871  isAlreadyIssued[msg.sender][_id] */\n      0x00\n        /* \"contracts/Library.sol\":1867:1870  _id */\n      dup3\n        /* \"contracts/Library.sol\":1839:1871  isAlreadyIssued[msg.sender][_id] */\n      0xffffffff\n      and\n      dup2\n      mstore\n      0x20\n      add\n      swap1\n      dup2\n      mstore\n      0x20\n      add\n      0x00\n      keccak256\n      0x00\n      swap1\n      sload\n      swap1\n      0x0100\n      exp\n      swap1\n      div\n      0xff\n      and\n        /* \"contracts/Library.sol\":1831:1894  require(isAlreadyIssued[msg.sender][_id], \"Book is not issued\") */\n      tag_59\n      jumpi\n      mload(0x40)\n      0x08c379a000000000000000000000000000000000000000000000000000000000\n      dup2\n      mstore\n      0x04\n      add\n      tag_60\n      swap1\n      tag_61\n      jump\t// in\n    tag_60:\n      mload(0x40)\n      dup1\n      swap2\n      sub\n      swap1\n      revert\n    tag_59:\n        /* \"contracts/Library.sol\":1905:1922  Book storage book */\n      0x00\n        /* \"contracts/Library.sol\":1925:1935  BookLedger */\n      0x06\n        /* \"contracts/Library.sol\":1925:1940  BookLedger[_id] */\n      0x00\n        /* \"contracts/Library.sol\":1936:1939  _id */\n      dup4\n        /* \"contracts/Library.sol\":1925:1940  BookLedger[_id] */\n      0xffffffff\n      and\n      0xffffffff\n      and\n      dup2\n      mstore\n      0x20\n      add\n      swap1\n      dup2\n      mstore\n      0x20\n      add\n      0x00\n      keccak256\n        /* \"contracts/Library.sol\":1905:1940  Book storage book = BookLedger[_id] */\n      swap1\n      pop\n        /* \"contracts/Library.sol\":1977:1978  1 */\n      0x01\n        /* \"contracts/Library.sol\":1965:1969  book */\n      dup2\n        /* \"contracts/Library.sol\":1965:1976  book.copies */\n      0x01\n      add\n      0x00\n      swap1\n      sload\n      swap1\n      0x0100\n      exp\n      swap1\n      div\n      0xffffffff\n      and\n        /* \"contracts/Library.sol\":1965:1978  book.copies+1 */\n      tag_62\n      swap2\n      swap1\n      tag_63\n      jump\t// in\n    tag_62:\n        /* \"contracts/Library.sol\":1951:1955  book */\n      dup2\n        /* \"contracts/Library.sol\":1951:1962  book.copies */\n      0x01\n      add\n      0x00\n        /* \"contracts/Library.sol\":1951:1978  book.copies = book.copies+1 */\n      0x0100\n      exp\n      dup2\n      sload\n      dup2\n      0xffffffff\n      mul\n      not\n      and\n      swap1\n      dup4\n      0xffffffff\n      and\n      mul\n      or\n      swap1\n      sstore\n      pop\n        /* \"contracts/Library.sol\":2024:2029  false */\n      0x00\n        /* \"contracts/Library.sol\":1989:2004  isAlreadyIssued */\n      0x07\n        /* \"contracts/Library.sol\":1989:2016  isAlreadyIssued[msg.sender] */\n      0x00\n        /* \"contracts/Library.sol\":2005:2015  msg.sender */\n      caller\n        /* \"contracts/Library.sol\":1989:2016  isAlreadyIssued[msg.sender] */\n      0xffffffffffffffffffffffffffffffffffffffff\n      and\n      0xffffffffffffffffffffffffffffffffffffffff\n      and\n      dup2\n      mstore\n      0x20\n      add\n      swap1\n      dup2\n      mstore\n      0x20\n      add\n      0x00\n      keccak256\n        /* \"contracts/Library.sol\":1989:2021  isAlreadyIssued[msg.sender][_id] */\n      0x00\n        /* \"contracts/Library.sol\":2017:2020  _id */\n      dup5\n        /* \"contracts/Library.sol\":1989:2021  isAlreadyIssued[msg.sender][_id] */\n      0xffffffff\n      and\n      dup2\n      mstore\n      0x20\n      add\n      swap1\n      dup2\n      mstore\n      0x20\n      add\n      0x00\n      keccak256\n      0x00\n        /* \"contracts/Library.sol\":1989:2029  isAlreadyIssued[msg.sender][_id] = false */\n      0x0100\n      exp\n      dup2\n      sload\n      dup2\n      0xff\n      mul\n      not\n      and\n      swap1\n      dup4\n      iszero\n      iszero\n      mul\n      or\n      swap1\n      sstore\n      pop\n        /* \"contracts/Library.sol\":1820:2037  {\r... */\n      pop\n        /* \"contracts/Library.sol\":1779:2037  function returnBook(uint32 _id) external {\r... */\n      pop\n      jump\t// out\n        /* \"contracts/Library.sol\":1360:1770  function borrowBook(uint32 _id) external {\r... */\n    tag_21:\n        /* \"contracts/Library.sol\":1421:1436  isAlreadyIssued */\n      0x07\n        /* \"contracts/Library.sol\":1421:1448  isAlreadyIssued[msg.sender] */\n      0x00\n        /* \"contracts/Library.sol\":1437:1447  msg.sender */\n      caller\n        /* \"contracts/Library.sol\":1421:1448  isAlreadyIssued[msg.sender] */\n      0xffffffffffffffffffffffffffffffffffffffff\n      and\n      0xffffffffffffffffffffffffffffffffffffffff\n      and\n      dup2\n      mstore\n      0x20\n      add\n      swap1\n      dup2\n      mstore\n      0x20\n      add\n      0x00\n      keccak256\n        /* \"contracts/Library.sol\":1421:1453  isAlreadyIssued[msg.sender][_id] */\n      0x00\n        /* \"contracts/Library.sol\":1449:1452  _id */\n      dup3\n        /* \"contracts/Library.sol\":1421:1453  isAlreadyIssued[msg.sender][_id] */\n      0xffffffff\n      and\n      dup2\n      mstore\n      0x20\n      add\n      swap1\n      dup2\n      mstore\n      0x20\n      add\n      0x00\n      keccak256\n      0x00\n      swap1\n      sload\n      swap1\n      0x0100\n      exp\n      swap1\n      div\n      0xff\n      and\n        /* \"contracts/Library.sol\":1420:1453  !isAlreadyIssued[msg.sender][_id] */\n      iszero\n        /* \"contracts/Library.sol\":1412:1480  require(!isAlreadyIssued[msg.sender][_id], \"Book is already issued\") */\n      tag_65\n      jumpi\n      mload(0x40)\n      0x08c379a000000000000000000000000000000000000000000000000000000000\n      dup2\n      mstore\n      0x04\n      add\n      tag_66\n      swap1\n      tag_67\n      jump\t// in\n    tag_66:\n      mload(0x40)\n      dup1\n      swap2\n      sub\n      swap1\n      revert\n    tag_65:\n        /* \"contracts/Library.sol\":1526:1530  true */\n      0x01\n        /* \"contracts/Library.sol\":1491:1506  isAlreadyIssued */\n      0x07\n        /* \"contracts/Library.sol\":1491:1518  isAlreadyIssued[msg.sender] */\n      0x00\n        /* \"contracts/Library.sol\":1507:1517  msg.sender */\n      caller\n        /* \"contracts/Library.sol\":1491:1518  isAlreadyIssued[msg.sender] */\n      0xffffffffffffffffffffffffffffffffffffffff\n      and\n      0xffffffffffffffffffffffffffffffffffffffff\n      and\n      dup2\n      mstore\n      0x20\n      add\n      swap1\n      dup2\n      mstore\n      0x20\n      add\n      0x00\n      keccak256\n        /* \"contracts/Library.sol\":1491:1523  isAlreadyIssued[msg.sender][_id] */\n      0x00\n        /* \"contracts/Library.sol\":1519:1522  _id */\n      dup4\n        /* \"contracts/Library.sol\":1491:1523  isAlreadyIssued[msg.sender][_id] */\n      0xffffffff\n      and\n      dup2\n      mstore\n      0x20\n      add\n      swap1\n      dup2\n      mstore\n      0x20\n      add\n      0x00\n      keccak256\n      0x00\n        /* \"contracts/Library.sol\":1491:1530  isAlreadyIssued[msg.sender][_id] = true */\n      0x0100\n      exp\n      dup2\n      sload\n      dup2\n      0xff\n      mul\n      not\n      and\n      swap1\n      dup4\n      iszero\n      iszero\n      mul\n      or\n      swap1\n      sstore\n      pop\n        /* \"contracts/Library.sol\":1541:1558  Book storage book */\n      0x00\n        /* \"contracts/Library.sol\":1561:1571  BookLedger */\n      0x06\n        /* \"contracts/Library.sol\":1561:1576  BookLedger[_id] */\n      0x00\n        /* \"contracts/Library.sol\":1572:1575  _id */\n      dup4\n        /* \"contracts/Library.sol\":1561:1576  BookLedger[_id] */\n      0xffffffff\n      and\n      0xffffffff\n      and\n      dup2\n      mstore\n      0x20\n      add\n      swap1\n      dup2\n      mstore\n      0x20\n      add\n      0x00\n      keccak256\n        /* \"contracts/Library.sol\":1541:1576  Book storage book = BookLedger[_id] */\n      swap1\n      pop\n        /* \"contracts/Library.sol\":1610:1611  1 */\n      0x01\n        /* \"contracts/Library.sol\":1595:1599  book */\n      dup2\n        /* \"contracts/Library.sol\":1595:1606  book.copies */\n      0x01\n      add\n      0x00\n      swap1\n      sload\n      swap1\n      0x0100\n      exp\n      swap1\n      div\n      0xffffffff\n      and\n        /* \"contracts/Library.sol\":1595:1611  book.copies >= 1 */\n      0xffffffff\n      and\n      lt\n      iszero\n        /* \"contracts/Library.sol\":1587:1612  require(book.copies >= 1) */\n      tag_68\n      jumpi\n      0x00\n      dup1\n      revert\n    tag_68:\n        /* \"contracts/Library.sol\":1650:1651  1 */\n      0x01\n        /* \"contracts/Library.sol\":1637:1641  book */\n      dup2\n        /* \"contracts/Library.sol\":1637:1648  book.copies */\n      0x01\n      add\n      0x00\n      swap1\n      sload\n      swap1\n      0x0100\n      exp\n      swap1\n      div\n      0xffffffff\n      and\n        /* \"contracts/Library.sol\":1637:1651  book.copies -1 */\n      tag_69\n      swap2\n      swap1\n      tag_70\n      jump\t// in\n    tag_69:\n        /* \"contracts/Library.sol\":1623:1627  book */\n      dup2\n        /* \"contracts/Library.sol\":1623:1634  book.copies */\n      0x01\n      add\n      0x00\n        /* \"contracts/Library.sol\":1623:1651  book.copies = book.copies -1 */\n      0x0100\n      exp\n      dup2\n      sload\n      dup2\n      0xffffffff\n      mul\n      not\n      and\n      swap1\n      dup4\n      0xffffffff\n      and\n      mul\n      or\n      swap1\n      sstore\n      pop\n        /* \"contracts/Library.sol\":1700:1710  msg.sender */\n      caller\n        /* \"contracts/Library.sol\":1662:1666  book */\n      dup2\n        /* \"contracts/Library.sol\":1662:1680  book.ownersHistory */\n      0x02\n      add\n        /* \"contracts/Library.sol\":1662:1697  book.ownersHistory[book.ownerCount] */\n      0x00\n        /* \"contracts/Library.sol\":1681:1685  book */\n      dup4\n        /* \"contracts/Library.sol\":1681:1696  book.ownerCount */\n      0x01\n      add\n      0x04\n      swap1\n      sload\n      swap1\n      0x0100\n      exp\n      swap1\n      div\n      0xffffffff\n      and\n        /* \"contracts/Library.sol\":1662:1697  book.ownersHistory[book.ownerCount] */\n      0xffffffff\n      and\n      dup2\n      mstore\n      0x20\n      add\n      swap1\n      dup2\n      mstore\n      0x20\n      add\n      0x00\n      keccak256\n      0x00\n        /* \"contracts/Library.sol\":1662:1710  book.ownersHistory[book.ownerCount] = msg.sender */\n      0x0100\n      exp\n      dup2\n      sload\n      dup2\n      0xffffffffffffffffffffffffffffffffffffffff\n      mul\n      not\n      and\n      swap1\n      dup4\n      0xffffffffffffffffffffffffffffffffffffffff\n      and\n      mul\n      or\n      swap1\n      sstore\n      pop\n        /* \"contracts/Library.sol\":1757:1758  1 */\n      0x01\n        /* \"contracts/Library.sol\":1741:1745  book */\n      dup2\n        /* \"contracts/Library.sol\":1741:1756  book.ownerCount */\n      0x01\n      add\n      0x04\n      swap1\n      sload\n      swap1\n      0x0100\n      exp\n      swap1\n      div\n      0xffffffff\n      and\n        /* \"contracts/Library.sol\":1741:1758  book.ownerCount+1 */\n      tag_71\n      swap2\n      swap1\n      tag_63\n      jump\t// in\n    tag_71:\n        /* \"contracts/Library.sol\":1723:1727  book */\n      dup2\n        /* \"contracts/Library.sol\":1723:1738  book.ownerCount */\n      0x01\n      add\n      0x04\n        /* \"contracts/Library.sol\":1723:1758  book.ownerCount = book.ownerCount+1 */\n      0x0100\n      exp\n      dup2\n      sload\n      dup2\n      0xffffffff\n      mul\n      not\n      and\n      swap1\n      dup4\n      0xffffffff\n      and\n      mul\n      or\n      swap1\n      sstore\n      pop\n        /* \"contracts/Library.sol\":1401:1770  {\r... */\n      pop\n        /* \"contracts/Library.sol\":1360:1770  function borrowBook(uint32 _id) external {\r... */\n      pop\n      jump\t// out\n        /* \"contracts/Library.sol\":375:416  mapping(uint32 => Book) public BookLedger */\n    tag_24:\n      mstore(0x20, 0x06)\n      dup1\n      0x00\n      mstore\n      keccak256(0x00, 0x40)\n      0x00\n      swap2\n      pop\n      swap1\n      pop\n      dup1\n      0x00\n      add\n      dup1\n      sload\n      tag_72\n      swap1\n      tag_73\n      jump\t// in\n    tag_72:\n      dup1\n      0x1f\n      add\n      0x20\n      dup1\n      swap2\n      div\n      mul\n      0x20\n      add\n      mload(0x40)\n      swap1\n      dup2\n      add\n      0x40\n      mstore\n      dup1\n      swap3\n      swap2\n      swap1\n      dup2\n      dup2\n      mstore\n      0x20\n      add\n      dup3\n      dup1\n      sload\n      tag_74\n      swap1\n      tag_73\n      jump\t// in\n    tag_74:\n      dup1\n      iszero\n      tag_75\n      jumpi\n      dup1\n      0x1f\n      lt\n      tag_76\n      jumpi\n      0x0100\n      dup1\n      dup4\n      sload\n      div\n      mul\n      dup4\n      mstore\n      swap2\n      0x20\n      add\n      swap2\n      jump(tag_75)\n    tag_76:\n      dup3\n      add\n      swap2\n      swap1\n      0x00\n      mstore\n      keccak256(0x00, 0x20)\n      swap1\n    tag_77:\n      dup2\n      sload\n      dup2\n      mstore\n      swap1\n      0x01\n      add\n      swap1\n      0x20\n      add\n      dup1\n      dup4\n      gt\n      tag_77\n      jumpi\n      dup3\n      swap1\n      sub\n      0x1f\n      and\n      dup3\n      add\n      swap2\n    tag_75:\n      pop\n      pop\n      pop\n      pop\n      pop\n      swap1\n      dup1\n      0x01\n      add\n      0x00\n      swap1\n      sload\n      swap1\n      0x0100\n      exp\n      swap1\n      div\n      0xffffffff\n      and\n      swap1\n      dup1\n      0x01\n      add\n      0x04\n      swap1\n      sload\n      swap1\n      0x0100\n      exp\n      swap1\n      div\n      0xffffffff\n      and\n      swap1\n      pop\n      dup4\n      jump\t// out\n        /* \"@openzeppelin/contracts/access/Ownable.sol\":1831:1932  function renounceOwnership() public virtual onlyOwner {... */\n    tag_28:\n        /* \"@openzeppelin/contracts/access/Ownable.sol\":1094:1107  _checkOwner() */\n      tag_79\n        /* \"@openzeppelin/contracts/access/Ownable.sol\":1094:1105  _checkOwner */\n      tag_80\n        /* \"@openzeppelin/contracts/access/Ownable.sol\":1094:1107  _checkOwner() */\n      jump\t// in\n    tag_79:\n        /* \"@openzeppelin/contracts/access/Ownable.sol\":1895:1925  _transferOwnership(address(0)) */\n      tag_82\n        /* \"@openzeppelin/contracts/access/Ownable.sol\":1922:1923  0 */\n      0x00\n        /* \"@openzeppelin/contracts/access/Ownable.sol\":1895:1913  _transferOwnership */\n      tag_83\n        /* \"@openzeppelin/contracts/access/Ownable.sol\":1895:1925  _transferOwnership(address(0)) */\n      jump\t// in\n    tag_82:\n        /* \"@openzeppelin/contracts/access/Ownable.sol\":1831:1932  function renounceOwnership() public virtual onlyOwner {... */\n      jump\t// out\n        /* \"contracts/Library.sol\":2777:3145  function getOwnerHistoryOfBook(uint32 _id)\r... */\n    tag_31:\n        /* \"contracts/Library.sol\":2868:2884  address[] memory */\n      0x60\n        /* \"contracts/Library.sol\":2902:2925  address[] memory result */\n      0x00\n        /* \"contracts/Library.sol\":2942:2952  BookLedger */\n      0x06\n        /* \"contracts/Library.sol\":2942:2957  BookLedger[_id] */\n      0x00\n        /* \"contracts/Library.sol\":2953:2956  _id */\n      dup5\n        /* \"contracts/Library.sol\":2942:2957  BookLedger[_id] */\n      0xffffffff\n      and\n      0xffffffff\n      and\n      dup2\n      mstore\n      0x20\n      add\n      swap1\n      dup2\n      mstore\n      0x20\n      add\n      0x00\n      keccak256\n        /* \"contracts/Library.sol\":2942:2968  BookLedger[_id].ownerCount */\n      0x01\n      add\n      0x04\n      swap1\n      sload\n      swap1\n      0x0100\n      exp\n      swap1\n      div\n      0xffffffff\n      and\n        /* \"contracts/Library.sol\":2928:2969  new address[](BookLedger[_id].ownerCount) */\n      0xffffffff\n      and\n      0xffffffffffffffff\n      dup2\n      gt\n      iszero\n      tag_85\n      jumpi\n      tag_86\n      tag_87\n      jump\t// in\n    tag_86:\n    tag_85:\n      mload(0x40)\n      swap1\n      dup1\n      dup3\n      mstore\n      dup1\n      0x20\n      mul\n      0x20\n      add\n      dup3\n      add\n      0x40\n      mstore\n      dup1\n      iszero\n      tag_88\n      jumpi\n      dup2\n      0x20\n      add\n      0x20\n      dup3\n      mul\n      dup1\n      calldatasize\n      dup4\n      calldatacopy\n      dup1\n      dup3\n      add\n      swap2\n      pop\n      pop\n      swap1\n      pop\n    tag_88:\n      pop\n        /* \"contracts/Library.sol\":2902:2969  address[] memory result = new address[](BookLedger[_id].ownerCount) */\n      swap1\n      pop\n        /* \"contracts/Library.sol\":2985:2997  uint32 index */\n      0x00\n        /* \"contracts/Library.sol\":2980:3114  for (uint32 index = 0; index < result.length; index++) {\r... */\n    tag_89:\n        /* \"contracts/Library.sol\":3011:3017  result */\n      dup2\n        /* \"contracts/Library.sol\":3011:3024  result.length */\n      mload\n        /* \"contracts/Library.sol\":3003:3008  index */\n      dup2\n        /* \"contracts/Library.sol\":3003:3024  index < result.length */\n      0xffffffff\n      and\n      lt\n        /* \"contracts/Library.sol\":2980:3114  for (uint32 index = 0; index < result.length; index++) {\r... */\n      iszero\n      tag_90\n      jumpi\n        /* \"contracts/Library.sol\":3066:3076  BookLedger */\n      0x06\n        /* \"contracts/Library.sol\":3066:3081  BookLedger[_id] */\n      0x00\n        /* \"contracts/Library.sol\":3077:3080  _id */\n      dup6\n        /* \"contracts/Library.sol\":3066:3081  BookLedger[_id] */\n      0xffffffff\n      and\n      0xffffffff\n      and\n      dup2\n      mstore\n      0x20\n      add\n      swap1\n      dup2\n      mstore\n      0x20\n      add\n      0x00\n      keccak256\n        /* \"contracts/Library.sol\":3066:3095  BookLedger[_id].ownersHistory */\n      0x02\n      add\n        /* \"contracts/Library.sol\":3066:3102  BookLedger[_id].ownersHistory[index] */\n      0x00\n        /* \"contracts/Library.sol\":3096:3101  index */\n      dup3\n        /* \"contracts/Library.sol\":3066:3102  BookLedger[_id].ownersHistory[index] */\n      0xffffffff\n      and\n      dup2\n      mstore\n      0x20\n      add\n      swap1\n      dup2\n      mstore\n      0x20\n      add\n      0x00\n      keccak256\n      0x00\n      swap1\n      sload\n      swap1\n      0x0100\n      exp\n      swap1\n      div\n      0xffffffffffffffffffffffffffffffffffffffff\n      and\n        /* \"contracts/Library.sol\":3050:3056  result */\n      dup3\n        /* \"contracts/Library.sol\":3057:3062  index */\n      dup3\n        /* \"contracts/Library.sol\":3050:3063  result[index] */\n      0xffffffff\n      and\n      dup2\n      mload\n      dup2\n      lt\n      tag_92\n      jumpi\n      tag_93\n      tag_94\n      jump\t// in\n    tag_93:\n    tag_92:\n      0x20\n      mul\n      0x20\n      add\n      add\n        /* \"contracts/Library.sol\":3050:3102  result[index] = BookLedger[_id].ownersHistory[index] */\n      swap1\n      0xffffffffffffffffffffffffffffffffffffffff\n      and\n      swap1\n      dup2\n      0xffffffffffffffffffffffffffffffffffffffff\n      and\n      dup2\n      mstore\n      pop\n      pop\n        /* \"contracts/Library.sol\":3026:3033  index++ */\n      dup1\n      dup1\n      tag_95\n      swap1\n      tag_96\n      jump\t// in\n    tag_95:\n      swap2\n      pop\n      pop\n        /* \"contracts/Library.sol\":2980:3114  for (uint32 index = 0; index < result.length; index++) {\r... */\n      jump(tag_89)\n    tag_90:\n      pop\n        /* \"contracts/Library.sol\":3131:3137  result */\n      dup1\n        /* \"contracts/Library.sol\":3124:3137  return result */\n      swap2\n      pop\n      pop\n        /* \"contracts/Library.sol\":2777:3145  function getOwnerHistoryOfBook(uint32 _id)\r... */\n      swap2\n      swap1\n      pop\n      jump\t// out\n        /* \"@openzeppelin/contracts/access/Ownable.sol\":1201:1286  function owner() public view virtual returns (address) {... */\n    tag_35:\n        /* \"@openzeppelin/contracts/access/Ownable.sol\":1247:1254  address */\n      0x00\n        /* \"@openzeppelin/contracts/access/Ownable.sol\":1273:1279  _owner */\n      dup1\n      0x00\n      swap1\n      sload\n      swap1\n      0x0100\n      exp\n      swap1\n      div\n      0xffffffffffffffffffffffffffffffffffffffff\n      and\n        /* \"@openzeppelin/contracts/access/Ownable.sol\":1266:1279  return _owner */\n      swap1\n      pop\n        /* \"@openzeppelin/contracts/access/Ownable.sol\":1201:1286  function owner() public view virtual returns (address) {... */\n      swap1\n      jump\t// out\n        /* \"contracts/Library.sol\":292:316  uint256 public bookCount */\n    tag_39:\n      sload(0x04)\n      dup2\n      jump\t// out\n        /* \"contracts/Library.sol\":639:1035  function addBook(string memory _name, uint32 _copies)\r... */\n    tag_45:\n        /* \"@openzeppelin/contracts/access/Ownable.sol\":1094:1107  _checkOwner() */\n      tag_99\n        /* \"@openzeppelin/contracts/access/Ownable.sol\":1094:1105  _checkOwner */\n      tag_80\n        /* \"@openzeppelin/contracts/access/Ownable.sol\":1094:1107  _checkOwner() */\n      jump\t// in\n    tag_99:\n        /* \"contracts/Library.sol\":756:761  _name */\n      dup2\n        /* \"contracts/Library.sol\":567:578  isAvailable */\n      0x05\n        /* \"contracts/Library.sol\":579:584  _name */\n      dup2\n        /* \"contracts/Library.sol\":567:585  isAvailable[_name] */\n      mload(0x40)\n      tag_101\n      swap2\n      swap1\n      tag_102\n      jump\t// in\n    tag_101:\n      swap1\n      dup2\n      mstore\n      0x20\n      add\n      mload(0x40)\n      dup1\n      swap2\n      sub\n      swap1\n      keccak256\n      0x00\n      swap1\n      sload\n      swap1\n      0x0100\n      exp\n      swap1\n      div\n      0xff\n      and\n        /* \"contracts/Library.sol\":566:585  !isAvailable[_name] */\n      iszero\n        /* \"contracts/Library.sol\":558:607  require(!isAvailable[_name], \"Book is available\") */\n      tag_103\n      jumpi\n      mload(0x40)\n      0x08c379a000000000000000000000000000000000000000000000000000000000\n      dup2\n      mstore\n      0x04\n      add\n      tag_104\n      swap1\n      tag_105\n      jump\t// in\n    tag_104:\n      mload(0x40)\n      dup1\n      swap2\n      sub\n      swap1\n      revert\n    tag_103:\n        /* \"contracts/Library.sol\":810:811  0 */\n      0x00\n        /* \"contracts/Library.sol\":793:798  _name */\n      dup4\n        /* \"contracts/Library.sol\":787:806  bytes(_name).length */\n      mload\n        /* \"contracts/Library.sol\":787:811  bytes(_name).length != 0 */\n      eq\n      iszero\n        /* \"contracts/Library.sol\":779:836  require(bytes(_name).length != 0, \"Name cannot be empty\") */\n      tag_107\n      jumpi\n      mload(0x40)\n      0x08c379a000000000000000000000000000000000000000000000000000000000\n      dup2\n      mstore\n      0x04\n      add\n      tag_108\n      swap1\n      tag_109\n      jump\t// in\n    tag_108:\n      mload(0x40)\n      dup1\n      swap2\n      sub\n      swap1\n      revert\n    tag_107:\n        /* \"contracts/Library.sol\":868:872  true */\n      0x01\n        /* \"contracts/Library.sol\":847:858  isAvailable */\n      0x05\n        /* \"contracts/Library.sol\":859:864  _name */\n      dup5\n        /* \"contracts/Library.sol\":847:865  isAvailable[_name] */\n      mload(0x40)\n      tag_110\n      swap2\n      swap1\n      tag_102\n      jump\t// in\n    tag_110:\n      swap1\n      dup2\n      mstore\n      0x20\n      add\n      mload(0x40)\n      dup1\n      swap2\n      sub\n      swap1\n      keccak256\n      0x00\n        /* \"contracts/Library.sol\":847:872  isAvailable[_name] = true */\n      0x0100\n      exp\n      dup2\n      sload\n      dup2\n      0xff\n      mul\n      not\n      and\n      swap1\n      dup4\n      iszero\n      iszero\n      mul\n      or\n      swap1\n      sstore\n      pop\n        /* \"contracts/Library.sol\":883:897  uint32 _bookId */\n      0x00\n        /* \"contracts/Library.sol\":909:910  1 */\n      0x01\n        /* \"contracts/Library.sol\":900:910  _copies+=1 */\n      dup4\n      tag_111\n      swap2\n      swap1\n      tag_63\n      jump\t// in\n    tag_111:\n      swap3\n      pop\n      dup3\n        /* \"contracts/Library.sol\":883:910  uint32 _bookId = _copies+=1 */\n      swap1\n      pop\n        /* \"contracts/Library.sol\":921:938  Book storage book */\n      0x00\n        /* \"contracts/Library.sol\":941:951  BookLedger */\n      0x06\n        /* \"contracts/Library.sol\":941:960  BookLedger[_bookId] */\n      0x00\n        /* \"contracts/Library.sol\":952:959  _bookId */\n      dup4\n        /* \"contracts/Library.sol\":941:960  BookLedger[_bookId] */\n      0xffffffff\n      and\n      0xffffffff\n      and\n      dup2\n      mstore\n      0x20\n      add\n      swap1\n      dup2\n      mstore\n      0x20\n      add\n      0x00\n      keccak256\n        /* \"contracts/Library.sol\":921:960  Book storage book = BookLedger[_bookId] */\n      swap1\n      pop\n        /* \"contracts/Library.sol\":983:988  _name */\n      dup5\n        /* \"contracts/Library.sol\":971:975  book */\n      dup2\n        /* \"contracts/Library.sol\":971:980  book.name */\n      0x00\n      add\n        /* \"contracts/Library.sol\":971:988  book.name = _name */\n      swap1\n      dup1\n      mload\n      swap1\n      0x20\n      add\n      swap1\n      tag_112\n      swap3\n      swap2\n      swap1\n      tag_113\n      jump\t// in\n    tag_112:\n      pop\n        /* \"contracts/Library.sol\":1013:1020  _copies */\n      dup4\n        /* \"contracts/Library.sol\":999:1003  book */\n      dup2\n        /* \"contracts/Library.sol\":999:1010  book.copies */\n      0x01\n      add\n      0x00\n        /* \"contracts/Library.sol\":999:1020  book.copies = _copies */\n      0x0100\n      exp\n      dup2\n      sload\n      dup2\n      0xffffffff\n      mul\n      not\n      and\n      swap1\n      dup4\n      0xffffffff\n      and\n      mul\n      or\n      swap1\n      sstore\n      pop\n        /* \"contracts/Library.sol\":768:1035  {\r... */\n      pop\n      pop\n        /* \"@openzeppelin/contracts/access/Ownable.sol\":1117:1118  _ */\n      pop\n        /* \"contracts/Library.sol\":639:1035  function addBook(string memory _name, uint32 _copies)\r... */\n      pop\n      pop\n      jump\t// out\n        /* \"@openzeppelin/contracts/access/Ownable.sol\":2081:2279  function transferOwnership(address newOwner) public virtual onlyOwner {... */\n    tag_49:\n        /* \"@openzeppelin/contracts/access/Ownable.sol\":1094:1107  _checkOwner() */\n      tag_115\n        /* \"@openzeppelin/contracts/access/Ownable.sol\":1094:1105  _checkOwner */\n      tag_80\n        /* \"@openzeppelin/contracts/access/Ownable.sol\":1094:1107  _checkOwner() */\n      jump\t// in\n    tag_115:\n        /* \"@openzeppelin/contracts/access/Ownable.sol\":2189:2190  0 */\n      0x00\n        /* \"@openzeppelin/contracts/access/Ownable.sol\":2169:2191  newOwner != address(0) */\n      0xffffffffffffffffffffffffffffffffffffffff\n      and\n        /* \"@openzeppelin/contracts/access/Ownable.sol\":2169:2177  newOwner */\n      dup2\n        /* \"@openzeppelin/contracts/access/Ownable.sol\":2169:2191  newOwner != address(0) */\n      0xffffffffffffffffffffffffffffffffffffffff\n      and\n      eq\n      iszero\n        /* \"@openzeppelin/contracts/access/Ownable.sol\":2161:2234  require(newOwner != address(0), \"Ownable: new owner is the zero address\") */\n      tag_117\n      jumpi\n      mload(0x40)\n      0x08c379a000000000000000000000000000000000000000000000000000000000\n      dup2\n      mstore\n      0x04\n      add\n      tag_118\n      swap1\n      tag_119\n      jump\t// in\n    tag_118:\n      mload(0x40)\n      dup1\n      swap2\n      sub\n      swap1\n      revert\n    tag_117:\n        /* \"@openzeppelin/contracts/access/Ownable.sol\":2244:2272  _transferOwnership(newOwner) */\n      tag_120\n        /* \"@openzeppelin/contracts/access/Ownable.sol\":2263:2271  newOwner */\n      dup2\n        /* \"@openzeppelin/contracts/access/Ownable.sol\":2244:2262  _transferOwnership */\n      tag_83\n        /* \"@openzeppelin/contracts/access/Ownable.sol\":2244:2272  _transferOwnership(newOwner) */\n      jump\t// in\n    tag_120:\n        /* \"@openzeppelin/contracts/access/Ownable.sol\":2081:2279  function transferOwnership(address newOwner) public virtual onlyOwner {... */\n      pop\n      jump\t// out\n        /* \"contracts/Library.sol\":2046:2768  function getAllAvailableBooks() external view returns (uint32[] memory) {\r... */\n    tag_51:\n        /* \"contracts/Library.sol\":2101:2116  uint32[] memory */\n      0x60\n        /* \"contracts/Library.sol\":2129:2148  uint32 currentIndex */\n      0x00\n        /* \"contracts/Library.sol\":2168:2180  uint32 index */\n      dup1\n        /* \"contracts/Library.sol\":2183:2184  1 */\n      0x01\n        /* \"contracts/Library.sol\":2168:2184  uint32 index = 1 */\n      swap1\n      pop\n        /* \"contracts/Library.sol\":2163:2377  for (uint32 index = 1; index <= bookCount; index++) {\r... */\n    tag_122:\n        /* \"contracts/Library.sol\":2195:2204  bookCount */\n      sload(0x04)\n        /* \"contracts/Library.sol\":2186:2191  index */\n      dup2\n        /* \"contracts/Library.sol\":2186:2204  index <= bookCount */\n      0xffffffff\n      and\n      gt\n        /* \"contracts/Library.sol\":2163:2377  for (uint32 index = 1; index <= bookCount; index++) {\r... */\n      tag_123\n      jumpi\n        /* \"contracts/Library.sol\":2235:2250  isAlreadyIssued */\n      0x07\n        /* \"contracts/Library.sol\":2235:2262  isAlreadyIssued[msg.sender] */\n      0x00\n        /* \"contracts/Library.sol\":2251:2261  msg.sender */\n      caller\n        /* \"contracts/Library.sol\":2235:2262  isAlreadyIssued[msg.sender] */\n      0xffffffffffffffffffffffffffffffffffffffff\n      and\n      0xffffffffffffffffffffffffffffffffffffffff\n      and\n      dup2\n      mstore\n      0x20\n      add\n      swap1\n      dup2\n      mstore\n      0x20\n      add\n      0x00\n      keccak256\n        /* \"contracts/Library.sol\":2235:2269  isAlreadyIssued[msg.sender][index] */\n      0x00\n        /* \"contracts/Library.sol\":2263:2268  index */\n      dup3\n        /* \"contracts/Library.sol\":2235:2269  isAlreadyIssued[msg.sender][index] */\n      0xffffffff\n      and\n      dup2\n      mstore\n      0x20\n      add\n      swap1\n      dup2\n      mstore\n      0x20\n      add\n      0x00\n      keccak256\n      0x00\n      swap1\n      sload\n      swap1\n      0x0100\n      exp\n      swap1\n      div\n      0xff\n      and\n        /* \"contracts/Library.sol\":2234:2269  !isAlreadyIssued[msg.sender][index] */\n      iszero\n        /* \"contracts/Library.sol\":2234:2315  !isAlreadyIssued[msg.sender][index] &&\r... */\n      dup1\n      iszero\n      tag_125\n      jumpi\n      pop\n        /* \"contracts/Library.sol\":2314:2315  0 */\n      0x00\n        /* \"contracts/Library.sol\":2287:2297  BookLedger */\n      0x06\n        /* \"contracts/Library.sol\":2287:2304  BookLedger[index] */\n      0x00\n        /* \"contracts/Library.sol\":2298:2303  index */\n      dup4\n        /* \"contracts/Library.sol\":2287:2304  BookLedger[index] */\n      0xffffffff\n      and\n      0xffffffff\n      and\n      dup2\n      mstore\n      0x20\n      add\n      swap1\n      dup2\n      mstore\n      0x20\n      add\n      0x00\n      keccak256\n        /* \"contracts/Library.sol\":2287:2311  BookLedger[index].copies */\n      0x01\n      add\n      0x00\n      swap1\n      sload\n      swap1\n      0x0100\n      exp\n      swap1\n      div\n      0xffffffff\n      and\n        /* \"contracts/Library.sol\":2287:2315  BookLedger[index].copies > 0 */\n      0xffffffff\n      and\n      gt\n        /* \"contracts/Library.sol\":2234:2315  !isAlreadyIssued[msg.sender][index] &&\r... */\n    tag_125:\n        /* \"contracts/Library.sol\":2230:2366  if (!isAlreadyIssued[msg.sender][index] &&\r... */\n      iszero\n      tag_126\n      jumpi\n        /* \"contracts/Library.sol\":2336:2350  currentIndex++ */\n      dup2\n      dup1\n      tag_127\n      swap1\n      tag_96\n      jump\t// in\n    tag_127:\n      swap3\n      pop\n      pop\n        /* \"contracts/Library.sol\":2230:2366  if (!isAlreadyIssued[msg.sender][index] &&\r... */\n    tag_126:\n        /* \"contracts/Library.sol\":2206:2213  index++ */\n      dup1\n      dup1\n      tag_128\n      swap1\n      tag_96\n      jump\t// in\n    tag_128:\n      swap2\n      pop\n      pop\n        /* \"contracts/Library.sol\":2163:2377  for (uint32 index = 1; index <= bookCount; index++) {\r... */\n      jump(tag_122)\n    tag_123:\n      pop\n        /* \"contracts/Library.sol\":2387:2409  uint32[] memory result */\n      0x00\n        /* \"contracts/Library.sol\":2425:2437  currentIndex */\n      dup2\n        /* \"contracts/Library.sol\":2412:2438  new uint32[](currentIndex) */\n      0xffffffff\n      and\n      0xffffffffffffffff\n      dup2\n      gt\n      iszero\n      tag_129\n      jumpi\n      tag_130\n      tag_87\n      jump\t// in\n    tag_130:\n    tag_129:\n      mload(0x40)\n      swap1\n      dup1\n      dup3\n      mstore\n      dup1\n      0x20\n      mul\n      0x20\n      add\n      dup3\n      add\n      0x40\n      mstore\n      dup1\n      iszero\n      tag_131\n      jumpi\n      dup2\n      0x20\n      add\n      0x20\n      dup3\n      mul\n      dup1\n      calldatasize\n      dup4\n      calldatacopy\n      dup1\n      dup3\n      add\n      swap2\n      pop\n      pop\n      swap1\n      pop\n    tag_131:\n      pop\n        /* \"contracts/Library.sol\":2387:2438  uint32[] memory result = new uint32[](currentIndex) */\n      swap1\n      pop\n        /* \"contracts/Library.sol\":2464:2465  0 */\n      0x00\n        /* \"contracts/Library.sol\":2449:2465  currentIndex = 0 */\n      swap2\n      pop\n        /* \"contracts/Library.sol\":2481:2493  uint32 index */\n      0x00\n        /* \"contracts/Library.sol\":2496:2497  1 */\n      0x01\n        /* \"contracts/Library.sol\":2481:2497  uint32 index = 1 */\n      swap1\n      pop\n        /* \"contracts/Library.sol\":2476:2737  for (uint32 index = 1; index <= bookCount; index++) {\r... */\n    tag_132:\n        /* \"contracts/Library.sol\":2508:2517  bookCount */\n      sload(0x04)\n        /* \"contracts/Library.sol\":2499:2504  index */\n      dup2\n        /* \"contracts/Library.sol\":2499:2517  index <= bookCount */\n      0xffffffff\n      and\n      gt\n        /* \"contracts/Library.sol\":2476:2737  for (uint32 index = 1; index <= bookCount; index++) {\r... */\n      tag_133\n      jumpi\n        /* \"contracts/Library.sol\":2548:2563  isAlreadyIssued */\n      0x07\n        /* \"contracts/Library.sol\":2548:2575  isAlreadyIssued[msg.sender] */\n      0x00\n        /* \"contracts/Library.sol\":2564:2574  msg.sender */\n      caller\n        /* \"contracts/Library.sol\":2548:2575  isAlreadyIssued[msg.sender] */\n      0xffffffffffffffffffffffffffffffffffffffff\n      and\n      0xffffffffffffffffffffffffffffffffffffffff\n      and\n      dup2\n      mstore\n      0x20\n      add\n      swap1\n      dup2\n      mstore\n      0x20\n      add\n      0x00\n      keccak256\n        /* \"contracts/Library.sol\":2548:2582  isAlreadyIssued[msg.sender][index] */\n      0x00\n        /* \"contracts/Library.sol\":2576:2581  index */\n      dup3\n        /* \"contracts/Library.sol\":2548:2582  isAlreadyIssued[msg.sender][index] */\n      0xffffffff\n      and\n      dup2\n      mstore\n      0x20\n      add\n      swap1\n      dup2\n      mstore\n      0x20\n      add\n      0x00\n      keccak256\n      0x00\n      swap1\n      sload\n      swap1\n      0x0100\n      exp\n      swap1\n      div\n      0xff\n      and\n        /* \"contracts/Library.sol\":2547:2582  !isAlreadyIssued[msg.sender][index] */\n      iszero\n        /* \"contracts/Library.sol\":2547:2628  !isAlreadyIssued[msg.sender][index] &&\r... */\n      dup1\n      iszero\n      tag_135\n      jumpi\n      pop\n        /* \"contracts/Library.sol\":2627:2628  0 */\n      0x00\n        /* \"contracts/Library.sol\":2600:2610  BookLedger */\n      0x06\n        /* \"contracts/Library.sol\":2600:2617  BookLedger[index] */\n      0x00\n        /* \"contracts/Library.sol\":2611:2616  index */\n      dup4\n        /* \"contracts/Library.sol\":2600:2617  BookLedger[index] */\n      0xffffffff\n      and\n      0xffffffff\n      and\n      dup2\n      mstore\n      0x20\n      add\n      swap1\n      dup2\n      mstore\n      0x20\n      add\n      0x00\n      keccak256\n        /* \"contracts/Library.sol\":2600:2624  BookLedger[index].copies */\n      0x01\n      add\n      0x00\n      swap1\n      sload\n      swap1\n      0x0100\n      exp\n      swap1\n      div\n      0xffffffff\n      and\n        /* \"contracts/Library.sol\":2600:2628  BookLedger[index].copies > 0 */\n      0xffffffff\n      and\n      gt\n        /* \"contracts/Library.sol\":2547:2628  !isAlreadyIssued[msg.sender][index] &&\r... */\n    tag_135:\n        /* \"contracts/Library.sol\":2543:2726  if (!isAlreadyIssued[msg.sender][index] &&\r... */\n      iszero\n      tag_136\n      jumpi\n        /* \"contracts/Library.sol\":2672:2677  index */\n      dup1\n        /* \"contracts/Library.sol\":2649:2655  result */\n      dup3\n        /* \"contracts/Library.sol\":2656:2668  currentIndex */\n      dup5\n        /* \"contracts/Library.sol\":2649:2669  result[currentIndex] */\n      0xffffffff\n      and\n      dup2\n      mload\n      dup2\n      lt\n      tag_137\n      jumpi\n      tag_138\n      tag_94\n      jump\t// in\n    tag_138:\n    tag_137:\n      0x20\n      mul\n      0x20\n      add\n      add\n        /* \"contracts/Library.sol\":2649:2677  result[currentIndex] = index */\n      swap1\n      0xffffffff\n      and\n      swap1\n      dup2\n      0xffffffff\n      and\n      dup2\n      mstore\n      pop\n      pop\n        /* \"contracts/Library.sol\":2696:2710  currentIndex++ */\n      dup3\n      dup1\n      tag_139\n      swap1\n      tag_96\n      jump\t// in\n    tag_139:\n      swap4\n      pop\n      pop\n        /* \"contracts/Library.sol\":2543:2726  if (!isAlreadyIssued[msg.sender][index] &&\r... */\n    tag_136:\n        /* \"contracts/Library.sol\":2519:2526  index++ */\n      dup1\n      dup1\n      tag_140\n      swap1\n      tag_96\n      jump\t// in\n    tag_140:\n      swap2\n      pop\n      pop\n        /* \"contracts/Library.sol\":2476:2737  for (uint32 index = 1; index <= bookCount; index++) {\r... */\n      jump(tag_132)\n    tag_133:\n      pop\n        /* \"contracts/Library.sol\":2754:2760  result */\n      dup1\n        /* \"contracts/Library.sol\":2747:2760  return result */\n      swap3\n      pop\n      pop\n      pop\n        /* \"contracts/Library.sol\":2046:2768  function getAllAvailableBooks() external view returns (uint32[] memory) {\r... */\n      swap1\n      jump\t// out\n        /* \"contracts/Library.sol\":1045:1350  function addBookCopies(uint32 _bookId, uint32 _copies)\r... */\n    tag_57:\n        /* \"@openzeppelin/contracts/access/Ownable.sol\":1094:1107  _checkOwner() */\n      tag_142\n        /* \"@openzeppelin/contracts/access/Ownable.sol\":1094:1105  _checkOwner */\n      tag_80\n        /* \"@openzeppelin/contracts/access/Ownable.sol\":1094:1107  _checkOwner() */\n      jump\t// in\n    tag_142:\n        /* \"contracts/Library.sol\":1171:1172  0 */\n      0x00\n        /* \"contracts/Library.sol\":1161:1168  _copies */\n      dup2\n        /* \"contracts/Library.sol\":1161:1172  _copies > 0 */\n      0xffffffff\n      and\n      gt\n        /* \"contracts/Library.sol\":1153:1182  require(_copies > 0, \"!zero\") */\n      tag_144\n      jumpi\n      mload(0x40)\n      0x08c379a000000000000000000000000000000000000000000000000000000000\n      dup2\n      mstore\n      0x04\n      add\n      tag_145\n      swap1\n      tag_146\n      jump\t// in\n    tag_145:\n      mload(0x40)\n      dup1\n      swap2\n      sub\n      swap1\n      revert\n    tag_144:\n        /* \"contracts/Library.sol\":1193:1210  Book storage book */\n      0x00\n        /* \"contracts/Library.sol\":1213:1223  BookLedger */\n      0x06\n        /* \"contracts/Library.sol\":1213:1232  BookLedger[_bookId] */\n      0x00\n        /* \"contracts/Library.sol\":1224:1231  _bookId */\n      dup5\n        /* \"contracts/Library.sol\":1213:1232  BookLedger[_bookId] */\n      0xffffffff\n      and\n      0xffffffff\n      and\n      dup2\n      mstore\n      0x20\n      add\n      swap1\n      dup2\n      mstore\n      0x20\n      add\n      0x00\n      keccak256\n        /* \"contracts/Library.sol\":1193:1232  Book storage book = BookLedger[_bookId] */\n      swap1\n      pop\n        /* \"contracts/Library.sol\":1278:1279  0 */\n      0x00\n        /* \"contracts/Library.sol\":1257:1261  book */\n      dup2\n        /* \"contracts/Library.sol\":1257:1266  book.name */\n      0x00\n      add\n        /* \"contracts/Library.sol\":1251:1274  bytes(book.name).length */\n      dup1\n      sload\n      tag_147\n      swap1\n      tag_73\n      jump\t// in\n    tag_147:\n      swap1\n      pop\n        /* \"contracts/Library.sol\":1251:1279  bytes(book.name).length != 0 */\n      eq\n      iszero\n        /* \"contracts/Library.sol\":1243:1303  require(bytes(book.name).length != 0, \"Book does not exist\") */\n      tag_148\n      jumpi\n      mload(0x40)\n      0x08c379a000000000000000000000000000000000000000000000000000000000\n      dup2\n      mstore\n      0x04\n      add\n      tag_149\n      swap1\n      tag_150\n      jump\t// in\n    tag_149:\n      mload(0x40)\n      dup1\n      swap2\n      sub\n      swap1\n      revert\n    tag_148:\n        /* \"contracts/Library.sol\":1341:1342  1 */\n      0x01\n        /* \"contracts/Library.sol\":1328:1332  book */\n      dup2\n        /* \"contracts/Library.sol\":1328:1339  book.copies */\n      0x01\n      add\n      0x00\n        /* \"contracts/Library.sol\":1328:1342  book.copies+=1 */\n      dup3\n      dup3\n      dup3\n      swap1\n      sload\n      swap1\n      0x0100\n      exp\n      swap1\n      div\n      0xffffffff\n      and\n      tag_151\n      swap2\n      swap1\n      tag_63\n      jump\t// in\n    tag_151:\n      swap3\n      pop\n      0x0100\n      exp\n      dup2\n      sload\n      dup2\n      0xffffffff\n      mul\n      not\n      and\n      swap1\n      dup4\n      0xffffffff\n      and\n      mul\n      or\n      swap1\n      sstore\n        /* \"contracts/Library.sol\":1314:1318  book */\n      dup2\n        /* \"contracts/Library.sol\":1314:1325  book.copies */\n      0x01\n      add\n      0x00\n        /* \"contracts/Library.sol\":1314:1342  book.copies = book.copies+=1 */\n      0x0100\n      exp\n      dup2\n      sload\n      dup2\n      0xffffffff\n      mul\n      not\n      and\n      swap1\n      dup4\n      0xffffffff\n      and\n      mul\n      or\n      swap1\n      sstore\n      pop\n        /* \"contracts/Library.sol\":1142:1350  {\r... */\n      pop\n        /* \"contracts/Library.sol\":1045:1350  function addBookCopies(uint32 _bookId, uint32 _copies)\r... */\n      pop\n      pop\n      jump\t// out\n        /* \"@openzeppelin/contracts/access/Ownable.sol\":1359:1489  function _checkOwner() internal view virtual {... */\n    tag_80:\n        /* \"@openzeppelin/contracts/access/Ownable.sol\":1433:1445  _msgSender() */\n      tag_153\n        /* \"@openzeppelin/contracts/access/Ownable.sol\":1433:1443  _msgSender */\n      tag_154\n        /* \"@openzeppelin/contracts/access/Ownable.sol\":1433:1445  _msgSender() */\n      jump\t// in\n    tag_153:\n        /* \"@openzeppelin/contracts/access/Ownable.sol\":1422:1445  owner() == _msgSender() */\n      0xffffffffffffffffffffffffffffffffffffffff\n      and\n        /* \"@openzeppelin/contracts/access/Ownable.sol\":1422:1429  owner() */\n      tag_155\n        /* \"@openzeppelin/contracts/access/Ownable.sol\":1422:1427  owner */\n      tag_35\n        /* \"@openzeppelin/contracts/access/Ownable.sol\":1422:1429  owner() */\n      jump\t// in\n    tag_155:\n        /* \"@openzeppelin/contracts/access/Ownable.sol\":1422:1445  owner() == _msgSender() */\n      0xffffffffffffffffffffffffffffffffffffffff\n      and\n      eq\n        /* \"@openzeppelin/contracts/access/Ownable.sol\":1414:1482  require(owner() == _msgSender(), \"Ownable: caller is not the owner\") */\n      tag_156\n      jumpi\n      mload(0x40)\n      0x08c379a000000000000000000000000000000000000000000000000000000000\n      dup2\n      mstore\n      0x04\n      add\n      tag_157\n      swap1\n      tag_158\n      jump\t// in\n    tag_157:\n      mload(0x40)\n      dup1\n      swap2\n      sub\n      swap1\n      revert\n    tag_156:\n        /* \"@openzeppelin/contracts/access/Ownable.sol\":1359:1489  function _checkOwner() internal view virtual {... */\n      jump\t// out\n        /* \"@openzeppelin/contracts/access/Ownable.sol\":2433:2620  function _transferOwnership(address newOwner) internal virtual {... */\n    tag_83:\n        /* \"@openzeppelin/contracts/access/Ownable.sol\":2506:2522  address oldOwner */\n      0x00\n        /* \"@openzeppelin/contracts/access/Ownable.sol\":2525:2531  _owner */\n      dup1\n      0x00\n      swap1\n      sload\n      swap1\n      0x0100\n      exp\n      swap1\n      div\n      0xffffffffffffffffffffffffffffffffffffffff\n      and\n        /* \"@openzeppelin/contracts/access/Ownable.sol\":2506:2531  address oldOwner = _owner */\n      swap1\n      pop\n        /* \"@openzeppelin/contracts/access/Ownable.sol\":2550:2558  newOwner */\n      dup2\n        /* \"@openzeppelin/contracts/access/Ownable.sol\":2541:2547  _owner */\n      0x00\n      dup1\n        /* \"@openzeppelin/contracts/access/Ownable.sol\":2541:2558  _owner = newOwner */\n      0x0100\n      exp\n      dup2\n      sload\n      dup2\n      0xffffffffffffffffffffffffffffffffffffffff\n      mul\n      not\n      and\n      swap1\n      dup4\n      0xffffffffffffffffffffffffffffffffffffffff\n      and\n      mul\n      or\n      swap1\n      sstore\n      pop\n        /* \"@openzeppelin/contracts/access/Ownable.sol\":2604:2612  newOwner */\n      dup2\n        /* \"@openzeppelin/contracts/access/Ownable.sol\":2573:2613  OwnershipTransferred(oldOwner, newOwner) */\n      0xffffffffffffffffffffffffffffffffffffffff\n      and\n        /* \"@openzeppelin/contracts/access/Ownable.sol\":2594:2602  oldOwner */\n      dup2\n        /* \"@openzeppelin/contracts/access/Ownable.sol\":2573:2613  OwnershipTransferred(oldOwner, newOwner) */\n      0xffffffffffffffffffffffffffffffffffffffff\n      and\n      0x8be0079c531659141344cd1fd0a4f28419497f9722a3daafe3b4186f6b6457e0\n      mload(0x40)\n      mload(0x40)\n      dup1\n      swap2\n      sub\n      swap1\n      log3\n        /* \"@openzeppelin/contracts/access/Ownable.sol\":2496:2620  {... */\n      pop\n        /* \"@openzeppelin/contracts/access/Ownable.sol\":2433:2620  function _transferOwnership(address newOwner) internal virtual {... */\n      pop\n      jump\t// out\n        /* \"@openzeppelin/contracts/utils/Context.sol\":640:736  function _msgSender() internal view virtual returns (address) {... */\n    tag_154:\n        /* \"@openzeppelin/contracts/utils/Context.sol\":693:700  address */\n      0x00\n        /* \"@openzeppelin/contracts/utils/Context.sol\":719:729  msg.sender */\n      caller\n        /* \"@openzeppelin/contracts/utils/Context.sol\":712:729  return msg.sender */\n      swap1\n      pop\n        /* \"@openzeppelin/contracts/utils/Context.sol\":640:736  function _msgSender() internal view virtual returns (address) {... */\n      swap1\n      jump\t// out\n    tag_113:\n      dup3\n      dup1\n      sload\n      tag_161\n      swap1\n      tag_73\n      jump\t// in\n    tag_161:\n      swap1\n      0x00\n      mstore\n      keccak256(0x00, 0x20)\n      swap1\n      0x1f\n      add\n      0x20\n      swap1\n      div\n      dup2\n      add\n      swap3\n      dup3\n      tag_163\n      jumpi\n      0x00\n      dup6\n      sstore\n      jump(tag_162)\n    tag_163:\n      dup3\n      0x1f\n      lt\n      tag_164\n      jumpi\n      dup1\n      mload\n      not(0xff)\n      and\n      dup4\n      dup1\n      add\n      or\n      dup6\n      sstore\n      jump(tag_162)\n    tag_164:\n      dup3\n      dup1\n      add\n      0x01\n      add\n      dup6\n      sstore\n      dup3\n      iszero\n      tag_162\n      jumpi\n      swap2\n      dup3\n      add\n    tag_165:\n      dup3\n      dup2\n      gt\n      iszero\n      tag_166\n      jumpi\n      dup3\n      mload\n      dup3\n      sstore\n      swap2\n      0x20\n      add\n      swap2\n      swap1\n      0x01\n      add\n      swap1\n      jump(tag_165)\n    tag_166:\n    tag_162:\n      pop\n      swap1\n      pop\n      tag_167\n      swap2\n      swap1\n      tag_168\n      jump\t// in\n    tag_167:\n      pop\n      swap1\n      jump\t// out\n    tag_168:\n    tag_169:\n      dup1\n      dup3\n      gt\n      iszero\n      tag_170\n      jumpi\n      0x00\n      dup2\n      0x00\n      swap1\n      sstore\n      pop\n      0x01\n      add\n      jump(tag_169)\n    tag_170:\n      pop\n      swap1\n      jump\t// out\n        /* \"#utility.yul\":7:419   */\n    tag_172:\n        /* \"#utility.yul\":85:90   */\n      0x00\n        /* \"#utility.yul\":110:176   */\n      tag_174\n        /* \"#utility.yul\":126:175   */\n      tag_175\n        /* \"#utility.yul\":168:174   */\n      dup5\n        /* \"#utility.yul\":126:175   */\n      tag_176\n      jump\t// in\n    tag_175:\n        /* \"#utility.yul\":110:176   */\n      tag_177\n      jump\t// in\n    tag_174:\n        /* \"#utility.yul\":101:176   */\n      swap1\n      pop\n        /* \"#utility.yul\":199:205   */\n      dup3\n        /* \"#utility.yul\":192:197   */\n      dup2\n        /* \"#utility.yul\":185:206   */\n      mstore\n        /* \"#utility.yul\":237:241   */\n      0x20\n        /* \"#utility.yul\":230:235   */\n      dup2\n        /* \"#utility.yul\":226:242   */\n      add\n        /* \"#utility.yul\":275:278   */\n      dup5\n        /* \"#utility.yul\":266:272   */\n      dup5\n        /* \"#utility.yul\":261:264   */\n      dup5\n        /* \"#utility.yul\":257:273   */\n      add\n        /* \"#utility.yul\":254:279   */\n      gt\n        /* \"#utility.yul\":251:363   */\n      iszero\n      tag_178\n      jumpi\n        /* \"#utility.yul\":282:361   */\n      tag_179\n      tag_180\n      jump\t// in\n    tag_179:\n        /* \"#utility.yul\":251:363   */\n    tag_178:\n        /* \"#utility.yul\":372:413   */\n      tag_181\n        /* \"#utility.yul\":406:412   */\n      dup5\n        /* \"#utility.yul\":401:404   */\n      dup3\n        /* \"#utility.yul\":396:399   */\n      dup6\n        /* \"#utility.yul\":372:413   */\n      tag_182\n      jump\t// in\n    tag_181:\n        /* \"#utility.yul\":91:419   */\n      pop\n        /* \"#utility.yul\":7:419   */\n      swap4\n      swap3\n      pop\n      pop\n      pop\n      jump\t// out\n        /* \"#utility.yul\":425:564   */\n    tag_183:\n        /* \"#utility.yul\":471:476   */\n      0x00\n        /* \"#utility.yul\":509:515   */\n      dup2\n        /* \"#utility.yul\":496:516   */\n      calldataload\n        /* \"#utility.yul\":487:516   */\n      swap1\n      pop\n        /* \"#utility.yul\":525:558   */\n      tag_185\n        /* \"#utility.yul\":552:557   */\n      dup2\n        /* \"#utility.yul\":525:558   */\n      tag_186\n      jump\t// in\n    tag_185:\n        /* \"#utility.yul\":425:564   */\n      swap3\n      swap2\n      pop\n      pop\n      jump\t// out\n        /* \"#utility.yul\":584:924   */\n    tag_187:\n        /* \"#utility.yul\":640:645   */\n      0x00\n        /* \"#utility.yul\":689:692   */\n      dup3\n        /* \"#utility.yul\":682:686   */\n      0x1f\n        /* \"#utility.yul\":674:680   */\n      dup4\n        /* \"#utility.yul\":670:687   */\n      add\n        /* \"#utility.yul\":666:693   */\n      slt\n        /* \"#utility.yul\":656:778   */\n      tag_189\n      jumpi\n        /* \"#utility.yul\":697:776   */\n      tag_190\n      tag_191\n      jump\t// in\n    tag_190:\n        /* \"#utility.yul\":656:778   */\n    tag_189:\n        /* \"#utility.yul\":814:820   */\n      dup2\n        /* \"#utility.yul\":801:821   */\n      calldataload\n        /* \"#utility.yul\":839:918   */\n      tag_192\n        /* \"#utility.yul\":914:917   */\n      dup5\n        /* \"#utility.yul\":906:912   */\n      dup3\n        /* \"#utility.yul\":899:903   */\n      0x20\n        /* \"#utility.yul\":891:897   */\n      dup7\n        /* \"#utility.yul\":887:904   */\n      add\n        /* \"#utility.yul\":839:918   */\n      tag_172\n      jump\t// in\n    tag_192:\n        /* \"#utility.yul\":830:918   */\n      swap2\n      pop\n        /* \"#utility.yul\":646:924   */\n      pop\n        /* \"#utility.yul\":584:924   */\n      swap3\n      swap2\n      pop\n      pop\n      jump\t// out\n        /* \"#utility.yul\":930:1067   */\n    tag_193:\n        /* \"#utility.yul\":975:980   */\n      0x00\n        /* \"#utility.yul\":1013:1019   */\n      dup2\n        /* \"#utility.yul\":1000:1020   */\n      calldataload\n        /* \"#utility.yul\":991:1020   */\n      swap1\n      pop\n        /* \"#utility.yul\":1029:1061   */\n      tag_195\n        /* \"#utility.yul\":1055:1060   */\n      dup2\n        /* \"#utility.yul\":1029:1061   */\n      tag_196\n      jump\t// in\n    tag_195:\n        /* \"#utility.yul\":930:1067   */\n      swap3\n      swap2\n      pop\n      pop\n      jump\t// out\n        /* \"#utility.yul\":1073:1402   */\n    tag_48:\n        /* \"#utility.yul\":1132:1138   */\n      0x00\n        /* \"#utility.yul\":1181:1183   */\n      0x20\n        /* \"#utility.yul\":1169:1178   */\n      dup3\n        /* \"#utility.yul\":1160:1167   */\n      dup5\n        /* \"#utility.yul\":1156:1179   */\n      sub\n        /* \"#utility.yul\":1152:1184   */\n      slt\n        /* \"#utility.yul\":1149:1268   */\n      iszero\n      tag_198\n      jumpi\n        /* \"#utility.yul\":1187:1266   */\n      tag_199\n      tag_200\n      jump\t// in\n    tag_199:\n        /* \"#utility.yul\":1149:1268   */\n    tag_198:\n        /* \"#utility.yul\":1307:1308   */\n      0x00\n        /* \"#utility.yul\":1332:1385   */\n      tag_201\n        /* \"#utility.yul\":1377:1384   */\n      dup5\n        /* \"#utility.yul\":1368:1374   */\n      dup3\n        /* \"#utility.yul\":1357:1366   */\n      dup6\n        /* \"#utility.yul\":1353:1375   */\n      add\n        /* \"#utility.yul\":1332:1385   */\n      tag_183\n      jump\t// in\n    tag_201:\n        /* \"#utility.yul\":1322:1385   */\n      swap2\n      pop\n        /* \"#utility.yul\":1278:1395   */\n      pop\n        /* \"#utility.yul\":1073:1402   */\n      swap3\n      swap2\n      pop\n      pop\n      jump\t// out\n        /* \"#utility.yul\":1408:2060   */\n    tag_44:\n        /* \"#utility.yul\":1485:1491   */\n      0x00\n        /* \"#utility.yul\":1493:1499   */\n      dup1\n        /* \"#utility.yul\":1542:1544   */\n      0x40\n        /* \"#utility.yul\":1530:1539   */\n      dup4\n        /* \"#utility.yul\":1521:1528   */\n      dup6\n        /* \"#utility.yul\":1517:1540   */\n      sub\n        /* \"#utility.yul\":1513:1545   */\n      slt\n        /* \"#utility.yul\":1510:1629   */\n      iszero\n      tag_203\n      jumpi\n        /* \"#utility.yul\":1548:1627   */\n      tag_204\n      tag_200\n      jump\t// in\n    tag_204:\n        /* \"#utility.yul\":1510:1629   */\n    tag_203:\n        /* \"#utility.yul\":1696:1697   */\n      0x00\n        /* \"#utility.yul\":1685:1694   */\n      dup4\n        /* \"#utility.yul\":1681:1698   */\n      add\n        /* \"#utility.yul\":1668:1699   */\n      calldataload\n        /* \"#utility.yul\":1726:1744   */\n      0xffffffffffffffff\n        /* \"#utility.yul\":1718:1724   */\n      dup2\n        /* \"#utility.yul\":1715:1745   */\n      gt\n        /* \"#utility.yul\":1712:1829   */\n      iszero\n      tag_205\n      jumpi\n        /* \"#utility.yul\":1748:1827   */\n      tag_206\n      tag_207\n      jump\t// in\n    tag_206:\n        /* \"#utility.yul\":1712:1829   */\n    tag_205:\n        /* \"#utility.yul\":1853:1916   */\n      tag_208\n        /* \"#utility.yul\":1908:1915   */\n      dup6\n        /* \"#utility.yul\":1899:1905   */\n      dup3\n        /* \"#utility.yul\":1888:1897   */\n      dup7\n        /* \"#utility.yul\":1884:1906   */\n      add\n        /* \"#utility.yul\":1853:1916   */\n      tag_187\n      jump\t// in\n    tag_208:\n        /* \"#utility.yul\":1843:1916   */\n      swap3\n      pop\n        /* \"#utility.yul\":1639:1926   */\n      pop\n        /* \"#utility.yul\":1965:1967   */\n      0x20\n        /* \"#utility.yul\":1991:2043   */\n      tag_209\n        /* \"#utility.yul\":2035:2042   */\n      dup6\n        /* \"#utility.yul\":2026:2032   */\n      dup3\n        /* \"#utility.yul\":2015:2024   */\n      dup7\n        /* \"#utility.yul\":2011:2033   */\n      add\n        /* \"#utility.yul\":1991:2043   */\n      tag_193\n      jump\t// in\n    tag_209:\n        /* \"#utility.yul\":1981:2043   */\n      swap2\n      pop\n        /* \"#utility.yul\":1936:2053   */\n      pop\n        /* \"#utility.yul\":1408:2060   */\n      swap3\n      pop\n      swap3\n      swap1\n      pop\n      jump\t// out\n        /* \"#utility.yul\":2066:2393   */\n    tag_17:\n        /* \"#utility.yul\":2124:2130   */\n      0x00\n        /* \"#utility.yul\":2173:2175   */\n      0x20\n        /* \"#utility.yul\":2161:2170   */\n      dup3\n        /* \"#utility.yul\":2152:2159   */\n      dup5\n        /* \"#utility.yul\":2148:2171   */\n      sub\n        /* \"#utility.yul\":2144:2176   */\n      slt\n        /* \"#utility.yul\":2141:2260   */\n      iszero\n      tag_211\n      jumpi\n        /* \"#utility.yul\":2179:2258   */\n      tag_212\n      tag_200\n      jump\t// in\n    tag_212:\n        /* \"#utility.yul\":2141:2260   */\n    tag_211:\n        /* \"#utility.yul\":2299:2300   */\n      0x00\n        /* \"#utility.yul\":2324:2376   */\n      tag_213\n        /* \"#utility.yul\":2368:2375   */\n      dup5\n        /* \"#utility.yul\":2359:2365   */\n      dup3\n        /* \"#utility.yul\":2348:2357   */\n      dup6\n        /* \"#utility.yul\":2344:2366   */\n      add\n        /* \"#utility.yul\":2324:2376   */\n      tag_193\n      jump\t// in\n    tag_213:\n        /* \"#utility.yul\":2314:2376   */\n      swap2\n      pop\n        /* \"#utility.yul\":2270:2386   */\n      pop\n        /* \"#utility.yul\":2066:2393   */\n      swap3\n      swap2\n      pop\n      pop\n      jump\t// out\n        /* \"#utility.yul\":2399:2869   */\n    tag_56:\n        /* \"#utility.yul\":2465:2471   */\n      0x00\n        /* \"#utility.yul\":2473:2479   */\n      dup1\n        /* \"#utility.yul\":2522:2524   */\n      0x40\n        /* \"#utility.yul\":2510:2519   */\n      dup4\n        /* \"#utility.yul\":2501:2508   */\n      dup6\n        /* \"#utility.yul\":2497:2520   */\n      sub\n        /* \"#utility.yul\":2493:2525   */\n      slt\n        /* \"#utility.yul\":2490:2609   */\n      iszero\n      tag_215\n      jumpi\n        /* \"#utility.yul\":2528:2607   */\n      tag_216\n      tag_200\n      jump\t// in\n    tag_216:\n        /* \"#utility.yul\":2490:2609   */\n    tag_215:\n        /* \"#utility.yul\":2648:2649   */\n      0x00\n        /* \"#utility.yul\":2673:2725   */\n      tag_217\n        /* \"#utility.yul\":2717:2724   */\n      dup6\n        /* \"#utility.yul\":2708:2714   */\n      dup3\n        /* \"#utility.yul\":2697:2706   */\n      dup7\n        /* \"#utility.yul\":2693:2715   */\n      add\n        /* \"#utility.yul\":2673:2725   */\n      tag_193\n      jump\t// in\n    tag_217:\n        /* \"#utility.yul\":2663:2725   */\n      swap3\n      pop\n        /* \"#utility.yul\":2619:2735   */\n      pop\n        /* \"#utility.yul\":2774:2776   */\n      0x20\n        /* \"#utility.yul\":2800:2852   */\n      tag_218\n        /* \"#utility.yul\":2844:2851   */\n      dup6\n        /* \"#utility.yul\":2835:2841   */\n      dup3\n        /* \"#utility.yul\":2824:2833   */\n      dup7\n        /* \"#utility.yul\":2820:2842   */\n      add\n        /* \"#utility.yul\":2800:2852   */\n      tag_193\n      jump\t// in\n    tag_218:\n        /* \"#utility.yul\":2790:2852   */\n      swap2\n      pop\n        /* \"#utility.yul\":2745:2862   */\n      pop\n        /* \"#utility.yul\":2399:2869   */\n      swap3\n      pop\n      swap3\n      swap1\n      pop\n      jump\t// out\n        /* \"#utility.yul\":2875:3054   */\n    tag_219:\n        /* \"#utility.yul\":2944:2954   */\n      0x00\n        /* \"#utility.yul\":2965:3011   */\n      tag_221\n        /* \"#utility.yul\":3007:3010   */\n      dup4\n        /* \"#utility.yul\":2999:3005   */\n      dup4\n        /* \"#utility.yul\":2965:3011   */\n      tag_222\n      jump\t// in\n    tag_221:\n        /* \"#utility.yul\":3043:3047   */\n      0x20\n        /* \"#utility.yul\":3038:3041   */\n      dup4\n        /* \"#utility.yul\":3034:3048   */\n      add\n        /* \"#utility.yul\":3020:3048   */\n      swap1\n      pop\n        /* \"#utility.yul\":2875:3054   */\n      swap3\n      swap2\n      pop\n      pop\n      jump\t// out\n        /* \"#utility.yul\":3060:3235   */\n    tag_223:\n        /* \"#utility.yul\":3127:3137   */\n      0x00\n        /* \"#utility.yul\":3148:3192   */\n      tag_225\n        /* \"#utility.yul\":3188:3191   */\n      dup4\n        /* \"#utility.yul\":3180:3186   */\n      dup4\n        /* \"#utility.yul\":3148:3192   */\n      tag_226\n      jump\t// in\n    tag_225:\n        /* \"#utility.yul\":3224:3228   */\n      0x20\n        /* \"#utility.yul\":3219:3222   */\n      dup4\n        /* \"#utility.yul\":3215:3229   */\n      add\n        /* \"#utility.yul\":3201:3229   */\n      swap1\n      pop\n        /* \"#utility.yul\":3060:3235   */\n      swap3\n      swap2\n      pop\n      pop\n      jump\t// out\n        /* \"#utility.yul\":3241:3349   */\n    tag_222:\n        /* \"#utility.yul\":3318:3342   */\n      tag_228\n        /* \"#utility.yul\":3336:3341   */\n      dup2\n        /* \"#utility.yul\":3318:3342   */\n      tag_229\n      jump\t// in\n    tag_228:\n        /* \"#utility.yul\":3313:3316   */\n      dup3\n        /* \"#utility.yul\":3306:3343   */\n      mstore\n        /* \"#utility.yul\":3241:3349   */\n      pop\n      pop\n      jump\t// out\n        /* \"#utility.yul\":3355:3473   */\n    tag_230:\n        /* \"#utility.yul\":3442:3466   */\n      tag_232\n        /* \"#utility.yul\":3460:3465   */\n      dup2\n        /* \"#utility.yul\":3442:3466   */\n      tag_229\n      jump\t// in\n    tag_232:\n        /* \"#utility.yul\":3437:3440   */\n      dup3\n        /* \"#utility.yul\":3430:3467   */\n      mstore\n        /* \"#utility.yul\":3355:3473   */\n      pop\n      pop\n      jump\t// out\n        /* \"#utility.yul\":3509:4241   */\n    tag_233:\n        /* \"#utility.yul\":3628:3631   */\n      0x00\n        /* \"#utility.yul\":3657:3711   */\n      tag_235\n        /* \"#utility.yul\":3705:3710   */\n      dup3\n        /* \"#utility.yul\":3657:3711   */\n      tag_236\n      jump\t// in\n    tag_235:\n        /* \"#utility.yul\":3727:3813   */\n      tag_237\n        /* \"#utility.yul\":3806:3812   */\n      dup2\n        /* \"#utility.yul\":3801:3804   */\n      dup6\n        /* \"#utility.yul\":3727:3813   */\n      tag_238\n      jump\t// in\n    tag_237:\n        /* \"#utility.yul\":3720:3813   */\n      swap4\n      pop\n        /* \"#utility.yul\":3837:3893   */\n      tag_239\n        /* \"#utility.yul\":3887:3892   */\n      dup4\n        /* \"#utility.yul\":3837:3893   */\n      tag_240\n      jump\t// in\n    tag_239:\n        /* \"#utility.yul\":3916:3923   */\n      dup1\n        /* \"#utility.yul\":3947:3948   */\n      0x00\n        /* \"#utility.yul\":3932:4216   */\n    tag_241:\n        /* \"#utility.yul\":3957:3963   */\n      dup4\n        /* \"#utility.yul\":3954:3955   */\n      dup2\n        /* \"#utility.yul\":3951:3964   */\n      lt\n        /* \"#utility.yul\":3932:4216   */\n      iszero\n      tag_243\n      jumpi\n        /* \"#utility.yul\":4033:4039   */\n      dup2\n        /* \"#utility.yul\":4027:4040   */\n      mload\n        /* \"#utility.yul\":4060:4123   */\n      tag_244\n        /* \"#utility.yul\":4119:4122   */\n      dup9\n        /* \"#utility.yul\":4104:4117   */\n      dup3\n        /* \"#utility.yul\":4060:4123   */\n      tag_219\n      jump\t// in\n    tag_244:\n        /* \"#utility.yul\":4053:4123   */\n      swap8\n      pop\n        /* \"#utility.yul\":4146:4206   */\n      tag_245\n        /* \"#utility.yul\":4199:4205   */\n      dup4\n        /* \"#utility.yul\":4146:4206   */\n      tag_246\n      jump\t// in\n    tag_245:\n        /* \"#utility.yul\":4136:4206   */\n      swap3\n      pop\n        /* \"#utility.yul\":3992:4216   */\n      pop\n        /* \"#utility.yul\":3979:3980   */\n      0x01\n        /* \"#utility.yul\":3976:3977   */\n      dup2\n        /* \"#utility.yul\":3972:3981   */\n      add\n        /* \"#utility.yul\":3967:3981   */\n      swap1\n      pop\n        /* \"#utility.yul\":3932:4216   */\n      jump(tag_241)\n    tag_243:\n        /* \"#utility.yul\":3936:3950   */\n      pop\n        /* \"#utility.yul\":4232:4235   */\n      dup6\n        /* \"#utility.yul\":4225:4235   */\n      swap4\n      pop\n        /* \"#utility.yul\":3633:4241   */\n      pop\n      pop\n      pop\n        /* \"#utility.yul\":3509:4241   */\n      swap3\n      swap2\n      pop\n      pop\n      jump\t// out\n        /* \"#utility.yul\":4275:4999   */\n    tag_247:\n        /* \"#utility.yul\":4392:4395   */\n      0x00\n        /* \"#utility.yul\":4421:4474   */\n      tag_249\n        /* \"#utility.yul\":4468:4473   */\n      dup3\n        /* \"#utility.yul\":4421:4474   */\n      tag_250\n      jump\t// in\n    tag_249:\n        /* \"#utility.yul\":4490:4575   */\n      tag_251\n        /* \"#utility.yul\":4568:4574   */\n      dup2\n        /* \"#utility.yul\":4563:4566   */\n      dup6\n        /* \"#utility.yul\":4490:4575   */\n      tag_252\n      jump\t// in\n    tag_251:\n        /* \"#utility.yul\":4483:4575   */\n      swap4\n      pop\n        /* \"#utility.yul\":4599:4654   */\n      tag_253\n        /* \"#utility.yul\":4648:4653   */\n      dup4\n        /* \"#utility.yul\":4599:4654   */\n      tag_254\n      jump\t// in\n    tag_253:\n        /* \"#utility.yul\":4677:4684   */\n      dup1\n        /* \"#utility.yul\":4708:4709   */\n      0x00\n        /* \"#utility.yul\":4693:4974   */\n    tag_255:\n        /* \"#utility.yul\":4718:4724   */\n      dup4\n        /* \"#utility.yul\":4715:4716   */\n      dup2\n        /* \"#utility.yul\":4712:4725   */\n      lt\n        /* \"#utility.yul\":4693:4974   */\n      iszero\n      tag_257\n      jumpi\n        /* \"#utility.yul\":4794:4800   */\n      dup2\n        /* \"#utility.yul\":4788:4801   */\n      mload\n        /* \"#utility.yul\":4821:4882   */\n      tag_258\n        /* \"#utility.yul\":4878:4881   */\n      dup9\n        /* \"#utility.yul\":4863:4876   */\n      dup3\n        /* \"#utility.yul\":4821:4882   */\n      tag_223\n      jump\t// in\n    tag_258:\n        /* \"#utility.yul\":4814:4882   */\n      swap8\n      pop\n        /* \"#utility.yul\":4905:4964   */\n      tag_259\n        /* \"#utility.yul\":4957:4963   */\n      dup4\n        /* \"#utility.yul\":4905:4964   */\n      tag_260\n      jump\t// in\n    tag_259:\n        /* \"#utility.yul\":4895:4964   */\n      swap3\n      pop\n        /* \"#utility.yul\":4753:4974   */\n      pop\n        /* \"#utility.yul\":4740:4741   */\n      0x01\n        /* \"#utility.yul\":4737:4738   */\n      dup2\n        /* \"#utility.yul\":4733:4742   */\n      add\n        /* \"#utility.yul\":4728:4742   */\n      swap1\n      pop\n        /* \"#utility.yul\":4693:4974   */\n      jump(tag_255)\n    tag_257:\n        /* \"#utility.yul\":4697:4711   */\n      pop\n        /* \"#utility.yul\":4990:4993   */\n      dup6\n        /* \"#utility.yul\":4983:4993   */\n      swap4\n      pop\n        /* \"#utility.yul\":4397:4999   */\n      pop\n      pop\n      pop\n        /* \"#utility.yul\":4275:4999   */\n      swap3\n      swap2\n      pop\n      pop\n      jump\t// out\n        /* \"#utility.yul\":5005:5369   */\n    tag_261:\n        /* \"#utility.yul\":5093:5096   */\n      0x00\n        /* \"#utility.yul\":5121:5160   */\n      tag_263\n        /* \"#utility.yul\":5154:5159   */\n      dup3\n        /* \"#utility.yul\":5121:5160   */\n      tag_264\n      jump\t// in\n    tag_263:\n        /* \"#utility.yul\":5176:5247   */\n      tag_265\n        /* \"#utility.yul\":5240:5246   */\n      dup2\n        /* \"#utility.yul\":5235:5238   */\n      dup6\n        /* \"#utility.yul\":5176:5247   */\n      tag_266\n      jump\t// in\n    tag_265:\n        /* \"#utility.yul\":5169:5247   */\n      swap4\n      pop\n        /* \"#utility.yul\":5256:5308   */\n      tag_267\n        /* \"#utility.yul\":5301:5307   */\n      dup2\n        /* \"#utility.yul\":5296:5299   */\n      dup6\n        /* \"#utility.yul\":5289:5293   */\n      0x20\n        /* \"#utility.yul\":5282:5287   */\n      dup7\n        /* \"#utility.yul\":5278:5294   */\n      add\n        /* \"#utility.yul\":5256:5308   */\n      tag_268\n      jump\t// in\n    tag_267:\n        /* \"#utility.yul\":5333:5362   */\n      tag_269\n        /* \"#utility.yul\":5355:5361   */\n      dup2\n        /* \"#utility.yul\":5333:5362   */\n      tag_270\n      jump\t// in\n    tag_269:\n        /* \"#utility.yul\":5328:5331   */\n      dup5\n        /* \"#utility.yul\":5324:5363   */\n      add\n        /* \"#utility.yul\":5317:5363   */\n      swap2\n      pop\n        /* \"#utility.yul\":5097:5369   */\n      pop\n        /* \"#utility.yul\":5005:5369   */\n      swap3\n      swap2\n      pop\n      pop\n      jump\t// out\n        /* \"#utility.yul\":5375:5752   */\n    tag_271:\n        /* \"#utility.yul\":5481:5484   */\n      0x00\n        /* \"#utility.yul\":5509:5548   */\n      tag_273\n        /* \"#utility.yul\":5542:5547   */\n      dup3\n        /* \"#utility.yul\":5509:5548   */\n      tag_264\n      jump\t// in\n    tag_273:\n        /* \"#utility.yul\":5564:5653   */\n      tag_274\n        /* \"#utility.yul\":5646:5652   */\n      dup2\n        /* \"#utility.yul\":5641:5644   */\n      dup6\n        /* \"#utility.yul\":5564:5653   */\n      tag_275\n      jump\t// in\n    tag_274:\n        /* \"#utility.yul\":5557:5653   */\n      swap4\n      pop\n        /* \"#utility.yul\":5662:5714   */\n      tag_276\n        /* \"#utility.yul\":5707:5713   */\n      dup2\n        /* \"#utility.yul\":5702:5705   */\n      dup6\n        /* \"#utility.yul\":5695:5699   */\n      0x20\n        /* \"#utility.yul\":5688:5693   */\n      dup7\n        /* \"#utility.yul\":5684:5700   */\n      add\n        /* \"#utility.yul\":5662:5714   */\n      tag_268\n      jump\t// in\n    tag_276:\n        /* \"#utility.yul\":5739:5745   */\n      dup1\n        /* \"#utility.yul\":5734:5737   */\n      dup5\n        /* \"#utility.yul\":5730:5746   */\n      add\n        /* \"#utility.yul\":5723:5746   */\n      swap2\n      pop\n        /* \"#utility.yul\":5485:5752   */\n      pop\n        /* \"#utility.yul\":5375:5752   */\n      swap3\n      swap2\n      pop\n      pop\n      jump\t// out\n        /* \"#utility.yul\":5758:6124   */\n    tag_277:\n        /* \"#utility.yul\":5900:5903   */\n      0x00\n        /* \"#utility.yul\":5921:5988   */\n      tag_279\n        /* \"#utility.yul\":5985:5987   */\n      0x14\n        /* \"#utility.yul\":5980:5983   */\n      dup4\n        /* \"#utility.yul\":5921:5988   */\n      tag_266\n      jump\t// in\n    tag_279:\n        /* \"#utility.yul\":5914:5988   */\n      swap2\n      pop\n        /* \"#utility.yul\":5997:6090   */\n      tag_280\n        /* \"#utility.yul\":6086:6089   */\n      dup3\n        /* \"#utility.yul\":5997:6090   */\n      tag_281\n      jump\t// in\n    tag_280:\n        /* \"#utility.yul\":6115:6117   */\n      0x20\n        /* \"#utility.yul\":6110:6113   */\n      dup3\n        /* \"#utility.yul\":6106:6118   */\n      add\n        /* \"#utility.yul\":6099:6118   */\n      swap1\n      pop\n        /* \"#utility.yul\":5758:6124   */\n      swap2\n      swap1\n      pop\n      jump\t// out\n        /* \"#utility.yul\":6130:6496   */\n    tag_282:\n        /* \"#utility.yul\":6272:6275   */\n      0x00\n        /* \"#utility.yul\":6293:6360   */\n      tag_284\n        /* \"#utility.yul\":6357:6359   */\n      0x11\n        /* \"#utility.yul\":6352:6355   */\n      dup4\n        /* \"#utility.yul\":6293:6360   */\n      tag_266\n      jump\t// in\n    tag_284:\n        /* \"#utility.yul\":6286:6360   */\n      swap2\n      pop\n        /* \"#utility.yul\":6369:6462   */\n      tag_285\n        /* \"#utility.yul\":6458:6461   */\n      dup3\n        /* \"#utility.yul\":6369:6462   */\n      tag_286\n      jump\t// in\n    tag_285:\n        /* \"#utility.yul\":6487:6489   */\n      0x20\n        /* \"#utility.yul\":6482:6485   */\n      dup3\n        /* \"#utility.yul\":6478:6490   */\n      add\n        /* \"#utility.yul\":6471:6490   */\n      swap1\n      pop\n        /* \"#utility.yul\":6130:6496   */\n      swap2\n      swap1\n      pop\n      jump\t// out\n        /* \"#utility.yul\":6502:6868   */\n    tag_287:\n        /* \"#utility.yul\":6644:6647   */\n      0x00\n        /* \"#utility.yul\":6665:6732   */\n      tag_289\n        /* \"#utility.yul\":6729:6731   */\n      0x16\n        /* \"#utility.yul\":6724:6727   */\n      dup4\n        /* \"#utility.yul\":6665:6732   */\n      tag_266\n      jump\t// in\n    tag_289:\n        /* \"#utility.yul\":6658:6732   */\n      swap2\n      pop\n        /* \"#utility.yul\":6741:6834   */\n      tag_290\n        /* \"#utility.yul\":6830:6833   */\n      dup3\n        /* \"#utility.yul\":6741:6834   */\n      tag_291\n      jump\t// in\n    tag_290:\n        /* \"#utility.yul\":6859:6861   */\n      0x20\n        /* \"#utility.yul\":6854:6857   */\n      dup3\n        /* \"#utility.yul\":6850:6862   */\n      add\n        /* \"#utility.yul\":6843:6862   */\n      swap1\n      pop\n        /* \"#utility.yul\":6502:6868   */\n      swap2\n      swap1\n      pop\n      jump\t// out\n        /* \"#utility.yul\":6874:7240   */\n    tag_292:\n        /* \"#utility.yul\":7016:7019   */\n      0x00\n        /* \"#utility.yul\":7037:7104   */\n      tag_294\n        /* \"#utility.yul\":7101:7103   */\n      0x26\n        /* \"#utility.yul\":7096:7099   */\n      dup4\n        /* \"#utility.yul\":7037:7104   */\n      tag_266\n      jump\t// in\n    tag_294:\n        /* \"#utility.yul\":7030:7104   */\n      swap2\n      pop\n        /* \"#utility.yul\":7113:7206   */\n      tag_295\n        /* \"#utility.yul\":7202:7205   */\n      dup3\n        /* \"#utility.yul\":7113:7206   */\n      tag_296\n      jump\t// in\n    tag_295:\n        /* \"#utility.yul\":7231:7233   */\n      0x40\n        /* \"#utility.yul\":7226:7229   */\n      dup3\n        /* \"#utility.yul\":7222:7234   */\n      add\n        /* \"#utility.yul\":7215:7234   */\n      swap1\n      pop\n        /* \"#utility.yul\":6874:7240   */\n      swap2\n      swap1\n      pop\n      jump\t// out\n        /* \"#utility.yul\":7246:7612   */\n    tag_297:\n        /* \"#utility.yul\":7388:7391   */\n      0x00\n        /* \"#utility.yul\":7409:7476   */\n      tag_299\n        /* \"#utility.yul\":7473:7475   */\n      0x12\n        /* \"#utility.yul\":7468:7471   */\n      dup4\n        /* \"#utility.yul\":7409:7476   */\n      tag_266\n      jump\t// in\n    tag_299:\n        /* \"#utility.yul\":7402:7476   */\n      swap2\n      pop\n        /* \"#utility.yul\":7485:7578   */\n      tag_300\n        /* \"#utility.yul\":7574:7577   */\n      dup3\n        /* \"#utility.yul\":7485:7578   */\n      tag_301\n      jump\t// in\n    tag_300:\n        /* \"#utility.yul\":7603:7605   */\n      0x20\n        /* \"#utility.yul\":7598:7601   */\n      dup3\n        /* \"#utility.yul\":7594:7606   */\n      add\n        /* \"#utility.yul\":7587:7606   */\n      swap1\n      pop\n        /* \"#utility.yul\":7246:7612   */\n      swap2\n      swap1\n      pop\n      jump\t// out\n        /* \"#utility.yul\":7618:7984   */\n    tag_302:\n        /* \"#utility.yul\":7760:7763   */\n      0x00\n        /* \"#utility.yul\":7781:7848   */\n      tag_304\n        /* \"#utility.yul\":7845:7847   */\n      0x20\n        /* \"#utility.yul\":7840:7843   */\n      dup4\n        /* \"#utility.yul\":7781:7848   */\n      tag_266\n      jump\t// in\n    tag_304:\n        /* \"#utility.yul\":7774:7848   */\n      swap2\n      pop\n        /* \"#utility.yul\":7857:7950   */\n      tag_305\n        /* \"#utility.yul\":7946:7949   */\n      dup3\n        /* \"#utility.yul\":7857:7950   */\n      tag_306\n      jump\t// in\n    tag_305:\n        /* \"#utility.yul\":7975:7977   */\n      0x20\n        /* \"#utility.yul\":7970:7973   */\n      dup3\n        /* \"#utility.yul\":7966:7978   */\n      add\n        /* \"#utility.yul\":7959:7978   */\n      swap1\n      pop\n        /* \"#utility.yul\":7618:7984   */\n      swap2\n      swap1\n      pop\n      jump\t// out\n        /* \"#utility.yul\":7990:8355   */\n    tag_307:\n        /* \"#utility.yul\":8132:8135   */\n      0x00\n        /* \"#utility.yul\":8153:8219   */\n      tag_309\n        /* \"#utility.yul\":8217:8218   */\n      0x05\n        /* \"#utility.yul\":8212:8215   */\n      dup4\n        /* \"#utility.yul\":8153:8219   */\n      tag_266\n      jump\t// in\n    tag_309:\n        /* \"#utility.yul\":8146:8219   */\n      swap2\n      pop\n        /* \"#utility.yul\":8228:8321   */\n      tag_310\n        /* \"#utility.yul\":8317:8320   */\n      dup3\n        /* \"#utility.yul\":8228:8321   */\n      tag_311\n      jump\t// in\n    tag_310:\n        /* \"#utility.yul\":8346:8348   */\n      0x20\n        /* \"#utility.yul\":8341:8344   */\n      dup3\n        /* \"#utility.yul\":8337:8349   */\n      add\n        /* \"#utility.yul\":8330:8349   */\n      swap1\n      pop\n        /* \"#utility.yul\":7990:8355   */\n      swap2\n      swap1\n      pop\n      jump\t// out\n        /* \"#utility.yul\":8361:8727   */\n    tag_312:\n        /* \"#utility.yul\":8503:8506   */\n      0x00\n        /* \"#utility.yul\":8524:8591   */\n      tag_314\n        /* \"#utility.yul\":8588:8590   */\n      0x13\n        /* \"#utility.yul\":8583:8586   */\n      dup4\n        /* \"#utility.yul\":8524:8591   */\n      tag_266\n      jump\t// in\n    tag_314:\n        /* \"#utility.yul\":8517:8591   */\n      swap2\n      pop\n        /* \"#utility.yul\":8600:8693   */\n      tag_315\n        /* \"#utility.yul\":8689:8692   */\n      dup3\n        /* \"#utility.yul\":8600:8693   */\n      tag_316\n      jump\t// in\n    tag_315:\n        /* \"#utility.yul\":8718:8720   */\n      0x20\n        /* \"#utility.yul\":8713:8716   */\n      dup3\n        /* \"#utility.yul\":8709:8721   */\n      add\n        /* \"#utility.yul\":8702:8721   */\n      swap1\n      pop\n        /* \"#utility.yul\":8361:8727   */\n      swap2\n      swap1\n      pop\n      jump\t// out\n        /* \"#utility.yul\":8733:8851   */\n    tag_317:\n        /* \"#utility.yul\":8820:8844   */\n      tag_319\n        /* \"#utility.yul\":8838:8843   */\n      dup2\n        /* \"#utility.yul\":8820:8844   */\n      tag_320\n      jump\t// in\n    tag_319:\n        /* \"#utility.yul\":8815:8818   */\n      dup3\n        /* \"#utility.yul\":8808:8845   */\n      mstore\n        /* \"#utility.yul\":8733:8851   */\n      pop\n      pop\n      jump\t// out\n        /* \"#utility.yul\":8857:8962   */\n    tag_226:\n        /* \"#utility.yul\":8932:8955   */\n      tag_322\n        /* \"#utility.yul\":8949:8954   */\n      dup2\n        /* \"#utility.yul\":8932:8955   */\n      tag_323\n      jump\t// in\n    tag_322:\n        /* \"#utility.yul\":8927:8930   */\n      dup3\n        /* \"#utility.yul\":8920:8956   */\n      mstore\n        /* \"#utility.yul\":8857:8962   */\n      pop\n      pop\n      jump\t// out\n        /* \"#utility.yul\":8968:9083   */\n    tag_324:\n        /* \"#utility.yul\":9053:9076   */\n      tag_326\n        /* \"#utility.yul\":9070:9075   */\n      dup2\n        /* \"#utility.yul\":9053:9076   */\n      tag_323\n      jump\t// in\n    tag_326:\n        /* \"#utility.yul\":9048:9051   */\n      dup3\n        /* \"#utility.yul\":9041:9077   */\n      mstore\n        /* \"#utility.yul\":8968:9083   */\n      pop\n      pop\n      jump\t// out\n        /* \"#utility.yul\":9089:9364   */\n    tag_102:\n        /* \"#utility.yul\":9221:9224   */\n      0x00\n        /* \"#utility.yul\":9243:9338   */\n      tag_328\n        /* \"#utility.yul\":9334:9337   */\n      dup3\n        /* \"#utility.yul\":9325:9331   */\n      dup5\n        /* \"#utility.yul\":9243:9338   */\n      tag_271\n      jump\t// in\n    tag_328:\n        /* \"#utility.yul\":9236:9338   */\n      swap2\n      pop\n        /* \"#utility.yul\":9355:9358   */\n      dup2\n        /* \"#utility.yul\":9348:9358   */\n      swap1\n      pop\n        /* \"#utility.yul\":9089:9364   */\n      swap3\n      swap2\n      pop\n      pop\n      jump\t// out\n        /* \"#utility.yul\":9370:9592   */\n    tag_37:\n        /* \"#utility.yul\":9463:9467   */\n      0x00\n        /* \"#utility.yul\":9501:9503   */\n      0x20\n        /* \"#utility.yul\":9490:9499   */\n      dup3\n        /* \"#utility.yul\":9486:9504   */\n      add\n        /* \"#utility.yul\":9478:9504   */\n      swap1\n      pop\n        /* \"#utility.yul\":9514:9585   */\n      tag_330\n        /* \"#utility.yul\":9582:9583   */\n      0x00\n        /* \"#utility.yul\":9571:9580   */\n      dup4\n        /* \"#utility.yul\":9567:9584   */\n      add\n        /* \"#utility.yul\":9558:9564   */\n      dup5\n        /* \"#utility.yul\":9514:9585   */\n      tag_230\n      jump\t// in\n    tag_330:\n        /* \"#utility.yul\":9370:9592   */\n      swap3\n      swap2\n      pop\n      pop\n      jump\t// out\n        /* \"#utility.yul\":9598:9971   */\n    tag_33:\n        /* \"#utility.yul\":9741:9745   */\n      0x00\n        /* \"#utility.yul\":9779:9781   */\n      0x20\n        /* \"#utility.yul\":9768:9777   */\n      dup3\n        /* \"#utility.yul\":9764:9782   */\n      add\n        /* \"#utility.yul\":9756:9782   */\n      swap1\n      pop\n        /* \"#utility.yul\":9828:9837   */\n      dup2\n        /* \"#utility.yul\":9822:9826   */\n      dup2\n        /* \"#utility.yul\":9818:9838   */\n      sub\n        /* \"#utility.yul\":9814:9815   */\n      0x00\n        /* \"#utility.yul\":9803:9812   */\n      dup4\n        /* \"#utility.yul\":9799:9816   */\n      add\n        /* \"#utility.yul\":9792:9839   */\n      mstore\n        /* \"#utility.yul\":9856:9964   */\n      tag_332\n        /* \"#utility.yul\":9959:9963   */\n      dup2\n        /* \"#utility.yul\":9950:9956   */\n      dup5\n        /* \"#utility.yul\":9856:9964   */\n      tag_233\n      jump\t// in\n    tag_332:\n        /* \"#utility.yul\":9848:9964   */\n      swap1\n      pop\n        /* \"#utility.yul\":9598:9971   */\n      swap3\n      swap2\n      pop\n      pop\n      jump\t// out\n        /* \"#utility.yul\":9977:10346   */\n    tag_53:\n        /* \"#utility.yul\":10118:10122   */\n      0x00\n        /* \"#utility.yul\":10156:10158   */\n      0x20\n        /* \"#utility.yul\":10145:10154   */\n      dup3\n        /* \"#utility.yul\":10141:10159   */\n      add\n        /* \"#utility.yul\":10133:10159   */\n      swap1\n      pop\n        /* \"#utility.yul\":10205:10214   */\n      dup2\n        /* \"#utility.yul\":10199:10203   */\n      dup2\n        /* \"#utility.yul\":10195:10215   */\n      sub\n        /* \"#utility.yul\":10191:10192   */\n      0x00\n        /* \"#utility.yul\":10180:10189   */\n      dup4\n        /* \"#utility.yul\":10176:10193   */\n      add\n        /* \"#utility.yul\":10169:10216   */\n      mstore\n        /* \"#utility.yul\":10233:10339   */\n      tag_334\n        /* \"#utility.yul\":10334:10338   */\n      dup2\n        /* \"#utility.yul\":10325:10331   */\n      dup5\n        /* \"#utility.yul\":10233:10339   */\n      tag_247\n      jump\t// in\n    tag_334:\n        /* \"#utility.yul\":10225:10339   */\n      swap1\n      pop\n        /* \"#utility.yul\":9977:10346   */\n      swap3\n      swap2\n      pop\n      pop\n      jump\t// out\n        /* \"#utility.yul\":10352:10877   */\n    tag_26:\n        /* \"#utility.yul\":10517:10521   */\n      0x00\n        /* \"#utility.yul\":10555:10557   */\n      0x60\n        /* \"#utility.yul\":10544:10553   */\n      dup3\n        /* \"#utility.yul\":10540:10558   */\n      add\n        /* \"#utility.yul\":10532:10558   */\n      swap1\n      pop\n        /* \"#utility.yul\":10604:10613   */\n      dup2\n        /* \"#utility.yul\":10598:10602   */\n      dup2\n        /* \"#utility.yul\":10594:10614   */\n      sub\n        /* \"#utility.yul\":10590:10591   */\n      0x00\n        /* \"#utility.yul\":10579:10588   */\n      dup4\n        /* \"#utility.yul\":10575:10592   */\n      add\n        /* \"#utility.yul\":10568:10615   */\n      mstore\n        /* \"#utility.yul\":10632:10710   */\n      tag_336\n        /* \"#utility.yul\":10705:10709   */\n      dup2\n        /* \"#utility.yul\":10696:10702   */\n      dup7\n        /* \"#utility.yul\":10632:10710   */\n      tag_261\n      jump\t// in\n    tag_336:\n        /* \"#utility.yul\":10624:10710   */\n      swap1\n      pop\n        /* \"#utility.yul\":10720:10790   */\n      tag_337\n        /* \"#utility.yul\":10786:10788   */\n      0x20\n        /* \"#utility.yul\":10775:10784   */\n      dup4\n        /* \"#utility.yul\":10771:10789   */\n      add\n        /* \"#utility.yul\":10762:10768   */\n      dup6\n        /* \"#utility.yul\":10720:10790   */\n      tag_324\n      jump\t// in\n    tag_337:\n        /* \"#utility.yul\":10800:10870   */\n      tag_338\n        /* \"#utility.yul\":10866:10868   */\n      0x40\n        /* \"#utility.yul\":10855:10864   */\n      dup4\n        /* \"#utility.yul\":10851:10869   */\n      add\n        /* \"#utility.yul\":10842:10848   */\n      dup5\n        /* \"#utility.yul\":10800:10870   */\n      tag_324\n      jump\t// in\n    tag_338:\n        /* \"#utility.yul\":10352:10877   */\n      swap5\n      swap4\n      pop\n      pop\n      pop\n      pop\n      jump\t// out\n        /* \"#utility.yul\":10883:11302   */\n    tag_109:\n        /* \"#utility.yul\":11049:11053   */\n      0x00\n        /* \"#utility.yul\":11087:11089   */\n      0x20\n        /* \"#utility.yul\":11076:11085   */\n      dup3\n        /* \"#utility.yul\":11072:11090   */\n      add\n        /* \"#utility.yul\":11064:11090   */\n      swap1\n      pop\n        /* \"#utility.yul\":11136:11145   */\n      dup2\n        /* \"#utility.yul\":11130:11134   */\n      dup2\n        /* \"#utility.yul\":11126:11146   */\n      sub\n        /* \"#utility.yul\":11122:11123   */\n      0x00\n        /* \"#utility.yul\":11111:11120   */\n      dup4\n        /* \"#utility.yul\":11107:11124   */\n      add\n        /* \"#utility.yul\":11100:11147   */\n      mstore\n        /* \"#utility.yul\":11164:11295   */\n      tag_340\n        /* \"#utility.yul\":11290:11294   */\n      dup2\n        /* \"#utility.yul\":11164:11295   */\n      tag_277\n      jump\t// in\n    tag_340:\n        /* \"#utility.yul\":11156:11295   */\n      swap1\n      pop\n        /* \"#utility.yul\":10883:11302   */\n      swap2\n      swap1\n      pop\n      jump\t// out\n        /* \"#utility.yul\":11308:11727   */\n    tag_105:\n        /* \"#utility.yul\":11474:11478   */\n      0x00\n        /* \"#utility.yul\":11512:11514   */\n      0x20\n        /* \"#utility.yul\":11501:11510   */\n      dup3\n        /* \"#utility.yul\":11497:11515   */\n      add\n        /* \"#utility.yul\":11489:11515   */\n      swap1\n      pop\n        /* \"#utility.yul\":11561:11570   */\n      dup2\n        /* \"#utility.yul\":11555:11559   */\n      dup2\n        /* \"#utility.yul\":11551:11571   */\n      sub\n        /* \"#utility.yul\":11547:11548   */\n      0x00\n        /* \"#utility.yul\":11536:11545   */\n      dup4\n        /* \"#utility.yul\":11532:11549   */\n      add\n        /* \"#utility.yul\":11525:11572   */\n      mstore\n        /* \"#utility.yul\":11589:11720   */\n      tag_342\n        /* \"#utility.yul\":11715:11719   */\n      dup2\n        /* \"#utility.yul\":11589:11720   */\n      tag_282\n      jump\t// in\n    tag_342:\n        /* \"#utility.yul\":11581:11720   */\n      swap1\n      pop\n        /* \"#utility.yul\":11308:11727   */\n      swap2\n      swap1\n      pop\n      jump\t// out\n        /* \"#utility.yul\":11733:12152   */\n    tag_67:\n        /* \"#utility.yul\":11899:11903   */\n      0x00\n        /* \"#utility.yul\":11937:11939   */\n      0x20\n        /* \"#utility.yul\":11926:11935   */\n      dup3\n        /* \"#utility.yul\":11922:11940   */\n      add\n        /* \"#utility.yul\":11914:11940   */\n      swap1\n      pop\n        /* \"#utility.yul\":11986:11995   */\n      dup2\n        /* \"#utility.yul\":11980:11984   */\n      dup2\n        /* \"#utility.yul\":11976:11996   */\n      sub\n        /* \"#utility.yul\":11972:11973   */\n      0x00\n        /* \"#utility.yul\":11961:11970   */\n      dup4\n        /* \"#utility.yul\":11957:11974   */\n      add\n        /* \"#utility.yul\":11950:11997   */\n      mstore\n        /* \"#utility.yul\":12014:12145   */\n      tag_344\n        /* \"#utility.yul\":12140:12144   */\n      dup2\n        /* \"#utility.yul\":12014:12145   */\n      tag_287\n      jump\t// in\n    tag_344:\n        /* \"#utility.yul\":12006:12145   */\n      swap1\n      pop\n        /* \"#utility.yul\":11733:12152   */\n      swap2\n      swap1\n      pop\n      jump\t// out\n        /* \"#utility.yul\":12158:12577   */\n    tag_119:\n        /* \"#utility.yul\":12324:12328   */\n      0x00\n        /* \"#utility.yul\":12362:12364   */\n      0x20\n        /* \"#utility.yul\":12351:12360   */\n      dup3\n        /* \"#utility.yul\":12347:12365   */\n      add\n        /* \"#utility.yul\":12339:12365   */\n      swap1\n      pop\n        /* \"#utility.yul\":12411:12420   */\n      dup2\n        /* \"#utility.yul\":12405:12409   */\n      dup2\n        /* \"#utility.yul\":12401:12421   */\n      sub\n        /* \"#utility.yul\":12397:12398   */\n      0x00\n        /* \"#utility.yul\":12386:12395   */\n      dup4\n        /* \"#utility.yul\":12382:12399   */\n      add\n        /* \"#utility.yul\":12375:12422   */\n      mstore\n        /* \"#utility.yul\":12439:12570   */\n      tag_346\n        /* \"#utility.yul\":12565:12569   */\n      dup2\n        /* \"#utility.yul\":12439:12570   */\n      tag_292\n      jump\t// in\n    tag_346:\n        /* \"#utility.yul\":12431:12570   */\n      swap1\n      pop\n        /* \"#utility.yul\":12158:12577   */\n      swap2\n      swap1\n      pop\n      jump\t// out\n        /* \"#utility.yul\":12583:13002   */\n    tag_61:\n        /* \"#utility.yul\":12749:12753   */\n      0x00\n        /* \"#utility.yul\":12787:12789   */\n      0x20\n        /* \"#utility.yul\":12776:12785   */\n      dup3\n        /* \"#utility.yul\":12772:12790   */\n      add\n        /* \"#utility.yul\":12764:12790   */\n      swap1\n      pop\n        /* \"#utility.yul\":12836:12845   */\n      dup2\n        /* \"#utility.yul\":12830:12834   */\n      dup2\n        /* \"#utility.yul\":12826:12846   */\n      sub\n        /* \"#utility.yul\":12822:12823   */\n      0x00\n        /* \"#utility.yul\":12811:12820   */\n      dup4\n        /* \"#utility.yul\":12807:12824   */\n      add\n        /* \"#utility.yul\":12800:12847   */\n      mstore\n        /* \"#utility.yul\":12864:12995   */\n      tag_348\n        /* \"#utility.yul\":12990:12994   */\n      dup2\n        /* \"#utility.yul\":12864:12995   */\n      tag_297\n      jump\t// in\n    tag_348:\n        /* \"#utility.yul\":12856:12995   */\n      swap1\n      pop\n        /* \"#utility.yul\":12583:13002   */\n      swap2\n      swap1\n      pop\n      jump\t// out\n        /* \"#utility.yul\":13008:13427   */\n    tag_158:\n        /* \"#utility.yul\":13174:13178   */\n      0x00\n        /* \"#utility.yul\":13212:13214   */\n      0x20\n        /* \"#utility.yul\":13201:13210   */\n      dup3\n        /* \"#utility.yul\":13197:13215   */\n      add\n        /* \"#utility.yul\":13189:13215   */\n      swap1\n      pop\n        /* \"#utility.yul\":13261:13270   */\n      dup2\n        /* \"#utility.yul\":13255:13259   */\n      dup2\n        /* \"#utility.yul\":13251:13271   */\n      sub\n        /* \"#utility.yul\":13247:13248   */\n      0x00\n        /* \"#utility.yul\":13236:13245   */\n      dup4\n        /* \"#utility.yul\":13232:13249   */\n      add\n        /* \"#utility.yul\":13225:13272   */\n      mstore\n        /* \"#utility.yul\":13289:13420   */\n      tag_350\n        /* \"#utility.yul\":13415:13419   */\n      dup2\n        /* \"#utility.yul\":13289:13420   */\n      tag_302\n      jump\t// in\n    tag_350:\n        /* \"#utility.yul\":13281:13420   */\n      swap1\n      pop\n        /* \"#utility.yul\":13008:13427   */\n      swap2\n      swap1\n      pop\n      jump\t// out\n        /* \"#utility.yul\":13433:13852   */\n    tag_146:\n        /* \"#utility.yul\":13599:13603   */\n      0x00\n        /* \"#utility.yul\":13637:13639   */\n      0x20\n        /* \"#utility.yul\":13626:13635   */\n      dup3\n        /* \"#utility.yul\":13622:13640   */\n      add\n        /* \"#utility.yul\":13614:13640   */\n      swap1\n      pop\n        /* \"#utility.yul\":13686:13695   */\n      dup2\n        /* \"#utility.yul\":13680:13684   */\n      dup2\n        /* \"#utility.yul\":13676:13696   */\n      sub\n        /* \"#utility.yul\":13672:13673   */\n      0x00\n        /* \"#utility.yul\":13661:13670   */\n      dup4\n        /* \"#utility.yul\":13657:13674   */\n      add\n        /* \"#utility.yul\":13650:13697   */\n      mstore\n        /* \"#utility.yul\":13714:13845   */\n      tag_352\n        /* \"#utility.yul\":13840:13844   */\n      dup2\n        /* \"#utility.yul\":13714:13845   */\n      tag_307\n      jump\t// in\n    tag_352:\n        /* \"#utility.yul\":13706:13845   */\n      swap1\n      pop\n        /* \"#utility.yul\":13433:13852   */\n      swap2\n      swap1\n      pop\n      jump\t// out\n        /* \"#utility.yul\":13858:14277   */\n    tag_150:\n        /* \"#utility.yul\":14024:14028   */\n      0x00\n        /* \"#utility.yul\":14062:14064   */\n      0x20\n        /* \"#utility.yul\":14051:14060   */\n      dup3\n        /* \"#utility.yul\":14047:14065   */\n      add\n        /* \"#utility.yul\":14039:14065   */\n      swap1\n      pop\n        /* \"#utility.yul\":14111:14120   */\n      dup2\n        /* \"#utility.yul\":14105:14109   */\n      dup2\n        /* \"#utility.yul\":14101:14121   */\n      sub\n        /* \"#utility.yul\":14097:14098   */\n      0x00\n        /* \"#utility.yul\":14086:14095   */\n      dup4\n        /* \"#utility.yul\":14082:14099   */\n      add\n        /* \"#utility.yul\":14075:14122   */\n      mstore\n        /* \"#utility.yul\":14139:14270   */\n      tag_354\n        /* \"#utility.yul\":14265:14269   */\n      dup2\n        /* \"#utility.yul\":14139:14270   */\n      tag_312\n      jump\t// in\n    tag_354:\n        /* \"#utility.yul\":14131:14270   */\n      swap1\n      pop\n        /* \"#utility.yul\":13858:14277   */\n      swap2\n      swap1\n      pop\n      jump\t// out\n        /* \"#utility.yul\":14283:14505   */\n    tag_41:\n        /* \"#utility.yul\":14376:14380   */\n      0x00\n        /* \"#utility.yul\":14414:14416   */\n      0x20\n        /* \"#utility.yul\":14403:14412   */\n      dup3\n        /* \"#utility.yul\":14399:14417   */\n      add\n        /* \"#utility.yul\":14391:14417   */\n      swap1\n      pop\n        /* \"#utility.yul\":14427:14498   */\n      tag_356\n        /* \"#utility.yul\":14495:14496   */\n      0x00\n        /* \"#utility.yul\":14484:14493   */\n      dup4\n        /* \"#utility.yul\":14480:14497   */\n      add\n        /* \"#utility.yul\":14471:14477   */\n      dup5\n        /* \"#utility.yul\":14427:14498   */\n      tag_317\n      jump\t// in\n    tag_356:\n        /* \"#utility.yul\":14283:14505   */\n      swap3\n      swap2\n      pop\n      pop\n      jump\t// out\n        /* \"#utility.yul\":14511:14640   */\n    tag_177:\n        /* \"#utility.yul\":14545:14551   */\n      0x00\n        /* \"#utility.yul\":14572:14592   */\n      tag_358\n      tag_359\n      jump\t// in\n    tag_358:\n        /* \"#utility.yul\":14562:14592   */\n      swap1\n      pop\n        /* \"#utility.yul\":14601:14634   */\n      tag_360\n        /* \"#utility.yul\":14629:14633   */\n      dup3\n        /* \"#utility.yul\":14621:14627   */\n      dup3\n        /* \"#utility.yul\":14601:14634   */\n      tag_361\n      jump\t// in\n    tag_360:\n        /* \"#utility.yul\":14511:14640   */\n      swap2\n      swap1\n      pop\n      jump\t// out\n        /* \"#utility.yul\":14646:14721   */\n    tag_359:\n        /* \"#utility.yul\":14679:14685   */\n      0x00\n        /* \"#utility.yul\":14712:14714   */\n      0x40\n        /* \"#utility.yul\":14706:14715   */\n      mload\n        /* \"#utility.yul\":14696:14715   */\n      swap1\n      pop\n        /* \"#utility.yul\":14646:14721   */\n      swap1\n      jump\t// out\n        /* \"#utility.yul\":14727:15035   */\n    tag_176:\n        /* \"#utility.yul\":14789:14793   */\n      0x00\n        /* \"#utility.yul\":14879:14897   */\n      0xffffffffffffffff\n        /* \"#utility.yul\":14871:14877   */\n      dup3\n        /* \"#utility.yul\":14868:14898   */\n      gt\n        /* \"#utility.yul\":14865:14921   */\n      iszero\n      tag_364\n      jumpi\n        /* \"#utility.yul\":14901:14919   */\n      tag_365\n      tag_87\n      jump\t// in\n    tag_365:\n        /* \"#utility.yul\":14865:14921   */\n    tag_364:\n        /* \"#utility.yul\":14939:14968   */\n      tag_366\n        /* \"#utility.yul\":14961:14967   */\n      dup3\n        /* \"#utility.yul\":14939:14968   */\n      tag_270\n      jump\t// in\n    tag_366:\n        /* \"#utility.yul\":14931:14968   */\n      swap1\n      pop\n        /* \"#utility.yul\":15023:15027   */\n      0x20\n        /* \"#utility.yul\":15017:15021   */\n      dup2\n        /* \"#utility.yul\":15013:15028   */\n      add\n        /* \"#utility.yul\":15005:15028   */\n      swap1\n      pop\n        /* \"#utility.yul\":14727:15035   */\n      swap2\n      swap1\n      pop\n      jump\t// out\n        /* \"#utility.yul\":15041:15173   */\n    tag_240:\n        /* \"#utility.yul\":15108:15112   */\n      0x00\n        /* \"#utility.yul\":15131:15134   */\n      dup2\n        /* \"#utility.yul\":15123:15134   */\n      swap1\n      pop\n        /* \"#utility.yul\":15161:15165   */\n      0x20\n        /* \"#utility.yul\":15156:15159   */\n      dup3\n        /* \"#utility.yul\":15152:15166   */\n      add\n        /* \"#utility.yul\":15144:15166   */\n      swap1\n      pop\n        /* \"#utility.yul\":15041:15173   */\n      swap2\n      swap1\n      pop\n      jump\t// out\n        /* \"#utility.yul\":15179:15310   */\n    tag_254:\n        /* \"#utility.yul\":15245:15249   */\n      0x00\n        /* \"#utility.yul\":15268:15271   */\n      dup2\n        /* \"#utility.yul\":15260:15271   */\n      swap1\n      pop\n        /* \"#utility.yul\":15298:15302   */\n      0x20\n        /* \"#utility.yul\":15293:15296   */\n      dup3\n        /* \"#utility.yul\":15289:15303   */\n      add\n        /* \"#utility.yul\":15281:15303   */\n      swap1\n      pop\n        /* \"#utility.yul\":15179:15310   */\n      swap2\n      swap1\n      pop\n      jump\t// out\n        /* \"#utility.yul\":15316:15430   */\n    tag_236:\n        /* \"#utility.yul\":15383:15389   */\n      0x00\n        /* \"#utility.yul\":15417:15422   */\n      dup2\n        /* \"#utility.yul\":15411:15423   */\n      mload\n        /* \"#utility.yul\":15401:15423   */\n      swap1\n      pop\n        /* \"#utility.yul\":15316:15430   */\n      swap2\n      swap1\n      pop\n      jump\t// out\n        /* \"#utility.yul\":15436:15549   */\n    tag_250:\n        /* \"#utility.yul\":15502:15508   */\n      0x00\n        /* \"#utility.yul\":15536:15541   */\n      dup2\n        /* \"#utility.yul\":15530:15542   */\n      mload\n        /* \"#utility.yul\":15520:15542   */\n      swap1\n      pop\n        /* \"#utility.yul\":15436:15549   */\n      swap2\n      swap1\n      pop\n      jump\t// out\n        /* \"#utility.yul\":15555:15654   */\n    tag_264:\n        /* \"#utility.yul\":15607:15613   */\n      0x00\n        /* \"#utility.yul\":15641:15646   */\n      dup2\n        /* \"#utility.yul\":15635:15647   */\n      mload\n        /* \"#utility.yul\":15625:15647   */\n      swap1\n      pop\n        /* \"#utility.yul\":15555:15654   */\n      swap2\n      swap1\n      pop\n      jump\t// out\n        /* \"#utility.yul\":15660:15773   */\n    tag_246:\n        /* \"#utility.yul\":15730:15734   */\n      0x00\n        /* \"#utility.yul\":15762:15766   */\n      0x20\n        /* \"#utility.yul\":15757:15760   */\n      dup3\n        /* \"#utility.yul\":15753:15767   */\n      add\n        /* \"#utility.yul\":15745:15767   */\n      swap1\n      pop\n        /* \"#utility.yul\":15660:15773   */\n      swap2\n      swap1\n      pop\n      jump\t// out\n        /* \"#utility.yul\":15779:15891   */\n    tag_260:\n        /* \"#utility.yul\":15848:15852   */\n      0x00\n        /* \"#utility.yul\":15880:15884   */\n      0x20\n        /* \"#utility.yul\":15875:15878   */\n      dup3\n        /* \"#utility.yul\":15871:15885   */\n      add\n        /* \"#utility.yul\":15863:15885   */\n      swap1\n      pop\n        /* \"#utility.yul\":15779:15891   */\n      swap2\n      swap1\n      pop\n      jump\t// out\n        /* \"#utility.yul\":15897:16081   */\n    tag_238:\n        /* \"#utility.yul\":15996:16007   */\n      0x00\n        /* \"#utility.yul\":16030:16036   */\n      dup3\n        /* \"#utility.yul\":16025:16028   */\n      dup3\n        /* \"#utility.yul\":16018:16037   */\n      mstore\n        /* \"#utility.yul\":16070:16074   */\n      0x20\n        /* \"#utility.yul\":16065:16068   */\n      dup3\n        /* \"#utility.yul\":16061:16075   */\n      add\n        /* \"#utility.yul\":16046:16075   */\n      swap1\n      pop\n        /* \"#utility.yul\":15897:16081   */\n      swap3\n      swap2\n      pop\n      pop\n      jump\t// out\n        /* \"#utility.yul\":16087:16270   */\n    tag_252:\n        /* \"#utility.yul\":16185:16196   */\n      0x00\n        /* \"#utility.yul\":16219:16225   */\n      dup3\n        /* \"#utility.yul\":16214:16217   */\n      dup3\n        /* \"#utility.yul\":16207:16226   */\n      mstore\n        /* \"#utility.yul\":16259:16263   */\n      0x20\n        /* \"#utility.yul\":16254:16257   */\n      dup3\n        /* \"#utility.yul\":16250:16264   */\n      add\n        /* \"#utility.yul\":16235:16264   */\n      swap1\n      pop\n        /* \"#utility.yul\":16087:16270   */\n      swap3\n      swap2\n      pop\n      pop\n      jump\t// out\n        /* \"#utility.yul\":16276:16445   */\n    tag_266:\n        /* \"#utility.yul\":16360:16371   */\n      0x00\n        /* \"#utility.yul\":16394:16400   */\n      dup3\n        /* \"#utility.yul\":16389:16392   */\n      dup3\n        /* \"#utility.yul\":16382:16401   */\n      mstore\n        /* \"#utility.yul\":16434:16438   */\n      0x20\n        /* \"#utility.yul\":16429:16432   */\n      dup3\n        /* \"#utility.yul\":16425:16439   */\n      add\n        /* \"#utility.yul\":16410:16439   */\n      swap1\n      pop\n        /* \"#utility.yul\":16276:16445   */\n      swap3\n      swap2\n      pop\n      pop\n      jump\t// out\n        /* \"#utility.yul\":16451:16599   */\n    tag_275:\n        /* \"#utility.yul\":16553:16564   */\n      0x00\n        /* \"#utility.yul\":16590:16593   */\n      dup2\n        /* \"#utility.yul\":16575:16593   */\n      swap1\n      pop\n        /* \"#utility.yul\":16451:16599   */\n      swap3\n      swap2\n      pop\n      pop\n      jump\t// out\n        /* \"#utility.yul\":16605:16851   */\n    tag_63:\n        /* \"#utility.yul\":16644:16647   */\n      0x00\n        /* \"#utility.yul\":16663:16682   */\n      tag_379\n        /* \"#utility.yul\":16680:16681   */\n      dup3\n        /* \"#utility.yul\":16663:16682   */\n      tag_323\n      jump\t// in\n    tag_379:\n        /* \"#utility.yul\":16658:16682   */\n      swap2\n      pop\n        /* \"#utility.yul\":16696:16715   */\n      tag_380\n        /* \"#utility.yul\":16713:16714   */\n      dup4\n        /* \"#utility.yul\":16696:16715   */\n      tag_323\n      jump\t// in\n    tag_380:\n        /* \"#utility.yul\":16691:16715   */\n      swap3\n      pop\n        /* \"#utility.yul\":16793:16794   */\n      dup3\n        /* \"#utility.yul\":16781:16791   */\n      0xffffffff\n        /* \"#utility.yul\":16777:16795   */\n      sub\n        /* \"#utility.yul\":16774:16775   */\n      dup3\n        /* \"#utility.yul\":16771:16796   */\n      gt\n        /* \"#utility.yul\":16768:16819   */\n      iszero\n      tag_381\n      jumpi\n        /* \"#utility.yul\":16799:16817   */\n      tag_382\n      tag_383\n      jump\t// in\n    tag_382:\n        /* \"#utility.yul\":16768:16819   */\n    tag_381:\n        /* \"#utility.yul\":16843:16844   */\n      dup3\n        /* \"#utility.yul\":16840:16841   */\n      dup3\n        /* \"#utility.yul\":16836:16845   */\n      add\n        /* \"#utility.yul\":16829:16845   */\n      swap1\n      pop\n        /* \"#utility.yul\":16605:16851   */\n      swap3\n      swap2\n      pop\n      pop\n      jump\t// out\n        /* \"#utility.yul\":16857:17045   */\n    tag_70:\n        /* \"#utility.yul\":16896:16900   */\n      0x00\n        /* \"#utility.yul\":16916:16935   */\n      tag_385\n        /* \"#utility.yul\":16933:16934   */\n      dup3\n        /* \"#utility.yul\":16916:16935   */\n      tag_323\n      jump\t// in\n    tag_385:\n        /* \"#utility.yul\":16911:16935   */\n      swap2\n      pop\n        /* \"#utility.yul\":16949:16968   */\n      tag_386\n        /* \"#utility.yul\":16966:16967   */\n      dup4\n        /* \"#utility.yul\":16949:16968   */\n      tag_323\n      jump\t// in\n    tag_386:\n        /* \"#utility.yul\":16944:16968   */\n      swap3\n      pop\n        /* \"#utility.yul\":16987:16988   */\n      dup3\n        /* \"#utility.yul\":16984:16985   */\n      dup3\n        /* \"#utility.yul\":16981:16989   */\n      lt\n        /* \"#utility.yul\":16978:17012   */\n      iszero\n      tag_387\n      jumpi\n        /* \"#utility.yul\":16992:17010   */\n      tag_388\n      tag_383\n      jump\t// in\n    tag_388:\n        /* \"#utility.yul\":16978:17012   */\n    tag_387:\n        /* \"#utility.yul\":17037:17038   */\n      dup3\n        /* \"#utility.yul\":17034:17035   */\n      dup3\n        /* \"#utility.yul\":17030:17039   */\n      sub\n        /* \"#utility.yul\":17022:17039   */\n      swap1\n      pop\n        /* \"#utility.yul\":16857:17045   */\n      swap3\n      swap2\n      pop\n      pop\n      jump\t// out\n        /* \"#utility.yul\":17051:17147   */\n    tag_229:\n        /* \"#utility.yul\":17088:17095   */\n      0x00\n        /* \"#utility.yul\":17117:17141   */\n      tag_390\n        /* \"#utility.yul\":17135:17140   */\n      dup3\n        /* \"#utility.yul\":17117:17141   */\n      tag_391\n      jump\t// in\n    tag_390:\n        /* \"#utility.yul\":17106:17141   */\n      swap1\n      pop\n        /* \"#utility.yul\":17051:17147   */\n      swap2\n      swap1\n      pop\n      jump\t// out\n        /* \"#utility.yul\":17153:17279   */\n    tag_391:\n        /* \"#utility.yul\":17190:17197   */\n      0x00\n        /* \"#utility.yul\":17230:17272   */\n      0xffffffffffffffffffffffffffffffffffffffff\n        /* \"#utility.yul\":17223:17228   */\n      dup3\n        /* \"#utility.yul\":17219:17273   */\n      and\n        /* \"#utility.yul\":17208:17273   */\n      swap1\n      pop\n        /* \"#utility.yul\":17153:17279   */\n      swap2\n      swap1\n      pop\n      jump\t// out\n        /* \"#utility.yul\":17285:17362   */\n    tag_320:\n        /* \"#utility.yul\":17322:17329   */\n      0x00\n        /* \"#utility.yul\":17351:17356   */\n      dup2\n        /* \"#utility.yul\":17340:17356   */\n      swap1\n      pop\n        /* \"#utility.yul\":17285:17362   */\n      swap2\n      swap1\n      pop\n      jump\t// out\n        /* \"#utility.yul\":17368:17461   */\n    tag_323:\n        /* \"#utility.yul\":17404:17411   */\n      0x00\n        /* \"#utility.yul\":17444:17454   */\n      0xffffffff\n        /* \"#utility.yul\":17437:17442   */\n      dup3\n        /* \"#utility.yul\":17433:17455   */\n      and\n        /* \"#utility.yul\":17422:17455   */\n      swap1\n      pop\n        /* \"#utility.yul\":17368:17461   */\n      swap2\n      swap1\n      pop\n      jump\t// out\n        /* \"#utility.yul\":17467:17621   */\n    tag_182:\n        /* \"#utility.yul\":17551:17557   */\n      dup3\n        /* \"#utility.yul\":17546:17549   */\n      dup2\n        /* \"#utility.yul\":17541:17544   */\n      dup4\n        /* \"#utility.yul\":17528:17558   */\n      calldatacopy\n        /* \"#utility.yul\":17613:17614   */\n      0x00\n        /* \"#utility.yul\":17604:17610   */\n      dup4\n        /* \"#utility.yul\":17599:17602   */\n      dup4\n        /* \"#utility.yul\":17595:17611   */\n      add\n        /* \"#utility.yul\":17588:17615   */\n      mstore\n        /* \"#utility.yul\":17467:17621   */\n      pop\n      pop\n      pop\n      jump\t// out\n        /* \"#utility.yul\":17627:17934   */\n    tag_268:\n        /* \"#utility.yul\":17695:17696   */\n      0x00\n        /* \"#utility.yul\":17705:17818   */\n    tag_397:\n        /* \"#utility.yul\":17719:17725   */\n      dup4\n        /* \"#utility.yul\":17716:17717   */\n      dup2\n        /* \"#utility.yul\":17713:17726   */\n      lt\n        /* \"#utility.yul\":17705:17818   */\n      iszero\n      tag_399\n      jumpi\n        /* \"#utility.yul\":17804:17805   */\n      dup1\n        /* \"#utility.yul\":17799:17802   */\n      dup3\n        /* \"#utility.yul\":17795:17806   */\n      add\n        /* \"#utility.yul\":17789:17807   */\n      mload\n        /* \"#utility.yul\":17785:17786   */\n      dup2\n        /* \"#utility.yul\":17780:17783   */\n      dup5\n        /* \"#utility.yul\":17776:17787   */\n      add\n        /* \"#utility.yul\":17769:17808   */\n      mstore\n        /* \"#utility.yul\":17741:17743   */\n      0x20\n        /* \"#utility.yul\":17738:17739   */\n      dup2\n        /* \"#utility.yul\":17734:17744   */\n      add\n        /* \"#utility.yul\":17729:17744   */\n      swap1\n      pop\n        /* \"#utility.yul\":17705:17818   */\n      jump(tag_397)\n    tag_399:\n        /* \"#utility.yul\":17836:17842   */\n      dup4\n        /* \"#utility.yul\":17833:17834   */\n      dup2\n        /* \"#utility.yul\":17830:17843   */\n      gt\n        /* \"#utility.yul\":17827:17928   */\n      iszero\n      tag_400\n      jumpi\n        /* \"#utility.yul\":17916:17917   */\n      0x00\n        /* \"#utility.yul\":17907:17913   */\n      dup5\n        /* \"#utility.yul\":17902:17905   */\n      dup5\n        /* \"#utility.yul\":17898:17914   */\n      add\n        /* \"#utility.yul\":17891:17918   */\n      mstore\n        /* \"#utility.yul\":17827:17928   */\n    tag_400:\n        /* \"#utility.yul\":17676:17934   */\n      pop\n        /* \"#utility.yul\":17627:17934   */\n      pop\n      pop\n      pop\n      jump\t// out\n        /* \"#utility.yul\":17940:18260   */\n    tag_73:\n        /* \"#utility.yul\":17984:17990   */\n      0x00\n        /* \"#utility.yul\":18021:18022   */\n      0x02\n        /* \"#utility.yul\":18015:18019   */\n      dup3\n        /* \"#utility.yul\":18011:18023   */\n      div\n        /* \"#utility.yul\":18001:18023   */\n      swap1\n      pop\n        /* \"#utility.yul\":18068:18069   */\n      0x01\n        /* \"#utility.yul\":18062:18066   */\n      dup3\n        /* \"#utility.yul\":18058:18070   */\n      and\n        /* \"#utility.yul\":18089:18107   */\n      dup1\n        /* \"#utility.yul\":18079:18160   */\n      tag_402\n      jumpi\n        /* \"#utility.yul\":18145:18149   */\n      0x7f\n        /* \"#utility.yul\":18137:18143   */\n      dup3\n        /* \"#utility.yul\":18133:18150   */\n      and\n        /* \"#utility.yul\":18123:18150   */\n      swap2\n      pop\n        /* \"#utility.yul\":18079:18160   */\n    tag_402:\n        /* \"#utility.yul\":18207:18209   */\n      0x20\n        /* \"#utility.yul\":18199:18205   */\n      dup3\n        /* \"#utility.yul\":18196:18210   */\n      lt\n        /* \"#utility.yul\":18176:18194   */\n      dup2\n        /* \"#utility.yul\":18173:18211   */\n      eq\n        /* \"#utility.yul\":18170:18254   */\n      iszero\n      tag_403\n      jumpi\n        /* \"#utility.yul\":18226:18244   */\n      tag_404\n      tag_405\n      jump\t// in\n    tag_404:\n        /* \"#utility.yul\":18170:18254   */\n    tag_403:\n        /* \"#utility.yul\":17991:18260   */\n      pop\n        /* \"#utility.yul\":17940:18260   */\n      swap2\n      swap1\n      pop\n      jump\t// out\n        /* \"#utility.yul\":18266:18547   */\n    tag_361:\n        /* \"#utility.yul\":18349:18376   */\n      tag_407\n        /* \"#utility.yul\":18371:18375   */\n      dup3\n        /* \"#utility.yul\":18349:18376   */\n      tag_270\n      jump\t// in\n    tag_407:\n        /* \"#utility.yul\":18341:18347   */\n      dup2\n        /* \"#utility.yul\":18337:18377   */\n      add\n        /* \"#utility.yul\":18479:18485   */\n      dup2\n        /* \"#utility.yul\":18467:18477   */\n      dup2\n        /* \"#utility.yul\":18464:18486   */\n      lt\n        /* \"#utility.yul\":18443:18461   */\n      0xffffffffffffffff\n        /* \"#utility.yul\":18431:18441   */\n      dup3\n        /* \"#utility.yul\":18428:18462   */\n      gt\n        /* \"#utility.yul\":18425:18487   */\n      or\n        /* \"#utility.yul\":18422:18510   */\n      iszero\n      tag_408\n      jumpi\n        /* \"#utility.yul\":18490:18508   */\n      tag_409\n      tag_87\n      jump\t// in\n    tag_409:\n        /* \"#utility.yul\":18422:18510   */\n    tag_408:\n        /* \"#utility.yul\":18530:18540   */\n      dup1\n        /* \"#utility.yul\":18526:18528   */\n      0x40\n        /* \"#utility.yul\":18519:18541   */\n      mstore\n        /* \"#utility.yul\":18309:18547   */\n      pop\n        /* \"#utility.yul\":18266:18547   */\n      pop\n      pop\n      jump\t// out\n        /* \"#utility.yul\":18553:18728   */\n    tag_96:\n        /* \"#utility.yul\":18591:18594   */\n      0x00\n        /* \"#utility.yul\":18614:18637   */\n      tag_411\n        /* \"#utility.yul\":18631:18636   */\n      dup3\n        /* \"#utility.yul\":18614:18637   */\n      tag_323\n      jump\t// in\n    tag_411:\n        /* \"#utility.yul\":18605:18637   */\n      swap2\n      pop\n        /* \"#utility.yul\":18659:18669   */\n      0xffffffff\n        /* \"#utility.yul\":18652:18657   */\n      dup3\n        /* \"#utility.yul\":18649:18670   */\n      eq\n        /* \"#utility.yul\":18646:18693   */\n      iszero\n      tag_412\n      jumpi\n        /* \"#utility.yul\":18673:18691   */\n      tag_413\n      tag_383\n      jump\t// in\n    tag_413:\n        /* \"#utility.yul\":18646:18693   */\n    tag_412:\n        /* \"#utility.yul\":18720:18721   */\n      0x01\n        /* \"#utility.yul\":18713:18718   */\n      dup3\n        /* \"#utility.yul\":18709:18722   */\n      add\n        /* \"#utility.yul\":18702:18722   */\n      swap1\n      pop\n        /* \"#utility.yul\":18553:18728   */\n      swap2\n      swap1\n      pop\n      jump\t// out\n        /* \"#utility.yul\":18734:18914   */\n    tag_383:\n        /* \"#utility.yul\":18782:18859   */\n      0x4e487b7100000000000000000000000000000000000000000000000000000000\n        /* \"#utility.yul\":18779:18780   */\n      0x00\n        /* \"#utility.yul\":18772:18860   */\n      mstore\n        /* \"#utility.yul\":18879:18883   */\n      0x11\n        /* \"#utility.yul\":18876:18877   */\n      0x04\n        /* \"#utility.yul\":18869:18884   */\n      mstore\n        /* \"#utility.yul\":18903:18907   */\n      0x24\n        /* \"#utility.yul\":18900:18901   */\n      0x00\n        /* \"#utility.yul\":18893:18908   */\n      revert\n        /* \"#utility.yul\":18920:19100   */\n    tag_405:\n        /* \"#utility.yul\":18968:19045   */\n      0x4e487b7100000000000000000000000000000000000000000000000000000000\n        /* \"#utility.yul\":18965:18966   */\n      0x00\n        /* \"#utility.yul\":18958:19046   */\n      mstore\n        /* \"#utility.yul\":19065:19069   */\n      0x22\n        /* \"#utility.yul\":19062:19063   */\n      0x04\n        /* \"#utility.yul\":19055:19070   */\n      mstore\n        /* \"#utility.yul\":19089:19093   */\n      0x24\n        /* \"#utility.yul\":19086:19087   */\n      0x00\n        /* \"#utility.yul\":19079:19094   */\n      revert\n        /* \"#utility.yul\":19106:19286   */\n    tag_94:\n        /* \"#utility.yul\":19154:19231   */\n      0x4e487b7100000000000000000000000000000000000000000000000000000000\n        /* \"#utility.yul\":19151:19152   */\n      0x00\n        /* \"#utility.yul\":19144:19232   */\n      mstore\n        /* \"#utility.yul\":19251:19255   */\n      0x32\n        /* \"#utility.yul\":19248:19249   */\n      0x04\n        /* \"#utility.yul\":19241:19256   */\n      mstore\n        /* \"#utility.yul\":19275:19279   */\n      0x24\n        /* \"#utility.yul\":19272:19273   */\n      0x00\n        /* \"#utility.yul\":19265:19280   */\n      revert\n        /* \"#utility.yul\":19292:19472   */\n    tag_87:\n        /* \"#utility.yul\":19340:19417   */\n      0x4e487b7100000000000000000000000000000000000000000000000000000000\n        /* \"#utility.yul\":19337:19338   */\n      0x00\n        /* \"#utility.yul\":19330:19418   */\n      mstore\n        /* \"#utility.yul\":19437:19441   */\n      0x41\n        /* \"#utility.yul\":19434:19435   */\n      0x04\n        /* \"#utility.yul\":19427:19442   */\n      mstore\n        /* \"#utility.yul\":19461:19465   */\n      0x24\n        /* \"#utility.yul\":19458:19459   */\n      0x00\n        /* \"#utility.yul\":19451:19466   */\n      revert\n        /* \"#utility.yul\":19478:19595   */\n    tag_191:\n        /* \"#utility.yul\":19587:19588   */\n      0x00\n        /* \"#utility.yul\":19584:19585   */\n      dup1\n        /* \"#utility.yul\":19577:19589   */\n      revert\n        /* \"#utility.yul\":19601:19718   */\n    tag_180:\n        /* \"#utility.yul\":19710:19711   */\n      0x00\n        /* \"#utility.yul\":19707:19708   */\n      dup1\n        /* \"#utility.yul\":19700:19712   */\n      revert\n        /* \"#utility.yul\":19724:19841   */\n    tag_207:\n        /* \"#utility.yul\":19833:19834   */\n      0x00\n        /* \"#utility.yul\":19830:19831   */\n      dup1\n        /* \"#utility.yul\":19823:19835   */\n      revert\n        /* \"#utility.yul\":19847:19964   */\n    tag_200:\n        /* \"#utility.yul\":19956:19957   */\n      0x00\n        /* \"#utility.yul\":19953:19954   */\n      dup1\n        /* \"#utility.yul\":19946:19958   */\n      revert\n        /* \"#utility.yul\":19970:20072   */\n    tag_270:\n        /* \"#utility.yul\":20011:20017   */\n      0x00\n        /* \"#utility.yul\":20062:20064   */\n      0x1f\n        /* \"#utility.yul\":20058:20065   */\n      not\n        /* \"#utility.yul\":20053:20055   */\n      0x1f\n        /* \"#utility.yul\":20046:20051   */\n      dup4\n        /* \"#utility.yul\":20042:20056   */\n      add\n        /* \"#utility.yul\":20038:20066   */\n      and\n        /* \"#utility.yul\":20028:20066   */\n      swap1\n      pop\n        /* \"#utility.yul\":19970:20072   */\n      swap2\n      swap1\n      pop\n      jump\t// out\n        /* \"#utility.yul\":20078:20248   */\n    tag_281:\n        /* \"#utility.yul\":20218:20240   */\n      0x4e616d652063616e6e6f7420626520656d707479000000000000000000000000\n        /* \"#utility.yul\":20214:20215   */\n      0x00\n        /* \"#utility.yul\":20206:20212   */\n      dup3\n        /* \"#utility.yul\":20202:20216   */\n      add\n        /* \"#utility.yul\":20195:20241   */\n      mstore\n        /* \"#utility.yul\":20078:20248   */\n      pop\n      jump\t// out\n        /* \"#utility.yul\":20254:20421   */\n    tag_286:\n        /* \"#utility.yul\":20394:20413   */\n      0x426f6f6b20697320617661696c61626c65000000000000000000000000000000\n        /* \"#utility.yul\":20390:20391   */\n      0x00\n        /* \"#utility.yul\":20382:20388   */\n      dup3\n        /* \"#utility.yul\":20378:20392   */\n      add\n        /* \"#utility.yul\":20371:20414   */\n      mstore\n        /* \"#utility.yul\":20254:20421   */\n      pop\n      jump\t// out\n        /* \"#utility.yul\":20427:20599   */\n    tag_291:\n        /* \"#utility.yul\":20567:20591   */\n      0x426f6f6b20697320616c72656164792069737375656400000000000000000000\n        /* \"#utility.yul\":20563:20564   */\n      0x00\n        /* \"#utility.yul\":20555:20561   */\n      dup3\n        /* \"#utility.yul\":20551:20565   */\n      add\n        /* \"#utility.yul\":20544:20592   */\n      mstore\n        /* \"#utility.yul\":20427:20599   */\n      pop\n      jump\t// out\n        /* \"#utility.yul\":20605:20830   */\n    tag_296:\n        /* \"#utility.yul\":20745:20779   */\n      0x4f776e61626c653a206e6577206f776e657220697320746865207a65726f2061\n        /* \"#utility.yul\":20741:20742   */\n      0x00\n        /* \"#utility.yul\":20733:20739   */\n      dup3\n        /* \"#utility.yul\":20729:20743   */\n      add\n        /* \"#utility.yul\":20722:20780   */\n      mstore\n        /* \"#utility.yul\":20814:20822   */\n      0x6464726573730000000000000000000000000000000000000000000000000000\n        /* \"#utility.yul\":20809:20811   */\n      0x20\n        /* \"#utility.yul\":20801:20807   */\n      dup3\n        /* \"#utility.yul\":20797:20812   */\n      add\n        /* \"#utility.yul\":20790:20823   */\n      mstore\n        /* \"#utility.yul\":20605:20830   */\n      pop\n      jump\t// out\n        /* \"#utility.yul\":20836:21004   */\n    tag_301:\n        /* \"#utility.yul\":20976:20996   */\n      0x426f6f6b206973206e6f74206973737565640000000000000000000000000000\n        /* \"#utility.yul\":20972:20973   */\n      0x00\n        /* \"#utility.yul\":20964:20970   */\n      dup3\n        /* \"#utility.yul\":20960:20974   */\n      add\n        /* \"#utility.yul\":20953:20997   */\n      mstore\n        /* \"#utility.yul\":20836:21004   */\n      pop\n      jump\t// out\n        /* \"#utility.yul\":21010:21192   */\n    tag_306:\n        /* \"#utility.yul\":21150:21184   */\n      0x4f776e61626c653a2063616c6c6572206973206e6f7420746865206f776e6572\n        /* \"#utility.yul\":21146:21147   */\n      0x00\n        /* \"#utility.yul\":21138:21144   */\n      dup3\n        /* \"#utility.yul\":21134:21148   */\n      add\n        /* \"#utility.yul\":21127:21185   */\n      mstore\n        /* \"#utility.yul\":21010:21192   */\n      pop\n      jump\t// out\n        /* \"#utility.yul\":21198:21353   */\n    tag_311:\n        /* \"#utility.yul\":21338:21345   */\n      0x217a65726f000000000000000000000000000000000000000000000000000000\n        /* \"#utility.yul\":21334:21335   */\n      0x00\n        /* \"#utility.yul\":21326:21332   */\n      dup3\n        /* \"#utility.yul\":21322:21336   */\n      add\n        /* \"#utility.yul\":21315:21346   */\n      mstore\n        /* \"#utility.yul\":21198:21353   */\n      pop\n      jump\t// out\n        /* \"#utility.yul\":21359:21528   */\n    tag_316:\n        /* \"#utility.yul\":21499:21520   */\n      0x426f6f6b20646f6573206e6f7420657869737400000000000000000000000000\n        /* \"#utility.yul\":21495:21496   */\n      0x00\n        /* \"#utility.yul\":21487:21493   */\n      dup3\n        /* \"#utility.yul\":21483:21497   */\n      add\n        /* \"#utility.yul\":21476:21521   */\n      mstore\n        /* \"#utility.yul\":21359:21528   */\n      pop\n      jump\t// out\n        /* \"#utility.yul\":21534:21656   */\n    tag_186:\n        /* \"#utility.yul\":21607:21631   */\n      tag_432\n        /* \"#utility.yul\":21625:21630   */\n      dup2\n        /* \"#utility.yul\":21607:21631   */\n      tag_229\n      jump\t// in\n    tag_432:\n        /* \"#utility.yul\":21600:21605   */\n      dup2\n        /* \"#utility.yul\":21597:21632   */\n      eq\n        /* \"#utility.yul\":21587:21650   */\n      tag_433\n      jumpi\n        /* \"#utility.yul\":21646:21647   */\n      0x00\n        /* \"#utility.yul\":21643:21644   */\n      dup1\n        /* \"#utility.yul\":21636:21648   */\n      revert\n        /* \"#utility.yul\":21587:21650   */\n    tag_433:\n        /* \"#utility.yul\":21534:21656   */\n      pop\n      jump\t// out\n        /* \"#utility.yul\":21662:21782   */\n    tag_196:\n        /* \"#utility.yul\":21734:21757   */\n      tag_435\n        /* \"#utility.yul\":21751:21756   */\n      dup2\n        /* \"#utility.yul\":21734:21757   */\n      tag_323\n      jump\t// in\n    tag_435:\n        /* \"#utility.yul\":21727:21732   */\n      dup2\n        /* \"#utility.yul\":21724:21758   */\n      eq\n        /* \"#utility.yul\":21714:21776   */\n      tag_436\n      jumpi\n        /* \"#utility.yul\":21772:21773   */\n      0x00\n        /* \"#utility.yul\":21769:21770   */\n      dup1\n        /* \"#utility.yul\":21762:21774   */\n      revert\n        /* \"#utility.yul\":21714:21776   */\n    tag_436:\n        /* \"#utility.yul\":21662:21782   */\n      pop\n      jump\t// out\n\n    auxdata: 0xa2646970667358221220d8d48bd737c549d108e68549351ca69889a996dc4f0641947cec47848bc87aeb64736f6c63430008070033\n}\n",
				"bytecode": {
					"linkReferences": {},
					"object": "608060405234801561001057600080fd5b5061002d61002261003260201b60201c565b61003a60201b60201c565b6100fe565b600033905090565b60008060009054906101000a900473ffffffffffffffffffffffffffffffffffffffff169050816000806101000a81548173ffffffffffffffffffffffffffffffffffffffff021916908373ffffffffffffffffffffffffffffffffffffffff1602179055508173ffffffffffffffffffffffffffffffffffffffff168173ffffffffffffffffffffffffffffffffffffffff167f8be0079c531659141344cd1fd0a4f28419497f9722a3daafe3b4186f6b6457e060405160405180910390a35050565b611b008061010d6000396000f3fe608060405234801561001057600080fd5b50600436106100a95760003560e01c80638da5cb5b116100715780638da5cb5b14610152578063b905ad7814610170578063bdaa3c1e1461018e578063f2fde38b146101aa578063f4cbc4a6146101c6578063fef4c92a146101e4576100a9565b8063422d2629146100ae57806348569e59146100ca5780635d70b491146100e6578063715018a61461011857806387e97de214610122575b600080fd5b6100c860048036038101906100c391906110dd565b610200565b005b6100e460048036038101906100df91906110dd565b61037c565b005b61010060048036038101906100fb91906110dd565b6105d2565b60405161010f93929190611479565b60405180910390f35b6101206106a4565b005b61013c600480360381019061013791906110dd565b6106b8565b6040516101499190611435565b60405180910390f35b61015a61081b565b604051610167919061141a565b60405180910390f35b610178610844565b60405161018591906115b7565b60405180910390f35b6101a860048036038101906101a39190611081565b61084a565b005b6101c460048036038101906101bf9190611054565b6109b5565b005b6101ce610a39565b6040516101db9190611457565b60405180910390f35b6101fe60048036038101906101f9919061110a565b610c9d565b005b600760003373ffffffffffffffffffffffffffffffffffffffff1673ffffffffffffffffffffffffffffffffffffffff16815260200190815260200160002060008263ffffffff16815260200190815260200160002060009054906101000a900460ff166102a3576040517f08c379a000000000000000000000000000000000000000000000000000000000815260040161029a90611537565b60405180910390fd5b6000600660008363ffffffff1663ffffffff168152602001908152602001600020905060018160010160009054906101000a900463ffffffff166102e791906116c1565b8160010160006101000a81548163ffffffff021916908363ffffffff1602179055506000600760003373ffffffffffffffffffffffffffffffffffffffff1673ffffffffffffffffffffffffffffffffffffffff16815260200190815260200160002060008463ffffffff16815260200190815260200160002060006101000a81548160ff0219169083151502179055505050565b600760003373ffffffffffffffffffffffffffffffffffffffff1673ffffffffffffffffffffffffffffffffffffffff16815260200190815260200160002060008263ffffffff16815260200190815260200160002060009054906101000a900460ff1615610420576040517f08c379a0000000000000000000000000000000000000000000000000000000008152600401610417906114f7565b60405180910390fd5b6001600760003373ffffffffffffffffffffffffffffffffffffffff1673ffffffffffffffffffffffffffffffffffffffff16815260200190815260200160002060008363ffffffff16815260200190815260200160002060006101000a81548160ff0219169083151502179055506000600660008363ffffffff1663ffffffff168152602001908152602001600020905060018160010160009054906101000a900463ffffffff1663ffffffff1610156104da57600080fd5b60018160010160009054906101000a900463ffffffff166104fb91906116fb565b8160010160006101000a81548163ffffffff021916908363ffffffff160217905550338160020160008360010160049054906101000a900463ffffffff1663ffffffff16815260200190815260200160002060006101000a81548173ffffffffffffffffffffffffffffffffffffffff021916908373ffffffffffffffffffffffffffffffffffffffff16021790555060018160010160049054906101000a900463ffffffff166105ac91906116c1565b8160010160046101000a81548163ffffffff021916908363ffffffff1602179055505050565b60066020528060005260406000206000915090508060000180546105f5906117bd565b80601f0160208091040260200160405190810160405280929190818152602001828054610621906117bd565b801561066e5780601f106106435761010080835404028352916020019161066e565b820191906000526020600020905b81548152906001019060200180831161065157829003601f168201915b5050505050908060010160009054906101000a900463ffffffff16908060010160049054906101000a900463ffffffff16905083565b6106ac610dcd565b6106b66000610e4b565b565b60606000600660008463ffffffff1663ffffffff16815260200190815260200160002060010160049054906101000a900463ffffffff1663ffffffff1667ffffffffffffffff81111561070e5761070d6118da565b5b60405190808252806020026020018201604052801561073c5781602001602082028036833780820191505090505b50905060005b81518163ffffffff16101561081157600660008563ffffffff1663ffffffff16815260200190815260200160002060020160008263ffffffff16815260200190815260200160002060009054906101000a900473ffffffffffffffffffffffffffffffffffffffff16828263ffffffff16815181106107c4576107c36118ab565b5b602002602001019073ffffffffffffffffffffffffffffffffffffffff16908173ffffffffffffffffffffffffffffffffffffffff1681525050808061080990611820565b915050610742565b5080915050919050565b60008060009054906101000a900473ffffffffffffffffffffffffffffffffffffffff16905090565b60045481565b610852610dcd565b816005816040516108639190611403565b908152602001604051809103902060009054906101000a900460ff16156108bf576040517f08c379a00000000000000000000000000000000000000000000000000000000081526004016108b6906114d7565b60405180910390fd5b600083511415610904576040517f08c379a00000000000000000000000000000000000000000000000000000000081526004016108fb906114b7565b60405180910390fd5b60016005846040516109169190611403565b908152602001604051809103902060006101000a81548160ff021916908315150217905550600060018361094a91906116c1565b92508290506000600660008363ffffffff1663ffffffff16815260200190815260200160002090508481600001908051906020019061098a929190610f17565b50838160010160006101000a81548163ffffffff021916908363ffffffff1602179055505050505050565b6109bd610dcd565b600073ffffffffffffffffffffffffffffffffffffffff168173ffffffffffffffffffffffffffffffffffffffff161415610a2d576040517f08c379a0000000000000000000000000000000000000000000000000000000008152600401610a2490611517565b60405180910390fd5b610a3681610e4b565b50565b6060600080600190505b6004548163ffffffff1611610b2257600760003373ffffffffffffffffffffffffffffffffffffffff1673ffffffffffffffffffffffffffffffffffffffff16815260200190815260200160002060008263ffffffff16815260200190815260200160002060009054906101000a900460ff16158015610afb57506000600660008363ffffffff1663ffffffff16815260200190815260200160002060010160009054906101000a900463ffffffff1663ffffffff16115b15610b0f578180610b0b90611820565b9250505b8080610b1a90611820565b915050610a43565b5060008163ffffffff1667ffffffffffffffff811115610b4557610b446118da565b5b604051908082528060200260200182016040528015610b735781602001602082028036833780820191505090505b509050600091506000600190505b6004548163ffffffff1611610c9457600760003373ffffffffffffffffffffffffffffffffffffffff1673ffffffffffffffffffffffffffffffffffffffff16815260200190815260200160002060008263ffffffff16815260200190815260200160002060009054906101000a900460ff16158015610c3957506000600660008363ffffffff1663ffffffff16815260200190815260200160002060010160009054906101000a900463ffffffff1663ffffffff16115b15610c815780828463ffffffff1681518110610c5857610c576118ab565b5b602002602001019063ffffffff16908163ffffffff16815250508280610c7d90611820565b9350505b8080610c8c90611820565b915050610b81565b50809250505090565b610ca5610dcd565b60008163ffffffff1611610cee576040517f08c379a0000000000000000000000000000000000000000000000000000000008152600401610ce590611577565b60405180910390fd5b6000600660008463ffffffff1663ffffffff16815260200190815260200160002090506000816000018054610d22906117bd565b90501415610d65576040517f08c379a0000000000000000000000000000000000000000000000000000000008152600401610d5c90611597565b60405180910390fd5b60018160010160008282829054906101000a900463ffffffff16610d8991906116c1565b92506101000a81548163ffffffff021916908363ffffffff16021790558160010160006101000a81548163ffffffff021916908363ffffffff160217905550505050565b610dd5610f0f565b73ffffffffffffffffffffffffffffffffffffffff16610df361081b565b73ffffffffffffffffffffffffffffffffffffffff1614610e49576040517f08c379a0000000000000000000000000000000000000000000000000000000008152600401610e4090611557565b60405180910390fd5b565b60008060009054906101000a900473ffffffffffffffffffffffffffffffffffffffff169050816000806101000a81548173ffffffffffffffffffffffffffffffffffffffff021916908373ffffffffffffffffffffffffffffffffffffffff1602179055508173ffffffffffffffffffffffffffffffffffffffff168173ffffffffffffffffffffffffffffffffffffffff167f8be0079c531659141344cd1fd0a4f28419497f9722a3daafe3b4186f6b6457e060405160405180910390a35050565b600033905090565b828054610f23906117bd565b90600052602060002090601f016020900481019282610f455760008555610f8c565b82601f10610f5e57805160ff1916838001178555610f8c565b82800160010185558215610f8c579182015b82811115610f8b578251825591602001919060010190610f70565b5b509050610f999190610f9d565b5090565b5b80821115610fb6576000816000905550600101610f9e565b5090565b6000610fcd610fc8846115f7565b6115d2565b905082815260208101848484011115610fe957610fe861190e565b5b610ff484828561177b565b509392505050565b60008135905061100b81611a9c565b92915050565b600082601f83011261102657611025611909565b5b8135611036848260208601610fba565b91505092915050565b60008135905061104e81611ab3565b92915050565b60006020828403121561106a57611069611918565b5b600061107884828501610ffc565b91505092915050565b6000806040838503121561109857611097611918565b5b600083013567ffffffffffffffff8111156110b6576110b5611913565b5b6110c285828601611011565b92505060206110d38582860161103f565b9150509250929050565b6000602082840312156110f3576110f2611918565b5b60006111018482850161103f565b91505092915050565b6000806040838503121561112157611120611918565b5b600061112f8582860161103f565b92505060206111408582860161103f565b9150509250929050565b6000611156838361117a565b60208301905092915050565b600061116e83836113e5565b60208301905092915050565b6111838161172f565b82525050565b6111928161172f565b82525050565b60006111a382611648565b6111ad8185611683565b93506111b883611628565b8060005b838110156111e95781516111d0888261114a565b97506111db83611669565b9250506001810190506111bc565b5085935050505092915050565b600061120182611653565b61120b8185611694565b935061121683611638565b8060005b8381101561124757815161122e8882611162565b975061123983611676565b92505060018101905061121a565b5085935050505092915050565b600061125f8261165e565b61126981856116a5565b935061127981856020860161178a565b6112828161191d565b840191505092915050565b60006112988261165e565b6112a281856116b6565b93506112b281856020860161178a565b80840191505092915050565b60006112cb6014836116a5565b91506112d68261192e565b602082019050919050565b60006112ee6011836116a5565b91506112f982611957565b602082019050919050565b60006113116016836116a5565b915061131c82611980565b602082019050919050565b60006113346026836116a5565b915061133f826119a9565b604082019050919050565b60006113576012836116a5565b9150611362826119f8565b602082019050919050565b600061137a6020836116a5565b915061138582611a21565b602082019050919050565b600061139d6005836116a5565b91506113a882611a4a565b602082019050919050565b60006113c06013836116a5565b91506113cb82611a73565b602082019050919050565b6113df81611761565b82525050565b6113ee8161176b565b82525050565b6113fd8161176b565b82525050565b600061140f828461128d565b915081905092915050565b600060208201905061142f6000830184611189565b92915050565b6000602082019050818103600083015261144f8184611198565b905092915050565b6000602082019050818103600083015261147181846111f6565b905092915050565b600060608201905081810360008301526114938186611254565b90506114a260208301856113f4565b6114af60408301846113f4565b949350505050565b600060208201905081810360008301526114d0816112be565b9050919050565b600060208201905081810360008301526114f0816112e1565b9050919050565b6000602082019050818103600083015261151081611304565b9050919050565b6000602082019050818103600083015261153081611327565b9050919050565b600060208201905081810360008301526115508161134a565b9050919050565b600060208201905081810360008301526115708161136d565b9050919050565b6000602082019050818103600083015261159081611390565b9050919050565b600060208201905081810360008301526115b0816113b3565b9050919050565b60006020820190506115cc60008301846113d6565b92915050565b60006115dc6115ed565b90506115e882826117ef565b919050565b6000604051905090565b600067ffffffffffffffff821115611612576116116118da565b5b61161b8261191d565b9050602081019050919050565b6000819050602082019050919050565b6000819050602082019050919050565b600081519050919050565b600081519050919050565b600081519050919050565b6000602082019050919050565b6000602082019050919050565b600082825260208201905092915050565b600082825260208201905092915050565b600082825260208201905092915050565b600081905092915050565b60006116cc8261176b565b91506116d78361176b565b92508263ffffffff038211156116f0576116ef61184d565b5b828201905092915050565b60006117068261176b565b91506117118361176b565b9250828210156117245761172361184d565b5b828203905092915050565b600061173a82611741565b9050919050565b600073ffffffffffffffffffffffffffffffffffffffff82169050919050565b6000819050919050565b600063ffffffff82169050919050565b82818337600083830152505050565b60005b838110156117a857808201518184015260208101905061178d565b838111156117b7576000848401525b50505050565b600060028204905060018216806117d557607f821691505b602082108114156117e9576117e861187c565b5b50919050565b6117f88261191d565b810181811067ffffffffffffffff82111715611817576118166118da565b5b80604052505050565b600061182b8261176b565b915063ffffffff8214156118425761184161184d565b5b600182019050919050565b7f4e487b7100000000000000000000000000000000000000000000000000000000600052601160045260246000fd5b7f4e487b7100000000000000000000000000000000000000000000000000000000600052602260045260246000fd5b7f4e487b7100000000000000000000000000000000000000000000000000000000600052603260045260246000fd5b7f4e487b7100000000000000000000000000000000000000000000000000000000600052604160045260246000fd5b600080fd5b600080fd5b600080fd5b600080fd5b6000601f19601f8301169050919050565b7f4e616d652063616e6e6f7420626520656d707479000000000000000000000000600082015250565b7f426f6f6b20697320617661696c61626c65000000000000000000000000000000600082015250565b7f426f6f6b20697320616c72656164792069737375656400000000000000000000600082015250565b7f4f776e61626c653a206e6577206f776e657220697320746865207a65726f206160008201527f6464726573730000000000000000000000000000000000000000000000000000602082015250565b7f426f6f6b206973206e6f74206973737565640000000000000000000000000000600082015250565b7f4f776e61626c653a2063616c6c6572206973206e6f7420746865206f776e6572600082015250565b7f217a65726f000000000000000000000000000000000000000000000000000000600082015250565b7f426f6f6b20646f6573206e6f7420657869737400000000000000000000000000600082015250565b611aa58161172f565b8114611ab057600080fd5b50565b611abc8161176b565b8114611ac757600080fd5b5056fea2646970667358221220d8d48bd737c549d108e68549351ca69889a996dc4f0641947cec47848bc87aeb64736f6c63430008070033",
					"opcodes": "PUSH1 0x80 PUSH1 0x40 MSTORE CALLVALUE DUP1 ISZERO PUSH2 0x10 JUMPI PUSH1 0x0 DUP1 REVERT JUMPDEST POP PUSH2 0x2D PUSH2 0x22 PUSH2 0x32 PUSH1 0x20 SHL PUSH1 0x20 SHR JUMP JUMPDEST PUSH2 0x3A PUSH1 0x20 SHL PUSH1 0x20 SHR JUMP JUMPDEST PUSH2 0xFE JUMP JUMPDEST PUSH1 0x0 CALLER SWAP1 POP SWAP1 JUMP JUMPDEST PUSH1 0x0 DUP1 PUSH1 0x0 SWAP1 SLOAD SWAP1 PUSH2 0x100 EXP SWAP1 DIV PUSH20 0xFFFFFFFFFFFFFFFFFFFFFFFFFFFFFFFFFFFFFFFF AND SWAP1 POP DUP2 PUSH1 0x0 DUP1 PUSH2 0x100 EXP DUP2 SLOAD DUP2 PUSH20 0xFFFFFFFFFFFFFFFFFFFFFFFFFFFFFFFFFFFFFFFF MUL NOT AND SWAP1 DUP4 PUSH20 0xFFFFFFFFFFFFFFFFFFFFFFFFFFFFFFFFFFFFFFFF AND MUL OR SWAP1 SSTORE POP DUP2 PUSH20 0xFFFFFFFFFFFFFFFFFFFFFFFFFFFFFFFFFFFFFFFF AND DUP2 PUSH20 0xFFFFFFFFFFFFFFFFFFFFFFFFFFFFFFFFFFFFFFFF AND PUSH32 0x8BE0079C531659141344CD1FD0A4F28419497F9722A3DAAFE3B4186F6B6457E0 PUSH1 0x40 MLOAD PUSH1 0x40 MLOAD DUP1 SWAP2 SUB SWAP1 LOG3 POP POP JUMP JUMPDEST PUSH2 0x1B00 DUP1 PUSH2 0x10D PUSH1 0x0 CODECOPY PUSH1 0x0 RETURN INVALID PUSH1 0x80 PUSH1 0x40 MSTORE CALLVALUE DUP1 ISZERO PUSH2 0x10 JUMPI PUSH1 0x0 DUP1 REVERT JUMPDEST POP PUSH1 0x4 CALLDATASIZE LT PUSH2 0xA9 JUMPI PUSH1 0x0 CALLDATALOAD PUSH1 0xE0 SHR DUP1 PUSH4 0x8DA5CB5B GT PUSH2 0x71 JUMPI DUP1 PUSH4 0x8DA5CB5B EQ PUSH2 0x152 JUMPI DUP1 PUSH4 0xB905AD78 EQ PUSH2 0x170 JUMPI DUP1 PUSH4 0xBDAA3C1E EQ PUSH2 0x18E JUMPI DUP1 PUSH4 0xF2FDE38B EQ PUSH2 0x1AA JUMPI DUP1 PUSH4 0xF4CBC4A6 EQ PUSH2 0x1C6 JUMPI DUP1 PUSH4 0xFEF4C92A EQ PUSH2 0x1E4 JUMPI PUSH2 0xA9 JUMP JUMPDEST DUP1 PUSH4 0x422D2629 EQ PUSH2 0xAE JUMPI DUP1 PUSH4 0x48569E59 EQ PUSH2 0xCA JUMPI DUP1 PUSH4 0x5D70B491 EQ PUSH2 0xE6 JUMPI DUP1 PUSH4 0x715018A6 EQ PUSH2 0x118 JUMPI DUP1 PUSH4 0x87E97DE2 EQ PUSH2 0x122 JUMPI JUMPDEST PUSH1 0x0 DUP1 REVERT JUMPDEST PUSH2 0xC8 PUSH1 0x4 DUP1 CALLDATASIZE SUB DUP2 ADD SWAP1 PUSH2 0xC3 SWAP2 SWAP1 PUSH2 0x10DD JUMP JUMPDEST PUSH2 0x200 JUMP JUMPDEST STOP JUMPDEST PUSH2 0xE4 PUSH1 0x4 DUP1 CALLDATASIZE SUB DUP2 ADD SWAP1 PUSH2 0xDF SWAP2 SWAP1 PUSH2 0x10DD JUMP JUMPDEST PUSH2 0x37C JUMP JUMPDEST STOP JUMPDEST PUSH2 0x100 PUSH1 0x4 DUP1 CALLDATASIZE SUB DUP2 ADD SWAP1 PUSH2 0xFB SWAP2 SWAP1 PUSH2 0x10DD JUMP JUMPDEST PUSH2 0x5D2 JUMP JUMPDEST PUSH1 0x40 MLOAD PUSH2 0x10F SWAP4 SWAP3 SWAP2 SWAP1 PUSH2 0x1479 JUMP JUMPDEST PUSH1 0x40 MLOAD DUP1 SWAP2 SUB SWAP1 RETURN JUMPDEST PUSH2 0x120 PUSH2 0x6A4 JUMP JUMPDEST STOP JUMPDEST PUSH2 0x13C PUSH1 0x4 DUP1 CALLDATASIZE SUB DUP2 ADD SWAP1 PUSH2 0x137 SWAP2 SWAP1 PUSH2 0x10DD JUMP JUMPDEST PUSH2 0x6B8 JUMP JUMPDEST PUSH1 0x40 MLOAD PUSH2 0x149 SWAP2 SWAP1 PUSH2 0x1435 JUMP JUMPDEST PUSH1 0x40 MLOAD DUP1 SWAP2 SUB SWAP1 RETURN JUMPDEST PUSH2 0x15A PUSH2 0x81B JUMP JUMPDEST PUSH1 0x40 MLOAD PUSH2 0x167 SWAP2 SWAP1 PUSH2 0x141A JUMP JUMPDEST PUSH1 0x40 MLOAD DUP1 SWAP2 SUB SWAP1 RETURN JUMPDEST PUSH2 0x178 PUSH2 0x844 JUMP JUMPDEST PUSH1 0x40 MLOAD PUSH2 0x185 SWAP2 SWAP1 PUSH2 0x15B7 JUMP JUMPDEST PUSH1 0x40 MLOAD DUP1 SWAP2 SUB SWAP1 RETURN JUMPDEST PUSH2 0x1A8 PUSH1 0x4 DUP1 CALLDATASIZE SUB DUP2 ADD SWAP1 PUSH2 0x1A3 SWAP2 SWAP1 PUSH2 0x1081 JUMP JUMPDEST PUSH2 0x84A JUMP JUMPDEST STOP JUMPDEST PUSH2 0x1C4 PUSH1 0x4 DUP1 CALLDATASIZE SUB DUP2 ADD SWAP1 PUSH2 0x1BF SWAP2 SWAP1 PUSH2 0x1054 JUMP JUMPDEST PUSH2 0x9B5 JUMP JUMPDEST STOP JUMPDEST PUSH2 0x1CE PUSH2 0xA39 JUMP JUMPDEST PUSH1 0x40 MLOAD PUSH2 0x1DB SWAP2 SWAP1 PUSH2 0x1457 JUMP JUMPDEST PUSH1 0x40 MLOAD DUP1 SWAP2 SUB SWAP1 RETURN JUMPDEST PUSH2 0x1FE PUSH1 0x4 DUP1 CALLDATASIZE SUB DUP2 ADD SWAP1 PUSH2 0x1F9 SWAP2 SWAP1 PUSH2 0x110A JUMP JUMPDEST PUSH2 0xC9D JUMP JUMPDEST STOP JUMPDEST PUSH1 0x7 PUSH1 0x0 CALLER PUSH20 0xFFFFFFFFFFFFFFFFFFFFFFFFFFFFFFFFFFFFFFFF AND PUSH20 0xFFFFFFFFFFFFFFFFFFFFFFFFFFFFFFFFFFFFFFFF AND DUP2 MSTORE PUSH1 0x20 ADD SWAP1 DUP2 MSTORE PUSH1 0x20 ADD PUSH1 0x0 KECCAK256 PUSH1 0x0 DUP3 PUSH4 0xFFFFFFFF AND DUP2 MSTORE PUSH1 0x20 ADD SWAP1 DUP2 MSTORE PUSH1 0x20 ADD PUSH1 0x0 KECCAK256 PUSH1 0x0 SWAP1 SLOAD SWAP1 PUSH2 0x100 EXP SWAP1 DIV PUSH1 0xFF AND PUSH2 0x2A3 JUMPI PUSH1 0x40 MLOAD PUSH32 0x8C379A000000000000000000000000000000000000000000000000000000000 DUP2 MSTORE PUSH1 0x4 ADD PUSH2 0x29A SWAP1 PUSH2 0x1537 JUMP JUMPDEST PUSH1 0x40 MLOAD DUP1 SWAP2 SUB SWAP1 REVERT JUMPDEST PUSH1 0x0 PUSH1 0x6 PUSH1 0x0 DUP4 PUSH4 0xFFFFFFFF AND PUSH4 0xFFFFFFFF AND DUP2 MSTORE PUSH1 0x20 ADD SWAP1 DUP2 MSTORE PUSH1 0x20 ADD PUSH1 0x0 KECCAK256 SWAP1 POP PUSH1 0x1 DUP2 PUSH1 0x1 ADD PUSH1 0x0 SWAP1 SLOAD SWAP1 PUSH2 0x100 EXP SWAP1 DIV PUSH4 0xFFFFFFFF AND PUSH2 0x2E7 SWAP2 SWAP1 PUSH2 0x16C1 JUMP JUMPDEST DUP2 PUSH1 0x1 ADD PUSH1 0x0 PUSH2 0x100 EXP DUP2 SLOAD DUP2 PUSH4 0xFFFFFFFF MUL NOT AND SWAP1 DUP4 PUSH4 0xFFFFFFFF AND MUL OR SWAP1 SSTORE POP PUSH1 0x0 PUSH1 0x7 PUSH1 0x0 CALLER PUSH20 0xFFFFFFFFFFFFFFFFFFFFFFFFFFFFFFFFFFFFFFFF AND PUSH20 0xFFFFFFFFFFFFFFFFFFFFFFFFFFFFFFFFFFFFFFFF AND DUP2 MSTORE PUSH1 0x20 ADD SWAP1 DUP2 MSTORE PUSH1 0x20 ADD PUSH1 0x0 KECCAK256 PUSH1 0x0 DUP5 PUSH4 0xFFFFFFFF AND DUP2 MSTORE PUSH1 0x20 ADD SWAP1 DUP2 MSTORE PUSH1 0x20 ADD PUSH1 0x0 KECCAK256 PUSH1 0x0 PUSH2 0x100 EXP DUP2 SLOAD DUP2 PUSH1 0xFF MUL NOT AND SWAP1 DUP4 ISZERO ISZERO MUL OR SWAP1 SSTORE POP POP POP JUMP JUMPDEST PUSH1 0x7 PUSH1 0x0 CALLER PUSH20 0xFFFFFFFFFFFFFFFFFFFFFFFFFFFFFFFFFFFFFFFF AND PUSH20 0xFFFFFFFFFFFFFFFFFFFFFFFFFFFFFFFFFFFFFFFF AND DUP2 MSTORE PUSH1 0x20 ADD SWAP1 DUP2 MSTORE PUSH1 0x20 ADD PUSH1 0x0 KECCAK256 PUSH1 0x0 DUP3 PUSH4 0xFFFFFFFF AND DUP2 MSTORE PUSH1 0x20 ADD SWAP1 DUP2 MSTORE PUSH1 0x20 ADD PUSH1 0x0 KECCAK256 PUSH1 0x0 SWAP1 SLOAD SWAP1 PUSH2 0x100 EXP SWAP1 DIV PUSH1 0xFF AND ISZERO PUSH2 0x420 JUMPI PUSH1 0x40 MLOAD PUSH32 0x8C379A000000000000000000000000000000000000000000000000000000000 DUP2 MSTORE PUSH1 0x4 ADD PUSH2 0x417 SWAP1 PUSH2 0x14F7 JUMP JUMPDEST PUSH1 0x40 MLOAD DUP1 SWAP2 SUB SWAP1 REVERT JUMPDEST PUSH1 0x1 PUSH1 0x7 PUSH1 0x0 CALLER PUSH20 0xFFFFFFFFFFFFFFFFFFFFFFFFFFFFFFFFFFFFFFFF AND PUSH20 0xFFFFFFFFFFFFFFFFFFFFFFFFFFFFFFFFFFFFFFFF AND DUP2 MSTORE PUSH1 0x20 ADD SWAP1 DUP2 MSTORE PUSH1 0x20 ADD PUSH1 0x0 KECCAK256 PUSH1 0x0 DUP4 PUSH4 0xFFFFFFFF AND DUP2 MSTORE PUSH1 0x20 ADD SWAP1 DUP2 MSTORE PUSH1 0x20 ADD PUSH1 0x0 KECCAK256 PUSH1 0x0 PUSH2 0x100 EXP DUP2 SLOAD DUP2 PUSH1 0xFF MUL NOT AND SWAP1 DUP4 ISZERO ISZERO MUL OR SWAP1 SSTORE POP PUSH1 0x0 PUSH1 0x6 PUSH1 0x0 DUP4 PUSH4 0xFFFFFFFF AND PUSH4 0xFFFFFFFF AND DUP2 MSTORE PUSH1 0x20 ADD SWAP1 DUP2 MSTORE PUSH1 0x20 ADD PUSH1 0x0 KECCAK256 SWAP1 POP PUSH1 0x1 DUP2 PUSH1 0x1 ADD PUSH1 0x0 SWAP1 SLOAD SWAP1 PUSH2 0x100 EXP SWAP1 DIV PUSH4 0xFFFFFFFF AND PUSH4 0xFFFFFFFF AND LT ISZERO PUSH2 0x4DA JUMPI PUSH1 0x0 DUP1 REVERT JUMPDEST PUSH1 0x1 DUP2 PUSH1 0x1 ADD PUSH1 0x0 SWAP1 SLOAD SWAP1 PUSH2 0x100 EXP SWAP1 DIV PUSH4 0xFFFFFFFF AND PUSH2 0x4FB SWAP2 SWAP1 PUSH2 0x16FB JUMP JUMPDEST DUP2 PUSH1 0x1 ADD PUSH1 0x0 PUSH2 0x100 EXP DUP2 SLOAD DUP2 PUSH4 0xFFFFFFFF MUL NOT AND SWAP1 DUP4 PUSH4 0xFFFFFFFF AND MUL OR SWAP1 SSTORE POP CALLER DUP2 PUSH1 0x2 ADD PUSH1 0x0 DUP4 PUSH1 0x1 ADD PUSH1 0x4 SWAP1 SLOAD SWAP1 PUSH2 0x100 EXP SWAP1 DIV PUSH4 0xFFFFFFFF AND PUSH4 0xFFFFFFFF AND DUP2 MSTORE PUSH1 0x20 ADD SWAP1 DUP2 MSTORE PUSH1 0x20 ADD PUSH1 0x0 KECCAK256 PUSH1 0x0 PUSH2 0x100 EXP DUP2 SLOAD DUP2 PUSH20 0xFFFFFFFFFFFFFFFFFFFFFFFFFFFFFFFFFFFFFFFF MUL NOT AND SWAP1 DUP4 PUSH20 0xFFFFFFFFFFFFFFFFFFFFFFFFFFFFFFFFFFFFFFFF AND MUL OR SWAP1 SSTORE POP PUSH1 0x1 DUP2 PUSH1 0x1 ADD PUSH1 0x4 SWAP1 SLOAD SWAP1 PUSH2 0x100 EXP SWAP1 DIV PUSH4 0xFFFFFFFF AND PUSH2 0x5AC SWAP2 SWAP1 PUSH2 0x16C1 JUMP JUMPDEST DUP2 PUSH1 0x1 ADD PUSH1 0x4 PUSH2 0x100 EXP DUP2 SLOAD DUP2 PUSH4 0xFFFFFFFF MUL NOT AND SWAP1 DUP4 PUSH4 0xFFFFFFFF AND MUL OR SWAP1 SSTORE POP POP POP JUMP JUMPDEST PUSH1 0x6 PUSH1 0x20 MSTORE DUP1 PUSH1 0x0 MSTORE PUSH1 0x40 PUSH1 0x0 KECCAK256 PUSH1 0x0 SWAP2 POP SWAP1 POP DUP1 PUSH1 0x0 ADD DUP1 SLOAD PUSH2 0x5F5 SWAP1 PUSH2 0x17BD JUMP JUMPDEST DUP1 PUSH1 0x1F ADD PUSH1 0x20 DUP1 SWAP2 DIV MUL PUSH1 0x20 ADD PUSH1 0x40 MLOAD SWAP1 DUP2 ADD PUSH1 0x40 MSTORE DUP1 SWAP3 SWAP2 SWAP1 DUP2 DUP2 MSTORE PUSH1 0x20 ADD DUP3 DUP1 SLOAD PUSH2 0x621 SWAP1 PUSH2 0x17BD JUMP JUMPDEST DUP1 ISZERO PUSH2 0x66E JUMPI DUP1 PUSH1 0x1F LT PUSH2 0x643 JUMPI PUSH2 0x100 DUP1 DUP4 SLOAD DIV MUL DUP4 MSTORE SWAP2 PUSH1 0x20 ADD SWAP2 PUSH2 0x66E JUMP JUMPDEST DUP3 ADD SWAP2 SWAP1 PUSH1 0x0 MSTORE PUSH1 0x20 PUSH1 0x0 KECCAK256 SWAP1 JUMPDEST DUP2 SLOAD DUP2 MSTORE SWAP1 PUSH1 0x1 ADD SWAP1 PUSH1 0x20 ADD DUP1 DUP4 GT PUSH2 0x651 JUMPI DUP3 SWAP1 SUB PUSH1 0x1F AND DUP3 ADD SWAP2 JUMPDEST POP POP POP POP POP SWAP1 DUP1 PUSH1 0x1 ADD PUSH1 0x0 SWAP1 SLOAD SWAP1 PUSH2 0x100 EXP SWAP1 DIV PUSH4 0xFFFFFFFF AND SWAP1 DUP1 PUSH1 0x1 ADD PUSH1 0x4 SWAP1 SLOAD SWAP1 PUSH2 0x100 EXP SWAP1 DIV PUSH4 0xFFFFFFFF AND SWAP1 POP DUP4 JUMP JUMPDEST PUSH2 0x6AC PUSH2 0xDCD JUMP JUMPDEST PUSH2 0x6B6 PUSH1 0x0 PUSH2 0xE4B JUMP JUMPDEST JUMP JUMPDEST PUSH1 0x60 PUSH1 0x0 PUSH1 0x6 PUSH1 0x0 DUP5 PUSH4 0xFFFFFFFF AND PUSH4 0xFFFFFFFF AND DUP2 MSTORE PUSH1 0x20 ADD SWAP1 DUP2 MSTORE PUSH1 0x20 ADD PUSH1 0x0 KECCAK256 PUSH1 0x1 ADD PUSH1 0x4 SWAP1 SLOAD SWAP1 PUSH2 0x100 EXP SWAP1 DIV PUSH4 0xFFFFFFFF AND PUSH4 0xFFFFFFFF AND PUSH8 0xFFFFFFFFFFFFFFFF DUP2 GT ISZERO PUSH2 0x70E JUMPI PUSH2 0x70D PUSH2 0x18DA JUMP JUMPDEST JUMPDEST PUSH1 0x40 MLOAD SWAP1 DUP1 DUP3 MSTORE DUP1 PUSH1 0x20 MUL PUSH1 0x20 ADD DUP3 ADD PUSH1 0x40 MSTORE DUP1 ISZERO PUSH2 0x73C JUMPI DUP2 PUSH1 0x20 ADD PUSH1 0x20 DUP3 MUL DUP1 CALLDATASIZE DUP4 CALLDATACOPY DUP1 DUP3 ADD SWAP2 POP POP SWAP1 POP JUMPDEST POP SWAP1 POP PUSH1 0x0 JUMPDEST DUP2 MLOAD DUP2 PUSH4 0xFFFFFFFF AND LT ISZERO PUSH2 0x811 JUMPI PUSH1 0x6 PUSH1 0x0 DUP6 PUSH4 0xFFFFFFFF AND PUSH4 0xFFFFFFFF AND DUP2 MSTORE PUSH1 0x20 ADD SWAP1 DUP2 MSTORE PUSH1 0x20 ADD PUSH1 0x0 KECCAK256 PUSH1 0x2 ADD PUSH1 0x0 DUP3 PUSH4 0xFFFFFFFF AND DUP2 MSTORE PUSH1 0x20 ADD SWAP1 DUP2 MSTORE PUSH1 0x20 ADD PUSH1 0x0 KECCAK256 PUSH1 0x0 SWAP1 SLOAD SWAP1 PUSH2 0x100 EXP SWAP1 DIV PUSH20 0xFFFFFFFFFFFFFFFFFFFFFFFFFFFFFFFFFFFFFFFF AND DUP3 DUP3 PUSH4 0xFFFFFFFF AND DUP2 MLOAD DUP2 LT PUSH2 0x7C4 JUMPI PUSH2 0x7C3 PUSH2 0x18AB JUMP JUMPDEST JUMPDEST PUSH1 0x20 MUL PUSH1 0x20 ADD ADD SWAP1 PUSH20 0xFFFFFFFFFFFFFFFFFFFFFFFFFFFFFFFFFFFFFFFF AND SWAP1 DUP2 PUSH20 0xFFFFFFFFFFFFFFFFFFFFFFFFFFFFFFFFFFFFFFFF AND DUP2 MSTORE POP POP DUP1 DUP1 PUSH2 0x809 SWAP1 PUSH2 0x1820 JUMP JUMPDEST SWAP2 POP POP PUSH2 0x742 JUMP JUMPDEST POP DUP1 SWAP2 POP POP SWAP2 SWAP1 POP JUMP JUMPDEST PUSH1 0x0 DUP1 PUSH1 0x0 SWAP1 SLOAD SWAP1 PUSH2 0x100 EXP SWAP1 DIV PUSH20 0xFFFFFFFFFFFFFFFFFFFFFFFFFFFFFFFFFFFFFFFF AND SWAP1 POP SWAP1 JUMP JUMPDEST PUSH1 0x4 SLOAD DUP2 JUMP JUMPDEST PUSH2 0x852 PUSH2 0xDCD JUMP JUMPDEST DUP2 PUSH1 0x5 DUP2 PUSH1 0x40 MLOAD PUSH2 0x863 SWAP2 SWAP1 PUSH2 0x1403 JUMP JUMPDEST SWAP1 DUP2 MSTORE PUSH1 0x20 ADD PUSH1 0x40 MLOAD DUP1 SWAP2 SUB SWAP1 KECCAK256 PUSH1 0x0 SWAP1 SLOAD SWAP1 PUSH2 0x100 EXP SWAP1 DIV PUSH1 0xFF AND ISZERO PUSH2 0x8BF JUMPI PUSH1 0x40 MLOAD PUSH32 0x8C379A000000000000000000000000000000000000000000000000000000000 DUP2 MSTORE PUSH1 0x4 ADD PUSH2 0x8B6 SWAP1 PUSH2 0x14D7 JUMP JUMPDEST PUSH1 0x40 MLOAD DUP1 SWAP2 SUB SWAP1 REVERT JUMPDEST PUSH1 0x0 DUP4 MLOAD EQ ISZERO PUSH2 0x904 JUMPI PUSH1 0x40 MLOAD PUSH32 0x8C379A000000000000000000000000000000000000000000000000000000000 DUP2 MSTORE PUSH1 0x4 ADD PUSH2 0x8FB SWAP1 PUSH2 0x14B7 JUMP JUMPDEST PUSH1 0x40 MLOAD DUP1 SWAP2 SUB SWAP1 REVERT JUMPDEST PUSH1 0x1 PUSH1 0x5 DUP5 PUSH1 0x40 MLOAD PUSH2 0x916 SWAP2 SWAP1 PUSH2 0x1403 JUMP JUMPDEST SWAP1 DUP2 MSTORE PUSH1 0x20 ADD PUSH1 0x40 MLOAD DUP1 SWAP2 SUB SWAP1 KECCAK256 PUSH1 0x0 PUSH2 0x100 EXP DUP2 SLOAD DUP2 PUSH1 0xFF MUL NOT AND SWAP1 DUP4 ISZERO ISZERO MUL OR SWAP1 SSTORE POP PUSH1 0x0 PUSH1 0x1 DUP4 PUSH2 0x94A SWAP2 SWAP1 PUSH2 0x16C1 JUMP JUMPDEST SWAP3 POP DUP3 SWAP1 POP PUSH1 0x0 PUSH1 0x6 PUSH1 0x0 DUP4 PUSH4 0xFFFFFFFF AND PUSH4 0xFFFFFFFF AND DUP2 MSTORE PUSH1 0x20 ADD SWAP1 DUP2 MSTORE PUSH1 0x20 ADD PUSH1 0x0 KECCAK256 SWAP1 POP DUP5 DUP2 PUSH1 0x0 ADD SWAP1 DUP1 MLOAD SWAP1 PUSH1 0x20 ADD SWAP1 PUSH2 0x98A SWAP3 SWAP2 SWAP1 PUSH2 0xF17 JUMP JUMPDEST POP DUP4 DUP2 PUSH1 0x1 ADD PUSH1 0x0 PUSH2 0x100 EXP DUP2 SLOAD DUP2 PUSH4 0xFFFFFFFF MUL NOT AND SWAP1 DUP4 PUSH4 0xFFFFFFFF AND MUL OR SWAP1 SSTORE POP POP POP POP POP POP JUMP JUMPDEST PUSH2 0x9BD PUSH2 0xDCD JUMP JUMPDEST PUSH1 0x0 PUSH20 0xFFFFFFFFFFFFFFFFFFFFFFFFFFFFFFFFFFFFFFFF AND DUP2 PUSH20 0xFFFFFFFFFFFFFFFFFFFFFFFFFFFFFFFFFFFFFFFF AND EQ ISZERO PUSH2 0xA2D JUMPI PUSH1 0x40 MLOAD PUSH32 0x8C379A000000000000000000000000000000000000000000000000000000000 DUP2 MSTORE PUSH1 0x4 ADD PUSH2 0xA24 SWAP1 PUSH2 0x1517 JUMP JUMPDEST PUSH1 0x40 MLOAD DUP1 SWAP2 SUB SWAP1 REVERT JUMPDEST PUSH2 0xA36 DUP2 PUSH2 0xE4B JUMP JUMPDEST POP JUMP JUMPDEST PUSH1 0x60 PUSH1 0x0 DUP1 PUSH1 0x1 SWAP1 POP JUMPDEST PUSH1 0x4 SLOAD DUP2 PUSH4 0xFFFFFFFF AND GT PUSH2 0xB22 JUMPI PUSH1 0x7 PUSH1 0x0 CALLER PUSH20 0xFFFFFFFFFFFFFFFFFFFFFFFFFFFFFFFFFFFFFFFF AND PUSH20 0xFFFFFFFFFFFFFFFFFFFFFFFFFFFFFFFFFFFFFFFF AND DUP2 MSTORE PUSH1 0x20 ADD SWAP1 DUP2 MSTORE PUSH1 0x20 ADD PUSH1 0x0 KECCAK256 PUSH1 0x0 DUP3 PUSH4 0xFFFFFFFF AND DUP2 MSTORE PUSH1 0x20 ADD SWAP1 DUP2 MSTORE PUSH1 0x20 ADD PUSH1 0x0 KECCAK256 PUSH1 0x0 SWAP1 SLOAD SWAP1 PUSH2 0x100 EXP SWAP1 DIV PUSH1 0xFF AND ISZERO DUP1 ISZERO PUSH2 0xAFB JUMPI POP PUSH1 0x0 PUSH1 0x6 PUSH1 0x0 DUP4 PUSH4 0xFFFFFFFF AND PUSH4 0xFFFFFFFF AND DUP2 MSTORE PUSH1 0x20 ADD SWAP1 DUP2 MSTORE PUSH1 0x20 ADD PUSH1 0x0 KECCAK256 PUSH1 0x1 ADD PUSH1 0x0 SWAP1 SLOAD SWAP1 PUSH2 0x100 EXP SWAP1 DIV PUSH4 0xFFFFFFFF AND PUSH4 0xFFFFFFFF AND GT JUMPDEST ISZERO PUSH2 0xB0F JUMPI DUP2 DUP1 PUSH2 0xB0B SWAP1 PUSH2 0x1820 JUMP JUMPDEST SWAP3 POP POP JUMPDEST DUP1 DUP1 PUSH2 0xB1A SWAP1 PUSH2 0x1820 JUMP JUMPDEST SWAP2 POP POP PUSH2 0xA43 JUMP JUMPDEST POP PUSH1 0x0 DUP2 PUSH4 0xFFFFFFFF AND PUSH8 0xFFFFFFFFFFFFFFFF DUP2 GT ISZERO PUSH2 0xB45 JUMPI PUSH2 0xB44 PUSH2 0x18DA JUMP JUMPDEST JUMPDEST PUSH1 0x40 MLOAD SWAP1 DUP1 DUP3 MSTORE DUP1 PUSH1 0x20 MUL PUSH1 0x20 ADD DUP3 ADD PUSH1 0x40 MSTORE DUP1 ISZERO PUSH2 0xB73 JUMPI DUP2 PUSH1 0x20 ADD PUSH1 0x20 DUP3 MUL DUP1 CALLDATASIZE DUP4 CALLDATACOPY DUP1 DUP3 ADD SWAP2 POP POP SWAP1 POP JUMPDEST POP SWAP1 POP PUSH1 0x0 SWAP2 POP PUSH1 0x0 PUSH1 0x1 SWAP1 POP JUMPDEST PUSH1 0x4 SLOAD DUP2 PUSH4 0xFFFFFFFF AND GT PUSH2 0xC94 JUMPI PUSH1 0x7 PUSH1 0x0 CALLER PUSH20 0xFFFFFFFFFFFFFFFFFFFFFFFFFFFFFFFFFFFFFFFF AND PUSH20 0xFFFFFFFFFFFFFFFFFFFFFFFFFFFFFFFFFFFFFFFF AND DUP2 MSTORE PUSH1 0x20 ADD SWAP1 DUP2 MSTORE PUSH1 0x20 ADD PUSH1 0x0 KECCAK256 PUSH1 0x0 DUP3 PUSH4 0xFFFFFFFF AND DUP2 MSTORE PUSH1 0x20 ADD SWAP1 DUP2 MSTORE PUSH1 0x20 ADD PUSH1 0x0 KECCAK256 PUSH1 0x0 SWAP1 SLOAD SWAP1 PUSH2 0x100 EXP SWAP1 DIV PUSH1 0xFF AND ISZERO DUP1 ISZERO PUSH2 0xC39 JUMPI POP PUSH1 0x0 PUSH1 0x6 PUSH1 0x0 DUP4 PUSH4 0xFFFFFFFF AND PUSH4 0xFFFFFFFF AND DUP2 MSTORE PUSH1 0x20 ADD SWAP1 DUP2 MSTORE PUSH1 0x20 ADD PUSH1 0x0 KECCAK256 PUSH1 0x1 ADD PUSH1 0x0 SWAP1 SLOAD SWAP1 PUSH2 0x100 EXP SWAP1 DIV PUSH4 0xFFFFFFFF AND PUSH4 0xFFFFFFFF AND GT JUMPDEST ISZERO PUSH2 0xC81 JUMPI DUP1 DUP3 DUP5 PUSH4 0xFFFFFFFF AND DUP2 MLOAD DUP2 LT PUSH2 0xC58 JUMPI PUSH2 0xC57 PUSH2 0x18AB JUMP JUMPDEST JUMPDEST PUSH1 0x20 MUL PUSH1 0x20 ADD ADD SWAP1 PUSH4 0xFFFFFFFF AND SWAP1 DUP2 PUSH4 0xFFFFFFFF AND DUP2 MSTORE POP POP DUP3 DUP1 PUSH2 0xC7D SWAP1 PUSH2 0x1820 JUMP JUMPDEST SWAP4 POP POP JUMPDEST DUP1 DUP1 PUSH2 0xC8C SWAP1 PUSH2 0x1820 JUMP JUMPDEST SWAP2 POP POP PUSH2 0xB81 JUMP JUMPDEST POP DUP1 SWAP3 POP POP POP SWAP1 JUMP JUMPDEST PUSH2 0xCA5 PUSH2 0xDCD JUMP JUMPDEST PUSH1 0x0 DUP2 PUSH4 0xFFFFFFFF AND GT PUSH2 0xCEE JUMPI PUSH1 0x40 MLOAD PUSH32 0x8C379A000000000000000000000000000000000000000000000000000000000 DUP2 MSTORE PUSH1 0x4 ADD PUSH2 0xCE5 SWAP1 PUSH2 0x1577 JUMP JUMPDEST PUSH1 0x40 MLOAD DUP1 SWAP2 SUB SWAP1 REVERT JUMPDEST PUSH1 0x0 PUSH1 0x6 PUSH1 0x0 DUP5 PUSH4 0xFFFFFFFF AND PUSH4 0xFFFFFFFF AND DUP2 MSTORE PUSH1 0x20 ADD SWAP1 DUP2 MSTORE PUSH1 0x20 ADD PUSH1 0x0 KECCAK256 SWAP1 POP PUSH1 0x0 DUP2 PUSH1 0x0 ADD DUP1 SLOAD PUSH2 0xD22 SWAP1 PUSH2 0x17BD JUMP JUMPDEST SWAP1 POP EQ ISZERO PUSH2 0xD65 JUMPI PUSH1 0x40 MLOAD PUSH32 0x8C379A000000000000000000000000000000000000000000000000000000000 DUP2 MSTORE PUSH1 0x4 ADD PUSH2 0xD5C SWAP1 PUSH2 0x1597 JUMP JUMPDEST PUSH1 0x40 MLOAD DUP1 SWAP2 SUB SWAP1 REVERT JUMPDEST PUSH1 0x1 DUP2 PUSH1 0x1 ADD PUSH1 0x0 DUP3 DUP3 DUP3 SWAP1 SLOAD SWAP1 PUSH2 0x100 EXP SWAP1 DIV PUSH4 0xFFFFFFFF AND PUSH2 0xD89 SWAP2 SWAP1 PUSH2 0x16C1 JUMP JUMPDEST SWAP3 POP PUSH2 0x100 EXP DUP2 SLOAD DUP2 PUSH4 0xFFFFFFFF MUL NOT AND SWAP1 DUP4 PUSH4 0xFFFFFFFF AND MUL OR SWAP1 SSTORE DUP2 PUSH1 0x1 ADD PUSH1 0x0 PUSH2 0x100 EXP DUP2 SLOAD DUP2 PUSH4 0xFFFFFFFF MUL NOT AND SWAP1 DUP4 PUSH4 0xFFFFFFFF AND MUL OR SWAP1 SSTORE POP POP POP POP JUMP JUMPDEST PUSH2 0xDD5 PUSH2 0xF0F JUMP JUMPDEST PUSH20 0xFFFFFFFFFFFFFFFFFFFFFFFFFFFFFFFFFFFFFFFF AND PUSH2 0xDF3 PUSH2 0x81B JUMP JUMPDEST PUSH20 0xFFFFFFFFFFFFFFFFFFFFFFFFFFFFFFFFFFFFFFFF AND EQ PUSH2 0xE49 JUMPI PUSH1 0x40 MLOAD PUSH32 0x8C379A000000000000000000000000000000000000000000000000000000000 DUP2 MSTORE PUSH1 0x4 ADD PUSH2 0xE40 SWAP1 PUSH2 0x1557 JUMP JUMPDEST PUSH1 0x40 MLOAD DUP1 SWAP2 SUB SWAP1 REVERT JUMPDEST JUMP JUMPDEST PUSH1 0x0 DUP1 PUSH1 0x0 SWAP1 SLOAD SWAP1 PUSH2 0x100 EXP SWAP1 DIV PUSH20 0xFFFFFFFFFFFFFFFFFFFFFFFFFFFFFFFFFFFFFFFF AND SWAP1 POP DUP2 PUSH1 0x0 DUP1 PUSH2 0x100 EXP DUP2 SLOAD DUP2 PUSH20 0xFFFFFFFFFFFFFFFFFFFFFFFFFFFFFFFFFFFFFFFF MUL NOT AND SWAP1 DUP4 PUSH20 0xFFFFFFFFFFFFFFFFFFFFFFFFFFFFFFFFFFFFFFFF AND MUL OR SWAP1 SSTORE POP DUP2 PUSH20 0xFFFFFFFFFFFFFFFFFFFFFFFFFFFFFFFFFFFFFFFF AND DUP2 PUSH20 0xFFFFFFFFFFFFFFFFFFFFFFFFFFFFFFFFFFFFFFFF AND PUSH32 0x8BE0079C531659141344CD1FD0A4F28419497F9722A3DAAFE3B4186F6B6457E0 PUSH1 0x40 MLOAD PUSH1 0x40 MLOAD DUP1 SWAP2 SUB SWAP1 LOG3 POP POP JUMP JUMPDEST PUSH1 0x0 CALLER SWAP1 POP SWAP1 JUMP JUMPDEST DUP3 DUP1 SLOAD PUSH2 0xF23 SWAP1 PUSH2 0x17BD JUMP JUMPDEST SWAP1 PUSH1 0x0 MSTORE PUSH1 0x20 PUSH1 0x0 KECCAK256 SWAP1 PUSH1 0x1F ADD PUSH1 0x20 SWAP1 DIV DUP2 ADD SWAP3 DUP3 PUSH2 0xF45 JUMPI PUSH1 0x0 DUP6 SSTORE PUSH2 0xF8C JUMP JUMPDEST DUP3 PUSH1 0x1F LT PUSH2 0xF5E JUMPI DUP1 MLOAD PUSH1 0xFF NOT AND DUP4 DUP1 ADD OR DUP6 SSTORE PUSH2 0xF8C JUMP JUMPDEST DUP3 DUP1 ADD PUSH1 0x1 ADD DUP6 SSTORE DUP3 ISZERO PUSH2 0xF8C JUMPI SWAP2 DUP3 ADD JUMPDEST DUP3 DUP2 GT ISZERO PUSH2 0xF8B JUMPI DUP3 MLOAD DUP3 SSTORE SWAP2 PUSH1 0x20 ADD SWAP2 SWAP1 PUSH1 0x1 ADD SWAP1 PUSH2 0xF70 JUMP JUMPDEST JUMPDEST POP SWAP1 POP PUSH2 0xF99 SWAP2 SWAP1 PUSH2 0xF9D JUMP JUMPDEST POP SWAP1 JUMP JUMPDEST JUMPDEST DUP1 DUP3 GT ISZERO PUSH2 0xFB6 JUMPI PUSH1 0x0 DUP2 PUSH1 0x0 SWAP1 SSTORE POP PUSH1 0x1 ADD PUSH2 0xF9E JUMP JUMPDEST POP SWAP1 JUMP JUMPDEST PUSH1 0x0 PUSH2 0xFCD PUSH2 0xFC8 DUP5 PUSH2 0x15F7 JUMP JUMPDEST PUSH2 0x15D2 JUMP JUMPDEST SWAP1 POP DUP3 DUP2 MSTORE PUSH1 0x20 DUP2 ADD DUP5 DUP5 DUP5 ADD GT ISZERO PUSH2 0xFE9 JUMPI PUSH2 0xFE8 PUSH2 0x190E JUMP JUMPDEST JUMPDEST PUSH2 0xFF4 DUP5 DUP3 DUP6 PUSH2 0x177B JUMP JUMPDEST POP SWAP4 SWAP3 POP POP POP JUMP JUMPDEST PUSH1 0x0 DUP2 CALLDATALOAD SWAP1 POP PUSH2 0x100B DUP2 PUSH2 0x1A9C JUMP JUMPDEST SWAP3 SWAP2 POP POP JUMP JUMPDEST PUSH1 0x0 DUP3 PUSH1 0x1F DUP4 ADD SLT PUSH2 0x1026 JUMPI PUSH2 0x1025 PUSH2 0x1909 JUMP JUMPDEST JUMPDEST DUP2 CALLDATALOAD PUSH2 0x1036 DUP5 DUP3 PUSH1 0x20 DUP7 ADD PUSH2 0xFBA JUMP JUMPDEST SWAP2 POP POP SWAP3 SWAP2 POP POP JUMP JUMPDEST PUSH1 0x0 DUP2 CALLDATALOAD SWAP1 POP PUSH2 0x104E DUP2 PUSH2 0x1AB3 JUMP JUMPDEST SWAP3 SWAP2 POP POP JUMP JUMPDEST PUSH1 0x0 PUSH1 0x20 DUP3 DUP5 SUB SLT ISZERO PUSH2 0x106A JUMPI PUSH2 0x1069 PUSH2 0x1918 JUMP JUMPDEST JUMPDEST PUSH1 0x0 PUSH2 0x1078 DUP5 DUP3 DUP6 ADD PUSH2 0xFFC JUMP JUMPDEST SWAP2 POP POP SWAP3 SWAP2 POP POP JUMP JUMPDEST PUSH1 0x0 DUP1 PUSH1 0x40 DUP4 DUP6 SUB SLT ISZERO PUSH2 0x1098 JUMPI PUSH2 0x1097 PUSH2 0x1918 JUMP JUMPDEST JUMPDEST PUSH1 0x0 DUP4 ADD CALLDATALOAD PUSH8 0xFFFFFFFFFFFFFFFF DUP2 GT ISZERO PUSH2 0x10B6 JUMPI PUSH2 0x10B5 PUSH2 0x1913 JUMP JUMPDEST JUMPDEST PUSH2 0x10C2 DUP6 DUP3 DUP7 ADD PUSH2 0x1011 JUMP JUMPDEST SWAP3 POP POP PUSH1 0x20 PUSH2 0x10D3 DUP6 DUP3 DUP7 ADD PUSH2 0x103F JUMP JUMPDEST SWAP2 POP POP SWAP3 POP SWAP3 SWAP1 POP JUMP JUMPDEST PUSH1 0x0 PUSH1 0x20 DUP3 DUP5 SUB SLT ISZERO PUSH2 0x10F3 JUMPI PUSH2 0x10F2 PUSH2 0x1918 JUMP JUMPDEST JUMPDEST PUSH1 0x0 PUSH2 0x1101 DUP5 DUP3 DUP6 ADD PUSH2 0x103F JUMP JUMPDEST SWAP2 POP POP SWAP3 SWAP2 POP POP JUMP JUMPDEST PUSH1 0x0 DUP1 PUSH1 0x40 DUP4 DUP6 SUB SLT ISZERO PUSH2 0x1121 JUMPI PUSH2 0x1120 PUSH2 0x1918 JUMP JUMPDEST JUMPDEST PUSH1 0x0 PUSH2 0x112F DUP6 DUP3 DUP7 ADD PUSH2 0x103F JUMP JUMPDEST SWAP3 POP POP PUSH1 0x20 PUSH2 0x1140 DUP6 DUP3 DUP7 ADD PUSH2 0x103F JUMP JUMPDEST SWAP2 POP POP SWAP3 POP SWAP3 SWAP1 POP JUMP JUMPDEST PUSH1 0x0 PUSH2 0x1156 DUP4 DUP4 PUSH2 0x117A JUMP JUMPDEST PUSH1 0x20 DUP4 ADD SWAP1 POP SWAP3 SWAP2 POP POP JUMP JUMPDEST PUSH1 0x0 PUSH2 0x116E DUP4 DUP4 PUSH2 0x13E5 JUMP JUMPDEST PUSH1 0x20 DUP4 ADD SWAP1 POP SWAP3 SWAP2 POP POP JUMP JUMPDEST PUSH2 0x1183 DUP2 PUSH2 0x172F JUMP JUMPDEST DUP3 MSTORE POP POP JUMP JUMPDEST PUSH2 0x1192 DUP2 PUSH2 0x172F JUMP JUMPDEST DUP3 MSTORE POP POP JUMP JUMPDEST PUSH1 0x0 PUSH2 0x11A3 DUP3 PUSH2 0x1648 JUMP JUMPDEST PUSH2 0x11AD DUP2 DUP6 PUSH2 0x1683 JUMP JUMPDEST SWAP4 POP PUSH2 0x11B8 DUP4 PUSH2 0x1628 JUMP JUMPDEST DUP1 PUSH1 0x0 JUMPDEST DUP4 DUP2 LT ISZERO PUSH2 0x11E9 JUMPI DUP2 MLOAD PUSH2 0x11D0 DUP9 DUP3 PUSH2 0x114A JUMP JUMPDEST SWAP8 POP PUSH2 0x11DB DUP4 PUSH2 0x1669 JUMP JUMPDEST SWAP3 POP POP PUSH1 0x1 DUP2 ADD SWAP1 POP PUSH2 0x11BC JUMP JUMPDEST POP DUP6 SWAP4 POP POP POP POP SWAP3 SWAP2 POP POP JUMP JUMPDEST PUSH1 0x0 PUSH2 0x1201 DUP3 PUSH2 0x1653 JUMP JUMPDEST PUSH2 0x120B DUP2 DUP6 PUSH2 0x1694 JUMP JUMPDEST SWAP4 POP PUSH2 0x1216 DUP4 PUSH2 0x1638 JUMP JUMPDEST DUP1 PUSH1 0x0 JUMPDEST DUP4 DUP2 LT ISZERO PUSH2 0x1247 JUMPI DUP2 MLOAD PUSH2 0x122E DUP9 DUP3 PUSH2 0x1162 JUMP JUMPDEST SWAP8 POP PUSH2 0x1239 DUP4 PUSH2 0x1676 JUMP JUMPDEST SWAP3 POP POP PUSH1 0x1 DUP2 ADD SWAP1 POP PUSH2 0x121A JUMP JUMPDEST POP DUP6 SWAP4 POP POP POP POP SWAP3 SWAP2 POP POP JUMP JUMPDEST PUSH1 0x0 PUSH2 0x125F DUP3 PUSH2 0x165E JUMP JUMPDEST PUSH2 0x1269 DUP2 DUP6 PUSH2 0x16A5 JUMP JUMPDEST SWAP4 POP PUSH2 0x1279 DUP2 DUP6 PUSH1 0x20 DUP7 ADD PUSH2 0x178A JUMP JUMPDEST PUSH2 0x1282 DUP2 PUSH2 0x191D JUMP JUMPDEST DUP5 ADD SWAP2 POP POP SWAP3 SWAP2 POP POP JUMP JUMPDEST PUSH1 0x0 PUSH2 0x1298 DUP3 PUSH2 0x165E JUMP JUMPDEST PUSH2 0x12A2 DUP2 DUP6 PUSH2 0x16B6 JUMP JUMPDEST SWAP4 POP PUSH2 0x12B2 DUP2 DUP6 PUSH1 0x20 DUP7 ADD PUSH2 0x178A JUMP JUMPDEST DUP1 DUP5 ADD SWAP2 POP POP SWAP3 SWAP2 POP POP JUMP JUMPDEST PUSH1 0x0 PUSH2 0x12CB PUSH1 0x14 DUP4 PUSH2 0x16A5 JUMP JUMPDEST SWAP2 POP PUSH2 0x12D6 DUP3 PUSH2 0x192E JUMP JUMPDEST PUSH1 0x20 DUP3 ADD SWAP1 POP SWAP2 SWAP1 POP JUMP JUMPDEST PUSH1 0x0 PUSH2 0x12EE PUSH1 0x11 DUP4 PUSH2 0x16A5 JUMP JUMPDEST SWAP2 POP PUSH2 0x12F9 DUP3 PUSH2 0x1957 JUMP JUMPDEST PUSH1 0x20 DUP3 ADD SWAP1 POP SWAP2 SWAP1 POP JUMP JUMPDEST PUSH1 0x0 PUSH2 0x1311 PUSH1 0x16 DUP4 PUSH2 0x16A5 JUMP JUMPDEST SWAP2 POP PUSH2 0x131C DUP3 PUSH2 0x1980 JUMP JUMPDEST PUSH1 0x20 DUP3 ADD SWAP1 POP SWAP2 SWAP1 POP JUMP JUMPDEST PUSH1 0x0 PUSH2 0x1334 PUSH1 0x26 DUP4 PUSH2 0x16A5 JUMP JUMPDEST SWAP2 POP PUSH2 0x133F DUP3 PUSH2 0x19A9 JUMP JUMPDEST PUSH1 0x40 DUP3 ADD SWAP1 POP SWAP2 SWAP1 POP JUMP JUMPDEST PUSH1 0x0 PUSH2 0x1357 PUSH1 0x12 DUP4 PUSH2 0x16A5 JUMP JUMPDEST SWAP2 POP PUSH2 0x1362 DUP3 PUSH2 0x19F8 JUMP JUMPDEST PUSH1 0x20 DUP3 ADD SWAP1 POP SWAP2 SWAP1 POP JUMP JUMPDEST PUSH1 0x0 PUSH2 0x137A PUSH1 0x20 DUP4 PUSH2 0x16A5 JUMP JUMPDEST SWAP2 POP PUSH2 0x1385 DUP3 PUSH2 0x1A21 JUMP JUMPDEST PUSH1 0x20 DUP3 ADD SWAP1 POP SWAP2 SWAP1 POP JUMP JUMPDEST PUSH1 0x0 PUSH2 0x139D PUSH1 0x5 DUP4 PUSH2 0x16A5 JUMP JUMPDEST SWAP2 POP PUSH2 0x13A8 DUP3 PUSH2 0x1A4A JUMP JUMPDEST PUSH1 0x20 DUP3 ADD SWAP1 POP SWAP2 SWAP1 POP JUMP JUMPDEST PUSH1 0x0 PUSH2 0x13C0 PUSH1 0x13 DUP4 PUSH2 0x16A5 JUMP JUMPDEST SWAP2 POP PUSH2 0x13CB DUP3 PUSH2 0x1A73 JUMP JUMPDEST PUSH1 0x20 DUP3 ADD SWAP1 POP SWAP2 SWAP1 POP JUMP JUMPDEST PUSH2 0x13DF DUP2 PUSH2 0x1761 JUMP JUMPDEST DUP3 MSTORE POP POP JUMP JUMPDEST PUSH2 0x13EE DUP2 PUSH2 0x176B JUMP JUMPDEST DUP3 MSTORE POP POP JUMP JUMPDEST PUSH2 0x13FD DUP2 PUSH2 0x176B JUMP JUMPDEST DUP3 MSTORE POP POP JUMP JUMPDEST PUSH1 0x0 PUSH2 0x140F DUP3 DUP5 PUSH2 0x128D JUMP JUMPDEST SWAP2 POP DUP2 SWAP1 POP SWAP3 SWAP2 POP POP JUMP JUMPDEST PUSH1 0x0 PUSH1 0x20 DUP3 ADD SWAP1 POP PUSH2 0x142F PUSH1 0x0 DUP4 ADD DUP5 PUSH2 0x1189 JUMP JUMPDEST SWAP3 SWAP2 POP POP JUMP JUMPDEST PUSH1 0x0 PUSH1 0x20 DUP3 ADD SWAP1 POP DUP2 DUP2 SUB PUSH1 0x0 DUP4 ADD MSTORE PUSH2 0x144F DUP2 DUP5 PUSH2 0x1198 JUMP JUMPDEST SWAP1 POP SWAP3 SWAP2 POP POP JUMP JUMPDEST PUSH1 0x0 PUSH1 0x20 DUP3 ADD SWAP1 POP DUP2 DUP2 SUB PUSH1 0x0 DUP4 ADD MSTORE PUSH2 0x1471 DUP2 DUP5 PUSH2 0x11F6 JUMP JUMPDEST SWAP1 POP SWAP3 SWAP2 POP POP JUMP JUMPDEST PUSH1 0x0 PUSH1 0x60 DUP3 ADD SWAP1 POP DUP2 DUP2 SUB PUSH1 0x0 DUP4 ADD MSTORE PUSH2 0x1493 DUP2 DUP7 PUSH2 0x1254 JUMP JUMPDEST SWAP1 POP PUSH2 0x14A2 PUSH1 0x20 DUP4 ADD DUP6 PUSH2 0x13F4 JUMP JUMPDEST PUSH2 0x14AF PUSH1 0x40 DUP4 ADD DUP5 PUSH2 0x13F4 JUMP JUMPDEST SWAP5 SWAP4 POP POP POP POP JUMP JUMPDEST PUSH1 0x0 PUSH1 0x20 DUP3 ADD SWAP1 POP DUP2 DUP2 SUB PUSH1 0x0 DUP4 ADD MSTORE PUSH2 0x14D0 DUP2 PUSH2 0x12BE JUMP JUMPDEST SWAP1 POP SWAP2 SWAP1 POP JUMP JUMPDEST PUSH1 0x0 PUSH1 0x20 DUP3 ADD SWAP1 POP DUP2 DUP2 SUB PUSH1 0x0 DUP4 ADD MSTORE PUSH2 0x14F0 DUP2 PUSH2 0x12E1 JUMP JUMPDEST SWAP1 POP SWAP2 SWAP1 POP JUMP JUMPDEST PUSH1 0x0 PUSH1 0x20 DUP3 ADD SWAP1 POP DUP2 DUP2 SUB PUSH1 0x0 DUP4 ADD MSTORE PUSH2 0x1510 DUP2 PUSH2 0x1304 JUMP JUMPDEST SWAP1 POP SWAP2 SWAP1 POP JUMP JUMPDEST PUSH1 0x0 PUSH1 0x20 DUP3 ADD SWAP1 POP DUP2 DUP2 SUB PUSH1 0x0 DUP4 ADD MSTORE PUSH2 0x1530 DUP2 PUSH2 0x1327 JUMP JUMPDEST SWAP1 POP SWAP2 SWAP1 POP JUMP JUMPDEST PUSH1 0x0 PUSH1 0x20 DUP3 ADD SWAP1 POP DUP2 DUP2 SUB PUSH1 0x0 DUP4 ADD MSTORE PUSH2 0x1550 DUP2 PUSH2 0x134A JUMP JUMPDEST SWAP1 POP SWAP2 SWAP1 POP JUMP JUMPDEST PUSH1 0x0 PUSH1 0x20 DUP3 ADD SWAP1 POP DUP2 DUP2 SUB PUSH1 0x0 DUP4 ADD MSTORE PUSH2 0x1570 DUP2 PUSH2 0x136D JUMP JUMPDEST SWAP1 POP SWAP2 SWAP1 POP JUMP JUMPDEST PUSH1 0x0 PUSH1 0x20 DUP3 ADD SWAP1 POP DUP2 DUP2 SUB PUSH1 0x0 DUP4 ADD MSTORE PUSH2 0x1590 DUP2 PUSH2 0x1390 JUMP JUMPDEST SWAP1 POP SWAP2 SWAP1 POP JUMP JUMPDEST PUSH1 0x0 PUSH1 0x20 DUP3 ADD SWAP1 POP DUP2 DUP2 SUB PUSH1 0x0 DUP4 ADD MSTORE PUSH2 0x15B0 DUP2 PUSH2 0x13B3 JUMP JUMPDEST SWAP1 POP SWAP2 SWAP1 POP JUMP JUMPDEST PUSH1 0x0 PUSH1 0x20 DUP3 ADD SWAP1 POP PUSH2 0x15CC PUSH1 0x0 DUP4 ADD DUP5 PUSH2 0x13D6 JUMP JUMPDEST SWAP3 SWAP2 POP POP JUMP JUMPDEST PUSH1 0x0 PUSH2 0x15DC PUSH2 0x15ED JUMP JUMPDEST SWAP1 POP PUSH2 0x15E8 DUP3 DUP3 PUSH2 0x17EF JUMP JUMPDEST SWAP2 SWAP1 POP JUMP JUMPDEST PUSH1 0x0 PUSH1 0x40 MLOAD SWAP1 POP SWAP1 JUMP JUMPDEST PUSH1 0x0 PUSH8 0xFFFFFFFFFFFFFFFF DUP3 GT ISZERO PUSH2 0x1612 JUMPI PUSH2 0x1611 PUSH2 0x18DA JUMP JUMPDEST JUMPDEST PUSH2 0x161B DUP3 PUSH2 0x191D JUMP JUMPDEST SWAP1 POP PUSH1 0x20 DUP2 ADD SWAP1 POP SWAP2 SWAP1 POP JUMP JUMPDEST PUSH1 0x0 DUP2 SWAP1 POP PUSH1 0x20 DUP3 ADD SWAP1 POP SWAP2 SWAP1 POP JUMP JUMPDEST PUSH1 0x0 DUP2 SWAP1 POP PUSH1 0x20 DUP3 ADD SWAP1 POP SWAP2 SWAP1 POP JUMP JUMPDEST PUSH1 0x0 DUP2 MLOAD SWAP1 POP SWAP2 SWAP1 POP JUMP JUMPDEST PUSH1 0x0 DUP2 MLOAD SWAP1 POP SWAP2 SWAP1 POP JUMP JUMPDEST PUSH1 0x0 DUP2 MLOAD SWAP1 POP SWAP2 SWAP1 POP JUMP JUMPDEST PUSH1 0x0 PUSH1 0x20 DUP3 ADD SWAP1 POP SWAP2 SWAP1 POP JUMP JUMPDEST PUSH1 0x0 PUSH1 0x20 DUP3 ADD SWAP1 POP SWAP2 SWAP1 POP JUMP JUMPDEST PUSH1 0x0 DUP3 DUP3 MSTORE PUSH1 0x20 DUP3 ADD SWAP1 POP SWAP3 SWAP2 POP POP JUMP JUMPDEST PUSH1 0x0 DUP3 DUP3 MSTORE PUSH1 0x20 DUP3 ADD SWAP1 POP SWAP3 SWAP2 POP POP JUMP JUMPDEST PUSH1 0x0 DUP3 DUP3 MSTORE PUSH1 0x20 DUP3 ADD SWAP1 POP SWAP3 SWAP2 POP POP JUMP JUMPDEST PUSH1 0x0 DUP2 SWAP1 POP SWAP3 SWAP2 POP POP JUMP JUMPDEST PUSH1 0x0 PUSH2 0x16CC DUP3 PUSH2 0x176B JUMP JUMPDEST SWAP2 POP PUSH2 0x16D7 DUP4 PUSH2 0x176B JUMP JUMPDEST SWAP3 POP DUP3 PUSH4 0xFFFFFFFF SUB DUP3 GT ISZERO PUSH2 0x16F0 JUMPI PUSH2 0x16EF PUSH2 0x184D JUMP JUMPDEST JUMPDEST DUP3 DUP3 ADD SWAP1 POP SWAP3 SWAP2 POP POP JUMP JUMPDEST PUSH1 0x0 PUSH2 0x1706 DUP3 PUSH2 0x176B JUMP JUMPDEST SWAP2 POP PUSH2 0x1711 DUP4 PUSH2 0x176B JUMP JUMPDEST SWAP3 POP DUP3 DUP3 LT ISZERO PUSH2 0x1724 JUMPI PUSH2 0x1723 PUSH2 0x184D JUMP JUMPDEST JUMPDEST DUP3 DUP3 SUB SWAP1 POP SWAP3 SWAP2 POP POP JUMP JUMPDEST PUSH1 0x0 PUSH2 0x173A DUP3 PUSH2 0x1741 JUMP JUMPDEST SWAP1 POP SWAP2 SWAP1 POP JUMP JUMPDEST PUSH1 0x0 PUSH20 0xFFFFFFFFFFFFFFFFFFFFFFFFFFFFFFFFFFFFFFFF DUP3 AND SWAP1 POP SWAP2 SWAP1 POP JUMP JUMPDEST PUSH1 0x0 DUP2 SWAP1 POP SWAP2 SWAP1 POP JUMP JUMPDEST PUSH1 0x0 PUSH4 0xFFFFFFFF DUP3 AND SWAP1 POP SWAP2 SWAP1 POP JUMP JUMPDEST DUP3 DUP2 DUP4 CALLDATACOPY PUSH1 0x0 DUP4 DUP4 ADD MSTORE POP POP POP JUMP JUMPDEST PUSH1 0x0 JUMPDEST DUP4 DUP2 LT ISZERO PUSH2 0x17A8 JUMPI DUP1 DUP3 ADD MLOAD DUP2 DUP5 ADD MSTORE PUSH1 0x20 DUP2 ADD SWAP1 POP PUSH2 0x178D JUMP JUMPDEST DUP4 DUP2 GT ISZERO PUSH2 0x17B7 JUMPI PUSH1 0x0 DUP5 DUP5 ADD MSTORE JUMPDEST POP POP POP POP JUMP JUMPDEST PUSH1 0x0 PUSH1 0x2 DUP3 DIV SWAP1 POP PUSH1 0x1 DUP3 AND DUP1 PUSH2 0x17D5 JUMPI PUSH1 0x7F DUP3 AND SWAP2 POP JUMPDEST PUSH1 0x20 DUP3 LT DUP2 EQ ISZERO PUSH2 0x17E9 JUMPI PUSH2 0x17E8 PUSH2 0x187C JUMP JUMPDEST JUMPDEST POP SWAP2 SWAP1 POP JUMP JUMPDEST PUSH2 0x17F8 DUP3 PUSH2 0x191D JUMP JUMPDEST DUP2 ADD DUP2 DUP2 LT PUSH8 0xFFFFFFFFFFFFFFFF DUP3 GT OR ISZERO PUSH2 0x1817 JUMPI PUSH2 0x1816 PUSH2 0x18DA JUMP JUMPDEST JUMPDEST DUP1 PUSH1 0x40 MSTORE POP POP POP JUMP JUMPDEST PUSH1 0x0 PUSH2 0x182B DUP3 PUSH2 0x176B JUMP JUMPDEST SWAP2 POP PUSH4 0xFFFFFFFF DUP3 EQ ISZERO PUSH2 0x1842 JUMPI PUSH2 0x1841 PUSH2 0x184D JUMP JUMPDEST JUMPDEST PUSH1 0x1 DUP3 ADD SWAP1 POP SWAP2 SWAP1 POP JUMP JUMPDEST PUSH32 0x4E487B7100000000000000000000000000000000000000000000000000000000 PUSH1 0x0 MSTORE PUSH1 0x11 PUSH1 0x4 MSTORE PUSH1 0x24 PUSH1 0x0 REVERT JUMPDEST PUSH32 0x4E487B7100000000000000000000000000000000000000000000000000000000 PUSH1 0x0 MSTORE PUSH1 0x22 PUSH1 0x4 MSTORE PUSH1 0x24 PUSH1 0x0 REVERT JUMPDEST PUSH32 0x4E487B7100000000000000000000000000000000000000000000000000000000 PUSH1 0x0 MSTORE PUSH1 0x32 PUSH1 0x4 MSTORE PUSH1 0x24 PUSH1 0x0 REVERT JUMPDEST PUSH32 0x4E487B7100000000000000000000000000000000000000000000000000000000 PUSH1 0x0 MSTORE PUSH1 0x41 PUSH1 0x4 MSTORE PUSH1 0x24 PUSH1 0x0 REVERT JUMPDEST PUSH1 0x0 DUP1 REVERT JUMPDEST PUSH1 0x0 DUP1 REVERT JUMPDEST PUSH1 0x0 DUP1 REVERT JUMPDEST PUSH1 0x0 DUP1 REVERT JUMPDEST PUSH1 0x0 PUSH1 0x1F NOT PUSH1 0x1F DUP4 ADD AND SWAP1 POP SWAP2 SWAP1 POP JUMP JUMPDEST PUSH32 0x4E616D652063616E6E6F7420626520656D707479000000000000000000000000 PUSH1 0x0 DUP3 ADD MSTORE POP JUMP JUMPDEST PUSH32 0x426F6F6B20697320617661696C61626C65000000000000000000000000000000 PUSH1 0x0 DUP3 ADD MSTORE POP JUMP JUMPDEST PUSH32 0x426F6F6B20697320616C72656164792069737375656400000000000000000000 PUSH1 0x0 DUP3 ADD MSTORE POP JUMP JUMPDEST PUSH32 0x4F776E61626C653A206E6577206F776E657220697320746865207A65726F2061 PUSH1 0x0 DUP3 ADD MSTORE PUSH32 0x6464726573730000000000000000000000000000000000000000000000000000 PUSH1 0x20 DUP3 ADD MSTORE POP JUMP JUMPDEST PUSH32 0x426F6F6B206973206E6F74206973737565640000000000000000000000000000 PUSH1 0x0 DUP3 ADD MSTORE POP JUMP JUMPDEST PUSH32 0x4F776E61626C653A2063616C6C6572206973206E6F7420746865206F776E6572 PUSH1 0x0 DUP3 ADD MSTORE POP JUMP JUMPDEST PUSH32 0x217A65726F000000000000000000000000000000000000000000000000000000 PUSH1 0x0 DUP3 ADD MSTORE POP JUMP JUMPDEST PUSH32 0x426F6F6B20646F6573206E6F7420657869737400000000000000000000000000 PUSH1 0x0 DUP3 ADD MSTORE POP JUMP JUMPDEST PUSH2 0x1AA5 DUP2 PUSH2 0x172F JUMP JUMPDEST DUP2 EQ PUSH2 0x1AB0 JUMPI PUSH1 0x0 DUP1 REVERT JUMPDEST POP JUMP JUMPDEST PUSH2 0x1ABC DUP2 PUSH2 0x176B JUMP JUMPDEST DUP2 EQ PUSH2 0x1AC7 JUMPI PUSH1 0x0 DUP1 REVERT JUMPDEST POP JUMP INVALID LOG2 PUSH5 0x6970667358 0x22 SLT KECCAK256 0xD8 0xD4 DUP12 0xD7 CALLDATACOPY 0xC5 0x49 0xD1 ADDMOD 0xE6 DUP6 0x49 CALLDATALOAD SHR 0xA6 SWAP9 DUP10 0xA9 SWAP7 0xDC 0x4F MOD COINBASE SWAP5 PUSH29 0xEC47848BC87AEB64736F6C634300080700330000000000000000000000 "
				},
				"gasEstimates": {
					"creation": {
						"codeDepositCost": "1382400",
						"executionCost": "infinite",
						"totalCost": "infinite"
					},
					"external": {
						"BookLedger(uint32)": "infinite",
						"addBook(string,uint32)": "infinite",
						"addBookCopies(uint32,uint32)": "infinite",
						"bookCount()": "2451",
						"borrowBook(uint32)": "infinite",
						"getAllAvailableBooks()": "infinite",
						"getOwnerHistoryOfBook(uint32)": "infinite",
						"owner()": "2522",
						"renounceOwnership()": "30465",
						"returnBook(uint32)": "infinite",
						"transferOwnership(address)": "30813"
					}
				},
				"methodIdentifiers": {
					"BookLedger(uint32)": "5d70b491",
					"addBook(string,uint32)": "bdaa3c1e",
					"addBookCopies(uint32,uint32)": "fef4c92a",
					"bookCount()": "b905ad78",
					"borrowBook(uint32)": "48569e59",
					"getAllAvailableBooks()": "f4cbc4a6",
					"getOwnerHistoryOfBook(uint32)": "87e97de2",
					"owner()": "8da5cb5b",
					"renounceOwnership()": "715018a6",
					"returnBook(uint32)": "422d2629",
					"transferOwnership(address)": "f2fde38b"
				}
			},
			"storageLayout": {
				"storage": [
					{
						"astId": 7,
						"contract": "contracts/Library.sol:Library",
						"label": "_owner",
						"offset": 0,
						"slot": "0",
						"type": "t_address"
					},
					{
						"astId": 153,
						"contract": "contracts/Library.sol:Library",
						"label": "myBook",
						"offset": 0,
						"slot": "1",
						"type": "t_struct(Book)150_storage"
					},
					{
						"astId": 155,
						"contract": "contracts/Library.sol:Library",
						"label": "bookCount",
						"offset": 0,
						"slot": "4",
						"type": "t_uint256"
					},
					{
						"astId": 159,
						"contract": "contracts/Library.sol:Library",
						"label": "isAvailable",
						"offset": 0,
						"slot": "5",
						"type": "t_mapping(t_string_memory_ptr,t_bool)"
					},
					{
						"astId": 164,
						"contract": "contracts/Library.sol:Library",
						"label": "BookLedger",
						"offset": 0,
						"slot": "6",
						"type": "t_mapping(t_uint32,t_struct(Book)150_storage)"
					},
					{
						"astId": 170,
						"contract": "contracts/Library.sol:Library",
						"label": "isAlreadyIssued",
						"offset": 0,
						"slot": "7",
						"type": "t_mapping(t_address,t_mapping(t_uint256,t_bool))"
					}
				],
				"types": {
					"t_address": {
						"encoding": "inplace",
						"label": "address",
						"numberOfBytes": "20"
					},
					"t_bool": {
						"encoding": "inplace",
						"label": "bool",
						"numberOfBytes": "1"
					},
					"t_mapping(t_address,t_mapping(t_uint256,t_bool))": {
						"encoding": "mapping",
						"key": "t_address",
						"label": "mapping(address => mapping(uint256 => bool))",
						"numberOfBytes": "32",
						"value": "t_mapping(t_uint256,t_bool)"
					},
					"t_mapping(t_string_memory_ptr,t_bool)": {
						"encoding": "mapping",
						"key": "t_string_memory_ptr",
						"label": "mapping(string => bool)",
						"numberOfBytes": "32",
						"value": "t_bool"
					},
					"t_mapping(t_uint256,t_address)": {
						"encoding": "mapping",
						"key": "t_uint256",
						"label": "mapping(uint256 => address)",
						"numberOfBytes": "32",
						"value": "t_address"
					},
					"t_mapping(t_uint256,t_bool)": {
						"encoding": "mapping",
						"key": "t_uint256",
						"label": "mapping(uint256 => bool)",
						"numberOfBytes": "32",
						"value": "t_bool"
					},
					"t_mapping(t_uint32,t_struct(Book)150_storage)": {
						"encoding": "mapping",
						"key": "t_uint32",
						"label": "mapping(uint32 => struct Library.Book)",
						"numberOfBytes": "32",
						"value": "t_struct(Book)150_storage"
					},
					"t_string_memory_ptr": {
						"encoding": "bytes",
						"label": "string",
						"numberOfBytes": "32"
					},
					"t_string_storage": {
						"encoding": "bytes",
						"label": "string",
						"numberOfBytes": "32"
					},
					"t_struct(Book)150_storage": {
						"encoding": "inplace",
						"label": "struct Library.Book",
						"members": [
							{
								"astId": 141,
								"contract": "contracts/Library.sol:Library",
								"label": "name",
								"offset": 0,
								"slot": "0",
								"type": "t_string_storage"
							},
							{
								"astId": 143,
								"contract": "contracts/Library.sol:Library",
								"label": "copies",
								"offset": 0,
								"slot": "1",
								"type": "t_uint32"
							},
							{
								"astId": 145,
								"contract": "contracts/Library.sol:Library",
								"label": "ownerCount",
								"offset": 4,
								"slot": "1",
								"type": "t_uint32"
							},
							{
								"astId": 149,
								"contract": "contracts/Library.sol:Library",
								"label": "ownersHistory",
								"offset": 0,
								"slot": "2",
								"type": "t_mapping(t_uint256,t_address)"
							}
						],
						"numberOfBytes": "96"
					},
					"t_uint256": {
						"encoding": "inplace",
						"label": "uint256",
						"numberOfBytes": "32"
					},
					"t_uint32": {
						"encoding": "inplace",
						"label": "uint32",
						"numberOfBytes": "4"
					}
				}
			},
			"userdoc": {
				"kind": "user",
				"methods": {},
				"version": 1
			}
		}
	}
}