{
	"contracts/Library.sol": {
		"Library": {
			"abi": [
				{
					"anonymous": false,
					"inputs": [
						{
							"indexed": true,
							"internalType": "address",
							"name": "previousOwner",
							"type": "address"
						},
						{
							"indexed": true,
							"internalType": "address",
							"name": "newOwner",
							"type": "address"
						}
					],
					"name": "OwnershipTransferred",
					"type": "event"
				},
				{
					"inputs": [
						{
							"internalType": "uint256",
							"name": "",
							"type": "uint256"
						}
					],
					"name": "BookLedger",
					"outputs": [
						{
							"internalType": "string",
							"name": "name",
							"type": "string"
						},
						{
							"internalType": "uint256",
							"name": "copies",
							"type": "uint256"
						}
					],
					"stateMutability": "view",
					"type": "function"
				},
				{
					"inputs": [
						{
							"internalType": "string",
							"name": "_name",
							"type": "string"
						},
						{
							"internalType": "uint256",
							"name": "_copies",
							"type": "uint256"
						}
					],
					"name": "addBook",
					"outputs": [],
					"stateMutability": "nonpayable",
					"type": "function"
				},
				{
					"inputs": [],
					"name": "bookCount",
					"outputs": [
						{
							"internalType": "uint256",
							"name": "",
							"type": "uint256"
						}
					],
					"stateMutability": "view",
					"type": "function"
				},
				{
					"inputs": [],
					"name": "owner",
					"outputs": [
						{
							"internalType": "address",
							"name": "",
							"type": "address"
						}
					],
					"stateMutability": "view",
					"type": "function"
				},
				{
					"inputs": [],
					"name": "renounceOwnership",
					"outputs": [],
					"stateMutability": "nonpayable",
					"type": "function"
				},
				{
					"inputs": [
						{
							"internalType": "address",
							"name": "newOwner",
							"type": "address"
						}
					],
					"name": "transferOwnership",
					"outputs": [],
					"stateMutability": "nonpayable",
					"type": "function"
				}
			],
			"devdoc": {
				"kind": "dev",
				"methods": {
					"owner()": {
						"details": "Returns the address of the current owner."
					},
					"renounceOwnership()": {
						"details": "Leaves the contract without owner. It will not be possible to call `onlyOwner` functions anymore. Can only be called by the current owner. NOTE: Renouncing ownership will leave the contract without an owner, thereby removing any functionality that is only available to the owner."
					},
					"transferOwnership(address)": {
						"details": "Transfers ownership of the contract to a new account (`newOwner`). Can only be called by the current owner."
					}
				},
				"version": 1
			},
			"evm": {
				"assembly": "    /* \"contracts/Library.sol\":84:939  contract Library is Ownable{\r... */\n  mstore(0x40, 0x80)\n  callvalue\n  dup1\n  iszero\n  tag_1\n  jumpi\n  0x00\n  dup1\n  revert\ntag_1:\n  pop\n    /* \"@openzeppelin/contracts/access/Ownable.sol\":936:968  _transferOwnership(_msgSender()) */\n  tag_4\n    /* \"@openzeppelin/contracts/access/Ownable.sol\":955:967  _msgSender() */\n  tag_5\n    /* \"@openzeppelin/contracts/access/Ownable.sol\":955:965  _msgSender */\n  shl(0x20, tag_6)\n    /* \"@openzeppelin/contracts/access/Ownable.sol\":955:967  _msgSender() */\n  0x20\n  shr\n  jump\t// in\ntag_5:\n    /* \"@openzeppelin/contracts/access/Ownable.sol\":936:954  _transferOwnership */\n  shl(0x20, tag_7)\n    /* \"@openzeppelin/contracts/access/Ownable.sol\":936:968  _transferOwnership(_msgSender()) */\n  0x20\n  shr\n  jump\t// in\ntag_4:\n    /* \"contracts/Library.sol\":84:939  contract Library is Ownable{\r... */\n  jump(tag_8)\n    /* \"@openzeppelin/contracts/utils/Context.sol\":640:736  function _msgSender() internal view virtual returns (address) {... */\ntag_6:\n    /* \"@openzeppelin/contracts/utils/Context.sol\":693:700  address */\n  0x00\n    /* \"@openzeppelin/contracts/utils/Context.sol\":719:729  msg.sender */\n  caller\n    /* \"@openzeppelin/contracts/utils/Context.sol\":712:729  return msg.sender */\n  swap1\n  pop\n    /* \"@openzeppelin/contracts/utils/Context.sol\":640:736  function _msgSender() internal view virtual returns (address) {... */\n  swap1\n  jump\t// out\n    /* \"@openzeppelin/contracts/access/Ownable.sol\":2433:2620  function _transferOwnership(address newOwner) internal virtual {... */\ntag_7:\n    /* \"@openzeppelin/contracts/access/Ownable.sol\":2506:2522  address oldOwner */\n  0x00\n    /* \"@openzeppelin/contracts/access/Ownable.sol\":2525:2531  _owner */\n  dup1\n  0x00\n  swap1\n  sload\n  swap1\n  0x0100\n  exp\n  swap1\n  div\n  0xffffffffffffffffffffffffffffffffffffffff\n  and\n    /* \"@openzeppelin/contracts/access/Ownable.sol\":2506:2531  address oldOwner = _owner */\n  swap1\n  pop\n    /* \"@openzeppelin/contracts/access/Ownable.sol\":2550:2558  newOwner */\n  dup2\n    /* \"@openzeppelin/contracts/access/Ownable.sol\":2541:2547  _owner */\n  0x00\n  dup1\n    /* \"@openzeppelin/contracts/access/Ownable.sol\":2541:2558  _owner = newOwner */\n  0x0100\n  exp\n  dup2\n  sload\n  dup2\n  0xffffffffffffffffffffffffffffffffffffffff\n  mul\n  not\n  and\n  swap1\n  dup4\n  0xffffffffffffffffffffffffffffffffffffffff\n  and\n  mul\n  or\n  swap1\n  sstore\n  pop\n    /* \"@openzeppelin/contracts/access/Ownable.sol\":2604:2612  newOwner */\n  dup2\n    /* \"@openzeppelin/contracts/access/Ownable.sol\":2573:2613  OwnershipTransferred(oldOwner, newOwner) */\n  0xffffffffffffffffffffffffffffffffffffffff\n  and\n    /* \"@openzeppelin/contracts/access/Ownable.sol\":2594:2602  oldOwner */\n  dup2\n    /* \"@openzeppelin/contracts/access/Ownable.sol\":2573:2613  OwnershipTransferred(oldOwner, newOwner) */\n  0xffffffffffffffffffffffffffffffffffffffff\n  and\n  0x8be0079c531659141344cd1fd0a4f28419497f9722a3daafe3b4186f6b6457e0\n  mload(0x40)\n  mload(0x40)\n  dup1\n  swap2\n  sub\n  swap1\n  log3\n    /* \"@openzeppelin/contracts/access/Ownable.sol\":2496:2620  {... */\n  pop\n    /* \"@openzeppelin/contracts/access/Ownable.sol\":2433:2620  function _transferOwnership(address newOwner) internal virtual {... */\n  pop\n  jump\t// out\n    /* \"contracts/Library.sol\":84:939  contract Library is Ownable{\r... */\ntag_8:\n  dataSize(sub_0)\n  dup1\n  dataOffset(sub_0)\n  0x00\n  codecopy\n  0x00\n  return\nstop\n\nsub_0: assembly {\n        /* \"contracts/Library.sol\":84:939  contract Library is Ownable{\r... */\n      mstore(0x40, 0x80)\n      callvalue\n      dup1\n      iszero\n      tag_1\n      jumpi\n      0x00\n      dup1\n      revert\n    tag_1:\n      pop\n      jumpi(tag_2, lt(calldatasize, 0x04))\n      shr(0xe0, calldataload(0x00))\n      dup1\n      0x637a3872\n      eq\n      tag_3\n      jumpi\n      dup1\n      0x715018a6\n      eq\n      tag_4\n      jumpi\n      dup1\n      0x7975c6b4\n      eq\n      tag_5\n      jumpi\n      dup1\n      0x8da5cb5b\n      eq\n      tag_6\n      jumpi\n      dup1\n      0xb905ad78\n      eq\n      tag_7\n      jumpi\n      dup1\n      0xf2fde38b\n      eq\n      tag_8\n      jumpi\n    tag_2:\n      0x00\n      dup1\n      revert\n        /* \"contracts/Library.sol\":538:936  function addBook(string memory _name, uint256 _copies)\r... */\n    tag_3:\n      tag_9\n      0x04\n      dup1\n      calldatasize\n      sub\n      dup2\n      add\n      swap1\n      tag_10\n      swap2\n      swap1\n      tag_11\n      jump\t// in\n    tag_10:\n      tag_12\n      jump\t// in\n    tag_9:\n      stop\n        /* \"@openzeppelin/contracts/access/Ownable.sol\":1831:1932  function renounceOwnership() public virtual onlyOwner {... */\n    tag_4:\n      tag_13\n      tag_14\n      jump\t// in\n    tag_13:\n      stop\n        /* \"contracts/Library.sol\":348:390  mapping(uint256 => Book) public BookLedger */\n    tag_5:\n      tag_15\n      0x04\n      dup1\n      calldatasize\n      sub\n      dup2\n      add\n      swap1\n      tag_16\n      swap2\n      swap1\n      tag_17\n      jump\t// in\n    tag_16:\n      tag_18\n      jump\t// in\n    tag_15:\n      mload(0x40)\n      tag_19\n      swap3\n      swap2\n      swap1\n      tag_20\n      jump\t// in\n    tag_19:\n      mload(0x40)\n      dup1\n      swap2\n      sub\n      swap1\n      return\n        /* \"@openzeppelin/contracts/access/Ownable.sol\":1201:1286  function owner() public view virtual returns (address) {... */\n    tag_6:\n      tag_21\n      tag_22\n      jump\t// in\n    tag_21:\n      mload(0x40)\n      tag_23\n      swap2\n      swap1\n      tag_24\n      jump\t// in\n    tag_23:\n      mload(0x40)\n      dup1\n      swap2\n      sub\n      swap1\n      return\n        /* \"contracts/Library.sol\":265:289  uint256 public bookCount */\n    tag_7:\n      tag_25\n      tag_26\n      jump\t// in\n    tag_25:\n      mload(0x40)\n      tag_27\n      swap2\n      swap1\n      tag_28\n      jump\t// in\n    tag_27:\n      mload(0x40)\n      dup1\n      swap2\n      sub\n      swap1\n      return\n        /* \"@openzeppelin/contracts/access/Ownable.sol\":2081:2279  function transferOwnership(address newOwner) public virtual onlyOwner {... */\n    tag_8:\n      tag_29\n      0x04\n      dup1\n      calldatasize\n      sub\n      dup2\n      add\n      swap1\n      tag_30\n      swap2\n      swap1\n      tag_31\n      jump\t// in\n    tag_30:\n      tag_32\n      jump\t// in\n    tag_29:\n      stop\n        /* \"contracts/Library.sol\":538:936  function addBook(string memory _name, uint256 _copies)\r... */\n    tag_12:\n        /* \"@openzeppelin/contracts/access/Ownable.sol\":1094:1107  _checkOwner() */\n      tag_34\n        /* \"@openzeppelin/contracts/access/Ownable.sol\":1094:1105  _checkOwner */\n      tag_35\n        /* \"@openzeppelin/contracts/access/Ownable.sol\":1094:1107  _checkOwner() */\n      jump\t// in\n    tag_34:\n        /* \"contracts/Library.sol\":656:661  _name */\n      dup2\n        /* \"contracts/Library.sol\":466:477  isAvailable */\n      0x05\n        /* \"contracts/Library.sol\":478:483  _name */\n      dup2\n        /* \"contracts/Library.sol\":466:484  isAvailable[_name] */\n      mload(0x40)\n      tag_37\n      swap2\n      swap1\n      tag_38\n      jump\t// in\n    tag_37:\n      swap1\n      dup2\n      mstore\n      0x20\n      add\n      mload(0x40)\n      dup1\n      swap2\n      sub\n      swap1\n      keccak256\n      0x00\n      swap1\n      sload\n      swap1\n      0x0100\n      exp\n      swap1\n      div\n      0xff\n      and\n        /* \"contracts/Library.sol\":465:484  !isAvailable[_name] */\n      iszero\n        /* \"contracts/Library.sol\":457:506  require(!isAvailable[_name], \"Book is available\") */\n      tag_39\n      jumpi\n      mload(0x40)\n      0x08c379a000000000000000000000000000000000000000000000000000000000\n      dup2\n      mstore\n      0x04\n      add\n      tag_40\n      swap1\n      tag_41\n      jump\t// in\n    tag_40:\n      mload(0x40)\n      dup1\n      swap2\n      sub\n      swap1\n      revert\n    tag_39:\n        /* \"contracts/Library.sol\":710:711  0 */\n      0x00\n        /* \"contracts/Library.sol\":693:698  _name */\n      dup4\n        /* \"contracts/Library.sol\":687:706  bytes(_name).length */\n      mload\n        /* \"contracts/Library.sol\":687:711  bytes(_name).length != 0 */\n      eq\n      iszero\n        /* \"contracts/Library.sol\":679:736  require(bytes(_name).length != 0, \"Name cannot be empty\") */\n      tag_43\n      jumpi\n      mload(0x40)\n      0x08c379a000000000000000000000000000000000000000000000000000000000\n      dup2\n      mstore\n      0x04\n      add\n      tag_44\n      swap1\n      tag_45\n      jump\t// in\n    tag_44:\n      mload(0x40)\n      dup1\n      swap2\n      sub\n      swap1\n      revert\n    tag_43:\n        /* \"contracts/Library.sol\":768:772  true */\n      0x01\n        /* \"contracts/Library.sol\":747:758  isAvailable */\n      0x05\n        /* \"contracts/Library.sol\":759:764  _name */\n      dup5\n        /* \"contracts/Library.sol\":747:765  isAvailable[_name] */\n      mload(0x40)\n      tag_46\n      swap2\n      swap1\n      tag_38\n      jump\t// in\n    tag_46:\n      swap1\n      dup2\n      mstore\n      0x20\n      add\n      mload(0x40)\n      dup1\n      swap2\n      sub\n      swap1\n      keccak256\n      0x00\n        /* \"contracts/Library.sol\":747:772  isAvailable[_name] = true */\n      0x0100\n      exp\n      dup2\n      sload\n      dup2\n      0xff\n      mul\n      not\n      and\n      swap1\n      dup4\n      iszero\n      iszero\n      mul\n      or\n      swap1\n      sstore\n      pop\n        /* \"contracts/Library.sol\":783:798  uint256 _bookId */\n      0x00\n        /* \"contracts/Library.sol\":810:811  1 */\n      0x01\n        /* \"contracts/Library.sol\":801:811  _copies+=1 */\n      dup4\n      tag_47\n      swap2\n      swap1\n      tag_48\n      jump\t// in\n    tag_47:\n      swap3\n      pop\n      dup3\n        /* \"contracts/Library.sol\":783:811  uint256 _bookId = _copies+=1 */\n      swap1\n      pop\n        /* \"contracts/Library.sol\":822:839  Book storage book */\n      0x00\n        /* \"contracts/Library.sol\":842:852  BookLedger */\n      0x06\n        /* \"contracts/Library.sol\":842:861  BookLedger[_bookId] */\n      0x00\n        /* \"contracts/Library.sol\":853:860  _bookId */\n      dup4\n        /* \"contracts/Library.sol\":842:861  BookLedger[_bookId] */\n      dup2\n      mstore\n      0x20\n      add\n      swap1\n      dup2\n      mstore\n      0x20\n      add\n      0x00\n      keccak256\n        /* \"contracts/Library.sol\":822:861  Book storage book = BookLedger[_bookId] */\n      swap1\n      pop\n        /* \"contracts/Library.sol\":884:889  _name */\n      dup5\n        /* \"contracts/Library.sol\":872:876  book */\n      dup2\n        /* \"contracts/Library.sol\":872:881  book.name */\n      0x00\n      add\n        /* \"contracts/Library.sol\":872:889  book.name = _name */\n      swap1\n      dup1\n      mload\n      swap1\n      0x20\n      add\n      swap1\n      tag_49\n      swap3\n      swap2\n      swap1\n      tag_50\n      jump\t// in\n    tag_49:\n      pop\n        /* \"contracts/Library.sol\":914:921  _copies */\n      dup4\n        /* \"contracts/Library.sol\":900:904  book */\n      dup2\n        /* \"contracts/Library.sol\":900:911  book.copies */\n      0x01\n      add\n        /* \"contracts/Library.sol\":900:921  book.copies = _copies */\n      dup2\n      swap1\n      sstore\n      pop\n        /* \"contracts/Library.sol\":668:936  {\r... */\n      pop\n      pop\n        /* \"@openzeppelin/contracts/access/Ownable.sol\":1117:1118  _ */\n      pop\n        /* \"contracts/Library.sol\":538:936  function addBook(string memory _name, uint256 _copies)\r... */\n      pop\n      pop\n      jump\t// out\n        /* \"@openzeppelin/contracts/access/Ownable.sol\":1831:1932  function renounceOwnership() public virtual onlyOwner {... */\n    tag_14:\n        /* \"@openzeppelin/contracts/access/Ownable.sol\":1094:1107  _checkOwner() */\n      tag_52\n        /* \"@openzeppelin/contracts/access/Ownable.sol\":1094:1105  _checkOwner */\n      tag_35\n        /* \"@openzeppelin/contracts/access/Ownable.sol\":1094:1107  _checkOwner() */\n      jump\t// in\n    tag_52:\n        /* \"@openzeppelin/contracts/access/Ownable.sol\":1895:1925  _transferOwnership(address(0)) */\n      tag_54\n        /* \"@openzeppelin/contracts/access/Ownable.sol\":1922:1923  0 */\n      0x00\n        /* \"@openzeppelin/contracts/access/Ownable.sol\":1895:1913  _transferOwnership */\n      tag_55\n        /* \"@openzeppelin/contracts/access/Ownable.sol\":1895:1925  _transferOwnership(address(0)) */\n      jump\t// in\n    tag_54:\n        /* \"@openzeppelin/contracts/access/Ownable.sol\":1831:1932  function renounceOwnership() public virtual onlyOwner {... */\n      jump\t// out\n        /* \"contracts/Library.sol\":348:390  mapping(uint256 => Book) public BookLedger */\n    tag_18:\n      mstore(0x20, 0x06)\n      dup1\n      0x00\n      mstore\n      keccak256(0x00, 0x40)\n      0x00\n      swap2\n      pop\n      swap1\n      pop\n      dup1\n      0x00\n      add\n      dup1\n      sload\n      tag_56\n      swap1\n      tag_57\n      jump\t// in\n    tag_56:\n      dup1\n      0x1f\n      add\n      0x20\n      dup1\n      swap2\n      div\n      mul\n      0x20\n      add\n      mload(0x40)\n      swap1\n      dup2\n      add\n      0x40\n      mstore\n      dup1\n      swap3\n      swap2\n      swap1\n      dup2\n      dup2\n      mstore\n      0x20\n      add\n      dup3\n      dup1\n      sload\n      tag_58\n      swap1\n      tag_57\n      jump\t// in\n    tag_58:\n      dup1\n      iszero\n      tag_59\n      jumpi\n      dup1\n      0x1f\n      lt\n      tag_60\n      jumpi\n      0x0100\n      dup1\n      dup4\n      sload\n      div\n      mul\n      dup4\n      mstore\n      swap2\n      0x20\n      add\n      swap2\n      jump(tag_59)\n    tag_60:\n      dup3\n      add\n      swap2\n      swap1\n      0x00\n      mstore\n      keccak256(0x00, 0x20)\n      swap1\n    tag_61:\n      dup2\n      sload\n      dup2\n      mstore\n      swap1\n      0x01\n      add\n      swap1\n      0x20\n      add\n      dup1\n      dup4\n      gt\n      tag_61\n      jumpi\n      dup3\n      swap1\n      sub\n      0x1f\n      and\n      dup3\n      add\n      swap2\n    tag_59:\n      pop\n      pop\n      pop\n      pop\n      pop\n      swap1\n      dup1\n      0x01\n      add\n      sload\n      swap1\n      pop\n      dup3\n      jump\t// out\n        /* \"@openzeppelin/contracts/access/Ownable.sol\":1201:1286  function owner() public view virtual returns (address) {... */\n    tag_22:\n        /* \"@openzeppelin/contracts/access/Ownable.sol\":1247:1254  address */\n      0x00\n        /* \"@openzeppelin/contracts/access/Ownable.sol\":1273:1279  _owner */\n      dup1\n      0x00\n      swap1\n      sload\n      swap1\n      0x0100\n      exp\n      swap1\n      div\n      0xffffffffffffffffffffffffffffffffffffffff\n      and\n        /* \"@openzeppelin/contracts/access/Ownable.sol\":1266:1279  return _owner */\n      swap1\n      pop\n        /* \"@openzeppelin/contracts/access/Ownable.sol\":1201:1286  function owner() public view virtual returns (address) {... */\n      swap1\n      jump\t// out\n        /* \"contracts/Library.sol\":265:289  uint256 public bookCount */\n    tag_26:\n      sload(0x04)\n      dup2\n      jump\t// out\n        /* \"@openzeppelin/contracts/access/Ownable.sol\":2081:2279  function transferOwnership(address newOwner) public virtual onlyOwner {... */\n    tag_32:\n        /* \"@openzeppelin/contracts/access/Ownable.sol\":1094:1107  _checkOwner() */\n      tag_64\n        /* \"@openzeppelin/contracts/access/Ownable.sol\":1094:1105  _checkOwner */\n      tag_35\n        /* \"@openzeppelin/contracts/access/Ownable.sol\":1094:1107  _checkOwner() */\n      jump\t// in\n    tag_64:\n        /* \"@openzeppelin/contracts/access/Ownable.sol\":2189:2190  0 */\n      0x00\n        /* \"@openzeppelin/contracts/access/Ownable.sol\":2169:2191  newOwner != address(0) */\n      0xffffffffffffffffffffffffffffffffffffffff\n      and\n        /* \"@openzeppelin/contracts/access/Ownable.sol\":2169:2177  newOwner */\n      dup2\n        /* \"@openzeppelin/contracts/access/Ownable.sol\":2169:2191  newOwner != address(0) */\n      0xffffffffffffffffffffffffffffffffffffffff\n      and\n      eq\n      iszero\n        /* \"@openzeppelin/contracts/access/Ownable.sol\":2161:2234  require(newOwner != address(0), \"Ownable: new owner is the zero address\") */\n      tag_66\n      jumpi\n      mload(0x40)\n      0x08c379a000000000000000000000000000000000000000000000000000000000\n      dup2\n      mstore\n      0x04\n      add\n      tag_67\n      swap1\n      tag_68\n      jump\t// in\n    tag_67:\n      mload(0x40)\n      dup1\n      swap2\n      sub\n      swap1\n      revert\n    tag_66:\n        /* \"@openzeppelin/contracts/access/Ownable.sol\":2244:2272  _transferOwnership(newOwner) */\n      tag_69\n        /* \"@openzeppelin/contracts/access/Ownable.sol\":2263:2271  newOwner */\n      dup2\n        /* \"@openzeppelin/contracts/access/Ownable.sol\":2244:2262  _transferOwnership */\n      tag_55\n        /* \"@openzeppelin/contracts/access/Ownable.sol\":2244:2272  _transferOwnership(newOwner) */\n      jump\t// in\n    tag_69:\n        /* \"@openzeppelin/contracts/access/Ownable.sol\":2081:2279  function transferOwnership(address newOwner) public virtual onlyOwner {... */\n      pop\n      jump\t// out\n        /* \"@openzeppelin/contracts/access/Ownable.sol\":1359:1489  function _checkOwner() internal view virtual {... */\n    tag_35:\n        /* \"@openzeppelin/contracts/access/Ownable.sol\":1433:1445  _msgSender() */\n      tag_71\n        /* \"@openzeppelin/contracts/access/Ownable.sol\":1433:1443  _msgSender */\n      tag_72\n        /* \"@openzeppelin/contracts/access/Ownable.sol\":1433:1445  _msgSender() */\n      jump\t// in\n    tag_71:\n        /* \"@openzeppelin/contracts/access/Ownable.sol\":1422:1445  owner() == _msgSender() */\n      0xffffffffffffffffffffffffffffffffffffffff\n      and\n        /* \"@openzeppelin/contracts/access/Ownable.sol\":1422:1429  owner() */\n      tag_73\n        /* \"@openzeppelin/contracts/access/Ownable.sol\":1422:1427  owner */\n      tag_22\n        /* \"@openzeppelin/contracts/access/Ownable.sol\":1422:1429  owner() */\n      jump\t// in\n    tag_73:\n        /* \"@openzeppelin/contracts/access/Ownable.sol\":1422:1445  owner() == _msgSender() */\n      0xffffffffffffffffffffffffffffffffffffffff\n      and\n      eq\n        /* \"@openzeppelin/contracts/access/Ownable.sol\":1414:1482  require(owner() == _msgSender(), \"Ownable: caller is not the owner\") */\n      tag_74\n      jumpi\n      mload(0x40)\n      0x08c379a000000000000000000000000000000000000000000000000000000000\n      dup2\n      mstore\n      0x04\n      add\n      tag_75\n      swap1\n      tag_76\n      jump\t// in\n    tag_75:\n      mload(0x40)\n      dup1\n      swap2\n      sub\n      swap1\n      revert\n    tag_74:\n        /* \"@openzeppelin/contracts/access/Ownable.sol\":1359:1489  function _checkOwner() internal view virtual {... */\n      jump\t// out\n        /* \"@openzeppelin/contracts/access/Ownable.sol\":2433:2620  function _transferOwnership(address newOwner) internal virtual {... */\n    tag_55:\n        /* \"@openzeppelin/contracts/access/Ownable.sol\":2506:2522  address oldOwner */\n      0x00\n        /* \"@openzeppelin/contracts/access/Ownable.sol\":2525:2531  _owner */\n      dup1\n      0x00\n      swap1\n      sload\n      swap1\n      0x0100\n      exp\n      swap1\n      div\n      0xffffffffffffffffffffffffffffffffffffffff\n      and\n        /* \"@openzeppelin/contracts/access/Ownable.sol\":2506:2531  address oldOwner = _owner */\n      swap1\n      pop\n        /* \"@openzeppelin/contracts/access/Ownable.sol\":2550:2558  newOwner */\n      dup2\n        /* \"@openzeppelin/contracts/access/Ownable.sol\":2541:2547  _owner */\n      0x00\n      dup1\n        /* \"@openzeppelin/contracts/access/Ownable.sol\":2541:2558  _owner = newOwner */\n      0x0100\n      exp\n      dup2\n      sload\n      dup2\n      0xffffffffffffffffffffffffffffffffffffffff\n      mul\n      not\n      and\n      swap1\n      dup4\n      0xffffffffffffffffffffffffffffffffffffffff\n      and\n      mul\n      or\n      swap1\n      sstore\n      pop\n        /* \"@openzeppelin/contracts/access/Ownable.sol\":2604:2612  newOwner */\n      dup2\n        /* \"@openzeppelin/contracts/access/Ownable.sol\":2573:2613  OwnershipTransferred(oldOwner, newOwner) */\n      0xffffffffffffffffffffffffffffffffffffffff\n      and\n        /* \"@openzeppelin/contracts/access/Ownable.sol\":2594:2602  oldOwner */\n      dup2\n        /* \"@openzeppelin/contracts/access/Ownable.sol\":2573:2613  OwnershipTransferred(oldOwner, newOwner) */\n      0xffffffffffffffffffffffffffffffffffffffff\n      and\n      0x8be0079c531659141344cd1fd0a4f28419497f9722a3daafe3b4186f6b6457e0\n      mload(0x40)\n      mload(0x40)\n      dup1\n      swap2\n      sub\n      swap1\n      log3\n        /* \"@openzeppelin/contracts/access/Ownable.sol\":2496:2620  {... */\n      pop\n        /* \"@openzeppelin/contracts/access/Ownable.sol\":2433:2620  function _transferOwnership(address newOwner) internal virtual {... */\n      pop\n      jump\t// out\n        /* \"@openzeppelin/contracts/utils/Context.sol\":640:736  function _msgSender() internal view virtual returns (address) {... */\n    tag_72:\n        /* \"@openzeppelin/contracts/utils/Context.sol\":693:700  address */\n      0x00\n        /* \"@openzeppelin/contracts/utils/Context.sol\":719:729  msg.sender */\n      caller\n        /* \"@openzeppelin/contracts/utils/Context.sol\":712:729  return msg.sender */\n      swap1\n      pop\n        /* \"@openzeppelin/contracts/utils/Context.sol\":640:736  function _msgSender() internal view virtual returns (address) {... */\n      swap1\n      jump\t// out\n    tag_50:\n      dup3\n      dup1\n      sload\n      tag_79\n      swap1\n      tag_57\n      jump\t// in\n    tag_79:\n      swap1\n      0x00\n      mstore\n      keccak256(0x00, 0x20)\n      swap1\n      0x1f\n      add\n      0x20\n      swap1\n      div\n      dup2\n      add\n      swap3\n      dup3\n      tag_81\n      jumpi\n      0x00\n      dup6\n      sstore\n      jump(tag_80)\n    tag_81:\n      dup3\n      0x1f\n      lt\n      tag_82\n      jumpi\n      dup1\n      mload\n      not(0xff)\n      and\n      dup4\n      dup1\n      add\n      or\n      dup6\n      sstore\n      jump(tag_80)\n    tag_82:\n      dup3\n      dup1\n      add\n      0x01\n      add\n      dup6\n      sstore\n      dup3\n      iszero\n      tag_80\n      jumpi\n      swap2\n      dup3\n      add\n    tag_83:\n      dup3\n      dup2\n      gt\n      iszero\n      tag_84\n      jumpi\n      dup3\n      mload\n      dup3\n      sstore\n      swap2\n      0x20\n      add\n      swap2\n      swap1\n      0x01\n      add\n      swap1\n      jump(tag_83)\n    tag_84:\n    tag_80:\n      pop\n      swap1\n      pop\n      tag_85\n      swap2\n      swap1\n      tag_86\n      jump\t// in\n    tag_85:\n      pop\n      swap1\n      jump\t// out\n    tag_86:\n    tag_87:\n      dup1\n      dup3\n      gt\n      iszero\n      tag_88\n      jumpi\n      0x00\n      dup2\n      0x00\n      swap1\n      sstore\n      pop\n      0x01\n      add\n      jump(tag_87)\n    tag_88:\n      pop\n      swap1\n      jump\t// out\n        /* \"#utility.yul\":7:419   */\n    tag_90:\n        /* \"#utility.yul\":85:90   */\n      0x00\n        /* \"#utility.yul\":110:176   */\n      tag_92\n        /* \"#utility.yul\":126:175   */\n      tag_93\n        /* \"#utility.yul\":168:174   */\n      dup5\n        /* \"#utility.yul\":126:175   */\n      tag_94\n      jump\t// in\n    tag_93:\n        /* \"#utility.yul\":110:176   */\n      tag_95\n      jump\t// in\n    tag_92:\n        /* \"#utility.yul\":101:176   */\n      swap1\n      pop\n        /* \"#utility.yul\":199:205   */\n      dup3\n        /* \"#utility.yul\":192:197   */\n      dup2\n        /* \"#utility.yul\":185:206   */\n      mstore\n        /* \"#utility.yul\":237:241   */\n      0x20\n        /* \"#utility.yul\":230:235   */\n      dup2\n        /* \"#utility.yul\":226:242   */\n      add\n        /* \"#utility.yul\":275:278   */\n      dup5\n        /* \"#utility.yul\":266:272   */\n      dup5\n        /* \"#utility.yul\":261:264   */\n      dup5\n        /* \"#utility.yul\":257:273   */\n      add\n        /* \"#utility.yul\":254:279   */\n      gt\n        /* \"#utility.yul\":251:363   */\n      iszero\n      tag_96\n      jumpi\n        /* \"#utility.yul\":282:361   */\n      tag_97\n      tag_98\n      jump\t// in\n    tag_97:\n        /* \"#utility.yul\":251:363   */\n    tag_96:\n        /* \"#utility.yul\":372:413   */\n      tag_99\n        /* \"#utility.yul\":406:412   */\n      dup5\n        /* \"#utility.yul\":401:404   */\n      dup3\n        /* \"#utility.yul\":396:399   */\n      dup6\n        /* \"#utility.yul\":372:413   */\n      tag_100\n      jump\t// in\n    tag_99:\n        /* \"#utility.yul\":91:419   */\n      pop\n        /* \"#utility.yul\":7:419   */\n      swap4\n      swap3\n      pop\n      pop\n      pop\n      jump\t// out\n        /* \"#utility.yul\":425:564   */\n    tag_101:\n        /* \"#utility.yul\":471:476   */\n      0x00\n        /* \"#utility.yul\":509:515   */\n      dup2\n        /* \"#utility.yul\":496:516   */\n      calldataload\n        /* \"#utility.yul\":487:516   */\n      swap1\n      pop\n        /* \"#utility.yul\":525:558   */\n      tag_103\n        /* \"#utility.yul\":552:557   */\n      dup2\n        /* \"#utility.yul\":525:558   */\n      tag_104\n      jump\t// in\n    tag_103:\n        /* \"#utility.yul\":425:564   */\n      swap3\n      swap2\n      pop\n      pop\n      jump\t// out\n        /* \"#utility.yul\":584:924   */\n    tag_105:\n        /* \"#utility.yul\":640:645   */\n      0x00\n        /* \"#utility.yul\":689:692   */\n      dup3\n        /* \"#utility.yul\":682:686   */\n      0x1f\n        /* \"#utility.yul\":674:680   */\n      dup4\n        /* \"#utility.yul\":670:687   */\n      add\n        /* \"#utility.yul\":666:693   */\n      slt\n        /* \"#utility.yul\":656:778   */\n      tag_107\n      jumpi\n        /* \"#utility.yul\":697:776   */\n      tag_108\n      tag_109\n      jump\t// in\n    tag_108:\n        /* \"#utility.yul\":656:778   */\n    tag_107:\n        /* \"#utility.yul\":814:820   */\n      dup2\n        /* \"#utility.yul\":801:821   */\n      calldataload\n        /* \"#utility.yul\":839:918   */\n      tag_110\n        /* \"#utility.yul\":914:917   */\n      dup5\n        /* \"#utility.yul\":906:912   */\n      dup3\n        /* \"#utility.yul\":899:903   */\n      0x20\n        /* \"#utility.yul\":891:897   */\n      dup7\n        /* \"#utility.yul\":887:904   */\n      add\n        /* \"#utility.yul\":839:918   */\n      tag_90\n      jump\t// in\n    tag_110:\n        /* \"#utility.yul\":830:918   */\n      swap2\n      pop\n        /* \"#utility.yul\":646:924   */\n      pop\n        /* \"#utility.yul\":584:924   */\n      swap3\n      swap2\n      pop\n      pop\n      jump\t// out\n        /* \"#utility.yul\":930:1069   */\n    tag_111:\n        /* \"#utility.yul\":976:981   */\n      0x00\n        /* \"#utility.yul\":1014:1020   */\n      dup2\n        /* \"#utility.yul\":1001:1021   */\n      calldataload\n        /* \"#utility.yul\":992:1021   */\n      swap1\n      pop\n        /* \"#utility.yul\":1030:1063   */\n      tag_113\n        /* \"#utility.yul\":1057:1062   */\n      dup2\n        /* \"#utility.yul\":1030:1063   */\n      tag_114\n      jump\t// in\n    tag_113:\n        /* \"#utility.yul\":930:1069   */\n      swap3\n      swap2\n      pop\n      pop\n      jump\t// out\n        /* \"#utility.yul\":1075:1404   */\n    tag_31:\n        /* \"#utility.yul\":1134:1140   */\n      0x00\n        /* \"#utility.yul\":1183:1185   */\n      0x20\n        /* \"#utility.yul\":1171:1180   */\n      dup3\n        /* \"#utility.yul\":1162:1169   */\n      dup5\n        /* \"#utility.yul\":1158:1181   */\n      sub\n        /* \"#utility.yul\":1154:1186   */\n      slt\n        /* \"#utility.yul\":1151:1270   */\n      iszero\n      tag_116\n      jumpi\n        /* \"#utility.yul\":1189:1268   */\n      tag_117\n      tag_118\n      jump\t// in\n    tag_117:\n        /* \"#utility.yul\":1151:1270   */\n    tag_116:\n        /* \"#utility.yul\":1309:1310   */\n      0x00\n        /* \"#utility.yul\":1334:1387   */\n      tag_119\n        /* \"#utility.yul\":1379:1386   */\n      dup5\n        /* \"#utility.yul\":1370:1376   */\n      dup3\n        /* \"#utility.yul\":1359:1368   */\n      dup6\n        /* \"#utility.yul\":1355:1377   */\n      add\n        /* \"#utility.yul\":1334:1387   */\n      tag_101\n      jump\t// in\n    tag_119:\n        /* \"#utility.yul\":1324:1387   */\n      swap2\n      pop\n        /* \"#utility.yul\":1280:1397   */\n      pop\n        /* \"#utility.yul\":1075:1404   */\n      swap3\n      swap2\n      pop\n      pop\n      jump\t// out\n        /* \"#utility.yul\":1410:2064   */\n    tag_11:\n        /* \"#utility.yul\":1488:1494   */\n      0x00\n        /* \"#utility.yul\":1496:1502   */\n      dup1\n        /* \"#utility.yul\":1545:1547   */\n      0x40\n        /* \"#utility.yul\":1533:1542   */\n      dup4\n        /* \"#utility.yul\":1524:1531   */\n      dup6\n        /* \"#utility.yul\":1520:1543   */\n      sub\n        /* \"#utility.yul\":1516:1548   */\n      slt\n        /* \"#utility.yul\":1513:1632   */\n      iszero\n      tag_121\n      jumpi\n        /* \"#utility.yul\":1551:1630   */\n      tag_122\n      tag_118\n      jump\t// in\n    tag_122:\n        /* \"#utility.yul\":1513:1632   */\n    tag_121:\n        /* \"#utility.yul\":1699:1700   */\n      0x00\n        /* \"#utility.yul\":1688:1697   */\n      dup4\n        /* \"#utility.yul\":1684:1701   */\n      add\n        /* \"#utility.yul\":1671:1702   */\n      calldataload\n        /* \"#utility.yul\":1729:1747   */\n      0xffffffffffffffff\n        /* \"#utility.yul\":1721:1727   */\n      dup2\n        /* \"#utility.yul\":1718:1748   */\n      gt\n        /* \"#utility.yul\":1715:1832   */\n      iszero\n      tag_123\n      jumpi\n        /* \"#utility.yul\":1751:1830   */\n      tag_124\n      tag_125\n      jump\t// in\n    tag_124:\n        /* \"#utility.yul\":1715:1832   */\n    tag_123:\n        /* \"#utility.yul\":1856:1919   */\n      tag_126\n        /* \"#utility.yul\":1911:1918   */\n      dup6\n        /* \"#utility.yul\":1902:1908   */\n      dup3\n        /* \"#utility.yul\":1891:1900   */\n      dup7\n        /* \"#utility.yul\":1887:1909   */\n      add\n        /* \"#utility.yul\":1856:1919   */\n      tag_105\n      jump\t// in\n    tag_126:\n        /* \"#utility.yul\":1846:1919   */\n      swap3\n      pop\n        /* \"#utility.yul\":1642:1929   */\n      pop\n        /* \"#utility.yul\":1968:1970   */\n      0x20\n        /* \"#utility.yul\":1994:2047   */\n      tag_127\n        /* \"#utility.yul\":2039:2046   */\n      dup6\n        /* \"#utility.yul\":2030:2036   */\n      dup3\n        /* \"#utility.yul\":2019:2028   */\n      dup7\n        /* \"#utility.yul\":2015:2037   */\n      add\n        /* \"#utility.yul\":1994:2047   */\n      tag_111\n      jump\t// in\n    tag_127:\n        /* \"#utility.yul\":1984:2047   */\n      swap2\n      pop\n        /* \"#utility.yul\":1939:2057   */\n      pop\n        /* \"#utility.yul\":1410:2064   */\n      swap3\n      pop\n      swap3\n      swap1\n      pop\n      jump\t// out\n        /* \"#utility.yul\":2070:2399   */\n    tag_17:\n        /* \"#utility.yul\":2129:2135   */\n      0x00\n        /* \"#utility.yul\":2178:2180   */\n      0x20\n        /* \"#utility.yul\":2166:2175   */\n      dup3\n        /* \"#utility.yul\":2157:2164   */\n      dup5\n        /* \"#utility.yul\":2153:2176   */\n      sub\n        /* \"#utility.yul\":2149:2181   */\n      slt\n        /* \"#utility.yul\":2146:2265   */\n      iszero\n      tag_129\n      jumpi\n        /* \"#utility.yul\":2184:2263   */\n      tag_130\n      tag_118\n      jump\t// in\n    tag_130:\n        /* \"#utility.yul\":2146:2265   */\n    tag_129:\n        /* \"#utility.yul\":2304:2305   */\n      0x00\n        /* \"#utility.yul\":2329:2382   */\n      tag_131\n        /* \"#utility.yul\":2374:2381   */\n      dup5\n        /* \"#utility.yul\":2365:2371   */\n      dup3\n        /* \"#utility.yul\":2354:2363   */\n      dup6\n        /* \"#utility.yul\":2350:2372   */\n      add\n        /* \"#utility.yul\":2329:2382   */\n      tag_111\n      jump\t// in\n    tag_131:\n        /* \"#utility.yul\":2319:2382   */\n      swap2\n      pop\n        /* \"#utility.yul\":2275:2392   */\n      pop\n        /* \"#utility.yul\":2070:2399   */\n      swap3\n      swap2\n      pop\n      pop\n      jump\t// out\n        /* \"#utility.yul\":2405:2523   */\n    tag_132:\n        /* \"#utility.yul\":2492:2516   */\n      tag_134\n        /* \"#utility.yul\":2510:2515   */\n      dup2\n        /* \"#utility.yul\":2492:2516   */\n      tag_135\n      jump\t// in\n    tag_134:\n        /* \"#utility.yul\":2487:2490   */\n      dup3\n        /* \"#utility.yul\":2480:2517   */\n      mstore\n        /* \"#utility.yul\":2405:2523   */\n      pop\n      pop\n      jump\t// out\n        /* \"#utility.yul\":2529:2893   */\n    tag_136:\n        /* \"#utility.yul\":2617:2620   */\n      0x00\n        /* \"#utility.yul\":2645:2684   */\n      tag_138\n        /* \"#utility.yul\":2678:2683   */\n      dup3\n        /* \"#utility.yul\":2645:2684   */\n      tag_139\n      jump\t// in\n    tag_138:\n        /* \"#utility.yul\":2700:2771   */\n      tag_140\n        /* \"#utility.yul\":2764:2770   */\n      dup2\n        /* \"#utility.yul\":2759:2762   */\n      dup6\n        /* \"#utility.yul\":2700:2771   */\n      tag_141\n      jump\t// in\n    tag_140:\n        /* \"#utility.yul\":2693:2771   */\n      swap4\n      pop\n        /* \"#utility.yul\":2780:2832   */\n      tag_142\n        /* \"#utility.yul\":2825:2831   */\n      dup2\n        /* \"#utility.yul\":2820:2823   */\n      dup6\n        /* \"#utility.yul\":2813:2817   */\n      0x20\n        /* \"#utility.yul\":2806:2811   */\n      dup7\n        /* \"#utility.yul\":2802:2818   */\n      add\n        /* \"#utility.yul\":2780:2832   */\n      tag_143\n      jump\t// in\n    tag_142:\n        /* \"#utility.yul\":2857:2886   */\n      tag_144\n        /* \"#utility.yul\":2879:2885   */\n      dup2\n        /* \"#utility.yul\":2857:2886   */\n      tag_145\n      jump\t// in\n    tag_144:\n        /* \"#utility.yul\":2852:2855   */\n      dup5\n        /* \"#utility.yul\":2848:2887   */\n      add\n        /* \"#utility.yul\":2841:2887   */\n      swap2\n      pop\n        /* \"#utility.yul\":2621:2893   */\n      pop\n        /* \"#utility.yul\":2529:2893   */\n      swap3\n      swap2\n      pop\n      pop\n      jump\t// out\n        /* \"#utility.yul\":2899:3276   */\n    tag_146:\n        /* \"#utility.yul\":3005:3008   */\n      0x00\n        /* \"#utility.yul\":3033:3072   */\n      tag_148\n        /* \"#utility.yul\":3066:3071   */\n      dup3\n        /* \"#utility.yul\":3033:3072   */\n      tag_139\n      jump\t// in\n    tag_148:\n        /* \"#utility.yul\":3088:3177   */\n      tag_149\n        /* \"#utility.yul\":3170:3176   */\n      dup2\n        /* \"#utility.yul\":3165:3168   */\n      dup6\n        /* \"#utility.yul\":3088:3177   */\n      tag_150\n      jump\t// in\n    tag_149:\n        /* \"#utility.yul\":3081:3177   */\n      swap4\n      pop\n        /* \"#utility.yul\":3186:3238   */\n      tag_151\n        /* \"#utility.yul\":3231:3237   */\n      dup2\n        /* \"#utility.yul\":3226:3229   */\n      dup6\n        /* \"#utility.yul\":3219:3223   */\n      0x20\n        /* \"#utility.yul\":3212:3217   */\n      dup7\n        /* \"#utility.yul\":3208:3224   */\n      add\n        /* \"#utility.yul\":3186:3238   */\n      tag_143\n      jump\t// in\n    tag_151:\n        /* \"#utility.yul\":3263:3269   */\n      dup1\n        /* \"#utility.yul\":3258:3261   */\n      dup5\n        /* \"#utility.yul\":3254:3270   */\n      add\n        /* \"#utility.yul\":3247:3270   */\n      swap2\n      pop\n        /* \"#utility.yul\":3009:3276   */\n      pop\n        /* \"#utility.yul\":2899:3276   */\n      swap3\n      swap2\n      pop\n      pop\n      jump\t// out\n        /* \"#utility.yul\":3282:3648   */\n    tag_152:\n        /* \"#utility.yul\":3424:3427   */\n      0x00\n        /* \"#utility.yul\":3445:3512   */\n      tag_154\n        /* \"#utility.yul\":3509:3511   */\n      0x14\n        /* \"#utility.yul\":3504:3507   */\n      dup4\n        /* \"#utility.yul\":3445:3512   */\n      tag_141\n      jump\t// in\n    tag_154:\n        /* \"#utility.yul\":3438:3512   */\n      swap2\n      pop\n        /* \"#utility.yul\":3521:3614   */\n      tag_155\n        /* \"#utility.yul\":3610:3613   */\n      dup3\n        /* \"#utility.yul\":3521:3614   */\n      tag_156\n      jump\t// in\n    tag_155:\n        /* \"#utility.yul\":3639:3641   */\n      0x20\n        /* \"#utility.yul\":3634:3637   */\n      dup3\n        /* \"#utility.yul\":3630:3642   */\n      add\n        /* \"#utility.yul\":3623:3642   */\n      swap1\n      pop\n        /* \"#utility.yul\":3282:3648   */\n      swap2\n      swap1\n      pop\n      jump\t// out\n        /* \"#utility.yul\":3654:4020   */\n    tag_157:\n        /* \"#utility.yul\":3796:3799   */\n      0x00\n        /* \"#utility.yul\":3817:3884   */\n      tag_159\n        /* \"#utility.yul\":3881:3883   */\n      0x11\n        /* \"#utility.yul\":3876:3879   */\n      dup4\n        /* \"#utility.yul\":3817:3884   */\n      tag_141\n      jump\t// in\n    tag_159:\n        /* \"#utility.yul\":3810:3884   */\n      swap2\n      pop\n        /* \"#utility.yul\":3893:3986   */\n      tag_160\n        /* \"#utility.yul\":3982:3985   */\n      dup3\n        /* \"#utility.yul\":3893:3986   */\n      tag_161\n      jump\t// in\n    tag_160:\n        /* \"#utility.yul\":4011:4013   */\n      0x20\n        /* \"#utility.yul\":4006:4009   */\n      dup3\n        /* \"#utility.yul\":4002:4014   */\n      add\n        /* \"#utility.yul\":3995:4014   */\n      swap1\n      pop\n        /* \"#utility.yul\":3654:4020   */\n      swap2\n      swap1\n      pop\n      jump\t// out\n        /* \"#utility.yul\":4026:4392   */\n    tag_162:\n        /* \"#utility.yul\":4168:4171   */\n      0x00\n        /* \"#utility.yul\":4189:4256   */\n      tag_164\n        /* \"#utility.yul\":4253:4255   */\n      0x26\n        /* \"#utility.yul\":4248:4251   */\n      dup4\n        /* \"#utility.yul\":4189:4256   */\n      tag_141\n      jump\t// in\n    tag_164:\n        /* \"#utility.yul\":4182:4256   */\n      swap2\n      pop\n        /* \"#utility.yul\":4265:4358   */\n      tag_165\n        /* \"#utility.yul\":4354:4357   */\n      dup3\n        /* \"#utility.yul\":4265:4358   */\n      tag_166\n      jump\t// in\n    tag_165:\n        /* \"#utility.yul\":4383:4385   */\n      0x40\n        /* \"#utility.yul\":4378:4381   */\n      dup3\n        /* \"#utility.yul\":4374:4386   */\n      add\n        /* \"#utility.yul\":4367:4386   */\n      swap1\n      pop\n        /* \"#utility.yul\":4026:4392   */\n      swap2\n      swap1\n      pop\n      jump\t// out\n        /* \"#utility.yul\":4398:4764   */\n    tag_167:\n        /* \"#utility.yul\":4540:4543   */\n      0x00\n        /* \"#utility.yul\":4561:4628   */\n      tag_169\n        /* \"#utility.yul\":4625:4627   */\n      0x20\n        /* \"#utility.yul\":4620:4623   */\n      dup4\n        /* \"#utility.yul\":4561:4628   */\n      tag_141\n      jump\t// in\n    tag_169:\n        /* \"#utility.yul\":4554:4628   */\n      swap2\n      pop\n        /* \"#utility.yul\":4637:4730   */\n      tag_170\n        /* \"#utility.yul\":4726:4729   */\n      dup3\n        /* \"#utility.yul\":4637:4730   */\n      tag_171\n      jump\t// in\n    tag_170:\n        /* \"#utility.yul\":4755:4757   */\n      0x20\n        /* \"#utility.yul\":4750:4753   */\n      dup3\n        /* \"#utility.yul\":4746:4758   */\n      add\n        /* \"#utility.yul\":4739:4758   */\n      swap1\n      pop\n        /* \"#utility.yul\":4398:4764   */\n      swap2\n      swap1\n      pop\n      jump\t// out\n        /* \"#utility.yul\":4770:4888   */\n    tag_172:\n        /* \"#utility.yul\":4857:4881   */\n      tag_174\n        /* \"#utility.yul\":4875:4880   */\n      dup2\n        /* \"#utility.yul\":4857:4881   */\n      tag_175\n      jump\t// in\n    tag_174:\n        /* \"#utility.yul\":4852:4855   */\n      dup3\n        /* \"#utility.yul\":4845:4882   */\n      mstore\n        /* \"#utility.yul\":4770:4888   */\n      pop\n      pop\n      jump\t// out\n        /* \"#utility.yul\":4894:5169   */\n    tag_38:\n        /* \"#utility.yul\":5026:5029   */\n      0x00\n        /* \"#utility.yul\":5048:5143   */\n      tag_177\n        /* \"#utility.yul\":5139:5142   */\n      dup3\n        /* \"#utility.yul\":5130:5136   */\n      dup5\n        /* \"#utility.yul\":5048:5143   */\n      tag_146\n      jump\t// in\n    tag_177:\n        /* \"#utility.yul\":5041:5143   */\n      swap2\n      pop\n        /* \"#utility.yul\":5160:5163   */\n      dup2\n        /* \"#utility.yul\":5153:5163   */\n      swap1\n      pop\n        /* \"#utility.yul\":4894:5169   */\n      swap3\n      swap2\n      pop\n      pop\n      jump\t// out\n        /* \"#utility.yul\":5175:5397   */\n    tag_24:\n        /* \"#utility.yul\":5268:5272   */\n      0x00\n        /* \"#utility.yul\":5306:5308   */\n      0x20\n        /* \"#utility.yul\":5295:5304   */\n      dup3\n        /* \"#utility.yul\":5291:5309   */\n      add\n        /* \"#utility.yul\":5283:5309   */\n      swap1\n      pop\n        /* \"#utility.yul\":5319:5390   */\n      tag_179\n        /* \"#utility.yul\":5387:5388   */\n      0x00\n        /* \"#utility.yul\":5376:5385   */\n      dup4\n        /* \"#utility.yul\":5372:5389   */\n      add\n        /* \"#utility.yul\":5363:5369   */\n      dup5\n        /* \"#utility.yul\":5319:5390   */\n      tag_132\n      jump\t// in\n    tag_179:\n        /* \"#utility.yul\":5175:5397   */\n      swap3\n      swap2\n      pop\n      pop\n      jump\t// out\n        /* \"#utility.yul\":5403:5826   */\n    tag_20:\n        /* \"#utility.yul\":5544:5548   */\n      0x00\n        /* \"#utility.yul\":5582:5584   */\n      0x40\n        /* \"#utility.yul\":5571:5580   */\n      dup3\n        /* \"#utility.yul\":5567:5585   */\n      add\n        /* \"#utility.yul\":5559:5585   */\n      swap1\n      pop\n        /* \"#utility.yul\":5631:5640   */\n      dup2\n        /* \"#utility.yul\":5625:5629   */\n      dup2\n        /* \"#utility.yul\":5621:5641   */\n      sub\n        /* \"#utility.yul\":5617:5618   */\n      0x00\n        /* \"#utility.yul\":5606:5615   */\n      dup4\n        /* \"#utility.yul\":5602:5619   */\n      add\n        /* \"#utility.yul\":5595:5642   */\n      mstore\n        /* \"#utility.yul\":5659:5737   */\n      tag_181\n        /* \"#utility.yul\":5732:5736   */\n      dup2\n        /* \"#utility.yul\":5723:5729   */\n      dup6\n        /* \"#utility.yul\":5659:5737   */\n      tag_136\n      jump\t// in\n    tag_181:\n        /* \"#utility.yul\":5651:5737   */\n      swap1\n      pop\n        /* \"#utility.yul\":5747:5819   */\n      tag_182\n        /* \"#utility.yul\":5815:5817   */\n      0x20\n        /* \"#utility.yul\":5804:5813   */\n      dup4\n        /* \"#utility.yul\":5800:5818   */\n      add\n        /* \"#utility.yul\":5791:5797   */\n      dup5\n        /* \"#utility.yul\":5747:5819   */\n      tag_172\n      jump\t// in\n    tag_182:\n        /* \"#utility.yul\":5403:5826   */\n      swap4\n      swap3\n      pop\n      pop\n      pop\n      jump\t// out\n        /* \"#utility.yul\":5832:6251   */\n    tag_45:\n        /* \"#utility.yul\":5998:6002   */\n      0x00\n        /* \"#utility.yul\":6036:6038   */\n      0x20\n        /* \"#utility.yul\":6025:6034   */\n      dup3\n        /* \"#utility.yul\":6021:6039   */\n      add\n        /* \"#utility.yul\":6013:6039   */\n      swap1\n      pop\n        /* \"#utility.yul\":6085:6094   */\n      dup2\n        /* \"#utility.yul\":6079:6083   */\n      dup2\n        /* \"#utility.yul\":6075:6095   */\n      sub\n        /* \"#utility.yul\":6071:6072   */\n      0x00\n        /* \"#utility.yul\":6060:6069   */\n      dup4\n        /* \"#utility.yul\":6056:6073   */\n      add\n        /* \"#utility.yul\":6049:6096   */\n      mstore\n        /* \"#utility.yul\":6113:6244   */\n      tag_184\n        /* \"#utility.yul\":6239:6243   */\n      dup2\n        /* \"#utility.yul\":6113:6244   */\n      tag_152\n      jump\t// in\n    tag_184:\n        /* \"#utility.yul\":6105:6244   */\n      swap1\n      pop\n        /* \"#utility.yul\":5832:6251   */\n      swap2\n      swap1\n      pop\n      jump\t// out\n        /* \"#utility.yul\":6257:6676   */\n    tag_41:\n        /* \"#utility.yul\":6423:6427   */\n      0x00\n        /* \"#utility.yul\":6461:6463   */\n      0x20\n        /* \"#utility.yul\":6450:6459   */\n      dup3\n        /* \"#utility.yul\":6446:6464   */\n      add\n        /* \"#utility.yul\":6438:6464   */\n      swap1\n      pop\n        /* \"#utility.yul\":6510:6519   */\n      dup2\n        /* \"#utility.yul\":6504:6508   */\n      dup2\n        /* \"#utility.yul\":6500:6520   */\n      sub\n        /* \"#utility.yul\":6496:6497   */\n      0x00\n        /* \"#utility.yul\":6485:6494   */\n      dup4\n        /* \"#utility.yul\":6481:6498   */\n      add\n        /* \"#utility.yul\":6474:6521   */\n      mstore\n        /* \"#utility.yul\":6538:6669   */\n      tag_186\n        /* \"#utility.yul\":6664:6668   */\n      dup2\n        /* \"#utility.yul\":6538:6669   */\n      tag_157\n      jump\t// in\n    tag_186:\n        /* \"#utility.yul\":6530:6669   */\n      swap1\n      pop\n        /* \"#utility.yul\":6257:6676   */\n      swap2\n      swap1\n      pop\n      jump\t// out\n        /* \"#utility.yul\":6682:7101   */\n    tag_68:\n        /* \"#utility.yul\":6848:6852   */\n      0x00\n        /* \"#utility.yul\":6886:6888   */\n      0x20\n        /* \"#utility.yul\":6875:6884   */\n      dup3\n        /* \"#utility.yul\":6871:6889   */\n      add\n        /* \"#utility.yul\":6863:6889   */\n      swap1\n      pop\n        /* \"#utility.yul\":6935:6944   */\n      dup2\n        /* \"#utility.yul\":6929:6933   */\n      dup2\n        /* \"#utility.yul\":6925:6945   */\n      sub\n        /* \"#utility.yul\":6921:6922   */\n      0x00\n        /* \"#utility.yul\":6910:6919   */\n      dup4\n        /* \"#utility.yul\":6906:6923   */\n      add\n        /* \"#utility.yul\":6899:6946   */\n      mstore\n        /* \"#utility.yul\":6963:7094   */\n      tag_188\n        /* \"#utility.yul\":7089:7093   */\n      dup2\n        /* \"#utility.yul\":6963:7094   */\n      tag_162\n      jump\t// in\n    tag_188:\n        /* \"#utility.yul\":6955:7094   */\n      swap1\n      pop\n        /* \"#utility.yul\":6682:7101   */\n      swap2\n      swap1\n      pop\n      jump\t// out\n        /* \"#utility.yul\":7107:7526   */\n    tag_76:\n        /* \"#utility.yul\":7273:7277   */\n      0x00\n        /* \"#utility.yul\":7311:7313   */\n      0x20\n        /* \"#utility.yul\":7300:7309   */\n      dup3\n        /* \"#utility.yul\":7296:7314   */\n      add\n        /* \"#utility.yul\":7288:7314   */\n      swap1\n      pop\n        /* \"#utility.yul\":7360:7369   */\n      dup2\n        /* \"#utility.yul\":7354:7358   */\n      dup2\n        /* \"#utility.yul\":7350:7370   */\n      sub\n        /* \"#utility.yul\":7346:7347   */\n      0x00\n        /* \"#utility.yul\":7335:7344   */\n      dup4\n        /* \"#utility.yul\":7331:7348   */\n      add\n        /* \"#utility.yul\":7324:7371   */\n      mstore\n        /* \"#utility.yul\":7388:7519   */\n      tag_190\n        /* \"#utility.yul\":7514:7518   */\n      dup2\n        /* \"#utility.yul\":7388:7519   */\n      tag_167\n      jump\t// in\n    tag_190:\n        /* \"#utility.yul\":7380:7519   */\n      swap1\n      pop\n        /* \"#utility.yul\":7107:7526   */\n      swap2\n      swap1\n      pop\n      jump\t// out\n        /* \"#utility.yul\":7532:7754   */\n    tag_28:\n        /* \"#utility.yul\":7625:7629   */\n      0x00\n        /* \"#utility.yul\":7663:7665   */\n      0x20\n        /* \"#utility.yul\":7652:7661   */\n      dup3\n        /* \"#utility.yul\":7648:7666   */\n      add\n        /* \"#utility.yul\":7640:7666   */\n      swap1\n      pop\n        /* \"#utility.yul\":7676:7747   */\n      tag_192\n        /* \"#utility.yul\":7744:7745   */\n      0x00\n        /* \"#utility.yul\":7733:7742   */\n      dup4\n        /* \"#utility.yul\":7729:7746   */\n      add\n        /* \"#utility.yul\":7720:7726   */\n      dup5\n        /* \"#utility.yul\":7676:7747   */\n      tag_172\n      jump\t// in\n    tag_192:\n        /* \"#utility.yul\":7532:7754   */\n      swap3\n      swap2\n      pop\n      pop\n      jump\t// out\n        /* \"#utility.yul\":7760:7889   */\n    tag_95:\n        /* \"#utility.yul\":7794:7800   */\n      0x00\n        /* \"#utility.yul\":7821:7841   */\n      tag_194\n      tag_195\n      jump\t// in\n    tag_194:\n        /* \"#utility.yul\":7811:7841   */\n      swap1\n      pop\n        /* \"#utility.yul\":7850:7883   */\n      tag_196\n        /* \"#utility.yul\":7878:7882   */\n      dup3\n        /* \"#utility.yul\":7870:7876   */\n      dup3\n        /* \"#utility.yul\":7850:7883   */\n      tag_197\n      jump\t// in\n    tag_196:\n        /* \"#utility.yul\":7760:7889   */\n      swap2\n      swap1\n      pop\n      jump\t// out\n        /* \"#utility.yul\":7895:7970   */\n    tag_195:\n        /* \"#utility.yul\":7928:7934   */\n      0x00\n        /* \"#utility.yul\":7961:7963   */\n      0x40\n        /* \"#utility.yul\":7955:7964   */\n      mload\n        /* \"#utility.yul\":7945:7964   */\n      swap1\n      pop\n        /* \"#utility.yul\":7895:7970   */\n      swap1\n      jump\t// out\n        /* \"#utility.yul\":7976:8284   */\n    tag_94:\n        /* \"#utility.yul\":8038:8042   */\n      0x00\n        /* \"#utility.yul\":8128:8146   */\n      0xffffffffffffffff\n        /* \"#utility.yul\":8120:8126   */\n      dup3\n        /* \"#utility.yul\":8117:8147   */\n      gt\n        /* \"#utility.yul\":8114:8170   */\n      iszero\n      tag_200\n      jumpi\n        /* \"#utility.yul\":8150:8168   */\n      tag_201\n      tag_202\n      jump\t// in\n    tag_201:\n        /* \"#utility.yul\":8114:8170   */\n    tag_200:\n        /* \"#utility.yul\":8188:8217   */\n      tag_203\n        /* \"#utility.yul\":8210:8216   */\n      dup3\n        /* \"#utility.yul\":8188:8217   */\n      tag_145\n      jump\t// in\n    tag_203:\n        /* \"#utility.yul\":8180:8217   */\n      swap1\n      pop\n        /* \"#utility.yul\":8272:8276   */\n      0x20\n        /* \"#utility.yul\":8266:8270   */\n      dup2\n        /* \"#utility.yul\":8262:8277   */\n      add\n        /* \"#utility.yul\":8254:8277   */\n      swap1\n      pop\n        /* \"#utility.yul\":7976:8284   */\n      swap2\n      swap1\n      pop\n      jump\t// out\n        /* \"#utility.yul\":8290:8389   */\n    tag_139:\n        /* \"#utility.yul\":8342:8348   */\n      0x00\n        /* \"#utility.yul\":8376:8381   */\n      dup2\n        /* \"#utility.yul\":8370:8382   */\n      mload\n        /* \"#utility.yul\":8360:8382   */\n      swap1\n      pop\n        /* \"#utility.yul\":8290:8389   */\n      swap2\n      swap1\n      pop\n      jump\t// out\n        /* \"#utility.yul\":8395:8564   */\n    tag_141:\n        /* \"#utility.yul\":8479:8490   */\n      0x00\n        /* \"#utility.yul\":8513:8519   */\n      dup3\n        /* \"#utility.yul\":8508:8511   */\n      dup3\n        /* \"#utility.yul\":8501:8520   */\n      mstore\n        /* \"#utility.yul\":8553:8557   */\n      0x20\n        /* \"#utility.yul\":8548:8551   */\n      dup3\n        /* \"#utility.yul\":8544:8558   */\n      add\n        /* \"#utility.yul\":8529:8558   */\n      swap1\n      pop\n        /* \"#utility.yul\":8395:8564   */\n      swap3\n      swap2\n      pop\n      pop\n      jump\t// out\n        /* \"#utility.yul\":8570:8718   */\n    tag_150:\n        /* \"#utility.yul\":8672:8683   */\n      0x00\n        /* \"#utility.yul\":8709:8712   */\n      dup2\n        /* \"#utility.yul\":8694:8712   */\n      swap1\n      pop\n        /* \"#utility.yul\":8570:8718   */\n      swap3\n      swap2\n      pop\n      pop\n      jump\t// out\n        /* \"#utility.yul\":8724:9029   */\n    tag_48:\n        /* \"#utility.yul\":8764:8767   */\n      0x00\n        /* \"#utility.yul\":8783:8803   */\n      tag_208\n        /* \"#utility.yul\":8801:8802   */\n      dup3\n        /* \"#utility.yul\":8783:8803   */\n      tag_175\n      jump\t// in\n    tag_208:\n        /* \"#utility.yul\":8778:8803   */\n      swap2\n      pop\n        /* \"#utility.yul\":8817:8837   */\n      tag_209\n        /* \"#utility.yul\":8835:8836   */\n      dup4\n        /* \"#utility.yul\":8817:8837   */\n      tag_175\n      jump\t// in\n    tag_209:\n        /* \"#utility.yul\":8812:8837   */\n      swap3\n      pop\n        /* \"#utility.yul\":8971:8972   */\n      dup3\n        /* \"#utility.yul\":8903:8969   */\n      0xffffffffffffffffffffffffffffffffffffffffffffffffffffffffffffffff\n        /* \"#utility.yul\":8899:8973   */\n      sub\n        /* \"#utility.yul\":8896:8897   */\n      dup3\n        /* \"#utility.yul\":8893:8974   */\n      gt\n        /* \"#utility.yul\":8890:8997   */\n      iszero\n      tag_210\n      jumpi\n        /* \"#utility.yul\":8977:8995   */\n      tag_211\n      tag_212\n      jump\t// in\n    tag_211:\n        /* \"#utility.yul\":8890:8997   */\n    tag_210:\n        /* \"#utility.yul\":9021:9022   */\n      dup3\n        /* \"#utility.yul\":9018:9019   */\n      dup3\n        /* \"#utility.yul\":9014:9023   */\n      add\n        /* \"#utility.yul\":9007:9023   */\n      swap1\n      pop\n        /* \"#utility.yul\":8724:9029   */\n      swap3\n      swap2\n      pop\n      pop\n      jump\t// out\n        /* \"#utility.yul\":9035:9131   */\n    tag_135:\n        /* \"#utility.yul\":9072:9079   */\n      0x00\n        /* \"#utility.yul\":9101:9125   */\n      tag_214\n        /* \"#utility.yul\":9119:9124   */\n      dup3\n        /* \"#utility.yul\":9101:9125   */\n      tag_215\n      jump\t// in\n    tag_214:\n        /* \"#utility.yul\":9090:9125   */\n      swap1\n      pop\n        /* \"#utility.yul\":9035:9131   */\n      swap2\n      swap1\n      pop\n      jump\t// out\n        /* \"#utility.yul\":9137:9263   */\n    tag_215:\n        /* \"#utility.yul\":9174:9181   */\n      0x00\n        /* \"#utility.yul\":9214:9256   */\n      0xffffffffffffffffffffffffffffffffffffffff\n        /* \"#utility.yul\":9207:9212   */\n      dup3\n        /* \"#utility.yul\":9203:9257   */\n      and\n        /* \"#utility.yul\":9192:9257   */\n      swap1\n      pop\n        /* \"#utility.yul\":9137:9263   */\n      swap2\n      swap1\n      pop\n      jump\t// out\n        /* \"#utility.yul\":9269:9346   */\n    tag_175:\n        /* \"#utility.yul\":9306:9313   */\n      0x00\n        /* \"#utility.yul\":9335:9340   */\n      dup2\n        /* \"#utility.yul\":9324:9340   */\n      swap1\n      pop\n        /* \"#utility.yul\":9269:9346   */\n      swap2\n      swap1\n      pop\n      jump\t// out\n        /* \"#utility.yul\":9352:9506   */\n    tag_100:\n        /* \"#utility.yul\":9436:9442   */\n      dup3\n        /* \"#utility.yul\":9431:9434   */\n      dup2\n        /* \"#utility.yul\":9426:9429   */\n      dup4\n        /* \"#utility.yul\":9413:9443   */\n      calldatacopy\n        /* \"#utility.yul\":9498:9499   */\n      0x00\n        /* \"#utility.yul\":9489:9495   */\n      dup4\n        /* \"#utility.yul\":9484:9487   */\n      dup4\n        /* \"#utility.yul\":9480:9496   */\n      add\n        /* \"#utility.yul\":9473:9500   */\n      mstore\n        /* \"#utility.yul\":9352:9506   */\n      pop\n      pop\n      pop\n      jump\t// out\n        /* \"#utility.yul\":9512:9819   */\n    tag_143:\n        /* \"#utility.yul\":9580:9581   */\n      0x00\n        /* \"#utility.yul\":9590:9703   */\n    tag_220:\n        /* \"#utility.yul\":9604:9610   */\n      dup4\n        /* \"#utility.yul\":9601:9602   */\n      dup2\n        /* \"#utility.yul\":9598:9611   */\n      lt\n        /* \"#utility.yul\":9590:9703   */\n      iszero\n      tag_222\n      jumpi\n        /* \"#utility.yul\":9689:9690   */\n      dup1\n        /* \"#utility.yul\":9684:9687   */\n      dup3\n        /* \"#utility.yul\":9680:9691   */\n      add\n        /* \"#utility.yul\":9674:9692   */\n      mload\n        /* \"#utility.yul\":9670:9671   */\n      dup2\n        /* \"#utility.yul\":9665:9668   */\n      dup5\n        /* \"#utility.yul\":9661:9672   */\n      add\n        /* \"#utility.yul\":9654:9693   */\n      mstore\n        /* \"#utility.yul\":9626:9628   */\n      0x20\n        /* \"#utility.yul\":9623:9624   */\n      dup2\n        /* \"#utility.yul\":9619:9629   */\n      add\n        /* \"#utility.yul\":9614:9629   */\n      swap1\n      pop\n        /* \"#utility.yul\":9590:9703   */\n      jump(tag_220)\n    tag_222:\n        /* \"#utility.yul\":9721:9727   */\n      dup4\n        /* \"#utility.yul\":9718:9719   */\n      dup2\n        /* \"#utility.yul\":9715:9728   */\n      gt\n        /* \"#utility.yul\":9712:9813   */\n      iszero\n      tag_223\n      jumpi\n        /* \"#utility.yul\":9801:9802   */\n      0x00\n        /* \"#utility.yul\":9792:9798   */\n      dup5\n        /* \"#utility.yul\":9787:9790   */\n      dup5\n        /* \"#utility.yul\":9783:9799   */\n      add\n        /* \"#utility.yul\":9776:9803   */\n      mstore\n        /* \"#utility.yul\":9712:9813   */\n    tag_223:\n        /* \"#utility.yul\":9561:9819   */\n      pop\n        /* \"#utility.yul\":9512:9819   */\n      pop\n      pop\n      pop\n      jump\t// out\n        /* \"#utility.yul\":9825:10145   */\n    tag_57:\n        /* \"#utility.yul\":9869:9875   */\n      0x00\n        /* \"#utility.yul\":9906:9907   */\n      0x02\n        /* \"#utility.yul\":9900:9904   */\n      dup3\n        /* \"#utility.yul\":9896:9908   */\n      div\n        /* \"#utility.yul\":9886:9908   */\n      swap1\n      pop\n        /* \"#utility.yul\":9953:9954   */\n      0x01\n        /* \"#utility.yul\":9947:9951   */\n      dup3\n        /* \"#utility.yul\":9943:9955   */\n      and\n        /* \"#utility.yul\":9974:9992   */\n      dup1\n        /* \"#utility.yul\":9964:10045   */\n      tag_225\n      jumpi\n        /* \"#utility.yul\":10030:10034   */\n      0x7f\n        /* \"#utility.yul\":10022:10028   */\n      dup3\n        /* \"#utility.yul\":10018:10035   */\n      and\n        /* \"#utility.yul\":10008:10035   */\n      swap2\n      pop\n        /* \"#utility.yul\":9964:10045   */\n    tag_225:\n        /* \"#utility.yul\":10092:10094   */\n      0x20\n        /* \"#utility.yul\":10084:10090   */\n      dup3\n        /* \"#utility.yul\":10081:10095   */\n      lt\n        /* \"#utility.yul\":10061:10079   */\n      dup2\n        /* \"#utility.yul\":10058:10096   */\n      eq\n        /* \"#utility.yul\":10055:10139   */\n      iszero\n      tag_226\n      jumpi\n        /* \"#utility.yul\":10111:10129   */\n      tag_227\n      tag_228\n      jump\t// in\n    tag_227:\n        /* \"#utility.yul\":10055:10139   */\n    tag_226:\n        /* \"#utility.yul\":9876:10145   */\n      pop\n        /* \"#utility.yul\":9825:10145   */\n      swap2\n      swap1\n      pop\n      jump\t// out\n        /* \"#utility.yul\":10151:10432   */\n    tag_197:\n        /* \"#utility.yul\":10234:10261   */\n      tag_230\n        /* \"#utility.yul\":10256:10260   */\n      dup3\n        /* \"#utility.yul\":10234:10261   */\n      tag_145\n      jump\t// in\n    tag_230:\n        /* \"#utility.yul\":10226:10232   */\n      dup2\n        /* \"#utility.yul\":10222:10262   */\n      add\n        /* \"#utility.yul\":10364:10370   */\n      dup2\n        /* \"#utility.yul\":10352:10362   */\n      dup2\n        /* \"#utility.yul\":10349:10371   */\n      lt\n        /* \"#utility.yul\":10328:10346   */\n      0xffffffffffffffff\n        /* \"#utility.yul\":10316:10326   */\n      dup3\n        /* \"#utility.yul\":10313:10347   */\n      gt\n        /* \"#utility.yul\":10310:10372   */\n      or\n        /* \"#utility.yul\":10307:10395   */\n      iszero\n      tag_231\n      jumpi\n        /* \"#utility.yul\":10375:10393   */\n      tag_232\n      tag_202\n      jump\t// in\n    tag_232:\n        /* \"#utility.yul\":10307:10395   */\n    tag_231:\n        /* \"#utility.yul\":10415:10425   */\n      dup1\n        /* \"#utility.yul\":10411:10413   */\n      0x40\n        /* \"#utility.yul\":10404:10426   */\n      mstore\n        /* \"#utility.yul\":10194:10432   */\n      pop\n        /* \"#utility.yul\":10151:10432   */\n      pop\n      pop\n      jump\t// out\n        /* \"#utility.yul\":10438:10618   */\n    tag_212:\n        /* \"#utility.yul\":10486:10563   */\n      0x4e487b7100000000000000000000000000000000000000000000000000000000\n        /* \"#utility.yul\":10483:10484   */\n      0x00\n        /* \"#utility.yul\":10476:10564   */\n      mstore\n        /* \"#utility.yul\":10583:10587   */\n      0x11\n        /* \"#utility.yul\":10580:10581   */\n      0x04\n        /* \"#utility.yul\":10573:10588   */\n      mstore\n        /* \"#utility.yul\":10607:10611   */\n      0x24\n        /* \"#utility.yul\":10604:10605   */\n      0x00\n        /* \"#utility.yul\":10597:10612   */\n      revert\n        /* \"#utility.yul\":10624:10804   */\n    tag_228:\n        /* \"#utility.yul\":10672:10749   */\n      0x4e487b7100000000000000000000000000000000000000000000000000000000\n        /* \"#utility.yul\":10669:10670   */\n      0x00\n        /* \"#utility.yul\":10662:10750   */\n      mstore\n        /* \"#utility.yul\":10769:10773   */\n      0x22\n        /* \"#utility.yul\":10766:10767   */\n      0x04\n        /* \"#utility.yul\":10759:10774   */\n      mstore\n        /* \"#utility.yul\":10793:10797   */\n      0x24\n        /* \"#utility.yul\":10790:10791   */\n      0x00\n        /* \"#utility.yul\":10783:10798   */\n      revert\n        /* \"#utility.yul\":10810:10990   */\n    tag_202:\n        /* \"#utility.yul\":10858:10935   */\n      0x4e487b7100000000000000000000000000000000000000000000000000000000\n        /* \"#utility.yul\":10855:10856   */\n      0x00\n        /* \"#utility.yul\":10848:10936   */\n      mstore\n        /* \"#utility.yul\":10955:10959   */\n      0x41\n        /* \"#utility.yul\":10952:10953   */\n      0x04\n        /* \"#utility.yul\":10945:10960   */\n      mstore\n        /* \"#utility.yul\":10979:10983   */\n      0x24\n        /* \"#utility.yul\":10976:10977   */\n      0x00\n        /* \"#utility.yul\":10969:10984   */\n      revert\n        /* \"#utility.yul\":10996:11113   */\n    tag_109:\n        /* \"#utility.yul\":11105:11106   */\n      0x00\n        /* \"#utility.yul\":11102:11103   */\n      dup1\n        /* \"#utility.yul\":11095:11107   */\n      revert\n        /* \"#utility.yul\":11119:11236   */\n    tag_98:\n        /* \"#utility.yul\":11228:11229   */\n      0x00\n        /* \"#utility.yul\":11225:11226   */\n      dup1\n        /* \"#utility.yul\":11218:11230   */\n      revert\n        /* \"#utility.yul\":11242:11359   */\n    tag_125:\n        /* \"#utility.yul\":11351:11352   */\n      0x00\n        /* \"#utility.yul\":11348:11349   */\n      dup1\n        /* \"#utility.yul\":11341:11353   */\n      revert\n        /* \"#utility.yul\":11365:11482   */\n    tag_118:\n        /* \"#utility.yul\":11474:11475   */\n      0x00\n        /* \"#utility.yul\":11471:11472   */\n      dup1\n        /* \"#utility.yul\":11464:11476   */\n      revert\n        /* \"#utility.yul\":11488:11590   */\n    tag_145:\n        /* \"#utility.yul\":11529:11535   */\n      0x00\n        /* \"#utility.yul\":11580:11582   */\n      0x1f\n        /* \"#utility.yul\":11576:11583   */\n      not\n        /* \"#utility.yul\":11571:11573   */\n      0x1f\n        /* \"#utility.yul\":11564:11569   */\n      dup4\n        /* \"#utility.yul\":11560:11574   */\n      add\n        /* \"#utility.yul\":11556:11584   */\n      and\n        /* \"#utility.yul\":11546:11584   */\n      swap1\n      pop\n        /* \"#utility.yul\":11488:11590   */\n      swap2\n      swap1\n      pop\n      jump\t// out\n        /* \"#utility.yul\":11596:11766   */\n    tag_156:\n        /* \"#utility.yul\":11736:11758   */\n      0x4e616d652063616e6e6f7420626520656d707479000000000000000000000000\n        /* \"#utility.yul\":11732:11733   */\n      0x00\n        /* \"#utility.yul\":11724:11730   */\n      dup3\n        /* \"#utility.yul\":11720:11734   */\n      add\n        /* \"#utility.yul\":11713:11759   */\n      mstore\n        /* \"#utility.yul\":11596:11766   */\n      pop\n      jump\t// out\n        /* \"#utility.yul\":11772:11939   */\n    tag_161:\n        /* \"#utility.yul\":11912:11931   */\n      0x426f6f6b20697320617661696c61626c65000000000000000000000000000000\n        /* \"#utility.yul\":11908:11909   */\n      0x00\n        /* \"#utility.yul\":11900:11906   */\n      dup3\n        /* \"#utility.yul\":11896:11910   */\n      add\n        /* \"#utility.yul\":11889:11932   */\n      mstore\n        /* \"#utility.yul\":11772:11939   */\n      pop\n      jump\t// out\n        /* \"#utility.yul\":11945:12170   */\n    tag_166:\n        /* \"#utility.yul\":12085:12119   */\n      0x4f776e61626c653a206e6577206f776e657220697320746865207a65726f2061\n        /* \"#utility.yul\":12081:12082   */\n      0x00\n        /* \"#utility.yul\":12073:12079   */\n      dup3\n        /* \"#utility.yul\":12069:12083   */\n      add\n        /* \"#utility.yul\":12062:12120   */\n      mstore\n        /* \"#utility.yul\":12154:12162   */\n      0x6464726573730000000000000000000000000000000000000000000000000000\n        /* \"#utility.yul\":12149:12151   */\n      0x20\n        /* \"#utility.yul\":12141:12147   */\n      dup3\n        /* \"#utility.yul\":12137:12152   */\n      add\n        /* \"#utility.yul\":12130:12163   */\n      mstore\n        /* \"#utility.yul\":11945:12170   */\n      pop\n      jump\t// out\n        /* \"#utility.yul\":12176:12358   */\n    tag_171:\n        /* \"#utility.yul\":12316:12350   */\n      0x4f776e61626c653a2063616c6c6572206973206e6f7420746865206f776e6572\n        /* \"#utility.yul\":12312:12313   */\n      0x00\n        /* \"#utility.yul\":12304:12310   */\n      dup3\n        /* \"#utility.yul\":12300:12314   */\n      add\n        /* \"#utility.yul\":12293:12351   */\n      mstore\n        /* \"#utility.yul\":12176:12358   */\n      pop\n      jump\t// out\n        /* \"#utility.yul\":12364:12486   */\n    tag_104:\n        /* \"#utility.yul\":12437:12461   */\n      tag_246\n        /* \"#utility.yul\":12455:12460   */\n      dup2\n        /* \"#utility.yul\":12437:12461   */\n      tag_135\n      jump\t// in\n    tag_246:\n        /* \"#utility.yul\":12430:12435   */\n      dup2\n        /* \"#utility.yul\":12427:12462   */\n      eq\n        /* \"#utility.yul\":12417:12480   */\n      tag_247\n      jumpi\n        /* \"#utility.yul\":12476:12477   */\n      0x00\n        /* \"#utility.yul\":12473:12474   */\n      dup1\n        /* \"#utility.yul\":12466:12478   */\n      revert\n        /* \"#utility.yul\":12417:12480   */\n    tag_247:\n        /* \"#utility.yul\":12364:12486   */\n      pop\n      jump\t// out\n        /* \"#utility.yul\":12492:12614   */\n    tag_114:\n        /* \"#utility.yul\":12565:12589   */\n      tag_249\n        /* \"#utility.yul\":12583:12588   */\n      dup2\n        /* \"#utility.yul\":12565:12589   */\n      tag_175\n      jump\t// in\n    tag_249:\n        /* \"#utility.yul\":12558:12563   */\n      dup2\n        /* \"#utility.yul\":12555:12590   */\n      eq\n        /* \"#utility.yul\":12545:12608   */\n      tag_250\n      jumpi\n        /* \"#utility.yul\":12604:12605   */\n      0x00\n        /* \"#utility.yul\":12601:12602   */\n      dup1\n        /* \"#utility.yul\":12594:12606   */\n      revert\n        /* \"#utility.yul\":12545:12608   */\n    tag_250:\n        /* \"#utility.yul\":12492:12614   */\n      pop\n      jump\t// out\n\n    auxdata: 0xa2646970667358221220d68eb9300a37587642c5a85e7927d3cc437268a7d3c66e2cec2b0b719e5a967264736f6c63430008070033\n}\n",
				"bytecode": {
					"linkReferences": {},
					"object": "608060405234801561001057600080fd5b5061002d61002261003260201b60201c565b61003a60201b60201c565b6100fe565b600033905090565b60008060009054906101000a900473ffffffffffffffffffffffffffffffffffffffff169050816000806101000a81548173ffffffffffffffffffffffffffffffffffffffff021916908373ffffffffffffffffffffffffffffffffffffffff1602179055508173ffffffffffffffffffffffffffffffffffffffff168173ffffffffffffffffffffffffffffffffffffffff167f8be0079c531659141344cd1fd0a4f28419497f9722a3daafe3b4186f6b6457e060405160405180910390a35050565b610cb08061010d6000396000f3fe608060405234801561001057600080fd5b50600436106100625760003560e01c8063637a387214610067578063715018a6146100835780637975c6b41461008d5780638da5cb5b146100be578063b905ad78146100dc578063f2fde38b146100fa575b600080fd5b610081600480360381019061007c9190610682565b610116565b005b61008b61025b565b005b6100a760048036038101906100a291906106de565b61026f565b6040516100b5929190610851565b60405180910390f35b6100c661031b565b6040516100d39190610836565b60405180910390f35b6100e4610344565b6040516100f19190610901565b60405180910390f35b610114600480360381019061010f9190610655565b61034a565b005b61011e6103ce565b8160058160405161012f919061081f565b908152602001604051809103902060009054906101000a900460ff161561018b576040517f08c379a0000000000000000000000000000000000000000000000000000000008152600401610182906108a1565b60405180910390fd5b6000835114156101d0576040517f08c379a00000000000000000000000000000000000000000000000000000000081526004016101c790610881565b60405180910390fd5b60016005846040516101e2919061081f565b908152602001604051809103902060006101000a81548160ff02191690831515021790555060006001836102169190610999565b925082905060006006600083815260200190815260200160002090508481600001908051906020019061024a929190610518565b508381600101819055505050505050565b6102636103ce565b61026d600061044c565b565b600660205280600052604060002060009150905080600001805461029290610a6d565b80601f01602080910402602001604051908101604052809291908181526020018280546102be90610a6d565b801561030b5780601f106102e05761010080835404028352916020019161030b565b820191906000526020600020905b8154815290600101906020018083116102ee57829003601f168201915b5050505050908060010154905082565b60008060009054906101000a900473ffffffffffffffffffffffffffffffffffffffff16905090565b60045481565b6103526103ce565b600073ffffffffffffffffffffffffffffffffffffffff168173ffffffffffffffffffffffffffffffffffffffff1614156103c2576040517f08c379a00000000000000000000000000000000000000000000000000000000081526004016103b9906108c1565b60405180910390fd5b6103cb8161044c565b50565b6103d6610510565b73ffffffffffffffffffffffffffffffffffffffff166103f461031b565b73ffffffffffffffffffffffffffffffffffffffff161461044a576040517f08c379a0000000000000000000000000000000000000000000000000000000008152600401610441906108e1565b60405180910390fd5b565b60008060009054906101000a900473ffffffffffffffffffffffffffffffffffffffff169050816000806101000a81548173ffffffffffffffffffffffffffffffffffffffff021916908373ffffffffffffffffffffffffffffffffffffffff1602179055508173ffffffffffffffffffffffffffffffffffffffff168173ffffffffffffffffffffffffffffffffffffffff167f8be0079c531659141344cd1fd0a4f28419497f9722a3daafe3b4186f6b6457e060405160405180910390a35050565b600033905090565b82805461052490610a6d565b90600052602060002090601f016020900481019282610546576000855561058d565b82601f1061055f57805160ff191683800117855561058d565b8280016001018555821561058d579182015b8281111561058c578251825591602001919060010190610571565b5b50905061059a919061059e565b5090565b5b808211156105b757600081600090555060010161059f565b5090565b60006105ce6105c984610941565b61091c565b9050828152602081018484840111156105ea576105e9610b62565b5b6105f5848285610a2b565b509392505050565b60008135905061060c81610c4c565b92915050565b600082601f83011261062757610626610b5d565b5b81356106378482602086016105bb565b91505092915050565b60008135905061064f81610c63565b92915050565b60006020828403121561066b5761066a610b6c565b5b6000610679848285016105fd565b91505092915050565b6000806040838503121561069957610698610b6c565b5b600083013567ffffffffffffffff8111156106b7576106b6610b67565b5b6106c385828601610612565b92505060206106d485828601610640565b9150509250929050565b6000602082840312156106f4576106f3610b6c565b5b600061070284828501610640565b91505092915050565b610714816109ef565b82525050565b600061072582610972565b61072f818561097d565b935061073f818560208601610a3a565b61074881610b71565b840191505092915050565b600061075e82610972565b610768818561098e565b9350610778818560208601610a3a565b80840191505092915050565b600061079160148361097d565b915061079c82610b82565b602082019050919050565b60006107b460118361097d565b91506107bf82610bab565b602082019050919050565b60006107d760268361097d565b91506107e282610bd4565b604082019050919050565b60006107fa60208361097d565b915061080582610c23565b602082019050919050565b61081981610a21565b82525050565b600061082b8284610753565b915081905092915050565b600060208201905061084b600083018461070b565b92915050565b6000604082019050818103600083015261086b818561071a565b905061087a6020830184610810565b9392505050565b6000602082019050818103600083015261089a81610784565b9050919050565b600060208201905081810360008301526108ba816107a7565b9050919050565b600060208201905081810360008301526108da816107ca565b9050919050565b600060208201905081810360008301526108fa816107ed565b9050919050565b60006020820190506109166000830184610810565b92915050565b6000610926610937565b90506109328282610a9f565b919050565b6000604051905090565b600067ffffffffffffffff82111561095c5761095b610b2e565b5b61096582610b71565b9050602081019050919050565b600081519050919050565b600082825260208201905092915050565b600081905092915050565b60006109a482610a21565b91506109af83610a21565b9250827fffffffffffffffffffffffffffffffffffffffffffffffffffffffffffffffff038211156109e4576109e3610ad0565b5b828201905092915050565b60006109fa82610a01565b9050919050565b600073ffffffffffffffffffffffffffffffffffffffff82169050919050565b6000819050919050565b82818337600083830152505050565b60005b83811015610a58578082015181840152602081019050610a3d565b83811115610a67576000848401525b50505050565b60006002820490506001821680610a8557607f821691505b60208210811415610a9957610a98610aff565b5b50919050565b610aa882610b71565b810181811067ffffffffffffffff82111715610ac757610ac6610b2e565b5b80604052505050565b7f4e487b7100000000000000000000000000000000000000000000000000000000600052601160045260246000fd5b7f4e487b7100000000000000000000000000000000000000000000000000000000600052602260045260246000fd5b7f4e487b7100000000000000000000000000000000000000000000000000000000600052604160045260246000fd5b600080fd5b600080fd5b600080fd5b600080fd5b6000601f19601f8301169050919050565b7f4e616d652063616e6e6f7420626520656d707479000000000000000000000000600082015250565b7f426f6f6b20697320617661696c61626c65000000000000000000000000000000600082015250565b7f4f776e61626c653a206e6577206f776e657220697320746865207a65726f206160008201527f6464726573730000000000000000000000000000000000000000000000000000602082015250565b7f4f776e61626c653a2063616c6c6572206973206e6f7420746865206f776e6572600082015250565b610c55816109ef565b8114610c6057600080fd5b50565b610c6c81610a21565b8114610c7757600080fd5b5056fea2646970667358221220d68eb9300a37587642c5a85e7927d3cc437268a7d3c66e2cec2b0b719e5a967264736f6c63430008070033",
					"opcodes": "PUSH1 0x80 PUSH1 0x40 MSTORE CALLVALUE DUP1 ISZERO PUSH2 0x10 JUMPI PUSH1 0x0 DUP1 REVERT JUMPDEST POP PUSH2 0x2D PUSH2 0x22 PUSH2 0x32 PUSH1 0x20 SHL PUSH1 0x20 SHR JUMP JUMPDEST PUSH2 0x3A PUSH1 0x20 SHL PUSH1 0x20 SHR JUMP JUMPDEST PUSH2 0xFE JUMP JUMPDEST PUSH1 0x0 CALLER SWAP1 POP SWAP1 JUMP JUMPDEST PUSH1 0x0 DUP1 PUSH1 0x0 SWAP1 SLOAD SWAP1 PUSH2 0x100 EXP SWAP1 DIV PUSH20 0xFFFFFFFFFFFFFFFFFFFFFFFFFFFFFFFFFFFFFFFF AND SWAP1 POP DUP2 PUSH1 0x0 DUP1 PUSH2 0x100 EXP DUP2 SLOAD DUP2 PUSH20 0xFFFFFFFFFFFFFFFFFFFFFFFFFFFFFFFFFFFFFFFF MUL NOT AND SWAP1 DUP4 PUSH20 0xFFFFFFFFFFFFFFFFFFFFFFFFFFFFFFFFFFFFFFFF AND MUL OR SWAP1 SSTORE POP DUP2 PUSH20 0xFFFFFFFFFFFFFFFFFFFFFFFFFFFFFFFFFFFFFFFF AND DUP2 PUSH20 0xFFFFFFFFFFFFFFFFFFFFFFFFFFFFFFFFFFFFFFFF AND PUSH32 0x8BE0079C531659141344CD1FD0A4F28419497F9722A3DAAFE3B4186F6B6457E0 PUSH1 0x40 MLOAD PUSH1 0x40 MLOAD DUP1 SWAP2 SUB SWAP1 LOG3 POP POP JUMP JUMPDEST PUSH2 0xCB0 DUP1 PUSH2 0x10D PUSH1 0x0 CODECOPY PUSH1 0x0 RETURN INVALID PUSH1 0x80 PUSH1 0x40 MSTORE CALLVALUE DUP1 ISZERO PUSH2 0x10 JUMPI PUSH1 0x0 DUP1 REVERT JUMPDEST POP PUSH1 0x4 CALLDATASIZE LT PUSH2 0x62 JUMPI PUSH1 0x0 CALLDATALOAD PUSH1 0xE0 SHR DUP1 PUSH4 0x637A3872 EQ PUSH2 0x67 JUMPI DUP1 PUSH4 0x715018A6 EQ PUSH2 0x83 JUMPI DUP1 PUSH4 0x7975C6B4 EQ PUSH2 0x8D JUMPI DUP1 PUSH4 0x8DA5CB5B EQ PUSH2 0xBE JUMPI DUP1 PUSH4 0xB905AD78 EQ PUSH2 0xDC JUMPI DUP1 PUSH4 0xF2FDE38B EQ PUSH2 0xFA JUMPI JUMPDEST PUSH1 0x0 DUP1 REVERT JUMPDEST PUSH2 0x81 PUSH1 0x4 DUP1 CALLDATASIZE SUB DUP2 ADD SWAP1 PUSH2 0x7C SWAP2 SWAP1 PUSH2 0x682 JUMP JUMPDEST PUSH2 0x116 JUMP JUMPDEST STOP JUMPDEST PUSH2 0x8B PUSH2 0x25B JUMP JUMPDEST STOP JUMPDEST PUSH2 0xA7 PUSH1 0x4 DUP1 CALLDATASIZE SUB DUP2 ADD SWAP1 PUSH2 0xA2 SWAP2 SWAP1 PUSH2 0x6DE JUMP JUMPDEST PUSH2 0x26F JUMP JUMPDEST PUSH1 0x40 MLOAD PUSH2 0xB5 SWAP3 SWAP2 SWAP1 PUSH2 0x851 JUMP JUMPDEST PUSH1 0x40 MLOAD DUP1 SWAP2 SUB SWAP1 RETURN JUMPDEST PUSH2 0xC6 PUSH2 0x31B JUMP JUMPDEST PUSH1 0x40 MLOAD PUSH2 0xD3 SWAP2 SWAP1 PUSH2 0x836 JUMP JUMPDEST PUSH1 0x40 MLOAD DUP1 SWAP2 SUB SWAP1 RETURN JUMPDEST PUSH2 0xE4 PUSH2 0x344 JUMP JUMPDEST PUSH1 0x40 MLOAD PUSH2 0xF1 SWAP2 SWAP1 PUSH2 0x901 JUMP JUMPDEST PUSH1 0x40 MLOAD DUP1 SWAP2 SUB SWAP1 RETURN JUMPDEST PUSH2 0x114 PUSH1 0x4 DUP1 CALLDATASIZE SUB DUP2 ADD SWAP1 PUSH2 0x10F SWAP2 SWAP1 PUSH2 0x655 JUMP JUMPDEST PUSH2 0x34A JUMP JUMPDEST STOP JUMPDEST PUSH2 0x11E PUSH2 0x3CE JUMP JUMPDEST DUP2 PUSH1 0x5 DUP2 PUSH1 0x40 MLOAD PUSH2 0x12F SWAP2 SWAP1 PUSH2 0x81F JUMP JUMPDEST SWAP1 DUP2 MSTORE PUSH1 0x20 ADD PUSH1 0x40 MLOAD DUP1 SWAP2 SUB SWAP1 KECCAK256 PUSH1 0x0 SWAP1 SLOAD SWAP1 PUSH2 0x100 EXP SWAP1 DIV PUSH1 0xFF AND ISZERO PUSH2 0x18B JUMPI PUSH1 0x40 MLOAD PUSH32 0x8C379A000000000000000000000000000000000000000000000000000000000 DUP2 MSTORE PUSH1 0x4 ADD PUSH2 0x182 SWAP1 PUSH2 0x8A1 JUMP JUMPDEST PUSH1 0x40 MLOAD DUP1 SWAP2 SUB SWAP1 REVERT JUMPDEST PUSH1 0x0 DUP4 MLOAD EQ ISZERO PUSH2 0x1D0 JUMPI PUSH1 0x40 MLOAD PUSH32 0x8C379A000000000000000000000000000000000000000000000000000000000 DUP2 MSTORE PUSH1 0x4 ADD PUSH2 0x1C7 SWAP1 PUSH2 0x881 JUMP JUMPDEST PUSH1 0x40 MLOAD DUP1 SWAP2 SUB SWAP1 REVERT JUMPDEST PUSH1 0x1 PUSH1 0x5 DUP5 PUSH1 0x40 MLOAD PUSH2 0x1E2 SWAP2 SWAP1 PUSH2 0x81F JUMP JUMPDEST SWAP1 DUP2 MSTORE PUSH1 0x20 ADD PUSH1 0x40 MLOAD DUP1 SWAP2 SUB SWAP1 KECCAK256 PUSH1 0x0 PUSH2 0x100 EXP DUP2 SLOAD DUP2 PUSH1 0xFF MUL NOT AND SWAP1 DUP4 ISZERO ISZERO MUL OR SWAP1 SSTORE POP PUSH1 0x0 PUSH1 0x1 DUP4 PUSH2 0x216 SWAP2 SWAP1 PUSH2 0x999 JUMP JUMPDEST SWAP3 POP DUP3 SWAP1 POP PUSH1 0x0 PUSH1 0x6 PUSH1 0x0 DUP4 DUP2 MSTORE PUSH1 0x20 ADD SWAP1 DUP2 MSTORE PUSH1 0x20 ADD PUSH1 0x0 KECCAK256 SWAP1 POP DUP5 DUP2 PUSH1 0x0 ADD SWAP1 DUP1 MLOAD SWAP1 PUSH1 0x20 ADD SWAP1 PUSH2 0x24A SWAP3 SWAP2 SWAP1 PUSH2 0x518 JUMP JUMPDEST POP DUP4 DUP2 PUSH1 0x1 ADD DUP2 SWAP1 SSTORE POP POP POP POP POP POP JUMP JUMPDEST PUSH2 0x263 PUSH2 0x3CE JUMP JUMPDEST PUSH2 0x26D PUSH1 0x0 PUSH2 0x44C JUMP JUMPDEST JUMP JUMPDEST PUSH1 0x6 PUSH1 0x20 MSTORE DUP1 PUSH1 0x0 MSTORE PUSH1 0x40 PUSH1 0x0 KECCAK256 PUSH1 0x0 SWAP2 POP SWAP1 POP DUP1 PUSH1 0x0 ADD DUP1 SLOAD PUSH2 0x292 SWAP1 PUSH2 0xA6D JUMP JUMPDEST DUP1 PUSH1 0x1F ADD PUSH1 0x20 DUP1 SWAP2 DIV MUL PUSH1 0x20 ADD PUSH1 0x40 MLOAD SWAP1 DUP2 ADD PUSH1 0x40 MSTORE DUP1 SWAP3 SWAP2 SWAP1 DUP2 DUP2 MSTORE PUSH1 0x20 ADD DUP3 DUP1 SLOAD PUSH2 0x2BE SWAP1 PUSH2 0xA6D JUMP JUMPDEST DUP1 ISZERO PUSH2 0x30B JUMPI DUP1 PUSH1 0x1F LT PUSH2 0x2E0 JUMPI PUSH2 0x100 DUP1 DUP4 SLOAD DIV MUL DUP4 MSTORE SWAP2 PUSH1 0x20 ADD SWAP2 PUSH2 0x30B JUMP JUMPDEST DUP3 ADD SWAP2 SWAP1 PUSH1 0x0 MSTORE PUSH1 0x20 PUSH1 0x0 KECCAK256 SWAP1 JUMPDEST DUP2 SLOAD DUP2 MSTORE SWAP1 PUSH1 0x1 ADD SWAP1 PUSH1 0x20 ADD DUP1 DUP4 GT PUSH2 0x2EE JUMPI DUP3 SWAP1 SUB PUSH1 0x1F AND DUP3 ADD SWAP2 JUMPDEST POP POP POP POP POP SWAP1 DUP1 PUSH1 0x1 ADD SLOAD SWAP1 POP DUP3 JUMP JUMPDEST PUSH1 0x0 DUP1 PUSH1 0x0 SWAP1 SLOAD SWAP1 PUSH2 0x100 EXP SWAP1 DIV PUSH20 0xFFFFFFFFFFFFFFFFFFFFFFFFFFFFFFFFFFFFFFFF AND SWAP1 POP SWAP1 JUMP JUMPDEST PUSH1 0x4 SLOAD DUP2 JUMP JUMPDEST PUSH2 0x352 PUSH2 0x3CE JUMP JUMPDEST PUSH1 0x0 PUSH20 0xFFFFFFFFFFFFFFFFFFFFFFFFFFFFFFFFFFFFFFFF AND DUP2 PUSH20 0xFFFFFFFFFFFFFFFFFFFFFFFFFFFFFFFFFFFFFFFF AND EQ ISZERO PUSH2 0x3C2 JUMPI PUSH1 0x40 MLOAD PUSH32 0x8C379A000000000000000000000000000000000000000000000000000000000 DUP2 MSTORE PUSH1 0x4 ADD PUSH2 0x3B9 SWAP1 PUSH2 0x8C1 JUMP JUMPDEST PUSH1 0x40 MLOAD DUP1 SWAP2 SUB SWAP1 REVERT JUMPDEST PUSH2 0x3CB DUP2 PUSH2 0x44C JUMP JUMPDEST POP JUMP JUMPDEST PUSH2 0x3D6 PUSH2 0x510 JUMP JUMPDEST PUSH20 0xFFFFFFFFFFFFFFFFFFFFFFFFFFFFFFFFFFFFFFFF AND PUSH2 0x3F4 PUSH2 0x31B JUMP JUMPDEST PUSH20 0xFFFFFFFFFFFFFFFFFFFFFFFFFFFFFFFFFFFFFFFF AND EQ PUSH2 0x44A JUMPI PUSH1 0x40 MLOAD PUSH32 0x8C379A000000000000000000000000000000000000000000000000000000000 DUP2 MSTORE PUSH1 0x4 ADD PUSH2 0x441 SWAP1 PUSH2 0x8E1 JUMP JUMPDEST PUSH1 0x40 MLOAD DUP1 SWAP2 SUB SWAP1 REVERT JUMPDEST JUMP JUMPDEST PUSH1 0x0 DUP1 PUSH1 0x0 SWAP1 SLOAD SWAP1 PUSH2 0x100 EXP SWAP1 DIV PUSH20 0xFFFFFFFFFFFFFFFFFFFFFFFFFFFFFFFFFFFFFFFF AND SWAP1 POP DUP2 PUSH1 0x0 DUP1 PUSH2 0x100 EXP DUP2 SLOAD DUP2 PUSH20 0xFFFFFFFFFFFFFFFFFFFFFFFFFFFFFFFFFFFFFFFF MUL NOT AND SWAP1 DUP4 PUSH20 0xFFFFFFFFFFFFFFFFFFFFFFFFFFFFFFFFFFFFFFFF AND MUL OR SWAP1 SSTORE POP DUP2 PUSH20 0xFFFFFFFFFFFFFFFFFFFFFFFFFFFFFFFFFFFFFFFF AND DUP2 PUSH20 0xFFFFFFFFFFFFFFFFFFFFFFFFFFFFFFFFFFFFFFFF AND PUSH32 0x8BE0079C531659141344CD1FD0A4F28419497F9722A3DAAFE3B4186F6B6457E0 PUSH1 0x40 MLOAD PUSH1 0x40 MLOAD DUP1 SWAP2 SUB SWAP1 LOG3 POP POP JUMP JUMPDEST PUSH1 0x0 CALLER SWAP1 POP SWAP1 JUMP JUMPDEST DUP3 DUP1 SLOAD PUSH2 0x524 SWAP1 PUSH2 0xA6D JUMP JUMPDEST SWAP1 PUSH1 0x0 MSTORE PUSH1 0x20 PUSH1 0x0 KECCAK256 SWAP1 PUSH1 0x1F ADD PUSH1 0x20 SWAP1 DIV DUP2 ADD SWAP3 DUP3 PUSH2 0x546 JUMPI PUSH1 0x0 DUP6 SSTORE PUSH2 0x58D JUMP JUMPDEST DUP3 PUSH1 0x1F LT PUSH2 0x55F JUMPI DUP1 MLOAD PUSH1 0xFF NOT AND DUP4 DUP1 ADD OR DUP6 SSTORE PUSH2 0x58D JUMP JUMPDEST DUP3 DUP1 ADD PUSH1 0x1 ADD DUP6 SSTORE DUP3 ISZERO PUSH2 0x58D JUMPI SWAP2 DUP3 ADD JUMPDEST DUP3 DUP2 GT ISZERO PUSH2 0x58C JUMPI DUP3 MLOAD DUP3 SSTORE SWAP2 PUSH1 0x20 ADD SWAP2 SWAP1 PUSH1 0x1 ADD SWAP1 PUSH2 0x571 JUMP JUMPDEST JUMPDEST POP SWAP1 POP PUSH2 0x59A SWAP2 SWAP1 PUSH2 0x59E JUMP JUMPDEST POP SWAP1 JUMP JUMPDEST JUMPDEST DUP1 DUP3 GT ISZERO PUSH2 0x5B7 JUMPI PUSH1 0x0 DUP2 PUSH1 0x0 SWAP1 SSTORE POP PUSH1 0x1 ADD PUSH2 0x59F JUMP JUMPDEST POP SWAP1 JUMP JUMPDEST PUSH1 0x0 PUSH2 0x5CE PUSH2 0x5C9 DUP5 PUSH2 0x941 JUMP JUMPDEST PUSH2 0x91C JUMP JUMPDEST SWAP1 POP DUP3 DUP2 MSTORE PUSH1 0x20 DUP2 ADD DUP5 DUP5 DUP5 ADD GT ISZERO PUSH2 0x5EA JUMPI PUSH2 0x5E9 PUSH2 0xB62 JUMP JUMPDEST JUMPDEST PUSH2 0x5F5 DUP5 DUP3 DUP6 PUSH2 0xA2B JUMP JUMPDEST POP SWAP4 SWAP3 POP POP POP JUMP JUMPDEST PUSH1 0x0 DUP2 CALLDATALOAD SWAP1 POP PUSH2 0x60C DUP2 PUSH2 0xC4C JUMP JUMPDEST SWAP3 SWAP2 POP POP JUMP JUMPDEST PUSH1 0x0 DUP3 PUSH1 0x1F DUP4 ADD SLT PUSH2 0x627 JUMPI PUSH2 0x626 PUSH2 0xB5D JUMP JUMPDEST JUMPDEST DUP2 CALLDATALOAD PUSH2 0x637 DUP5 DUP3 PUSH1 0x20 DUP7 ADD PUSH2 0x5BB JUMP JUMPDEST SWAP2 POP POP SWAP3 SWAP2 POP POP JUMP JUMPDEST PUSH1 0x0 DUP2 CALLDATALOAD SWAP1 POP PUSH2 0x64F DUP2 PUSH2 0xC63 JUMP JUMPDEST SWAP3 SWAP2 POP POP JUMP JUMPDEST PUSH1 0x0 PUSH1 0x20 DUP3 DUP5 SUB SLT ISZERO PUSH2 0x66B JUMPI PUSH2 0x66A PUSH2 0xB6C JUMP JUMPDEST JUMPDEST PUSH1 0x0 PUSH2 0x679 DUP5 DUP3 DUP6 ADD PUSH2 0x5FD JUMP JUMPDEST SWAP2 POP POP SWAP3 SWAP2 POP POP JUMP JUMPDEST PUSH1 0x0 DUP1 PUSH1 0x40 DUP4 DUP6 SUB SLT ISZERO PUSH2 0x699 JUMPI PUSH2 0x698 PUSH2 0xB6C JUMP JUMPDEST JUMPDEST PUSH1 0x0 DUP4 ADD CALLDATALOAD PUSH8 0xFFFFFFFFFFFFFFFF DUP2 GT ISZERO PUSH2 0x6B7 JUMPI PUSH2 0x6B6 PUSH2 0xB67 JUMP JUMPDEST JUMPDEST PUSH2 0x6C3 DUP6 DUP3 DUP7 ADD PUSH2 0x612 JUMP JUMPDEST SWAP3 POP POP PUSH1 0x20 PUSH2 0x6D4 DUP6 DUP3 DUP7 ADD PUSH2 0x640 JUMP JUMPDEST SWAP2 POP POP SWAP3 POP SWAP3 SWAP1 POP JUMP JUMPDEST PUSH1 0x0 PUSH1 0x20 DUP3 DUP5 SUB SLT ISZERO PUSH2 0x6F4 JUMPI PUSH2 0x6F3 PUSH2 0xB6C JUMP JUMPDEST JUMPDEST PUSH1 0x0 PUSH2 0x702 DUP5 DUP3 DUP6 ADD PUSH2 0x640 JUMP JUMPDEST SWAP2 POP POP SWAP3 SWAP2 POP POP JUMP JUMPDEST PUSH2 0x714 DUP2 PUSH2 0x9EF JUMP JUMPDEST DUP3 MSTORE POP POP JUMP JUMPDEST PUSH1 0x0 PUSH2 0x725 DUP3 PUSH2 0x972 JUMP JUMPDEST PUSH2 0x72F DUP2 DUP6 PUSH2 0x97D JUMP JUMPDEST SWAP4 POP PUSH2 0x73F DUP2 DUP6 PUSH1 0x20 DUP7 ADD PUSH2 0xA3A JUMP JUMPDEST PUSH2 0x748 DUP2 PUSH2 0xB71 JUMP JUMPDEST DUP5 ADD SWAP2 POP POP SWAP3 SWAP2 POP POP JUMP JUMPDEST PUSH1 0x0 PUSH2 0x75E DUP3 PUSH2 0x972 JUMP JUMPDEST PUSH2 0x768 DUP2 DUP6 PUSH2 0x98E JUMP JUMPDEST SWAP4 POP PUSH2 0x778 DUP2 DUP6 PUSH1 0x20 DUP7 ADD PUSH2 0xA3A JUMP JUMPDEST DUP1 DUP5 ADD SWAP2 POP POP SWAP3 SWAP2 POP POP JUMP JUMPDEST PUSH1 0x0 PUSH2 0x791 PUSH1 0x14 DUP4 PUSH2 0x97D JUMP JUMPDEST SWAP2 POP PUSH2 0x79C DUP3 PUSH2 0xB82 JUMP JUMPDEST PUSH1 0x20 DUP3 ADD SWAP1 POP SWAP2 SWAP1 POP JUMP JUMPDEST PUSH1 0x0 PUSH2 0x7B4 PUSH1 0x11 DUP4 PUSH2 0x97D JUMP JUMPDEST SWAP2 POP PUSH2 0x7BF DUP3 PUSH2 0xBAB JUMP JUMPDEST PUSH1 0x20 DUP3 ADD SWAP1 POP SWAP2 SWAP1 POP JUMP JUMPDEST PUSH1 0x0 PUSH2 0x7D7 PUSH1 0x26 DUP4 PUSH2 0x97D JUMP JUMPDEST SWAP2 POP PUSH2 0x7E2 DUP3 PUSH2 0xBD4 JUMP JUMPDEST PUSH1 0x40 DUP3 ADD SWAP1 POP SWAP2 SWAP1 POP JUMP JUMPDEST PUSH1 0x0 PUSH2 0x7FA PUSH1 0x20 DUP4 PUSH2 0x97D JUMP JUMPDEST SWAP2 POP PUSH2 0x805 DUP3 PUSH2 0xC23 JUMP JUMPDEST PUSH1 0x20 DUP3 ADD SWAP1 POP SWAP2 SWAP1 POP JUMP JUMPDEST PUSH2 0x819 DUP2 PUSH2 0xA21 JUMP JUMPDEST DUP3 MSTORE POP POP JUMP JUMPDEST PUSH1 0x0 PUSH2 0x82B DUP3 DUP5 PUSH2 0x753 JUMP JUMPDEST SWAP2 POP DUP2 SWAP1 POP SWAP3 SWAP2 POP POP JUMP JUMPDEST PUSH1 0x0 PUSH1 0x20 DUP3 ADD SWAP1 POP PUSH2 0x84B PUSH1 0x0 DUP4 ADD DUP5 PUSH2 0x70B JUMP JUMPDEST SWAP3 SWAP2 POP POP JUMP JUMPDEST PUSH1 0x0 PUSH1 0x40 DUP3 ADD SWAP1 POP DUP2 DUP2 SUB PUSH1 0x0 DUP4 ADD MSTORE PUSH2 0x86B DUP2 DUP6 PUSH2 0x71A JUMP JUMPDEST SWAP1 POP PUSH2 0x87A PUSH1 0x20 DUP4 ADD DUP5 PUSH2 0x810 JUMP JUMPDEST SWAP4 SWAP3 POP POP POP JUMP JUMPDEST PUSH1 0x0 PUSH1 0x20 DUP3 ADD SWAP1 POP DUP2 DUP2 SUB PUSH1 0x0 DUP4 ADD MSTORE PUSH2 0x89A DUP2 PUSH2 0x784 JUMP JUMPDEST SWAP1 POP SWAP2 SWAP1 POP JUMP JUMPDEST PUSH1 0x0 PUSH1 0x20 DUP3 ADD SWAP1 POP DUP2 DUP2 SUB PUSH1 0x0 DUP4 ADD MSTORE PUSH2 0x8BA DUP2 PUSH2 0x7A7 JUMP JUMPDEST SWAP1 POP SWAP2 SWAP1 POP JUMP JUMPDEST PUSH1 0x0 PUSH1 0x20 DUP3 ADD SWAP1 POP DUP2 DUP2 SUB PUSH1 0x0 DUP4 ADD MSTORE PUSH2 0x8DA DUP2 PUSH2 0x7CA JUMP JUMPDEST SWAP1 POP SWAP2 SWAP1 POP JUMP JUMPDEST PUSH1 0x0 PUSH1 0x20 DUP3 ADD SWAP1 POP DUP2 DUP2 SUB PUSH1 0x0 DUP4 ADD MSTORE PUSH2 0x8FA DUP2 PUSH2 0x7ED JUMP JUMPDEST SWAP1 POP SWAP2 SWAP1 POP JUMP JUMPDEST PUSH1 0x0 PUSH1 0x20 DUP3 ADD SWAP1 POP PUSH2 0x916 PUSH1 0x0 DUP4 ADD DUP5 PUSH2 0x810 JUMP JUMPDEST SWAP3 SWAP2 POP POP JUMP JUMPDEST PUSH1 0x0 PUSH2 0x926 PUSH2 0x937 JUMP JUMPDEST SWAP1 POP PUSH2 0x932 DUP3 DUP3 PUSH2 0xA9F JUMP JUMPDEST SWAP2 SWAP1 POP JUMP JUMPDEST PUSH1 0x0 PUSH1 0x40 MLOAD SWAP1 POP SWAP1 JUMP JUMPDEST PUSH1 0x0 PUSH8 0xFFFFFFFFFFFFFFFF DUP3 GT ISZERO PUSH2 0x95C JUMPI PUSH2 0x95B PUSH2 0xB2E JUMP JUMPDEST JUMPDEST PUSH2 0x965 DUP3 PUSH2 0xB71 JUMP JUMPDEST SWAP1 POP PUSH1 0x20 DUP2 ADD SWAP1 POP SWAP2 SWAP1 POP JUMP JUMPDEST PUSH1 0x0 DUP2 MLOAD SWAP1 POP SWAP2 SWAP1 POP JUMP JUMPDEST PUSH1 0x0 DUP3 DUP3 MSTORE PUSH1 0x20 DUP3 ADD SWAP1 POP SWAP3 SWAP2 POP POP JUMP JUMPDEST PUSH1 0x0 DUP2 SWAP1 POP SWAP3 SWAP2 POP POP JUMP JUMPDEST PUSH1 0x0 PUSH2 0x9A4 DUP3 PUSH2 0xA21 JUMP JUMPDEST SWAP2 POP PUSH2 0x9AF DUP4 PUSH2 0xA21 JUMP JUMPDEST SWAP3 POP DUP3 PUSH32 0xFFFFFFFFFFFFFFFFFFFFFFFFFFFFFFFFFFFFFFFFFFFFFFFFFFFFFFFFFFFFFFFF SUB DUP3 GT ISZERO PUSH2 0x9E4 JUMPI PUSH2 0x9E3 PUSH2 0xAD0 JUMP JUMPDEST JUMPDEST DUP3 DUP3 ADD SWAP1 POP SWAP3 SWAP2 POP POP JUMP JUMPDEST PUSH1 0x0 PUSH2 0x9FA DUP3 PUSH2 0xA01 JUMP JUMPDEST SWAP1 POP SWAP2 SWAP1 POP JUMP JUMPDEST PUSH1 0x0 PUSH20 0xFFFFFFFFFFFFFFFFFFFFFFFFFFFFFFFFFFFFFFFF DUP3 AND SWAP1 POP SWAP2 SWAP1 POP JUMP JUMPDEST PUSH1 0x0 DUP2 SWAP1 POP SWAP2 SWAP1 POP JUMP JUMPDEST DUP3 DUP2 DUP4 CALLDATACOPY PUSH1 0x0 DUP4 DUP4 ADD MSTORE POP POP POP JUMP JUMPDEST PUSH1 0x0 JUMPDEST DUP4 DUP2 LT ISZERO PUSH2 0xA58 JUMPI DUP1 DUP3 ADD MLOAD DUP2 DUP5 ADD MSTORE PUSH1 0x20 DUP2 ADD SWAP1 POP PUSH2 0xA3D JUMP JUMPDEST DUP4 DUP2 GT ISZERO PUSH2 0xA67 JUMPI PUSH1 0x0 DUP5 DUP5 ADD MSTORE JUMPDEST POP POP POP POP JUMP JUMPDEST PUSH1 0x0 PUSH1 0x2 DUP3 DIV SWAP1 POP PUSH1 0x1 DUP3 AND DUP1 PUSH2 0xA85 JUMPI PUSH1 0x7F DUP3 AND SWAP2 POP JUMPDEST PUSH1 0x20 DUP3 LT DUP2 EQ ISZERO PUSH2 0xA99 JUMPI PUSH2 0xA98 PUSH2 0xAFF JUMP JUMPDEST JUMPDEST POP SWAP2 SWAP1 POP JUMP JUMPDEST PUSH2 0xAA8 DUP3 PUSH2 0xB71 JUMP JUMPDEST DUP2 ADD DUP2 DUP2 LT PUSH8 0xFFFFFFFFFFFFFFFF DUP3 GT OR ISZERO PUSH2 0xAC7 JUMPI PUSH2 0xAC6 PUSH2 0xB2E JUMP JUMPDEST JUMPDEST DUP1 PUSH1 0x40 MSTORE POP POP POP JUMP JUMPDEST PUSH32 0x4E487B7100000000000000000000000000000000000000000000000000000000 PUSH1 0x0 MSTORE PUSH1 0x11 PUSH1 0x4 MSTORE PUSH1 0x24 PUSH1 0x0 REVERT JUMPDEST PUSH32 0x4E487B7100000000000000000000000000000000000000000000000000000000 PUSH1 0x0 MSTORE PUSH1 0x22 PUSH1 0x4 MSTORE PUSH1 0x24 PUSH1 0x0 REVERT JUMPDEST PUSH32 0x4E487B7100000000000000000000000000000000000000000000000000000000 PUSH1 0x0 MSTORE PUSH1 0x41 PUSH1 0x4 MSTORE PUSH1 0x24 PUSH1 0x0 REVERT JUMPDEST PUSH1 0x0 DUP1 REVERT JUMPDEST PUSH1 0x0 DUP1 REVERT JUMPDEST PUSH1 0x0 DUP1 REVERT JUMPDEST PUSH1 0x0 DUP1 REVERT JUMPDEST PUSH1 0x0 PUSH1 0x1F NOT PUSH1 0x1F DUP4 ADD AND SWAP1 POP SWAP2 SWAP1 POP JUMP JUMPDEST PUSH32 0x4E616D652063616E6E6F7420626520656D707479000000000000000000000000 PUSH1 0x0 DUP3 ADD MSTORE POP JUMP JUMPDEST PUSH32 0x426F6F6B20697320617661696C61626C65000000000000000000000000000000 PUSH1 0x0 DUP3 ADD MSTORE POP JUMP JUMPDEST PUSH32 0x4F776E61626C653A206E6577206F776E657220697320746865207A65726F2061 PUSH1 0x0 DUP3 ADD MSTORE PUSH32 0x6464726573730000000000000000000000000000000000000000000000000000 PUSH1 0x20 DUP3 ADD MSTORE POP JUMP JUMPDEST PUSH32 0x4F776E61626C653A2063616C6C6572206973206E6F7420746865206F776E6572 PUSH1 0x0 DUP3 ADD MSTORE POP JUMP JUMPDEST PUSH2 0xC55 DUP2 PUSH2 0x9EF JUMP JUMPDEST DUP2 EQ PUSH2 0xC60 JUMPI PUSH1 0x0 DUP1 REVERT JUMPDEST POP JUMP JUMPDEST PUSH2 0xC6C DUP2 PUSH2 0xA21 JUMP JUMPDEST DUP2 EQ PUSH2 0xC77 JUMPI PUSH1 0x0 DUP1 REVERT JUMPDEST POP JUMP INVALID LOG2 PUSH5 0x6970667358 0x22 SLT KECCAK256 0xD6 DUP15 0xB9 ADDRESS EXP CALLDATACOPY PC PUSH23 0x42C5A85E7927D3CC437268A7D3C66E2CEC2B0B719E5A96 PUSH19 0x64736F6C634300080700330000000000000000 "
				},
				"gasEstimates": {
					"creation": {
						"codeDepositCost": "649600",
						"executionCost": "infinite",
						"totalCost": "infinite"
					},
					"external": {
						"BookLedger(uint256)": "infinite",
						"addBook(string,uint256)": "infinite",
						"bookCount()": "2495",
						"owner()": "2566",
						"renounceOwnership()": "30398",
						"transferOwnership(address)": "30835"
					}
				},
				"methodIdentifiers": {
					"BookLedger(uint256)": "7975c6b4",
					"addBook(string,uint256)": "637a3872",
					"bookCount()": "b905ad78",
					"owner()": "8da5cb5b",
					"renounceOwnership()": "715018a6",
					"transferOwnership(address)": "f2fde38b"
				}
			},
			"storageLayout": {
				"storage": [
					{
						"astId": 7,
						"contract": "contracts/Library.sol:Library",
						"label": "_owner",
						"offset": 0,
						"slot": "0",
						"type": "t_address"
					},
					{
						"astId": 151,
						"contract": "contracts/Library.sol:Library",
						"label": "myBook",
						"offset": 0,
						"slot": "1",
						"type": "t_struct(Book)148_storage"
					},
					{
						"astId": 153,
						"contract": "contracts/Library.sol:Library",
						"label": "bookCount",
						"offset": 0,
						"slot": "4",
						"type": "t_uint256"
					},
					{
						"astId": 157,
						"contract": "contracts/Library.sol:Library",
						"label": "isAvailable",
						"offset": 0,
						"slot": "5",
						"type": "t_mapping(t_string_memory_ptr,t_bool)"
					},
					{
						"astId": 162,
						"contract": "contracts/Library.sol:Library",
						"label": "BookLedger",
						"offset": 0,
						"slot": "6",
						"type": "t_mapping(t_uint256,t_struct(Book)148_storage)"
					}
				],
				"types": {
					"t_address": {
						"encoding": "inplace",
						"label": "address",
						"numberOfBytes": "20"
					},
					"t_bool": {
						"encoding": "inplace",
						"label": "bool",
						"numberOfBytes": "1"
					},
					"t_mapping(t_string_memory_ptr,t_bool)": {
						"encoding": "mapping",
						"key": "t_string_memory_ptr",
						"label": "mapping(string => bool)",
						"numberOfBytes": "32",
						"value": "t_bool"
					},
					"t_mapping(t_uint256,t_address)": {
						"encoding": "mapping",
						"key": "t_uint256",
						"label": "mapping(uint256 => address)",
						"numberOfBytes": "32",
						"value": "t_address"
					},
					"t_mapping(t_uint256,t_struct(Book)148_storage)": {
						"encoding": "mapping",
						"key": "t_uint256",
						"label": "mapping(uint256 => struct Library.Book)",
						"numberOfBytes": "32",
						"value": "t_struct(Book)148_storage"
					},
					"t_string_memory_ptr": {
						"encoding": "bytes",
						"label": "string",
						"numberOfBytes": "32"
					},
					"t_string_storage": {
						"encoding": "bytes",
						"label": "string",
						"numberOfBytes": "32"
					},
					"t_struct(Book)148_storage": {
						"encoding": "inplace",
						"label": "struct Library.Book",
						"members": [
							{
								"astId": 141,
								"contract": "contracts/Library.sol:Library",
								"label": "name",
								"offset": 0,
								"slot": "0",
								"type": "t_string_storage"
							},
							{
								"astId": 143,
								"contract": "contracts/Library.sol:Library",
								"label": "copies",
								"offset": 0,
								"slot": "1",
								"type": "t_uint256"
							},
							{
								"astId": 147,
								"contract": "contracts/Library.sol:Library",
								"label": "ownersHistory",
								"offset": 0,
								"slot": "2",
								"type": "t_mapping(t_uint256,t_address)"
							}
						],
						"numberOfBytes": "96"
					},
					"t_uint256": {
						"encoding": "inplace",
						"label": "uint256",
						"numberOfBytes": "32"
					}
				}
			},
			"userdoc": {
				"kind": "user",
				"methods": {},
				"version": 1
			}
		}
	}
}