{
	"contracts/Library.sol": {
		"Library": {
			"abi": [
				{
					"anonymous": false,
					"inputs": [
						{
							"indexed": true,
							"internalType": "address",
							"name": "previousOwner",
							"type": "address"
						},
						{
							"indexed": true,
							"internalType": "address",
							"name": "newOwner",
							"type": "address"
						}
					],
					"name": "OwnershipTransferred",
					"type": "event"
				},
				{
					"inputs": [
						{
							"internalType": "uint256",
							"name": "",
							"type": "uint256"
						}
					],
					"name": "BookLedger",
					"outputs": [
						{
							"internalType": "string",
							"name": "name",
							"type": "string"
						},
						{
							"internalType": "uint256",
							"name": "copies",
							"type": "uint256"
						},
						{
							"internalType": "uint256",
							"name": "ownerCount",
							"type": "uint256"
						}
					],
					"stateMutability": "view",
					"type": "function"
				},
				{
					"inputs": [
						{
							"internalType": "string",
							"name": "_name",
							"type": "string"
						},
						{
							"internalType": "uint256",
							"name": "_copies",
							"type": "uint256"
						}
					],
					"name": "addBook",
					"outputs": [],
					"stateMutability": "nonpayable",
					"type": "function"
				},
				{
					"inputs": [
						{
							"internalType": "uint256",
							"name": "_bookId",
							"type": "uint256"
						},
						{
							"internalType": "uint256",
							"name": "_copies",
							"type": "uint256"
						}
					],
					"name": "addBookCopies",
					"outputs": [],
					"stateMutability": "nonpayable",
					"type": "function"
				},
				{
					"inputs": [],
					"name": "bookCount",
					"outputs": [
						{
							"internalType": "uint256",
							"name": "",
							"type": "uint256"
						}
					],
					"stateMutability": "view",
					"type": "function"
				},
				{
					"inputs": [
						{
							"internalType": "uint256",
							"name": "_id",
							"type": "uint256"
						}
					],
					"name": "borrowBook",
					"outputs": [],
					"stateMutability": "nonpayable",
					"type": "function"
				},
				{
					"inputs": [],
					"name": "owner",
					"outputs": [
						{
							"internalType": "address",
							"name": "",
							"type": "address"
						}
					],
					"stateMutability": "view",
					"type": "function"
				},
				{
					"inputs": [],
					"name": "renounceOwnership",
					"outputs": [],
					"stateMutability": "nonpayable",
					"type": "function"
				},
				{
					"inputs": [
						{
							"internalType": "address",
							"name": "newOwner",
							"type": "address"
						}
					],
					"name": "transferOwnership",
					"outputs": [],
					"stateMutability": "nonpayable",
					"type": "function"
				}
			],
			"devdoc": {
				"kind": "dev",
				"methods": {
					"owner()": {
						"details": "Returns the address of the current owner."
					},
					"renounceOwnership()": {
						"details": "Leaves the contract without owner. It will not be possible to call `onlyOwner` functions anymore. Can only be called by the current owner. NOTE: Renouncing ownership will leave the contract without an owner, thereby removing any functionality that is only available to the owner."
					},
					"transferOwnership(address)": {
						"details": "Transfers ownership of the contract to a new account (`newOwner`). Can only be called by the current owner."
					}
				},
				"version": 1
			},
			"evm": {
				"assembly": "    /* \"contracts/Library.sol\":84:1781  contract Library is Ownable{\r... */\n  mstore(0x40, 0x80)\n  callvalue\n  dup1\n  iszero\n  tag_1\n  jumpi\n  0x00\n  dup1\n  revert\ntag_1:\n  pop\n    /* \"@openzeppelin/contracts/access/Ownable.sol\":936:968  _transferOwnership(_msgSender()) */\n  tag_4\n    /* \"@openzeppelin/contracts/access/Ownable.sol\":955:967  _msgSender() */\n  tag_5\n    /* \"@openzeppelin/contracts/access/Ownable.sol\":955:965  _msgSender */\n  shl(0x20, tag_6)\n    /* \"@openzeppelin/contracts/access/Ownable.sol\":955:967  _msgSender() */\n  0x20\n  shr\n  jump\t// in\ntag_5:\n    /* \"@openzeppelin/contracts/access/Ownable.sol\":936:954  _transferOwnership */\n  shl(0x20, tag_7)\n    /* \"@openzeppelin/contracts/access/Ownable.sol\":936:968  _transferOwnership(_msgSender()) */\n  0x20\n  shr\n  jump\t// in\ntag_4:\n    /* \"contracts/Library.sol\":84:1781  contract Library is Ownable{\r... */\n  jump(tag_8)\n    /* \"@openzeppelin/contracts/utils/Context.sol\":640:736  function _msgSender() internal view virtual returns (address) {... */\ntag_6:\n    /* \"@openzeppelin/contracts/utils/Context.sol\":693:700  address */\n  0x00\n    /* \"@openzeppelin/contracts/utils/Context.sol\":719:729  msg.sender */\n  caller\n    /* \"@openzeppelin/contracts/utils/Context.sol\":712:729  return msg.sender */\n  swap1\n  pop\n    /* \"@openzeppelin/contracts/utils/Context.sol\":640:736  function _msgSender() internal view virtual returns (address) {... */\n  swap1\n  jump\t// out\n    /* \"@openzeppelin/contracts/access/Ownable.sol\":2433:2620  function _transferOwnership(address newOwner) internal virtual {... */\ntag_7:\n    /* \"@openzeppelin/contracts/access/Ownable.sol\":2506:2522  address oldOwner */\n  0x00\n    /* \"@openzeppelin/contracts/access/Ownable.sol\":2525:2531  _owner */\n  dup1\n  0x00\n  swap1\n  sload\n  swap1\n  0x0100\n  exp\n  swap1\n  div\n  0xffffffffffffffffffffffffffffffffffffffff\n  and\n    /* \"@openzeppelin/contracts/access/Ownable.sol\":2506:2531  address oldOwner = _owner */\n  swap1\n  pop\n    /* \"@openzeppelin/contracts/access/Ownable.sol\":2550:2558  newOwner */\n  dup2\n    /* \"@openzeppelin/contracts/access/Ownable.sol\":2541:2547  _owner */\n  0x00\n  dup1\n    /* \"@openzeppelin/contracts/access/Ownable.sol\":2541:2558  _owner = newOwner */\n  0x0100\n  exp\n  dup2\n  sload\n  dup2\n  0xffffffffffffffffffffffffffffffffffffffff\n  mul\n  not\n  and\n  swap1\n  dup4\n  0xffffffffffffffffffffffffffffffffffffffff\n  and\n  mul\n  or\n  swap1\n  sstore\n  pop\n    /* \"@openzeppelin/contracts/access/Ownable.sol\":2604:2612  newOwner */\n  dup2\n    /* \"@openzeppelin/contracts/access/Ownable.sol\":2573:2613  OwnershipTransferred(oldOwner, newOwner) */\n  0xffffffffffffffffffffffffffffffffffffffff\n  and\n    /* \"@openzeppelin/contracts/access/Ownable.sol\":2594:2602  oldOwner */\n  dup2\n    /* \"@openzeppelin/contracts/access/Ownable.sol\":2573:2613  OwnershipTransferred(oldOwner, newOwner) */\n  0xffffffffffffffffffffffffffffffffffffffff\n  and\n  0x8be0079c531659141344cd1fd0a4f28419497f9722a3daafe3b4186f6b6457e0\n  mload(0x40)\n  mload(0x40)\n  dup1\n  swap2\n  sub\n  swap1\n  log3\n    /* \"@openzeppelin/contracts/access/Ownable.sol\":2496:2620  {... */\n  pop\n    /* \"@openzeppelin/contracts/access/Ownable.sol\":2433:2620  function _transferOwnership(address newOwner) internal virtual {... */\n  pop\n  jump\t// out\n    /* \"contracts/Library.sol\":84:1781  contract Library is Ownable{\r... */\ntag_8:\n  dataSize(sub_0)\n  dup1\n  dataOffset(sub_0)\n  0x00\n  codecopy\n  0x00\n  return\nstop\n\nsub_0: assembly {\n        /* \"contracts/Library.sol\":84:1781  contract Library is Ownable{\r... */\n      mstore(0x40, 0x80)\n      callvalue\n      dup1\n      iszero\n      tag_1\n      jumpi\n      0x00\n      dup1\n      revert\n    tag_1:\n      pop\n      jumpi(tag_2, lt(calldatasize, 0x04))\n      shr(0xe0, calldataload(0x00))\n      dup1\n      0x7e490a9e\n      gt\n      tag_11\n      jumpi\n      dup1\n      0x7e490a9e\n      eq\n      tag_7\n      jumpi\n      dup1\n      0x8da5cb5b\n      eq\n      tag_8\n      jumpi\n      dup1\n      0xb905ad78\n      eq\n      tag_9\n      jumpi\n      dup1\n      0xf2fde38b\n      eq\n      tag_10\n      jumpi\n      jump(tag_2)\n    tag_11:\n      dup1\n      0x60f9eefc\n      eq\n      tag_3\n      jumpi\n      dup1\n      0x637a3872\n      eq\n      tag_4\n      jumpi\n      dup1\n      0x715018a6\n      eq\n      tag_5\n      jumpi\n      dup1\n      0x7975c6b4\n      eq\n      tag_6\n      jumpi\n    tag_2:\n      0x00\n      dup1\n      revert\n        /* \"contracts/Library.sol\":1050:1357  function addBookCopies(uint256 _bookId, uint256 _copies)\r... */\n    tag_3:\n      tag_12\n      0x04\n      dup1\n      calldatasize\n      sub\n      dup2\n      add\n      swap1\n      tag_13\n      swap2\n      swap1\n      tag_14\n      jump\t// in\n    tag_13:\n      tag_15\n      jump\t// in\n    tag_12:\n      stop\n        /* \"contracts/Library.sol\":642:1040  function addBook(string memory _name, uint256 _copies)\r... */\n    tag_4:\n      tag_16\n      0x04\n      dup1\n      calldatasize\n      sub\n      dup2\n      add\n      swap1\n      tag_17\n      swap2\n      swap1\n      tag_18\n      jump\t// in\n    tag_17:\n      tag_19\n      jump\t// in\n    tag_16:\n      stop\n        /* \"@openzeppelin/contracts/access/Ownable.sol\":1831:1932  function renounceOwnership() public virtual onlyOwner {... */\n    tag_5:\n      tag_20\n      tag_21\n      jump\t// in\n    tag_20:\n      stop\n        /* \"contracts/Library.sol\":377:419  mapping(uint256 => Book) public BookLedger */\n    tag_6:\n      tag_22\n      0x04\n      dup1\n      calldatasize\n      sub\n      dup2\n      add\n      swap1\n      tag_23\n      swap2\n      swap1\n      tag_24\n      jump\t// in\n    tag_23:\n      tag_25\n      jump\t// in\n    tag_22:\n      mload(0x40)\n      tag_26\n      swap4\n      swap3\n      swap2\n      swap1\n      tag_27\n      jump\t// in\n    tag_26:\n      mload(0x40)\n      dup1\n      swap2\n      sub\n      swap1\n      return\n        /* \"contracts/Library.sol\":1367:1778  function borrowBook(uint256 _id) external {\r... */\n    tag_7:\n      tag_28\n      0x04\n      dup1\n      calldatasize\n      sub\n      dup2\n      add\n      swap1\n      tag_29\n      swap2\n      swap1\n      tag_24\n      jump\t// in\n    tag_29:\n      tag_30\n      jump\t// in\n    tag_28:\n      stop\n        /* \"@openzeppelin/contracts/access/Ownable.sol\":1201:1286  function owner() public view virtual returns (address) {... */\n    tag_8:\n      tag_31\n      tag_32\n      jump\t// in\n    tag_31:\n      mload(0x40)\n      tag_33\n      swap2\n      swap1\n      tag_34\n      jump\t// in\n    tag_33:\n      mload(0x40)\n      dup1\n      swap2\n      sub\n      swap1\n      return\n        /* \"contracts/Library.sol\":294:318  uint256 public bookCount */\n    tag_9:\n      tag_35\n      tag_36\n      jump\t// in\n    tag_35:\n      mload(0x40)\n      tag_37\n      swap2\n      swap1\n      tag_38\n      jump\t// in\n    tag_37:\n      mload(0x40)\n      dup1\n      swap2\n      sub\n      swap1\n      return\n        /* \"@openzeppelin/contracts/access/Ownable.sol\":2081:2279  function transferOwnership(address newOwner) public virtual onlyOwner {... */\n    tag_10:\n      tag_39\n      0x04\n      dup1\n      calldatasize\n      sub\n      dup2\n      add\n      swap1\n      tag_40\n      swap2\n      swap1\n      tag_41\n      jump\t// in\n    tag_40:\n      tag_42\n      jump\t// in\n    tag_39:\n      stop\n        /* \"contracts/Library.sol\":1050:1357  function addBookCopies(uint256 _bookId, uint256 _copies)\r... */\n    tag_15:\n        /* \"@openzeppelin/contracts/access/Ownable.sol\":1094:1107  _checkOwner() */\n      tag_44\n        /* \"@openzeppelin/contracts/access/Ownable.sol\":1094:1105  _checkOwner */\n      tag_45\n        /* \"@openzeppelin/contracts/access/Ownable.sol\":1094:1107  _checkOwner() */\n      jump\t// in\n    tag_44:\n        /* \"contracts/Library.sol\":1178:1179  0 */\n      0x00\n        /* \"contracts/Library.sol\":1168:1175  _copies */\n      dup2\n        /* \"contracts/Library.sol\":1168:1179  _copies > 0 */\n      gt\n        /* \"contracts/Library.sol\":1160:1189  require(_copies > 0, \"!zero\") */\n      tag_47\n      jumpi\n      mload(0x40)\n      0x08c379a000000000000000000000000000000000000000000000000000000000\n      dup2\n      mstore\n      0x04\n      add\n      tag_48\n      swap1\n      tag_49\n      jump\t// in\n    tag_48:\n      mload(0x40)\n      dup1\n      swap2\n      sub\n      swap1\n      revert\n    tag_47:\n        /* \"contracts/Library.sol\":1200:1217  Book storage book */\n      0x00\n        /* \"contracts/Library.sol\":1220:1230  BookLedger */\n      0x07\n        /* \"contracts/Library.sol\":1220:1239  BookLedger[_bookId] */\n      0x00\n        /* \"contracts/Library.sol\":1231:1238  _bookId */\n      dup5\n        /* \"contracts/Library.sol\":1220:1239  BookLedger[_bookId] */\n      dup2\n      mstore\n      0x20\n      add\n      swap1\n      dup2\n      mstore\n      0x20\n      add\n      0x00\n      keccak256\n        /* \"contracts/Library.sol\":1200:1239  Book storage book = BookLedger[_bookId] */\n      swap1\n      pop\n        /* \"contracts/Library.sol\":1285:1286  0 */\n      0x00\n        /* \"contracts/Library.sol\":1264:1268  book */\n      dup2\n        /* \"contracts/Library.sol\":1264:1273  book.name */\n      0x00\n      add\n        /* \"contracts/Library.sol\":1258:1281  bytes(book.name).length */\n      dup1\n      sload\n      tag_50\n      swap1\n      tag_51\n      jump\t// in\n    tag_50:\n      swap1\n      pop\n        /* \"contracts/Library.sol\":1258:1286  bytes(book.name).length != 0 */\n      eq\n      iszero\n        /* \"contracts/Library.sol\":1250:1310  require(bytes(book.name).length != 0, \"Book does not exist\") */\n      tag_52\n      jumpi\n      mload(0x40)\n      0x08c379a000000000000000000000000000000000000000000000000000000000\n      dup2\n      mstore\n      0x04\n      add\n      tag_53\n      swap1\n      tag_54\n      jump\t// in\n    tag_53:\n      mload(0x40)\n      dup1\n      swap2\n      sub\n      swap1\n      revert\n    tag_52:\n        /* \"contracts/Library.sol\":1348:1349  1 */\n      0x01\n        /* \"contracts/Library.sol\":1335:1339  book */\n      dup2\n        /* \"contracts/Library.sol\":1335:1346  book.copies */\n      0x01\n      add\n      0x00\n        /* \"contracts/Library.sol\":1335:1349  book.copies+=1 */\n      dup3\n      dup3\n      sload\n      tag_55\n      swap2\n      swap1\n      tag_56\n      jump\t// in\n    tag_55:\n      swap3\n      pop\n      pop\n      dup2\n      swap1\n      sstore\n        /* \"contracts/Library.sol\":1321:1325  book */\n      dup2\n        /* \"contracts/Library.sol\":1321:1332  book.copies */\n      0x01\n      add\n        /* \"contracts/Library.sol\":1321:1349  book.copies = book.copies+=1 */\n      dup2\n      swap1\n      sstore\n      pop\n        /* \"contracts/Library.sol\":1149:1357  {\r... */\n      pop\n        /* \"contracts/Library.sol\":1050:1357  function addBookCopies(uint256 _bookId, uint256 _copies)\r... */\n      pop\n      pop\n      jump\t// out\n        /* \"contracts/Library.sol\":642:1040  function addBook(string memory _name, uint256 _copies)\r... */\n    tag_19:\n        /* \"@openzeppelin/contracts/access/Ownable.sol\":1094:1107  _checkOwner() */\n      tag_58\n        /* \"@openzeppelin/contracts/access/Ownable.sol\":1094:1105  _checkOwner */\n      tag_45\n        /* \"@openzeppelin/contracts/access/Ownable.sol\":1094:1107  _checkOwner() */\n      jump\t// in\n    tag_58:\n        /* \"contracts/Library.sol\":760:765  _name */\n      dup2\n        /* \"contracts/Library.sol\":570:581  isAvailable */\n      0x06\n        /* \"contracts/Library.sol\":582:587  _name */\n      dup2\n        /* \"contracts/Library.sol\":570:588  isAvailable[_name] */\n      mload(0x40)\n      tag_60\n      swap2\n      swap1\n      tag_61\n      jump\t// in\n    tag_60:\n      swap1\n      dup2\n      mstore\n      0x20\n      add\n      mload(0x40)\n      dup1\n      swap2\n      sub\n      swap1\n      keccak256\n      0x00\n      swap1\n      sload\n      swap1\n      0x0100\n      exp\n      swap1\n      div\n      0xff\n      and\n        /* \"contracts/Library.sol\":569:588  !isAvailable[_name] */\n      iszero\n        /* \"contracts/Library.sol\":561:610  require(!isAvailable[_name], \"Book is available\") */\n      tag_62\n      jumpi\n      mload(0x40)\n      0x08c379a000000000000000000000000000000000000000000000000000000000\n      dup2\n      mstore\n      0x04\n      add\n      tag_63\n      swap1\n      tag_64\n      jump\t// in\n    tag_63:\n      mload(0x40)\n      dup1\n      swap2\n      sub\n      swap1\n      revert\n    tag_62:\n        /* \"contracts/Library.sol\":814:815  0 */\n      0x00\n        /* \"contracts/Library.sol\":797:802  _name */\n      dup4\n        /* \"contracts/Library.sol\":791:810  bytes(_name).length */\n      mload\n        /* \"contracts/Library.sol\":791:815  bytes(_name).length != 0 */\n      eq\n      iszero\n        /* \"contracts/Library.sol\":783:840  require(bytes(_name).length != 0, \"Name cannot be empty\") */\n      tag_66\n      jumpi\n      mload(0x40)\n      0x08c379a000000000000000000000000000000000000000000000000000000000\n      dup2\n      mstore\n      0x04\n      add\n      tag_67\n      swap1\n      tag_68\n      jump\t// in\n    tag_67:\n      mload(0x40)\n      dup1\n      swap2\n      sub\n      swap1\n      revert\n    tag_66:\n        /* \"contracts/Library.sol\":872:876  true */\n      0x01\n        /* \"contracts/Library.sol\":851:862  isAvailable */\n      0x06\n        /* \"contracts/Library.sol\":863:868  _name */\n      dup5\n        /* \"contracts/Library.sol\":851:869  isAvailable[_name] */\n      mload(0x40)\n      tag_69\n      swap2\n      swap1\n      tag_61\n      jump\t// in\n    tag_69:\n      swap1\n      dup2\n      mstore\n      0x20\n      add\n      mload(0x40)\n      dup1\n      swap2\n      sub\n      swap1\n      keccak256\n      0x00\n        /* \"contracts/Library.sol\":851:876  isAvailable[_name] = true */\n      0x0100\n      exp\n      dup2\n      sload\n      dup2\n      0xff\n      mul\n      not\n      and\n      swap1\n      dup4\n      iszero\n      iszero\n      mul\n      or\n      swap1\n      sstore\n      pop\n        /* \"contracts/Library.sol\":887:902  uint256 _bookId */\n      0x00\n        /* \"contracts/Library.sol\":914:915  1 */\n      0x01\n        /* \"contracts/Library.sol\":905:915  _copies+=1 */\n      dup4\n      tag_70\n      swap2\n      swap1\n      tag_56\n      jump\t// in\n    tag_70:\n      swap3\n      pop\n      dup3\n        /* \"contracts/Library.sol\":887:915  uint256 _bookId = _copies+=1 */\n      swap1\n      pop\n        /* \"contracts/Library.sol\":926:943  Book storage book */\n      0x00\n        /* \"contracts/Library.sol\":946:956  BookLedger */\n      0x07\n        /* \"contracts/Library.sol\":946:965  BookLedger[_bookId] */\n      0x00\n        /* \"contracts/Library.sol\":957:964  _bookId */\n      dup4\n        /* \"contracts/Library.sol\":946:965  BookLedger[_bookId] */\n      dup2\n      mstore\n      0x20\n      add\n      swap1\n      dup2\n      mstore\n      0x20\n      add\n      0x00\n      keccak256\n        /* \"contracts/Library.sol\":926:965  Book storage book = BookLedger[_bookId] */\n      swap1\n      pop\n        /* \"contracts/Library.sol\":988:993  _name */\n      dup5\n        /* \"contracts/Library.sol\":976:980  book */\n      dup2\n        /* \"contracts/Library.sol\":976:985  book.name */\n      0x00\n      add\n        /* \"contracts/Library.sol\":976:993  book.name = _name */\n      swap1\n      dup1\n      mload\n      swap1\n      0x20\n      add\n      swap1\n      tag_71\n      swap3\n      swap2\n      swap1\n      tag_72\n      jump\t// in\n    tag_71:\n      pop\n        /* \"contracts/Library.sol\":1018:1025  _copies */\n      dup4\n        /* \"contracts/Library.sol\":1004:1008  book */\n      dup2\n        /* \"contracts/Library.sol\":1004:1015  book.copies */\n      0x01\n      add\n        /* \"contracts/Library.sol\":1004:1025  book.copies = _copies */\n      dup2\n      swap1\n      sstore\n      pop\n        /* \"contracts/Library.sol\":772:1040  {\r... */\n      pop\n      pop\n        /* \"@openzeppelin/contracts/access/Ownable.sol\":1117:1118  _ */\n      pop\n        /* \"contracts/Library.sol\":642:1040  function addBook(string memory _name, uint256 _copies)\r... */\n      pop\n      pop\n      jump\t// out\n        /* \"@openzeppelin/contracts/access/Ownable.sol\":1831:1932  function renounceOwnership() public virtual onlyOwner {... */\n    tag_21:\n        /* \"@openzeppelin/contracts/access/Ownable.sol\":1094:1107  _checkOwner() */\n      tag_74\n        /* \"@openzeppelin/contracts/access/Ownable.sol\":1094:1105  _checkOwner */\n      tag_45\n        /* \"@openzeppelin/contracts/access/Ownable.sol\":1094:1107  _checkOwner() */\n      jump\t// in\n    tag_74:\n        /* \"@openzeppelin/contracts/access/Ownable.sol\":1895:1925  _transferOwnership(address(0)) */\n      tag_76\n        /* \"@openzeppelin/contracts/access/Ownable.sol\":1922:1923  0 */\n      0x00\n        /* \"@openzeppelin/contracts/access/Ownable.sol\":1895:1913  _transferOwnership */\n      tag_77\n        /* \"@openzeppelin/contracts/access/Ownable.sol\":1895:1925  _transferOwnership(address(0)) */\n      jump\t// in\n    tag_76:\n        /* \"@openzeppelin/contracts/access/Ownable.sol\":1831:1932  function renounceOwnership() public virtual onlyOwner {... */\n      jump\t// out\n        /* \"contracts/Library.sol\":377:419  mapping(uint256 => Book) public BookLedger */\n    tag_25:\n      mstore(0x20, 0x07)\n      dup1\n      0x00\n      mstore\n      keccak256(0x00, 0x40)\n      0x00\n      swap2\n      pop\n      swap1\n      pop\n      dup1\n      0x00\n      add\n      dup1\n      sload\n      tag_78\n      swap1\n      tag_51\n      jump\t// in\n    tag_78:\n      dup1\n      0x1f\n      add\n      0x20\n      dup1\n      swap2\n      div\n      mul\n      0x20\n      add\n      mload(0x40)\n      swap1\n      dup2\n      add\n      0x40\n      mstore\n      dup1\n      swap3\n      swap2\n      swap1\n      dup2\n      dup2\n      mstore\n      0x20\n      add\n      dup3\n      dup1\n      sload\n      tag_79\n      swap1\n      tag_51\n      jump\t// in\n    tag_79:\n      dup1\n      iszero\n      tag_80\n      jumpi\n      dup1\n      0x1f\n      lt\n      tag_81\n      jumpi\n      0x0100\n      dup1\n      dup4\n      sload\n      div\n      mul\n      dup4\n      mstore\n      swap2\n      0x20\n      add\n      swap2\n      jump(tag_80)\n    tag_81:\n      dup3\n      add\n      swap2\n      swap1\n      0x00\n      mstore\n      keccak256(0x00, 0x20)\n      swap1\n    tag_82:\n      dup2\n      sload\n      dup2\n      mstore\n      swap1\n      0x01\n      add\n      swap1\n      0x20\n      add\n      dup1\n      dup4\n      gt\n      tag_82\n      jumpi\n      dup3\n      swap1\n      sub\n      0x1f\n      and\n      dup3\n      add\n      swap2\n    tag_80:\n      pop\n      pop\n      pop\n      pop\n      pop\n      swap1\n      dup1\n      0x01\n      add\n      sload\n      swap1\n      dup1\n      0x02\n      add\n      sload\n      swap1\n      pop\n      dup4\n      jump\t// out\n        /* \"contracts/Library.sol\":1367:1778  function borrowBook(uint256 _id) external {\r... */\n    tag_30:\n        /* \"contracts/Library.sol\":1429:1444  isAlreadyIssued */\n      0x08\n        /* \"contracts/Library.sol\":1429:1456  isAlreadyIssued[msg.sender] */\n      0x00\n        /* \"contracts/Library.sol\":1445:1455  msg.sender */\n      caller\n        /* \"contracts/Library.sol\":1429:1456  isAlreadyIssued[msg.sender] */\n      0xffffffffffffffffffffffffffffffffffffffff\n      and\n      0xffffffffffffffffffffffffffffffffffffffff\n      and\n      dup2\n      mstore\n      0x20\n      add\n      swap1\n      dup2\n      mstore\n      0x20\n      add\n      0x00\n      keccak256\n        /* \"contracts/Library.sol\":1429:1461  isAlreadyIssued[msg.sender][_id] */\n      0x00\n        /* \"contracts/Library.sol\":1457:1460  _id */\n      dup3\n        /* \"contracts/Library.sol\":1429:1461  isAlreadyIssued[msg.sender][_id] */\n      dup2\n      mstore\n      0x20\n      add\n      swap1\n      dup2\n      mstore\n      0x20\n      add\n      0x00\n      keccak256\n      0x00\n      swap1\n      sload\n      swap1\n      0x0100\n      exp\n      swap1\n      div\n      0xff\n      and\n        /* \"contracts/Library.sol\":1428:1461  !isAlreadyIssued[msg.sender][_id] */\n      iszero\n        /* \"contracts/Library.sol\":1420:1488  require(!isAlreadyIssued[msg.sender][_id], \"Book is already issued\") */\n      tag_84\n      jumpi\n      mload(0x40)\n      0x08c379a000000000000000000000000000000000000000000000000000000000\n      dup2\n      mstore\n      0x04\n      add\n      tag_85\n      swap1\n      tag_86\n      jump\t// in\n    tag_85:\n      mload(0x40)\n      dup1\n      swap2\n      sub\n      swap1\n      revert\n    tag_84:\n        /* \"contracts/Library.sol\":1534:1538  true */\n      0x01\n        /* \"contracts/Library.sol\":1499:1514  isAlreadyIssued */\n      0x08\n        /* \"contracts/Library.sol\":1499:1526  isAlreadyIssued[msg.sender] */\n      0x00\n        /* \"contracts/Library.sol\":1515:1525  msg.sender */\n      caller\n        /* \"contracts/Library.sol\":1499:1526  isAlreadyIssued[msg.sender] */\n      0xffffffffffffffffffffffffffffffffffffffff\n      and\n      0xffffffffffffffffffffffffffffffffffffffff\n      and\n      dup2\n      mstore\n      0x20\n      add\n      swap1\n      dup2\n      mstore\n      0x20\n      add\n      0x00\n      keccak256\n        /* \"contracts/Library.sol\":1499:1531  isAlreadyIssued[msg.sender][_id] */\n      0x00\n        /* \"contracts/Library.sol\":1527:1530  _id */\n      dup4\n        /* \"contracts/Library.sol\":1499:1531  isAlreadyIssued[msg.sender][_id] */\n      dup2\n      mstore\n      0x20\n      add\n      swap1\n      dup2\n      mstore\n      0x20\n      add\n      0x00\n      keccak256\n      0x00\n        /* \"contracts/Library.sol\":1499:1538  isAlreadyIssued[msg.sender][_id] = true */\n      0x0100\n      exp\n      dup2\n      sload\n      dup2\n      0xff\n      mul\n      not\n      and\n      swap1\n      dup4\n      iszero\n      iszero\n      mul\n      or\n      swap1\n      sstore\n      pop\n        /* \"contracts/Library.sol\":1549:1566  Book storage book */\n      0x00\n        /* \"contracts/Library.sol\":1569:1579  BookLedger */\n      0x07\n        /* \"contracts/Library.sol\":1569:1584  BookLedger[_id] */\n      0x00\n        /* \"contracts/Library.sol\":1580:1583  _id */\n      dup4\n        /* \"contracts/Library.sol\":1569:1584  BookLedger[_id] */\n      dup2\n      mstore\n      0x20\n      add\n      swap1\n      dup2\n      mstore\n      0x20\n      add\n      0x00\n      keccak256\n        /* \"contracts/Library.sol\":1549:1584  Book storage book = BookLedger[_id] */\n      swap1\n      pop\n        /* \"contracts/Library.sol\":1618:1619  1 */\n      0x01\n        /* \"contracts/Library.sol\":1603:1607  book */\n      dup2\n        /* \"contracts/Library.sol\":1603:1614  book.copies */\n      0x01\n      add\n      sload\n        /* \"contracts/Library.sol\":1603:1619  book.copies >= 1 */\n      lt\n      iszero\n        /* \"contracts/Library.sol\":1595:1620  require(book.copies >= 1) */\n      tag_87\n      jumpi\n      0x00\n      dup1\n      revert\n    tag_87:\n        /* \"contracts/Library.sol\":1658:1659  1 */\n      0x01\n        /* \"contracts/Library.sol\":1645:1649  book */\n      dup2\n        /* \"contracts/Library.sol\":1645:1656  book.copies */\n      0x01\n      add\n      sload\n        /* \"contracts/Library.sol\":1645:1659  book.copies -1 */\n      tag_88\n      swap2\n      swap1\n      tag_89\n      jump\t// in\n    tag_88:\n        /* \"contracts/Library.sol\":1631:1635  book */\n      dup2\n        /* \"contracts/Library.sol\":1631:1642  book.copies */\n      0x01\n      add\n        /* \"contracts/Library.sol\":1631:1659  book.copies = book.copies -1 */\n      dup2\n      swap1\n      sstore\n      pop\n        /* \"contracts/Library.sol\":1708:1718  msg.sender */\n      caller\n        /* \"contracts/Library.sol\":1670:1674  book */\n      dup2\n        /* \"contracts/Library.sol\":1670:1688  book.ownersHistory */\n      0x03\n      add\n        /* \"contracts/Library.sol\":1670:1705  book.ownersHistory[book.ownerCount] */\n      0x00\n        /* \"contracts/Library.sol\":1689:1693  book */\n      dup4\n        /* \"contracts/Library.sol\":1689:1704  book.ownerCount */\n      0x02\n      add\n      sload\n        /* \"contracts/Library.sol\":1670:1705  book.ownersHistory[book.ownerCount] */\n      dup2\n      mstore\n      0x20\n      add\n      swap1\n      dup2\n      mstore\n      0x20\n      add\n      0x00\n      keccak256\n      0x00\n        /* \"contracts/Library.sol\":1670:1718  book.ownersHistory[book.ownerCount] = msg.sender */\n      0x0100\n      exp\n      dup2\n      sload\n      dup2\n      0xffffffffffffffffffffffffffffffffffffffff\n      mul\n      not\n      and\n      swap1\n      dup4\n      0xffffffffffffffffffffffffffffffffffffffff\n      and\n      mul\n      or\n      swap1\n      sstore\n      pop\n        /* \"contracts/Library.sol\":1765:1766  1 */\n      0x01\n        /* \"contracts/Library.sol\":1749:1753  book */\n      dup2\n        /* \"contracts/Library.sol\":1749:1764  book.ownerCount */\n      0x02\n      add\n      sload\n        /* \"contracts/Library.sol\":1749:1766  book.ownerCount+1 */\n      tag_90\n      swap2\n      swap1\n      tag_56\n      jump\t// in\n    tag_90:\n        /* \"contracts/Library.sol\":1731:1735  book */\n      dup2\n        /* \"contracts/Library.sol\":1731:1746  book.ownerCount */\n      0x02\n      add\n        /* \"contracts/Library.sol\":1731:1766  book.ownerCount = book.ownerCount+1 */\n      dup2\n      swap1\n      sstore\n      pop\n        /* \"contracts/Library.sol\":1409:1778  {\r... */\n      pop\n        /* \"contracts/Library.sol\":1367:1778  function borrowBook(uint256 _id) external {\r... */\n      pop\n      jump\t// out\n        /* \"@openzeppelin/contracts/access/Ownable.sol\":1201:1286  function owner() public view virtual returns (address) {... */\n    tag_32:\n        /* \"@openzeppelin/contracts/access/Ownable.sol\":1247:1254  address */\n      0x00\n        /* \"@openzeppelin/contracts/access/Ownable.sol\":1273:1279  _owner */\n      dup1\n      0x00\n      swap1\n      sload\n      swap1\n      0x0100\n      exp\n      swap1\n      div\n      0xffffffffffffffffffffffffffffffffffffffff\n      and\n        /* \"@openzeppelin/contracts/access/Ownable.sol\":1266:1279  return _owner */\n      swap1\n      pop\n        /* \"@openzeppelin/contracts/access/Ownable.sol\":1201:1286  function owner() public view virtual returns (address) {... */\n      swap1\n      jump\t// out\n        /* \"contracts/Library.sol\":294:318  uint256 public bookCount */\n    tag_36:\n      sload(0x05)\n      dup2\n      jump\t// out\n        /* \"@openzeppelin/contracts/access/Ownable.sol\":2081:2279  function transferOwnership(address newOwner) public virtual onlyOwner {... */\n    tag_42:\n        /* \"@openzeppelin/contracts/access/Ownable.sol\":1094:1107  _checkOwner() */\n      tag_93\n        /* \"@openzeppelin/contracts/access/Ownable.sol\":1094:1105  _checkOwner */\n      tag_45\n        /* \"@openzeppelin/contracts/access/Ownable.sol\":1094:1107  _checkOwner() */\n      jump\t// in\n    tag_93:\n        /* \"@openzeppelin/contracts/access/Ownable.sol\":2189:2190  0 */\n      0x00\n        /* \"@openzeppelin/contracts/access/Ownable.sol\":2169:2191  newOwner != address(0) */\n      0xffffffffffffffffffffffffffffffffffffffff\n      and\n        /* \"@openzeppelin/contracts/access/Ownable.sol\":2169:2177  newOwner */\n      dup2\n        /* \"@openzeppelin/contracts/access/Ownable.sol\":2169:2191  newOwner != address(0) */\n      0xffffffffffffffffffffffffffffffffffffffff\n      and\n      eq\n      iszero\n        /* \"@openzeppelin/contracts/access/Ownable.sol\":2161:2234  require(newOwner != address(0), \"Ownable: new owner is the zero address\") */\n      tag_95\n      jumpi\n      mload(0x40)\n      0x08c379a000000000000000000000000000000000000000000000000000000000\n      dup2\n      mstore\n      0x04\n      add\n      tag_96\n      swap1\n      tag_97\n      jump\t// in\n    tag_96:\n      mload(0x40)\n      dup1\n      swap2\n      sub\n      swap1\n      revert\n    tag_95:\n        /* \"@openzeppelin/contracts/access/Ownable.sol\":2244:2272  _transferOwnership(newOwner) */\n      tag_98\n        /* \"@openzeppelin/contracts/access/Ownable.sol\":2263:2271  newOwner */\n      dup2\n        /* \"@openzeppelin/contracts/access/Ownable.sol\":2244:2262  _transferOwnership */\n      tag_77\n        /* \"@openzeppelin/contracts/access/Ownable.sol\":2244:2272  _transferOwnership(newOwner) */\n      jump\t// in\n    tag_98:\n        /* \"@openzeppelin/contracts/access/Ownable.sol\":2081:2279  function transferOwnership(address newOwner) public virtual onlyOwner {... */\n      pop\n      jump\t// out\n        /* \"@openzeppelin/contracts/access/Ownable.sol\":1359:1489  function _checkOwner() internal view virtual {... */\n    tag_45:\n        /* \"@openzeppelin/contracts/access/Ownable.sol\":1433:1445  _msgSender() */\n      tag_100\n        /* \"@openzeppelin/contracts/access/Ownable.sol\":1433:1443  _msgSender */\n      tag_101\n        /* \"@openzeppelin/contracts/access/Ownable.sol\":1433:1445  _msgSender() */\n      jump\t// in\n    tag_100:\n        /* \"@openzeppelin/contracts/access/Ownable.sol\":1422:1445  owner() == _msgSender() */\n      0xffffffffffffffffffffffffffffffffffffffff\n      and\n        /* \"@openzeppelin/contracts/access/Ownable.sol\":1422:1429  owner() */\n      tag_102\n        /* \"@openzeppelin/contracts/access/Ownable.sol\":1422:1427  owner */\n      tag_32\n        /* \"@openzeppelin/contracts/access/Ownable.sol\":1422:1429  owner() */\n      jump\t// in\n    tag_102:\n        /* \"@openzeppelin/contracts/access/Ownable.sol\":1422:1445  owner() == _msgSender() */\n      0xffffffffffffffffffffffffffffffffffffffff\n      and\n      eq\n        /* \"@openzeppelin/contracts/access/Ownable.sol\":1414:1482  require(owner() == _msgSender(), \"Ownable: caller is not the owner\") */\n      tag_103\n      jumpi\n      mload(0x40)\n      0x08c379a000000000000000000000000000000000000000000000000000000000\n      dup2\n      mstore\n      0x04\n      add\n      tag_104\n      swap1\n      tag_105\n      jump\t// in\n    tag_104:\n      mload(0x40)\n      dup1\n      swap2\n      sub\n      swap1\n      revert\n    tag_103:\n        /* \"@openzeppelin/contracts/access/Ownable.sol\":1359:1489  function _checkOwner() internal view virtual {... */\n      jump\t// out\n        /* \"@openzeppelin/contracts/access/Ownable.sol\":2433:2620  function _transferOwnership(address newOwner) internal virtual {... */\n    tag_77:\n        /* \"@openzeppelin/contracts/access/Ownable.sol\":2506:2522  address oldOwner */\n      0x00\n        /* \"@openzeppelin/contracts/access/Ownable.sol\":2525:2531  _owner */\n      dup1\n      0x00\n      swap1\n      sload\n      swap1\n      0x0100\n      exp\n      swap1\n      div\n      0xffffffffffffffffffffffffffffffffffffffff\n      and\n        /* \"@openzeppelin/contracts/access/Ownable.sol\":2506:2531  address oldOwner = _owner */\n      swap1\n      pop\n        /* \"@openzeppelin/contracts/access/Ownable.sol\":2550:2558  newOwner */\n      dup2\n        /* \"@openzeppelin/contracts/access/Ownable.sol\":2541:2547  _owner */\n      0x00\n      dup1\n        /* \"@openzeppelin/contracts/access/Ownable.sol\":2541:2558  _owner = newOwner */\n      0x0100\n      exp\n      dup2\n      sload\n      dup2\n      0xffffffffffffffffffffffffffffffffffffffff\n      mul\n      not\n      and\n      swap1\n      dup4\n      0xffffffffffffffffffffffffffffffffffffffff\n      and\n      mul\n      or\n      swap1\n      sstore\n      pop\n        /* \"@openzeppelin/contracts/access/Ownable.sol\":2604:2612  newOwner */\n      dup2\n        /* \"@openzeppelin/contracts/access/Ownable.sol\":2573:2613  OwnershipTransferred(oldOwner, newOwner) */\n      0xffffffffffffffffffffffffffffffffffffffff\n      and\n        /* \"@openzeppelin/contracts/access/Ownable.sol\":2594:2602  oldOwner */\n      dup2\n        /* \"@openzeppelin/contracts/access/Ownable.sol\":2573:2613  OwnershipTransferred(oldOwner, newOwner) */\n      0xffffffffffffffffffffffffffffffffffffffff\n      and\n      0x8be0079c531659141344cd1fd0a4f28419497f9722a3daafe3b4186f6b6457e0\n      mload(0x40)\n      mload(0x40)\n      dup1\n      swap2\n      sub\n      swap1\n      log3\n        /* \"@openzeppelin/contracts/access/Ownable.sol\":2496:2620  {... */\n      pop\n        /* \"@openzeppelin/contracts/access/Ownable.sol\":2433:2620  function _transferOwnership(address newOwner) internal virtual {... */\n      pop\n      jump\t// out\n        /* \"@openzeppelin/contracts/utils/Context.sol\":640:736  function _msgSender() internal view virtual returns (address) {... */\n    tag_101:\n        /* \"@openzeppelin/contracts/utils/Context.sol\":693:700  address */\n      0x00\n        /* \"@openzeppelin/contracts/utils/Context.sol\":719:729  msg.sender */\n      caller\n        /* \"@openzeppelin/contracts/utils/Context.sol\":712:729  return msg.sender */\n      swap1\n      pop\n        /* \"@openzeppelin/contracts/utils/Context.sol\":640:736  function _msgSender() internal view virtual returns (address) {... */\n      swap1\n      jump\t// out\n    tag_72:\n      dup3\n      dup1\n      sload\n      tag_108\n      swap1\n      tag_51\n      jump\t// in\n    tag_108:\n      swap1\n      0x00\n      mstore\n      keccak256(0x00, 0x20)\n      swap1\n      0x1f\n      add\n      0x20\n      swap1\n      div\n      dup2\n      add\n      swap3\n      dup3\n      tag_110\n      jumpi\n      0x00\n      dup6\n      sstore\n      jump(tag_109)\n    tag_110:\n      dup3\n      0x1f\n      lt\n      tag_111\n      jumpi\n      dup1\n      mload\n      not(0xff)\n      and\n      dup4\n      dup1\n      add\n      or\n      dup6\n      sstore\n      jump(tag_109)\n    tag_111:\n      dup3\n      dup1\n      add\n      0x01\n      add\n      dup6\n      sstore\n      dup3\n      iszero\n      tag_109\n      jumpi\n      swap2\n      dup3\n      add\n    tag_112:\n      dup3\n      dup2\n      gt\n      iszero\n      tag_113\n      jumpi\n      dup3\n      mload\n      dup3\n      sstore\n      swap2\n      0x20\n      add\n      swap2\n      swap1\n      0x01\n      add\n      swap1\n      jump(tag_112)\n    tag_113:\n    tag_109:\n      pop\n      swap1\n      pop\n      tag_114\n      swap2\n      swap1\n      tag_115\n      jump\t// in\n    tag_114:\n      pop\n      swap1\n      jump\t// out\n    tag_115:\n    tag_116:\n      dup1\n      dup3\n      gt\n      iszero\n      tag_117\n      jumpi\n      0x00\n      dup2\n      0x00\n      swap1\n      sstore\n      pop\n      0x01\n      add\n      jump(tag_116)\n    tag_117:\n      pop\n      swap1\n      jump\t// out\n        /* \"#utility.yul\":7:419   */\n    tag_119:\n        /* \"#utility.yul\":85:90   */\n      0x00\n        /* \"#utility.yul\":110:176   */\n      tag_121\n        /* \"#utility.yul\":126:175   */\n      tag_122\n        /* \"#utility.yul\":168:174   */\n      dup5\n        /* \"#utility.yul\":126:175   */\n      tag_123\n      jump\t// in\n    tag_122:\n        /* \"#utility.yul\":110:176   */\n      tag_124\n      jump\t// in\n    tag_121:\n        /* \"#utility.yul\":101:176   */\n      swap1\n      pop\n        /* \"#utility.yul\":199:205   */\n      dup3\n        /* \"#utility.yul\":192:197   */\n      dup2\n        /* \"#utility.yul\":185:206   */\n      mstore\n        /* \"#utility.yul\":237:241   */\n      0x20\n        /* \"#utility.yul\":230:235   */\n      dup2\n        /* \"#utility.yul\":226:242   */\n      add\n        /* \"#utility.yul\":275:278   */\n      dup5\n        /* \"#utility.yul\":266:272   */\n      dup5\n        /* \"#utility.yul\":261:264   */\n      dup5\n        /* \"#utility.yul\":257:273   */\n      add\n        /* \"#utility.yul\":254:279   */\n      gt\n        /* \"#utility.yul\":251:363   */\n      iszero\n      tag_125\n      jumpi\n        /* \"#utility.yul\":282:361   */\n      tag_126\n      tag_127\n      jump\t// in\n    tag_126:\n        /* \"#utility.yul\":251:363   */\n    tag_125:\n        /* \"#utility.yul\":372:413   */\n      tag_128\n        /* \"#utility.yul\":406:412   */\n      dup5\n        /* \"#utility.yul\":401:404   */\n      dup3\n        /* \"#utility.yul\":396:399   */\n      dup6\n        /* \"#utility.yul\":372:413   */\n      tag_129\n      jump\t// in\n    tag_128:\n        /* \"#utility.yul\":91:419   */\n      pop\n        /* \"#utility.yul\":7:419   */\n      swap4\n      swap3\n      pop\n      pop\n      pop\n      jump\t// out\n        /* \"#utility.yul\":425:564   */\n    tag_130:\n        /* \"#utility.yul\":471:476   */\n      0x00\n        /* \"#utility.yul\":509:515   */\n      dup2\n        /* \"#utility.yul\":496:516   */\n      calldataload\n        /* \"#utility.yul\":487:516   */\n      swap1\n      pop\n        /* \"#utility.yul\":525:558   */\n      tag_132\n        /* \"#utility.yul\":552:557   */\n      dup2\n        /* \"#utility.yul\":525:558   */\n      tag_133\n      jump\t// in\n    tag_132:\n        /* \"#utility.yul\":425:564   */\n      swap3\n      swap2\n      pop\n      pop\n      jump\t// out\n        /* \"#utility.yul\":584:924   */\n    tag_134:\n        /* \"#utility.yul\":640:645   */\n      0x00\n        /* \"#utility.yul\":689:692   */\n      dup3\n        /* \"#utility.yul\":682:686   */\n      0x1f\n        /* \"#utility.yul\":674:680   */\n      dup4\n        /* \"#utility.yul\":670:687   */\n      add\n        /* \"#utility.yul\":666:693   */\n      slt\n        /* \"#utility.yul\":656:778   */\n      tag_136\n      jumpi\n        /* \"#utility.yul\":697:776   */\n      tag_137\n      tag_138\n      jump\t// in\n    tag_137:\n        /* \"#utility.yul\":656:778   */\n    tag_136:\n        /* \"#utility.yul\":814:820   */\n      dup2\n        /* \"#utility.yul\":801:821   */\n      calldataload\n        /* \"#utility.yul\":839:918   */\n      tag_139\n        /* \"#utility.yul\":914:917   */\n      dup5\n        /* \"#utility.yul\":906:912   */\n      dup3\n        /* \"#utility.yul\":899:903   */\n      0x20\n        /* \"#utility.yul\":891:897   */\n      dup7\n        /* \"#utility.yul\":887:904   */\n      add\n        /* \"#utility.yul\":839:918   */\n      tag_119\n      jump\t// in\n    tag_139:\n        /* \"#utility.yul\":830:918   */\n      swap2\n      pop\n        /* \"#utility.yul\":646:924   */\n      pop\n        /* \"#utility.yul\":584:924   */\n      swap3\n      swap2\n      pop\n      pop\n      jump\t// out\n        /* \"#utility.yul\":930:1069   */\n    tag_140:\n        /* \"#utility.yul\":976:981   */\n      0x00\n        /* \"#utility.yul\":1014:1020   */\n      dup2\n        /* \"#utility.yul\":1001:1021   */\n      calldataload\n        /* \"#utility.yul\":992:1021   */\n      swap1\n      pop\n        /* \"#utility.yul\":1030:1063   */\n      tag_142\n        /* \"#utility.yul\":1057:1062   */\n      dup2\n        /* \"#utility.yul\":1030:1063   */\n      tag_143\n      jump\t// in\n    tag_142:\n        /* \"#utility.yul\":930:1069   */\n      swap3\n      swap2\n      pop\n      pop\n      jump\t// out\n        /* \"#utility.yul\":1075:1404   */\n    tag_41:\n        /* \"#utility.yul\":1134:1140   */\n      0x00\n        /* \"#utility.yul\":1183:1185   */\n      0x20\n        /* \"#utility.yul\":1171:1180   */\n      dup3\n        /* \"#utility.yul\":1162:1169   */\n      dup5\n        /* \"#utility.yul\":1158:1181   */\n      sub\n        /* \"#utility.yul\":1154:1186   */\n      slt\n        /* \"#utility.yul\":1151:1270   */\n      iszero\n      tag_145\n      jumpi\n        /* \"#utility.yul\":1189:1268   */\n      tag_146\n      tag_147\n      jump\t// in\n    tag_146:\n        /* \"#utility.yul\":1151:1270   */\n    tag_145:\n        /* \"#utility.yul\":1309:1310   */\n      0x00\n        /* \"#utility.yul\":1334:1387   */\n      tag_148\n        /* \"#utility.yul\":1379:1386   */\n      dup5\n        /* \"#utility.yul\":1370:1376   */\n      dup3\n        /* \"#utility.yul\":1359:1368   */\n      dup6\n        /* \"#utility.yul\":1355:1377   */\n      add\n        /* \"#utility.yul\":1334:1387   */\n      tag_130\n      jump\t// in\n    tag_148:\n        /* \"#utility.yul\":1324:1387   */\n      swap2\n      pop\n        /* \"#utility.yul\":1280:1397   */\n      pop\n        /* \"#utility.yul\":1075:1404   */\n      swap3\n      swap2\n      pop\n      pop\n      jump\t// out\n        /* \"#utility.yul\":1410:2064   */\n    tag_18:\n        /* \"#utility.yul\":1488:1494   */\n      0x00\n        /* \"#utility.yul\":1496:1502   */\n      dup1\n        /* \"#utility.yul\":1545:1547   */\n      0x40\n        /* \"#utility.yul\":1533:1542   */\n      dup4\n        /* \"#utility.yul\":1524:1531   */\n      dup6\n        /* \"#utility.yul\":1520:1543   */\n      sub\n        /* \"#utility.yul\":1516:1548   */\n      slt\n        /* \"#utility.yul\":1513:1632   */\n      iszero\n      tag_150\n      jumpi\n        /* \"#utility.yul\":1551:1630   */\n      tag_151\n      tag_147\n      jump\t// in\n    tag_151:\n        /* \"#utility.yul\":1513:1632   */\n    tag_150:\n        /* \"#utility.yul\":1699:1700   */\n      0x00\n        /* \"#utility.yul\":1688:1697   */\n      dup4\n        /* \"#utility.yul\":1684:1701   */\n      add\n        /* \"#utility.yul\":1671:1702   */\n      calldataload\n        /* \"#utility.yul\":1729:1747   */\n      0xffffffffffffffff\n        /* \"#utility.yul\":1721:1727   */\n      dup2\n        /* \"#utility.yul\":1718:1748   */\n      gt\n        /* \"#utility.yul\":1715:1832   */\n      iszero\n      tag_152\n      jumpi\n        /* \"#utility.yul\":1751:1830   */\n      tag_153\n      tag_154\n      jump\t// in\n    tag_153:\n        /* \"#utility.yul\":1715:1832   */\n    tag_152:\n        /* \"#utility.yul\":1856:1919   */\n      tag_155\n        /* \"#utility.yul\":1911:1918   */\n      dup6\n        /* \"#utility.yul\":1902:1908   */\n      dup3\n        /* \"#utility.yul\":1891:1900   */\n      dup7\n        /* \"#utility.yul\":1887:1909   */\n      add\n        /* \"#utility.yul\":1856:1919   */\n      tag_134\n      jump\t// in\n    tag_155:\n        /* \"#utility.yul\":1846:1919   */\n      swap3\n      pop\n        /* \"#utility.yul\":1642:1929   */\n      pop\n        /* \"#utility.yul\":1968:1970   */\n      0x20\n        /* \"#utility.yul\":1994:2047   */\n      tag_156\n        /* \"#utility.yul\":2039:2046   */\n      dup6\n        /* \"#utility.yul\":2030:2036   */\n      dup3\n        /* \"#utility.yul\":2019:2028   */\n      dup7\n        /* \"#utility.yul\":2015:2037   */\n      add\n        /* \"#utility.yul\":1994:2047   */\n      tag_140\n      jump\t// in\n    tag_156:\n        /* \"#utility.yul\":1984:2047   */\n      swap2\n      pop\n        /* \"#utility.yul\":1939:2057   */\n      pop\n        /* \"#utility.yul\":1410:2064   */\n      swap3\n      pop\n      swap3\n      swap1\n      pop\n      jump\t// out\n        /* \"#utility.yul\":2070:2399   */\n    tag_24:\n        /* \"#utility.yul\":2129:2135   */\n      0x00\n        /* \"#utility.yul\":2178:2180   */\n      0x20\n        /* \"#utility.yul\":2166:2175   */\n      dup3\n        /* \"#utility.yul\":2157:2164   */\n      dup5\n        /* \"#utility.yul\":2153:2176   */\n      sub\n        /* \"#utility.yul\":2149:2181   */\n      slt\n        /* \"#utility.yul\":2146:2265   */\n      iszero\n      tag_158\n      jumpi\n        /* \"#utility.yul\":2184:2263   */\n      tag_159\n      tag_147\n      jump\t// in\n    tag_159:\n        /* \"#utility.yul\":2146:2265   */\n    tag_158:\n        /* \"#utility.yul\":2304:2305   */\n      0x00\n        /* \"#utility.yul\":2329:2382   */\n      tag_160\n        /* \"#utility.yul\":2374:2381   */\n      dup5\n        /* \"#utility.yul\":2365:2371   */\n      dup3\n        /* \"#utility.yul\":2354:2363   */\n      dup6\n        /* \"#utility.yul\":2350:2372   */\n      add\n        /* \"#utility.yul\":2329:2382   */\n      tag_140\n      jump\t// in\n    tag_160:\n        /* \"#utility.yul\":2319:2382   */\n      swap2\n      pop\n        /* \"#utility.yul\":2275:2392   */\n      pop\n        /* \"#utility.yul\":2070:2399   */\n      swap3\n      swap2\n      pop\n      pop\n      jump\t// out\n        /* \"#utility.yul\":2405:2879   */\n    tag_14:\n        /* \"#utility.yul\":2473:2479   */\n      0x00\n        /* \"#utility.yul\":2481:2487   */\n      dup1\n        /* \"#utility.yul\":2530:2532   */\n      0x40\n        /* \"#utility.yul\":2518:2527   */\n      dup4\n        /* \"#utility.yul\":2509:2516   */\n      dup6\n        /* \"#utility.yul\":2505:2528   */\n      sub\n        /* \"#utility.yul\":2501:2533   */\n      slt\n        /* \"#utility.yul\":2498:2617   */\n      iszero\n      tag_162\n      jumpi\n        /* \"#utility.yul\":2536:2615   */\n      tag_163\n      tag_147\n      jump\t// in\n    tag_163:\n        /* \"#utility.yul\":2498:2617   */\n    tag_162:\n        /* \"#utility.yul\":2656:2657   */\n      0x00\n        /* \"#utility.yul\":2681:2734   */\n      tag_164\n        /* \"#utility.yul\":2726:2733   */\n      dup6\n        /* \"#utility.yul\":2717:2723   */\n      dup3\n        /* \"#utility.yul\":2706:2715   */\n      dup7\n        /* \"#utility.yul\":2702:2724   */\n      add\n        /* \"#utility.yul\":2681:2734   */\n      tag_140\n      jump\t// in\n    tag_164:\n        /* \"#utility.yul\":2671:2734   */\n      swap3\n      pop\n        /* \"#utility.yul\":2627:2744   */\n      pop\n        /* \"#utility.yul\":2783:2785   */\n      0x20\n        /* \"#utility.yul\":2809:2862   */\n      tag_165\n        /* \"#utility.yul\":2854:2861   */\n      dup6\n        /* \"#utility.yul\":2845:2851   */\n      dup3\n        /* \"#utility.yul\":2834:2843   */\n      dup7\n        /* \"#utility.yul\":2830:2852   */\n      add\n        /* \"#utility.yul\":2809:2862   */\n      tag_140\n      jump\t// in\n    tag_165:\n        /* \"#utility.yul\":2799:2862   */\n      swap2\n      pop\n        /* \"#utility.yul\":2754:2872   */\n      pop\n        /* \"#utility.yul\":2405:2879   */\n      swap3\n      pop\n      swap3\n      swap1\n      pop\n      jump\t// out\n        /* \"#utility.yul\":2885:3003   */\n    tag_166:\n        /* \"#utility.yul\":2972:2996   */\n      tag_168\n        /* \"#utility.yul\":2990:2995   */\n      dup2\n        /* \"#utility.yul\":2972:2996   */\n      tag_169\n      jump\t// in\n    tag_168:\n        /* \"#utility.yul\":2967:2970   */\n      dup3\n        /* \"#utility.yul\":2960:2997   */\n      mstore\n        /* \"#utility.yul\":2885:3003   */\n      pop\n      pop\n      jump\t// out\n        /* \"#utility.yul\":3009:3373   */\n    tag_170:\n        /* \"#utility.yul\":3097:3100   */\n      0x00\n        /* \"#utility.yul\":3125:3164   */\n      tag_172\n        /* \"#utility.yul\":3158:3163   */\n      dup3\n        /* \"#utility.yul\":3125:3164   */\n      tag_173\n      jump\t// in\n    tag_172:\n        /* \"#utility.yul\":3180:3251   */\n      tag_174\n        /* \"#utility.yul\":3244:3250   */\n      dup2\n        /* \"#utility.yul\":3239:3242   */\n      dup6\n        /* \"#utility.yul\":3180:3251   */\n      tag_175\n      jump\t// in\n    tag_174:\n        /* \"#utility.yul\":3173:3251   */\n      swap4\n      pop\n        /* \"#utility.yul\":3260:3312   */\n      tag_176\n        /* \"#utility.yul\":3305:3311   */\n      dup2\n        /* \"#utility.yul\":3300:3303   */\n      dup6\n        /* \"#utility.yul\":3293:3297   */\n      0x20\n        /* \"#utility.yul\":3286:3291   */\n      dup7\n        /* \"#utility.yul\":3282:3298   */\n      add\n        /* \"#utility.yul\":3260:3312   */\n      tag_177\n      jump\t// in\n    tag_176:\n        /* \"#utility.yul\":3337:3366   */\n      tag_178\n        /* \"#utility.yul\":3359:3365   */\n      dup2\n        /* \"#utility.yul\":3337:3366   */\n      tag_179\n      jump\t// in\n    tag_178:\n        /* \"#utility.yul\":3332:3335   */\n      dup5\n        /* \"#utility.yul\":3328:3367   */\n      add\n        /* \"#utility.yul\":3321:3367   */\n      swap2\n      pop\n        /* \"#utility.yul\":3101:3373   */\n      pop\n        /* \"#utility.yul\":3009:3373   */\n      swap3\n      swap2\n      pop\n      pop\n      jump\t// out\n        /* \"#utility.yul\":3379:3756   */\n    tag_180:\n        /* \"#utility.yul\":3485:3488   */\n      0x00\n        /* \"#utility.yul\":3513:3552   */\n      tag_182\n        /* \"#utility.yul\":3546:3551   */\n      dup3\n        /* \"#utility.yul\":3513:3552   */\n      tag_173\n      jump\t// in\n    tag_182:\n        /* \"#utility.yul\":3568:3657   */\n      tag_183\n        /* \"#utility.yul\":3650:3656   */\n      dup2\n        /* \"#utility.yul\":3645:3648   */\n      dup6\n        /* \"#utility.yul\":3568:3657   */\n      tag_184\n      jump\t// in\n    tag_183:\n        /* \"#utility.yul\":3561:3657   */\n      swap4\n      pop\n        /* \"#utility.yul\":3666:3718   */\n      tag_185\n        /* \"#utility.yul\":3711:3717   */\n      dup2\n        /* \"#utility.yul\":3706:3709   */\n      dup6\n        /* \"#utility.yul\":3699:3703   */\n      0x20\n        /* \"#utility.yul\":3692:3697   */\n      dup7\n        /* \"#utility.yul\":3688:3704   */\n      add\n        /* \"#utility.yul\":3666:3718   */\n      tag_177\n      jump\t// in\n    tag_185:\n        /* \"#utility.yul\":3743:3749   */\n      dup1\n        /* \"#utility.yul\":3738:3741   */\n      dup5\n        /* \"#utility.yul\":3734:3750   */\n      add\n        /* \"#utility.yul\":3727:3750   */\n      swap2\n      pop\n        /* \"#utility.yul\":3489:3756   */\n      pop\n        /* \"#utility.yul\":3379:3756   */\n      swap3\n      swap2\n      pop\n      pop\n      jump\t// out\n        /* \"#utility.yul\":3762:4128   */\n    tag_186:\n        /* \"#utility.yul\":3904:3907   */\n      0x00\n        /* \"#utility.yul\":3925:3992   */\n      tag_188\n        /* \"#utility.yul\":3989:3991   */\n      0x14\n        /* \"#utility.yul\":3984:3987   */\n      dup4\n        /* \"#utility.yul\":3925:3992   */\n      tag_175\n      jump\t// in\n    tag_188:\n        /* \"#utility.yul\":3918:3992   */\n      swap2\n      pop\n        /* \"#utility.yul\":4001:4094   */\n      tag_189\n        /* \"#utility.yul\":4090:4093   */\n      dup3\n        /* \"#utility.yul\":4001:4094   */\n      tag_190\n      jump\t// in\n    tag_189:\n        /* \"#utility.yul\":4119:4121   */\n      0x20\n        /* \"#utility.yul\":4114:4117   */\n      dup3\n        /* \"#utility.yul\":4110:4122   */\n      add\n        /* \"#utility.yul\":4103:4122   */\n      swap1\n      pop\n        /* \"#utility.yul\":3762:4128   */\n      swap2\n      swap1\n      pop\n      jump\t// out\n        /* \"#utility.yul\":4134:4500   */\n    tag_191:\n        /* \"#utility.yul\":4276:4279   */\n      0x00\n        /* \"#utility.yul\":4297:4364   */\n      tag_193\n        /* \"#utility.yul\":4361:4363   */\n      0x11\n        /* \"#utility.yul\":4356:4359   */\n      dup4\n        /* \"#utility.yul\":4297:4364   */\n      tag_175\n      jump\t// in\n    tag_193:\n        /* \"#utility.yul\":4290:4364   */\n      swap2\n      pop\n        /* \"#utility.yul\":4373:4466   */\n      tag_194\n        /* \"#utility.yul\":4462:4465   */\n      dup3\n        /* \"#utility.yul\":4373:4466   */\n      tag_195\n      jump\t// in\n    tag_194:\n        /* \"#utility.yul\":4491:4493   */\n      0x20\n        /* \"#utility.yul\":4486:4489   */\n      dup3\n        /* \"#utility.yul\":4482:4494   */\n      add\n        /* \"#utility.yul\":4475:4494   */\n      swap1\n      pop\n        /* \"#utility.yul\":4134:4500   */\n      swap2\n      swap1\n      pop\n      jump\t// out\n        /* \"#utility.yul\":4506:4872   */\n    tag_196:\n        /* \"#utility.yul\":4648:4651   */\n      0x00\n        /* \"#utility.yul\":4669:4736   */\n      tag_198\n        /* \"#utility.yul\":4733:4735   */\n      0x16\n        /* \"#utility.yul\":4728:4731   */\n      dup4\n        /* \"#utility.yul\":4669:4736   */\n      tag_175\n      jump\t// in\n    tag_198:\n        /* \"#utility.yul\":4662:4736   */\n      swap2\n      pop\n        /* \"#utility.yul\":4745:4838   */\n      tag_199\n        /* \"#utility.yul\":4834:4837   */\n      dup3\n        /* \"#utility.yul\":4745:4838   */\n      tag_200\n      jump\t// in\n    tag_199:\n        /* \"#utility.yul\":4863:4865   */\n      0x20\n        /* \"#utility.yul\":4858:4861   */\n      dup3\n        /* \"#utility.yul\":4854:4866   */\n      add\n        /* \"#utility.yul\":4847:4866   */\n      swap1\n      pop\n        /* \"#utility.yul\":4506:4872   */\n      swap2\n      swap1\n      pop\n      jump\t// out\n        /* \"#utility.yul\":4878:5244   */\n    tag_201:\n        /* \"#utility.yul\":5020:5023   */\n      0x00\n        /* \"#utility.yul\":5041:5108   */\n      tag_203\n        /* \"#utility.yul\":5105:5107   */\n      0x26\n        /* \"#utility.yul\":5100:5103   */\n      dup4\n        /* \"#utility.yul\":5041:5108   */\n      tag_175\n      jump\t// in\n    tag_203:\n        /* \"#utility.yul\":5034:5108   */\n      swap2\n      pop\n        /* \"#utility.yul\":5117:5210   */\n      tag_204\n        /* \"#utility.yul\":5206:5209   */\n      dup3\n        /* \"#utility.yul\":5117:5210   */\n      tag_205\n      jump\t// in\n    tag_204:\n        /* \"#utility.yul\":5235:5237   */\n      0x40\n        /* \"#utility.yul\":5230:5233   */\n      dup3\n        /* \"#utility.yul\":5226:5238   */\n      add\n        /* \"#utility.yul\":5219:5238   */\n      swap1\n      pop\n        /* \"#utility.yul\":4878:5244   */\n      swap2\n      swap1\n      pop\n      jump\t// out\n        /* \"#utility.yul\":5250:5616   */\n    tag_206:\n        /* \"#utility.yul\":5392:5395   */\n      0x00\n        /* \"#utility.yul\":5413:5480   */\n      tag_208\n        /* \"#utility.yul\":5477:5479   */\n      0x20\n        /* \"#utility.yul\":5472:5475   */\n      dup4\n        /* \"#utility.yul\":5413:5480   */\n      tag_175\n      jump\t// in\n    tag_208:\n        /* \"#utility.yul\":5406:5480   */\n      swap2\n      pop\n        /* \"#utility.yul\":5489:5582   */\n      tag_209\n        /* \"#utility.yul\":5578:5581   */\n      dup3\n        /* \"#utility.yul\":5489:5582   */\n      tag_210\n      jump\t// in\n    tag_209:\n        /* \"#utility.yul\":5607:5609   */\n      0x20\n        /* \"#utility.yul\":5602:5605   */\n      dup3\n        /* \"#utility.yul\":5598:5610   */\n      add\n        /* \"#utility.yul\":5591:5610   */\n      swap1\n      pop\n        /* \"#utility.yul\":5250:5616   */\n      swap2\n      swap1\n      pop\n      jump\t// out\n        /* \"#utility.yul\":5622:5987   */\n    tag_211:\n        /* \"#utility.yul\":5764:5767   */\n      0x00\n        /* \"#utility.yul\":5785:5851   */\n      tag_213\n        /* \"#utility.yul\":5849:5850   */\n      0x05\n        /* \"#utility.yul\":5844:5847   */\n      dup4\n        /* \"#utility.yul\":5785:5851   */\n      tag_175\n      jump\t// in\n    tag_213:\n        /* \"#utility.yul\":5778:5851   */\n      swap2\n      pop\n        /* \"#utility.yul\":5860:5953   */\n      tag_214\n        /* \"#utility.yul\":5949:5952   */\n      dup3\n        /* \"#utility.yul\":5860:5953   */\n      tag_215\n      jump\t// in\n    tag_214:\n        /* \"#utility.yul\":5978:5980   */\n      0x20\n        /* \"#utility.yul\":5973:5976   */\n      dup3\n        /* \"#utility.yul\":5969:5981   */\n      add\n        /* \"#utility.yul\":5962:5981   */\n      swap1\n      pop\n        /* \"#utility.yul\":5622:5987   */\n      swap2\n      swap1\n      pop\n      jump\t// out\n        /* \"#utility.yul\":5993:6359   */\n    tag_216:\n        /* \"#utility.yul\":6135:6138   */\n      0x00\n        /* \"#utility.yul\":6156:6223   */\n      tag_218\n        /* \"#utility.yul\":6220:6222   */\n      0x13\n        /* \"#utility.yul\":6215:6218   */\n      dup4\n        /* \"#utility.yul\":6156:6223   */\n      tag_175\n      jump\t// in\n    tag_218:\n        /* \"#utility.yul\":6149:6223   */\n      swap2\n      pop\n        /* \"#utility.yul\":6232:6325   */\n      tag_219\n        /* \"#utility.yul\":6321:6324   */\n      dup3\n        /* \"#utility.yul\":6232:6325   */\n      tag_220\n      jump\t// in\n    tag_219:\n        /* \"#utility.yul\":6350:6352   */\n      0x20\n        /* \"#utility.yul\":6345:6348   */\n      dup3\n        /* \"#utility.yul\":6341:6353   */\n      add\n        /* \"#utility.yul\":6334:6353   */\n      swap1\n      pop\n        /* \"#utility.yul\":5993:6359   */\n      swap2\n      swap1\n      pop\n      jump\t// out\n        /* \"#utility.yul\":6365:6483   */\n    tag_221:\n        /* \"#utility.yul\":6452:6476   */\n      tag_223\n        /* \"#utility.yul\":6470:6475   */\n      dup2\n        /* \"#utility.yul\":6452:6476   */\n      tag_224\n      jump\t// in\n    tag_223:\n        /* \"#utility.yul\":6447:6450   */\n      dup3\n        /* \"#utility.yul\":6440:6477   */\n      mstore\n        /* \"#utility.yul\":6365:6483   */\n      pop\n      pop\n      jump\t// out\n        /* \"#utility.yul\":6489:6764   */\n    tag_61:\n        /* \"#utility.yul\":6621:6624   */\n      0x00\n        /* \"#utility.yul\":6643:6738   */\n      tag_226\n        /* \"#utility.yul\":6734:6737   */\n      dup3\n        /* \"#utility.yul\":6725:6731   */\n      dup5\n        /* \"#utility.yul\":6643:6738   */\n      tag_180\n      jump\t// in\n    tag_226:\n        /* \"#utility.yul\":6636:6738   */\n      swap2\n      pop\n        /* \"#utility.yul\":6755:6758   */\n      dup2\n        /* \"#utility.yul\":6748:6758   */\n      swap1\n      pop\n        /* \"#utility.yul\":6489:6764   */\n      swap3\n      swap2\n      pop\n      pop\n      jump\t// out\n        /* \"#utility.yul\":6770:6992   */\n    tag_34:\n        /* \"#utility.yul\":6863:6867   */\n      0x00\n        /* \"#utility.yul\":6901:6903   */\n      0x20\n        /* \"#utility.yul\":6890:6899   */\n      dup3\n        /* \"#utility.yul\":6886:6904   */\n      add\n        /* \"#utility.yul\":6878:6904   */\n      swap1\n      pop\n        /* \"#utility.yul\":6914:6985   */\n      tag_228\n        /* \"#utility.yul\":6982:6983   */\n      0x00\n        /* \"#utility.yul\":6971:6980   */\n      dup4\n        /* \"#utility.yul\":6967:6984   */\n      add\n        /* \"#utility.yul\":6958:6964   */\n      dup5\n        /* \"#utility.yul\":6914:6985   */\n      tag_166\n      jump\t// in\n    tag_228:\n        /* \"#utility.yul\":6770:6992   */\n      swap3\n      swap2\n      pop\n      pop\n      jump\t// out\n        /* \"#utility.yul\":6998:7531   */\n    tag_27:\n        /* \"#utility.yul\":7167:7171   */\n      0x00\n        /* \"#utility.yul\":7205:7207   */\n      0x60\n        /* \"#utility.yul\":7194:7203   */\n      dup3\n        /* \"#utility.yul\":7190:7208   */\n      add\n        /* \"#utility.yul\":7182:7208   */\n      swap1\n      pop\n        /* \"#utility.yul\":7254:7263   */\n      dup2\n        /* \"#utility.yul\":7248:7252   */\n      dup2\n        /* \"#utility.yul\":7244:7264   */\n      sub\n        /* \"#utility.yul\":7240:7241   */\n      0x00\n        /* \"#utility.yul\":7229:7238   */\n      dup4\n        /* \"#utility.yul\":7225:7242   */\n      add\n        /* \"#utility.yul\":7218:7265   */\n      mstore\n        /* \"#utility.yul\":7282:7360   */\n      tag_230\n        /* \"#utility.yul\":7355:7359   */\n      dup2\n        /* \"#utility.yul\":7346:7352   */\n      dup7\n        /* \"#utility.yul\":7282:7360   */\n      tag_170\n      jump\t// in\n    tag_230:\n        /* \"#utility.yul\":7274:7360   */\n      swap1\n      pop\n        /* \"#utility.yul\":7370:7442   */\n      tag_231\n        /* \"#utility.yul\":7438:7440   */\n      0x20\n        /* \"#utility.yul\":7427:7436   */\n      dup4\n        /* \"#utility.yul\":7423:7441   */\n      add\n        /* \"#utility.yul\":7414:7420   */\n      dup6\n        /* \"#utility.yul\":7370:7442   */\n      tag_221\n      jump\t// in\n    tag_231:\n        /* \"#utility.yul\":7452:7524   */\n      tag_232\n        /* \"#utility.yul\":7520:7522   */\n      0x40\n        /* \"#utility.yul\":7509:7518   */\n      dup4\n        /* \"#utility.yul\":7505:7523   */\n      add\n        /* \"#utility.yul\":7496:7502   */\n      dup5\n        /* \"#utility.yul\":7452:7524   */\n      tag_221\n      jump\t// in\n    tag_232:\n        /* \"#utility.yul\":6998:7531   */\n      swap5\n      swap4\n      pop\n      pop\n      pop\n      pop\n      jump\t// out\n        /* \"#utility.yul\":7537:7956   */\n    tag_68:\n        /* \"#utility.yul\":7703:7707   */\n      0x00\n        /* \"#utility.yul\":7741:7743   */\n      0x20\n        /* \"#utility.yul\":7730:7739   */\n      dup3\n        /* \"#utility.yul\":7726:7744   */\n      add\n        /* \"#utility.yul\":7718:7744   */\n      swap1\n      pop\n        /* \"#utility.yul\":7790:7799   */\n      dup2\n        /* \"#utility.yul\":7784:7788   */\n      dup2\n        /* \"#utility.yul\":7780:7800   */\n      sub\n        /* \"#utility.yul\":7776:7777   */\n      0x00\n        /* \"#utility.yul\":7765:7774   */\n      dup4\n        /* \"#utility.yul\":7761:7778   */\n      add\n        /* \"#utility.yul\":7754:7801   */\n      mstore\n        /* \"#utility.yul\":7818:7949   */\n      tag_234\n        /* \"#utility.yul\":7944:7948   */\n      dup2\n        /* \"#utility.yul\":7818:7949   */\n      tag_186\n      jump\t// in\n    tag_234:\n        /* \"#utility.yul\":7810:7949   */\n      swap1\n      pop\n        /* \"#utility.yul\":7537:7956   */\n      swap2\n      swap1\n      pop\n      jump\t// out\n        /* \"#utility.yul\":7962:8381   */\n    tag_64:\n        /* \"#utility.yul\":8128:8132   */\n      0x00\n        /* \"#utility.yul\":8166:8168   */\n      0x20\n        /* \"#utility.yul\":8155:8164   */\n      dup3\n        /* \"#utility.yul\":8151:8169   */\n      add\n        /* \"#utility.yul\":8143:8169   */\n      swap1\n      pop\n        /* \"#utility.yul\":8215:8224   */\n      dup2\n        /* \"#utility.yul\":8209:8213   */\n      dup2\n        /* \"#utility.yul\":8205:8225   */\n      sub\n        /* \"#utility.yul\":8201:8202   */\n      0x00\n        /* \"#utility.yul\":8190:8199   */\n      dup4\n        /* \"#utility.yul\":8186:8203   */\n      add\n        /* \"#utility.yul\":8179:8226   */\n      mstore\n        /* \"#utility.yul\":8243:8374   */\n      tag_236\n        /* \"#utility.yul\":8369:8373   */\n      dup2\n        /* \"#utility.yul\":8243:8374   */\n      tag_191\n      jump\t// in\n    tag_236:\n        /* \"#utility.yul\":8235:8374   */\n      swap1\n      pop\n        /* \"#utility.yul\":7962:8381   */\n      swap2\n      swap1\n      pop\n      jump\t// out\n        /* \"#utility.yul\":8387:8806   */\n    tag_86:\n        /* \"#utility.yul\":8553:8557   */\n      0x00\n        /* \"#utility.yul\":8591:8593   */\n      0x20\n        /* \"#utility.yul\":8580:8589   */\n      dup3\n        /* \"#utility.yul\":8576:8594   */\n      add\n        /* \"#utility.yul\":8568:8594   */\n      swap1\n      pop\n        /* \"#utility.yul\":8640:8649   */\n      dup2\n        /* \"#utility.yul\":8634:8638   */\n      dup2\n        /* \"#utility.yul\":8630:8650   */\n      sub\n        /* \"#utility.yul\":8626:8627   */\n      0x00\n        /* \"#utility.yul\":8615:8624   */\n      dup4\n        /* \"#utility.yul\":8611:8628   */\n      add\n        /* \"#utility.yul\":8604:8651   */\n      mstore\n        /* \"#utility.yul\":8668:8799   */\n      tag_238\n        /* \"#utility.yul\":8794:8798   */\n      dup2\n        /* \"#utility.yul\":8668:8799   */\n      tag_196\n      jump\t// in\n    tag_238:\n        /* \"#utility.yul\":8660:8799   */\n      swap1\n      pop\n        /* \"#utility.yul\":8387:8806   */\n      swap2\n      swap1\n      pop\n      jump\t// out\n        /* \"#utility.yul\":8812:9231   */\n    tag_97:\n        /* \"#utility.yul\":8978:8982   */\n      0x00\n        /* \"#utility.yul\":9016:9018   */\n      0x20\n        /* \"#utility.yul\":9005:9014   */\n      dup3\n        /* \"#utility.yul\":9001:9019   */\n      add\n        /* \"#utility.yul\":8993:9019   */\n      swap1\n      pop\n        /* \"#utility.yul\":9065:9074   */\n      dup2\n        /* \"#utility.yul\":9059:9063   */\n      dup2\n        /* \"#utility.yul\":9055:9075   */\n      sub\n        /* \"#utility.yul\":9051:9052   */\n      0x00\n        /* \"#utility.yul\":9040:9049   */\n      dup4\n        /* \"#utility.yul\":9036:9053   */\n      add\n        /* \"#utility.yul\":9029:9076   */\n      mstore\n        /* \"#utility.yul\":9093:9224   */\n      tag_240\n        /* \"#utility.yul\":9219:9223   */\n      dup2\n        /* \"#utility.yul\":9093:9224   */\n      tag_201\n      jump\t// in\n    tag_240:\n        /* \"#utility.yul\":9085:9224   */\n      swap1\n      pop\n        /* \"#utility.yul\":8812:9231   */\n      swap2\n      swap1\n      pop\n      jump\t// out\n        /* \"#utility.yul\":9237:9656   */\n    tag_105:\n        /* \"#utility.yul\":9403:9407   */\n      0x00\n        /* \"#utility.yul\":9441:9443   */\n      0x20\n        /* \"#utility.yul\":9430:9439   */\n      dup3\n        /* \"#utility.yul\":9426:9444   */\n      add\n        /* \"#utility.yul\":9418:9444   */\n      swap1\n      pop\n        /* \"#utility.yul\":9490:9499   */\n      dup2\n        /* \"#utility.yul\":9484:9488   */\n      dup2\n        /* \"#utility.yul\":9480:9500   */\n      sub\n        /* \"#utility.yul\":9476:9477   */\n      0x00\n        /* \"#utility.yul\":9465:9474   */\n      dup4\n        /* \"#utility.yul\":9461:9478   */\n      add\n        /* \"#utility.yul\":9454:9501   */\n      mstore\n        /* \"#utility.yul\":9518:9649   */\n      tag_242\n        /* \"#utility.yul\":9644:9648   */\n      dup2\n        /* \"#utility.yul\":9518:9649   */\n      tag_206\n      jump\t// in\n    tag_242:\n        /* \"#utility.yul\":9510:9649   */\n      swap1\n      pop\n        /* \"#utility.yul\":9237:9656   */\n      swap2\n      swap1\n      pop\n      jump\t// out\n        /* \"#utility.yul\":9662:10081   */\n    tag_49:\n        /* \"#utility.yul\":9828:9832   */\n      0x00\n        /* \"#utility.yul\":9866:9868   */\n      0x20\n        /* \"#utility.yul\":9855:9864   */\n      dup3\n        /* \"#utility.yul\":9851:9869   */\n      add\n        /* \"#utility.yul\":9843:9869   */\n      swap1\n      pop\n        /* \"#utility.yul\":9915:9924   */\n      dup2\n        /* \"#utility.yul\":9909:9913   */\n      dup2\n        /* \"#utility.yul\":9905:9925   */\n      sub\n        /* \"#utility.yul\":9901:9902   */\n      0x00\n        /* \"#utility.yul\":9890:9899   */\n      dup4\n        /* \"#utility.yul\":9886:9903   */\n      add\n        /* \"#utility.yul\":9879:9926   */\n      mstore\n        /* \"#utility.yul\":9943:10074   */\n      tag_244\n        /* \"#utility.yul\":10069:10073   */\n      dup2\n        /* \"#utility.yul\":9943:10074   */\n      tag_211\n      jump\t// in\n    tag_244:\n        /* \"#utility.yul\":9935:10074   */\n      swap1\n      pop\n        /* \"#utility.yul\":9662:10081   */\n      swap2\n      swap1\n      pop\n      jump\t// out\n        /* \"#utility.yul\":10087:10506   */\n    tag_54:\n        /* \"#utility.yul\":10253:10257   */\n      0x00\n        /* \"#utility.yul\":10291:10293   */\n      0x20\n        /* \"#utility.yul\":10280:10289   */\n      dup3\n        /* \"#utility.yul\":10276:10294   */\n      add\n        /* \"#utility.yul\":10268:10294   */\n      swap1\n      pop\n        /* \"#utility.yul\":10340:10349   */\n      dup2\n        /* \"#utility.yul\":10334:10338   */\n      dup2\n        /* \"#utility.yul\":10330:10350   */\n      sub\n        /* \"#utility.yul\":10326:10327   */\n      0x00\n        /* \"#utility.yul\":10315:10324   */\n      dup4\n        /* \"#utility.yul\":10311:10328   */\n      add\n        /* \"#utility.yul\":10304:10351   */\n      mstore\n        /* \"#utility.yul\":10368:10499   */\n      tag_246\n        /* \"#utility.yul\":10494:10498   */\n      dup2\n        /* \"#utility.yul\":10368:10499   */\n      tag_216\n      jump\t// in\n    tag_246:\n        /* \"#utility.yul\":10360:10499   */\n      swap1\n      pop\n        /* \"#utility.yul\":10087:10506   */\n      swap2\n      swap1\n      pop\n      jump\t// out\n        /* \"#utility.yul\":10512:10734   */\n    tag_38:\n        /* \"#utility.yul\":10605:10609   */\n      0x00\n        /* \"#utility.yul\":10643:10645   */\n      0x20\n        /* \"#utility.yul\":10632:10641   */\n      dup3\n        /* \"#utility.yul\":10628:10646   */\n      add\n        /* \"#utility.yul\":10620:10646   */\n      swap1\n      pop\n        /* \"#utility.yul\":10656:10727   */\n      tag_248\n        /* \"#utility.yul\":10724:10725   */\n      0x00\n        /* \"#utility.yul\":10713:10722   */\n      dup4\n        /* \"#utility.yul\":10709:10726   */\n      add\n        /* \"#utility.yul\":10700:10706   */\n      dup5\n        /* \"#utility.yul\":10656:10727   */\n      tag_221\n      jump\t// in\n    tag_248:\n        /* \"#utility.yul\":10512:10734   */\n      swap3\n      swap2\n      pop\n      pop\n      jump\t// out\n        /* \"#utility.yul\":10740:10869   */\n    tag_124:\n        /* \"#utility.yul\":10774:10780   */\n      0x00\n        /* \"#utility.yul\":10801:10821   */\n      tag_250\n      tag_251\n      jump\t// in\n    tag_250:\n        /* \"#utility.yul\":10791:10821   */\n      swap1\n      pop\n        /* \"#utility.yul\":10830:10863   */\n      tag_252\n        /* \"#utility.yul\":10858:10862   */\n      dup3\n        /* \"#utility.yul\":10850:10856   */\n      dup3\n        /* \"#utility.yul\":10830:10863   */\n      tag_253\n      jump\t// in\n    tag_252:\n        /* \"#utility.yul\":10740:10869   */\n      swap2\n      swap1\n      pop\n      jump\t// out\n        /* \"#utility.yul\":10875:10950   */\n    tag_251:\n        /* \"#utility.yul\":10908:10914   */\n      0x00\n        /* \"#utility.yul\":10941:10943   */\n      0x40\n        /* \"#utility.yul\":10935:10944   */\n      mload\n        /* \"#utility.yul\":10925:10944   */\n      swap1\n      pop\n        /* \"#utility.yul\":10875:10950   */\n      swap1\n      jump\t// out\n        /* \"#utility.yul\":10956:11264   */\n    tag_123:\n        /* \"#utility.yul\":11018:11022   */\n      0x00\n        /* \"#utility.yul\":11108:11126   */\n      0xffffffffffffffff\n        /* \"#utility.yul\":11100:11106   */\n      dup3\n        /* \"#utility.yul\":11097:11127   */\n      gt\n        /* \"#utility.yul\":11094:11150   */\n      iszero\n      tag_256\n      jumpi\n        /* \"#utility.yul\":11130:11148   */\n      tag_257\n      tag_258\n      jump\t// in\n    tag_257:\n        /* \"#utility.yul\":11094:11150   */\n    tag_256:\n        /* \"#utility.yul\":11168:11197   */\n      tag_259\n        /* \"#utility.yul\":11190:11196   */\n      dup3\n        /* \"#utility.yul\":11168:11197   */\n      tag_179\n      jump\t// in\n    tag_259:\n        /* \"#utility.yul\":11160:11197   */\n      swap1\n      pop\n        /* \"#utility.yul\":11252:11256   */\n      0x20\n        /* \"#utility.yul\":11246:11250   */\n      dup2\n        /* \"#utility.yul\":11242:11257   */\n      add\n        /* \"#utility.yul\":11234:11257   */\n      swap1\n      pop\n        /* \"#utility.yul\":10956:11264   */\n      swap2\n      swap1\n      pop\n      jump\t// out\n        /* \"#utility.yul\":11270:11369   */\n    tag_173:\n        /* \"#utility.yul\":11322:11328   */\n      0x00\n        /* \"#utility.yul\":11356:11361   */\n      dup2\n        /* \"#utility.yul\":11350:11362   */\n      mload\n        /* \"#utility.yul\":11340:11362   */\n      swap1\n      pop\n        /* \"#utility.yul\":11270:11369   */\n      swap2\n      swap1\n      pop\n      jump\t// out\n        /* \"#utility.yul\":11375:11544   */\n    tag_175:\n        /* \"#utility.yul\":11459:11470   */\n      0x00\n        /* \"#utility.yul\":11493:11499   */\n      dup3\n        /* \"#utility.yul\":11488:11491   */\n      dup3\n        /* \"#utility.yul\":11481:11500   */\n      mstore\n        /* \"#utility.yul\":11533:11537   */\n      0x20\n        /* \"#utility.yul\":11528:11531   */\n      dup3\n        /* \"#utility.yul\":11524:11538   */\n      add\n        /* \"#utility.yul\":11509:11538   */\n      swap1\n      pop\n        /* \"#utility.yul\":11375:11544   */\n      swap3\n      swap2\n      pop\n      pop\n      jump\t// out\n        /* \"#utility.yul\":11550:11698   */\n    tag_184:\n        /* \"#utility.yul\":11652:11663   */\n      0x00\n        /* \"#utility.yul\":11689:11692   */\n      dup2\n        /* \"#utility.yul\":11674:11692   */\n      swap1\n      pop\n        /* \"#utility.yul\":11550:11698   */\n      swap3\n      swap2\n      pop\n      pop\n      jump\t// out\n        /* \"#utility.yul\":11704:12009   */\n    tag_56:\n        /* \"#utility.yul\":11744:11747   */\n      0x00\n        /* \"#utility.yul\":11763:11783   */\n      tag_264\n        /* \"#utility.yul\":11781:11782   */\n      dup3\n        /* \"#utility.yul\":11763:11783   */\n      tag_224\n      jump\t// in\n    tag_264:\n        /* \"#utility.yul\":11758:11783   */\n      swap2\n      pop\n        /* \"#utility.yul\":11797:11817   */\n      tag_265\n        /* \"#utility.yul\":11815:11816   */\n      dup4\n        /* \"#utility.yul\":11797:11817   */\n      tag_224\n      jump\t// in\n    tag_265:\n        /* \"#utility.yul\":11792:11817   */\n      swap3\n      pop\n        /* \"#utility.yul\":11951:11952   */\n      dup3\n        /* \"#utility.yul\":11883:11949   */\n      0xffffffffffffffffffffffffffffffffffffffffffffffffffffffffffffffff\n        /* \"#utility.yul\":11879:11953   */\n      sub\n        /* \"#utility.yul\":11876:11877   */\n      dup3\n        /* \"#utility.yul\":11873:11954   */\n      gt\n        /* \"#utility.yul\":11870:11977   */\n      iszero\n      tag_266\n      jumpi\n        /* \"#utility.yul\":11957:11975   */\n      tag_267\n      tag_268\n      jump\t// in\n    tag_267:\n        /* \"#utility.yul\":11870:11977   */\n    tag_266:\n        /* \"#utility.yul\":12001:12002   */\n      dup3\n        /* \"#utility.yul\":11998:11999   */\n      dup3\n        /* \"#utility.yul\":11994:12003   */\n      add\n        /* \"#utility.yul\":11987:12003   */\n      swap1\n      pop\n        /* \"#utility.yul\":11704:12009   */\n      swap3\n      swap2\n      pop\n      pop\n      jump\t// out\n        /* \"#utility.yul\":12015:12206   */\n    tag_89:\n        /* \"#utility.yul\":12055:12059   */\n      0x00\n        /* \"#utility.yul\":12075:12095   */\n      tag_270\n        /* \"#utility.yul\":12093:12094   */\n      dup3\n        /* \"#utility.yul\":12075:12095   */\n      tag_224\n      jump\t// in\n    tag_270:\n        /* \"#utility.yul\":12070:12095   */\n      swap2\n      pop\n        /* \"#utility.yul\":12109:12129   */\n      tag_271\n        /* \"#utility.yul\":12127:12128   */\n      dup4\n        /* \"#utility.yul\":12109:12129   */\n      tag_224\n      jump\t// in\n    tag_271:\n        /* \"#utility.yul\":12104:12129   */\n      swap3\n      pop\n        /* \"#utility.yul\":12148:12149   */\n      dup3\n        /* \"#utility.yul\":12145:12146   */\n      dup3\n        /* \"#utility.yul\":12142:12150   */\n      lt\n        /* \"#utility.yul\":12139:12173   */\n      iszero\n      tag_272\n      jumpi\n        /* \"#utility.yul\":12153:12171   */\n      tag_273\n      tag_268\n      jump\t// in\n    tag_273:\n        /* \"#utility.yul\":12139:12173   */\n    tag_272:\n        /* \"#utility.yul\":12198:12199   */\n      dup3\n        /* \"#utility.yul\":12195:12196   */\n      dup3\n        /* \"#utility.yul\":12191:12200   */\n      sub\n        /* \"#utility.yul\":12183:12200   */\n      swap1\n      pop\n        /* \"#utility.yul\":12015:12206   */\n      swap3\n      swap2\n      pop\n      pop\n      jump\t// out\n        /* \"#utility.yul\":12212:12308   */\n    tag_169:\n        /* \"#utility.yul\":12249:12256   */\n      0x00\n        /* \"#utility.yul\":12278:12302   */\n      tag_275\n        /* \"#utility.yul\":12296:12301   */\n      dup3\n        /* \"#utility.yul\":12278:12302   */\n      tag_276\n      jump\t// in\n    tag_275:\n        /* \"#utility.yul\":12267:12302   */\n      swap1\n      pop\n        /* \"#utility.yul\":12212:12308   */\n      swap2\n      swap1\n      pop\n      jump\t// out\n        /* \"#utility.yul\":12314:12440   */\n    tag_276:\n        /* \"#utility.yul\":12351:12358   */\n      0x00\n        /* \"#utility.yul\":12391:12433   */\n      0xffffffffffffffffffffffffffffffffffffffff\n        /* \"#utility.yul\":12384:12389   */\n      dup3\n        /* \"#utility.yul\":12380:12434   */\n      and\n        /* \"#utility.yul\":12369:12434   */\n      swap1\n      pop\n        /* \"#utility.yul\":12314:12440   */\n      swap2\n      swap1\n      pop\n      jump\t// out\n        /* \"#utility.yul\":12446:12523   */\n    tag_224:\n        /* \"#utility.yul\":12483:12490   */\n      0x00\n        /* \"#utility.yul\":12512:12517   */\n      dup2\n        /* \"#utility.yul\":12501:12517   */\n      swap1\n      pop\n        /* \"#utility.yul\":12446:12523   */\n      swap2\n      swap1\n      pop\n      jump\t// out\n        /* \"#utility.yul\":12529:12683   */\n    tag_129:\n        /* \"#utility.yul\":12613:12619   */\n      dup3\n        /* \"#utility.yul\":12608:12611   */\n      dup2\n        /* \"#utility.yul\":12603:12606   */\n      dup4\n        /* \"#utility.yul\":12590:12620   */\n      calldatacopy\n        /* \"#utility.yul\":12675:12676   */\n      0x00\n        /* \"#utility.yul\":12666:12672   */\n      dup4\n        /* \"#utility.yul\":12661:12664   */\n      dup4\n        /* \"#utility.yul\":12657:12673   */\n      add\n        /* \"#utility.yul\":12650:12677   */\n      mstore\n        /* \"#utility.yul\":12529:12683   */\n      pop\n      pop\n      pop\n      jump\t// out\n        /* \"#utility.yul\":12689:12996   */\n    tag_177:\n        /* \"#utility.yul\":12757:12758   */\n      0x00\n        /* \"#utility.yul\":12767:12880   */\n    tag_281:\n        /* \"#utility.yul\":12781:12787   */\n      dup4\n        /* \"#utility.yul\":12778:12779   */\n      dup2\n        /* \"#utility.yul\":12775:12788   */\n      lt\n        /* \"#utility.yul\":12767:12880   */\n      iszero\n      tag_283\n      jumpi\n        /* \"#utility.yul\":12866:12867   */\n      dup1\n        /* \"#utility.yul\":12861:12864   */\n      dup3\n        /* \"#utility.yul\":12857:12868   */\n      add\n        /* \"#utility.yul\":12851:12869   */\n      mload\n        /* \"#utility.yul\":12847:12848   */\n      dup2\n        /* \"#utility.yul\":12842:12845   */\n      dup5\n        /* \"#utility.yul\":12838:12849   */\n      add\n        /* \"#utility.yul\":12831:12870   */\n      mstore\n        /* \"#utility.yul\":12803:12805   */\n      0x20\n        /* \"#utility.yul\":12800:12801   */\n      dup2\n        /* \"#utility.yul\":12796:12806   */\n      add\n        /* \"#utility.yul\":12791:12806   */\n      swap1\n      pop\n        /* \"#utility.yul\":12767:12880   */\n      jump(tag_281)\n    tag_283:\n        /* \"#utility.yul\":12898:12904   */\n      dup4\n        /* \"#utility.yul\":12895:12896   */\n      dup2\n        /* \"#utility.yul\":12892:12905   */\n      gt\n        /* \"#utility.yul\":12889:12990   */\n      iszero\n      tag_284\n      jumpi\n        /* \"#utility.yul\":12978:12979   */\n      0x00\n        /* \"#utility.yul\":12969:12975   */\n      dup5\n        /* \"#utility.yul\":12964:12967   */\n      dup5\n        /* \"#utility.yul\":12960:12976   */\n      add\n        /* \"#utility.yul\":12953:12980   */\n      mstore\n        /* \"#utility.yul\":12889:12990   */\n    tag_284:\n        /* \"#utility.yul\":12738:12996   */\n      pop\n        /* \"#utility.yul\":12689:12996   */\n      pop\n      pop\n      pop\n      jump\t// out\n        /* \"#utility.yul\":13002:13322   */\n    tag_51:\n        /* \"#utility.yul\":13046:13052   */\n      0x00\n        /* \"#utility.yul\":13083:13084   */\n      0x02\n        /* \"#utility.yul\":13077:13081   */\n      dup3\n        /* \"#utility.yul\":13073:13085   */\n      div\n        /* \"#utility.yul\":13063:13085   */\n      swap1\n      pop\n        /* \"#utility.yul\":13130:13131   */\n      0x01\n        /* \"#utility.yul\":13124:13128   */\n      dup3\n        /* \"#utility.yul\":13120:13132   */\n      and\n        /* \"#utility.yul\":13151:13169   */\n      dup1\n        /* \"#utility.yul\":13141:13222   */\n      tag_286\n      jumpi\n        /* \"#utility.yul\":13207:13211   */\n      0x7f\n        /* \"#utility.yul\":13199:13205   */\n      dup3\n        /* \"#utility.yul\":13195:13212   */\n      and\n        /* \"#utility.yul\":13185:13212   */\n      swap2\n      pop\n        /* \"#utility.yul\":13141:13222   */\n    tag_286:\n        /* \"#utility.yul\":13269:13271   */\n      0x20\n        /* \"#utility.yul\":13261:13267   */\n      dup3\n        /* \"#utility.yul\":13258:13272   */\n      lt\n        /* \"#utility.yul\":13238:13256   */\n      dup2\n        /* \"#utility.yul\":13235:13273   */\n      eq\n        /* \"#utility.yul\":13232:13316   */\n      iszero\n      tag_287\n      jumpi\n        /* \"#utility.yul\":13288:13306   */\n      tag_288\n      tag_289\n      jump\t// in\n    tag_288:\n        /* \"#utility.yul\":13232:13316   */\n    tag_287:\n        /* \"#utility.yul\":13053:13322   */\n      pop\n        /* \"#utility.yul\":13002:13322   */\n      swap2\n      swap1\n      pop\n      jump\t// out\n        /* \"#utility.yul\":13328:13609   */\n    tag_253:\n        /* \"#utility.yul\":13411:13438   */\n      tag_291\n        /* \"#utility.yul\":13433:13437   */\n      dup3\n        /* \"#utility.yul\":13411:13438   */\n      tag_179\n      jump\t// in\n    tag_291:\n        /* \"#utility.yul\":13403:13409   */\n      dup2\n        /* \"#utility.yul\":13399:13439   */\n      add\n        /* \"#utility.yul\":13541:13547   */\n      dup2\n        /* \"#utility.yul\":13529:13539   */\n      dup2\n        /* \"#utility.yul\":13526:13548   */\n      lt\n        /* \"#utility.yul\":13505:13523   */\n      0xffffffffffffffff\n        /* \"#utility.yul\":13493:13503   */\n      dup3\n        /* \"#utility.yul\":13490:13524   */\n      gt\n        /* \"#utility.yul\":13487:13549   */\n      or\n        /* \"#utility.yul\":13484:13572   */\n      iszero\n      tag_292\n      jumpi\n        /* \"#utility.yul\":13552:13570   */\n      tag_293\n      tag_258\n      jump\t// in\n    tag_293:\n        /* \"#utility.yul\":13484:13572   */\n    tag_292:\n        /* \"#utility.yul\":13592:13602   */\n      dup1\n        /* \"#utility.yul\":13588:13590   */\n      0x40\n        /* \"#utility.yul\":13581:13603   */\n      mstore\n        /* \"#utility.yul\":13371:13609   */\n      pop\n        /* \"#utility.yul\":13328:13609   */\n      pop\n      pop\n      jump\t// out\n        /* \"#utility.yul\":13615:13795   */\n    tag_268:\n        /* \"#utility.yul\":13663:13740   */\n      0x4e487b7100000000000000000000000000000000000000000000000000000000\n        /* \"#utility.yul\":13660:13661   */\n      0x00\n        /* \"#utility.yul\":13653:13741   */\n      mstore\n        /* \"#utility.yul\":13760:13764   */\n      0x11\n        /* \"#utility.yul\":13757:13758   */\n      0x04\n        /* \"#utility.yul\":13750:13765   */\n      mstore\n        /* \"#utility.yul\":13784:13788   */\n      0x24\n        /* \"#utility.yul\":13781:13782   */\n      0x00\n        /* \"#utility.yul\":13774:13789   */\n      revert\n        /* \"#utility.yul\":13801:13981   */\n    tag_289:\n        /* \"#utility.yul\":13849:13926   */\n      0x4e487b7100000000000000000000000000000000000000000000000000000000\n        /* \"#utility.yul\":13846:13847   */\n      0x00\n        /* \"#utility.yul\":13839:13927   */\n      mstore\n        /* \"#utility.yul\":13946:13950   */\n      0x22\n        /* \"#utility.yul\":13943:13944   */\n      0x04\n        /* \"#utility.yul\":13936:13951   */\n      mstore\n        /* \"#utility.yul\":13970:13974   */\n      0x24\n        /* \"#utility.yul\":13967:13968   */\n      0x00\n        /* \"#utility.yul\":13960:13975   */\n      revert\n        /* \"#utility.yul\":13987:14167   */\n    tag_258:\n        /* \"#utility.yul\":14035:14112   */\n      0x4e487b7100000000000000000000000000000000000000000000000000000000\n        /* \"#utility.yul\":14032:14033   */\n      0x00\n        /* \"#utility.yul\":14025:14113   */\n      mstore\n        /* \"#utility.yul\":14132:14136   */\n      0x41\n        /* \"#utility.yul\":14129:14130   */\n      0x04\n        /* \"#utility.yul\":14122:14137   */\n      mstore\n        /* \"#utility.yul\":14156:14160   */\n      0x24\n        /* \"#utility.yul\":14153:14154   */\n      0x00\n        /* \"#utility.yul\":14146:14161   */\n      revert\n        /* \"#utility.yul\":14173:14290   */\n    tag_138:\n        /* \"#utility.yul\":14282:14283   */\n      0x00\n        /* \"#utility.yul\":14279:14280   */\n      dup1\n        /* \"#utility.yul\":14272:14284   */\n      revert\n        /* \"#utility.yul\":14296:14413   */\n    tag_127:\n        /* \"#utility.yul\":14405:14406   */\n      0x00\n        /* \"#utility.yul\":14402:14403   */\n      dup1\n        /* \"#utility.yul\":14395:14407   */\n      revert\n        /* \"#utility.yul\":14419:14536   */\n    tag_154:\n        /* \"#utility.yul\":14528:14529   */\n      0x00\n        /* \"#utility.yul\":14525:14526   */\n      dup1\n        /* \"#utility.yul\":14518:14530   */\n      revert\n        /* \"#utility.yul\":14542:14659   */\n    tag_147:\n        /* \"#utility.yul\":14651:14652   */\n      0x00\n        /* \"#utility.yul\":14648:14649   */\n      dup1\n        /* \"#utility.yul\":14641:14653   */\n      revert\n        /* \"#utility.yul\":14665:14767   */\n    tag_179:\n        /* \"#utility.yul\":14706:14712   */\n      0x00\n        /* \"#utility.yul\":14757:14759   */\n      0x1f\n        /* \"#utility.yul\":14753:14760   */\n      not\n        /* \"#utility.yul\":14748:14750   */\n      0x1f\n        /* \"#utility.yul\":14741:14746   */\n      dup4\n        /* \"#utility.yul\":14737:14751   */\n      add\n        /* \"#utility.yul\":14733:14761   */\n      and\n        /* \"#utility.yul\":14723:14761   */\n      swap1\n      pop\n        /* \"#utility.yul\":14665:14767   */\n      swap2\n      swap1\n      pop\n      jump\t// out\n        /* \"#utility.yul\":14773:14943   */\n    tag_190:\n        /* \"#utility.yul\":14913:14935   */\n      0x4e616d652063616e6e6f7420626520656d707479000000000000000000000000\n        /* \"#utility.yul\":14909:14910   */\n      0x00\n        /* \"#utility.yul\":14901:14907   */\n      dup3\n        /* \"#utility.yul\":14897:14911   */\n      add\n        /* \"#utility.yul\":14890:14936   */\n      mstore\n        /* \"#utility.yul\":14773:14943   */\n      pop\n      jump\t// out\n        /* \"#utility.yul\":14949:15116   */\n    tag_195:\n        /* \"#utility.yul\":15089:15108   */\n      0x426f6f6b20697320617661696c61626c65000000000000000000000000000000\n        /* \"#utility.yul\":15085:15086   */\n      0x00\n        /* \"#utility.yul\":15077:15083   */\n      dup3\n        /* \"#utility.yul\":15073:15087   */\n      add\n        /* \"#utility.yul\":15066:15109   */\n      mstore\n        /* \"#utility.yul\":14949:15116   */\n      pop\n      jump\t// out\n        /* \"#utility.yul\":15122:15294   */\n    tag_200:\n        /* \"#utility.yul\":15262:15286   */\n      0x426f6f6b20697320616c72656164792069737375656400000000000000000000\n        /* \"#utility.yul\":15258:15259   */\n      0x00\n        /* \"#utility.yul\":15250:15256   */\n      dup3\n        /* \"#utility.yul\":15246:15260   */\n      add\n        /* \"#utility.yul\":15239:15287   */\n      mstore\n        /* \"#utility.yul\":15122:15294   */\n      pop\n      jump\t// out\n        /* \"#utility.yul\":15300:15525   */\n    tag_205:\n        /* \"#utility.yul\":15440:15474   */\n      0x4f776e61626c653a206e6577206f776e657220697320746865207a65726f2061\n        /* \"#utility.yul\":15436:15437   */\n      0x00\n        /* \"#utility.yul\":15428:15434   */\n      dup3\n        /* \"#utility.yul\":15424:15438   */\n      add\n        /* \"#utility.yul\":15417:15475   */\n      mstore\n        /* \"#utility.yul\":15509:15517   */\n      0x6464726573730000000000000000000000000000000000000000000000000000\n        /* \"#utility.yul\":15504:15506   */\n      0x20\n        /* \"#utility.yul\":15496:15502   */\n      dup3\n        /* \"#utility.yul\":15492:15507   */\n      add\n        /* \"#utility.yul\":15485:15518   */\n      mstore\n        /* \"#utility.yul\":15300:15525   */\n      pop\n      jump\t// out\n        /* \"#utility.yul\":15531:15713   */\n    tag_210:\n        /* \"#utility.yul\":15671:15705   */\n      0x4f776e61626c653a2063616c6c6572206973206e6f7420746865206f776e6572\n        /* \"#utility.yul\":15667:15668   */\n      0x00\n        /* \"#utility.yul\":15659:15665   */\n      dup3\n        /* \"#utility.yul\":15655:15669   */\n      add\n        /* \"#utility.yul\":15648:15706   */\n      mstore\n        /* \"#utility.yul\":15531:15713   */\n      pop\n      jump\t// out\n        /* \"#utility.yul\":15719:15874   */\n    tag_215:\n        /* \"#utility.yul\":15859:15866   */\n      0x217a65726f000000000000000000000000000000000000000000000000000000\n        /* \"#utility.yul\":15855:15856   */\n      0x00\n        /* \"#utility.yul\":15847:15853   */\n      dup3\n        /* \"#utility.yul\":15843:15857   */\n      add\n        /* \"#utility.yul\":15836:15867   */\n      mstore\n        /* \"#utility.yul\":15719:15874   */\n      pop\n      jump\t// out\n        /* \"#utility.yul\":15880:16049   */\n    tag_220:\n        /* \"#utility.yul\":16020:16041   */\n      0x426f6f6b20646f6573206e6f7420657869737400000000000000000000000000\n        /* \"#utility.yul\":16016:16017   */\n      0x00\n        /* \"#utility.yul\":16008:16014   */\n      dup3\n        /* \"#utility.yul\":16004:16018   */\n      add\n        /* \"#utility.yul\":15997:16042   */\n      mstore\n        /* \"#utility.yul\":15880:16049   */\n      pop\n      jump\t// out\n        /* \"#utility.yul\":16055:16177   */\n    tag_133:\n        /* \"#utility.yul\":16128:16152   */\n      tag_310\n        /* \"#utility.yul\":16146:16151   */\n      dup2\n        /* \"#utility.yul\":16128:16152   */\n      tag_169\n      jump\t// in\n    tag_310:\n        /* \"#utility.yul\":16121:16126   */\n      dup2\n        /* \"#utility.yul\":16118:16153   */\n      eq\n        /* \"#utility.yul\":16108:16171   */\n      tag_311\n      jumpi\n        /* \"#utility.yul\":16167:16168   */\n      0x00\n        /* \"#utility.yul\":16164:16165   */\n      dup1\n        /* \"#utility.yul\":16157:16169   */\n      revert\n        /* \"#utility.yul\":16108:16171   */\n    tag_311:\n        /* \"#utility.yul\":16055:16177   */\n      pop\n      jump\t// out\n        /* \"#utility.yul\":16183:16305   */\n    tag_143:\n        /* \"#utility.yul\":16256:16280   */\n      tag_313\n        /* \"#utility.yul\":16274:16279   */\n      dup2\n        /* \"#utility.yul\":16256:16280   */\n      tag_224\n      jump\t// in\n    tag_313:\n        /* \"#utility.yul\":16249:16254   */\n      dup2\n        /* \"#utility.yul\":16246:16281   */\n      eq\n        /* \"#utility.yul\":16236:16299   */\n      tag_314\n      jumpi\n        /* \"#utility.yul\":16295:16296   */\n      0x00\n        /* \"#utility.yul\":16292:16293   */\n      dup1\n        /* \"#utility.yul\":16285:16297   */\n      revert\n        /* \"#utility.yul\":16236:16299   */\n    tag_314:\n        /* \"#utility.yul\":16183:16305   */\n      pop\n      jump\t// out\n\n    auxdata: 0xa264697066735822122037151ccdda95126bab8d9c3a5959a249dc55e71646f59dcea3a9d0fafaaae38d64736f6c63430008070033\n}\n",
				"bytecode": {
					"linkReferences": {},
					"object": "608060405234801561001057600080fd5b5061002d61002261003260201b60201c565b61003a60201b60201c565b6100fe565b600033905090565b60008060009054906101000a900473ffffffffffffffffffffffffffffffffffffffff169050816000806101000a81548173ffffffffffffffffffffffffffffffffffffffff021916908373ffffffffffffffffffffffffffffffffffffffff1602179055508173ffffffffffffffffffffffffffffffffffffffff168173ffffffffffffffffffffffffffffffffffffffff167f8be0079c531659141344cd1fd0a4f28419497f9722a3daafe3b4186f6b6457e060405160405180910390a35050565b6111778061010d6000396000f3fe608060405234801561001057600080fd5b50600436106100885760003560e01c80637e490a9e1161005b5780637e490a9e146101015780638da5cb5b1461011d578063b905ad781461013b578063f2fde38b1461015957610088565b806360f9eefc1461008d578063637a3872146100a9578063715018a6146100c55780637975c6b4146100cf575b600080fd5b6100a760048036038101906100a29190610a0c565b610175565b005b6100c360048036038101906100be9190610983565b610253565b005b6100cd610398565b005b6100e960048036038101906100e491906109df565b6103ac565b6040516100f893929190610bfb565b60405180910390f35b61011b600480360381019061011691906109df565b61045e565b005b61012561061c565b6040516101329190610be0565b60405180910390f35b610143610645565b6040516101509190610d19565b60405180910390f35b610173600480360381019061016e9190610956565b61064b565b005b61017d6106cf565b600081116101c0576040517f08c379a00000000000000000000000000000000000000000000000000000000081526004016101b790610cd9565b60405180910390fd5b600060076000848152602001908152602001600020905060008160000180546101e890610eb9565b9050141561022b576040517f08c379a000000000000000000000000000000000000000000000000000000000815260040161022290610cf9565b60405180910390fd5b60018160010160008282546102409190610db1565b9250508190558160010181905550505050565b61025b6106cf565b8160068160405161026c9190610bc9565b908152602001604051809103902060009054906101000a900460ff16156102c8576040517f08c379a00000000000000000000000000000000000000000000000000000000081526004016102bf90610c59565b60405180910390fd5b60008351141561030d576040517f08c379a000000000000000000000000000000000000000000000000000000000815260040161030490610c39565b60405180910390fd5b600160068460405161031f9190610bc9565b908152602001604051809103902060006101000a81548160ff02191690831515021790555060006001836103539190610db1565b9250829050600060076000838152602001908152602001600020905084816000019080519060200190610387929190610819565b508381600101819055505050505050565b6103a06106cf565b6103aa600061074d565b565b60076020528060005260406000206000915090508060000180546103cf90610eb9565b80601f01602080910402602001604051908101604052809291908181526020018280546103fb90610eb9565b80156104485780601f1061041d57610100808354040283529160200191610448565b820191906000526020600020905b81548152906001019060200180831161042b57829003601f168201915b5050505050908060010154908060020154905083565b600860003373ffffffffffffffffffffffffffffffffffffffff1673ffffffffffffffffffffffffffffffffffffffff168152602001908152602001600020600082815260200190815260200160002060009054906101000a900460ff16156104fc576040517f08c379a00000000000000000000000000000000000000000000000000000000081526004016104f390610c79565b60405180910390fd5b6001600860003373ffffffffffffffffffffffffffffffffffffffff1673ffffffffffffffffffffffffffffffffffffffff168152602001908152602001600020600083815260200190815260200160002060006101000a81548160ff021916908315150217905550600060076000838152602001908152602001600020905060018160010154101561058e57600080fd5b6001816001015461059f9190610e07565b8160010181905550338160030160008360020154815260200190815260200160002060006101000a81548173ffffffffffffffffffffffffffffffffffffffff021916908373ffffffffffffffffffffffffffffffffffffffff160217905550600181600201546106109190610db1565b81600201819055505050565b60008060009054906101000a900473ffffffffffffffffffffffffffffffffffffffff16905090565b60055481565b6106536106cf565b600073ffffffffffffffffffffffffffffffffffffffff168173ffffffffffffffffffffffffffffffffffffffff1614156106c3576040517f08c379a00000000000000000000000000000000000000000000000000000000081526004016106ba90610c99565b60405180910390fd5b6106cc8161074d565b50565b6106d7610811565b73ffffffffffffffffffffffffffffffffffffffff166106f561061c565b73ffffffffffffffffffffffffffffffffffffffff161461074b576040517f08c379a000000000000000000000000000000000000000000000000000000000815260040161074290610cb9565b60405180910390fd5b565b60008060009054906101000a900473ffffffffffffffffffffffffffffffffffffffff169050816000806101000a81548173ffffffffffffffffffffffffffffffffffffffff021916908373ffffffffffffffffffffffffffffffffffffffff1602179055508173ffffffffffffffffffffffffffffffffffffffff168173ffffffffffffffffffffffffffffffffffffffff167f8be0079c531659141344cd1fd0a4f28419497f9722a3daafe3b4186f6b6457e060405160405180910390a35050565b600033905090565b82805461082590610eb9565b90600052602060002090601f016020900481019282610847576000855561088e565b82601f1061086057805160ff191683800117855561088e565b8280016001018555821561088e579182015b8281111561088d578251825591602001919060010190610872565b5b50905061089b919061089f565b5090565b5b808211156108b85760008160009055506001016108a0565b5090565b60006108cf6108ca84610d59565b610d34565b9050828152602081018484840111156108eb576108ea610fae565b5b6108f6848285610e77565b509392505050565b60008135905061090d81611113565b92915050565b600082601f83011261092857610927610fa9565b5b81356109388482602086016108bc565b91505092915050565b6000813590506109508161112a565b92915050565b60006020828403121561096c5761096b610fb8565b5b600061097a848285016108fe565b91505092915050565b6000806040838503121561099a57610999610fb8565b5b600083013567ffffffffffffffff8111156109b8576109b7610fb3565b5b6109c485828601610913565b92505060206109d585828601610941565b9150509250929050565b6000602082840312156109f5576109f4610fb8565b5b6000610a0384828501610941565b91505092915050565b60008060408385031215610a2357610a22610fb8565b5b6000610a3185828601610941565b9250506020610a4285828601610941565b9150509250929050565b610a5581610e3b565b82525050565b6000610a6682610d8a565b610a708185610d95565b9350610a80818560208601610e86565b610a8981610fbd565b840191505092915050565b6000610a9f82610d8a565b610aa98185610da6565b9350610ab9818560208601610e86565b80840191505092915050565b6000610ad2601483610d95565b9150610add82610fce565b602082019050919050565b6000610af5601183610d95565b9150610b0082610ff7565b602082019050919050565b6000610b18601683610d95565b9150610b2382611020565b602082019050919050565b6000610b3b602683610d95565b9150610b4682611049565b604082019050919050565b6000610b5e602083610d95565b9150610b6982611098565b602082019050919050565b6000610b81600583610d95565b9150610b8c826110c1565b602082019050919050565b6000610ba4601383610d95565b9150610baf826110ea565b602082019050919050565b610bc381610e6d565b82525050565b6000610bd58284610a94565b915081905092915050565b6000602082019050610bf56000830184610a4c565b92915050565b60006060820190508181036000830152610c158186610a5b565b9050610c246020830185610bba565b610c316040830184610bba565b949350505050565b60006020820190508181036000830152610c5281610ac5565b9050919050565b60006020820190508181036000830152610c7281610ae8565b9050919050565b60006020820190508181036000830152610c9281610b0b565b9050919050565b60006020820190508181036000830152610cb281610b2e565b9050919050565b60006020820190508181036000830152610cd281610b51565b9050919050565b60006020820190508181036000830152610cf281610b74565b9050919050565b60006020820190508181036000830152610d1281610b97565b9050919050565b6000602082019050610d2e6000830184610bba565b92915050565b6000610d3e610d4f565b9050610d4a8282610eeb565b919050565b6000604051905090565b600067ffffffffffffffff821115610d7457610d73610f7a565b5b610d7d82610fbd565b9050602081019050919050565b600081519050919050565b600082825260208201905092915050565b600081905092915050565b6000610dbc82610e6d565b9150610dc783610e6d565b9250827fffffffffffffffffffffffffffffffffffffffffffffffffffffffffffffffff03821115610dfc57610dfb610f1c565b5b828201905092915050565b6000610e1282610e6d565b9150610e1d83610e6d565b925082821015610e3057610e2f610f1c565b5b828203905092915050565b6000610e4682610e4d565b9050919050565b600073ffffffffffffffffffffffffffffffffffffffff82169050919050565b6000819050919050565b82818337600083830152505050565b60005b83811015610ea4578082015181840152602081019050610e89565b83811115610eb3576000848401525b50505050565b60006002820490506001821680610ed157607f821691505b60208210811415610ee557610ee4610f4b565b5b50919050565b610ef482610fbd565b810181811067ffffffffffffffff82111715610f1357610f12610f7a565b5b80604052505050565b7f4e487b7100000000000000000000000000000000000000000000000000000000600052601160045260246000fd5b7f4e487b7100000000000000000000000000000000000000000000000000000000600052602260045260246000fd5b7f4e487b7100000000000000000000000000000000000000000000000000000000600052604160045260246000fd5b600080fd5b600080fd5b600080fd5b600080fd5b6000601f19601f8301169050919050565b7f4e616d652063616e6e6f7420626520656d707479000000000000000000000000600082015250565b7f426f6f6b20697320617661696c61626c65000000000000000000000000000000600082015250565b7f426f6f6b20697320616c72656164792069737375656400000000000000000000600082015250565b7f4f776e61626c653a206e6577206f776e657220697320746865207a65726f206160008201527f6464726573730000000000000000000000000000000000000000000000000000602082015250565b7f4f776e61626c653a2063616c6c6572206973206e6f7420746865206f776e6572600082015250565b7f217a65726f000000000000000000000000000000000000000000000000000000600082015250565b7f426f6f6b20646f6573206e6f7420657869737400000000000000000000000000600082015250565b61111c81610e3b565b811461112757600080fd5b50565b61113381610e6d565b811461113e57600080fd5b5056fea264697066735822122037151ccdda95126bab8d9c3a5959a249dc55e71646f59dcea3a9d0fafaaae38d64736f6c63430008070033",
					"opcodes": "PUSH1 0x80 PUSH1 0x40 MSTORE CALLVALUE DUP1 ISZERO PUSH2 0x10 JUMPI PUSH1 0x0 DUP1 REVERT JUMPDEST POP PUSH2 0x2D PUSH2 0x22 PUSH2 0x32 PUSH1 0x20 SHL PUSH1 0x20 SHR JUMP JUMPDEST PUSH2 0x3A PUSH1 0x20 SHL PUSH1 0x20 SHR JUMP JUMPDEST PUSH2 0xFE JUMP JUMPDEST PUSH1 0x0 CALLER SWAP1 POP SWAP1 JUMP JUMPDEST PUSH1 0x0 DUP1 PUSH1 0x0 SWAP1 SLOAD SWAP1 PUSH2 0x100 EXP SWAP1 DIV PUSH20 0xFFFFFFFFFFFFFFFFFFFFFFFFFFFFFFFFFFFFFFFF AND SWAP1 POP DUP2 PUSH1 0x0 DUP1 PUSH2 0x100 EXP DUP2 SLOAD DUP2 PUSH20 0xFFFFFFFFFFFFFFFFFFFFFFFFFFFFFFFFFFFFFFFF MUL NOT AND SWAP1 DUP4 PUSH20 0xFFFFFFFFFFFFFFFFFFFFFFFFFFFFFFFFFFFFFFFF AND MUL OR SWAP1 SSTORE POP DUP2 PUSH20 0xFFFFFFFFFFFFFFFFFFFFFFFFFFFFFFFFFFFFFFFF AND DUP2 PUSH20 0xFFFFFFFFFFFFFFFFFFFFFFFFFFFFFFFFFFFFFFFF AND PUSH32 0x8BE0079C531659141344CD1FD0A4F28419497F9722A3DAAFE3B4186F6B6457E0 PUSH1 0x40 MLOAD PUSH1 0x40 MLOAD DUP1 SWAP2 SUB SWAP1 LOG3 POP POP JUMP JUMPDEST PUSH2 0x1177 DUP1 PUSH2 0x10D PUSH1 0x0 CODECOPY PUSH1 0x0 RETURN INVALID PUSH1 0x80 PUSH1 0x40 MSTORE CALLVALUE DUP1 ISZERO PUSH2 0x10 JUMPI PUSH1 0x0 DUP1 REVERT JUMPDEST POP PUSH1 0x4 CALLDATASIZE LT PUSH2 0x88 JUMPI PUSH1 0x0 CALLDATALOAD PUSH1 0xE0 SHR DUP1 PUSH4 0x7E490A9E GT PUSH2 0x5B JUMPI DUP1 PUSH4 0x7E490A9E EQ PUSH2 0x101 JUMPI DUP1 PUSH4 0x8DA5CB5B EQ PUSH2 0x11D JUMPI DUP1 PUSH4 0xB905AD78 EQ PUSH2 0x13B JUMPI DUP1 PUSH4 0xF2FDE38B EQ PUSH2 0x159 JUMPI PUSH2 0x88 JUMP JUMPDEST DUP1 PUSH4 0x60F9EEFC EQ PUSH2 0x8D JUMPI DUP1 PUSH4 0x637A3872 EQ PUSH2 0xA9 JUMPI DUP1 PUSH4 0x715018A6 EQ PUSH2 0xC5 JUMPI DUP1 PUSH4 0x7975C6B4 EQ PUSH2 0xCF JUMPI JUMPDEST PUSH1 0x0 DUP1 REVERT JUMPDEST PUSH2 0xA7 PUSH1 0x4 DUP1 CALLDATASIZE SUB DUP2 ADD SWAP1 PUSH2 0xA2 SWAP2 SWAP1 PUSH2 0xA0C JUMP JUMPDEST PUSH2 0x175 JUMP JUMPDEST STOP JUMPDEST PUSH2 0xC3 PUSH1 0x4 DUP1 CALLDATASIZE SUB DUP2 ADD SWAP1 PUSH2 0xBE SWAP2 SWAP1 PUSH2 0x983 JUMP JUMPDEST PUSH2 0x253 JUMP JUMPDEST STOP JUMPDEST PUSH2 0xCD PUSH2 0x398 JUMP JUMPDEST STOP JUMPDEST PUSH2 0xE9 PUSH1 0x4 DUP1 CALLDATASIZE SUB DUP2 ADD SWAP1 PUSH2 0xE4 SWAP2 SWAP1 PUSH2 0x9DF JUMP JUMPDEST PUSH2 0x3AC JUMP JUMPDEST PUSH1 0x40 MLOAD PUSH2 0xF8 SWAP4 SWAP3 SWAP2 SWAP1 PUSH2 0xBFB JUMP JUMPDEST PUSH1 0x40 MLOAD DUP1 SWAP2 SUB SWAP1 RETURN JUMPDEST PUSH2 0x11B PUSH1 0x4 DUP1 CALLDATASIZE SUB DUP2 ADD SWAP1 PUSH2 0x116 SWAP2 SWAP1 PUSH2 0x9DF JUMP JUMPDEST PUSH2 0x45E JUMP JUMPDEST STOP JUMPDEST PUSH2 0x125 PUSH2 0x61C JUMP JUMPDEST PUSH1 0x40 MLOAD PUSH2 0x132 SWAP2 SWAP1 PUSH2 0xBE0 JUMP JUMPDEST PUSH1 0x40 MLOAD DUP1 SWAP2 SUB SWAP1 RETURN JUMPDEST PUSH2 0x143 PUSH2 0x645 JUMP JUMPDEST PUSH1 0x40 MLOAD PUSH2 0x150 SWAP2 SWAP1 PUSH2 0xD19 JUMP JUMPDEST PUSH1 0x40 MLOAD DUP1 SWAP2 SUB SWAP1 RETURN JUMPDEST PUSH2 0x173 PUSH1 0x4 DUP1 CALLDATASIZE SUB DUP2 ADD SWAP1 PUSH2 0x16E SWAP2 SWAP1 PUSH2 0x956 JUMP JUMPDEST PUSH2 0x64B JUMP JUMPDEST STOP JUMPDEST PUSH2 0x17D PUSH2 0x6CF JUMP JUMPDEST PUSH1 0x0 DUP2 GT PUSH2 0x1C0 JUMPI PUSH1 0x40 MLOAD PUSH32 0x8C379A000000000000000000000000000000000000000000000000000000000 DUP2 MSTORE PUSH1 0x4 ADD PUSH2 0x1B7 SWAP1 PUSH2 0xCD9 JUMP JUMPDEST PUSH1 0x40 MLOAD DUP1 SWAP2 SUB SWAP1 REVERT JUMPDEST PUSH1 0x0 PUSH1 0x7 PUSH1 0x0 DUP5 DUP2 MSTORE PUSH1 0x20 ADD SWAP1 DUP2 MSTORE PUSH1 0x20 ADD PUSH1 0x0 KECCAK256 SWAP1 POP PUSH1 0x0 DUP2 PUSH1 0x0 ADD DUP1 SLOAD PUSH2 0x1E8 SWAP1 PUSH2 0xEB9 JUMP JUMPDEST SWAP1 POP EQ ISZERO PUSH2 0x22B JUMPI PUSH1 0x40 MLOAD PUSH32 0x8C379A000000000000000000000000000000000000000000000000000000000 DUP2 MSTORE PUSH1 0x4 ADD PUSH2 0x222 SWAP1 PUSH2 0xCF9 JUMP JUMPDEST PUSH1 0x40 MLOAD DUP1 SWAP2 SUB SWAP1 REVERT JUMPDEST PUSH1 0x1 DUP2 PUSH1 0x1 ADD PUSH1 0x0 DUP3 DUP3 SLOAD PUSH2 0x240 SWAP2 SWAP1 PUSH2 0xDB1 JUMP JUMPDEST SWAP3 POP POP DUP2 SWAP1 SSTORE DUP2 PUSH1 0x1 ADD DUP2 SWAP1 SSTORE POP POP POP POP JUMP JUMPDEST PUSH2 0x25B PUSH2 0x6CF JUMP JUMPDEST DUP2 PUSH1 0x6 DUP2 PUSH1 0x40 MLOAD PUSH2 0x26C SWAP2 SWAP1 PUSH2 0xBC9 JUMP JUMPDEST SWAP1 DUP2 MSTORE PUSH1 0x20 ADD PUSH1 0x40 MLOAD DUP1 SWAP2 SUB SWAP1 KECCAK256 PUSH1 0x0 SWAP1 SLOAD SWAP1 PUSH2 0x100 EXP SWAP1 DIV PUSH1 0xFF AND ISZERO PUSH2 0x2C8 JUMPI PUSH1 0x40 MLOAD PUSH32 0x8C379A000000000000000000000000000000000000000000000000000000000 DUP2 MSTORE PUSH1 0x4 ADD PUSH2 0x2BF SWAP1 PUSH2 0xC59 JUMP JUMPDEST PUSH1 0x40 MLOAD DUP1 SWAP2 SUB SWAP1 REVERT JUMPDEST PUSH1 0x0 DUP4 MLOAD EQ ISZERO PUSH2 0x30D JUMPI PUSH1 0x40 MLOAD PUSH32 0x8C379A000000000000000000000000000000000000000000000000000000000 DUP2 MSTORE PUSH1 0x4 ADD PUSH2 0x304 SWAP1 PUSH2 0xC39 JUMP JUMPDEST PUSH1 0x40 MLOAD DUP1 SWAP2 SUB SWAP1 REVERT JUMPDEST PUSH1 0x1 PUSH1 0x6 DUP5 PUSH1 0x40 MLOAD PUSH2 0x31F SWAP2 SWAP1 PUSH2 0xBC9 JUMP JUMPDEST SWAP1 DUP2 MSTORE PUSH1 0x20 ADD PUSH1 0x40 MLOAD DUP1 SWAP2 SUB SWAP1 KECCAK256 PUSH1 0x0 PUSH2 0x100 EXP DUP2 SLOAD DUP2 PUSH1 0xFF MUL NOT AND SWAP1 DUP4 ISZERO ISZERO MUL OR SWAP1 SSTORE POP PUSH1 0x0 PUSH1 0x1 DUP4 PUSH2 0x353 SWAP2 SWAP1 PUSH2 0xDB1 JUMP JUMPDEST SWAP3 POP DUP3 SWAP1 POP PUSH1 0x0 PUSH1 0x7 PUSH1 0x0 DUP4 DUP2 MSTORE PUSH1 0x20 ADD SWAP1 DUP2 MSTORE PUSH1 0x20 ADD PUSH1 0x0 KECCAK256 SWAP1 POP DUP5 DUP2 PUSH1 0x0 ADD SWAP1 DUP1 MLOAD SWAP1 PUSH1 0x20 ADD SWAP1 PUSH2 0x387 SWAP3 SWAP2 SWAP1 PUSH2 0x819 JUMP JUMPDEST POP DUP4 DUP2 PUSH1 0x1 ADD DUP2 SWAP1 SSTORE POP POP POP POP POP POP JUMP JUMPDEST PUSH2 0x3A0 PUSH2 0x6CF JUMP JUMPDEST PUSH2 0x3AA PUSH1 0x0 PUSH2 0x74D JUMP JUMPDEST JUMP JUMPDEST PUSH1 0x7 PUSH1 0x20 MSTORE DUP1 PUSH1 0x0 MSTORE PUSH1 0x40 PUSH1 0x0 KECCAK256 PUSH1 0x0 SWAP2 POP SWAP1 POP DUP1 PUSH1 0x0 ADD DUP1 SLOAD PUSH2 0x3CF SWAP1 PUSH2 0xEB9 JUMP JUMPDEST DUP1 PUSH1 0x1F ADD PUSH1 0x20 DUP1 SWAP2 DIV MUL PUSH1 0x20 ADD PUSH1 0x40 MLOAD SWAP1 DUP2 ADD PUSH1 0x40 MSTORE DUP1 SWAP3 SWAP2 SWAP1 DUP2 DUP2 MSTORE PUSH1 0x20 ADD DUP3 DUP1 SLOAD PUSH2 0x3FB SWAP1 PUSH2 0xEB9 JUMP JUMPDEST DUP1 ISZERO PUSH2 0x448 JUMPI DUP1 PUSH1 0x1F LT PUSH2 0x41D JUMPI PUSH2 0x100 DUP1 DUP4 SLOAD DIV MUL DUP4 MSTORE SWAP2 PUSH1 0x20 ADD SWAP2 PUSH2 0x448 JUMP JUMPDEST DUP3 ADD SWAP2 SWAP1 PUSH1 0x0 MSTORE PUSH1 0x20 PUSH1 0x0 KECCAK256 SWAP1 JUMPDEST DUP2 SLOAD DUP2 MSTORE SWAP1 PUSH1 0x1 ADD SWAP1 PUSH1 0x20 ADD DUP1 DUP4 GT PUSH2 0x42B JUMPI DUP3 SWAP1 SUB PUSH1 0x1F AND DUP3 ADD SWAP2 JUMPDEST POP POP POP POP POP SWAP1 DUP1 PUSH1 0x1 ADD SLOAD SWAP1 DUP1 PUSH1 0x2 ADD SLOAD SWAP1 POP DUP4 JUMP JUMPDEST PUSH1 0x8 PUSH1 0x0 CALLER PUSH20 0xFFFFFFFFFFFFFFFFFFFFFFFFFFFFFFFFFFFFFFFF AND PUSH20 0xFFFFFFFFFFFFFFFFFFFFFFFFFFFFFFFFFFFFFFFF AND DUP2 MSTORE PUSH1 0x20 ADD SWAP1 DUP2 MSTORE PUSH1 0x20 ADD PUSH1 0x0 KECCAK256 PUSH1 0x0 DUP3 DUP2 MSTORE PUSH1 0x20 ADD SWAP1 DUP2 MSTORE PUSH1 0x20 ADD PUSH1 0x0 KECCAK256 PUSH1 0x0 SWAP1 SLOAD SWAP1 PUSH2 0x100 EXP SWAP1 DIV PUSH1 0xFF AND ISZERO PUSH2 0x4FC JUMPI PUSH1 0x40 MLOAD PUSH32 0x8C379A000000000000000000000000000000000000000000000000000000000 DUP2 MSTORE PUSH1 0x4 ADD PUSH2 0x4F3 SWAP1 PUSH2 0xC79 JUMP JUMPDEST PUSH1 0x40 MLOAD DUP1 SWAP2 SUB SWAP1 REVERT JUMPDEST PUSH1 0x1 PUSH1 0x8 PUSH1 0x0 CALLER PUSH20 0xFFFFFFFFFFFFFFFFFFFFFFFFFFFFFFFFFFFFFFFF AND PUSH20 0xFFFFFFFFFFFFFFFFFFFFFFFFFFFFFFFFFFFFFFFF AND DUP2 MSTORE PUSH1 0x20 ADD SWAP1 DUP2 MSTORE PUSH1 0x20 ADD PUSH1 0x0 KECCAK256 PUSH1 0x0 DUP4 DUP2 MSTORE PUSH1 0x20 ADD SWAP1 DUP2 MSTORE PUSH1 0x20 ADD PUSH1 0x0 KECCAK256 PUSH1 0x0 PUSH2 0x100 EXP DUP2 SLOAD DUP2 PUSH1 0xFF MUL NOT AND SWAP1 DUP4 ISZERO ISZERO MUL OR SWAP1 SSTORE POP PUSH1 0x0 PUSH1 0x7 PUSH1 0x0 DUP4 DUP2 MSTORE PUSH1 0x20 ADD SWAP1 DUP2 MSTORE PUSH1 0x20 ADD PUSH1 0x0 KECCAK256 SWAP1 POP PUSH1 0x1 DUP2 PUSH1 0x1 ADD SLOAD LT ISZERO PUSH2 0x58E JUMPI PUSH1 0x0 DUP1 REVERT JUMPDEST PUSH1 0x1 DUP2 PUSH1 0x1 ADD SLOAD PUSH2 0x59F SWAP2 SWAP1 PUSH2 0xE07 JUMP JUMPDEST DUP2 PUSH1 0x1 ADD DUP2 SWAP1 SSTORE POP CALLER DUP2 PUSH1 0x3 ADD PUSH1 0x0 DUP4 PUSH1 0x2 ADD SLOAD DUP2 MSTORE PUSH1 0x20 ADD SWAP1 DUP2 MSTORE PUSH1 0x20 ADD PUSH1 0x0 KECCAK256 PUSH1 0x0 PUSH2 0x100 EXP DUP2 SLOAD DUP2 PUSH20 0xFFFFFFFFFFFFFFFFFFFFFFFFFFFFFFFFFFFFFFFF MUL NOT AND SWAP1 DUP4 PUSH20 0xFFFFFFFFFFFFFFFFFFFFFFFFFFFFFFFFFFFFFFFF AND MUL OR SWAP1 SSTORE POP PUSH1 0x1 DUP2 PUSH1 0x2 ADD SLOAD PUSH2 0x610 SWAP2 SWAP1 PUSH2 0xDB1 JUMP JUMPDEST DUP2 PUSH1 0x2 ADD DUP2 SWAP1 SSTORE POP POP POP JUMP JUMPDEST PUSH1 0x0 DUP1 PUSH1 0x0 SWAP1 SLOAD SWAP1 PUSH2 0x100 EXP SWAP1 DIV PUSH20 0xFFFFFFFFFFFFFFFFFFFFFFFFFFFFFFFFFFFFFFFF AND SWAP1 POP SWAP1 JUMP JUMPDEST PUSH1 0x5 SLOAD DUP2 JUMP JUMPDEST PUSH2 0x653 PUSH2 0x6CF JUMP JUMPDEST PUSH1 0x0 PUSH20 0xFFFFFFFFFFFFFFFFFFFFFFFFFFFFFFFFFFFFFFFF AND DUP2 PUSH20 0xFFFFFFFFFFFFFFFFFFFFFFFFFFFFFFFFFFFFFFFF AND EQ ISZERO PUSH2 0x6C3 JUMPI PUSH1 0x40 MLOAD PUSH32 0x8C379A000000000000000000000000000000000000000000000000000000000 DUP2 MSTORE PUSH1 0x4 ADD PUSH2 0x6BA SWAP1 PUSH2 0xC99 JUMP JUMPDEST PUSH1 0x40 MLOAD DUP1 SWAP2 SUB SWAP1 REVERT JUMPDEST PUSH2 0x6CC DUP2 PUSH2 0x74D JUMP JUMPDEST POP JUMP JUMPDEST PUSH2 0x6D7 PUSH2 0x811 JUMP JUMPDEST PUSH20 0xFFFFFFFFFFFFFFFFFFFFFFFFFFFFFFFFFFFFFFFF AND PUSH2 0x6F5 PUSH2 0x61C JUMP JUMPDEST PUSH20 0xFFFFFFFFFFFFFFFFFFFFFFFFFFFFFFFFFFFFFFFF AND EQ PUSH2 0x74B JUMPI PUSH1 0x40 MLOAD PUSH32 0x8C379A000000000000000000000000000000000000000000000000000000000 DUP2 MSTORE PUSH1 0x4 ADD PUSH2 0x742 SWAP1 PUSH2 0xCB9 JUMP JUMPDEST PUSH1 0x40 MLOAD DUP1 SWAP2 SUB SWAP1 REVERT JUMPDEST JUMP JUMPDEST PUSH1 0x0 DUP1 PUSH1 0x0 SWAP1 SLOAD SWAP1 PUSH2 0x100 EXP SWAP1 DIV PUSH20 0xFFFFFFFFFFFFFFFFFFFFFFFFFFFFFFFFFFFFFFFF AND SWAP1 POP DUP2 PUSH1 0x0 DUP1 PUSH2 0x100 EXP DUP2 SLOAD DUP2 PUSH20 0xFFFFFFFFFFFFFFFFFFFFFFFFFFFFFFFFFFFFFFFF MUL NOT AND SWAP1 DUP4 PUSH20 0xFFFFFFFFFFFFFFFFFFFFFFFFFFFFFFFFFFFFFFFF AND MUL OR SWAP1 SSTORE POP DUP2 PUSH20 0xFFFFFFFFFFFFFFFFFFFFFFFFFFFFFFFFFFFFFFFF AND DUP2 PUSH20 0xFFFFFFFFFFFFFFFFFFFFFFFFFFFFFFFFFFFFFFFF AND PUSH32 0x8BE0079C531659141344CD1FD0A4F28419497F9722A3DAAFE3B4186F6B6457E0 PUSH1 0x40 MLOAD PUSH1 0x40 MLOAD DUP1 SWAP2 SUB SWAP1 LOG3 POP POP JUMP JUMPDEST PUSH1 0x0 CALLER SWAP1 POP SWAP1 JUMP JUMPDEST DUP3 DUP1 SLOAD PUSH2 0x825 SWAP1 PUSH2 0xEB9 JUMP JUMPDEST SWAP1 PUSH1 0x0 MSTORE PUSH1 0x20 PUSH1 0x0 KECCAK256 SWAP1 PUSH1 0x1F ADD PUSH1 0x20 SWAP1 DIV DUP2 ADD SWAP3 DUP3 PUSH2 0x847 JUMPI PUSH1 0x0 DUP6 SSTORE PUSH2 0x88E JUMP JUMPDEST DUP3 PUSH1 0x1F LT PUSH2 0x860 JUMPI DUP1 MLOAD PUSH1 0xFF NOT AND DUP4 DUP1 ADD OR DUP6 SSTORE PUSH2 0x88E JUMP JUMPDEST DUP3 DUP1 ADD PUSH1 0x1 ADD DUP6 SSTORE DUP3 ISZERO PUSH2 0x88E JUMPI SWAP2 DUP3 ADD JUMPDEST DUP3 DUP2 GT ISZERO PUSH2 0x88D JUMPI DUP3 MLOAD DUP3 SSTORE SWAP2 PUSH1 0x20 ADD SWAP2 SWAP1 PUSH1 0x1 ADD SWAP1 PUSH2 0x872 JUMP JUMPDEST JUMPDEST POP SWAP1 POP PUSH2 0x89B SWAP2 SWAP1 PUSH2 0x89F JUMP JUMPDEST POP SWAP1 JUMP JUMPDEST JUMPDEST DUP1 DUP3 GT ISZERO PUSH2 0x8B8 JUMPI PUSH1 0x0 DUP2 PUSH1 0x0 SWAP1 SSTORE POP PUSH1 0x1 ADD PUSH2 0x8A0 JUMP JUMPDEST POP SWAP1 JUMP JUMPDEST PUSH1 0x0 PUSH2 0x8CF PUSH2 0x8CA DUP5 PUSH2 0xD59 JUMP JUMPDEST PUSH2 0xD34 JUMP JUMPDEST SWAP1 POP DUP3 DUP2 MSTORE PUSH1 0x20 DUP2 ADD DUP5 DUP5 DUP5 ADD GT ISZERO PUSH2 0x8EB JUMPI PUSH2 0x8EA PUSH2 0xFAE JUMP JUMPDEST JUMPDEST PUSH2 0x8F6 DUP5 DUP3 DUP6 PUSH2 0xE77 JUMP JUMPDEST POP SWAP4 SWAP3 POP POP POP JUMP JUMPDEST PUSH1 0x0 DUP2 CALLDATALOAD SWAP1 POP PUSH2 0x90D DUP2 PUSH2 0x1113 JUMP JUMPDEST SWAP3 SWAP2 POP POP JUMP JUMPDEST PUSH1 0x0 DUP3 PUSH1 0x1F DUP4 ADD SLT PUSH2 0x928 JUMPI PUSH2 0x927 PUSH2 0xFA9 JUMP JUMPDEST JUMPDEST DUP2 CALLDATALOAD PUSH2 0x938 DUP5 DUP3 PUSH1 0x20 DUP7 ADD PUSH2 0x8BC JUMP JUMPDEST SWAP2 POP POP SWAP3 SWAP2 POP POP JUMP JUMPDEST PUSH1 0x0 DUP2 CALLDATALOAD SWAP1 POP PUSH2 0x950 DUP2 PUSH2 0x112A JUMP JUMPDEST SWAP3 SWAP2 POP POP JUMP JUMPDEST PUSH1 0x0 PUSH1 0x20 DUP3 DUP5 SUB SLT ISZERO PUSH2 0x96C JUMPI PUSH2 0x96B PUSH2 0xFB8 JUMP JUMPDEST JUMPDEST PUSH1 0x0 PUSH2 0x97A DUP5 DUP3 DUP6 ADD PUSH2 0x8FE JUMP JUMPDEST SWAP2 POP POP SWAP3 SWAP2 POP POP JUMP JUMPDEST PUSH1 0x0 DUP1 PUSH1 0x40 DUP4 DUP6 SUB SLT ISZERO PUSH2 0x99A JUMPI PUSH2 0x999 PUSH2 0xFB8 JUMP JUMPDEST JUMPDEST PUSH1 0x0 DUP4 ADD CALLDATALOAD PUSH8 0xFFFFFFFFFFFFFFFF DUP2 GT ISZERO PUSH2 0x9B8 JUMPI PUSH2 0x9B7 PUSH2 0xFB3 JUMP JUMPDEST JUMPDEST PUSH2 0x9C4 DUP6 DUP3 DUP7 ADD PUSH2 0x913 JUMP JUMPDEST SWAP3 POP POP PUSH1 0x20 PUSH2 0x9D5 DUP6 DUP3 DUP7 ADD PUSH2 0x941 JUMP JUMPDEST SWAP2 POP POP SWAP3 POP SWAP3 SWAP1 POP JUMP JUMPDEST PUSH1 0x0 PUSH1 0x20 DUP3 DUP5 SUB SLT ISZERO PUSH2 0x9F5 JUMPI PUSH2 0x9F4 PUSH2 0xFB8 JUMP JUMPDEST JUMPDEST PUSH1 0x0 PUSH2 0xA03 DUP5 DUP3 DUP6 ADD PUSH2 0x941 JUMP JUMPDEST SWAP2 POP POP SWAP3 SWAP2 POP POP JUMP JUMPDEST PUSH1 0x0 DUP1 PUSH1 0x40 DUP4 DUP6 SUB SLT ISZERO PUSH2 0xA23 JUMPI PUSH2 0xA22 PUSH2 0xFB8 JUMP JUMPDEST JUMPDEST PUSH1 0x0 PUSH2 0xA31 DUP6 DUP3 DUP7 ADD PUSH2 0x941 JUMP JUMPDEST SWAP3 POP POP PUSH1 0x20 PUSH2 0xA42 DUP6 DUP3 DUP7 ADD PUSH2 0x941 JUMP JUMPDEST SWAP2 POP POP SWAP3 POP SWAP3 SWAP1 POP JUMP JUMPDEST PUSH2 0xA55 DUP2 PUSH2 0xE3B JUMP JUMPDEST DUP3 MSTORE POP POP JUMP JUMPDEST PUSH1 0x0 PUSH2 0xA66 DUP3 PUSH2 0xD8A JUMP JUMPDEST PUSH2 0xA70 DUP2 DUP6 PUSH2 0xD95 JUMP JUMPDEST SWAP4 POP PUSH2 0xA80 DUP2 DUP6 PUSH1 0x20 DUP7 ADD PUSH2 0xE86 JUMP JUMPDEST PUSH2 0xA89 DUP2 PUSH2 0xFBD JUMP JUMPDEST DUP5 ADD SWAP2 POP POP SWAP3 SWAP2 POP POP JUMP JUMPDEST PUSH1 0x0 PUSH2 0xA9F DUP3 PUSH2 0xD8A JUMP JUMPDEST PUSH2 0xAA9 DUP2 DUP6 PUSH2 0xDA6 JUMP JUMPDEST SWAP4 POP PUSH2 0xAB9 DUP2 DUP6 PUSH1 0x20 DUP7 ADD PUSH2 0xE86 JUMP JUMPDEST DUP1 DUP5 ADD SWAP2 POP POP SWAP3 SWAP2 POP POP JUMP JUMPDEST PUSH1 0x0 PUSH2 0xAD2 PUSH1 0x14 DUP4 PUSH2 0xD95 JUMP JUMPDEST SWAP2 POP PUSH2 0xADD DUP3 PUSH2 0xFCE JUMP JUMPDEST PUSH1 0x20 DUP3 ADD SWAP1 POP SWAP2 SWAP1 POP JUMP JUMPDEST PUSH1 0x0 PUSH2 0xAF5 PUSH1 0x11 DUP4 PUSH2 0xD95 JUMP JUMPDEST SWAP2 POP PUSH2 0xB00 DUP3 PUSH2 0xFF7 JUMP JUMPDEST PUSH1 0x20 DUP3 ADD SWAP1 POP SWAP2 SWAP1 POP JUMP JUMPDEST PUSH1 0x0 PUSH2 0xB18 PUSH1 0x16 DUP4 PUSH2 0xD95 JUMP JUMPDEST SWAP2 POP PUSH2 0xB23 DUP3 PUSH2 0x1020 JUMP JUMPDEST PUSH1 0x20 DUP3 ADD SWAP1 POP SWAP2 SWAP1 POP JUMP JUMPDEST PUSH1 0x0 PUSH2 0xB3B PUSH1 0x26 DUP4 PUSH2 0xD95 JUMP JUMPDEST SWAP2 POP PUSH2 0xB46 DUP3 PUSH2 0x1049 JUMP JUMPDEST PUSH1 0x40 DUP3 ADD SWAP1 POP SWAP2 SWAP1 POP JUMP JUMPDEST PUSH1 0x0 PUSH2 0xB5E PUSH1 0x20 DUP4 PUSH2 0xD95 JUMP JUMPDEST SWAP2 POP PUSH2 0xB69 DUP3 PUSH2 0x1098 JUMP JUMPDEST PUSH1 0x20 DUP3 ADD SWAP1 POP SWAP2 SWAP1 POP JUMP JUMPDEST PUSH1 0x0 PUSH2 0xB81 PUSH1 0x5 DUP4 PUSH2 0xD95 JUMP JUMPDEST SWAP2 POP PUSH2 0xB8C DUP3 PUSH2 0x10C1 JUMP JUMPDEST PUSH1 0x20 DUP3 ADD SWAP1 POP SWAP2 SWAP1 POP JUMP JUMPDEST PUSH1 0x0 PUSH2 0xBA4 PUSH1 0x13 DUP4 PUSH2 0xD95 JUMP JUMPDEST SWAP2 POP PUSH2 0xBAF DUP3 PUSH2 0x10EA JUMP JUMPDEST PUSH1 0x20 DUP3 ADD SWAP1 POP SWAP2 SWAP1 POP JUMP JUMPDEST PUSH2 0xBC3 DUP2 PUSH2 0xE6D JUMP JUMPDEST DUP3 MSTORE POP POP JUMP JUMPDEST PUSH1 0x0 PUSH2 0xBD5 DUP3 DUP5 PUSH2 0xA94 JUMP JUMPDEST SWAP2 POP DUP2 SWAP1 POP SWAP3 SWAP2 POP POP JUMP JUMPDEST PUSH1 0x0 PUSH1 0x20 DUP3 ADD SWAP1 POP PUSH2 0xBF5 PUSH1 0x0 DUP4 ADD DUP5 PUSH2 0xA4C JUMP JUMPDEST SWAP3 SWAP2 POP POP JUMP JUMPDEST PUSH1 0x0 PUSH1 0x60 DUP3 ADD SWAP1 POP DUP2 DUP2 SUB PUSH1 0x0 DUP4 ADD MSTORE PUSH2 0xC15 DUP2 DUP7 PUSH2 0xA5B JUMP JUMPDEST SWAP1 POP PUSH2 0xC24 PUSH1 0x20 DUP4 ADD DUP6 PUSH2 0xBBA JUMP JUMPDEST PUSH2 0xC31 PUSH1 0x40 DUP4 ADD DUP5 PUSH2 0xBBA JUMP JUMPDEST SWAP5 SWAP4 POP POP POP POP JUMP JUMPDEST PUSH1 0x0 PUSH1 0x20 DUP3 ADD SWAP1 POP DUP2 DUP2 SUB PUSH1 0x0 DUP4 ADD MSTORE PUSH2 0xC52 DUP2 PUSH2 0xAC5 JUMP JUMPDEST SWAP1 POP SWAP2 SWAP1 POP JUMP JUMPDEST PUSH1 0x0 PUSH1 0x20 DUP3 ADD SWAP1 POP DUP2 DUP2 SUB PUSH1 0x0 DUP4 ADD MSTORE PUSH2 0xC72 DUP2 PUSH2 0xAE8 JUMP JUMPDEST SWAP1 POP SWAP2 SWAP1 POP JUMP JUMPDEST PUSH1 0x0 PUSH1 0x20 DUP3 ADD SWAP1 POP DUP2 DUP2 SUB PUSH1 0x0 DUP4 ADD MSTORE PUSH2 0xC92 DUP2 PUSH2 0xB0B JUMP JUMPDEST SWAP1 POP SWAP2 SWAP1 POP JUMP JUMPDEST PUSH1 0x0 PUSH1 0x20 DUP3 ADD SWAP1 POP DUP2 DUP2 SUB PUSH1 0x0 DUP4 ADD MSTORE PUSH2 0xCB2 DUP2 PUSH2 0xB2E JUMP JUMPDEST SWAP1 POP SWAP2 SWAP1 POP JUMP JUMPDEST PUSH1 0x0 PUSH1 0x20 DUP3 ADD SWAP1 POP DUP2 DUP2 SUB PUSH1 0x0 DUP4 ADD MSTORE PUSH2 0xCD2 DUP2 PUSH2 0xB51 JUMP JUMPDEST SWAP1 POP SWAP2 SWAP1 POP JUMP JUMPDEST PUSH1 0x0 PUSH1 0x20 DUP3 ADD SWAP1 POP DUP2 DUP2 SUB PUSH1 0x0 DUP4 ADD MSTORE PUSH2 0xCF2 DUP2 PUSH2 0xB74 JUMP JUMPDEST SWAP1 POP SWAP2 SWAP1 POP JUMP JUMPDEST PUSH1 0x0 PUSH1 0x20 DUP3 ADD SWAP1 POP DUP2 DUP2 SUB PUSH1 0x0 DUP4 ADD MSTORE PUSH2 0xD12 DUP2 PUSH2 0xB97 JUMP JUMPDEST SWAP1 POP SWAP2 SWAP1 POP JUMP JUMPDEST PUSH1 0x0 PUSH1 0x20 DUP3 ADD SWAP1 POP PUSH2 0xD2E PUSH1 0x0 DUP4 ADD DUP5 PUSH2 0xBBA JUMP JUMPDEST SWAP3 SWAP2 POP POP JUMP JUMPDEST PUSH1 0x0 PUSH2 0xD3E PUSH2 0xD4F JUMP JUMPDEST SWAP1 POP PUSH2 0xD4A DUP3 DUP3 PUSH2 0xEEB JUMP JUMPDEST SWAP2 SWAP1 POP JUMP JUMPDEST PUSH1 0x0 PUSH1 0x40 MLOAD SWAP1 POP SWAP1 JUMP JUMPDEST PUSH1 0x0 PUSH8 0xFFFFFFFFFFFFFFFF DUP3 GT ISZERO PUSH2 0xD74 JUMPI PUSH2 0xD73 PUSH2 0xF7A JUMP JUMPDEST JUMPDEST PUSH2 0xD7D DUP3 PUSH2 0xFBD JUMP JUMPDEST SWAP1 POP PUSH1 0x20 DUP2 ADD SWAP1 POP SWAP2 SWAP1 POP JUMP JUMPDEST PUSH1 0x0 DUP2 MLOAD SWAP1 POP SWAP2 SWAP1 POP JUMP JUMPDEST PUSH1 0x0 DUP3 DUP3 MSTORE PUSH1 0x20 DUP3 ADD SWAP1 POP SWAP3 SWAP2 POP POP JUMP JUMPDEST PUSH1 0x0 DUP2 SWAP1 POP SWAP3 SWAP2 POP POP JUMP JUMPDEST PUSH1 0x0 PUSH2 0xDBC DUP3 PUSH2 0xE6D JUMP JUMPDEST SWAP2 POP PUSH2 0xDC7 DUP4 PUSH2 0xE6D JUMP JUMPDEST SWAP3 POP DUP3 PUSH32 0xFFFFFFFFFFFFFFFFFFFFFFFFFFFFFFFFFFFFFFFFFFFFFFFFFFFFFFFFFFFFFFFF SUB DUP3 GT ISZERO PUSH2 0xDFC JUMPI PUSH2 0xDFB PUSH2 0xF1C JUMP JUMPDEST JUMPDEST DUP3 DUP3 ADD SWAP1 POP SWAP3 SWAP2 POP POP JUMP JUMPDEST PUSH1 0x0 PUSH2 0xE12 DUP3 PUSH2 0xE6D JUMP JUMPDEST SWAP2 POP PUSH2 0xE1D DUP4 PUSH2 0xE6D JUMP JUMPDEST SWAP3 POP DUP3 DUP3 LT ISZERO PUSH2 0xE30 JUMPI PUSH2 0xE2F PUSH2 0xF1C JUMP JUMPDEST JUMPDEST DUP3 DUP3 SUB SWAP1 POP SWAP3 SWAP2 POP POP JUMP JUMPDEST PUSH1 0x0 PUSH2 0xE46 DUP3 PUSH2 0xE4D JUMP JUMPDEST SWAP1 POP SWAP2 SWAP1 POP JUMP JUMPDEST PUSH1 0x0 PUSH20 0xFFFFFFFFFFFFFFFFFFFFFFFFFFFFFFFFFFFFFFFF DUP3 AND SWAP1 POP SWAP2 SWAP1 POP JUMP JUMPDEST PUSH1 0x0 DUP2 SWAP1 POP SWAP2 SWAP1 POP JUMP JUMPDEST DUP3 DUP2 DUP4 CALLDATACOPY PUSH1 0x0 DUP4 DUP4 ADD MSTORE POP POP POP JUMP JUMPDEST PUSH1 0x0 JUMPDEST DUP4 DUP2 LT ISZERO PUSH2 0xEA4 JUMPI DUP1 DUP3 ADD MLOAD DUP2 DUP5 ADD MSTORE PUSH1 0x20 DUP2 ADD SWAP1 POP PUSH2 0xE89 JUMP JUMPDEST DUP4 DUP2 GT ISZERO PUSH2 0xEB3 JUMPI PUSH1 0x0 DUP5 DUP5 ADD MSTORE JUMPDEST POP POP POP POP JUMP JUMPDEST PUSH1 0x0 PUSH1 0x2 DUP3 DIV SWAP1 POP PUSH1 0x1 DUP3 AND DUP1 PUSH2 0xED1 JUMPI PUSH1 0x7F DUP3 AND SWAP2 POP JUMPDEST PUSH1 0x20 DUP3 LT DUP2 EQ ISZERO PUSH2 0xEE5 JUMPI PUSH2 0xEE4 PUSH2 0xF4B JUMP JUMPDEST JUMPDEST POP SWAP2 SWAP1 POP JUMP JUMPDEST PUSH2 0xEF4 DUP3 PUSH2 0xFBD JUMP JUMPDEST DUP2 ADD DUP2 DUP2 LT PUSH8 0xFFFFFFFFFFFFFFFF DUP3 GT OR ISZERO PUSH2 0xF13 JUMPI PUSH2 0xF12 PUSH2 0xF7A JUMP JUMPDEST JUMPDEST DUP1 PUSH1 0x40 MSTORE POP POP POP JUMP JUMPDEST PUSH32 0x4E487B7100000000000000000000000000000000000000000000000000000000 PUSH1 0x0 MSTORE PUSH1 0x11 PUSH1 0x4 MSTORE PUSH1 0x24 PUSH1 0x0 REVERT JUMPDEST PUSH32 0x4E487B7100000000000000000000000000000000000000000000000000000000 PUSH1 0x0 MSTORE PUSH1 0x22 PUSH1 0x4 MSTORE PUSH1 0x24 PUSH1 0x0 REVERT JUMPDEST PUSH32 0x4E487B7100000000000000000000000000000000000000000000000000000000 PUSH1 0x0 MSTORE PUSH1 0x41 PUSH1 0x4 MSTORE PUSH1 0x24 PUSH1 0x0 REVERT JUMPDEST PUSH1 0x0 DUP1 REVERT JUMPDEST PUSH1 0x0 DUP1 REVERT JUMPDEST PUSH1 0x0 DUP1 REVERT JUMPDEST PUSH1 0x0 DUP1 REVERT JUMPDEST PUSH1 0x0 PUSH1 0x1F NOT PUSH1 0x1F DUP4 ADD AND SWAP1 POP SWAP2 SWAP1 POP JUMP JUMPDEST PUSH32 0x4E616D652063616E6E6F7420626520656D707479000000000000000000000000 PUSH1 0x0 DUP3 ADD MSTORE POP JUMP JUMPDEST PUSH32 0x426F6F6B20697320617661696C61626C65000000000000000000000000000000 PUSH1 0x0 DUP3 ADD MSTORE POP JUMP JUMPDEST PUSH32 0x426F6F6B20697320616C72656164792069737375656400000000000000000000 PUSH1 0x0 DUP3 ADD MSTORE POP JUMP JUMPDEST PUSH32 0x4F776E61626C653A206E6577206F776E657220697320746865207A65726F2061 PUSH1 0x0 DUP3 ADD MSTORE PUSH32 0x6464726573730000000000000000000000000000000000000000000000000000 PUSH1 0x20 DUP3 ADD MSTORE POP JUMP JUMPDEST PUSH32 0x4F776E61626C653A2063616C6C6572206973206E6F7420746865206F776E6572 PUSH1 0x0 DUP3 ADD MSTORE POP JUMP JUMPDEST PUSH32 0x217A65726F000000000000000000000000000000000000000000000000000000 PUSH1 0x0 DUP3 ADD MSTORE POP JUMP JUMPDEST PUSH32 0x426F6F6B20646F6573206E6F7420657869737400000000000000000000000000 PUSH1 0x0 DUP3 ADD MSTORE POP JUMP JUMPDEST PUSH2 0x111C DUP2 PUSH2 0xE3B JUMP JUMPDEST DUP2 EQ PUSH2 0x1127 JUMPI PUSH1 0x0 DUP1 REVERT JUMPDEST POP JUMP JUMPDEST PUSH2 0x1133 DUP2 PUSH2 0xE6D JUMP JUMPDEST DUP2 EQ PUSH2 0x113E JUMPI PUSH1 0x0 DUP1 REVERT JUMPDEST POP JUMP INVALID LOG2 PUSH5 0x6970667358 0x22 SLT KECCAK256 CALLDATACOPY ISZERO SHR 0xCD 0xDA SWAP6 SLT PUSH12 0xAB8D9C3A5959A249DC55E716 CHAINID CREATE2 SWAP14 0xCE LOG3 0xA9 0xD0 STATICCALL STATICCALL 0xAA 0xE3 DUP14 PUSH5 0x736F6C6343 STOP ADDMOD SMOD STOP CALLER "
				},
				"gasEstimates": {
					"creation": {
						"codeDepositCost": "894200",
						"executionCost": "infinite",
						"totalCost": "infinite"
					},
					"external": {
						"BookLedger(uint256)": "infinite",
						"addBook(string,uint256)": "infinite",
						"addBookCopies(uint256,uint256)": "infinite",
						"bookCount()": "2473",
						"borrowBook(uint256)": "infinite",
						"owner()": "2544",
						"renounceOwnership()": "30443",
						"transferOwnership(address)": "30813"
					}
				},
				"methodIdentifiers": {
					"BookLedger(uint256)": "7975c6b4",
					"addBook(string,uint256)": "637a3872",
					"addBookCopies(uint256,uint256)": "60f9eefc",
					"bookCount()": "b905ad78",
					"borrowBook(uint256)": "7e490a9e",
					"owner()": "8da5cb5b",
					"renounceOwnership()": "715018a6",
					"transferOwnership(address)": "f2fde38b"
				}
			},
			"storageLayout": {
				"storage": [
					{
						"astId": 7,
						"contract": "contracts/Library.sol:Library",
						"label": "_owner",
						"offset": 0,
						"slot": "0",
						"type": "t_address"
					},
					{
						"astId": 153,
						"contract": "contracts/Library.sol:Library",
						"label": "myBook",
						"offset": 0,
						"slot": "1",
						"type": "t_struct(Book)150_storage"
					},
					{
						"astId": 155,
						"contract": "contracts/Library.sol:Library",
						"label": "bookCount",
						"offset": 0,
						"slot": "5",
						"type": "t_uint256"
					},
					{
						"astId": 159,
						"contract": "contracts/Library.sol:Library",
						"label": "isAvailable",
						"offset": 0,
						"slot": "6",
						"type": "t_mapping(t_string_memory_ptr,t_bool)"
					},
					{
						"astId": 164,
						"contract": "contracts/Library.sol:Library",
						"label": "BookLedger",
						"offset": 0,
						"slot": "7",
						"type": "t_mapping(t_uint256,t_struct(Book)150_storage)"
					},
					{
						"astId": 170,
						"contract": "contracts/Library.sol:Library",
						"label": "isAlreadyIssued",
						"offset": 0,
						"slot": "8",
						"type": "t_mapping(t_address,t_mapping(t_uint256,t_bool))"
					}
				],
				"types": {
					"t_address": {
						"encoding": "inplace",
						"label": "address",
						"numberOfBytes": "20"
					},
					"t_bool": {
						"encoding": "inplace",
						"label": "bool",
						"numberOfBytes": "1"
					},
					"t_mapping(t_address,t_mapping(t_uint256,t_bool))": {
						"encoding": "mapping",
						"key": "t_address",
						"label": "mapping(address => mapping(uint256 => bool))",
						"numberOfBytes": "32",
						"value": "t_mapping(t_uint256,t_bool)"
					},
					"t_mapping(t_string_memory_ptr,t_bool)": {
						"encoding": "mapping",
						"key": "t_string_memory_ptr",
						"label": "mapping(string => bool)",
						"numberOfBytes": "32",
						"value": "t_bool"
					},
					"t_mapping(t_uint256,t_address)": {
						"encoding": "mapping",
						"key": "t_uint256",
						"label": "mapping(uint256 => address)",
						"numberOfBytes": "32",
						"value": "t_address"
					},
					"t_mapping(t_uint256,t_bool)": {
						"encoding": "mapping",
						"key": "t_uint256",
						"label": "mapping(uint256 => bool)",
						"numberOfBytes": "32",
						"value": "t_bool"
					},
					"t_mapping(t_uint256,t_struct(Book)150_storage)": {
						"encoding": "mapping",
						"key": "t_uint256",
						"label": "mapping(uint256 => struct Library.Book)",
						"numberOfBytes": "32",
						"value": "t_struct(Book)150_storage"
					},
					"t_string_memory_ptr": {
						"encoding": "bytes",
						"label": "string",
						"numberOfBytes": "32"
					},
					"t_string_storage": {
						"encoding": "bytes",
						"label": "string",
						"numberOfBytes": "32"
					},
					"t_struct(Book)150_storage": {
						"encoding": "inplace",
						"label": "struct Library.Book",
						"members": [
							{
								"astId": 141,
								"contract": "contracts/Library.sol:Library",
								"label": "name",
								"offset": 0,
								"slot": "0",
								"type": "t_string_storage"
							},
							{
								"astId": 143,
								"contract": "contracts/Library.sol:Library",
								"label": "copies",
								"offset": 0,
								"slot": "1",
								"type": "t_uint256"
							},
							{
								"astId": 145,
								"contract": "contracts/Library.sol:Library",
								"label": "ownerCount",
								"offset": 0,
								"slot": "2",
								"type": "t_uint256"
							},
							{
								"astId": 149,
								"contract": "contracts/Library.sol:Library",
								"label": "ownersHistory",
								"offset": 0,
								"slot": "3",
								"type": "t_mapping(t_uint256,t_address)"
							}
						],
						"numberOfBytes": "128"
					},
					"t_uint256": {
						"encoding": "inplace",
						"label": "uint256",
						"numberOfBytes": "32"
					}
				}
			},
			"userdoc": {
				"kind": "user",
				"methods": {},
				"version": 1
			}
		}
	}
}